{
  "_format": "hh-sol-artifact-1",
  "contractName": "pro_ponLogic",
  "sourceName": "contracts/proponLogic.sol",
  "abi": [
    {
      "inputs": [
        {
          "internalType": "address",
          "name": "_dataContractAddress",
          "type": "address"
        }
      ],
      "stateMutability": "payable",
      "type": "constructor"
    },
    {
      "anonymous": false,
      "inputs": [
        {
          "indexed": true,
          "internalType": "address",
          "name": "sender",
          "type": "address"
        },
        {
          "indexed": false,
          "internalType": "uint16",
          "name": "id",
          "type": "uint16"
        },
        {
          "indexed": false,
          "internalType": "string",
          "name": "name",
          "type": "string"
        }
      ],
      "name": "NewRFPCreated",
      "type": "event"
    },
    {
      "inputs": [
        {
          "internalType": "uint16",
          "name": "_rfpIdx",
          "type": "uint16"
        },
        {
          "internalType": "uint256[]",
          "name": "_docTypes",
          "type": "uint256[]"
        },
        {
          "internalType": "string[]",
          "name": "_names",
          "type": "string[]"
        },
        {
          "internalType": "string[]",
          "name": "_documentHashes",
          "type": "string[]"
        },
        {
          "internalType": "string[]",
          "name": "_idxs",
          "type": "string[]"
        }
      ],
      "name": "addDocuments",
      "outputs": [],
      "stateMutability": "nonpayable",
      "type": "function"
    },
    {
      "inputs": [
        {
          "internalType": "string",
          "name": "_companyId",
          "type": "string"
        },
        {
          "internalType": "uint16",
          "name": "_rfpIndex",
          "type": "uint16"
        }
      ],
      "name": "cancelRFP",
      "outputs": [],
      "stateMutability": "nonpayable",
      "type": "function"
    },
    {
      "inputs": [
        {
          "internalType": "string",
          "name": "_id",
          "type": "string"
        },
        {
          "internalType": "string",
          "name": "_name",
          "type": "string"
        },
        {
          "internalType": "string",
          "name": "_country",
          "type": "string"
        }
      ],
      "name": "createCompany",
      "outputs": [],
      "stateMutability": "payable",
      "type": "function"
    },
    {
      "inputs": [
        {
          "internalType": "string",
          "name": "_name",
          "type": "string"
        },
        {
          "internalType": "string",
          "name": "_description",
          "type": "string"
        },
        {
          "internalType": "string",
          "name": "_rfpwebsite",
          "type": "string"
        },
        {
          "internalType": "uint256",
          "name": "_openDate",
          "type": "uint256"
        },
        {
          "internalType": "uint256",
          "name": "_endReceivingDate",
          "type": "uint256"
        },
        {
          "internalType": "uint256",
          "name": "_endDate",
          "type": "uint256"
        },
        {
          "internalType": "enum proponShared.ContestType",
          "name": "_contestType",
          "type": "uint8"
        },
        {
          "internalType": "string[]",
          "name": "_items",
          "type": "string[]"
        }
      ],
      "name": "createRFP",
      "outputs": [],
      "stateMutability": "payable",
      "type": "function"
    },
    {
      "inputs": [
        {
          "internalType": "uint16",
          "name": "_rfpIndex",
          "type": "uint16"
        },
        {
          "internalType": "string",
          "name": "_companyId",
          "type": "string"
        },
        {
          "internalType": "address[]",
          "name": "winners",
          "type": "address[]"
        }
      ],
      "name": "declareWinners",
      "outputs": [],
      "stateMutability": "nonpayable",
      "type": "function"
    },
    {
      "inputs": [],
      "name": "destroy",
      "outputs": [],
      "stateMutability": "nonpayable",
      "type": "function"
    },
    {
      "inputs": [],
      "name": "getOwner",
      "outputs": [
        {
          "internalType": "address",
          "name": "",
          "type": "address"
        }
      ],
      "stateMutability": "view",
      "type": "function"
    },
    {
      "inputs": [
        {
          "internalType": "uint16",
          "name": "_rfpId",
          "type": "uint16"
        },
        {
          "internalType": "string",
          "name": "companyId",
          "type": "string"
        },
        {
          "internalType": "address[]",
          "name": "invitedCompanies",
          "type": "address[]"
        }
      ],
      "name": "inviteCompaniestoRFP",
      "outputs": [],
      "stateMutability": "nonpayable",
      "type": "function"
    },
    {
      "inputs": [
        {
          "internalType": "uint16",
          "name": "_rfpId",
          "type": "uint16"
        }
      ],
      "name": "registertoOpenRFP",
      "outputs": [],
      "stateMutability": "payable",
      "type": "function"
    },
    {
      "inputs": [
        {
          "internalType": "address",
          "name": "_newOwner",
          "type": "address"
        }
      ],
      "name": "setOwner",
      "outputs": [],
      "stateMutability": "nonpayable",
      "type": "function"
    },
    {
      "inputs": [
        {
          "internalType": "address",
          "name": "_newAddress",
          "type": "address"
        }
      ],
      "name": "transferDataContractOwnership",
      "outputs": [],
      "stateMutability": "nonpayable",
      "type": "function"
    },
    {
      "inputs": [],
      "name": "withdraw",
      "outputs": [],
      "stateMutability": "nonpayable",
      "type": "function"
    }
  ],
  "bytecode": "0x608060405260405162005ef438038062005ef483398181016040528101906200002991906200011b565b806000806101000a81548173ffffffffffffffffffffffffffffffffffffffff021916908373ffffffffffffffffffffffffffffffffffffffff16021790555033600160006101000a81548173ffffffffffffffffffffffffffffffffffffffff021916908373ffffffffffffffffffffffffffffffffffffffff160217905550506200014d565b600080fd5b600073ffffffffffffffffffffffffffffffffffffffff82169050919050565b6000620000e382620000b6565b9050919050565b620000f581620000d6565b81146200010157600080fd5b50565b6000815190506200011581620000ea565b92915050565b600060208284031215620001345762000133620000b1565b5b6000620001448482850162000104565b91505092915050565b615d97806200015d6000396000f3fe6080604052600436106100a75760003560e01c806383197ef01161006457806383197ef014610176578063893d20e81461018d5780638b755a97146101b85780639152b5a2146101e1578063cdaf03eb1461020a578063d7b9ebe414610233576100a7565b80630adc596e146100ac57806313af4035146100c85780633ca0bc91146100f15780633ccfd60b1461011a5780637b60626d146101315780638217915a1461014d575b600080fd5b6100c660048036038101906100c191906138a8565b61024f565b005b3480156100d457600080fd5b506100ef60048036038101906100ea9190613a2c565b610b15565b005b3480156100fd57600080fd5b5061011860048036038101906101139190613a93565b610be9565b005b34801561012657600080fd5b5061012f611100565b005b61014b60048036038101906101469190613aef565b611245565b005b34801561015957600080fd5b50610174600480360381019061016f9190613c59565b61159c565b005b34801561018257600080fd5b5061018b611eb1565b005b34801561019957600080fd5b506101a2611f7c565b6040516101af9190613cf3565b60405180910390f35b3480156101c457600080fd5b506101df60048036038101906101da9190613a2c565b611fa6565b005b3480156101ed57600080fd5b5061020860048036038101906102039190613c59565b6120c4565b005b34801561021657600080fd5b50610231600480360381019061022c9190613dd1565b6128ae565b005b61024d60048036038101906102489190613ebc565b612d60565b005b600061025b89336133c9565b905060008054906101000a900473ffffffffffffffffffffffffffffffffffffffff1673ffffffffffffffffffffffffffffffffffffffff166343a2d048826040518263ffffffff1660e01b81526004016102b69190613f02565b60206040518083038186803b1580156102ce57600080fd5b505afa1580156102e2573d6000803e3d6000fd5b505050506040513d601f19601f820116820180604052508101906103069190613f55565b15610346576040517f08c379a000000000000000000000000000000000000000000000000000000000815260040161033d90613fdf565b60405180910390fd5b6000600181111561035a57610359613fff565b5b83600181111561036d5761036c613fff565b5b146104155760008054906101000a900473ffffffffffffffffffffffffffffffffffffffff1673ffffffffffffffffffffffffffffffffffffffff1663afeff8d96040518163ffffffff1660e01b815260040160206040518083038186803b1580156103d857600080fd5b505afa1580156103ec573d6000803e3d6000fd5b505050506040513d601f19601f820116820180604052508101906104109190614043565b6104b4565b60008054906101000a900473ffffffffffffffffffffffffffffffffffffffff1673ffffffffffffffffffffffffffffffffffffffff16634e289b886040518163ffffffff1660e01b815260040160206040518083038186803b15801561047b57600080fd5b505afa15801561048f573d6000803e3d6000fd5b505050506040513d601f19601f820116820180604052508101906104b39190614043565b5b3410156104f6576040517f08c379a00000000000000000000000000000000000000000000000000000000081526004016104ed906140bc565b60405180910390fd5b60008060009054906101000a900473ffffffffffffffffffffffffffffffffffffffff1673ffffffffffffffffffffffffffffffffffffffff166362bc56e6336040518263ffffffff1660e01b81526004016105529190613cf3565b60006040518083038186803b15801561056a57600080fd5b505afa15801561057e573d6000803e3d6000fd5b505050506040513d6000823e3d601f19601f820116820180604052508101906105a791906143a9565b90506000816000015190506000815114156105f7576040517f08c379a00000000000000000000000000000000000000000000000000000000081526004016105ee9061443e565b60405180910390fd5b610e1042610605919061448d565b881015610647576040517f08c379a000000000000000000000000000000000000000000000000000000000815260040161063e9061450d565b60405180910390fd5b868810610689576040517f08c379a000000000000000000000000000000000000000000000000000000000815260040161068090614579565b60405180910390fd5b8587106106cb576040517f08c379a00000000000000000000000000000000000000000000000000000000081526004016106c2906145e5565b60405180910390fd5b60008060009054906101000a900473ffffffffffffffffffffffffffffffffffffffff1673ffffffffffffffffffffffffffffffffffffffff16631393b9e86040518163ffffffff1660e01b815260040160206040518083038186803b15801561073457600080fd5b505afa158015610748573d6000803e3d6000fd5b505050506040513d601f19601f8201168201806040525081019061076c9190614605565b90506000604051806101c001604052808e81526020018d81526020018361ffff1681526020018c81526020018b81526020018a815260200189815260200160001515815260200160008152602001600067ffffffffffffffff8111156107d5576107d461363c565b5b6040519080825280602002602001820160405280156108035781602001602082028036833780820191505090505b50815260200188600181111561081c5761081b613fff565b5b8152602001878152602001600067ffffffffffffffff8111156108425761084161363c565b5b6040519080825280602002602001820160405280156108705781602001602082028036833780820191505090505b5081526020013373ffffffffffffffffffffffffffffffffffffffff16815250905060008054906101000a900473ffffffffffffffffffffffffffffffffffffffff1673ffffffffffffffffffffffffffffffffffffffff1663f9c3c20c866040518263ffffffff1660e01b81526004016108eb9190613f02565b600060405180830381600087803b15801561090557600080fd5b505af1158015610919573d6000803e3d6000fd5b5050505060008054906101000a900473ffffffffffffffffffffffffffffffffffffffff1673ffffffffffffffffffffffffffffffffffffffff166261892183836040518363ffffffff1660e01b81526004016109779291906149dc565b600060405180830381600087803b15801561099157600080fd5b505af11580156109a5573d6000803e3d6000fd5b5050505060008054906101000a900473ffffffffffffffffffffffffffffffffffffffff1673ffffffffffffffffffffffffffffffffffffffff1663b8a4d46e33846040518363ffffffff1660e01b8152600401610a04929190614a0c565b600060405180830381600087803b158015610a1e57600080fd5b505af1158015610a32573d6000803e3d6000fd5b5050505060008054906101000a900473ffffffffffffffffffffffffffffffffffffffff1673ffffffffffffffffffffffffffffffffffffffff16631a3ca1d86040518163ffffffff1660e01b8152600401600060405180830381600087803b158015610a9e57600080fd5b505af1158015610ab2573d6000803e3d6000fd5b505050503373ffffffffffffffffffffffffffffffffffffffff167f7e78d078ccf1d121d0f4feedd78115e79d2cb058b48fb9e37395f5cded9c916f838f604051610afe929190614a6e565b60405180910390a250505050505050505050505050565b600160009054906101000a900473ffffffffffffffffffffffffffffffffffffffff1673ffffffffffffffffffffffffffffffffffffffff163373ffffffffffffffffffffffffffffffffffffffff1614610ba5576040517f08c379a0000000000000000000000000000000000000000000000000000000008152600401610b9c90614aea565b60405180910390fd5b80600160006101000a81548173ffffffffffffffffffffffffffffffffffffffff021916908373ffffffffffffffffffffffffffffffffffffffff16021790555050565b81610ca160008054906101000a900473ffffffffffffffffffffffffffffffffffffffff1673ffffffffffffffffffffffffffffffffffffffff1663d6f343c5336040518263ffffffff1660e01b8152600401610c469190613cf3565b60006040518083038186803b158015610c5e57600080fd5b505afa158015610c72573d6000803e3d6000fd5b505050506040513d6000823e3d601f19601f82011682018060405250810190610c9b9190614b0a565b82613414565b610ce0576040517f08c379a0000000000000000000000000000000000000000000000000000000008152600401610cd790614b9f565b60405180910390fd5b813373ffffffffffffffffffffffffffffffffffffffff1660008054906101000a900473ffffffffffffffffffffffffffffffffffffffff1673ffffffffffffffffffffffffffffffffffffffff16632aec6e5a836040518263ffffffff1660e01b8152600401610d519190614bbf565b60206040518083038186803b158015610d6957600080fd5b505afa158015610d7d573d6000803e3d6000fd5b505050506040513d601f19601f82011682018060405250810190610da19190614bef565b73ffffffffffffffffffffffffffffffffffffffff1614610df7576040517f08c379a0000000000000000000000000000000000000000000000000000000008152600401610dee90614c68565b60405180910390fd5b8260008054906101000a900473ffffffffffffffffffffffffffffffffffffffff1673ffffffffffffffffffffffffffffffffffffffff1663e6d29d94826040518263ffffffff1660e01b8152600401610e519190614bbf565b60206040518083038186803b158015610e6957600080fd5b505afa158015610e7d573d6000803e3d6000fd5b505050506040513d601f19601f82011682018060405250810190610ea19190613f55565b15610ee1576040517f08c379a0000000000000000000000000000000000000000000000000000000008152600401610ed890614cd4565b60405180910390fd5b60008060009054906101000a900473ffffffffffffffffffffffffffffffffffffffff1673ffffffffffffffffffffffffffffffffffffffff16639e7a1f64866040518263ffffffff1660e01b8152600401610f3d9190614bbf565b60006040518083038186803b158015610f5557600080fd5b505afa158015610f69573d6000803e3d6000fd5b505050506040513d6000823e3d601f19601f82011682018060405250810190610f92919061504b565b905060008161018001515114610fdd576040517f08c379a0000000000000000000000000000000000000000000000000000000008152600401610fd4906150e0565b60405180910390fd5b60008054906101000a900473ffffffffffffffffffffffffffffffffffffffff1673ffffffffffffffffffffffffffffffffffffffff1663e3a1bd1c8660016040518363ffffffff1660e01b815260040161103992919061510f565b600060405180830381600087803b15801561105357600080fd5b505af1158015611067573d6000803e3d6000fd5b5050505060008054906101000a900473ffffffffffffffffffffffffffffffffffffffff1673ffffffffffffffffffffffffffffffffffffffff166376d44f2786426040518363ffffffff1660e01b81526004016110c6929190615147565b600060405180830381600087803b1580156110e057600080fd5b505af11580156110f4573d6000803e3d6000fd5b50505050505050505050565b600160009054906101000a900473ffffffffffffffffffffffffffffffffffffffff1673ffffffffffffffffffffffffffffffffffffffff163373ffffffffffffffffffffffffffffffffffffffff1614611190576040517f08c379a000000000000000000000000000000000000000000000000000000000815260040161118790614aea565b60405180910390fd5b600047905060003373ffffffffffffffffffffffffffffffffffffffff16826040516111bb906151a1565b60006040518083038185875af1925050503d80600081146111f8576040519150601f19603f3d011682016040523d82523d6000602084013e6111fd565b606091505b5050905080611241576040517f08c379a000000000000000000000000000000000000000000000000000000000815260040161123890615202565b60405180910390fd5b5050565b60008054906101000a900473ffffffffffffffffffffffffffffffffffffffff1673ffffffffffffffffffffffffffffffffffffffff166390287940846040518263ffffffff1660e01b815260040161129e9190615222565b60206040518083038186803b1580156112b657600080fd5b505afa1580156112ca573d6000803e3d6000fd5b505050506040513d601f19601f820116820180604052508101906112ee9190613f55565b1561132e576040517f08c379a000000000000000000000000000000000000000000000000000000000815260040161132590615290565b60405180910390fd5b60008054906101000a900473ffffffffffffffffffffffffffffffffffffffff1673ffffffffffffffffffffffffffffffffffffffff1663215cf05d6040518163ffffffff1660e01b815260040160206040518083038186803b15801561139457600080fd5b505afa1580156113a8573d6000803e3d6000fd5b505050506040513d601f19601f820116820180604052508101906113cc9190614043565b34101561140e576040517f08c379a0000000000000000000000000000000000000000000000000000000008152600401611405906140bc565b60405180910390fd5b60008060009054906101000a900473ffffffffffffffffffffffffffffffffffffffff1673ffffffffffffffffffffffffffffffffffffffff1663d6f343c5336040518263ffffffff1660e01b815260040161146a9190613cf3565b60006040518083038186803b15801561148257600080fd5b505afa158015611496573d6000803e3d6000fd5b505050506040513d6000823e3d601f19601f820116820180604052508101906114bf9190614b0a565b90506000815114611505576040517f08c379a00000000000000000000000000000000000000000000000000000000081526004016114fc906152fc565b60405180910390fd5b60008054906101000a900473ffffffffffffffffffffffffffffffffffffffff1673ffffffffffffffffffffffffffffffffffffffff1663e31fc5bf338686866040518563ffffffff1660e01b8152600401611564949392919061531c565b600060405180830381600087803b15801561157e57600080fd5b505af1158015611592573d6000803e3d6000fd5b5050505050505050565b8161165460008054906101000a900473ffffffffffffffffffffffffffffffffffffffff1673ffffffffffffffffffffffffffffffffffffffff1663d6f343c5336040518263ffffffff1660e01b81526004016115f99190613cf3565b60006040518083038186803b15801561161157600080fd5b505afa158015611625573d6000803e3d6000fd5b505050506040513d6000823e3d601f19601f8201168201806040525081019061164e9190614b0a565b82613414565b611693576040517f08c379a000000000000000000000000000000000000000000000000000000000815260040161168a90614b9f565b60405180910390fd5b833373ffffffffffffffffffffffffffffffffffffffff1660008054906101000a900473ffffffffffffffffffffffffffffffffffffffff1673ffffffffffffffffffffffffffffffffffffffff16632aec6e5a836040518263ffffffff1660e01b81526004016117049190614bbf565b60206040518083038186803b15801561171c57600080fd5b505afa158015611730573d6000803e3d6000fd5b505050506040513d601f19601f820116820180604052508101906117549190614bef565b73ffffffffffffffffffffffffffffffffffffffff16146117aa576040517f08c379a00000000000000000000000000000000000000000000000000000000081526004016117a190614c68565b60405180910390fd5b8460008054906101000a900473ffffffffffffffffffffffffffffffffffffffff1673ffffffffffffffffffffffffffffffffffffffff1663e6d29d94826040518263ffffffff1660e01b81526004016118049190614bbf565b60206040518083038186803b15801561181c57600080fd5b505afa158015611830573d6000803e3d6000fd5b505050506040513d601f19601f820116820180604052508101906118549190613f55565b15611894576040517f08c379a000000000000000000000000000000000000000000000000000000000815260040161188b90614cd4565b60405180910390fd5b60008060009054906101000a900473ffffffffffffffffffffffffffffffffffffffff1673ffffffffffffffffffffffffffffffffffffffff16639e7a1f64886040518263ffffffff1660e01b81526004016118f09190614bbf565b60006040518083038186803b15801561190857600080fd5b505afa15801561191c573d6000803e3d6000fd5b505050506040513d6000823e3d601f19601f82011682018060405250810190611945919061504b565b905060008161018001515114611990576040517f08c379a0000000000000000000000000000000000000000000000000000000008152600401611987906150e0565b60405180910390fd5b8060e00151156119d5576040517f08c379a00000000000000000000000000000000000000000000000000000000081526004016119cc90614cd4565b60405180910390fd5b600081610160015151905060008651905060008260ff1614806119fb575060018260ff16145b8015611a08575060018751145b80611a28575060028260ff1610158015611a2757508160ff168160ff16145b5b611a67576040517f08c379a0000000000000000000000000000000000000000000000000000000008152600401611a5e906153c2565b60405180910390fd5b8260c00151421015611aae576040517f08c379a0000000000000000000000000000000000000000000000000000000008152600401611aa59061542e565b60405180910390fd5b6000875167ffffffffffffffff811115611acb57611aca61363c565b5b604051908082528060200260200182016040528015611af95781602001602082028036833780820191505090505b5090506000805b8360ff168160ff161015611ca55760008a8260ff1681518110611b2657611b2561544e565b5b602002602001015190503373ffffffffffffffffffffffffffffffffffffffff168173ffffffffffffffffffffffffffffffffffffffff161415611b9f576040517f08c379a0000000000000000000000000000000000000000000000000000000008152600401611b96906154c9565b60405180910390fd5b611bae81886101200151613480565b611bed576040517f08c379a0000000000000000000000000000000000000000000000000000000008152600401611be490615535565b60405180910390fd5b611bf884828561357c565b611c9157600073ffffffffffffffffffffffffffffffffffffffff168173ffffffffffffffffffffffffffffffffffffffff1614611c905780848460ff1681518110611c4757611c4661544e565b5b602002602001019073ffffffffffffffffffffffffffffffffffffffff16908173ffffffffffffffffffffffffffffffffffffffff16815250508280611c8c90615562565b9350505b5b508080611c9d90615562565b915050611b00565b5060008160ff1667ffffffffffffffff811115611cc557611cc461363c565b5b604051908082528060200260200182016040528015611cf35781602001602082028036833780820191505090505b50905060005b8260ff168160ff161015611d8857838160ff1681518110611d1d57611d1c61544e565b5b6020026020010151828260ff1681518110611d3b57611d3a61544e565b5b602002602001019073ffffffffffffffffffffffffffffffffffffffff16908173ffffffffffffffffffffffffffffffffffffffff16815250508080611d8090615562565b915050611cf9565b5060008054906101000a900473ffffffffffffffffffffffffffffffffffffffff1673ffffffffffffffffffffffffffffffffffffffff166347475a488d8c6040518363ffffffff1660e01b8152600401611de49291906155fb565b600060405180830381600087803b158015611dfe57600080fd5b505af1158015611e12573d6000803e3d6000fd5b5050505060008054906101000a900473ffffffffffffffffffffffffffffffffffffffff1673ffffffffffffffffffffffffffffffffffffffff166379497fb48d836040518363ffffffff1660e01b8152600401611e719291906155fb565b600060405180830381600087803b158015611e8b57600080fd5b505af1158015611e9f573d6000803e3d6000fd5b50505050505050505050505050505050565b600160009054906101000a900473ffffffffffffffffffffffffffffffffffffffff1673ffffffffffffffffffffffffffffffffffffffff163373ffffffffffffffffffffffffffffffffffffffff1614611f41576040517f08c379a0000000000000000000000000000000000000000000000000000000008152600401611f3890614aea565b60405180910390fd5b600160009054906101000a900473ffffffffffffffffffffffffffffffffffffffff1673ffffffffffffffffffffffffffffffffffffffff16ff5b6000600160009054906101000a900473ffffffffffffffffffffffffffffffffffffffff16905090565b600160009054906101000a900473ffffffffffffffffffffffffffffffffffffffff1673ffffffffffffffffffffffffffffffffffffffff163373ffffffffffffffffffffffffffffffffffffffff1614612036576040517f08c379a000000000000000000000000000000000000000000000000000000000815260040161202d90614aea565b60405180910390fd5b60008054906101000a900473ffffffffffffffffffffffffffffffffffffffff1673ffffffffffffffffffffffffffffffffffffffff166313af4035826040518263ffffffff1660e01b815260040161208f9190613cf3565b600060405180830381600087803b1580156120a957600080fd5b505af11580156120bd573d6000803e3d6000fd5b5050505050565b8161217c60008054906101000a900473ffffffffffffffffffffffffffffffffffffffff1673ffffffffffffffffffffffffffffffffffffffff1663d6f343c5336040518263ffffffff1660e01b81526004016121219190613cf3565b60006040518083038186803b15801561213957600080fd5b505afa15801561214d573d6000803e3d6000fd5b505050506040513d6000823e3d601f19601f820116820180604052508101906121769190614b0a565b82613414565b6121bb576040517f08c379a00000000000000000000000000000000000000000000000000000000081526004016121b290614b9f565b60405180910390fd5b833373ffffffffffffffffffffffffffffffffffffffff1660008054906101000a900473ffffffffffffffffffffffffffffffffffffffff1673ffffffffffffffffffffffffffffffffffffffff16632aec6e5a836040518263ffffffff1660e01b815260040161222c9190614bbf565b60206040518083038186803b15801561224457600080fd5b505afa158015612258573d6000803e3d6000fd5b505050506040513d601f19601f8201168201806040525081019061227c9190614bef565b73ffffffffffffffffffffffffffffffffffffffff16146122d2576040517f08c379a00000000000000000000000000000000000000000000000000000000081526004016122c990614c68565b60405180910390fd5b8460008054906101000a900473ffffffffffffffffffffffffffffffffffffffff1673ffffffffffffffffffffffffffffffffffffffff1663e6d29d94826040518263ffffffff1660e01b815260040161232c9190614bbf565b60206040518083038186803b15801561234457600080fd5b505afa158015612358573d6000803e3d6000fd5b505050506040513d601f19601f8201168201806040525081019061237c9190613f55565b156123bc576040517f08c379a00000000000000000000000000000000000000000000000000000000081526004016123b390614cd4565b60405180910390fd5b60008060009054906101000a900473ffffffffffffffffffffffffffffffffffffffff1673ffffffffffffffffffffffffffffffffffffffff16639e7a1f64886040518263ffffffff1660e01b81526004016124189190614bbf565b60006040518083038186803b15801561243057600080fd5b505afa158015612444573d6000803e3d6000fd5b505050506040513d6000823e3d601f19601f8201168201806040525081019061246d919061504b565b905060018081111561248257612481613fff565b5b816101400151600181111561249a57612499613fff565b5b146124da576040517f08c379a00000000000000000000000000000000000000000000000000000000081526004016124d190615677565b60405180910390fd5b428160a0015111612520576040517f08c379a0000000000000000000000000000000000000000000000000000000008152600401612517906156e3565b60405180910390fd5b60008054906101000a900473ffffffffffffffffffffffffffffffffffffffff1673ffffffffffffffffffffffffffffffffffffffff16635a6167c96040518163ffffffff1660e01b815260040160206040518083038186803b15801561258657600080fd5b505afa15801561259a573d6000803e3d6000fd5b505050506040513d601f19601f820116820180604052508101906125be9190614043565b8551826101200151516125d19190615703565b1115612612576040517f08c379a0000000000000000000000000000000000000000000000000000000008152600401612609906157a5565b60405180910390fd5b60008551905060005b8160ff168160ff1610156128a357600060019050878260ff16815181106126455761264461544e565b5b602002602001015173ffffffffffffffffffffffffffffffffffffffff163373ffffffffffffffffffffffffffffffffffffffff1614156126865750612890565b600084610120015151905060005b8160ff168160ff16101561273157898460ff16815181106126b8576126b761544e565b5b602002602001015173ffffffffffffffffffffffffffffffffffffffff168661012001518260ff16815181106126f1576126f061544e565b5b602002602001015173ffffffffffffffffffffffffffffffffffffffff16141561271e5760009250612731565b808061272990615562565b915050612694565b50811561288d5760008054906101000a900473ffffffffffffffffffffffffffffffffffffffff1673ffffffffffffffffffffffffffffffffffffffff1663be2ec7868c8b8660ff168151811061278b5761278a61544e565b5b60200260200101516040518363ffffffff1660e01b81526004016127b09291906157c5565b600060405180830381600087803b1580156127ca57600080fd5b505af11580156127de573d6000803e3d6000fd5b5050505060008054906101000a900473ffffffffffffffffffffffffffffffffffffffff1673ffffffffffffffffffffffffffffffffffffffff166333572e928c8b8660ff16815181106128355761283461544e565b5b60200260200101516040518363ffffffff1660e01b815260040161285a9291906157c5565b600060405180830381600087803b15801561287457600080fd5b505af1158015612888573d6000803e3d6000fd5b505050505b50505b808061289b90615562565b91505061261b565b505050505050505050565b825184511480156128c0575081518351145b80156128cd575080518251145b61290c576040517f08c379a00000000000000000000000000000000000000000000000000000000081526004016129039061583a565b60405180910390fd5b60008060009054906101000a900473ffffffffffffffffffffffffffffffffffffffff1673ffffffffffffffffffffffffffffffffffffffff16639e7a1f64876040518263ffffffff1660e01b81526004016129689190614bbf565b60006040518083038186803b15801561298057600080fd5b505afa158015612994573d6000803e3d6000fd5b505050506040513d6000823e3d601f19601f820116820180604052508101906129bd919061504b565b90506000816101a0015173ffffffffffffffffffffffffffffffffffffffff163373ffffffffffffffffffffffffffffffffffffffff1614905080612ac65760008083610120015151905060005b81811015612a82578461012001518181518110612a2b57612a2a61544e565b5b602002602001015173ffffffffffffffffffffffffffffffffffffffff163373ffffffffffffffffffffffffffffffffffffffff161415612a6f5760019250612a82565b8080612a7a9061585a565b915050612a0b565b5081612ac3576040517f08c379a0000000000000000000000000000000000000000000000000000000008152600401612aba906158ef565b60405180910390fd5b50505b6000808651905060005b8160ff168160ff161015612d54576000898260ff1681518110612af657612af561544e565b5b602002602001015190506000600a811115612b1457612b13613fff565b5b60ff168160ff161480612b3f57506001600a811115612b3657612b35613fff565b5b60ff168160ff16145b80612b6257506002600a811115612b5957612b58613fff565b5b60ff168160ff16145b93508415612baf5783612baa576040517f08c379a0000000000000000000000000000000000000000000000000000000008152600401612ba19061595b565b60405180910390fd5b612c37565b8315612bf0576040517f08c379a0000000000000000000000000000000000000000000000000000000008152600401612be7906159c7565b60405180910390fd5b428660a0015111612c36576040517f08c379a0000000000000000000000000000000000000000000000000000000008152600401612c2d906156e3565b60405180910390fd5b5b60008054906101000a900473ffffffffffffffffffffffffffffffffffffffff1673ffffffffffffffffffffffffffffffffffffffff1663ee7690908c8c8560ff1681518110612c8a57612c8961544e565b5b60200260200101518c8660ff1681518110612ca857612ca761544e565b5b6020026020010151338d8860ff1681518110612cc757612cc661544e565b5b60200260200101518d8960ff1681518110612ce557612ce461544e565b5b60200260200101516040518763ffffffff1660e01b8152600401612d0e969594939291906159e7565b600060405180830381600087803b158015612d2857600080fd5b505af1158015612d3c573d6000803e3d6000fd5b50505050508080612d4c90615562565b915050612ad0565b50505050505050505050565b8060008054906101000a900473ffffffffffffffffffffffffffffffffffffffff1673ffffffffffffffffffffffffffffffffffffffff1663e6d29d94826040518263ffffffff1660e01b8152600401612dba9190614bbf565b60206040518083038186803b158015612dd257600080fd5b505afa158015612de6573d6000803e3d6000fd5b505050506040513d601f19601f82011682018060405250810190612e0a9190613f55565b15612e4a576040517f08c379a0000000000000000000000000000000000000000000000000000000008152600401612e4190614cd4565b60405180910390fd5b60008060009054906101000a900473ffffffffffffffffffffffffffffffffffffffff1673ffffffffffffffffffffffffffffffffffffffff16639e7a1f64846040518263ffffffff1660e01b8152600401612ea69190614bbf565b60006040518083038186803b158015612ebe57600080fd5b505afa158015612ed2573d6000803e3d6000fd5b505050506040513d6000823e3d601f19601f82011682018060405250810190612efb919061504b565b905060008054906101000a900473ffffffffffffffffffffffffffffffffffffffff1673ffffffffffffffffffffffffffffffffffffffff1663be38013b6040518163ffffffff1660e01b815260040160206040518083038186803b158015612f6357600080fd5b505afa158015612f77573d6000803e3d6000fd5b505050506040513d601f19601f82011682018060405250810190612f9b9190614043565b341015612fdd576040517f08c379a0000000000000000000000000000000000000000000000000000000008152600401612fd490615aa9565b60405180910390fd5b60006001811115612ff157612ff0613fff565b5b816101400151600181111561300957613008613fff565b5b14613049576040517f08c379a000000000000000000000000000000000000000000000000000000000815260040161304090615b15565b60405180910390fd5b428160a001511161308f576040517f08c379a0000000000000000000000000000000000000000000000000000000008152600401613086906156e3565b60405180910390fd5b806101a0015173ffffffffffffffffffffffffffffffffffffffff163373ffffffffffffffffffffffffffffffffffffffff161415613103576040517f08c379a00000000000000000000000000000000000000000000000000000000081526004016130fa90615b81565b60405180910390fd5b60008054906101000a900473ffffffffffffffffffffffffffffffffffffffff1673ffffffffffffffffffffffffffffffffffffffff1663ecbb7b4a6040518163ffffffff1660e01b815260040160206040518083038186803b15801561316957600080fd5b505afa15801561317d573d6000803e3d6000fd5b505050506040513d601f19601f820116820180604052508101906131a19190614043565b81610120015151106131e8576040517f08c379a00000000000000000000000000000000000000000000000000000000081526004016131df90615bed565b60405180910390fd5b600081610120015151905060005b8160ff168160ff1610156132a8573373ffffffffffffffffffffffffffffffffffffffff168361012001518260ff16815181106132365761323561544e565b5b602002602001015173ffffffffffffffffffffffffffffffffffffffff161415613295576040517f08c379a000000000000000000000000000000000000000000000000000000000815260040161328c90615c59565b60405180910390fd5b80806132a090615562565b9150506131f6565b5060008054906101000a900473ffffffffffffffffffffffffffffffffffffffff1673ffffffffffffffffffffffffffffffffffffffff1663be2ec78685336040518363ffffffff1660e01b81526004016133049291906157c5565b600060405180830381600087803b15801561331e57600080fd5b505af1158015613332573d6000803e3d6000fd5b5050505060008054906101000a900473ffffffffffffffffffffffffffffffffffffffff1673ffffffffffffffffffffffffffffffffffffffff166333572e9285336040518363ffffffff1660e01b81526004016133919291906157c5565b600060405180830381600087803b1580156133ab57600080fd5b505af11580156133bf573d6000803e3d6000fd5b5050505050505050565b60008083805190602001209050600081846040516020016133eb929190615ce2565b604051602081830303815290604052905060008180519060200120905080935050505092915050565b60008151835114613428576000905061347a565b816040516020016134399190615d4a565b60405160208183030381529060405280519060200120836040516020016134609190615d4a565b604051602081830303815290604052805190602001201490505b92915050565b600080825114156134c257600073ffffffffffffffffffffffffffffffffffffffff168373ffffffffffffffffffffffffffffffffffffffff16149050613576565b60005b8251811015613570578281815181106134e1576134e061544e565b5b602002602001015173ffffffffffffffffffffffffffffffffffffffff168473ffffffffffffffffffffffffffffffffffffffff16148061354e5750600073ffffffffffffffffffffffffffffffffffffffff168473ffffffffffffffffffffffffffffffffffffffff16145b1561355d576001915050613576565b80806135689061585a565b9150506134c5565b50600090505b92915050565b600080600090505b8260ff168160ff161015613600578373ffffffffffffffffffffffffffffffffffffffff16858260ff16815181106135bf576135be61544e565b5b602002602001015173ffffffffffffffffffffffffffffffffffffffff1614156135ed576001915050613606565b80806135f890615562565b915050613584565b50600090505b9392505050565b6000604051905090565b600080fd5b600080fd5b600080fd5b600080fd5b6000601f19601f8301169050919050565b7f4e487b7100000000000000000000000000000000000000000000000000000000600052604160045260246000fd5b6136748261362b565b810181811067ffffffffffffffff821117156136935761369261363c565b5b80604052505050565b60006136a661360d565b90506136b2828261366b565b919050565b600067ffffffffffffffff8211156136d2576136d161363c565b5b6136db8261362b565b9050602081019050919050565b82818337600083830152505050565b600061370a613705846136b7565b61369c565b90508281526020810184848401111561372657613725613626565b5b6137318482856136e8565b509392505050565b600082601f83011261374e5761374d613621565b5b813561375e8482602086016136f7565b91505092915050565b6000819050919050565b61377a81613767565b811461378557600080fd5b50565b60008135905061379781613771565b92915050565b600281106137aa57600080fd5b50565b6000813590506137bc8161379d565b92915050565b600067ffffffffffffffff8211156137dd576137dc61363c565b5b602082029050602081019050919050565b600080fd5b6000613806613801846137c2565b61369c565b90508083825260208201905060208402830185811115613829576138286137ee565b5b835b8181101561387057803567ffffffffffffffff81111561384e5761384d613621565b5b80860161385b8982613739565b8552602085019450505060208101905061382b565b5050509392505050565b600082601f83011261388f5761388e613621565b5b813561389f8482602086016137f3565b91505092915050565b600080600080600080600080610100898b0312156138c9576138c8613617565b5b600089013567ffffffffffffffff8111156138e7576138e661361c565b5b6138f38b828c01613739565b985050602089013567ffffffffffffffff8111156139145761391361361c565b5b6139208b828c01613739565b975050604089013567ffffffffffffffff8111156139415761394061361c565b5b61394d8b828c01613739565b965050606061395e8b828c01613788565b955050608061396f8b828c01613788565b94505060a06139808b828c01613788565b93505060c06139918b828c016137ad565b92505060e089013567ffffffffffffffff8111156139b2576139b161361c565b5b6139be8b828c0161387a565b9150509295985092959890939650565b600073ffffffffffffffffffffffffffffffffffffffff82169050919050565b60006139f9826139ce565b9050919050565b613a09816139ee565b8114613a1457600080fd5b50565b600081359050613a2681613a00565b92915050565b600060208284031215613a4257613a41613617565b5b6000613a5084828501613a17565b91505092915050565b600061ffff82169050919050565b613a7081613a59565b8114613a7b57600080fd5b50565b600081359050613a8d81613a67565b92915050565b60008060408385031215613aaa57613aa9613617565b5b600083013567ffffffffffffffff811115613ac857613ac761361c565b5b613ad485828601613739565b9250506020613ae585828601613a7e565b9150509250929050565b600080600060608486031215613b0857613b07613617565b5b600084013567ffffffffffffffff811115613b2657613b2561361c565b5b613b3286828701613739565b935050602084013567ffffffffffffffff811115613b5357613b5261361c565b5b613b5f86828701613739565b925050604084013567ffffffffffffffff811115613b8057613b7f61361c565b5b613b8c86828701613739565b9150509250925092565b600067ffffffffffffffff821115613bb157613bb061363c565b5b602082029050602081019050919050565b6000613bd5613bd084613b96565b61369c565b90508083825260208201905060208402830185811115613bf857613bf76137ee565b5b835b81811015613c215780613c0d8882613a17565b845260208401935050602081019050613bfa565b5050509392505050565b600082601f830112613c4057613c3f613621565b5b8135613c50848260208601613bc2565b91505092915050565b600080600060608486031215613c7257613c71613617565b5b6000613c8086828701613a7e565b935050602084013567ffffffffffffffff811115613ca157613ca061361c565b5b613cad86828701613739565b925050604084013567ffffffffffffffff811115613cce57613ccd61361c565b5b613cda86828701613c2b565b9150509250925092565b613ced816139ee565b82525050565b6000602082019050613d086000830184613ce4565b92915050565b600067ffffffffffffffff821115613d2957613d2861363c565b5b602082029050602081019050919050565b6000613d4d613d4884613d0e565b61369c565b90508083825260208201905060208402830185811115613d7057613d6f6137ee565b5b835b81811015613d995780613d858882613788565b845260208401935050602081019050613d72565b5050509392505050565b600082601f830112613db857613db7613621565b5b8135613dc8848260208601613d3a565b91505092915050565b600080600080600060a08688031215613ded57613dec613617565b5b6000613dfb88828901613a7e565b955050602086013567ffffffffffffffff811115613e1c57613e1b61361c565b5b613e2888828901613da3565b945050604086013567ffffffffffffffff811115613e4957613e4861361c565b5b613e558882890161387a565b935050606086013567ffffffffffffffff811115613e7657613e7561361c565b5b613e828882890161387a565b925050608086013567ffffffffffffffff811115613ea357613ea261361c565b5b613eaf8882890161387a565b9150509295509295909350565b600060208284031215613ed257613ed1613617565b5b6000613ee084828501613a7e565b91505092915050565b6000819050919050565b613efc81613ee9565b82525050565b6000602082019050613f176000830184613ef3565b92915050565b60008115159050919050565b613f3281613f1d565b8114613f3d57600080fd5b50565b600081519050613f4f81613f29565b92915050565b600060208284031215613f6b57613f6a613617565b5b6000613f7984828501613f40565b91505092915050565b600082825260208201905092915050565b7f72667069645f616c72656164795f74616b656e00000000000000000000000000600082015250565b6000613fc9601383613f82565b9150613fd482613f93565b602082019050919050565b60006020820190508181036000830152613ff881613fbc565b9050919050565b7f4e487b7100000000000000000000000000000000000000000000000000000000600052602160045260246000fd5b60008151905061403d81613771565b92915050565b60006020828403121561405957614058613617565b5b60006140678482850161402e565b91505092915050565b7f496e73756666696369656e745f7061796d656e74000000000000000000000000600082015250565b60006140a6601483613f82565b91506140b182614070565b602082019050919050565b600060208201905081810360008301526140d581614099565b9050919050565b600080fd5b600080fd5b60005b838110156141045780820151818401526020810190506140e9565b83811115614113576000848401525b50505050565b600061412c614127846136b7565b61369c565b90508281526020810184848401111561414857614147613626565b5b6141538482856140e6565b509392505050565b600082601f8301126141705761416f613621565b5b8151614180848260208601614119565b91505092915050565b600067ffffffffffffffff8211156141a4576141a361363c565b5b602082029050602081019050919050565b6000815190506141c481613a67565b92915050565b60006141dd6141d884614189565b61369c565b90508083825260208201905060208402830185811115614200576141ff6137ee565b5b835b81811015614229578061421588826141b5565b845260208401935050602081019050614202565b5050509392505050565b600082601f83011261424857614247613621565b5b81516142588482602086016141ca565b91505092915050565b600060c08284031215614277576142766140dc565b5b61428160c061369c565b9050600082015167ffffffffffffffff8111156142a1576142a06140e1565b5b6142ad8482850161415b565b600083015250602082015167ffffffffffffffff8111156142d1576142d06140e1565b5b6142dd8482850161415b565b602083015250604082015167ffffffffffffffff811115614301576143006140e1565b5b61430d8482850161415b565b604083015250606082015167ffffffffffffffff811115614331576143306140e1565b5b61433d84828501614233565b606083015250608082015167ffffffffffffffff811115614361576143606140e1565b5b61436d84828501614233565b60808301525060a082015167ffffffffffffffff811115614391576143906140e1565b5b61439d84828501614233565b60a08301525092915050565b6000602082840312156143bf576143be613617565b5b600082015167ffffffffffffffff8111156143dd576143dc61361c565b5b6143e984828501614261565b91505092915050565b7f616464726573735f6e6f745f61646d696e000000000000000000000000000000600082015250565b6000614428601183613f82565b9150614433826143f2565b602082019050919050565b600060208201905081810360008301526144578161441b565b9050919050565b7f4e487b7100000000000000000000000000000000000000000000000000000000600052601160045260246000fd5b600061449882613767565b91506144a383613767565b9250828210156144b6576144b561445e565b5b828203905092915050565b7f6f70656e646174655f626568696e645f746f6461790000000000000000000000600082015250565b60006144f7601583613f82565b9150614502826144c1565b602082019050919050565b60006020820190508181036000830152614526816144ea565b9050919050565b7f696e697469616c5f646174655f77726f6e670000000000000000000000000000600082015250565b6000614563601283613f82565b915061456e8261452d565b602082019050919050565b6000602082019050818103600083015261459281614556565b9050919050565b7f726563656976696e675f646174655f77726f6e67000000000000000000000000600082015250565b60006145cf601483613f82565b91506145da82614599565b602082019050919050565b600060208201905081810360008301526145fe816145c2565b9050919050565b60006020828403121561461b5761461a613617565b5b6000614629848285016141b5565b91505092915050565b61463b81613a59565b82525050565b600081519050919050565b600082825260208201905092915050565b600061466882614641565b614672818561464c565b93506146828185602086016140e6565b61468b8161362b565b840191505092915050565b61469f81613a59565b82525050565b6146ae81613767565b82525050565b6146bd81613f1d565b82525050565b600081519050919050565b600082825260208201905092915050565b6000819050602082019050919050565b6146f8816139ee565b82525050565b600061470a83836146ef565b60208301905092915050565b6000602082019050919050565b600061472e826146c3565b61473881856146ce565b9350614743836146df565b8060005b8381101561477457815161475b88826146fe565b975061476683614716565b925050600181019050614747565b5085935050505092915050565b6002811061479257614791613fff565b5b50565b60008190506147a382614781565b919050565b60006147b382614795565b9050919050565b6147c3816147a8565b82525050565b600081519050919050565b600082825260208201905092915050565b6000819050602082019050919050565b6000614801838361465d565b905092915050565b6000602082019050919050565b6000614821826147c9565b61482b81856147d4565b93508360208202850161483d856147e5565b8060005b85811015614879578484038952815161485a85826147f5565b945061486583614809565b925060208a01995050600181019050614841565b50829750879550505050505092915050565b60006101c08301600083015184820360008601526148a9828261465d565b915050602083015184820360208601526148c3828261465d565b91505060408301516148d86040860182614696565b50606083015184820360608601526148f0828261465d565b915050608083015161490560808601826146a5565b5060a083015161491860a08601826146a5565b5060c083015161492b60c08601826146a5565b5060e083015161493e60e08601826146b4565b506101008301516149536101008601826146a5565b5061012083015184820361012086015261496d8282614723565b9150506101408301516149846101408601826147ba565b5061016083015184820361016086015261499e8282614816565b9150506101808301518482036101808601526149ba8282614723565b9150506101a08301516149d16101a08601826146ef565b508091505092915050565b60006040820190506149f16000830185614632565b8181036020830152614a03818461488b565b90509392505050565b6000604082019050614a216000830185613ce4565b614a2e6020830184614632565b9392505050565b6000614a4082614641565b614a4a8185613f82565b9350614a5a8185602086016140e6565b614a638161362b565b840191505092915050565b6000604082019050614a836000830185614632565b8181036020830152614a958184614a35565b90509392505050565b7f4f6e6c795f6f776e65725f616c6c6f7765640000000000000000000000000000600082015250565b6000614ad4601283613f82565b9150614adf82614a9e565b602082019050919050565b60006020820190508181036000830152614b0381614ac7565b9050919050565b600060208284031215614b2057614b1f613617565b5b600082015167ffffffffffffffff811115614b3e57614b3d61361c565b5b614b4a8482850161415b565b91505092915050565b7f4f6e6c795f61646d696e5f63616e5f706572666f726d00000000000000000000600082015250565b6000614b89601683613f82565b9150614b9482614b53565b602082019050919050565b60006020820190508181036000830152614bb881614b7c565b9050919050565b6000602082019050614bd46000830184614632565b92915050565b600081519050614be981613a00565b92915050565b600060208284031215614c0557614c04613617565b5b6000614c1384828501614bda565b91505092915050565b7f4f6e6c795f6973737565725f63616e5f706572666f726d000000000000000000600082015250565b6000614c52601783613f82565b9150614c5d82614c1c565b602082019050919050565b60006020820190508181036000830152614c8181614c45565b9050919050565b7f616c72656164795f63616e63656c656400000000000000000000000000000000600082015250565b6000614cbe601083613f82565b9150614cc982614c88565b602082019050919050565b60006020820190508181036000830152614ced81614cb1565b9050919050565b6000614d07614d0284613b96565b61369c565b90508083825260208201905060208402830185811115614d2a57614d296137ee565b5b835b81811015614d535780614d3f8882614bda565b845260208401935050602081019050614d2c565b5050509392505050565b600082601f830112614d7257614d71613621565b5b8151614d82848260208601614cf4565b91505092915050565b600081519050614d9a8161379d565b92915050565b6000614db3614dae846137c2565b61369c565b90508083825260208201905060208402830185811115614dd657614dd56137ee565b5b835b81811015614e1d57805167ffffffffffffffff811115614dfb57614dfa613621565b5b808601614e08898261415b565b85526020850194505050602081019050614dd8565b5050509392505050565b600082601f830112614e3c57614e3b613621565b5b8151614e4c848260208601614da0565b91505092915050565b60006101c08284031215614e6c57614e6b6140dc565b5b614e776101c061369c565b9050600082015167ffffffffffffffff811115614e9757614e966140e1565b5b614ea38482850161415b565b600083015250602082015167ffffffffffffffff811115614ec757614ec66140e1565b5b614ed38482850161415b565b6020830152506040614ee7848285016141b5565b604083015250606082015167ffffffffffffffff811115614f0b57614f0a6140e1565b5b614f178482850161415b565b6060830152506080614f2b8482850161402e565b60808301525060a0614f3f8482850161402e565b60a08301525060c0614f538482850161402e565b60c08301525060e0614f6784828501613f40565b60e083015250610100614f7c8482850161402e565b6101008301525061012082015167ffffffffffffffff811115614fa257614fa16140e1565b5b614fae84828501614d5d565b61012083015250610140614fc484828501614d8b565b6101408301525061016082015167ffffffffffffffff811115614fea57614fe96140e1565b5b614ff684828501614e27565b6101608301525061018082015167ffffffffffffffff81111561501c5761501b6140e1565b5b61502884828501614d5d565b610180830152506101a061503e84828501614bda565b6101a08301525092915050565b60006020828403121561506157615060613617565b5b600082015167ffffffffffffffff81111561507f5761507e61361c565b5b61508b84828501614e55565b91505092915050565b7f7266705f616c72656164795f6177617264656400000000000000000000000000600082015250565b60006150ca601383613f82565b91506150d582615094565b602082019050919050565b600060208201905081810360008301526150f9816150bd565b9050919050565b61510981613f1d565b82525050565b60006040820190506151246000830185614632565b6151316020830184615100565b9392505050565b61514181613767565b82525050565b600060408201905061515c6000830185614632565b6151696020830184615138565b9392505050565b600081905092915050565b50565b600061518b600083615170565b91506151968261517b565b600082019050919050565b60006151ac8261517e565b9150819050919050565b7f6661696c65645f77697468647261770000000000000000000000000000000000600082015250565b60006151ec600f83613f82565b91506151f7826151b6565b602082019050919050565b6000602082019050818103600083015261521b816151df565b9050919050565b6000602082019050818103600083015261523c8184614a35565b905092915050565b7f69645f616c72656164795f657869737473000000000000000000000000000000600082015250565b600061527a601183613f82565b915061528582615244565b602082019050919050565b600060208201905081810360008301526152a98161526d565b9050919050565b7f616464726573735f616c72656164795f61646d696e5f6f665f636f6d70616e79600082015250565b60006152e6602083613f82565b91506152f1826152b0565b602082019050919050565b60006020820190508181036000830152615315816152d9565b9050919050565b60006080820190506153316000830187613ce4565b81810360208301526153438186614a35565b905081810360408301526153578185614a35565b9050818103606083015261536b8184614a35565b905095945050505050565b7f6e6f745f6d61746368696e675f77696e6e657273000000000000000000000000600082015250565b60006153ac601483613f82565b91506153b782615376565b602082019050919050565b600060208201905081810360008301526153db8161539f565b9050919050565b7f656e64646174655f6e6f745f726561636865645f796574000000000000000000600082015250565b6000615418601783613f82565b9150615423826153e2565b602082019050919050565b600060208201905081810360008301526154478161540b565b9050919050565b7f4e487b7100000000000000000000000000000000000000000000000000000000600052603260045260246000fd5b7f63616e6e6f745f73656c665f6177617264000000000000000000000000000000600082015250565b60006154b3601183613f82565b91506154be8261547d565b602082019050919050565b600060208201905081810360008301526154e2816154a6565b9050919050565b7f696e76616c69645f77696e6e6572000000000000000000000000000000000000600082015250565b600061551f600e83613f82565b915061552a826154e9565b602082019050919050565b6000602082019050818103600083015261554e81615512565b9050919050565b600060ff82169050919050565b600061556d82615555565b915060ff8214156155815761558061445e565b5b600182019050919050565b600082825260208201905092915050565b60006155a8826146c3565b6155b2818561558c565b93506155bd836146df565b8060005b838110156155ee5781516155d588826146fe565b97506155e083614716565b9250506001810190506155c1565b5085935050505092915050565b60006040820190506156106000830185614632565b8181036020830152615622818461559d565b90509392505050565b7f77726f6e675f636f6e746573745f747970650000000000000000000000000000600082015250565b6000615661601283613f82565b915061566c8261562b565b602082019050919050565b6000602082019050818103600083015261569081615654565b9050919050565b7f656e645f726563656976696e675f726561636865640000000000000000000000600082015250565b60006156cd601583613f82565b91506156d882615697565b602082019050919050565b600060208201905081810360008301526156fc816156c0565b9050919050565b600061570e82613767565b915061571983613767565b9250827fffffffffffffffffffffffffffffffffffffffffffffffffffffffffffffffff0382111561574e5761574d61445e565b5b828201905092915050565b7f746f6f5f6d616e795f6775657374730000000000000000000000000000000000600082015250565b600061578f600f83613f82565b915061579a82615759565b602082019050919050565b600060208201905081810360008301526157be81615782565b9050919050565b60006040820190506157da6000830185614632565b6157e76020830184613ce4565b9392505050565b7f696e7075745f61727261795f6c656e677468735f6e6f5f6d6174636800000000600082015250565b6000615824601c83613f82565b915061582f826157ee565b602082019050919050565b6000602082019050818103600083015261585381615817565b9050919050565b600061586582613767565b91507fffffffffffffffffffffffffffffffffffffffffffffffffffffffffffffffff8214156158985761589761445e565b5b600182019050919050565b7f6e6f745f7061727469636970616e740000000000000000000000000000000000600082015250565b60006158d9600f83613f82565b91506158e4826158a3565b602082019050919050565b60006020820190508181036000830152615908816158cc565b9050919050565b7f6973737565725f6261645f646f63747970650000000000000000000000000000600082015250565b6000615945601283613f82565b91506159508261590f565b602082019050919050565b6000602082019050818103600083015261597481615938565b9050919050565b7f7061727469636970616e745f6261645f646f6374797065000000000000000000600082015250565b60006159b1601783613f82565b91506159bc8261597b565b602082019050919050565b600060208201905081810360008301526159e0816159a4565b9050919050565b600060c0820190506159fc6000830189614632565b615a096020830188615138565b8181036040830152615a1b8187614a35565b9050615a2a6060830186613ce4565b8181036080830152615a3c8185614a35565b905081810360a0830152615a508184614a35565b9050979650505050505050565b7f496e73756666696369656e745f7061796d656e745f6665650000000000000000600082015250565b6000615a93601883613f82565b9150615a9e82615a5d565b602082019050919050565b60006020820190508181036000830152615ac281615a86565b9050919050565b7f6e6f745f6f70656e5f74656e6465720000000000000000000000000000000000600082015250565b6000615aff600f83613f82565b9150615b0a82615ac9565b602082019050919050565b60006020820190508181036000830152615b2e81615af2565b9050919050565b7f63616e5f6e6f745f72656769737465725f73656c660000000000000000000000600082015250565b6000615b6b601583613f82565b9150615b7682615b35565b602082019050919050565b60006020820190508181036000830152615b9a81615b5e565b9050919050565b7f6d61785f7061727469636970616e74735f726561636865640000000000000000600082015250565b6000615bd7601883613f82565b9150615be282615ba1565b602082019050919050565b60006020820190508181036000830152615c0681615bca565b9050919050565b7f616c72656164795f70617274696369706174696e670000000000000000000000600082015250565b6000615c43601583613f82565b9150615c4e82615c0d565b602082019050919050565b60006020820190508181036000830152615c7281615c36565b9050919050565b6000819050919050565b615c94615c8f82613ee9565b615c79565b82525050565b60008160601b9050919050565b6000615cb282615c9a565b9050919050565b6000615cc482615ca7565b9050919050565b615cdc615cd7826139ee565b615cb9565b82525050565b6000615cee8285615c83565b602082019150615cfe8284615ccb565b6014820191508190509392505050565b600081905092915050565b6000615d2482614641565b615d2e8185615d0e565b9350615d3e8185602086016140e6565b80840191505092915050565b6000615d568284615d19565b91508190509291505056fea264697066735822122022facf5c887fc00f54a1d6dc8ddd15a663cb7443e5dc8e8922f85f1d704f329364736f6c63430008090033",
  "linkReferences": {},
  "deployedLinkReferences": {}
}