{
  "_format": "hh-sol-artifact-1",
  "contractName": "pro_ponLogic",
  "sourceName": "contracts/proponLogic.sol",
  "abi": [
    {
      "inputs": [
        {
          "internalType": "address",
          "name": "_dataContractAddress",
          "type": "address"
        }
      ],
      "stateMutability": "payable",
      "type": "constructor"
    },
    {
      "anonymous": false,
      "inputs": [
        {
          "indexed": true,
          "internalType": "address",
          "name": "sender",
          "type": "address"
        },
        {
          "indexed": false,
          "internalType": "uint16",
          "name": "id",
          "type": "uint16"
        },
        {
          "indexed": false,
          "internalType": "string",
          "name": "name",
          "type": "string"
        }
      ],
      "name": "NewRFPCreated",
      "type": "event"
    },
    {
      "inputs": [
        {
          "internalType": "uint16",
          "name": "_rfpIdx",
          "type": "uint16"
        },
        {
          "internalType": "uint256[]",
          "name": "_docTypes",
          "type": "uint256[]"
        },
        {
          "internalType": "string[]",
          "name": "_names",
          "type": "string[]"
        },
        {
          "internalType": "string[]",
          "name": "_documentHashes",
          "type": "string[]"
        },
        {
          "internalType": "string[]",
          "name": "_idxs",
          "type": "string[]"
        }
      ],
      "name": "addDocuments",
      "outputs": [],
      "stateMutability": "nonpayable",
      "type": "function"
    },
    {
      "inputs": [
        {
          "internalType": "string",
          "name": "_companyId",
          "type": "string"
        },
        {
          "internalType": "uint16",
          "name": "_rfpIndex",
          "type": "uint16"
        }
      ],
      "name": "cancelRFP",
      "outputs": [],
      "stateMutability": "nonpayable",
      "type": "function"
    },
    {
      "inputs": [
        {
          "internalType": "string",
          "name": "_id",
          "type": "string"
        },
        {
          "internalType": "string",
          "name": "_name",
          "type": "string"
        },
        {
          "internalType": "string",
          "name": "_country",
          "type": "string"
        }
      ],
      "name": "createCompany",
      "outputs": [],
      "stateMutability": "payable",
      "type": "function"
    },
    {
      "inputs": [
        {
          "internalType": "string",
          "name": "_name",
          "type": "string"
        },
        {
          "internalType": "string",
          "name": "_description",
          "type": "string"
        },
        {
          "internalType": "string",
          "name": "_rfpwebsite",
          "type": "string"
        },
        {
          "internalType": "uint256",
          "name": "_openDate",
          "type": "uint256"
        },
        {
          "internalType": "uint256",
          "name": "_endReceivingDate",
          "type": "uint256"
        },
        {
          "internalType": "uint256",
          "name": "_endDate",
          "type": "uint256"
        },
        {
          "internalType": "enum proponShared.ContestType",
          "name": "_contestType",
          "type": "uint8"
        },
        {
          "internalType": "string[]",
          "name": "_items",
          "type": "string[]"
        }
      ],
      "name": "createRFP",
      "outputs": [],
      "stateMutability": "payable",
      "type": "function"
    },
    {
      "inputs": [
        {
          "internalType": "uint16",
          "name": "_rfpIndex",
          "type": "uint16"
        },
        {
          "internalType": "string",
          "name": "_companyId",
          "type": "string"
        },
        {
          "internalType": "address[]",
          "name": "winners",
          "type": "address[]"
        }
      ],
      "name": "declareWinners",
      "outputs": [],
      "stateMutability": "nonpayable",
      "type": "function"
    },
    {
      "inputs": [],
      "name": "destroy",
      "outputs": [],
      "stateMutability": "nonpayable",
      "type": "function"
    },
    {
      "inputs": [],
      "name": "getOwner",
      "outputs": [
        {
          "internalType": "address",
          "name": "",
          "type": "address"
        }
      ],
      "stateMutability": "view",
      "type": "function"
    },
    {
      "inputs": [
        {
          "internalType": "uint16",
          "name": "_rfpId",
          "type": "uint16"
        },
        {
          "internalType": "string",
          "name": "companyId",
          "type": "string"
        },
        {
          "internalType": "address[]",
          "name": "invitedCompanies",
          "type": "address[]"
        }
      ],
      "name": "inviteCompaniestoRFP",
      "outputs": [],
      "stateMutability": "nonpayable",
      "type": "function"
    },
    {
      "inputs": [
        {
          "internalType": "uint16",
          "name": "_rfpId",
          "type": "uint16"
        }
      ],
      "name": "registertoOpenRFP",
      "outputs": [],
      "stateMutability": "payable",
      "type": "function"
    },
    {
      "inputs": [
        {
          "internalType": "address",
          "name": "_newOwner",
          "type": "address"
        }
      ],
      "name": "setOwner",
      "outputs": [],
      "stateMutability": "nonpayable",
      "type": "function"
    },
    {
      "inputs": [],
      "name": "withdraw",
      "outputs": [],
      "stateMutability": "nonpayable",
      "type": "function"
    }
  ],
  "bytecode": "0x6080604052600067ffffffffffffffff8111156200002257620000216200022b565b5b604051908082528060200260200182016040528015620000515781602001602082028036833780820191505090505b5060039080519060200190620000699291906200017d565b50600067ffffffffffffffff8111156200008857620000876200022b565b5b604051908082528060200260200182016040528015620000b75781602001602082028036833780820191505090505b5060049080519060200190620000cf9291906200017d565b506040516200605c3803806200605c8339818101604052810190620000f59190620002c4565b806000806101000a81548173ffffffffffffffffffffffffffffffffffffffff021916908373ffffffffffffffffffffffffffffffffffffffff16021790555033600160006101000a81548173ffffffffffffffffffffffffffffffffffffffff021916908373ffffffffffffffffffffffffffffffffffffffff16021790555050620002f6565b828054828255906000526020600020908101928215620001f9579160200282015b82811115620001f85782518260006101000a81548173ffffffffffffffffffffffffffffffffffffffff021916908373ffffffffffffffffffffffffffffffffffffffff160217905550916020019190600101906200019e565b5b5090506200020891906200020c565b5090565b5b80821115620002275760008160009055506001016200020d565b5090565b7f4e487b7100000000000000000000000000000000000000000000000000000000600052604160045260246000fd5b600080fd5b600073ffffffffffffffffffffffffffffffffffffffff82169050919050565b60006200028c826200025f565b9050919050565b6200029e816200027f565b8114620002aa57600080fd5b50565b600081519050620002be8162000293565b92915050565b600060208284031215620002dd57620002dc6200025a565b5b6000620002ed84828501620002ad565b91505092915050565b615d5680620003066000396000f3fe60806040526004361061009c5760003560e01c80638217915a116100645780638217915a1461014257806383197ef01461016b578063893d20e8146101825780639152b5a2146101ad578063cdaf03eb146101d6578063d7b9ebe4146101ff5761009c565b80630adc596e146100a157806313af4035146100bd5780633ca0bc91146100e65780633ccfd60b1461010f5780637b60626d14610126575b600080fd5b6100bb60048036038101906100b6919061374b565b61021b565b005b3480156100c957600080fd5b506100e460048036038101906100df91906138cf565b610ae1565b005b3480156100f257600080fd5b5061010d60048036038101906101089190613936565b610bb5565b005b34801561011b57600080fd5b506101246110cc565b005b610140600480360381019061013b9190613992565b611211565b005b34801561014e57600080fd5b5061016960048036038101906101649190613afc565b611568565b005b34801561017757600080fd5b50610180611e94565b005b34801561018e57600080fd5b50610197611f5f565b6040516101a49190613b96565b60405180910390f35b3480156101b957600080fd5b506101d460048036038101906101cf9190613afc565b611f89565b005b3480156101e257600080fd5b506101fd60048036038101906101f89190613c74565b612773565b005b61021960048036038101906102149190613d5f565b612c25565b005b6000610227893361328e565b905060008054906101000a900473ffffffffffffffffffffffffffffffffffffffff1673ffffffffffffffffffffffffffffffffffffffff166343a2d048826040518263ffffffff1660e01b81526004016102829190613da5565b60206040518083038186803b15801561029a57600080fd5b505afa1580156102ae573d6000803e3d6000fd5b505050506040513d601f19601f820116820180604052508101906102d29190613df8565b15610312576040517f08c379a000000000000000000000000000000000000000000000000000000000815260040161030990613e82565b60405180910390fd5b6000600181111561032657610325613ea2565b5b83600181111561033957610338613ea2565b5b146103e15760008054906101000a900473ffffffffffffffffffffffffffffffffffffffff1673ffffffffffffffffffffffffffffffffffffffff1663afeff8d96040518163ffffffff1660e01b815260040160206040518083038186803b1580156103a457600080fd5b505afa1580156103b8573d6000803e3d6000fd5b505050506040513d601f19601f820116820180604052508101906103dc9190613ee6565b610480565b60008054906101000a900473ffffffffffffffffffffffffffffffffffffffff1673ffffffffffffffffffffffffffffffffffffffff16634e289b886040518163ffffffff1660e01b815260040160206040518083038186803b15801561044757600080fd5b505afa15801561045b573d6000803e3d6000fd5b505050506040513d601f19601f8201168201806040525081019061047f9190613ee6565b5b3410156104c2576040517f08c379a00000000000000000000000000000000000000000000000000000000081526004016104b990613f5f565b60405180910390fd5b60008060009054906101000a900473ffffffffffffffffffffffffffffffffffffffff1673ffffffffffffffffffffffffffffffffffffffff166362bc56e6336040518263ffffffff1660e01b815260040161051e9190613b96565b60006040518083038186803b15801561053657600080fd5b505afa15801561054a573d6000803e3d6000fd5b505050506040513d6000823e3d601f19601f82011682018060405250810190610573919061424c565b90506000816000015190506000815114156105c3576040517f08c379a00000000000000000000000000000000000000000000000000000000081526004016105ba906142e1565b60405180910390fd5b610e10426105d19190614330565b881015610613576040517f08c379a000000000000000000000000000000000000000000000000000000000815260040161060a906143b0565b60405180910390fd5b868810610655576040517f08c379a000000000000000000000000000000000000000000000000000000000815260040161064c9061441c565b60405180910390fd5b858710610697576040517f08c379a000000000000000000000000000000000000000000000000000000000815260040161068e90614488565b60405180910390fd5b60008060009054906101000a900473ffffffffffffffffffffffffffffffffffffffff1673ffffffffffffffffffffffffffffffffffffffff16631393b9e86040518163ffffffff1660e01b815260040160206040518083038186803b15801561070057600080fd5b505afa158015610714573d6000803e3d6000fd5b505050506040513d601f19601f8201168201806040525081019061073891906144a8565b90506000604051806101c001604052808e81526020018d81526020018361ffff1681526020018c81526020018b81526020018a815260200189815260200160001515815260200160008152602001600067ffffffffffffffff8111156107a1576107a06134df565b5b6040519080825280602002602001820160405280156107cf5781602001602082028036833780820191505090505b5081526020018860018111156107e8576107e7613ea2565b5b8152602001878152602001600067ffffffffffffffff81111561080e5761080d6134df565b5b60405190808252806020026020018201604052801561083c5781602001602082028036833780820191505090505b5081526020013373ffffffffffffffffffffffffffffffffffffffff16815250905060008054906101000a900473ffffffffffffffffffffffffffffffffffffffff1673ffffffffffffffffffffffffffffffffffffffff1663f9c3c20c866040518263ffffffff1660e01b81526004016108b79190613da5565b600060405180830381600087803b1580156108d157600080fd5b505af11580156108e5573d6000803e3d6000fd5b5050505060008054906101000a900473ffffffffffffffffffffffffffffffffffffffff1673ffffffffffffffffffffffffffffffffffffffff166261892183836040518363ffffffff1660e01b815260040161094392919061487f565b600060405180830381600087803b15801561095d57600080fd5b505af1158015610971573d6000803e3d6000fd5b5050505060008054906101000a900473ffffffffffffffffffffffffffffffffffffffff1673ffffffffffffffffffffffffffffffffffffffff1663b8a4d46e33846040518363ffffffff1660e01b81526004016109d09291906148af565b600060405180830381600087803b1580156109ea57600080fd5b505af11580156109fe573d6000803e3d6000fd5b5050505060008054906101000a900473ffffffffffffffffffffffffffffffffffffffff1673ffffffffffffffffffffffffffffffffffffffff16631a3ca1d86040518163ffffffff1660e01b8152600401600060405180830381600087803b158015610a6a57600080fd5b505af1158015610a7e573d6000803e3d6000fd5b505050503373ffffffffffffffffffffffffffffffffffffffff167f7e78d078ccf1d121d0f4feedd78115e79d2cb058b48fb9e37395f5cded9c916f838f604051610aca929190614911565b60405180910390a250505050505050505050505050565b600160009054906101000a900473ffffffffffffffffffffffffffffffffffffffff1673ffffffffffffffffffffffffffffffffffffffff163373ffffffffffffffffffffffffffffffffffffffff1614610b71576040517f08c379a0000000000000000000000000000000000000000000000000000000008152600401610b689061498d565b60405180910390fd5b80600160006101000a81548173ffffffffffffffffffffffffffffffffffffffff021916908373ffffffffffffffffffffffffffffffffffffffff16021790555050565b81610c6d60008054906101000a900473ffffffffffffffffffffffffffffffffffffffff1673ffffffffffffffffffffffffffffffffffffffff1663d6f343c5336040518263ffffffff1660e01b8152600401610c129190613b96565b60006040518083038186803b158015610c2a57600080fd5b505afa158015610c3e573d6000803e3d6000fd5b505050506040513d6000823e3d601f19601f82011682018060405250810190610c6791906149ad565b826132d9565b610cac576040517f08c379a0000000000000000000000000000000000000000000000000000000008152600401610ca390614a42565b60405180910390fd5b813373ffffffffffffffffffffffffffffffffffffffff1660008054906101000a900473ffffffffffffffffffffffffffffffffffffffff1673ffffffffffffffffffffffffffffffffffffffff16632aec6e5a836040518263ffffffff1660e01b8152600401610d1d9190614a62565b60206040518083038186803b158015610d3557600080fd5b505afa158015610d49573d6000803e3d6000fd5b505050506040513d601f19601f82011682018060405250810190610d6d9190614a92565b73ffffffffffffffffffffffffffffffffffffffff1614610dc3576040517f08c379a0000000000000000000000000000000000000000000000000000000008152600401610dba90614b0b565b60405180910390fd5b8260008054906101000a900473ffffffffffffffffffffffffffffffffffffffff1673ffffffffffffffffffffffffffffffffffffffff1663e6d29d94826040518263ffffffff1660e01b8152600401610e1d9190614a62565b60206040518083038186803b158015610e3557600080fd5b505afa158015610e49573d6000803e3d6000fd5b505050506040513d601f19601f82011682018060405250810190610e6d9190613df8565b15610ead576040517f08c379a0000000000000000000000000000000000000000000000000000000008152600401610ea490614b77565b60405180910390fd5b60008060009054906101000a900473ffffffffffffffffffffffffffffffffffffffff1673ffffffffffffffffffffffffffffffffffffffff16639e7a1f64866040518263ffffffff1660e01b8152600401610f099190614a62565b60006040518083038186803b158015610f2157600080fd5b505afa158015610f35573d6000803e3d6000fd5b505050506040513d6000823e3d601f19601f82011682018060405250810190610f5e9190614eee565b905060008161018001515114610fa9576040517f08c379a0000000000000000000000000000000000000000000000000000000008152600401610fa090614f83565b60405180910390fd5b60008054906101000a900473ffffffffffffffffffffffffffffffffffffffff1673ffffffffffffffffffffffffffffffffffffffff1663e3a1bd1c8660016040518363ffffffff1660e01b8152600401611005929190614fb2565b600060405180830381600087803b15801561101f57600080fd5b505af1158015611033573d6000803e3d6000fd5b5050505060008054906101000a900473ffffffffffffffffffffffffffffffffffffffff1673ffffffffffffffffffffffffffffffffffffffff166376d44f2786426040518363ffffffff1660e01b8152600401611092929190614fea565b600060405180830381600087803b1580156110ac57600080fd5b505af11580156110c0573d6000803e3d6000fd5b50505050505050505050565b600160009054906101000a900473ffffffffffffffffffffffffffffffffffffffff1673ffffffffffffffffffffffffffffffffffffffff163373ffffffffffffffffffffffffffffffffffffffff161461115c576040517f08c379a00000000000000000000000000000000000000000000000000000000081526004016111539061498d565b60405180910390fd5b600047905060003373ffffffffffffffffffffffffffffffffffffffff168260405161118790615044565b60006040518083038185875af1925050503d80600081146111c4576040519150601f19603f3d011682016040523d82523d6000602084013e6111c9565b606091505b505090508061120d576040517f08c379a0000000000000000000000000000000000000000000000000000000008152600401611204906150a5565b60405180910390fd5b5050565b60008054906101000a900473ffffffffffffffffffffffffffffffffffffffff1673ffffffffffffffffffffffffffffffffffffffff166390287940846040518263ffffffff1660e01b815260040161126a91906150c5565b60206040518083038186803b15801561128257600080fd5b505afa158015611296573d6000803e3d6000fd5b505050506040513d601f19601f820116820180604052508101906112ba9190613df8565b156112fa576040517f08c379a00000000000000000000000000000000000000000000000000000000081526004016112f190615133565b60405180910390fd5b60008054906101000a900473ffffffffffffffffffffffffffffffffffffffff1673ffffffffffffffffffffffffffffffffffffffff1663215cf05d6040518163ffffffff1660e01b815260040160206040518083038186803b15801561136057600080fd5b505afa158015611374573d6000803e3d6000fd5b505050506040513d601f19601f820116820180604052508101906113989190613ee6565b3410156113da576040517f08c379a00000000000000000000000000000000000000000000000000000000081526004016113d190613f5f565b60405180910390fd5b60008060009054906101000a900473ffffffffffffffffffffffffffffffffffffffff1673ffffffffffffffffffffffffffffffffffffffff1663d6f343c5336040518263ffffffff1660e01b81526004016114369190613b96565b60006040518083038186803b15801561144e57600080fd5b505afa158015611462573d6000803e3d6000fd5b505050506040513d6000823e3d601f19601f8201168201806040525081019061148b91906149ad565b905060008151146114d1576040517f08c379a00000000000000000000000000000000000000000000000000000000081526004016114c89061519f565b60405180910390fd5b60008054906101000a900473ffffffffffffffffffffffffffffffffffffffff1673ffffffffffffffffffffffffffffffffffffffff1663e31fc5bf338686866040518563ffffffff1660e01b815260040161153094939291906151bf565b600060405180830381600087803b15801561154a57600080fd5b505af115801561155e573d6000803e3d6000fd5b5050505050505050565b8161162060008054906101000a900473ffffffffffffffffffffffffffffffffffffffff1673ffffffffffffffffffffffffffffffffffffffff1663d6f343c5336040518263ffffffff1660e01b81526004016115c59190613b96565b60006040518083038186803b1580156115dd57600080fd5b505afa1580156115f1573d6000803e3d6000fd5b505050506040513d6000823e3d601f19601f8201168201806040525081019061161a91906149ad565b826132d9565b61165f576040517f08c379a000000000000000000000000000000000000000000000000000000000815260040161165690614a42565b60405180910390fd5b833373ffffffffffffffffffffffffffffffffffffffff1660008054906101000a900473ffffffffffffffffffffffffffffffffffffffff1673ffffffffffffffffffffffffffffffffffffffff16632aec6e5a836040518263ffffffff1660e01b81526004016116d09190614a62565b60206040518083038186803b1580156116e857600080fd5b505afa1580156116fc573d6000803e3d6000fd5b505050506040513d601f19601f820116820180604052508101906117209190614a92565b73ffffffffffffffffffffffffffffffffffffffff1614611776576040517f08c379a000000000000000000000000000000000000000000000000000000000815260040161176d90614b0b565b60405180910390fd5b8460008054906101000a900473ffffffffffffffffffffffffffffffffffffffff1673ffffffffffffffffffffffffffffffffffffffff1663e6d29d94826040518263ffffffff1660e01b81526004016117d09190614a62565b60206040518083038186803b1580156117e857600080fd5b505afa1580156117fc573d6000803e3d6000fd5b505050506040513d601f19601f820116820180604052508101906118209190613df8565b15611860576040517f08c379a000000000000000000000000000000000000000000000000000000000815260040161185790614b77565b60405180910390fd5b60008060009054906101000a900473ffffffffffffffffffffffffffffffffffffffff1673ffffffffffffffffffffffffffffffffffffffff16639e7a1f64886040518263ffffffff1660e01b81526004016118bc9190614a62565b60006040518083038186803b1580156118d457600080fd5b505afa1580156118e8573d6000803e3d6000fd5b505050506040513d6000823e3d601f19601f820116820180604052508101906119119190614eee565b90506000816101800151511461195c576040517f08c379a000000000000000000000000000000000000000000000000000000000815260040161195390614f83565b60405180910390fd5b8060e00151156119a1576040517f08c379a000000000000000000000000000000000000000000000000000000000815260040161199890614b77565b60405180910390fd5b600081610160015151905060008651905060008260ff1614806119c7575060018260ff16145b80156119d4575060018751145b806119f4575060028260ff16101580156119f357508160ff168160ff16145b5b611a33576040517f08c379a0000000000000000000000000000000000000000000000000000000008152600401611a2a90615265565b60405180910390fd5b8260c00151421015611a7a576040517f08c379a0000000000000000000000000000000000000000000000000000000008152600401611a71906152d1565b60405180910390fd5b60005b8160ff168160ff161015611cc0576000888260ff1681518110611aa357611aa26152f1565b5b602002602001015190503373ffffffffffffffffffffffffffffffffffffffff168173ffffffffffffffffffffffffffffffffffffffff161415611b1c576040517f08c379a0000000000000000000000000000000000000000000000000000000008152600401611b139061536c565b60405180910390fd5b611b2b81866101200151613345565b611b6a576040517f08c379a0000000000000000000000000000000000000000000000000000000008152600401611b61906153d8565b60405180910390fd5b600260008273ffffffffffffffffffffffffffffffffffffffff1673ffffffffffffffffffffffffffffffffffffffff16815260200190815260200160002060009054906101000a900460ff16611cac576001600260008373ffffffffffffffffffffffffffffffffffffffff1673ffffffffffffffffffffffffffffffffffffffff16815260200190815260200160002060006101000a81548160ff021916908315150217905550600073ffffffffffffffffffffffffffffffffffffffff168173ffffffffffffffffffffffffffffffffffffffff1614611cab576004819080600181540180825580915050600190039060005260206000200160009091909190916101000a81548173ffffffffffffffffffffffffffffffffffffffff021916908373ffffffffffffffffffffffffffffffffffffffff1602179055505b5b508080611cb890615405565b915050611a7d565b5060008054906101000a900473ffffffffffffffffffffffffffffffffffffffff1673ffffffffffffffffffffffffffffffffffffffff166347475a488a896040518363ffffffff1660e01b8152600401611d1c92919061549e565b600060405180830381600087803b158015611d3657600080fd5b505af1158015611d4a573d6000803e3d6000fd5b5050505060008054906101000a900473ffffffffffffffffffffffffffffffffffffffff1673ffffffffffffffffffffffffffffffffffffffff166379497fb48a60046040518363ffffffff1660e01b8152600401611daa9291906155ba565b600060405180830381600087803b158015611dc457600080fd5b505af1158015611dd8573d6000803e3d6000fd5b5050505060036004908054611dee929190613441565b5060005b8160ff168160ff161015611e88576000600260008a8460ff1681518110611e1c57611e1b6152f1565b5b602002602001015173ffffffffffffffffffffffffffffffffffffffff1673ffffffffffffffffffffffffffffffffffffffff16815260200190815260200160002060006101000a81548160ff0219169083151502179055508080611e8090615405565b915050611df2565b50505050505050505050565b600160009054906101000a900473ffffffffffffffffffffffffffffffffffffffff1673ffffffffffffffffffffffffffffffffffffffff163373ffffffffffffffffffffffffffffffffffffffff1614611f24576040517f08c379a0000000000000000000000000000000000000000000000000000000008152600401611f1b9061498d565b60405180910390fd5b600160009054906101000a900473ffffffffffffffffffffffffffffffffffffffff1673ffffffffffffffffffffffffffffffffffffffff16ff5b6000600160009054906101000a900473ffffffffffffffffffffffffffffffffffffffff16905090565b8161204160008054906101000a900473ffffffffffffffffffffffffffffffffffffffff1673ffffffffffffffffffffffffffffffffffffffff1663d6f343c5336040518263ffffffff1660e01b8152600401611fe69190613b96565b60006040518083038186803b158015611ffe57600080fd5b505afa158015612012573d6000803e3d6000fd5b505050506040513d6000823e3d601f19601f8201168201806040525081019061203b91906149ad565b826132d9565b612080576040517f08c379a000000000000000000000000000000000000000000000000000000000815260040161207790614a42565b60405180910390fd5b833373ffffffffffffffffffffffffffffffffffffffff1660008054906101000a900473ffffffffffffffffffffffffffffffffffffffff1673ffffffffffffffffffffffffffffffffffffffff16632aec6e5a836040518263ffffffff1660e01b81526004016120f19190614a62565b60206040518083038186803b15801561210957600080fd5b505afa15801561211d573d6000803e3d6000fd5b505050506040513d601f19601f820116820180604052508101906121419190614a92565b73ffffffffffffffffffffffffffffffffffffffff1614612197576040517f08c379a000000000000000000000000000000000000000000000000000000000815260040161218e90614b0b565b60405180910390fd5b8460008054906101000a900473ffffffffffffffffffffffffffffffffffffffff1673ffffffffffffffffffffffffffffffffffffffff1663e6d29d94826040518263ffffffff1660e01b81526004016121f19190614a62565b60206040518083038186803b15801561220957600080fd5b505afa15801561221d573d6000803e3d6000fd5b505050506040513d601f19601f820116820180604052508101906122419190613df8565b15612281576040517f08c379a000000000000000000000000000000000000000000000000000000000815260040161227890614b77565b60405180910390fd5b60008060009054906101000a900473ffffffffffffffffffffffffffffffffffffffff1673ffffffffffffffffffffffffffffffffffffffff16639e7a1f64886040518263ffffffff1660e01b81526004016122dd9190614a62565b60006040518083038186803b1580156122f557600080fd5b505afa158015612309573d6000803e3d6000fd5b505050506040513d6000823e3d601f19601f820116820180604052508101906123329190614eee565b905060018081111561234757612346613ea2565b5b816101400151600181111561235f5761235e613ea2565b5b1461239f576040517f08c379a000000000000000000000000000000000000000000000000000000000815260040161239690615636565b60405180910390fd5b428160a00151116123e5576040517f08c379a00000000000000000000000000000000000000000000000000000000081526004016123dc906156a2565b60405180910390fd5b60008054906101000a900473ffffffffffffffffffffffffffffffffffffffff1673ffffffffffffffffffffffffffffffffffffffff16635a6167c96040518163ffffffff1660e01b815260040160206040518083038186803b15801561244b57600080fd5b505afa15801561245f573d6000803e3d6000fd5b505050506040513d601f19601f820116820180604052508101906124839190613ee6565b85518261012001515161249691906156c2565b11156124d7576040517f08c379a00000000000000000000000000000000000000000000000000000000081526004016124ce90615764565b60405180910390fd5b60008551905060005b8160ff168160ff16101561276857600060019050878260ff168151811061250a576125096152f1565b5b602002602001015173ffffffffffffffffffffffffffffffffffffffff163373ffffffffffffffffffffffffffffffffffffffff16141561254b5750612755565b600084610120015151905060005b8160ff168160ff1610156125f657898460ff168151811061257d5761257c6152f1565b5b602002602001015173ffffffffffffffffffffffffffffffffffffffff168661012001518260ff16815181106125b6576125b56152f1565b5b602002602001015173ffffffffffffffffffffffffffffffffffffffff1614156125e357600092506125f6565b80806125ee90615405565b915050612559565b5081156127525760008054906101000a900473ffffffffffffffffffffffffffffffffffffffff1673ffffffffffffffffffffffffffffffffffffffff1663be2ec7868c8b8660ff16815181106126505761264f6152f1565b5b60200260200101516040518363ffffffff1660e01b8152600401612675929190615784565b600060405180830381600087803b15801561268f57600080fd5b505af11580156126a3573d6000803e3d6000fd5b5050505060008054906101000a900473ffffffffffffffffffffffffffffffffffffffff1673ffffffffffffffffffffffffffffffffffffffff166333572e928c8b8660ff16815181106126fa576126f96152f1565b5b60200260200101516040518363ffffffff1660e01b815260040161271f929190615784565b600060405180830381600087803b15801561273957600080fd5b505af115801561274d573d6000803e3d6000fd5b505050505b50505b808061276090615405565b9150506124e0565b505050505050505050565b82518451148015612785575081518351145b8015612792575080518251145b6127d1576040517f08c379a00000000000000000000000000000000000000000000000000000000081526004016127c8906157f9565b60405180910390fd5b60008060009054906101000a900473ffffffffffffffffffffffffffffffffffffffff1673ffffffffffffffffffffffffffffffffffffffff16639e7a1f64876040518263ffffffff1660e01b815260040161282d9190614a62565b60006040518083038186803b15801561284557600080fd5b505afa158015612859573d6000803e3d6000fd5b505050506040513d6000823e3d601f19601f820116820180604052508101906128829190614eee565b90506000816101a0015173ffffffffffffffffffffffffffffffffffffffff163373ffffffffffffffffffffffffffffffffffffffff161490508061298b5760008083610120015151905060005b818110156129475784610120015181815181106128f0576128ef6152f1565b5b602002602001015173ffffffffffffffffffffffffffffffffffffffff163373ffffffffffffffffffffffffffffffffffffffff1614156129345760019250612947565b808061293f90615819565b9150506128d0565b5081612988576040517f08c379a000000000000000000000000000000000000000000000000000000000815260040161297f906158ae565b60405180910390fd5b50505b6000808651905060005b8160ff168160ff161015612c19576000898260ff16815181106129bb576129ba6152f1565b5b602002602001015190506000600a8111156129d9576129d8613ea2565b5b60ff168160ff161480612a0457506001600a8111156129fb576129fa613ea2565b5b60ff168160ff16145b80612a2757506002600a811115612a1e57612a1d613ea2565b5b60ff168160ff16145b93508415612a745783612a6f576040517f08c379a0000000000000000000000000000000000000000000000000000000008152600401612a669061591a565b60405180910390fd5b612afc565b8315612ab5576040517f08c379a0000000000000000000000000000000000000000000000000000000008152600401612aac90615986565b60405180910390fd5b428660a0015111612afb576040517f08c379a0000000000000000000000000000000000000000000000000000000008152600401612af2906156a2565b60405180910390fd5b5b60008054906101000a900473ffffffffffffffffffffffffffffffffffffffff1673ffffffffffffffffffffffffffffffffffffffff1663ee7690908c8c8560ff1681518110612b4f57612b4e6152f1565b5b60200260200101518c8660ff1681518110612b6d57612b6c6152f1565b5b6020026020010151338d8860ff1681518110612b8c57612b8b6152f1565b5b60200260200101518d8960ff1681518110612baa57612ba96152f1565b5b60200260200101516040518763ffffffff1660e01b8152600401612bd3969594939291906159a6565b600060405180830381600087803b158015612bed57600080fd5b505af1158015612c01573d6000803e3d6000fd5b50505050508080612c1190615405565b915050612995565b50505050505050505050565b8060008054906101000a900473ffffffffffffffffffffffffffffffffffffffff1673ffffffffffffffffffffffffffffffffffffffff1663e6d29d94826040518263ffffffff1660e01b8152600401612c7f9190614a62565b60206040518083038186803b158015612c9757600080fd5b505afa158015612cab573d6000803e3d6000fd5b505050506040513d601f19601f82011682018060405250810190612ccf9190613df8565b15612d0f576040517f08c379a0000000000000000000000000000000000000000000000000000000008152600401612d0690614b77565b60405180910390fd5b60008060009054906101000a900473ffffffffffffffffffffffffffffffffffffffff1673ffffffffffffffffffffffffffffffffffffffff16639e7a1f64846040518263ffffffff1660e01b8152600401612d6b9190614a62565b60006040518083038186803b158015612d8357600080fd5b505afa158015612d97573d6000803e3d6000fd5b505050506040513d6000823e3d601f19601f82011682018060405250810190612dc09190614eee565b905060008054906101000a900473ffffffffffffffffffffffffffffffffffffffff1673ffffffffffffffffffffffffffffffffffffffff1663be38013b6040518163ffffffff1660e01b815260040160206040518083038186803b158015612e2857600080fd5b505afa158015612e3c573d6000803e3d6000fd5b505050506040513d601f19601f82011682018060405250810190612e609190613ee6565b341015612ea2576040517f08c379a0000000000000000000000000000000000000000000000000000000008152600401612e9990615a68565b60405180910390fd5b60006001811115612eb657612eb5613ea2565b5b8161014001516001811115612ece57612ecd613ea2565b5b14612f0e576040517f08c379a0000000000000000000000000000000000000000000000000000000008152600401612f0590615ad4565b60405180910390fd5b428160a0015111612f54576040517f08c379a0000000000000000000000000000000000000000000000000000000008152600401612f4b906156a2565b60405180910390fd5b806101a0015173ffffffffffffffffffffffffffffffffffffffff163373ffffffffffffffffffffffffffffffffffffffff161415612fc8576040517f08c379a0000000000000000000000000000000000000000000000000000000008152600401612fbf90615b40565b60405180910390fd5b60008054906101000a900473ffffffffffffffffffffffffffffffffffffffff1673ffffffffffffffffffffffffffffffffffffffff1663ecbb7b4a6040518163ffffffff1660e01b815260040160206040518083038186803b15801561302e57600080fd5b505afa158015613042573d6000803e3d6000fd5b505050506040513d601f19601f820116820180604052508101906130669190613ee6565b81610120015151106130ad576040517f08c379a00000000000000000000000000000000000000000000000000000000081526004016130a490615bac565b60405180910390fd5b600081610120015151905060005b8160ff168160ff16101561316d573373ffffffffffffffffffffffffffffffffffffffff168361012001518260ff16815181106130fb576130fa6152f1565b5b602002602001015173ffffffffffffffffffffffffffffffffffffffff16141561315a576040517f08c379a000000000000000000000000000000000000000000000000000000000815260040161315190615c18565b60405180910390fd5b808061316590615405565b9150506130bb565b5060008054906101000a900473ffffffffffffffffffffffffffffffffffffffff1673ffffffffffffffffffffffffffffffffffffffff1663be2ec78685336040518363ffffffff1660e01b81526004016131c9929190615784565b600060405180830381600087803b1580156131e357600080fd5b505af11580156131f7573d6000803e3d6000fd5b5050505060008054906101000a900473ffffffffffffffffffffffffffffffffffffffff1673ffffffffffffffffffffffffffffffffffffffff166333572e9285336040518363ffffffff1660e01b8152600401613256929190615784565b600060405180830381600087803b15801561327057600080fd5b505af1158015613284573d6000803e3d6000fd5b5050505050505050565b60008083805190602001209050600081846040516020016132b0929190615ca1565b604051602081830303815290604052905060008180519060200120905080935050505092915050565b600081518351146132ed576000905061333f565b816040516020016132fe9190615d09565b60405160208183030381529060405280519060200120836040516020016133259190615d09565b604051602081830303815290604052805190602001201490505b92915050565b6000808251141561338757600073ffffffffffffffffffffffffffffffffffffffff168373ffffffffffffffffffffffffffffffffffffffff1614905061343b565b60005b8251811015613435578281815181106133a6576133a56152f1565b5b602002602001015173ffffffffffffffffffffffffffffffffffffffff168473ffffffffffffffffffffffffffffffffffffffff1614806134135750600073ffffffffffffffffffffffffffffffffffffffff168473ffffffffffffffffffffffffffffffffffffffff16145b1561342257600191505061343b565b808061342d90615819565b91505061338a565b50600090505b92915050565b8280548282559060005260206000209081019282156134825760005260206000209182015b82811115613481578254825591600101919060010190613466565b5b50905061348f9190613493565b5090565b5b808211156134ac576000816000905550600101613494565b5090565b6000604051905090565b600080fd5b600080fd5b600080fd5b600080fd5b6000601f19601f8301169050919050565b7f4e487b7100000000000000000000000000000000000000000000000000000000600052604160045260246000fd5b613517826134ce565b810181811067ffffffffffffffff82111715613536576135356134df565b5b80604052505050565b60006135496134b0565b9050613555828261350e565b919050565b600067ffffffffffffffff821115613575576135746134df565b5b61357e826134ce565b9050602081019050919050565b82818337600083830152505050565b60006135ad6135a88461355a565b61353f565b9050828152602081018484840111156135c9576135c86134c9565b5b6135d484828561358b565b509392505050565b600082601f8301126135f1576135f06134c4565b5b813561360184826020860161359a565b91505092915050565b6000819050919050565b61361d8161360a565b811461362857600080fd5b50565b60008135905061363a81613614565b92915050565b6002811061364d57600080fd5b50565b60008135905061365f81613640565b92915050565b600067ffffffffffffffff8211156136805761367f6134df565b5b602082029050602081019050919050565b600080fd5b60006136a96136a484613665565b61353f565b905080838252602082019050602084028301858111156136cc576136cb613691565b5b835b8181101561371357803567ffffffffffffffff8111156136f1576136f06134c4565b5b8086016136fe89826135dc565b855260208501945050506020810190506136ce565b5050509392505050565b600082601f830112613732576137316134c4565b5b8135613742848260208601613696565b91505092915050565b600080600080600080600080610100898b03121561376c5761376b6134ba565b5b600089013567ffffffffffffffff81111561378a576137896134bf565b5b6137968b828c016135dc565b985050602089013567ffffffffffffffff8111156137b7576137b66134bf565b5b6137c38b828c016135dc565b975050604089013567ffffffffffffffff8111156137e4576137e36134bf565b5b6137f08b828c016135dc565b96505060606138018b828c0161362b565b95505060806138128b828c0161362b565b94505060a06138238b828c0161362b565b93505060c06138348b828c01613650565b92505060e089013567ffffffffffffffff811115613855576138546134bf565b5b6138618b828c0161371d565b9150509295985092959890939650565b600073ffffffffffffffffffffffffffffffffffffffff82169050919050565b600061389c82613871565b9050919050565b6138ac81613891565b81146138b757600080fd5b50565b6000813590506138c9816138a3565b92915050565b6000602082840312156138e5576138e46134ba565b5b60006138f3848285016138ba565b91505092915050565b600061ffff82169050919050565b613913816138fc565b811461391e57600080fd5b50565b6000813590506139308161390a565b92915050565b6000806040838503121561394d5761394c6134ba565b5b600083013567ffffffffffffffff81111561396b5761396a6134bf565b5b613977858286016135dc565b925050602061398885828601613921565b9150509250929050565b6000806000606084860312156139ab576139aa6134ba565b5b600084013567ffffffffffffffff8111156139c9576139c86134bf565b5b6139d5868287016135dc565b935050602084013567ffffffffffffffff8111156139f6576139f56134bf565b5b613a02868287016135dc565b925050604084013567ffffffffffffffff811115613a2357613a226134bf565b5b613a2f868287016135dc565b9150509250925092565b600067ffffffffffffffff821115613a5457613a536134df565b5b602082029050602081019050919050565b6000613a78613a7384613a39565b61353f565b90508083825260208201905060208402830185811115613a9b57613a9a613691565b5b835b81811015613ac45780613ab088826138ba565b845260208401935050602081019050613a9d565b5050509392505050565b600082601f830112613ae357613ae26134c4565b5b8135613af3848260208601613a65565b91505092915050565b600080600060608486031215613b1557613b146134ba565b5b6000613b2386828701613921565b935050602084013567ffffffffffffffff811115613b4457613b436134bf565b5b613b50868287016135dc565b925050604084013567ffffffffffffffff811115613b7157613b706134bf565b5b613b7d86828701613ace565b9150509250925092565b613b9081613891565b82525050565b6000602082019050613bab6000830184613b87565b92915050565b600067ffffffffffffffff821115613bcc57613bcb6134df565b5b602082029050602081019050919050565b6000613bf0613beb84613bb1565b61353f565b90508083825260208201905060208402830185811115613c1357613c12613691565b5b835b81811015613c3c5780613c28888261362b565b845260208401935050602081019050613c15565b5050509392505050565b600082601f830112613c5b57613c5a6134c4565b5b8135613c6b848260208601613bdd565b91505092915050565b600080600080600060a08688031215613c9057613c8f6134ba565b5b6000613c9e88828901613921565b955050602086013567ffffffffffffffff811115613cbf57613cbe6134bf565b5b613ccb88828901613c46565b945050604086013567ffffffffffffffff811115613cec57613ceb6134bf565b5b613cf88882890161371d565b935050606086013567ffffffffffffffff811115613d1957613d186134bf565b5b613d258882890161371d565b925050608086013567ffffffffffffffff811115613d4657613d456134bf565b5b613d528882890161371d565b9150509295509295909350565b600060208284031215613d7557613d746134ba565b5b6000613d8384828501613921565b91505092915050565b6000819050919050565b613d9f81613d8c565b82525050565b6000602082019050613dba6000830184613d96565b92915050565b60008115159050919050565b613dd581613dc0565b8114613de057600080fd5b50565b600081519050613df281613dcc565b92915050565b600060208284031215613e0e57613e0d6134ba565b5b6000613e1c84828501613de3565b91505092915050565b600082825260208201905092915050565b7f72667069645f616c72656164795f74616b656e00000000000000000000000000600082015250565b6000613e6c601383613e25565b9150613e7782613e36565b602082019050919050565b60006020820190508181036000830152613e9b81613e5f565b9050919050565b7f4e487b7100000000000000000000000000000000000000000000000000000000600052602160045260246000fd5b600081519050613ee081613614565b92915050565b600060208284031215613efc57613efb6134ba565b5b6000613f0a84828501613ed1565b91505092915050565b7f496e73756666696369656e745f7061796d656e74000000000000000000000000600082015250565b6000613f49601483613e25565b9150613f5482613f13565b602082019050919050565b60006020820190508181036000830152613f7881613f3c565b9050919050565b600080fd5b600080fd5b60005b83811015613fa7578082015181840152602081019050613f8c565b83811115613fb6576000848401525b50505050565b6000613fcf613fca8461355a565b61353f565b905082815260208101848484011115613feb57613fea6134c9565b5b613ff6848285613f89565b509392505050565b600082601f830112614013576140126134c4565b5b8151614023848260208601613fbc565b91505092915050565b600067ffffffffffffffff821115614047576140466134df565b5b602082029050602081019050919050565b6000815190506140678161390a565b92915050565b600061408061407b8461402c565b61353f565b905080838252602082019050602084028301858111156140a3576140a2613691565b5b835b818110156140cc57806140b88882614058565b8452602084019350506020810190506140a5565b5050509392505050565b600082601f8301126140eb576140ea6134c4565b5b81516140fb84826020860161406d565b91505092915050565b600060c0828403121561411a57614119613f7f565b5b61412460c061353f565b9050600082015167ffffffffffffffff81111561414457614143613f84565b5b61415084828501613ffe565b600083015250602082015167ffffffffffffffff81111561417457614173613f84565b5b61418084828501613ffe565b602083015250604082015167ffffffffffffffff8111156141a4576141a3613f84565b5b6141b084828501613ffe565b604083015250606082015167ffffffffffffffff8111156141d4576141d3613f84565b5b6141e0848285016140d6565b606083015250608082015167ffffffffffffffff81111561420457614203613f84565b5b614210848285016140d6565b60808301525060a082015167ffffffffffffffff81111561423457614233613f84565b5b614240848285016140d6565b60a08301525092915050565b600060208284031215614262576142616134ba565b5b600082015167ffffffffffffffff8111156142805761427f6134bf565b5b61428c84828501614104565b91505092915050565b7f616464726573735f6e6f745f61646d696e000000000000000000000000000000600082015250565b60006142cb601183613e25565b91506142d682614295565b602082019050919050565b600060208201905081810360008301526142fa816142be565b9050919050565b7f4e487b7100000000000000000000000000000000000000000000000000000000600052601160045260246000fd5b600061433b8261360a565b91506143468361360a565b92508282101561435957614358614301565b5b828203905092915050565b7f6f70656e646174655f626568696e645f746f6461790000000000000000000000600082015250565b600061439a601583613e25565b91506143a582614364565b602082019050919050565b600060208201905081810360008301526143c98161438d565b9050919050565b7f696e697469616c5f646174655f77726f6e670000000000000000000000000000600082015250565b6000614406601283613e25565b9150614411826143d0565b602082019050919050565b60006020820190508181036000830152614435816143f9565b9050919050565b7f726563656976696e675f646174655f77726f6e67000000000000000000000000600082015250565b6000614472601483613e25565b915061447d8261443c565b602082019050919050565b600060208201905081810360008301526144a181614465565b9050919050565b6000602082840312156144be576144bd6134ba565b5b60006144cc84828501614058565b91505092915050565b6144de816138fc565b82525050565b600081519050919050565b600082825260208201905092915050565b600061450b826144e4565b61451581856144ef565b9350614525818560208601613f89565b61452e816134ce565b840191505092915050565b614542816138fc565b82525050565b6145518161360a565b82525050565b61456081613dc0565b82525050565b600081519050919050565b600082825260208201905092915050565b6000819050602082019050919050565b61459b81613891565b82525050565b60006145ad8383614592565b60208301905092915050565b6000602082019050919050565b60006145d182614566565b6145db8185614571565b93506145e683614582565b8060005b838110156146175781516145fe88826145a1565b9750614609836145b9565b9250506001810190506145ea565b5085935050505092915050565b6002811061463557614634613ea2565b5b50565b600081905061464682614624565b919050565b600061465682614638565b9050919050565b6146668161464b565b82525050565b600081519050919050565b600082825260208201905092915050565b6000819050602082019050919050565b60006146a48383614500565b905092915050565b6000602082019050919050565b60006146c48261466c565b6146ce8185614677565b9350836020820285016146e085614688565b8060005b8581101561471c57848403895281516146fd8582614698565b9450614708836146ac565b925060208a019950506001810190506146e4565b50829750879550505050505092915050565b60006101c083016000830151848203600086015261474c8282614500565b915050602083015184820360208601526147668282614500565b915050604083015161477b6040860182614539565b50606083015184820360608601526147938282614500565b91505060808301516147a86080860182614548565b5060a08301516147bb60a0860182614548565b5060c08301516147ce60c0860182614548565b5060e08301516147e160e0860182614557565b506101008301516147f6610100860182614548565b5061012083015184820361012086015261481082826145c6565b91505061014083015161482761014086018261465d565b5061016083015184820361016086015261484182826146b9565b91505061018083015184820361018086015261485d82826145c6565b9150506101a08301516148746101a0860182614592565b508091505092915050565b600060408201905061489460008301856144d5565b81810360208301526148a6818461472e565b90509392505050565b60006040820190506148c46000830185613b87565b6148d160208301846144d5565b9392505050565b60006148e3826144e4565b6148ed8185613e25565b93506148fd818560208601613f89565b614906816134ce565b840191505092915050565b600060408201905061492660008301856144d5565b818103602083015261493881846148d8565b90509392505050565b7f4f6e6c795f6f776e65725f616c6c6f7765640000000000000000000000000000600082015250565b6000614977601283613e25565b915061498282614941565b602082019050919050565b600060208201905081810360008301526149a68161496a565b9050919050565b6000602082840312156149c3576149c26134ba565b5b600082015167ffffffffffffffff8111156149e1576149e06134bf565b5b6149ed84828501613ffe565b91505092915050565b7f4f6e6c795f61646d696e5f63616e5f706572666f726d00000000000000000000600082015250565b6000614a2c601683613e25565b9150614a37826149f6565b602082019050919050565b60006020820190508181036000830152614a5b81614a1f565b9050919050565b6000602082019050614a7760008301846144d5565b92915050565b600081519050614a8c816138a3565b92915050565b600060208284031215614aa857614aa76134ba565b5b6000614ab684828501614a7d565b91505092915050565b7f4f6e6c795f6973737565725f63616e5f706572666f726d000000000000000000600082015250565b6000614af5601783613e25565b9150614b0082614abf565b602082019050919050565b60006020820190508181036000830152614b2481614ae8565b9050919050565b7f616c72656164795f63616e63656c656400000000000000000000000000000000600082015250565b6000614b61601083613e25565b9150614b6c82614b2b565b602082019050919050565b60006020820190508181036000830152614b9081614b54565b9050919050565b6000614baa614ba584613a39565b61353f565b90508083825260208201905060208402830185811115614bcd57614bcc613691565b5b835b81811015614bf65780614be28882614a7d565b845260208401935050602081019050614bcf565b5050509392505050565b600082601f830112614c1557614c146134c4565b5b8151614c25848260208601614b97565b91505092915050565b600081519050614c3d81613640565b92915050565b6000614c56614c5184613665565b61353f565b90508083825260208201905060208402830185811115614c7957614c78613691565b5b835b81811015614cc057805167ffffffffffffffff811115614c9e57614c9d6134c4565b5b808601614cab8982613ffe565b85526020850194505050602081019050614c7b565b5050509392505050565b600082601f830112614cdf57614cde6134c4565b5b8151614cef848260208601614c43565b91505092915050565b60006101c08284031215614d0f57614d0e613f7f565b5b614d1a6101c061353f565b9050600082015167ffffffffffffffff811115614d3a57614d39613f84565b5b614d4684828501613ffe565b600083015250602082015167ffffffffffffffff811115614d6a57614d69613f84565b5b614d7684828501613ffe565b6020830152506040614d8a84828501614058565b604083015250606082015167ffffffffffffffff811115614dae57614dad613f84565b5b614dba84828501613ffe565b6060830152506080614dce84828501613ed1565b60808301525060a0614de284828501613ed1565b60a08301525060c0614df684828501613ed1565b60c08301525060e0614e0a84828501613de3565b60e083015250610100614e1f84828501613ed1565b6101008301525061012082015167ffffffffffffffff811115614e4557614e44613f84565b5b614e5184828501614c00565b61012083015250610140614e6784828501614c2e565b6101408301525061016082015167ffffffffffffffff811115614e8d57614e8c613f84565b5b614e9984828501614cca565b6101608301525061018082015167ffffffffffffffff811115614ebf57614ebe613f84565b5b614ecb84828501614c00565b610180830152506101a0614ee184828501614a7d565b6101a08301525092915050565b600060208284031215614f0457614f036134ba565b5b600082015167ffffffffffffffff811115614f2257614f216134bf565b5b614f2e84828501614cf8565b91505092915050565b7f7266705f616c72656164795f6177617264656400000000000000000000000000600082015250565b6000614f6d601383613e25565b9150614f7882614f37565b602082019050919050565b60006020820190508181036000830152614f9c81614f60565b9050919050565b614fac81613dc0565b82525050565b6000604082019050614fc760008301856144d5565b614fd46020830184614fa3565b9392505050565b614fe48161360a565b82525050565b6000604082019050614fff60008301856144d5565b61500c6020830184614fdb565b9392505050565b600081905092915050565b50565b600061502e600083615013565b91506150398261501e565b600082019050919050565b600061504f82615021565b9150819050919050565b7f6661696c65645f77697468647261770000000000000000000000000000000000600082015250565b600061508f600f83613e25565b915061509a82615059565b602082019050919050565b600060208201905081810360008301526150be81615082565b9050919050565b600060208201905081810360008301526150df81846148d8565b905092915050565b7f69645f616c72656164795f657869737473000000000000000000000000000000600082015250565b600061511d601183613e25565b9150615128826150e7565b602082019050919050565b6000602082019050818103600083015261514c81615110565b9050919050565b7f616464726573735f616c72656164795f61646d696e5f6f665f636f6d70616e79600082015250565b6000615189602083613e25565b915061519482615153565b602082019050919050565b600060208201905081810360008301526151b88161517c565b9050919050565b60006080820190506151d46000830187613b87565b81810360208301526151e681866148d8565b905081810360408301526151fa81856148d8565b9050818103606083015261520e81846148d8565b905095945050505050565b7f6e6f745f6d61746368696e675f77696e6e657273000000000000000000000000600082015250565b600061524f601483613e25565b915061525a82615219565b602082019050919050565b6000602082019050818103600083015261527e81615242565b9050919050565b7f656e64646174655f6e6f745f726561636865645f796574000000000000000000600082015250565b60006152bb601783613e25565b91506152c682615285565b602082019050919050565b600060208201905081810360008301526152ea816152ae565b9050919050565b7f4e487b7100000000000000000000000000000000000000000000000000000000600052603260045260246000fd5b7f63616e6e6f745f73656c665f6177617264000000000000000000000000000000600082015250565b6000615356601183613e25565b915061536182615320565b602082019050919050565b6000602082019050818103600083015261538581615349565b9050919050565b7f696e76616c69645f77696e6e6572000000000000000000000000000000000000600082015250565b60006153c2600e83613e25565b91506153cd8261538c565b602082019050919050565b600060208201905081810360008301526153f1816153b5565b9050919050565b600060ff82169050919050565b6000615410826153f8565b915060ff82141561542457615423614301565b5b600182019050919050565b600082825260208201905092915050565b600061544b82614566565b615455818561542f565b935061546083614582565b8060005b8381101561549157815161547888826145a1565b9750615483836145b9565b925050600181019050615464565b5085935050505092915050565b60006040820190506154b360008301856144d5565b81810360208301526154c58184615440565b90509392505050565b600081549050919050565b60008190508160005260206000209050919050565b60008160001c9050919050565b600073ffffffffffffffffffffffffffffffffffffffff82169050919050565b600061552e615529836154ee565b6154fb565b9050919050565b6000615541825461551b565b9050919050565b6000600182019050919050565b6000615560826154ce565b61556a818561542f565b9350615575836154d9565b8060005b838110156155ad5761558a82615535565b61559488826145a1565b975061559f83615548565b925050600181019050615579565b5085935050505092915050565b60006040820190506155cf60008301856144d5565b81810360208301526155e18184615555565b90509392505050565b7f77726f6e675f636f6e746573745f747970650000000000000000000000000000600082015250565b6000615620601283613e25565b915061562b826155ea565b602082019050919050565b6000602082019050818103600083015261564f81615613565b9050919050565b7f656e645f726563656976696e675f726561636865640000000000000000000000600082015250565b600061568c601583613e25565b915061569782615656565b602082019050919050565b600060208201905081810360008301526156bb8161567f565b9050919050565b60006156cd8261360a565b91506156d88361360a565b9250827fffffffffffffffffffffffffffffffffffffffffffffffffffffffffffffffff0382111561570d5761570c614301565b5b828201905092915050565b7f746f6f5f6d616e795f6775657374730000000000000000000000000000000000600082015250565b600061574e600f83613e25565b915061575982615718565b602082019050919050565b6000602082019050818103600083015261577d81615741565b9050919050565b600060408201905061579960008301856144d5565b6157a66020830184613b87565b9392505050565b7f696e7075745f61727261795f6c656e677468735f6e6f5f6d6174636800000000600082015250565b60006157e3601c83613e25565b91506157ee826157ad565b602082019050919050565b60006020820190508181036000830152615812816157d6565b9050919050565b60006158248261360a565b91507fffffffffffffffffffffffffffffffffffffffffffffffffffffffffffffffff82141561585757615856614301565b5b600182019050919050565b7f6e6f745f7061727469636970616e740000000000000000000000000000000000600082015250565b6000615898600f83613e25565b91506158a382615862565b602082019050919050565b600060208201905081810360008301526158c78161588b565b9050919050565b7f6973737565725f6261645f646f63747970650000000000000000000000000000600082015250565b6000615904601283613e25565b915061590f826158ce565b602082019050919050565b60006020820190508181036000830152615933816158f7565b9050919050565b7f7061727469636970616e745f6261645f646f6374797065000000000000000000600082015250565b6000615970601783613e25565b915061597b8261593a565b602082019050919050565b6000602082019050818103600083015261599f81615963565b9050919050565b600060c0820190506159bb60008301896144d5565b6159c86020830188614fdb565b81810360408301526159da81876148d8565b90506159e96060830186613b87565b81810360808301526159fb81856148d8565b905081810360a0830152615a0f81846148d8565b9050979650505050505050565b7f496e73756666696369656e745f7061796d656e745f6665650000000000000000600082015250565b6000615a52601883613e25565b9150615a5d82615a1c565b602082019050919050565b60006020820190508181036000830152615a8181615a45565b9050919050565b7f6e6f745f6f70656e5f74656e6465720000000000000000000000000000000000600082015250565b6000615abe600f83613e25565b9150615ac982615a88565b602082019050919050565b60006020820190508181036000830152615aed81615ab1565b9050919050565b7f63616e5f6e6f745f72656769737465725f73656c660000000000000000000000600082015250565b6000615b2a601583613e25565b9150615b3582615af4565b602082019050919050565b60006020820190508181036000830152615b5981615b1d565b9050919050565b7f6d61785f7061727469636970616e74735f726561636865640000000000000000600082015250565b6000615b96601883613e25565b9150615ba182615b60565b602082019050919050565b60006020820190508181036000830152615bc581615b89565b9050919050565b7f616c72656164795f70617274696369706174696e670000000000000000000000600082015250565b6000615c02601583613e25565b9150615c0d82615bcc565b602082019050919050565b60006020820190508181036000830152615c3181615bf5565b9050919050565b6000819050919050565b615c53615c4e82613d8c565b615c38565b82525050565b60008160601b9050919050565b6000615c7182615c59565b9050919050565b6000615c8382615c66565b9050919050565b615c9b615c9682613891565b615c78565b82525050565b6000615cad8285615c42565b602082019150615cbd8284615c8a565b6014820191508190509392505050565b600081905092915050565b6000615ce3826144e4565b615ced8185615ccd565b9350615cfd818560208601613f89565b80840191505092915050565b6000615d158284615cd8565b91508190509291505056fea26469706673582212203a0ddc5ea15290512847d17feb80b73761dfc1d5b8ca2f9c6a2bdfc60dbf641f64736f6c63430008090033",
  "linkReferences": {},
  "deployedLinkReferences": {}
}