{
  "_format": "hh-sol-artifact-1",
  "contractName": "pro_ponLogic",
  "sourceName": "contracts/proponLogic.sol",
  "abi": [
    {
      "inputs": [
        {
          "internalType": "address",
          "name": "_dataContractAddress",
          "type": "address"
        }
      ],
      "stateMutability": "payable",
      "type": "constructor"
    },
    {
      "anonymous": false,
      "inputs": [
        {
          "indexed": true,
          "internalType": "address",
          "name": "sender",
          "type": "address"
        },
        {
          "indexed": false,
          "internalType": "uint256",
          "name": "id",
          "type": "uint256"
        },
        {
          "indexed": false,
          "internalType": "string",
          "name": "name",
          "type": "string"
        }
      ],
      "name": "NewRFPCreated",
      "type": "event"
    },
    {
      "inputs": [
        {
          "internalType": "uint256",
          "name": "_rfpIdx",
          "type": "uint256"
        },
        {
          "internalType": "uint256[]",
          "name": "_docTypes",
          "type": "uint256[]"
        },
        {
          "internalType": "string[]",
          "name": "_names",
          "type": "string[]"
        },
        {
          "internalType": "string[]",
          "name": "_documentHashes",
          "type": "string[]"
        },
        {
          "internalType": "string[]",
          "name": "_idxs",
          "type": "string[]"
        }
      ],
      "name": "addDocuments",
      "outputs": [],
      "stateMutability": "nonpayable",
      "type": "function"
    },
    {
      "inputs": [
        {
          "internalType": "string",
          "name": "_companyId",
          "type": "string"
        },
        {
          "internalType": "uint256",
          "name": "_rfpIndex",
          "type": "uint256"
        }
      ],
      "name": "cancelRFP",
      "outputs": [],
      "stateMutability": "nonpayable",
      "type": "function"
    },
    {
      "inputs": [
        {
          "internalType": "string",
          "name": "_id",
          "type": "string"
        },
        {
          "internalType": "string",
          "name": "_name",
          "type": "string"
        },
        {
          "internalType": "string",
          "name": "_country",
          "type": "string"
        }
      ],
      "name": "createCompany",
      "outputs": [],
      "stateMutability": "payable",
      "type": "function"
    },
    {
      "inputs": [
        {
          "internalType": "string",
          "name": "_name",
          "type": "string"
        },
        {
          "internalType": "string",
          "name": "_description",
          "type": "string"
        },
        {
          "internalType": "string",
          "name": "_rfpwebsite",
          "type": "string"
        },
        {
          "internalType": "uint256",
          "name": "_openDate",
          "type": "uint256"
        },
        {
          "internalType": "uint256",
          "name": "_endReceivingDate",
          "type": "uint256"
        },
        {
          "internalType": "uint256",
          "name": "_endDate",
          "type": "uint256"
        },
        {
          "internalType": "enum proponShared.ContestType",
          "name": "_contestType",
          "type": "uint8"
        },
        {
          "internalType": "string[]",
          "name": "_items",
          "type": "string[]"
        }
      ],
      "name": "createRFP",
      "outputs": [],
      "stateMutability": "payable",
      "type": "function"
    },
    {
      "inputs": [
        {
          "internalType": "uint256",
          "name": "_rfpIndex",
          "type": "uint256"
        },
        {
          "internalType": "string",
          "name": "_companyId",
          "type": "string"
        },
        {
          "internalType": "address[]",
          "name": "winners",
          "type": "address[]"
        }
      ],
      "name": "declareWinners",
      "outputs": [],
      "stateMutability": "nonpayable",
      "type": "function"
    },
    {
      "inputs": [],
      "name": "destroy",
      "outputs": [],
      "stateMutability": "nonpayable",
      "type": "function"
    },
    {
      "inputs": [
        {
          "internalType": "uint256",
          "name": "_rfpId",
          "type": "uint256"
        },
        {
          "internalType": "string",
          "name": "companyId",
          "type": "string"
        },
        {
          "internalType": "address[]",
          "name": "invitedCompanies",
          "type": "address[]"
        }
      ],
      "name": "inviteCompaniestoRFP",
      "outputs": [],
      "stateMutability": "nonpayable",
      "type": "function"
    },
    {
      "inputs": [
        {
          "internalType": "uint256",
          "name": "_rfpId",
          "type": "uint256"
        }
      ],
      "name": "registertoOpenRFP",
      "outputs": [],
      "stateMutability": "payable",
      "type": "function"
    },
    {
      "inputs": [
        {
          "internalType": "address",
          "name": "_newOwner",
          "type": "address"
        }
      ],
      "name": "setOwner",
      "outputs": [],
      "stateMutability": "nonpayable",
      "type": "function"
    },
    {
      "inputs": [],
      "name": "withdraw",
      "outputs": [],
      "stateMutability": "nonpayable",
      "type": "function"
    }
  ],
  "bytecode": "0x6080604052600067ffffffffffffffff8111156200002257620000216200022b565b5b604051908082528060200260200182016040528015620000515781602001602082028036833780820191505090505b5060039080519060200190620000699291906200017d565b50600067ffffffffffffffff8111156200008857620000876200022b565b5b604051908082528060200260200182016040528015620000b75781602001602082028036833780820191505090505b5060049080519060200190620000cf9291906200017d565b5060405162005d8038038062005d808339818101604052810190620000f59190620002c4565b806000806101000a81548173ffffffffffffffffffffffffffffffffffffffff021916908373ffffffffffffffffffffffffffffffffffffffff16021790555033600160006101000a81548173ffffffffffffffffffffffffffffffffffffffff021916908373ffffffffffffffffffffffffffffffffffffffff16021790555050620002f6565b828054828255906000526020600020908101928215620001f9579160200282015b82811115620001f85782518260006101000a81548173ffffffffffffffffffffffffffffffffffffffff021916908373ffffffffffffffffffffffffffffffffffffffff160217905550916020019190600101906200019e565b5b5090506200020891906200020c565b5090565b5b80821115620002275760008160009055506001016200020d565b5090565b7f4e487b7100000000000000000000000000000000000000000000000000000000600052604160045260246000fd5b600080fd5b600073ffffffffffffffffffffffffffffffffffffffff82169050919050565b60006200028c826200025f565b9050919050565b6200029e816200027f565b8114620002aa57600080fd5b50565b600081519050620002be8162000293565b92915050565b600060208284031215620002dd57620002dc6200025a565b5b6000620002ed84828501620002ad565b91505092915050565b615a7a80620003066000396000f3fe6080604052600436106100915760003560e01c80637b60626d116100595780637b60626d1461014457806383197ef014610160578063d2d4ecac14610177578063ed72f89f146101a0578063f1e60d2b146101bc57610091565b80630adc596e1461009657806313af4035146100b25780633ccfd60b146100db578063482baf93146100f257806357c4cab41461011b575b600080fd5b6100b060048036038101906100ab919061354e565b6101e5565b005b3480156100be57600080fd5b506100d960048036038101906100d491906136d2565b610aa8565b005b3480156100e757600080fd5b506100f0610b7c565b005b3480156100fe57600080fd5b50610119600480360381019061011491906137c2565b610cc1565b005b34801561012757600080fd5b50610142600480360381019061013d919061384d565b6113e3565b005b61015e600480360381019061015991906138a9565b6118fa565b005b34801561016c57600080fd5b50610175611c51565b005b34801561018357600080fd5b5061019e60048036038101906101999190613a13565b611d1c565b005b6101ba60048036038101906101b59190613afe565b6121b3565b005b3480156101c857600080fd5b506101e360048036038101906101de91906137c2565b612786565b005b60006101f18933613091565b905060008054906101000a900473ffffffffffffffffffffffffffffffffffffffff1673ffffffffffffffffffffffffffffffffffffffff166343a2d048826040518263ffffffff1660e01b815260040161024c9190613b44565b60206040518083038186803b15801561026457600080fd5b505afa158015610278573d6000803e3d6000fd5b505050506040513d601f19601f8201168201806040525081019061029c9190613b97565b156102dc576040517f08c379a00000000000000000000000000000000000000000000000000000000081526004016102d390613c21565b60405180910390fd5b600060018111156102f0576102ef613c41565b5b83600181111561030357610302613c41565b5b146103ab5760008054906101000a900473ffffffffffffffffffffffffffffffffffffffff1673ffffffffffffffffffffffffffffffffffffffff1663afeff8d96040518163ffffffff1660e01b815260040160206040518083038186803b15801561036e57600080fd5b505afa158015610382573d6000803e3d6000fd5b505050506040513d601f19601f820116820180604052508101906103a69190613c85565b61044a565b60008054906101000a900473ffffffffffffffffffffffffffffffffffffffff1673ffffffffffffffffffffffffffffffffffffffff16634e289b886040518163ffffffff1660e01b815260040160206040518083038186803b15801561041157600080fd5b505afa158015610425573d6000803e3d6000fd5b505050506040513d601f19601f820116820180604052508101906104499190613c85565b5b34101561048c576040517f08c379a000000000000000000000000000000000000000000000000000000000815260040161048390613cfe565b60405180910390fd5b60008060009054906101000a900473ffffffffffffffffffffffffffffffffffffffff1673ffffffffffffffffffffffffffffffffffffffff166362bc56e6336040518263ffffffff1660e01b81526004016104e89190613d2d565b60006040518083038186803b15801561050057600080fd5b505afa158015610514573d6000803e3d6000fd5b505050506040513d6000823e3d601f19601f8201168201806040525081019061053d9190613ff2565b905060008160000151905060008151141561058d576040517f08c379a000000000000000000000000000000000000000000000000000000000815260040161058490614087565b60405180910390fd5b610e104261059b91906140d6565b8810156105dd576040517f08c379a00000000000000000000000000000000000000000000000000000000081526004016105d490614156565b60405180910390fd5b86881061061f576040517f08c379a0000000000000000000000000000000000000000000000000000000008152600401610616906141c2565b60405180910390fd5b858710610661576040517f08c379a00000000000000000000000000000000000000000000000000000000081526004016106589061422e565b60405180910390fd5b60008060009054906101000a900473ffffffffffffffffffffffffffffffffffffffff1673ffffffffffffffffffffffffffffffffffffffff16631393b9e86040518163ffffffff1660e01b815260040160206040518083038186803b1580156106ca57600080fd5b505afa1580156106de573d6000803e3d6000fd5b505050506040513d601f19601f820116820180604052508101906107029190613c85565b90506000604051806101c001604052808e81526020018d81526020018381526020018c81526020018b81526020018a815260200189815260200160001515815260200160008152602001600067ffffffffffffffff811115610767576107666132e2565b5b6040519080825280602002602001820160405280156107955781602001602082028036833780820191505090505b5081526020018860018111156107ae576107ad613c41565b5b8152602001878152602001600067ffffffffffffffff8111156107d4576107d36132e2565b5b6040519080825280602002602001820160405280156108025781602001602082028036833780820191505090505b5081526020013373ffffffffffffffffffffffffffffffffffffffff16815250905060008054906101000a900473ffffffffffffffffffffffffffffffffffffffff1673ffffffffffffffffffffffffffffffffffffffff1663f9c3c20c866040518263ffffffff1660e01b815260040161087d9190613b44565b600060405180830381600087803b15801561089757600080fd5b505af11580156108ab573d6000803e3d6000fd5b5050505060008054906101000a900473ffffffffffffffffffffffffffffffffffffffff1673ffffffffffffffffffffffffffffffffffffffff1663c356ded583836040518363ffffffff1660e01b815260040161090a9291906145e9565b600060405180830381600087803b15801561092457600080fd5b505af1158015610938573d6000803e3d6000fd5b5050505060008054906101000a900473ffffffffffffffffffffffffffffffffffffffff1673ffffffffffffffffffffffffffffffffffffffff166322f0b32533846040518363ffffffff1660e01b8152600401610997929190614619565b600060405180830381600087803b1580156109b157600080fd5b505af11580156109c5573d6000803e3d6000fd5b5050505060008054906101000a900473ffffffffffffffffffffffffffffffffffffffff1673ffffffffffffffffffffffffffffffffffffffff16631a3ca1d86040518163ffffffff1660e01b8152600401600060405180830381600087803b158015610a3157600080fd5b505af1158015610a45573d6000803e3d6000fd5b505050503373ffffffffffffffffffffffffffffffffffffffff167fae438a3ef380e4b013ba12bcb929a59140482304040a1d8cf54d25c8e85640e9838f604051610a9192919061467b565b60405180910390a250505050505050505050505050565b600160009054906101000a900473ffffffffffffffffffffffffffffffffffffffff1673ffffffffffffffffffffffffffffffffffffffff163373ffffffffffffffffffffffffffffffffffffffff1614610b38576040517f08c379a0000000000000000000000000000000000000000000000000000000008152600401610b2f906146f7565b60405180910390fd5b80600160006101000a81548173ffffffffffffffffffffffffffffffffffffffff021916908373ffffffffffffffffffffffffffffffffffffffff16021790555050565b600160009054906101000a900473ffffffffffffffffffffffffffffffffffffffff1673ffffffffffffffffffffffffffffffffffffffff163373ffffffffffffffffffffffffffffffffffffffff1614610c0c576040517f08c379a0000000000000000000000000000000000000000000000000000000008152600401610c03906146f7565b60405180910390fd5b600047905060003373ffffffffffffffffffffffffffffffffffffffff1682604051610c3790614748565b60006040518083038185875af1925050503d8060008114610c74576040519150601f19603f3d011682016040523d82523d6000602084013e610c79565b606091505b5050905080610cbd576040517f08c379a0000000000000000000000000000000000000000000000000000000008152600401610cb4906147a9565b60405180910390fd5b5050565b81610d7960008054906101000a900473ffffffffffffffffffffffffffffffffffffffff1673ffffffffffffffffffffffffffffffffffffffff1663d6f343c5336040518263ffffffff1660e01b8152600401610d1e9190613d2d565b60006040518083038186803b158015610d3657600080fd5b505afa158015610d4a573d6000803e3d6000fd5b505050506040513d6000823e3d601f19601f82011682018060405250810190610d7391906147c9565b826130dc565b610db8576040517f08c379a0000000000000000000000000000000000000000000000000000000008152600401610daf9061485e565b60405180910390fd5b833373ffffffffffffffffffffffffffffffffffffffff1660008054906101000a900473ffffffffffffffffffffffffffffffffffffffff1673ffffffffffffffffffffffffffffffffffffffff16633b8a8a16836040518263ffffffff1660e01b8152600401610e29919061487e565b60206040518083038186803b158015610e4157600080fd5b505afa158015610e55573d6000803e3d6000fd5b505050506040513d601f19601f82011682018060405250810190610e7991906148ae565b73ffffffffffffffffffffffffffffffffffffffff1614610ecf576040517f08c379a0000000000000000000000000000000000000000000000000000000008152600401610ec690614927565b60405180910390fd5b8460008054906101000a900473ffffffffffffffffffffffffffffffffffffffff1673ffffffffffffffffffffffffffffffffffffffff16638cbd7834826040518263ffffffff1660e01b8152600401610f29919061487e565b60206040518083038186803b158015610f4157600080fd5b505afa158015610f55573d6000803e3d6000fd5b505050506040513d601f19601f82011682018060405250810190610f799190613b97565b15610fb9576040517f08c379a0000000000000000000000000000000000000000000000000000000008152600401610fb090614993565b60405180910390fd5b60008060009054906101000a900473ffffffffffffffffffffffffffffffffffffffff1673ffffffffffffffffffffffffffffffffffffffff16632f72af34886040518263ffffffff1660e01b8152600401611015919061487e565b60006040518083038186803b15801561102d57600080fd5b505afa158015611041573d6000803e3d6000fd5b505050506040513d6000823e3d601f19601f8201168201806040525081019061106a9190614d0a565b905060018081111561107f5761107e613c41565b5b816101400151600181111561109757611096613c41565b5b146110d7576040517f08c379a00000000000000000000000000000000000000000000000000000000081526004016110ce90614d9f565b60405180910390fd5b428160a001511161111d576040517f08c379a000000000000000000000000000000000000000000000000000000000815260040161111490614e0b565b60405180910390fd5b60008054906101000a900473ffffffffffffffffffffffffffffffffffffffff1673ffffffffffffffffffffffffffffffffffffffff16635a6167c96040518163ffffffff1660e01b815260040160206040518083038186803b15801561118357600080fd5b505afa158015611197573d6000803e3d6000fd5b505050506040513d601f19601f820116820180604052508101906111bb9190613c85565b8551826101200151516111ce9190614e2b565b111561120f576040517f08c379a000000000000000000000000000000000000000000000000000000000815260040161120690614ecd565b60405180910390fd5b60005b85518110156113d95760006001905086828151811061123457611233614eed565b5b602002602001015173ffffffffffffffffffffffffffffffffffffffff163373ffffffffffffffffffffffffffffffffffffffff16141561127557506113c6565b600083610120015151905060005b818110156113145788848151811061129e5761129d614eed565b5b602002602001015173ffffffffffffffffffffffffffffffffffffffff1685610120015182815181106112d4576112d3614eed565b5b602002602001015173ffffffffffffffffffffffffffffffffffffffff1614156113015760009250611314565b808061130c90614f1c565b915050611283565b5081156113c35760008054906101000a900473ffffffffffffffffffffffffffffffffffffffff1673ffffffffffffffffffffffffffffffffffffffff1663d2f1c77c8b8a868151811061136b5761136a614eed565b5b60200260200101516040518363ffffffff1660e01b8152600401611390929190614f65565b600060405180830381600087803b1580156113aa57600080fd5b505af11580156113be573d6000803e3d6000fd5b505050505b50505b80806113d190614f1c565b915050611212565b5050505050505050565b8161149b60008054906101000a900473ffffffffffffffffffffffffffffffffffffffff1673ffffffffffffffffffffffffffffffffffffffff1663d6f343c5336040518263ffffffff1660e01b81526004016114409190613d2d565b60006040518083038186803b15801561145857600080fd5b505afa15801561146c573d6000803e3d6000fd5b505050506040513d6000823e3d601f19601f8201168201806040525081019061149591906147c9565b826130dc565b6114da576040517f08c379a00000000000000000000000000000000000000000000000000000000081526004016114d19061485e565b60405180910390fd5b813373ffffffffffffffffffffffffffffffffffffffff1660008054906101000a900473ffffffffffffffffffffffffffffffffffffffff1673ffffffffffffffffffffffffffffffffffffffff16633b8a8a16836040518263ffffffff1660e01b815260040161154b919061487e565b60206040518083038186803b15801561156357600080fd5b505afa158015611577573d6000803e3d6000fd5b505050506040513d601f19601f8201168201806040525081019061159b91906148ae565b73ffffffffffffffffffffffffffffffffffffffff16146115f1576040517f08c379a00000000000000000000000000000000000000000000000000000000081526004016115e890614927565b60405180910390fd5b8260008054906101000a900473ffffffffffffffffffffffffffffffffffffffff1673ffffffffffffffffffffffffffffffffffffffff16638cbd7834826040518263ffffffff1660e01b815260040161164b919061487e565b60206040518083038186803b15801561166357600080fd5b505afa158015611677573d6000803e3d6000fd5b505050506040513d601f19601f8201168201806040525081019061169b9190613b97565b156116db576040517f08c379a00000000000000000000000000000000000000000000000000000000081526004016116d290614993565b60405180910390fd5b60008060009054906101000a900473ffffffffffffffffffffffffffffffffffffffff1673ffffffffffffffffffffffffffffffffffffffff16632f72af34866040518263ffffffff1660e01b8152600401611737919061487e565b60006040518083038186803b15801561174f57600080fd5b505afa158015611763573d6000803e3d6000fd5b505050506040513d6000823e3d601f19601f8201168201806040525081019061178c9190614d0a565b9050600081610180015151146117d7576040517f08c379a00000000000000000000000000000000000000000000000000000000081526004016117ce90614fda565b60405180910390fd5b60008054906101000a900473ffffffffffffffffffffffffffffffffffffffff1673ffffffffffffffffffffffffffffffffffffffff1663a0b437df8660016040518363ffffffff1660e01b8152600401611833929190615009565b600060405180830381600087803b15801561184d57600080fd5b505af1158015611861573d6000803e3d6000fd5b5050505060008054906101000a900473ffffffffffffffffffffffffffffffffffffffff1673ffffffffffffffffffffffffffffffffffffffff166384f816e586426040518363ffffffff1660e01b81526004016118c0929190615032565b600060405180830381600087803b1580156118da57600080fd5b505af11580156118ee573d6000803e3d6000fd5b50505050505050505050565b60008054906101000a900473ffffffffffffffffffffffffffffffffffffffff1673ffffffffffffffffffffffffffffffffffffffff166390287940846040518263ffffffff1660e01b8152600401611953919061505b565b60206040518083038186803b15801561196b57600080fd5b505afa15801561197f573d6000803e3d6000fd5b505050506040513d601f19601f820116820180604052508101906119a39190613b97565b156119e3576040517f08c379a00000000000000000000000000000000000000000000000000000000081526004016119da906150c9565b60405180910390fd5b60008054906101000a900473ffffffffffffffffffffffffffffffffffffffff1673ffffffffffffffffffffffffffffffffffffffff1663215cf05d6040518163ffffffff1660e01b815260040160206040518083038186803b158015611a4957600080fd5b505afa158015611a5d573d6000803e3d6000fd5b505050506040513d601f19601f82011682018060405250810190611a819190613c85565b341015611ac3576040517f08c379a0000000000000000000000000000000000000000000000000000000008152600401611aba90613cfe565b60405180910390fd5b60008060009054906101000a900473ffffffffffffffffffffffffffffffffffffffff1673ffffffffffffffffffffffffffffffffffffffff1663d6f343c5336040518263ffffffff1660e01b8152600401611b1f9190613d2d565b60006040518083038186803b158015611b3757600080fd5b505afa158015611b4b573d6000803e3d6000fd5b505050506040513d6000823e3d601f19601f82011682018060405250810190611b7491906147c9565b90506000815114611bba576040517f08c379a0000000000000000000000000000000000000000000000000000000008152600401611bb190615135565b60405180910390fd5b60008054906101000a900473ffffffffffffffffffffffffffffffffffffffff1673ffffffffffffffffffffffffffffffffffffffff1663e31fc5bf338686866040518563ffffffff1660e01b8152600401611c199493929190615155565b600060405180830381600087803b158015611c3357600080fd5b505af1158015611c47573d6000803e3d6000fd5b5050505050505050565b600160009054906101000a900473ffffffffffffffffffffffffffffffffffffffff1673ffffffffffffffffffffffffffffffffffffffff163373ffffffffffffffffffffffffffffffffffffffff1614611ce1576040517f08c379a0000000000000000000000000000000000000000000000000000000008152600401611cd8906146f7565b60405180910390fd5b600160009054906101000a900473ffffffffffffffffffffffffffffffffffffffff1673ffffffffffffffffffffffffffffffffffffffff16ff5b82518451148015611d2e575081518351145b8015611d3b575080518251145b611d7a576040517f08c379a0000000000000000000000000000000000000000000000000000000008152600401611d71906151fb565b60405180910390fd5b60008060009054906101000a900473ffffffffffffffffffffffffffffffffffffffff1673ffffffffffffffffffffffffffffffffffffffff16632f72af34876040518263ffffffff1660e01b8152600401611dd6919061487e565b60006040518083038186803b158015611dee57600080fd5b505afa158015611e02573d6000803e3d6000fd5b505050506040513d6000823e3d601f19601f82011682018060405250810190611e2b9190614d0a565b90506000816101a0015173ffffffffffffffffffffffffffffffffffffffff163373ffffffffffffffffffffffffffffffffffffffff1614905080611f345760008083610120015151905060005b81811015611ef0578461012001518181518110611e9957611e98614eed565b5b602002602001015173ffffffffffffffffffffffffffffffffffffffff163373ffffffffffffffffffffffffffffffffffffffff161415611edd5760019250611ef0565b8080611ee890614f1c565b915050611e79565b5081611f31576040517f08c379a0000000000000000000000000000000000000000000000000000000008152600401611f2890615267565b60405180910390fd5b50505b6000805b86518110156121a8576000888281518110611f5657611f55614eed565b5b602002602001015190506000600a811115611f7457611f73613c41565b5b60ff168160ff161480611f9f57506001600a811115611f9657611f95613c41565b5b60ff168160ff16145b80611fc257506002600a811115611fb957611fb8613c41565b5b60ff168160ff16145b9250831561200f578261200a576040517f08c379a0000000000000000000000000000000000000000000000000000000008152600401612001906152d3565b60405180910390fd5b612097565b8215612050576040517f08c379a00000000000000000000000000000000000000000000000000000000081526004016120479061533f565b60405180910390fd5b428560a0015111612096576040517f08c379a000000000000000000000000000000000000000000000000000000000815260040161208d90614e0b565b60405180910390fd5b5b60008054906101000a900473ffffffffffffffffffffffffffffffffffffffff1673ffffffffffffffffffffffffffffffffffffffff1663d88f15a78b8b85815181106120e7576120e6614eed565b5b60200260200101518b868151811061210257612101614eed565b5b6020026020010151338c888151811061211e5761211d614eed565b5b60200260200101518c898151811061213957612138614eed565b5b60200260200101516040518763ffffffff1660e01b81526004016121629695949392919061535f565b600060405180830381600087803b15801561217c57600080fd5b505af1158015612190573d6000803e3d6000fd5b505050505080806121a090614f1c565b915050611f38565b505050505050505050565b8060008054906101000a900473ffffffffffffffffffffffffffffffffffffffff1673ffffffffffffffffffffffffffffffffffffffff16638cbd7834826040518263ffffffff1660e01b815260040161220d919061487e565b60206040518083038186803b15801561222557600080fd5b505afa158015612239573d6000803e3d6000fd5b505050506040513d601f19601f8201168201806040525081019061225d9190613b97565b1561229d576040517f08c379a000000000000000000000000000000000000000000000000000000000815260040161229490614993565b60405180910390fd5b60008060009054906101000a900473ffffffffffffffffffffffffffffffffffffffff1673ffffffffffffffffffffffffffffffffffffffff16632f72af34846040518263ffffffff1660e01b81526004016122f9919061487e565b60006040518083038186803b15801561231157600080fd5b505afa158015612325573d6000803e3d6000fd5b505050506040513d6000823e3d601f19601f8201168201806040525081019061234e9190614d0a565b905060008054906101000a900473ffffffffffffffffffffffffffffffffffffffff1673ffffffffffffffffffffffffffffffffffffffff1663be38013b6040518163ffffffff1660e01b815260040160206040518083038186803b1580156123b657600080fd5b505afa1580156123ca573d6000803e3d6000fd5b505050506040513d601f19601f820116820180604052508101906123ee9190613c85565b341015612430576040517f08c379a000000000000000000000000000000000000000000000000000000000815260040161242790615421565b60405180910390fd5b6000600181111561244457612443613c41565b5b816101400151600181111561245c5761245b613c41565b5b1461249c576040517f08c379a00000000000000000000000000000000000000000000000000000000081526004016124939061548d565b60405180910390fd5b428160a00151116124e2576040517f08c379a00000000000000000000000000000000000000000000000000000000081526004016124d990614e0b565b60405180910390fd5b806101a0015173ffffffffffffffffffffffffffffffffffffffff163373ffffffffffffffffffffffffffffffffffffffff161415612556576040517f08c379a000000000000000000000000000000000000000000000000000000000815260040161254d906154f9565b60405180910390fd5b60008054906101000a900473ffffffffffffffffffffffffffffffffffffffff1673ffffffffffffffffffffffffffffffffffffffff1663ecbb7b4a6040518163ffffffff1660e01b815260040160206040518083038186803b1580156125bc57600080fd5b505afa1580156125d0573d6000803e3d6000fd5b505050506040513d601f19601f820116820180604052508101906125f49190613c85565b816101200151511061263b576040517f08c379a000000000000000000000000000000000000000000000000000000000815260040161263290615565565b60405180910390fd5b600081610120015151905060005b818110156126f2573373ffffffffffffffffffffffffffffffffffffffff1683610120015182815181106126805761267f614eed565b5b602002602001015173ffffffffffffffffffffffffffffffffffffffff1614156126df576040517f08c379a00000000000000000000000000000000000000000000000000000000081526004016126d6906155d1565b60405180910390fd5b80806126ea90614f1c565b915050612649565b5060008054906101000a900473ffffffffffffffffffffffffffffffffffffffff1673ffffffffffffffffffffffffffffffffffffffff1663d2f1c77c85336040518363ffffffff1660e01b815260040161274e929190614f65565b600060405180830381600087803b15801561276857600080fd5b505af115801561277c573d6000803e3d6000fd5b5050505050505050565b8161283e60008054906101000a900473ffffffffffffffffffffffffffffffffffffffff1673ffffffffffffffffffffffffffffffffffffffff1663d6f343c5336040518263ffffffff1660e01b81526004016127e39190613d2d565b60006040518083038186803b1580156127fb57600080fd5b505afa15801561280f573d6000803e3d6000fd5b505050506040513d6000823e3d601f19601f8201168201806040525081019061283891906147c9565b826130dc565b61287d576040517f08c379a00000000000000000000000000000000000000000000000000000000081526004016128749061485e565b60405180910390fd5b833373ffffffffffffffffffffffffffffffffffffffff1660008054906101000a900473ffffffffffffffffffffffffffffffffffffffff1673ffffffffffffffffffffffffffffffffffffffff16633b8a8a16836040518263ffffffff1660e01b81526004016128ee919061487e565b60206040518083038186803b15801561290657600080fd5b505afa15801561291a573d6000803e3d6000fd5b505050506040513d601f19601f8201168201806040525081019061293e91906148ae565b73ffffffffffffffffffffffffffffffffffffffff1614612994576040517f08c379a000000000000000000000000000000000000000000000000000000000815260040161298b90614927565b60405180910390fd5b8460008054906101000a900473ffffffffffffffffffffffffffffffffffffffff1673ffffffffffffffffffffffffffffffffffffffff16638cbd7834826040518263ffffffff1660e01b81526004016129ee919061487e565b60206040518083038186803b158015612a0657600080fd5b505afa158015612a1a573d6000803e3d6000fd5b505050506040513d601f19601f82011682018060405250810190612a3e9190613b97565b15612a7e576040517f08c379a0000000000000000000000000000000000000000000000000000000008152600401612a7590614993565b60405180910390fd5b60008060009054906101000a900473ffffffffffffffffffffffffffffffffffffffff1673ffffffffffffffffffffffffffffffffffffffff16632f72af34886040518263ffffffff1660e01b8152600401612ada919061487e565b60006040518083038186803b158015612af257600080fd5b505afa158015612b06573d6000803e3d6000fd5b505050506040513d6000823e3d601f19601f82011682018060405250810190612b2f9190614d0a565b905060008161018001515114612b7a576040517f08c379a0000000000000000000000000000000000000000000000000000000008152600401612b7190614fda565b60405180910390fd5b8060e0015115612bbf576040517f08c379a0000000000000000000000000000000000000000000000000000000008152600401612bb690614993565b60405180910390fd5b60008161016001515190506000865190506000821480612bdf5750600182145b8015612bec575060018751145b80612c03575060028210158015612c0257508181145b5b612c42576040517f08c379a0000000000000000000000000000000000000000000000000000000008152600401612c399061563d565b60405180910390fd5b8260c00151421015612c89576040517f08c379a0000000000000000000000000000000000000000000000000000000008152600401612c80906156a9565b60405180910390fd5b60005b81811015612ec6576000888281518110612ca957612ca8614eed565b5b602002602001015190503373ffffffffffffffffffffffffffffffffffffffff168173ffffffffffffffffffffffffffffffffffffffff161415612d22576040517f08c379a0000000000000000000000000000000000000000000000000000000008152600401612d1990615715565b60405180910390fd5b612d3181866101200151613148565b612d70576040517f08c379a0000000000000000000000000000000000000000000000000000000008152600401612d6790615781565b60405180910390fd5b600260008273ffffffffffffffffffffffffffffffffffffffff1673ffffffffffffffffffffffffffffffffffffffff16815260200190815260200160002060009054906101000a900460ff16612eb2576001600260008373ffffffffffffffffffffffffffffffffffffffff1673ffffffffffffffffffffffffffffffffffffffff16815260200190815260200160002060006101000a81548160ff021916908315150217905550600073ffffffffffffffffffffffffffffffffffffffff168173ffffffffffffffffffffffffffffffffffffffff1614612eb1576004819080600181540180825580915050600190039060005260206000200160009091909190916101000a81548173ffffffffffffffffffffffffffffffffffffffff021916908373ffffffffffffffffffffffffffffffffffffffff1602179055505b5b508080612ebe90614f1c565b915050612c8c565b5060008054906101000a900473ffffffffffffffffffffffffffffffffffffffff1673ffffffffffffffffffffffffffffffffffffffff1663f8195d6c8a896040518363ffffffff1660e01b8152600401612f22929190615810565b600060405180830381600087803b158015612f3c57600080fd5b505af1158015612f50573d6000803e3d6000fd5b5050505060008054906101000a900473ffffffffffffffffffffffffffffffffffffffff1673ffffffffffffffffffffffffffffffffffffffff1663f0174dc48a60046040518363ffffffff1660e01b8152600401612fb092919061592c565b600060405180830381600087803b158015612fca57600080fd5b505af1158015612fde573d6000803e3d6000fd5b5050505060036004908054612ff4929190613244565b5060005b81811015613085576000600260008a848151811061301957613018614eed565b5b602002602001015173ffffffffffffffffffffffffffffffffffffffff1673ffffffffffffffffffffffffffffffffffffffff16815260200190815260200160002060006101000a81548160ff021916908315150217905550808061307d90614f1c565b915050612ff8565b50505050505050505050565b60008083805190602001209050600081846040516020016130b39291906159c5565b604051602081830303815290604052905060008180519060200120905080935050505092915050565b600081518351146130f05760009050613142565b816040516020016131019190615a2d565b60405160208183030381529060405280519060200120836040516020016131289190615a2d565b604051602081830303815290604052805190602001201490505b92915050565b6000808251141561318a57600073ffffffffffffffffffffffffffffffffffffffff168373ffffffffffffffffffffffffffffffffffffffff1614905061323e565b60005b8251811015613238578281815181106131a9576131a8614eed565b5b602002602001015173ffffffffffffffffffffffffffffffffffffffff168473ffffffffffffffffffffffffffffffffffffffff1614806132165750600073ffffffffffffffffffffffffffffffffffffffff168473ffffffffffffffffffffffffffffffffffffffff16145b1561322557600191505061323e565b808061323090614f1c565b91505061318d565b50600090505b92915050565b8280548282559060005260206000209081019282156132855760005260206000209182015b82811115613284578254825591600101919060010190613269565b5b5090506132929190613296565b5090565b5b808211156132af576000816000905550600101613297565b5090565b6000604051905090565b600080fd5b600080fd5b600080fd5b600080fd5b6000601f19601f8301169050919050565b7f4e487b7100000000000000000000000000000000000000000000000000000000600052604160045260246000fd5b61331a826132d1565b810181811067ffffffffffffffff82111715613339576133386132e2565b5b80604052505050565b600061334c6132b3565b90506133588282613311565b919050565b600067ffffffffffffffff821115613378576133776132e2565b5b613381826132d1565b9050602081019050919050565b82818337600083830152505050565b60006133b06133ab8461335d565b613342565b9050828152602081018484840111156133cc576133cb6132cc565b5b6133d784828561338e565b509392505050565b600082601f8301126133f4576133f36132c7565b5b813561340484826020860161339d565b91505092915050565b6000819050919050565b6134208161340d565b811461342b57600080fd5b50565b60008135905061343d81613417565b92915050565b6002811061345057600080fd5b50565b60008135905061346281613443565b92915050565b600067ffffffffffffffff821115613483576134826132e2565b5b602082029050602081019050919050565b600080fd5b60006134ac6134a784613468565b613342565b905080838252602082019050602084028301858111156134cf576134ce613494565b5b835b8181101561351657803567ffffffffffffffff8111156134f4576134f36132c7565b5b80860161350189826133df565b855260208501945050506020810190506134d1565b5050509392505050565b600082601f830112613535576135346132c7565b5b8135613545848260208601613499565b91505092915050565b600080600080600080600080610100898b03121561356f5761356e6132bd565b5b600089013567ffffffffffffffff81111561358d5761358c6132c2565b5b6135998b828c016133df565b985050602089013567ffffffffffffffff8111156135ba576135b96132c2565b5b6135c68b828c016133df565b975050604089013567ffffffffffffffff8111156135e7576135e66132c2565b5b6135f38b828c016133df565b96505060606136048b828c0161342e565b95505060806136158b828c0161342e565b94505060a06136268b828c0161342e565b93505060c06136378b828c01613453565b92505060e089013567ffffffffffffffff811115613658576136576132c2565b5b6136648b828c01613520565b9150509295985092959890939650565b600073ffffffffffffffffffffffffffffffffffffffff82169050919050565b600061369f82613674565b9050919050565b6136af81613694565b81146136ba57600080fd5b50565b6000813590506136cc816136a6565b92915050565b6000602082840312156136e8576136e76132bd565b5b60006136f6848285016136bd565b91505092915050565b600067ffffffffffffffff82111561371a576137196132e2565b5b602082029050602081019050919050565b600061373e613739846136ff565b613342565b9050808382526020820190506020840283018581111561376157613760613494565b5b835b8181101561378a578061377688826136bd565b845260208401935050602081019050613763565b5050509392505050565b600082601f8301126137a9576137a86132c7565b5b81356137b984826020860161372b565b91505092915050565b6000806000606084860312156137db576137da6132bd565b5b60006137e98682870161342e565b935050602084013567ffffffffffffffff81111561380a576138096132c2565b5b613816868287016133df565b925050604084013567ffffffffffffffff811115613837576138366132c2565b5b61384386828701613794565b9150509250925092565b60008060408385031215613864576138636132bd565b5b600083013567ffffffffffffffff811115613882576138816132c2565b5b61388e858286016133df565b925050602061389f8582860161342e565b9150509250929050565b6000806000606084860312156138c2576138c16132bd565b5b600084013567ffffffffffffffff8111156138e0576138df6132c2565b5b6138ec868287016133df565b935050602084013567ffffffffffffffff81111561390d5761390c6132c2565b5b613919868287016133df565b925050604084013567ffffffffffffffff81111561393a576139396132c2565b5b613946868287016133df565b9150509250925092565b600067ffffffffffffffff82111561396b5761396a6132e2565b5b602082029050602081019050919050565b600061398f61398a84613950565b613342565b905080838252602082019050602084028301858111156139b2576139b1613494565b5b835b818110156139db57806139c7888261342e565b8452602084019350506020810190506139b4565b5050509392505050565b600082601f8301126139fa576139f96132c7565b5b8135613a0a84826020860161397c565b91505092915050565b600080600080600060a08688031215613a2f57613a2e6132bd565b5b6000613a3d8882890161342e565b955050602086013567ffffffffffffffff811115613a5e57613a5d6132c2565b5b613a6a888289016139e5565b945050604086013567ffffffffffffffff811115613a8b57613a8a6132c2565b5b613a9788828901613520565b935050606086013567ffffffffffffffff811115613ab857613ab76132c2565b5b613ac488828901613520565b925050608086013567ffffffffffffffff811115613ae557613ae46132c2565b5b613af188828901613520565b9150509295509295909350565b600060208284031215613b1457613b136132bd565b5b6000613b228482850161342e565b91505092915050565b6000819050919050565b613b3e81613b2b565b82525050565b6000602082019050613b596000830184613b35565b92915050565b60008115159050919050565b613b7481613b5f565b8114613b7f57600080fd5b50565b600081519050613b9181613b6b565b92915050565b600060208284031215613bad57613bac6132bd565b5b6000613bbb84828501613b82565b91505092915050565b600082825260208201905092915050565b7f72667069645f616c72656164795f74616b656e00000000000000000000000000600082015250565b6000613c0b601383613bc4565b9150613c1682613bd5565b602082019050919050565b60006020820190508181036000830152613c3a81613bfe565b9050919050565b7f4e487b7100000000000000000000000000000000000000000000000000000000600052602160045260246000fd5b600081519050613c7f81613417565b92915050565b600060208284031215613c9b57613c9a6132bd565b5b6000613ca984828501613c70565b91505092915050565b7f496e73756666696369656e745f7061796d656e74000000000000000000000000600082015250565b6000613ce8601483613bc4565b9150613cf382613cb2565b602082019050919050565b60006020820190508181036000830152613d1781613cdb565b9050919050565b613d2781613694565b82525050565b6000602082019050613d426000830184613d1e565b92915050565b600080fd5b600080fd5b60005b83811015613d70578082015181840152602081019050613d55565b83811115613d7f576000848401525b50505050565b6000613d98613d938461335d565b613342565b905082815260208101848484011115613db457613db36132cc565b5b613dbf848285613d52565b509392505050565b600082601f830112613ddc57613ddb6132c7565b5b8151613dec848260208601613d85565b91505092915050565b600061ffff82169050919050565b613e0c81613df5565b8114613e1757600080fd5b50565b600081519050613e2981613e03565b92915050565b6000613e42613e3d84613950565b613342565b90508083825260208201905060208402830185811115613e6557613e64613494565b5b835b81811015613e8e5780613e7a8882613c70565b845260208401935050602081019050613e67565b5050509392505050565b600082601f830112613ead57613eac6132c7565b5b8151613ebd848260208601613e2f565b91505092915050565b600060c08284031215613edc57613edb613d48565b5b613ee660c0613342565b9050600082015167ffffffffffffffff811115613f0657613f05613d4d565b5b613f1284828501613dc7565b600083015250602082015167ffffffffffffffff811115613f3657613f35613d4d565b5b613f4284828501613dc7565b602083015250604082015167ffffffffffffffff811115613f6657613f65613d4d565b5b613f7284828501613dc7565b6040830152506060613f8684828501613e1a565b606083015250608082015167ffffffffffffffff811115613faa57613fa9613d4d565b5b613fb684828501613e98565b60808301525060a082015167ffffffffffffffff811115613fda57613fd9613d4d565b5b613fe684828501613e98565b60a08301525092915050565b600060208284031215614008576140076132bd565b5b600082015167ffffffffffffffff811115614026576140256132c2565b5b61403284828501613ec6565b91505092915050565b7f616464726573735f6e6f745f61646d696e000000000000000000000000000000600082015250565b6000614071601183613bc4565b915061407c8261403b565b602082019050919050565b600060208201905081810360008301526140a081614064565b9050919050565b7f4e487b7100000000000000000000000000000000000000000000000000000000600052601160045260246000fd5b60006140e18261340d565b91506140ec8361340d565b9250828210156140ff576140fe6140a7565b5b828203905092915050565b7f6f70656e646174655f626568696e645f746f6461790000000000000000000000600082015250565b6000614140601583613bc4565b915061414b8261410a565b602082019050919050565b6000602082019050818103600083015261416f81614133565b9050919050565b7f696e697469616c5f646174655f77726f6e670000000000000000000000000000600082015250565b60006141ac601283613bc4565b91506141b782614176565b602082019050919050565b600060208201905081810360008301526141db8161419f565b9050919050565b7f726563656976696e675f646174655f77726f6e67000000000000000000000000600082015250565b6000614218601483613bc4565b9150614223826141e2565b602082019050919050565b600060208201905081810360008301526142478161420b565b9050919050565b6142578161340d565b82525050565b600081519050919050565b600082825260208201905092915050565b60006142848261425d565b61428e8185614268565b935061429e818560208601613d52565b6142a7816132d1565b840191505092915050565b6142bb8161340d565b82525050565b6142ca81613b5f565b82525050565b600081519050919050565b600082825260208201905092915050565b6000819050602082019050919050565b61430581613694565b82525050565b600061431783836142fc565b60208301905092915050565b6000602082019050919050565b600061433b826142d0565b61434581856142db565b9350614350836142ec565b8060005b83811015614381578151614368888261430b565b975061437383614323565b925050600181019050614354565b5085935050505092915050565b6002811061439f5761439e613c41565b5b50565b60008190506143b08261438e565b919050565b60006143c0826143a2565b9050919050565b6143d0816143b5565b82525050565b600081519050919050565b600082825260208201905092915050565b6000819050602082019050919050565b600061440e8383614279565b905092915050565b6000602082019050919050565b600061442e826143d6565b61443881856143e1565b93508360208202850161444a856143f2565b8060005b8581101561448657848403895281516144678582614402565b945061447283614416565b925060208a0199505060018101905061444e565b50829750879550505050505092915050565b60006101c08301600083015184820360008601526144b68282614279565b915050602083015184820360208601526144d08282614279565b91505060408301516144e560408601826142b2565b50606083015184820360608601526144fd8282614279565b915050608083015161451260808601826142b2565b5060a083015161452560a08601826142b2565b5060c083015161453860c08601826142b2565b5060e083015161454b60e08601826142c1565b506101008301516145606101008601826142b2565b5061012083015184820361012086015261457a8282614330565b9150506101408301516145916101408601826143c7565b506101608301518482036101608601526145ab8282614423565b9150506101808301518482036101808601526145c78282614330565b9150506101a08301516145de6101a08601826142fc565b508091505092915050565b60006040820190506145fe600083018561424e565b81810360208301526146108184614498565b90509392505050565b600060408201905061462e6000830185613d1e565b61463b602083018461424e565b9392505050565b600061464d8261425d565b6146578185613bc4565b9350614667818560208601613d52565b614670816132d1565b840191505092915050565b6000604082019050614690600083018561424e565b81810360208301526146a28184614642565b90509392505050565b7f4f6e6c795f6f776e65725f616c6c6f7765640000000000000000000000000000600082015250565b60006146e1601283613bc4565b91506146ec826146ab565b602082019050919050565b60006020820190508181036000830152614710816146d4565b9050919050565b600081905092915050565b50565b6000614732600083614717565b915061473d82614722565b600082019050919050565b600061475382614725565b9150819050919050565b7f6661696c65645f77697468647261770000000000000000000000000000000000600082015250565b6000614793600f83613bc4565b915061479e8261475d565b602082019050919050565b600060208201905081810360008301526147c281614786565b9050919050565b6000602082840312156147df576147de6132bd565b5b600082015167ffffffffffffffff8111156147fd576147fc6132c2565b5b61480984828501613dc7565b91505092915050565b7f4f6e6c795f61646d696e5f63616e5f706572666f726d00000000000000000000600082015250565b6000614848601683613bc4565b915061485382614812565b602082019050919050565b600060208201905081810360008301526148778161483b565b9050919050565b6000602082019050614893600083018461424e565b92915050565b6000815190506148a8816136a6565b92915050565b6000602082840312156148c4576148c36132bd565b5b60006148d284828501614899565b91505092915050565b7f4f6e6c795f6973737565725f63616e5f706572666f726d000000000000000000600082015250565b6000614911601783613bc4565b915061491c826148db565b602082019050919050565b6000602082019050818103600083015261494081614904565b9050919050565b7f616c72656164795f63616e63656c656400000000000000000000000000000000600082015250565b600061497d601083613bc4565b915061498882614947565b602082019050919050565b600060208201905081810360008301526149ac81614970565b9050919050565b60006149c66149c1846136ff565b613342565b905080838252602082019050602084028301858111156149e9576149e8613494565b5b835b81811015614a1257806149fe8882614899565b8452602084019350506020810190506149eb565b5050509392505050565b600082601f830112614a3157614a306132c7565b5b8151614a418482602086016149b3565b91505092915050565b600081519050614a5981613443565b92915050565b6000614a72614a6d84613468565b613342565b90508083825260208201905060208402830185811115614a9557614a94613494565b5b835b81811015614adc57805167ffffffffffffffff811115614aba57614ab96132c7565b5b808601614ac78982613dc7565b85526020850194505050602081019050614a97565b5050509392505050565b600082601f830112614afb57614afa6132c7565b5b8151614b0b848260208601614a5f565b91505092915050565b60006101c08284031215614b2b57614b2a613d48565b5b614b366101c0613342565b9050600082015167ffffffffffffffff811115614b5657614b55613d4d565b5b614b6284828501613dc7565b600083015250602082015167ffffffffffffffff811115614b8657614b85613d4d565b5b614b9284828501613dc7565b6020830152506040614ba684828501613c70565b604083015250606082015167ffffffffffffffff811115614bca57614bc9613d4d565b5b614bd684828501613dc7565b6060830152506080614bea84828501613c70565b60808301525060a0614bfe84828501613c70565b60a08301525060c0614c1284828501613c70565b60c08301525060e0614c2684828501613b82565b60e083015250610100614c3b84828501613c70565b6101008301525061012082015167ffffffffffffffff811115614c6157614c60613d4d565b5b614c6d84828501614a1c565b61012083015250610140614c8384828501614a4a565b6101408301525061016082015167ffffffffffffffff811115614ca957614ca8613d4d565b5b614cb584828501614ae6565b6101608301525061018082015167ffffffffffffffff811115614cdb57614cda613d4d565b5b614ce784828501614a1c565b610180830152506101a0614cfd84828501614899565b6101a08301525092915050565b600060208284031215614d2057614d1f6132bd565b5b600082015167ffffffffffffffff811115614d3e57614d3d6132c2565b5b614d4a84828501614b14565b91505092915050565b7f77726f6e675f636f6e746573745f747970650000000000000000000000000000600082015250565b6000614d89601283613bc4565b9150614d9482614d53565b602082019050919050565b60006020820190508181036000830152614db881614d7c565b9050919050565b7f656e645f726563656976696e675f726561636865640000000000000000000000600082015250565b6000614df5601583613bc4565b9150614e0082614dbf565b602082019050919050565b60006020820190508181036000830152614e2481614de8565b9050919050565b6000614e368261340d565b9150614e418361340d565b9250827fffffffffffffffffffffffffffffffffffffffffffffffffffffffffffffffff03821115614e7657614e756140a7565b5b828201905092915050565b7f746f6f5f6d616e795f6775657374730000000000000000000000000000000000600082015250565b6000614eb7600f83613bc4565b9150614ec282614e81565b602082019050919050565b60006020820190508181036000830152614ee681614eaa565b9050919050565b7f4e487b7100000000000000000000000000000000000000000000000000000000600052603260045260246000fd5b6000614f278261340d565b91507fffffffffffffffffffffffffffffffffffffffffffffffffffffffffffffffff821415614f5a57614f596140a7565b5b600182019050919050565b6000604082019050614f7a600083018561424e565b614f876020830184613d1e565b9392505050565b7f7266705f616c72656164795f6177617264656400000000000000000000000000600082015250565b6000614fc4601383613bc4565b9150614fcf82614f8e565b602082019050919050565b60006020820190508181036000830152614ff381614fb7565b9050919050565b61500381613b5f565b82525050565b600060408201905061501e600083018561424e565b61502b6020830184614ffa565b9392505050565b6000604082019050615047600083018561424e565b615054602083018461424e565b9392505050565b600060208201905081810360008301526150758184614642565b905092915050565b7f69645f616c72656164795f657869737473000000000000000000000000000000600082015250565b60006150b3601183613bc4565b91506150be8261507d565b602082019050919050565b600060208201905081810360008301526150e2816150a6565b9050919050565b7f616464726573735f616c72656164795f61646d696e5f6f665f636f6d70616e79600082015250565b600061511f602083613bc4565b915061512a826150e9565b602082019050919050565b6000602082019050818103600083015261514e81615112565b9050919050565b600060808201905061516a6000830187613d1e565b818103602083015261517c8186614642565b905081810360408301526151908185614642565b905081810360608301526151a48184614642565b905095945050505050565b7f696e7075745f61727261795f6c656e677468735f6e6f5f6d6174636800000000600082015250565b60006151e5601c83613bc4565b91506151f0826151af565b602082019050919050565b60006020820190508181036000830152615214816151d8565b9050919050565b7f6e6f745f7061727469636970616e740000000000000000000000000000000000600082015250565b6000615251600f83613bc4565b915061525c8261521b565b602082019050919050565b6000602082019050818103600083015261528081615244565b9050919050565b7f6973737565725f6261645f646f63747970650000000000000000000000000000600082015250565b60006152bd601283613bc4565b91506152c882615287565b602082019050919050565b600060208201905081810360008301526152ec816152b0565b9050919050565b7f7061727469636970616e745f6261645f646f6374797065000000000000000000600082015250565b6000615329601783613bc4565b9150615334826152f3565b602082019050919050565b600060208201905081810360008301526153588161531c565b9050919050565b600060c082019050615374600083018961424e565b615381602083018861424e565b81810360408301526153938187614642565b90506153a26060830186613d1e565b81810360808301526153b48185614642565b905081810360a08301526153c88184614642565b9050979650505050505050565b7f496e73756666696369656e745f7061796d656e745f6665650000000000000000600082015250565b600061540b601883613bc4565b9150615416826153d5565b602082019050919050565b6000602082019050818103600083015261543a816153fe565b9050919050565b7f6e6f745f6f70656e5f74656e6465720000000000000000000000000000000000600082015250565b6000615477600f83613bc4565b915061548282615441565b602082019050919050565b600060208201905081810360008301526154a68161546a565b9050919050565b7f63616e5f6e6f745f72656769737465725f73656c660000000000000000000000600082015250565b60006154e3601583613bc4565b91506154ee826154ad565b602082019050919050565b60006020820190508181036000830152615512816154d6565b9050919050565b7f6d61785f7061727469636970616e74735f726561636865640000000000000000600082015250565b600061554f601883613bc4565b915061555a82615519565b602082019050919050565b6000602082019050818103600083015261557e81615542565b9050919050565b7f616c72656164795f70617274696369706174696e670000000000000000000000600082015250565b60006155bb601583613bc4565b91506155c682615585565b602082019050919050565b600060208201905081810360008301526155ea816155ae565b9050919050565b7f6e6f745f6d61746368696e675f77696e6e657273000000000000000000000000600082015250565b6000615627601483613bc4565b9150615632826155f1565b602082019050919050565b600060208201905081810360008301526156568161561a565b9050919050565b7f656e64646174655f6e6f745f726561636865645f796574000000000000000000600082015250565b6000615693601783613bc4565b915061569e8261565d565b602082019050919050565b600060208201905081810360008301526156c281615686565b9050919050565b7f63616e6e6f745f73656c665f6177617264000000000000000000000000000000600082015250565b60006156ff601183613bc4565b915061570a826156c9565b602082019050919050565b6000602082019050818103600083015261572e816156f2565b9050919050565b7f696e76616c69645f77696e6e6572000000000000000000000000000000000000600082015250565b600061576b600e83613bc4565b915061577682615735565b602082019050919050565b6000602082019050818103600083015261579a8161575e565b9050919050565b600082825260208201905092915050565b60006157bd826142d0565b6157c781856157a1565b93506157d2836142ec565b8060005b838110156158035781516157ea888261430b565b97506157f583614323565b9250506001810190506157d6565b5085935050505092915050565b6000604082019050615825600083018561424e565b818103602083015261583781846157b2565b90509392505050565b600081549050919050565b60008190508160005260206000209050919050565b60008160001c9050919050565b600073ffffffffffffffffffffffffffffffffffffffff82169050919050565b60006158a061589b83615860565b61586d565b9050919050565b60006158b3825461588d565b9050919050565b6000600182019050919050565b60006158d282615840565b6158dc81856157a1565b93506158e78361584b565b8060005b8381101561591f576158fc826158a7565b615906888261430b565b9750615911836158ba565b9250506001810190506158eb565b5085935050505092915050565b6000604082019050615941600083018561424e565b818103602083015261595381846158c7565b90509392505050565b6000819050919050565b61597761597282613b2b565b61595c565b82525050565b60008160601b9050919050565b60006159958261597d565b9050919050565b60006159a78261598a565b9050919050565b6159bf6159ba82613694565b61599c565b82525050565b60006159d18285615966565b6020820191506159e182846159ae565b6014820191508190509392505050565b600081905092915050565b6000615a078261425d565b615a1181856159f1565b9350615a21818560208601613d52565b80840191505092915050565b6000615a3982846159fc565b91508190509291505056fea264697066735822122065c21e4a56e0618f0f29cf55798b16c83e6b9a298fdee9f0cbaa16f0d8a09f3064736f6c63430008090033",
  "linkReferences": {},
  "deployedLinkReferences": {}
}