{
  "_format": "hh-sol-artifact-1",
  "contractName": "pro_ponLogic",
  "sourceName": "contracts/proponLogic.sol",
  "abi": [
    {
      "inputs": [
        {
          "internalType": "address",
          "name": "_dataContractAddress",
          "type": "address"
        }
      ],
      "stateMutability": "payable",
      "type": "constructor"
    },
    {
      "anonymous": false,
      "inputs": [
        {
          "indexed": true,
          "internalType": "address",
          "name": "sender",
          "type": "address"
        },
        {
          "indexed": false,
          "internalType": "uint16",
          "name": "id",
          "type": "uint16"
        },
        {
          "indexed": false,
          "internalType": "string",
          "name": "name",
          "type": "string"
        }
      ],
      "name": "NewRFPCreated",
      "type": "event"
    },
    {
      "inputs": [
        {
          "internalType": "uint16",
          "name": "_rfpIdx",
          "type": "uint16"
        },
        {
          "internalType": "uint256[]",
          "name": "_docTypes",
          "type": "uint256[]"
        },
        {
          "internalType": "string[]",
          "name": "_names",
          "type": "string[]"
        },
        {
          "internalType": "string[]",
          "name": "_documentHashes",
          "type": "string[]"
        },
        {
          "internalType": "string[]",
          "name": "_idxs",
          "type": "string[]"
        }
      ],
      "name": "addDocuments",
      "outputs": [],
      "stateMutability": "nonpayable",
      "type": "function"
    },
    {
      "inputs": [
        {
          "internalType": "string",
          "name": "_companyId",
          "type": "string"
        },
        {
          "internalType": "uint16",
          "name": "_rfpIndex",
          "type": "uint16"
        }
      ],
      "name": "cancelRFP",
      "outputs": [],
      "stateMutability": "nonpayable",
      "type": "function"
    },
    {
      "inputs": [
        {
          "internalType": "string",
          "name": "_id",
          "type": "string"
        },
        {
          "internalType": "string",
          "name": "_name",
          "type": "string"
        },
        {
          "internalType": "string",
          "name": "_country",
          "type": "string"
        }
      ],
      "name": "createCompany",
      "outputs": [],
      "stateMutability": "payable",
      "type": "function"
    },
    {
      "inputs": [
        {
          "internalType": "string",
          "name": "_name",
          "type": "string"
        },
        {
          "internalType": "string",
          "name": "_description",
          "type": "string"
        },
        {
          "internalType": "string",
          "name": "_rfpwebsite",
          "type": "string"
        },
        {
          "internalType": "uint256",
          "name": "_openDate",
          "type": "uint256"
        },
        {
          "internalType": "uint256",
          "name": "_endReceivingDate",
          "type": "uint256"
        },
        {
          "internalType": "uint256",
          "name": "_endDate",
          "type": "uint256"
        },
        {
          "internalType": "enum proponShared.ContestType",
          "name": "_contestType",
          "type": "uint8"
        },
        {
          "internalType": "string[]",
          "name": "_items",
          "type": "string[]"
        }
      ],
      "name": "createRFP",
      "outputs": [],
      "stateMutability": "payable",
      "type": "function"
    },
    {
      "inputs": [
        {
          "internalType": "uint16",
          "name": "_rfpIndex",
          "type": "uint16"
        },
        {
          "internalType": "string",
          "name": "_companyId",
          "type": "string"
        },
        {
          "internalType": "address[]",
          "name": "winners",
          "type": "address[]"
        }
      ],
      "name": "declareWinners",
      "outputs": [],
      "stateMutability": "nonpayable",
      "type": "function"
    },
    {
      "inputs": [],
      "name": "destroy",
      "outputs": [],
      "stateMutability": "nonpayable",
      "type": "function"
    },
    {
      "inputs": [],
      "name": "getOwner",
      "outputs": [
        {
          "internalType": "address",
          "name": "",
          "type": "address"
        }
      ],
      "stateMutability": "view",
      "type": "function"
    },
    {
      "inputs": [
        {
          "internalType": "uint16",
          "name": "_rfpId",
          "type": "uint16"
        },
        {
          "internalType": "string",
          "name": "companyId",
          "type": "string"
        },
        {
          "internalType": "address[]",
          "name": "invitedCompanies",
          "type": "address[]"
        }
      ],
      "name": "inviteCompaniestoRFP",
      "outputs": [],
      "stateMutability": "nonpayable",
      "type": "function"
    },
    {
      "inputs": [
        {
          "internalType": "uint16",
          "name": "_rfpId",
          "type": "uint16"
        }
      ],
      "name": "registertoOpenRFP",
      "outputs": [],
      "stateMutability": "payable",
      "type": "function"
    },
    {
      "inputs": [
        {
          "internalType": "address",
          "name": "_newOwner",
          "type": "address"
        }
      ],
      "name": "setOwner",
      "outputs": [],
      "stateMutability": "nonpayable",
      "type": "function"
    },
    {
      "inputs": [],
      "name": "withdraw",
      "outputs": [],
      "stateMutability": "nonpayable",
      "type": "function"
    }
  ],
  "bytecode": "0x608060405260405162005da238038062005da283398181016040528101906200002991906200011b565b806000806101000a81548173ffffffffffffffffffffffffffffffffffffffff021916908373ffffffffffffffffffffffffffffffffffffffff16021790555033600160006101000a81548173ffffffffffffffffffffffffffffffffffffffff021916908373ffffffffffffffffffffffffffffffffffffffff160217905550506200014d565b600080fd5b600073ffffffffffffffffffffffffffffffffffffffff82169050919050565b6000620000e382620000b6565b9050919050565b620000f581620000d6565b81146200010157600080fd5b50565b6000815190506200011581620000ea565b92915050565b600060208284031215620001345762000133620000b1565b5b6000620001448482850162000104565b91505092915050565b615c45806200015d6000396000f3fe60806040526004361061009c5760003560e01c80638217915a116100645780638217915a1461014257806383197ef01461016b578063893d20e8146101825780639152b5a2146101ad578063cdaf03eb146101d6578063d7b9ebe4146101ff5761009c565b80630adc596e146100a157806313af4035146100bd5780633ca0bc91146100e65780633ccfd60b1461010f5780637b60626d14610126575b600080fd5b6100bb60048036038101906100b69190613756565b61021b565b005b3480156100c957600080fd5b506100e460048036038101906100df91906138da565b610ae1565b005b3480156100f257600080fd5b5061010d60048036038101906101089190613941565b610bb5565b005b34801561011b57600080fd5b506101246110cc565b005b610140600480360381019061013b919061399d565b611211565b005b34801561014e57600080fd5b5061016960048036038101906101649190613b07565b611568565b005b34801561017757600080fd5b50610180611e7d565b005b34801561018e57600080fd5b50610197611f48565b6040516101a49190613ba1565b60405180910390f35b3480156101b957600080fd5b506101d460048036038101906101cf9190613b07565b611f72565b005b3480156101e257600080fd5b506101fd60048036038101906101f89190613c7f565b61275c565b005b61021960048036038101906102149190613d6a565b612c0e565b005b60006102278933613277565b905060008054906101000a900473ffffffffffffffffffffffffffffffffffffffff1673ffffffffffffffffffffffffffffffffffffffff166343a2d048826040518263ffffffff1660e01b81526004016102829190613db0565b60206040518083038186803b15801561029a57600080fd5b505afa1580156102ae573d6000803e3d6000fd5b505050506040513d601f19601f820116820180604052508101906102d29190613e03565b15610312576040517f08c379a000000000000000000000000000000000000000000000000000000000815260040161030990613e8d565b60405180910390fd5b6000600181111561032657610325613ead565b5b83600181111561033957610338613ead565b5b146103e15760008054906101000a900473ffffffffffffffffffffffffffffffffffffffff1673ffffffffffffffffffffffffffffffffffffffff1663afeff8d96040518163ffffffff1660e01b815260040160206040518083038186803b1580156103a457600080fd5b505afa1580156103b8573d6000803e3d6000fd5b505050506040513d601f19601f820116820180604052508101906103dc9190613ef1565b610480565b60008054906101000a900473ffffffffffffffffffffffffffffffffffffffff1673ffffffffffffffffffffffffffffffffffffffff16634e289b886040518163ffffffff1660e01b815260040160206040518083038186803b15801561044757600080fd5b505afa15801561045b573d6000803e3d6000fd5b505050506040513d601f19601f8201168201806040525081019061047f9190613ef1565b5b3410156104c2576040517f08c379a00000000000000000000000000000000000000000000000000000000081526004016104b990613f6a565b60405180910390fd5b60008060009054906101000a900473ffffffffffffffffffffffffffffffffffffffff1673ffffffffffffffffffffffffffffffffffffffff166362bc56e6336040518263ffffffff1660e01b815260040161051e9190613ba1565b60006040518083038186803b15801561053657600080fd5b505afa15801561054a573d6000803e3d6000fd5b505050506040513d6000823e3d601f19601f820116820180604052508101906105739190614257565b90506000816000015190506000815114156105c3576040517f08c379a00000000000000000000000000000000000000000000000000000000081526004016105ba906142ec565b60405180910390fd5b610e10426105d1919061433b565b881015610613576040517f08c379a000000000000000000000000000000000000000000000000000000000815260040161060a906143bb565b60405180910390fd5b868810610655576040517f08c379a000000000000000000000000000000000000000000000000000000000815260040161064c90614427565b60405180910390fd5b858710610697576040517f08c379a000000000000000000000000000000000000000000000000000000000815260040161068e90614493565b60405180910390fd5b60008060009054906101000a900473ffffffffffffffffffffffffffffffffffffffff1673ffffffffffffffffffffffffffffffffffffffff16631393b9e86040518163ffffffff1660e01b815260040160206040518083038186803b15801561070057600080fd5b505afa158015610714573d6000803e3d6000fd5b505050506040513d601f19601f8201168201806040525081019061073891906144b3565b90506000604051806101c001604052808e81526020018d81526020018361ffff1681526020018c81526020018b81526020018a815260200189815260200160001515815260200160008152602001600067ffffffffffffffff8111156107a1576107a06134ea565b5b6040519080825280602002602001820160405280156107cf5781602001602082028036833780820191505090505b5081526020018860018111156107e8576107e7613ead565b5b8152602001878152602001600067ffffffffffffffff81111561080e5761080d6134ea565b5b60405190808252806020026020018201604052801561083c5781602001602082028036833780820191505090505b5081526020013373ffffffffffffffffffffffffffffffffffffffff16815250905060008054906101000a900473ffffffffffffffffffffffffffffffffffffffff1673ffffffffffffffffffffffffffffffffffffffff1663f9c3c20c866040518263ffffffff1660e01b81526004016108b79190613db0565b600060405180830381600087803b1580156108d157600080fd5b505af11580156108e5573d6000803e3d6000fd5b5050505060008054906101000a900473ffffffffffffffffffffffffffffffffffffffff1673ffffffffffffffffffffffffffffffffffffffff166261892183836040518363ffffffff1660e01b815260040161094392919061488a565b600060405180830381600087803b15801561095d57600080fd5b505af1158015610971573d6000803e3d6000fd5b5050505060008054906101000a900473ffffffffffffffffffffffffffffffffffffffff1673ffffffffffffffffffffffffffffffffffffffff1663b8a4d46e33846040518363ffffffff1660e01b81526004016109d09291906148ba565b600060405180830381600087803b1580156109ea57600080fd5b505af11580156109fe573d6000803e3d6000fd5b5050505060008054906101000a900473ffffffffffffffffffffffffffffffffffffffff1673ffffffffffffffffffffffffffffffffffffffff16631a3ca1d86040518163ffffffff1660e01b8152600401600060405180830381600087803b158015610a6a57600080fd5b505af1158015610a7e573d6000803e3d6000fd5b505050503373ffffffffffffffffffffffffffffffffffffffff167f7e78d078ccf1d121d0f4feedd78115e79d2cb058b48fb9e37395f5cded9c916f838f604051610aca92919061491c565b60405180910390a250505050505050505050505050565b600160009054906101000a900473ffffffffffffffffffffffffffffffffffffffff1673ffffffffffffffffffffffffffffffffffffffff163373ffffffffffffffffffffffffffffffffffffffff1614610b71576040517f08c379a0000000000000000000000000000000000000000000000000000000008152600401610b6890614998565b60405180910390fd5b80600160006101000a81548173ffffffffffffffffffffffffffffffffffffffff021916908373ffffffffffffffffffffffffffffffffffffffff16021790555050565b81610c6d60008054906101000a900473ffffffffffffffffffffffffffffffffffffffff1673ffffffffffffffffffffffffffffffffffffffff1663d6f343c5336040518263ffffffff1660e01b8152600401610c129190613ba1565b60006040518083038186803b158015610c2a57600080fd5b505afa158015610c3e573d6000803e3d6000fd5b505050506040513d6000823e3d601f19601f82011682018060405250810190610c6791906149b8565b826132c2565b610cac576040517f08c379a0000000000000000000000000000000000000000000000000000000008152600401610ca390614a4d565b60405180910390fd5b813373ffffffffffffffffffffffffffffffffffffffff1660008054906101000a900473ffffffffffffffffffffffffffffffffffffffff1673ffffffffffffffffffffffffffffffffffffffff16632aec6e5a836040518263ffffffff1660e01b8152600401610d1d9190614a6d565b60206040518083038186803b158015610d3557600080fd5b505afa158015610d49573d6000803e3d6000fd5b505050506040513d601f19601f82011682018060405250810190610d6d9190614a9d565b73ffffffffffffffffffffffffffffffffffffffff1614610dc3576040517f08c379a0000000000000000000000000000000000000000000000000000000008152600401610dba90614b16565b60405180910390fd5b8260008054906101000a900473ffffffffffffffffffffffffffffffffffffffff1673ffffffffffffffffffffffffffffffffffffffff1663e6d29d94826040518263ffffffff1660e01b8152600401610e1d9190614a6d565b60206040518083038186803b158015610e3557600080fd5b505afa158015610e49573d6000803e3d6000fd5b505050506040513d601f19601f82011682018060405250810190610e6d9190613e03565b15610ead576040517f08c379a0000000000000000000000000000000000000000000000000000000008152600401610ea490614b82565b60405180910390fd5b60008060009054906101000a900473ffffffffffffffffffffffffffffffffffffffff1673ffffffffffffffffffffffffffffffffffffffff16639e7a1f64866040518263ffffffff1660e01b8152600401610f099190614a6d565b60006040518083038186803b158015610f2157600080fd5b505afa158015610f35573d6000803e3d6000fd5b505050506040513d6000823e3d601f19601f82011682018060405250810190610f5e9190614ef9565b905060008161018001515114610fa9576040517f08c379a0000000000000000000000000000000000000000000000000000000008152600401610fa090614f8e565b60405180910390fd5b60008054906101000a900473ffffffffffffffffffffffffffffffffffffffff1673ffffffffffffffffffffffffffffffffffffffff1663e3a1bd1c8660016040518363ffffffff1660e01b8152600401611005929190614fbd565b600060405180830381600087803b15801561101f57600080fd5b505af1158015611033573d6000803e3d6000fd5b5050505060008054906101000a900473ffffffffffffffffffffffffffffffffffffffff1673ffffffffffffffffffffffffffffffffffffffff166376d44f2786426040518363ffffffff1660e01b8152600401611092929190614ff5565b600060405180830381600087803b1580156110ac57600080fd5b505af11580156110c0573d6000803e3d6000fd5b50505050505050505050565b600160009054906101000a900473ffffffffffffffffffffffffffffffffffffffff1673ffffffffffffffffffffffffffffffffffffffff163373ffffffffffffffffffffffffffffffffffffffff161461115c576040517f08c379a000000000000000000000000000000000000000000000000000000000815260040161115390614998565b60405180910390fd5b600047905060003373ffffffffffffffffffffffffffffffffffffffff16826040516111879061504f565b60006040518083038185875af1925050503d80600081146111c4576040519150601f19603f3d011682016040523d82523d6000602084013e6111c9565b606091505b505090508061120d576040517f08c379a0000000000000000000000000000000000000000000000000000000008152600401611204906150b0565b60405180910390fd5b5050565b60008054906101000a900473ffffffffffffffffffffffffffffffffffffffff1673ffffffffffffffffffffffffffffffffffffffff166390287940846040518263ffffffff1660e01b815260040161126a91906150d0565b60206040518083038186803b15801561128257600080fd5b505afa158015611296573d6000803e3d6000fd5b505050506040513d601f19601f820116820180604052508101906112ba9190613e03565b156112fa576040517f08c379a00000000000000000000000000000000000000000000000000000000081526004016112f19061513e565b60405180910390fd5b60008054906101000a900473ffffffffffffffffffffffffffffffffffffffff1673ffffffffffffffffffffffffffffffffffffffff1663215cf05d6040518163ffffffff1660e01b815260040160206040518083038186803b15801561136057600080fd5b505afa158015611374573d6000803e3d6000fd5b505050506040513d601f19601f820116820180604052508101906113989190613ef1565b3410156113da576040517f08c379a00000000000000000000000000000000000000000000000000000000081526004016113d190613f6a565b60405180910390fd5b60008060009054906101000a900473ffffffffffffffffffffffffffffffffffffffff1673ffffffffffffffffffffffffffffffffffffffff1663d6f343c5336040518263ffffffff1660e01b81526004016114369190613ba1565b60006040518083038186803b15801561144e57600080fd5b505afa158015611462573d6000803e3d6000fd5b505050506040513d6000823e3d601f19601f8201168201806040525081019061148b91906149b8565b905060008151146114d1576040517f08c379a00000000000000000000000000000000000000000000000000000000081526004016114c8906151aa565b60405180910390fd5b60008054906101000a900473ffffffffffffffffffffffffffffffffffffffff1673ffffffffffffffffffffffffffffffffffffffff1663e31fc5bf338686866040518563ffffffff1660e01b815260040161153094939291906151ca565b600060405180830381600087803b15801561154a57600080fd5b505af115801561155e573d6000803e3d6000fd5b5050505050505050565b8161162060008054906101000a900473ffffffffffffffffffffffffffffffffffffffff1673ffffffffffffffffffffffffffffffffffffffff1663d6f343c5336040518263ffffffff1660e01b81526004016115c59190613ba1565b60006040518083038186803b1580156115dd57600080fd5b505afa1580156115f1573d6000803e3d6000fd5b505050506040513d6000823e3d601f19601f8201168201806040525081019061161a91906149b8565b826132c2565b61165f576040517f08c379a000000000000000000000000000000000000000000000000000000000815260040161165690614a4d565b60405180910390fd5b833373ffffffffffffffffffffffffffffffffffffffff1660008054906101000a900473ffffffffffffffffffffffffffffffffffffffff1673ffffffffffffffffffffffffffffffffffffffff16632aec6e5a836040518263ffffffff1660e01b81526004016116d09190614a6d565b60206040518083038186803b1580156116e857600080fd5b505afa1580156116fc573d6000803e3d6000fd5b505050506040513d601f19601f820116820180604052508101906117209190614a9d565b73ffffffffffffffffffffffffffffffffffffffff1614611776576040517f08c379a000000000000000000000000000000000000000000000000000000000815260040161176d90614b16565b60405180910390fd5b8460008054906101000a900473ffffffffffffffffffffffffffffffffffffffff1673ffffffffffffffffffffffffffffffffffffffff1663e6d29d94826040518263ffffffff1660e01b81526004016117d09190614a6d565b60206040518083038186803b1580156117e857600080fd5b505afa1580156117fc573d6000803e3d6000fd5b505050506040513d601f19601f820116820180604052508101906118209190613e03565b15611860576040517f08c379a000000000000000000000000000000000000000000000000000000000815260040161185790614b82565b60405180910390fd5b60008060009054906101000a900473ffffffffffffffffffffffffffffffffffffffff1673ffffffffffffffffffffffffffffffffffffffff16639e7a1f64886040518263ffffffff1660e01b81526004016118bc9190614a6d565b60006040518083038186803b1580156118d457600080fd5b505afa1580156118e8573d6000803e3d6000fd5b505050506040513d6000823e3d601f19601f820116820180604052508101906119119190614ef9565b90506000816101800151511461195c576040517f08c379a000000000000000000000000000000000000000000000000000000000815260040161195390614f8e565b60405180910390fd5b8060e00151156119a1576040517f08c379a000000000000000000000000000000000000000000000000000000000815260040161199890614b82565b60405180910390fd5b600081610160015151905060008651905060008260ff1614806119c7575060018260ff16145b80156119d4575060018751145b806119f4575060028260ff16101580156119f357508160ff168160ff16145b5b611a33576040517f08c379a0000000000000000000000000000000000000000000000000000000008152600401611a2a90615270565b60405180910390fd5b8260c00151421015611a7a576040517f08c379a0000000000000000000000000000000000000000000000000000000008152600401611a71906152dc565b60405180910390fd5b6000875167ffffffffffffffff811115611a9757611a966134ea565b5b604051908082528060200260200182016040528015611ac55781602001602082028036833780820191505090505b5090506000805b8360ff168160ff161015611c715760008a8260ff1681518110611af257611af16152fc565b5b602002602001015190503373ffffffffffffffffffffffffffffffffffffffff168173ffffffffffffffffffffffffffffffffffffffff161415611b6b576040517f08c379a0000000000000000000000000000000000000000000000000000000008152600401611b6290615377565b60405180910390fd5b611b7a8188610120015161332e565b611bb9576040517f08c379a0000000000000000000000000000000000000000000000000000000008152600401611bb0906153e3565b60405180910390fd5b611bc484828561342a565b611c5d57600073ffffffffffffffffffffffffffffffffffffffff168173ffffffffffffffffffffffffffffffffffffffff1614611c5c5780848460ff1681518110611c1357611c126152fc565b5b602002602001019073ffffffffffffffffffffffffffffffffffffffff16908173ffffffffffffffffffffffffffffffffffffffff16815250508280611c5890615410565b9350505b5b508080611c6990615410565b915050611acc565b5060008160ff1667ffffffffffffffff811115611c9157611c906134ea565b5b604051908082528060200260200182016040528015611cbf5781602001602082028036833780820191505090505b50905060005b8260ff168160ff161015611d5457838160ff1681518110611ce957611ce86152fc565b5b6020026020010151828260ff1681518110611d0757611d066152fc565b5b602002602001019073ffffffffffffffffffffffffffffffffffffffff16908173ffffffffffffffffffffffffffffffffffffffff16815250508080611d4c90615410565b915050611cc5565b5060008054906101000a900473ffffffffffffffffffffffffffffffffffffffff1673ffffffffffffffffffffffffffffffffffffffff166347475a488d8c6040518363ffffffff1660e01b8152600401611db09291906154a9565b600060405180830381600087803b158015611dca57600080fd5b505af1158015611dde573d6000803e3d6000fd5b5050505060008054906101000a900473ffffffffffffffffffffffffffffffffffffffff1673ffffffffffffffffffffffffffffffffffffffff166379497fb48d836040518363ffffffff1660e01b8152600401611e3d9291906154a9565b600060405180830381600087803b158015611e5757600080fd5b505af1158015611e6b573d6000803e3d6000fd5b50505050505050505050505050505050565b600160009054906101000a900473ffffffffffffffffffffffffffffffffffffffff1673ffffffffffffffffffffffffffffffffffffffff163373ffffffffffffffffffffffffffffffffffffffff1614611f0d576040517f08c379a0000000000000000000000000000000000000000000000000000000008152600401611f0490614998565b60405180910390fd5b600160009054906101000a900473ffffffffffffffffffffffffffffffffffffffff1673ffffffffffffffffffffffffffffffffffffffff16ff5b6000600160009054906101000a900473ffffffffffffffffffffffffffffffffffffffff16905090565b8161202a60008054906101000a900473ffffffffffffffffffffffffffffffffffffffff1673ffffffffffffffffffffffffffffffffffffffff1663d6f343c5336040518263ffffffff1660e01b8152600401611fcf9190613ba1565b60006040518083038186803b158015611fe757600080fd5b505afa158015611ffb573d6000803e3d6000fd5b505050506040513d6000823e3d601f19601f8201168201806040525081019061202491906149b8565b826132c2565b612069576040517f08c379a000000000000000000000000000000000000000000000000000000000815260040161206090614a4d565b60405180910390fd5b833373ffffffffffffffffffffffffffffffffffffffff1660008054906101000a900473ffffffffffffffffffffffffffffffffffffffff1673ffffffffffffffffffffffffffffffffffffffff16632aec6e5a836040518263ffffffff1660e01b81526004016120da9190614a6d565b60206040518083038186803b1580156120f257600080fd5b505afa158015612106573d6000803e3d6000fd5b505050506040513d601f19601f8201168201806040525081019061212a9190614a9d565b73ffffffffffffffffffffffffffffffffffffffff1614612180576040517f08c379a000000000000000000000000000000000000000000000000000000000815260040161217790614b16565b60405180910390fd5b8460008054906101000a900473ffffffffffffffffffffffffffffffffffffffff1673ffffffffffffffffffffffffffffffffffffffff1663e6d29d94826040518263ffffffff1660e01b81526004016121da9190614a6d565b60206040518083038186803b1580156121f257600080fd5b505afa158015612206573d6000803e3d6000fd5b505050506040513d601f19601f8201168201806040525081019061222a9190613e03565b1561226a576040517f08c379a000000000000000000000000000000000000000000000000000000000815260040161226190614b82565b60405180910390fd5b60008060009054906101000a900473ffffffffffffffffffffffffffffffffffffffff1673ffffffffffffffffffffffffffffffffffffffff16639e7a1f64886040518263ffffffff1660e01b81526004016122c69190614a6d565b60006040518083038186803b1580156122de57600080fd5b505afa1580156122f2573d6000803e3d6000fd5b505050506040513d6000823e3d601f19601f8201168201806040525081019061231b9190614ef9565b90506001808111156123305761232f613ead565b5b816101400151600181111561234857612347613ead565b5b14612388576040517f08c379a000000000000000000000000000000000000000000000000000000000815260040161237f90615525565b60405180910390fd5b428160a00151116123ce576040517f08c379a00000000000000000000000000000000000000000000000000000000081526004016123c590615591565b60405180910390fd5b60008054906101000a900473ffffffffffffffffffffffffffffffffffffffff1673ffffffffffffffffffffffffffffffffffffffff16635a6167c96040518163ffffffff1660e01b815260040160206040518083038186803b15801561243457600080fd5b505afa158015612448573d6000803e3d6000fd5b505050506040513d601f19601f8201168201806040525081019061246c9190613ef1565b85518261012001515161247f91906155b1565b11156124c0576040517f08c379a00000000000000000000000000000000000000000000000000000000081526004016124b790615653565b60405180910390fd5b60008551905060005b8160ff168160ff16101561275157600060019050878260ff16815181106124f3576124f26152fc565b5b602002602001015173ffffffffffffffffffffffffffffffffffffffff163373ffffffffffffffffffffffffffffffffffffffff161415612534575061273e565b600084610120015151905060005b8160ff168160ff1610156125df57898460ff1681518110612566576125656152fc565b5b602002602001015173ffffffffffffffffffffffffffffffffffffffff168661012001518260ff168151811061259f5761259e6152fc565b5b602002602001015173ffffffffffffffffffffffffffffffffffffffff1614156125cc57600092506125df565b80806125d790615410565b915050612542565b50811561273b5760008054906101000a900473ffffffffffffffffffffffffffffffffffffffff1673ffffffffffffffffffffffffffffffffffffffff1663be2ec7868c8b8660ff1681518110612639576126386152fc565b5b60200260200101516040518363ffffffff1660e01b815260040161265e929190615673565b600060405180830381600087803b15801561267857600080fd5b505af115801561268c573d6000803e3d6000fd5b5050505060008054906101000a900473ffffffffffffffffffffffffffffffffffffffff1673ffffffffffffffffffffffffffffffffffffffff166333572e928c8b8660ff16815181106126e3576126e26152fc565b5b60200260200101516040518363ffffffff1660e01b8152600401612708929190615673565b600060405180830381600087803b15801561272257600080fd5b505af1158015612736573d6000803e3d6000fd5b505050505b50505b808061274990615410565b9150506124c9565b505050505050505050565b8251845114801561276e575081518351145b801561277b575080518251145b6127ba576040517f08c379a00000000000000000000000000000000000000000000000000000000081526004016127b1906156e8565b60405180910390fd5b60008060009054906101000a900473ffffffffffffffffffffffffffffffffffffffff1673ffffffffffffffffffffffffffffffffffffffff16639e7a1f64876040518263ffffffff1660e01b81526004016128169190614a6d565b60006040518083038186803b15801561282e57600080fd5b505afa158015612842573d6000803e3d6000fd5b505050506040513d6000823e3d601f19601f8201168201806040525081019061286b9190614ef9565b90506000816101a0015173ffffffffffffffffffffffffffffffffffffffff163373ffffffffffffffffffffffffffffffffffffffff16149050806129745760008083610120015151905060005b818110156129305784610120015181815181106128d9576128d86152fc565b5b602002602001015173ffffffffffffffffffffffffffffffffffffffff163373ffffffffffffffffffffffffffffffffffffffff16141561291d5760019250612930565b808061292890615708565b9150506128b9565b5081612971576040517f08c379a00000000000000000000000000000000000000000000000000000000081526004016129689061579d565b60405180910390fd5b50505b6000808651905060005b8160ff168160ff161015612c02576000898260ff16815181106129a4576129a36152fc565b5b602002602001015190506000600a8111156129c2576129c1613ead565b5b60ff168160ff1614806129ed57506001600a8111156129e4576129e3613ead565b5b60ff168160ff16145b80612a1057506002600a811115612a0757612a06613ead565b5b60ff168160ff16145b93508415612a5d5783612a58576040517f08c379a0000000000000000000000000000000000000000000000000000000008152600401612a4f90615809565b60405180910390fd5b612ae5565b8315612a9e576040517f08c379a0000000000000000000000000000000000000000000000000000000008152600401612a9590615875565b60405180910390fd5b428660a0015111612ae4576040517f08c379a0000000000000000000000000000000000000000000000000000000008152600401612adb90615591565b60405180910390fd5b5b60008054906101000a900473ffffffffffffffffffffffffffffffffffffffff1673ffffffffffffffffffffffffffffffffffffffff1663ee7690908c8c8560ff1681518110612b3857612b376152fc565b5b60200260200101518c8660ff1681518110612b5657612b556152fc565b5b6020026020010151338d8860ff1681518110612b7557612b746152fc565b5b60200260200101518d8960ff1681518110612b9357612b926152fc565b5b60200260200101516040518763ffffffff1660e01b8152600401612bbc96959493929190615895565b600060405180830381600087803b158015612bd657600080fd5b505af1158015612bea573d6000803e3d6000fd5b50505050508080612bfa90615410565b91505061297e565b50505050505050505050565b8060008054906101000a900473ffffffffffffffffffffffffffffffffffffffff1673ffffffffffffffffffffffffffffffffffffffff1663e6d29d94826040518263ffffffff1660e01b8152600401612c689190614a6d565b60206040518083038186803b158015612c8057600080fd5b505afa158015612c94573d6000803e3d6000fd5b505050506040513d601f19601f82011682018060405250810190612cb89190613e03565b15612cf8576040517f08c379a0000000000000000000000000000000000000000000000000000000008152600401612cef90614b82565b60405180910390fd5b60008060009054906101000a900473ffffffffffffffffffffffffffffffffffffffff1673ffffffffffffffffffffffffffffffffffffffff16639e7a1f64846040518263ffffffff1660e01b8152600401612d549190614a6d565b60006040518083038186803b158015612d6c57600080fd5b505afa158015612d80573d6000803e3d6000fd5b505050506040513d6000823e3d601f19601f82011682018060405250810190612da99190614ef9565b905060008054906101000a900473ffffffffffffffffffffffffffffffffffffffff1673ffffffffffffffffffffffffffffffffffffffff1663be38013b6040518163ffffffff1660e01b815260040160206040518083038186803b158015612e1157600080fd5b505afa158015612e25573d6000803e3d6000fd5b505050506040513d601f19601f82011682018060405250810190612e499190613ef1565b341015612e8b576040517f08c379a0000000000000000000000000000000000000000000000000000000008152600401612e8290615957565b60405180910390fd5b60006001811115612e9f57612e9e613ead565b5b8161014001516001811115612eb757612eb6613ead565b5b14612ef7576040517f08c379a0000000000000000000000000000000000000000000000000000000008152600401612eee906159c3565b60405180910390fd5b428160a0015111612f3d576040517f08c379a0000000000000000000000000000000000000000000000000000000008152600401612f3490615591565b60405180910390fd5b806101a0015173ffffffffffffffffffffffffffffffffffffffff163373ffffffffffffffffffffffffffffffffffffffff161415612fb1576040517f08c379a0000000000000000000000000000000000000000000000000000000008152600401612fa890615a2f565b60405180910390fd5b60008054906101000a900473ffffffffffffffffffffffffffffffffffffffff1673ffffffffffffffffffffffffffffffffffffffff1663ecbb7b4a6040518163ffffffff1660e01b815260040160206040518083038186803b15801561301757600080fd5b505afa15801561302b573d6000803e3d6000fd5b505050506040513d601f19601f8201168201806040525081019061304f9190613ef1565b8161012001515110613096576040517f08c379a000000000000000000000000000000000000000000000000000000000815260040161308d90615a9b565b60405180910390fd5b600081610120015151905060005b8160ff168160ff161015613156573373ffffffffffffffffffffffffffffffffffffffff168361012001518260ff16815181106130e4576130e36152fc565b5b602002602001015173ffffffffffffffffffffffffffffffffffffffff161415613143576040517f08c379a000000000000000000000000000000000000000000000000000000000815260040161313a90615b07565b60405180910390fd5b808061314e90615410565b9150506130a4565b5060008054906101000a900473ffffffffffffffffffffffffffffffffffffffff1673ffffffffffffffffffffffffffffffffffffffff1663be2ec78685336040518363ffffffff1660e01b81526004016131b2929190615673565b600060405180830381600087803b1580156131cc57600080fd5b505af11580156131e0573d6000803e3d6000fd5b5050505060008054906101000a900473ffffffffffffffffffffffffffffffffffffffff1673ffffffffffffffffffffffffffffffffffffffff166333572e9285336040518363ffffffff1660e01b815260040161323f929190615673565b600060405180830381600087803b15801561325957600080fd5b505af115801561326d573d6000803e3d6000fd5b5050505050505050565b6000808380519060200120905060008184604051602001613299929190615b90565b604051602081830303815290604052905060008180519060200120905080935050505092915050565b600081518351146132d65760009050613328565b816040516020016132e79190615bf8565b604051602081830303815290604052805190602001208360405160200161330e9190615bf8565b604051602081830303815290604052805190602001201490505b92915050565b6000808251141561337057600073ffffffffffffffffffffffffffffffffffffffff168373ffffffffffffffffffffffffffffffffffffffff16149050613424565b60005b825181101561341e5782818151811061338f5761338e6152fc565b5b602002602001015173ffffffffffffffffffffffffffffffffffffffff168473ffffffffffffffffffffffffffffffffffffffff1614806133fc5750600073ffffffffffffffffffffffffffffffffffffffff168473ffffffffffffffffffffffffffffffffffffffff16145b1561340b576001915050613424565b808061341690615708565b915050613373565b50600090505b92915050565b600080600090505b8260ff168160ff1610156134ae578373ffffffffffffffffffffffffffffffffffffffff16858260ff168151811061346d5761346c6152fc565b5b602002602001015173ffffffffffffffffffffffffffffffffffffffff16141561349b5760019150506134b4565b80806134a690615410565b915050613432565b50600090505b9392505050565b6000604051905090565b600080fd5b600080fd5b600080fd5b600080fd5b6000601f19601f8301169050919050565b7f4e487b7100000000000000000000000000000000000000000000000000000000600052604160045260246000fd5b613522826134d9565b810181811067ffffffffffffffff82111715613541576135406134ea565b5b80604052505050565b60006135546134bb565b90506135608282613519565b919050565b600067ffffffffffffffff8211156135805761357f6134ea565b5b613589826134d9565b9050602081019050919050565b82818337600083830152505050565b60006135b86135b384613565565b61354a565b9050828152602081018484840111156135d4576135d36134d4565b5b6135df848285613596565b509392505050565b600082601f8301126135fc576135fb6134cf565b5b813561360c8482602086016135a5565b91505092915050565b6000819050919050565b61362881613615565b811461363357600080fd5b50565b6000813590506136458161361f565b92915050565b6002811061365857600080fd5b50565b60008135905061366a8161364b565b92915050565b600067ffffffffffffffff82111561368b5761368a6134ea565b5b602082029050602081019050919050565b600080fd5b60006136b46136af84613670565b61354a565b905080838252602082019050602084028301858111156136d7576136d661369c565b5b835b8181101561371e57803567ffffffffffffffff8111156136fc576136fb6134cf565b5b80860161370989826135e7565b855260208501945050506020810190506136d9565b5050509392505050565b600082601f83011261373d5761373c6134cf565b5b813561374d8482602086016136a1565b91505092915050565b600080600080600080600080610100898b031215613777576137766134c5565b5b600089013567ffffffffffffffff811115613795576137946134ca565b5b6137a18b828c016135e7565b985050602089013567ffffffffffffffff8111156137c2576137c16134ca565b5b6137ce8b828c016135e7565b975050604089013567ffffffffffffffff8111156137ef576137ee6134ca565b5b6137fb8b828c016135e7565b965050606061380c8b828c01613636565b955050608061381d8b828c01613636565b94505060a061382e8b828c01613636565b93505060c061383f8b828c0161365b565b92505060e089013567ffffffffffffffff8111156138605761385f6134ca565b5b61386c8b828c01613728565b9150509295985092959890939650565b600073ffffffffffffffffffffffffffffffffffffffff82169050919050565b60006138a78261387c565b9050919050565b6138b78161389c565b81146138c257600080fd5b50565b6000813590506138d4816138ae565b92915050565b6000602082840312156138f0576138ef6134c5565b5b60006138fe848285016138c5565b91505092915050565b600061ffff82169050919050565b61391e81613907565b811461392957600080fd5b50565b60008135905061393b81613915565b92915050565b60008060408385031215613958576139576134c5565b5b600083013567ffffffffffffffff811115613976576139756134ca565b5b613982858286016135e7565b92505060206139938582860161392c565b9150509250929050565b6000806000606084860312156139b6576139b56134c5565b5b600084013567ffffffffffffffff8111156139d4576139d36134ca565b5b6139e0868287016135e7565b935050602084013567ffffffffffffffff811115613a0157613a006134ca565b5b613a0d868287016135e7565b925050604084013567ffffffffffffffff811115613a2e57613a2d6134ca565b5b613a3a868287016135e7565b9150509250925092565b600067ffffffffffffffff821115613a5f57613a5e6134ea565b5b602082029050602081019050919050565b6000613a83613a7e84613a44565b61354a565b90508083825260208201905060208402830185811115613aa657613aa561369c565b5b835b81811015613acf5780613abb88826138c5565b845260208401935050602081019050613aa8565b5050509392505050565b600082601f830112613aee57613aed6134cf565b5b8135613afe848260208601613a70565b91505092915050565b600080600060608486031215613b2057613b1f6134c5565b5b6000613b2e8682870161392c565b935050602084013567ffffffffffffffff811115613b4f57613b4e6134ca565b5b613b5b868287016135e7565b925050604084013567ffffffffffffffff811115613b7c57613b7b6134ca565b5b613b8886828701613ad9565b9150509250925092565b613b9b8161389c565b82525050565b6000602082019050613bb66000830184613b92565b92915050565b600067ffffffffffffffff821115613bd757613bd66134ea565b5b602082029050602081019050919050565b6000613bfb613bf684613bbc565b61354a565b90508083825260208201905060208402830185811115613c1e57613c1d61369c565b5b835b81811015613c475780613c338882613636565b845260208401935050602081019050613c20565b5050509392505050565b600082601f830112613c6657613c656134cf565b5b8135613c76848260208601613be8565b91505092915050565b600080600080600060a08688031215613c9b57613c9a6134c5565b5b6000613ca98882890161392c565b955050602086013567ffffffffffffffff811115613cca57613cc96134ca565b5b613cd688828901613c51565b945050604086013567ffffffffffffffff811115613cf757613cf66134ca565b5b613d0388828901613728565b935050606086013567ffffffffffffffff811115613d2457613d236134ca565b5b613d3088828901613728565b925050608086013567ffffffffffffffff811115613d5157613d506134ca565b5b613d5d88828901613728565b9150509295509295909350565b600060208284031215613d8057613d7f6134c5565b5b6000613d8e8482850161392c565b91505092915050565b6000819050919050565b613daa81613d97565b82525050565b6000602082019050613dc56000830184613da1565b92915050565b60008115159050919050565b613de081613dcb565b8114613deb57600080fd5b50565b600081519050613dfd81613dd7565b92915050565b600060208284031215613e1957613e186134c5565b5b6000613e2784828501613dee565b91505092915050565b600082825260208201905092915050565b7f72667069645f616c72656164795f74616b656e00000000000000000000000000600082015250565b6000613e77601383613e30565b9150613e8282613e41565b602082019050919050565b60006020820190508181036000830152613ea681613e6a565b9050919050565b7f4e487b7100000000000000000000000000000000000000000000000000000000600052602160045260246000fd5b600081519050613eeb8161361f565b92915050565b600060208284031215613f0757613f066134c5565b5b6000613f1584828501613edc565b91505092915050565b7f496e73756666696369656e745f7061796d656e74000000000000000000000000600082015250565b6000613f54601483613e30565b9150613f5f82613f1e565b602082019050919050565b60006020820190508181036000830152613f8381613f47565b9050919050565b600080fd5b600080fd5b60005b83811015613fb2578082015181840152602081019050613f97565b83811115613fc1576000848401525b50505050565b6000613fda613fd584613565565b61354a565b905082815260208101848484011115613ff657613ff56134d4565b5b614001848285613f94565b509392505050565b600082601f83011261401e5761401d6134cf565b5b815161402e848260208601613fc7565b91505092915050565b600067ffffffffffffffff821115614052576140516134ea565b5b602082029050602081019050919050565b60008151905061407281613915565b92915050565b600061408b61408684614037565b61354a565b905080838252602082019050602084028301858111156140ae576140ad61369c565b5b835b818110156140d757806140c38882614063565b8452602084019350506020810190506140b0565b5050509392505050565b600082601f8301126140f6576140f56134cf565b5b8151614106848260208601614078565b91505092915050565b600060c0828403121561412557614124613f8a565b5b61412f60c061354a565b9050600082015167ffffffffffffffff81111561414f5761414e613f8f565b5b61415b84828501614009565b600083015250602082015167ffffffffffffffff81111561417f5761417e613f8f565b5b61418b84828501614009565b602083015250604082015167ffffffffffffffff8111156141af576141ae613f8f565b5b6141bb84828501614009565b604083015250606082015167ffffffffffffffff8111156141df576141de613f8f565b5b6141eb848285016140e1565b606083015250608082015167ffffffffffffffff81111561420f5761420e613f8f565b5b61421b848285016140e1565b60808301525060a082015167ffffffffffffffff81111561423f5761423e613f8f565b5b61424b848285016140e1565b60a08301525092915050565b60006020828403121561426d5761426c6134c5565b5b600082015167ffffffffffffffff81111561428b5761428a6134ca565b5b6142978482850161410f565b91505092915050565b7f616464726573735f6e6f745f61646d696e000000000000000000000000000000600082015250565b60006142d6601183613e30565b91506142e1826142a0565b602082019050919050565b60006020820190508181036000830152614305816142c9565b9050919050565b7f4e487b7100000000000000000000000000000000000000000000000000000000600052601160045260246000fd5b600061434682613615565b915061435183613615565b9250828210156143645761436361430c565b5b828203905092915050565b7f6f70656e646174655f626568696e645f746f6461790000000000000000000000600082015250565b60006143a5601583613e30565b91506143b08261436f565b602082019050919050565b600060208201905081810360008301526143d481614398565b9050919050565b7f696e697469616c5f646174655f77726f6e670000000000000000000000000000600082015250565b6000614411601283613e30565b915061441c826143db565b602082019050919050565b6000602082019050818103600083015261444081614404565b9050919050565b7f726563656976696e675f646174655f77726f6e67000000000000000000000000600082015250565b600061447d601483613e30565b915061448882614447565b602082019050919050565b600060208201905081810360008301526144ac81614470565b9050919050565b6000602082840312156144c9576144c86134c5565b5b60006144d784828501614063565b91505092915050565b6144e981613907565b82525050565b600081519050919050565b600082825260208201905092915050565b6000614516826144ef565b61452081856144fa565b9350614530818560208601613f94565b614539816134d9565b840191505092915050565b61454d81613907565b82525050565b61455c81613615565b82525050565b61456b81613dcb565b82525050565b600081519050919050565b600082825260208201905092915050565b6000819050602082019050919050565b6145a68161389c565b82525050565b60006145b8838361459d565b60208301905092915050565b6000602082019050919050565b60006145dc82614571565b6145e6818561457c565b93506145f18361458d565b8060005b8381101561462257815161460988826145ac565b9750614614836145c4565b9250506001810190506145f5565b5085935050505092915050565b600281106146405761463f613ead565b5b50565b60008190506146518261462f565b919050565b600061466182614643565b9050919050565b61467181614656565b82525050565b600081519050919050565b600082825260208201905092915050565b6000819050602082019050919050565b60006146af838361450b565b905092915050565b6000602082019050919050565b60006146cf82614677565b6146d98185614682565b9350836020820285016146eb85614693565b8060005b85811015614727578484038952815161470885826146a3565b9450614713836146b7565b925060208a019950506001810190506146ef565b50829750879550505050505092915050565b60006101c0830160008301518482036000860152614757828261450b565b91505060208301518482036020860152614771828261450b565b91505060408301516147866040860182614544565b506060830151848203606086015261479e828261450b565b91505060808301516147b36080860182614553565b5060a08301516147c660a0860182614553565b5060c08301516147d960c0860182614553565b5060e08301516147ec60e0860182614562565b50610100830151614801610100860182614553565b5061012083015184820361012086015261481b82826145d1565b915050610140830151614832610140860182614668565b5061016083015184820361016086015261484c82826146c4565b91505061018083015184820361018086015261486882826145d1565b9150506101a083015161487f6101a086018261459d565b508091505092915050565b600060408201905061489f60008301856144e0565b81810360208301526148b18184614739565b90509392505050565b60006040820190506148cf6000830185613b92565b6148dc60208301846144e0565b9392505050565b60006148ee826144ef565b6148f88185613e30565b9350614908818560208601613f94565b614911816134d9565b840191505092915050565b600060408201905061493160008301856144e0565b818103602083015261494381846148e3565b90509392505050565b7f4f6e6c795f6f776e65725f616c6c6f7765640000000000000000000000000000600082015250565b6000614982601283613e30565b915061498d8261494c565b602082019050919050565b600060208201905081810360008301526149b181614975565b9050919050565b6000602082840312156149ce576149cd6134c5565b5b600082015167ffffffffffffffff8111156149ec576149eb6134ca565b5b6149f884828501614009565b91505092915050565b7f4f6e6c795f61646d696e5f63616e5f706572666f726d00000000000000000000600082015250565b6000614a37601683613e30565b9150614a4282614a01565b602082019050919050565b60006020820190508181036000830152614a6681614a2a565b9050919050565b6000602082019050614a8260008301846144e0565b92915050565b600081519050614a97816138ae565b92915050565b600060208284031215614ab357614ab26134c5565b5b6000614ac184828501614a88565b91505092915050565b7f4f6e6c795f6973737565725f63616e5f706572666f726d000000000000000000600082015250565b6000614b00601783613e30565b9150614b0b82614aca565b602082019050919050565b60006020820190508181036000830152614b2f81614af3565b9050919050565b7f616c72656164795f63616e63656c656400000000000000000000000000000000600082015250565b6000614b6c601083613e30565b9150614b7782614b36565b602082019050919050565b60006020820190508181036000830152614b9b81614b5f565b9050919050565b6000614bb5614bb084613a44565b61354a565b90508083825260208201905060208402830185811115614bd857614bd761369c565b5b835b81811015614c015780614bed8882614a88565b845260208401935050602081019050614bda565b5050509392505050565b600082601f830112614c2057614c1f6134cf565b5b8151614c30848260208601614ba2565b91505092915050565b600081519050614c488161364b565b92915050565b6000614c61614c5c84613670565b61354a565b90508083825260208201905060208402830185811115614c8457614c8361369c565b5b835b81811015614ccb57805167ffffffffffffffff811115614ca957614ca86134cf565b5b808601614cb68982614009565b85526020850194505050602081019050614c86565b5050509392505050565b600082601f830112614cea57614ce96134cf565b5b8151614cfa848260208601614c4e565b91505092915050565b60006101c08284031215614d1a57614d19613f8a565b5b614d256101c061354a565b9050600082015167ffffffffffffffff811115614d4557614d44613f8f565b5b614d5184828501614009565b600083015250602082015167ffffffffffffffff811115614d7557614d74613f8f565b5b614d8184828501614009565b6020830152506040614d9584828501614063565b604083015250606082015167ffffffffffffffff811115614db957614db8613f8f565b5b614dc584828501614009565b6060830152506080614dd984828501613edc565b60808301525060a0614ded84828501613edc565b60a08301525060c0614e0184828501613edc565b60c08301525060e0614e1584828501613dee565b60e083015250610100614e2a84828501613edc565b6101008301525061012082015167ffffffffffffffff811115614e5057614e4f613f8f565b5b614e5c84828501614c0b565b61012083015250610140614e7284828501614c39565b6101408301525061016082015167ffffffffffffffff811115614e9857614e97613f8f565b5b614ea484828501614cd5565b6101608301525061018082015167ffffffffffffffff811115614eca57614ec9613f8f565b5b614ed684828501614c0b565b610180830152506101a0614eec84828501614a88565b6101a08301525092915050565b600060208284031215614f0f57614f0e6134c5565b5b600082015167ffffffffffffffff811115614f2d57614f2c6134ca565b5b614f3984828501614d03565b91505092915050565b7f7266705f616c72656164795f6177617264656400000000000000000000000000600082015250565b6000614f78601383613e30565b9150614f8382614f42565b602082019050919050565b60006020820190508181036000830152614fa781614f6b565b9050919050565b614fb781613dcb565b82525050565b6000604082019050614fd260008301856144e0565b614fdf6020830184614fae565b9392505050565b614fef81613615565b82525050565b600060408201905061500a60008301856144e0565b6150176020830184614fe6565b9392505050565b600081905092915050565b50565b600061503960008361501e565b915061504482615029565b600082019050919050565b600061505a8261502c565b9150819050919050565b7f6661696c65645f77697468647261770000000000000000000000000000000000600082015250565b600061509a600f83613e30565b91506150a582615064565b602082019050919050565b600060208201905081810360008301526150c98161508d565b9050919050565b600060208201905081810360008301526150ea81846148e3565b905092915050565b7f69645f616c72656164795f657869737473000000000000000000000000000000600082015250565b6000615128601183613e30565b9150615133826150f2565b602082019050919050565b600060208201905081810360008301526151578161511b565b9050919050565b7f616464726573735f616c72656164795f61646d696e5f6f665f636f6d70616e79600082015250565b6000615194602083613e30565b915061519f8261515e565b602082019050919050565b600060208201905081810360008301526151c381615187565b9050919050565b60006080820190506151df6000830187613b92565b81810360208301526151f181866148e3565b9050818103604083015261520581856148e3565b9050818103606083015261521981846148e3565b905095945050505050565b7f6e6f745f6d61746368696e675f77696e6e657273000000000000000000000000600082015250565b600061525a601483613e30565b915061526582615224565b602082019050919050565b600060208201905081810360008301526152898161524d565b9050919050565b7f656e64646174655f6e6f745f726561636865645f796574000000000000000000600082015250565b60006152c6601783613e30565b91506152d182615290565b602082019050919050565b600060208201905081810360008301526152f5816152b9565b9050919050565b7f4e487b7100000000000000000000000000000000000000000000000000000000600052603260045260246000fd5b7f63616e6e6f745f73656c665f6177617264000000000000000000000000000000600082015250565b6000615361601183613e30565b915061536c8261532b565b602082019050919050565b6000602082019050818103600083015261539081615354565b9050919050565b7f696e76616c69645f77696e6e6572000000000000000000000000000000000000600082015250565b60006153cd600e83613e30565b91506153d882615397565b602082019050919050565b600060208201905081810360008301526153fc816153c0565b9050919050565b600060ff82169050919050565b600061541b82615403565b915060ff82141561542f5761542e61430c565b5b600182019050919050565b600082825260208201905092915050565b600061545682614571565b615460818561543a565b935061546b8361458d565b8060005b8381101561549c57815161548388826145ac565b975061548e836145c4565b92505060018101905061546f565b5085935050505092915050565b60006040820190506154be60008301856144e0565b81810360208301526154d0818461544b565b90509392505050565b7f77726f6e675f636f6e746573745f747970650000000000000000000000000000600082015250565b600061550f601283613e30565b915061551a826154d9565b602082019050919050565b6000602082019050818103600083015261553e81615502565b9050919050565b7f656e645f726563656976696e675f726561636865640000000000000000000000600082015250565b600061557b601583613e30565b915061558682615545565b602082019050919050565b600060208201905081810360008301526155aa8161556e565b9050919050565b60006155bc82613615565b91506155c783613615565b9250827fffffffffffffffffffffffffffffffffffffffffffffffffffffffffffffffff038211156155fc576155fb61430c565b5b828201905092915050565b7f746f6f5f6d616e795f6775657374730000000000000000000000000000000000600082015250565b600061563d600f83613e30565b915061564882615607565b602082019050919050565b6000602082019050818103600083015261566c81615630565b9050919050565b600060408201905061568860008301856144e0565b6156956020830184613b92565b9392505050565b7f696e7075745f61727261795f6c656e677468735f6e6f5f6d6174636800000000600082015250565b60006156d2601c83613e30565b91506156dd8261569c565b602082019050919050565b60006020820190508181036000830152615701816156c5565b9050919050565b600061571382613615565b91507fffffffffffffffffffffffffffffffffffffffffffffffffffffffffffffffff8214156157465761574561430c565b5b600182019050919050565b7f6e6f745f7061727469636970616e740000000000000000000000000000000000600082015250565b6000615787600f83613e30565b915061579282615751565b602082019050919050565b600060208201905081810360008301526157b68161577a565b9050919050565b7f6973737565725f6261645f646f63747970650000000000000000000000000000600082015250565b60006157f3601283613e30565b91506157fe826157bd565b602082019050919050565b60006020820190508181036000830152615822816157e6565b9050919050565b7f7061727469636970616e745f6261645f646f6374797065000000000000000000600082015250565b600061585f601783613e30565b915061586a82615829565b602082019050919050565b6000602082019050818103600083015261588e81615852565b9050919050565b600060c0820190506158aa60008301896144e0565b6158b76020830188614fe6565b81810360408301526158c981876148e3565b90506158d86060830186613b92565b81810360808301526158ea81856148e3565b905081810360a08301526158fe81846148e3565b9050979650505050505050565b7f496e73756666696369656e745f7061796d656e745f6665650000000000000000600082015250565b6000615941601883613e30565b915061594c8261590b565b602082019050919050565b6000602082019050818103600083015261597081615934565b9050919050565b7f6e6f745f6f70656e5f74656e6465720000000000000000000000000000000000600082015250565b60006159ad600f83613e30565b91506159b882615977565b602082019050919050565b600060208201905081810360008301526159dc816159a0565b9050919050565b7f63616e5f6e6f745f72656769737465725f73656c660000000000000000000000600082015250565b6000615a19601583613e30565b9150615a24826159e3565b602082019050919050565b60006020820190508181036000830152615a4881615a0c565b9050919050565b7f6d61785f7061727469636970616e74735f726561636865640000000000000000600082015250565b6000615a85601883613e30565b9150615a9082615a4f565b602082019050919050565b60006020820190508181036000830152615ab481615a78565b9050919050565b7f616c72656164795f70617274696369706174696e670000000000000000000000600082015250565b6000615af1601583613e30565b9150615afc82615abb565b602082019050919050565b60006020820190508181036000830152615b2081615ae4565b9050919050565b6000819050919050565b615b42615b3d82613d97565b615b27565b82525050565b60008160601b9050919050565b6000615b6082615b48565b9050919050565b6000615b7282615b55565b9050919050565b615b8a615b858261389c565b615b67565b82525050565b6000615b9c8285615b31565b602082019150615bac8284615b79565b6014820191508190509392505050565b600081905092915050565b6000615bd2826144ef565b615bdc8185615bbc565b9350615bec818560208601613f94565b80840191505092915050565b6000615c048284615bc7565b91508190509291505056fea2646970667358221220be1b9ed894124959eec8b85f22d2d7f6b0da71051536fb42e55f40bf894c604764736f6c63430008090033",
  "linkReferences": {},
  "deployedLinkReferences": {}
}