{
  "_format": "hh-sol-artifact-1",
  "contractName": "pro_ponLogic",
  "sourceName": "contracts/proponLogic.sol",
  "abi": [
    {
      "inputs": [
        {
          "internalType": "address",
          "name": "_dataContractAddress",
          "type": "address"
        }
      ],
      "stateMutability": "payable",
      "type": "constructor"
    },
    {
      "anonymous": false,
      "inputs": [
        {
          "indexed": true,
          "internalType": "address",
          "name": "sender",
          "type": "address"
        },
        {
          "indexed": false,
          "internalType": "uint256",
          "name": "id",
          "type": "uint256"
        },
        {
          "indexed": false,
          "internalType": "string",
          "name": "name",
          "type": "string"
        }
      ],
      "name": "NewRFPCreated",
      "type": "event"
    },
    {
      "inputs": [
        {
          "internalType": "uint256",
          "name": "_rfpIdx",
          "type": "uint256"
        },
        {
          "internalType": "uint256[]",
          "name": "_docTypes",
          "type": "uint256[]"
        },
        {
          "internalType": "string[]",
          "name": "_names",
          "type": "string[]"
        },
        {
          "internalType": "string[]",
          "name": "_documentHashes",
          "type": "string[]"
        },
        {
          "internalType": "string[]",
          "name": "_idxs",
          "type": "string[]"
        }
      ],
      "name": "addDocuments",
      "outputs": [],
      "stateMutability": "nonpayable",
      "type": "function"
    },
    {
      "inputs": [
        {
          "internalType": "string",
          "name": "_companyId",
          "type": "string"
        },
        {
          "internalType": "uint256",
          "name": "_rfpIndex",
          "type": "uint256"
        }
      ],
      "name": "cancelRFP",
      "outputs": [],
      "stateMutability": "nonpayable",
      "type": "function"
    },
    {
      "inputs": [
        {
          "internalType": "string",
          "name": "_id",
          "type": "string"
        },
        {
          "internalType": "string",
          "name": "_name",
          "type": "string"
        },
        {
          "internalType": "string",
          "name": "_country",
          "type": "string"
        }
      ],
      "name": "createCompany",
      "outputs": [],
      "stateMutability": "payable",
      "type": "function"
    },
    {
      "inputs": [
        {
          "internalType": "string",
          "name": "_name",
          "type": "string"
        },
        {
          "internalType": "string",
          "name": "_description",
          "type": "string"
        },
        {
          "internalType": "string",
          "name": "_rfpwebsite",
          "type": "string"
        },
        {
          "internalType": "uint256",
          "name": "_openDate",
          "type": "uint256"
        },
        {
          "internalType": "uint256",
          "name": "_endReceivingDate",
          "type": "uint256"
        },
        {
          "internalType": "uint256",
          "name": "_endDate",
          "type": "uint256"
        },
        {
          "internalType": "enum proponShared.ContestType",
          "name": "_contestType",
          "type": "uint8"
        },
        {
          "internalType": "string[]",
          "name": "_items",
          "type": "string[]"
        }
      ],
      "name": "createRFP",
      "outputs": [],
      "stateMutability": "payable",
      "type": "function"
    },
    {
      "inputs": [
        {
          "internalType": "uint256",
          "name": "_rfpIndex",
          "type": "uint256"
        },
        {
          "internalType": "string",
          "name": "_companyId",
          "type": "string"
        },
        {
          "internalType": "address[]",
          "name": "winners",
          "type": "address[]"
        }
      ],
      "name": "declareWinners",
      "outputs": [],
      "stateMutability": "nonpayable",
      "type": "function"
    },
    {
      "inputs": [],
      "name": "destroy",
      "outputs": [],
      "stateMutability": "nonpayable",
      "type": "function"
    },
    {
      "inputs": [
        {
          "internalType": "uint256",
          "name": "_rfpId",
          "type": "uint256"
        },
        {
          "internalType": "string",
          "name": "companyId",
          "type": "string"
        },
        {
          "internalType": "address[]",
          "name": "invitedCompanies",
          "type": "address[]"
        }
      ],
      "name": "inviteCompaniestoRFP",
      "outputs": [],
      "stateMutability": "nonpayable",
      "type": "function"
    },
    {
      "inputs": [
        {
          "internalType": "uint256",
          "name": "_rfpId",
          "type": "uint256"
        }
      ],
      "name": "registertoOpenRFP",
      "outputs": [],
      "stateMutability": "payable",
      "type": "function"
    },
    {
      "inputs": [
        {
          "internalType": "address",
          "name": "_newOwner",
          "type": "address"
        }
      ],
      "name": "setOwner",
      "outputs": [],
      "stateMutability": "nonpayable",
      "type": "function"
    },
    {
      "inputs": [],
      "name": "withdraw",
      "outputs": [],
      "stateMutability": "nonpayable",
      "type": "function"
    }
  ],
  "bytecode": "0x6080604052600067ffffffffffffffff8111156200002257620000216200022b565b5b604051908082528060200260200182016040528015620000515781602001602082028036833780820191505090505b5060039080519060200190620000699291906200017d565b50600067ffffffffffffffff8111156200008857620000876200022b565b5b604051908082528060200260200182016040528015620000b75781602001602082028036833780820191505090505b5060049080519060200190620000cf9291906200017d565b5060405162005d4338038062005d438339818101604052810190620000f59190620002c4565b806000806101000a81548173ffffffffffffffffffffffffffffffffffffffff021916908373ffffffffffffffffffffffffffffffffffffffff16021790555033600160006101000a81548173ffffffffffffffffffffffffffffffffffffffff021916908373ffffffffffffffffffffffffffffffffffffffff16021790555050620002f6565b828054828255906000526020600020908101928215620001f9579160200282015b82811115620001f85782518260006101000a81548173ffffffffffffffffffffffffffffffffffffffff021916908373ffffffffffffffffffffffffffffffffffffffff160217905550916020019190600101906200019e565b5b5090506200020891906200020c565b5090565b5b80821115620002275760008160009055506001016200020d565b5090565b7f4e487b7100000000000000000000000000000000000000000000000000000000600052604160045260246000fd5b600080fd5b600073ffffffffffffffffffffffffffffffffffffffff82169050919050565b60006200028c826200025f565b9050919050565b6200029e816200027f565b8114620002aa57600080fd5b50565b600081519050620002be8162000293565b92915050565b600060208284031215620002dd57620002dc6200025a565b5b6000620002ed84828501620002ad565b91505092915050565b615a3d80620003066000396000f3fe6080604052600436106100915760003560e01c80637b60626d116100595780637b60626d1461014457806383197ef014610160578063d2d4ecac14610177578063ed72f89f146101a0578063f1e60d2b146101bc57610091565b80630adc596e1461009657806313af4035146100b25780633ccfd60b146100db578063482baf93146100f257806357c4cab41461011b575b600080fd5b6100b060048036038101906100ab9190613511565b6101e5565b005b3480156100be57600080fd5b506100d960048036038101906100d49190613695565b610aa8565b005b3480156100e757600080fd5b506100f0610b7c565b005b3480156100fe57600080fd5b5061011960048036038101906101149190613785565b610cc1565b005b34801561012757600080fd5b50610142600480360381019061013d9190613810565b6113e3565b005b61015e6004803603810190610159919061386c565b6118fa565b005b34801561016c57600080fd5b50610175611c51565b005b34801561018357600080fd5b5061019e600480360381019061019991906139d6565b611d1c565b005b6101ba60048036038101906101b59190613ac1565b6121b3565b005b3480156101c857600080fd5b506101e360048036038101906101de9190613785565b612786565b005b60006101f18933613091565b905060008054906101000a900473ffffffffffffffffffffffffffffffffffffffff1673ffffffffffffffffffffffffffffffffffffffff166343a2d048826040518263ffffffff1660e01b815260040161024c9190613b07565b60206040518083038186803b15801561026457600080fd5b505afa158015610278573d6000803e3d6000fd5b505050506040513d601f19601f8201168201806040525081019061029c9190613b5a565b156102dc576040517f08c379a00000000000000000000000000000000000000000000000000000000081526004016102d390613be4565b60405180910390fd5b600060018111156102f0576102ef613c04565b5b83600181111561030357610302613c04565b5b146103ab5760008054906101000a900473ffffffffffffffffffffffffffffffffffffffff1673ffffffffffffffffffffffffffffffffffffffff1663afeff8d96040518163ffffffff1660e01b815260040160206040518083038186803b15801561036e57600080fd5b505afa158015610382573d6000803e3d6000fd5b505050506040513d601f19601f820116820180604052508101906103a69190613c48565b61044a565b60008054906101000a900473ffffffffffffffffffffffffffffffffffffffff1673ffffffffffffffffffffffffffffffffffffffff16634e289b886040518163ffffffff1660e01b815260040160206040518083038186803b15801561041157600080fd5b505afa158015610425573d6000803e3d6000fd5b505050506040513d601f19601f820116820180604052508101906104499190613c48565b5b34101561048c576040517f08c379a000000000000000000000000000000000000000000000000000000000815260040161048390613cc1565b60405180910390fd5b60008060009054906101000a900473ffffffffffffffffffffffffffffffffffffffff1673ffffffffffffffffffffffffffffffffffffffff166362bc56e6336040518263ffffffff1660e01b81526004016104e89190613cf0565b60006040518083038186803b15801561050057600080fd5b505afa158015610514573d6000803e3d6000fd5b505050506040513d6000823e3d601f19601f8201168201806040525081019061053d9190613fb5565b905060008160000151905060008151141561058d576040517f08c379a00000000000000000000000000000000000000000000000000000000081526004016105849061404a565b60405180910390fd5b610e104261059b9190614099565b8810156105dd576040517f08c379a00000000000000000000000000000000000000000000000000000000081526004016105d490614119565b60405180910390fd5b86881061061f576040517f08c379a000000000000000000000000000000000000000000000000000000000815260040161061690614185565b60405180910390fd5b858710610661576040517f08c379a0000000000000000000000000000000000000000000000000000000008152600401610658906141f1565b60405180910390fd5b60008060009054906101000a900473ffffffffffffffffffffffffffffffffffffffff1673ffffffffffffffffffffffffffffffffffffffff16631393b9e86040518163ffffffff1660e01b815260040160206040518083038186803b1580156106ca57600080fd5b505afa1580156106de573d6000803e3d6000fd5b505050506040513d601f19601f820116820180604052508101906107029190613c48565b90506000604051806101c001604052808e81526020018d81526020018381526020018c81526020018b81526020018a815260200189815260200160001515815260200160008152602001600067ffffffffffffffff811115610767576107666132a5565b5b6040519080825280602002602001820160405280156107955781602001602082028036833780820191505090505b5081526020018860018111156107ae576107ad613c04565b5b8152602001878152602001600067ffffffffffffffff8111156107d4576107d36132a5565b5b6040519080825280602002602001820160405280156108025781602001602082028036833780820191505090505b5081526020013373ffffffffffffffffffffffffffffffffffffffff16815250905060008054906101000a900473ffffffffffffffffffffffffffffffffffffffff1673ffffffffffffffffffffffffffffffffffffffff1663f9c3c20c866040518263ffffffff1660e01b815260040161087d9190613b07565b600060405180830381600087803b15801561089757600080fd5b505af11580156108ab573d6000803e3d6000fd5b5050505060008054906101000a900473ffffffffffffffffffffffffffffffffffffffff1673ffffffffffffffffffffffffffffffffffffffff1663c356ded583836040518363ffffffff1660e01b815260040161090a9291906145ac565b600060405180830381600087803b15801561092457600080fd5b505af1158015610938573d6000803e3d6000fd5b5050505060008054906101000a900473ffffffffffffffffffffffffffffffffffffffff1673ffffffffffffffffffffffffffffffffffffffff166322f0b32533846040518363ffffffff1660e01b81526004016109979291906145dc565b600060405180830381600087803b1580156109b157600080fd5b505af11580156109c5573d6000803e3d6000fd5b5050505060008054906101000a900473ffffffffffffffffffffffffffffffffffffffff1673ffffffffffffffffffffffffffffffffffffffff16631a3ca1d86040518163ffffffff1660e01b8152600401600060405180830381600087803b158015610a3157600080fd5b505af1158015610a45573d6000803e3d6000fd5b505050503373ffffffffffffffffffffffffffffffffffffffff167fae438a3ef380e4b013ba12bcb929a59140482304040a1d8cf54d25c8e85640e9838f604051610a9192919061463e565b60405180910390a250505050505050505050505050565b600160009054906101000a900473ffffffffffffffffffffffffffffffffffffffff1673ffffffffffffffffffffffffffffffffffffffff163373ffffffffffffffffffffffffffffffffffffffff1614610b38576040517f08c379a0000000000000000000000000000000000000000000000000000000008152600401610b2f906146ba565b60405180910390fd5b80600160006101000a81548173ffffffffffffffffffffffffffffffffffffffff021916908373ffffffffffffffffffffffffffffffffffffffff16021790555050565b600160009054906101000a900473ffffffffffffffffffffffffffffffffffffffff1673ffffffffffffffffffffffffffffffffffffffff163373ffffffffffffffffffffffffffffffffffffffff1614610c0c576040517f08c379a0000000000000000000000000000000000000000000000000000000008152600401610c03906146ba565b60405180910390fd5b600047905060003373ffffffffffffffffffffffffffffffffffffffff1682604051610c379061470b565b60006040518083038185875af1925050503d8060008114610c74576040519150601f19603f3d011682016040523d82523d6000602084013e610c79565b606091505b5050905080610cbd576040517f08c379a0000000000000000000000000000000000000000000000000000000008152600401610cb49061476c565b60405180910390fd5b5050565b81610d7960008054906101000a900473ffffffffffffffffffffffffffffffffffffffff1673ffffffffffffffffffffffffffffffffffffffff1663d6f343c5336040518263ffffffff1660e01b8152600401610d1e9190613cf0565b60006040518083038186803b158015610d3657600080fd5b505afa158015610d4a573d6000803e3d6000fd5b505050506040513d6000823e3d601f19601f82011682018060405250810190610d73919061478c565b826130dc565b610db8576040517f08c379a0000000000000000000000000000000000000000000000000000000008152600401610daf90614821565b60405180910390fd5b833373ffffffffffffffffffffffffffffffffffffffff1660008054906101000a900473ffffffffffffffffffffffffffffffffffffffff1673ffffffffffffffffffffffffffffffffffffffff16633b8a8a16836040518263ffffffff1660e01b8152600401610e299190614841565b60206040518083038186803b158015610e4157600080fd5b505afa158015610e55573d6000803e3d6000fd5b505050506040513d601f19601f82011682018060405250810190610e799190614871565b73ffffffffffffffffffffffffffffffffffffffff1614610ecf576040517f08c379a0000000000000000000000000000000000000000000000000000000008152600401610ec6906148ea565b60405180910390fd5b8460008054906101000a900473ffffffffffffffffffffffffffffffffffffffff1673ffffffffffffffffffffffffffffffffffffffff16638cbd7834826040518263ffffffff1660e01b8152600401610f299190614841565b60206040518083038186803b158015610f4157600080fd5b505afa158015610f55573d6000803e3d6000fd5b505050506040513d601f19601f82011682018060405250810190610f799190613b5a565b15610fb9576040517f08c379a0000000000000000000000000000000000000000000000000000000008152600401610fb090614956565b60405180910390fd5b60008060009054906101000a900473ffffffffffffffffffffffffffffffffffffffff1673ffffffffffffffffffffffffffffffffffffffff16632f72af34886040518263ffffffff1660e01b81526004016110159190614841565b60006040518083038186803b15801561102d57600080fd5b505afa158015611041573d6000803e3d6000fd5b505050506040513d6000823e3d601f19601f8201168201806040525081019061106a9190614ccd565b905060018081111561107f5761107e613c04565b5b816101400151600181111561109757611096613c04565b5b146110d7576040517f08c379a00000000000000000000000000000000000000000000000000000000081526004016110ce90614d62565b60405180910390fd5b428160a001511161111d576040517f08c379a000000000000000000000000000000000000000000000000000000000815260040161111490614dce565b60405180910390fd5b60008054906101000a900473ffffffffffffffffffffffffffffffffffffffff1673ffffffffffffffffffffffffffffffffffffffff16635a6167c96040518163ffffffff1660e01b815260040160206040518083038186803b15801561118357600080fd5b505afa158015611197573d6000803e3d6000fd5b505050506040513d601f19601f820116820180604052508101906111bb9190613c48565b8551826101200151516111ce9190614dee565b111561120f576040517f08c379a000000000000000000000000000000000000000000000000000000000815260040161120690614e90565b60405180910390fd5b60005b85518110156113d95760006001905086828151811061123457611233614eb0565b5b602002602001015173ffffffffffffffffffffffffffffffffffffffff163373ffffffffffffffffffffffffffffffffffffffff16141561127557506113c6565b600083610120015151905060005b818110156113145788848151811061129e5761129d614eb0565b5b602002602001015173ffffffffffffffffffffffffffffffffffffffff1685610120015182815181106112d4576112d3614eb0565b5b602002602001015173ffffffffffffffffffffffffffffffffffffffff1614156113015760009250611314565b808061130c90614edf565b915050611283565b5081156113c35760008054906101000a900473ffffffffffffffffffffffffffffffffffffffff1673ffffffffffffffffffffffffffffffffffffffff1663d2f1c77c8b8a868151811061136b5761136a614eb0565b5b60200260200101516040518363ffffffff1660e01b8152600401611390929190614f28565b600060405180830381600087803b1580156113aa57600080fd5b505af11580156113be573d6000803e3d6000fd5b505050505b50505b80806113d190614edf565b915050611212565b5050505050505050565b8161149b60008054906101000a900473ffffffffffffffffffffffffffffffffffffffff1673ffffffffffffffffffffffffffffffffffffffff1663d6f343c5336040518263ffffffff1660e01b81526004016114409190613cf0565b60006040518083038186803b15801561145857600080fd5b505afa15801561146c573d6000803e3d6000fd5b505050506040513d6000823e3d601f19601f82011682018060405250810190611495919061478c565b826130dc565b6114da576040517f08c379a00000000000000000000000000000000000000000000000000000000081526004016114d190614821565b60405180910390fd5b813373ffffffffffffffffffffffffffffffffffffffff1660008054906101000a900473ffffffffffffffffffffffffffffffffffffffff1673ffffffffffffffffffffffffffffffffffffffff16633b8a8a16836040518263ffffffff1660e01b815260040161154b9190614841565b60206040518083038186803b15801561156357600080fd5b505afa158015611577573d6000803e3d6000fd5b505050506040513d601f19601f8201168201806040525081019061159b9190614871565b73ffffffffffffffffffffffffffffffffffffffff16146115f1576040517f08c379a00000000000000000000000000000000000000000000000000000000081526004016115e8906148ea565b60405180910390fd5b8260008054906101000a900473ffffffffffffffffffffffffffffffffffffffff1673ffffffffffffffffffffffffffffffffffffffff16638cbd7834826040518263ffffffff1660e01b815260040161164b9190614841565b60206040518083038186803b15801561166357600080fd5b505afa158015611677573d6000803e3d6000fd5b505050506040513d601f19601f8201168201806040525081019061169b9190613b5a565b156116db576040517f08c379a00000000000000000000000000000000000000000000000000000000081526004016116d290614956565b60405180910390fd5b60008060009054906101000a900473ffffffffffffffffffffffffffffffffffffffff1673ffffffffffffffffffffffffffffffffffffffff16632f72af34866040518263ffffffff1660e01b81526004016117379190614841565b60006040518083038186803b15801561174f57600080fd5b505afa158015611763573d6000803e3d6000fd5b505050506040513d6000823e3d601f19601f8201168201806040525081019061178c9190614ccd565b9050600081610180015151146117d7576040517f08c379a00000000000000000000000000000000000000000000000000000000081526004016117ce90614f9d565b60405180910390fd5b60008054906101000a900473ffffffffffffffffffffffffffffffffffffffff1673ffffffffffffffffffffffffffffffffffffffff1663a0b437df8660016040518363ffffffff1660e01b8152600401611833929190614fcc565b600060405180830381600087803b15801561184d57600080fd5b505af1158015611861573d6000803e3d6000fd5b5050505060008054906101000a900473ffffffffffffffffffffffffffffffffffffffff1673ffffffffffffffffffffffffffffffffffffffff166384f816e586426040518363ffffffff1660e01b81526004016118c0929190614ff5565b600060405180830381600087803b1580156118da57600080fd5b505af11580156118ee573d6000803e3d6000fd5b50505050505050505050565b60008054906101000a900473ffffffffffffffffffffffffffffffffffffffff1673ffffffffffffffffffffffffffffffffffffffff166390287940846040518263ffffffff1660e01b8152600401611953919061501e565b60206040518083038186803b15801561196b57600080fd5b505afa15801561197f573d6000803e3d6000fd5b505050506040513d601f19601f820116820180604052508101906119a39190613b5a565b156119e3576040517f08c379a00000000000000000000000000000000000000000000000000000000081526004016119da9061508c565b60405180910390fd5b60008054906101000a900473ffffffffffffffffffffffffffffffffffffffff1673ffffffffffffffffffffffffffffffffffffffff1663215cf05d6040518163ffffffff1660e01b815260040160206040518083038186803b158015611a4957600080fd5b505afa158015611a5d573d6000803e3d6000fd5b505050506040513d601f19601f82011682018060405250810190611a819190613c48565b341015611ac3576040517f08c379a0000000000000000000000000000000000000000000000000000000008152600401611aba90613cc1565b60405180910390fd5b60008060009054906101000a900473ffffffffffffffffffffffffffffffffffffffff1673ffffffffffffffffffffffffffffffffffffffff1663d6f343c5336040518263ffffffff1660e01b8152600401611b1f9190613cf0565b60006040518083038186803b158015611b3757600080fd5b505afa158015611b4b573d6000803e3d6000fd5b505050506040513d6000823e3d601f19601f82011682018060405250810190611b74919061478c565b90506000815114611bba576040517f08c379a0000000000000000000000000000000000000000000000000000000008152600401611bb1906150f8565b60405180910390fd5b60008054906101000a900473ffffffffffffffffffffffffffffffffffffffff1673ffffffffffffffffffffffffffffffffffffffff1663e31fc5bf338686866040518563ffffffff1660e01b8152600401611c199493929190615118565b600060405180830381600087803b158015611c3357600080fd5b505af1158015611c47573d6000803e3d6000fd5b5050505050505050565b600160009054906101000a900473ffffffffffffffffffffffffffffffffffffffff1673ffffffffffffffffffffffffffffffffffffffff163373ffffffffffffffffffffffffffffffffffffffff1614611ce1576040517f08c379a0000000000000000000000000000000000000000000000000000000008152600401611cd8906146ba565b60405180910390fd5b600160009054906101000a900473ffffffffffffffffffffffffffffffffffffffff1673ffffffffffffffffffffffffffffffffffffffff16ff5b82518451148015611d2e575081518351145b8015611d3b575080518251145b611d7a576040517f08c379a0000000000000000000000000000000000000000000000000000000008152600401611d71906151be565b60405180910390fd5b60008060009054906101000a900473ffffffffffffffffffffffffffffffffffffffff1673ffffffffffffffffffffffffffffffffffffffff16632f72af34876040518263ffffffff1660e01b8152600401611dd69190614841565b60006040518083038186803b158015611dee57600080fd5b505afa158015611e02573d6000803e3d6000fd5b505050506040513d6000823e3d601f19601f82011682018060405250810190611e2b9190614ccd565b90506000816101a0015173ffffffffffffffffffffffffffffffffffffffff163373ffffffffffffffffffffffffffffffffffffffff1614905080611f345760008083610120015151905060005b81811015611ef0578461012001518181518110611e9957611e98614eb0565b5b602002602001015173ffffffffffffffffffffffffffffffffffffffff163373ffffffffffffffffffffffffffffffffffffffff161415611edd5760019250611ef0565b8080611ee890614edf565b915050611e79565b5081611f31576040517f08c379a0000000000000000000000000000000000000000000000000000000008152600401611f289061522a565b60405180910390fd5b50505b6000805b86518110156121a8576000888281518110611f5657611f55614eb0565b5b602002602001015190506000600a811115611f7457611f73613c04565b5b60ff168160ff161480611f9f57506001600a811115611f9657611f95613c04565b5b60ff168160ff16145b80611fc257506002600a811115611fb957611fb8613c04565b5b60ff168160ff16145b9250831561200f578261200a576040517f08c379a000000000000000000000000000000000000000000000000000000000815260040161200190615296565b60405180910390fd5b612097565b8215612050576040517f08c379a000000000000000000000000000000000000000000000000000000000815260040161204790615302565b60405180910390fd5b428560a0015111612096576040517f08c379a000000000000000000000000000000000000000000000000000000000815260040161208d90614dce565b60405180910390fd5b5b60008054906101000a900473ffffffffffffffffffffffffffffffffffffffff1673ffffffffffffffffffffffffffffffffffffffff1663d88f15a78b8b85815181106120e7576120e6614eb0565b5b60200260200101518b868151811061210257612101614eb0565b5b6020026020010151338c888151811061211e5761211d614eb0565b5b60200260200101518c898151811061213957612138614eb0565b5b60200260200101516040518763ffffffff1660e01b815260040161216296959493929190615322565b600060405180830381600087803b15801561217c57600080fd5b505af1158015612190573d6000803e3d6000fd5b505050505080806121a090614edf565b915050611f38565b505050505050505050565b8060008054906101000a900473ffffffffffffffffffffffffffffffffffffffff1673ffffffffffffffffffffffffffffffffffffffff16638cbd7834826040518263ffffffff1660e01b815260040161220d9190614841565b60206040518083038186803b15801561222557600080fd5b505afa158015612239573d6000803e3d6000fd5b505050506040513d601f19601f8201168201806040525081019061225d9190613b5a565b1561229d576040517f08c379a000000000000000000000000000000000000000000000000000000000815260040161229490614956565b60405180910390fd5b60008060009054906101000a900473ffffffffffffffffffffffffffffffffffffffff1673ffffffffffffffffffffffffffffffffffffffff16632f72af34846040518263ffffffff1660e01b81526004016122f99190614841565b60006040518083038186803b15801561231157600080fd5b505afa158015612325573d6000803e3d6000fd5b505050506040513d6000823e3d601f19601f8201168201806040525081019061234e9190614ccd565b905060008054906101000a900473ffffffffffffffffffffffffffffffffffffffff1673ffffffffffffffffffffffffffffffffffffffff1663be38013b6040518163ffffffff1660e01b815260040160206040518083038186803b1580156123b657600080fd5b505afa1580156123ca573d6000803e3d6000fd5b505050506040513d601f19601f820116820180604052508101906123ee9190613c48565b341015612430576040517f08c379a0000000000000000000000000000000000000000000000000000000008152600401612427906153e4565b60405180910390fd5b6000600181111561244457612443613c04565b5b816101400151600181111561245c5761245b613c04565b5b1461249c576040517f08c379a000000000000000000000000000000000000000000000000000000000815260040161249390615450565b60405180910390fd5b428160a00151116124e2576040517f08c379a00000000000000000000000000000000000000000000000000000000081526004016124d990614dce565b60405180910390fd5b806101a0015173ffffffffffffffffffffffffffffffffffffffff163373ffffffffffffffffffffffffffffffffffffffff161415612556576040517f08c379a000000000000000000000000000000000000000000000000000000000815260040161254d906154bc565b60405180910390fd5b60008054906101000a900473ffffffffffffffffffffffffffffffffffffffff1673ffffffffffffffffffffffffffffffffffffffff1663ecbb7b4a6040518163ffffffff1660e01b815260040160206040518083038186803b1580156125bc57600080fd5b505afa1580156125d0573d6000803e3d6000fd5b505050506040513d601f19601f820116820180604052508101906125f49190613c48565b816101200151511061263b576040517f08c379a000000000000000000000000000000000000000000000000000000000815260040161263290615528565b60405180910390fd5b600081610120015151905060005b818110156126f2573373ffffffffffffffffffffffffffffffffffffffff1683610120015182815181106126805761267f614eb0565b5b602002602001015173ffffffffffffffffffffffffffffffffffffffff1614156126df576040517f08c379a00000000000000000000000000000000000000000000000000000000081526004016126d690615594565b60405180910390fd5b80806126ea90614edf565b915050612649565b5060008054906101000a900473ffffffffffffffffffffffffffffffffffffffff1673ffffffffffffffffffffffffffffffffffffffff1663d2f1c77c85336040518363ffffffff1660e01b815260040161274e929190614f28565b600060405180830381600087803b15801561276857600080fd5b505af115801561277c573d6000803e3d6000fd5b5050505050505050565b8161283e60008054906101000a900473ffffffffffffffffffffffffffffffffffffffff1673ffffffffffffffffffffffffffffffffffffffff1663d6f343c5336040518263ffffffff1660e01b81526004016127e39190613cf0565b60006040518083038186803b1580156127fb57600080fd5b505afa15801561280f573d6000803e3d6000fd5b505050506040513d6000823e3d601f19601f82011682018060405250810190612838919061478c565b826130dc565b61287d576040517f08c379a000000000000000000000000000000000000000000000000000000000815260040161287490614821565b60405180910390fd5b833373ffffffffffffffffffffffffffffffffffffffff1660008054906101000a900473ffffffffffffffffffffffffffffffffffffffff1673ffffffffffffffffffffffffffffffffffffffff16633b8a8a16836040518263ffffffff1660e01b81526004016128ee9190614841565b60206040518083038186803b15801561290657600080fd5b505afa15801561291a573d6000803e3d6000fd5b505050506040513d601f19601f8201168201806040525081019061293e9190614871565b73ffffffffffffffffffffffffffffffffffffffff1614612994576040517f08c379a000000000000000000000000000000000000000000000000000000000815260040161298b906148ea565b60405180910390fd5b8460008054906101000a900473ffffffffffffffffffffffffffffffffffffffff1673ffffffffffffffffffffffffffffffffffffffff16638cbd7834826040518263ffffffff1660e01b81526004016129ee9190614841565b60206040518083038186803b158015612a0657600080fd5b505afa158015612a1a573d6000803e3d6000fd5b505050506040513d601f19601f82011682018060405250810190612a3e9190613b5a565b15612a7e576040517f08c379a0000000000000000000000000000000000000000000000000000000008152600401612a7590614956565b60405180910390fd5b60008060009054906101000a900473ffffffffffffffffffffffffffffffffffffffff1673ffffffffffffffffffffffffffffffffffffffff16632f72af34886040518263ffffffff1660e01b8152600401612ada9190614841565b60006040518083038186803b158015612af257600080fd5b505afa158015612b06573d6000803e3d6000fd5b505050506040513d6000823e3d601f19601f82011682018060405250810190612b2f9190614ccd565b905060008161018001515114612b7a576040517f08c379a0000000000000000000000000000000000000000000000000000000008152600401612b7190614f9d565b60405180910390fd5b8060e0015115612bbf576040517f08c379a0000000000000000000000000000000000000000000000000000000008152600401612bb690614956565b60405180910390fd5b60008161016001515190506000865190506000821480612bdf5750600182145b8015612bec575060018751145b80612c03575060028210158015612c0257508181145b5b612c42576040517f08c379a0000000000000000000000000000000000000000000000000000000008152600401612c3990615600565b60405180910390fd5b8260c00151421015612c89576040517f08c379a0000000000000000000000000000000000000000000000000000000008152600401612c809061566c565b60405180910390fd5b60005b81811015612ec6576000888281518110612ca957612ca8614eb0565b5b602002602001015190503373ffffffffffffffffffffffffffffffffffffffff168173ffffffffffffffffffffffffffffffffffffffff161415612d22576040517f08c379a0000000000000000000000000000000000000000000000000000000008152600401612d19906156d8565b60405180910390fd5b612d3181866101200151613148565b612d70576040517f08c379a0000000000000000000000000000000000000000000000000000000008152600401612d6790615744565b60405180910390fd5b600260008273ffffffffffffffffffffffffffffffffffffffff1673ffffffffffffffffffffffffffffffffffffffff16815260200190815260200160002060009054906101000a900460ff16612eb2576001600260008373ffffffffffffffffffffffffffffffffffffffff1673ffffffffffffffffffffffffffffffffffffffff16815260200190815260200160002060006101000a81548160ff021916908315150217905550600073ffffffffffffffffffffffffffffffffffffffff168173ffffffffffffffffffffffffffffffffffffffff1614612eb1576004819080600181540180825580915050600190039060005260206000200160009091909190916101000a81548173ffffffffffffffffffffffffffffffffffffffff021916908373ffffffffffffffffffffffffffffffffffffffff1602179055505b5b508080612ebe90614edf565b915050612c8c565b5060008054906101000a900473ffffffffffffffffffffffffffffffffffffffff1673ffffffffffffffffffffffffffffffffffffffff1663f8195d6c8a896040518363ffffffff1660e01b8152600401612f229291906157d3565b600060405180830381600087803b158015612f3c57600080fd5b505af1158015612f50573d6000803e3d6000fd5b5050505060008054906101000a900473ffffffffffffffffffffffffffffffffffffffff1673ffffffffffffffffffffffffffffffffffffffff1663f0174dc48a60046040518363ffffffff1660e01b8152600401612fb09291906158ef565b600060405180830381600087803b158015612fca57600080fd5b505af1158015612fde573d6000803e3d6000fd5b5050505060036004908054612ff4929190613207565b5060005b81811015613085576000600260008a848151811061301957613018614eb0565b5b602002602001015173ffffffffffffffffffffffffffffffffffffffff1673ffffffffffffffffffffffffffffffffffffffff16815260200190815260200160002060006101000a81548160ff021916908315150217905550808061307d90614edf565b915050612ff8565b50505050505050505050565b60008083805190602001209050600081846040516020016130b3929190615988565b604051602081830303815290604052905060008180519060200120905080935050505092915050565b600081518351146130f05760009050613142565b8160405160200161310191906159f0565b604051602081830303815290604052805190602001208360405160200161312891906159f0565b604051602081830303815290604052805190602001201490505b92915050565b600080600090505b82518110156131fb5782818151811061316c5761316b614eb0565b5b602002602001015173ffffffffffffffffffffffffffffffffffffffff168473ffffffffffffffffffffffffffffffffffffffff1614806131d95750600073ffffffffffffffffffffffffffffffffffffffff168473ffffffffffffffffffffffffffffffffffffffff16145b156131e8576001915050613201565b80806131f390614edf565b915050613150565b50600090505b92915050565b8280548282559060005260206000209081019282156132485760005260206000209182015b8281111561324757825482559160010191906001019061322c565b5b5090506132559190613259565b5090565b5b8082111561327257600081600090555060010161325a565b5090565b6000604051905090565b600080fd5b600080fd5b600080fd5b600080fd5b6000601f19601f8301169050919050565b7f4e487b7100000000000000000000000000000000000000000000000000000000600052604160045260246000fd5b6132dd82613294565b810181811067ffffffffffffffff821117156132fc576132fb6132a5565b5b80604052505050565b600061330f613276565b905061331b82826132d4565b919050565b600067ffffffffffffffff82111561333b5761333a6132a5565b5b61334482613294565b9050602081019050919050565b82818337600083830152505050565b600061337361336e84613320565b613305565b90508281526020810184848401111561338f5761338e61328f565b5b61339a848285613351565b509392505050565b600082601f8301126133b7576133b661328a565b5b81356133c7848260208601613360565b91505092915050565b6000819050919050565b6133e3816133d0565b81146133ee57600080fd5b50565b600081359050613400816133da565b92915050565b6002811061341357600080fd5b50565b60008135905061342581613406565b92915050565b600067ffffffffffffffff821115613446576134456132a5565b5b602082029050602081019050919050565b600080fd5b600061346f61346a8461342b565b613305565b9050808382526020820190506020840283018581111561349257613491613457565b5b835b818110156134d957803567ffffffffffffffff8111156134b7576134b661328a565b5b8086016134c489826133a2565b85526020850194505050602081019050613494565b5050509392505050565b600082601f8301126134f8576134f761328a565b5b813561350884826020860161345c565b91505092915050565b600080600080600080600080610100898b03121561353257613531613280565b5b600089013567ffffffffffffffff8111156135505761354f613285565b5b61355c8b828c016133a2565b985050602089013567ffffffffffffffff81111561357d5761357c613285565b5b6135898b828c016133a2565b975050604089013567ffffffffffffffff8111156135aa576135a9613285565b5b6135b68b828c016133a2565b96505060606135c78b828c016133f1565b95505060806135d88b828c016133f1565b94505060a06135e98b828c016133f1565b93505060c06135fa8b828c01613416565b92505060e089013567ffffffffffffffff81111561361b5761361a613285565b5b6136278b828c016134e3565b9150509295985092959890939650565b600073ffffffffffffffffffffffffffffffffffffffff82169050919050565b600061366282613637565b9050919050565b61367281613657565b811461367d57600080fd5b50565b60008135905061368f81613669565b92915050565b6000602082840312156136ab576136aa613280565b5b60006136b984828501613680565b91505092915050565b600067ffffffffffffffff8211156136dd576136dc6132a5565b5b602082029050602081019050919050565b60006137016136fc846136c2565b613305565b9050808382526020820190506020840283018581111561372457613723613457565b5b835b8181101561374d57806137398882613680565b845260208401935050602081019050613726565b5050509392505050565b600082601f83011261376c5761376b61328a565b5b813561377c8482602086016136ee565b91505092915050565b60008060006060848603121561379e5761379d613280565b5b60006137ac868287016133f1565b935050602084013567ffffffffffffffff8111156137cd576137cc613285565b5b6137d9868287016133a2565b925050604084013567ffffffffffffffff8111156137fa576137f9613285565b5b61380686828701613757565b9150509250925092565b6000806040838503121561382757613826613280565b5b600083013567ffffffffffffffff81111561384557613844613285565b5b613851858286016133a2565b9250506020613862858286016133f1565b9150509250929050565b60008060006060848603121561388557613884613280565b5b600084013567ffffffffffffffff8111156138a3576138a2613285565b5b6138af868287016133a2565b935050602084013567ffffffffffffffff8111156138d0576138cf613285565b5b6138dc868287016133a2565b925050604084013567ffffffffffffffff8111156138fd576138fc613285565b5b613909868287016133a2565b9150509250925092565b600067ffffffffffffffff82111561392e5761392d6132a5565b5b602082029050602081019050919050565b600061395261394d84613913565b613305565b9050808382526020820190506020840283018581111561397557613974613457565b5b835b8181101561399e578061398a88826133f1565b845260208401935050602081019050613977565b5050509392505050565b600082601f8301126139bd576139bc61328a565b5b81356139cd84826020860161393f565b91505092915050565b600080600080600060a086880312156139f2576139f1613280565b5b6000613a00888289016133f1565b955050602086013567ffffffffffffffff811115613a2157613a20613285565b5b613a2d888289016139a8565b945050604086013567ffffffffffffffff811115613a4e57613a4d613285565b5b613a5a888289016134e3565b935050606086013567ffffffffffffffff811115613a7b57613a7a613285565b5b613a87888289016134e3565b925050608086013567ffffffffffffffff811115613aa857613aa7613285565b5b613ab4888289016134e3565b9150509295509295909350565b600060208284031215613ad757613ad6613280565b5b6000613ae5848285016133f1565b91505092915050565b6000819050919050565b613b0181613aee565b82525050565b6000602082019050613b1c6000830184613af8565b92915050565b60008115159050919050565b613b3781613b22565b8114613b4257600080fd5b50565b600081519050613b5481613b2e565b92915050565b600060208284031215613b7057613b6f613280565b5b6000613b7e84828501613b45565b91505092915050565b600082825260208201905092915050565b7f72667069645f616c72656164795f74616b656e00000000000000000000000000600082015250565b6000613bce601383613b87565b9150613bd982613b98565b602082019050919050565b60006020820190508181036000830152613bfd81613bc1565b9050919050565b7f4e487b7100000000000000000000000000000000000000000000000000000000600052602160045260246000fd5b600081519050613c42816133da565b92915050565b600060208284031215613c5e57613c5d613280565b5b6000613c6c84828501613c33565b91505092915050565b7f496e73756666696369656e745f7061796d656e74000000000000000000000000600082015250565b6000613cab601483613b87565b9150613cb682613c75565b602082019050919050565b60006020820190508181036000830152613cda81613c9e565b9050919050565b613cea81613657565b82525050565b6000602082019050613d056000830184613ce1565b92915050565b600080fd5b600080fd5b60005b83811015613d33578082015181840152602081019050613d18565b83811115613d42576000848401525b50505050565b6000613d5b613d5684613320565b613305565b905082815260208101848484011115613d7757613d7661328f565b5b613d82848285613d15565b509392505050565b600082601f830112613d9f57613d9e61328a565b5b8151613daf848260208601613d48565b91505092915050565b600061ffff82169050919050565b613dcf81613db8565b8114613dda57600080fd5b50565b600081519050613dec81613dc6565b92915050565b6000613e05613e0084613913565b613305565b90508083825260208201905060208402830185811115613e2857613e27613457565b5b835b81811015613e515780613e3d8882613c33565b845260208401935050602081019050613e2a565b5050509392505050565b600082601f830112613e7057613e6f61328a565b5b8151613e80848260208601613df2565b91505092915050565b600060c08284031215613e9f57613e9e613d0b565b5b613ea960c0613305565b9050600082015167ffffffffffffffff811115613ec957613ec8613d10565b5b613ed584828501613d8a565b600083015250602082015167ffffffffffffffff811115613ef957613ef8613d10565b5b613f0584828501613d8a565b602083015250604082015167ffffffffffffffff811115613f2957613f28613d10565b5b613f3584828501613d8a565b6040830152506060613f4984828501613ddd565b606083015250608082015167ffffffffffffffff811115613f6d57613f6c613d10565b5b613f7984828501613e5b565b60808301525060a082015167ffffffffffffffff811115613f9d57613f9c613d10565b5b613fa984828501613e5b565b60a08301525092915050565b600060208284031215613fcb57613fca613280565b5b600082015167ffffffffffffffff811115613fe957613fe8613285565b5b613ff584828501613e89565b91505092915050565b7f616464726573735f6e6f745f61646d696e000000000000000000000000000000600082015250565b6000614034601183613b87565b915061403f82613ffe565b602082019050919050565b6000602082019050818103600083015261406381614027565b9050919050565b7f4e487b7100000000000000000000000000000000000000000000000000000000600052601160045260246000fd5b60006140a4826133d0565b91506140af836133d0565b9250828210156140c2576140c161406a565b5b828203905092915050565b7f6f70656e646174655f626568696e645f746f6461790000000000000000000000600082015250565b6000614103601583613b87565b915061410e826140cd565b602082019050919050565b60006020820190508181036000830152614132816140f6565b9050919050565b7f696e697469616c5f646174655f77726f6e670000000000000000000000000000600082015250565b600061416f601283613b87565b915061417a82614139565b602082019050919050565b6000602082019050818103600083015261419e81614162565b9050919050565b7f726563656976696e675f646174655f77726f6e67000000000000000000000000600082015250565b60006141db601483613b87565b91506141e6826141a5565b602082019050919050565b6000602082019050818103600083015261420a816141ce565b9050919050565b61421a816133d0565b82525050565b600081519050919050565b600082825260208201905092915050565b600061424782614220565b614251818561422b565b9350614261818560208601613d15565b61426a81613294565b840191505092915050565b61427e816133d0565b82525050565b61428d81613b22565b82525050565b600081519050919050565b600082825260208201905092915050565b6000819050602082019050919050565b6142c881613657565b82525050565b60006142da83836142bf565b60208301905092915050565b6000602082019050919050565b60006142fe82614293565b614308818561429e565b9350614313836142af565b8060005b8381101561434457815161432b88826142ce565b9750614336836142e6565b925050600181019050614317565b5085935050505092915050565b6002811061436257614361613c04565b5b50565b600081905061437382614351565b919050565b600061438382614365565b9050919050565b61439381614378565b82525050565b600081519050919050565b600082825260208201905092915050565b6000819050602082019050919050565b60006143d1838361423c565b905092915050565b6000602082019050919050565b60006143f182614399565b6143fb81856143a4565b93508360208202850161440d856143b5565b8060005b85811015614449578484038952815161442a85826143c5565b9450614435836143d9565b925060208a01995050600181019050614411565b50829750879550505050505092915050565b60006101c0830160008301518482036000860152614479828261423c565b91505060208301518482036020860152614493828261423c565b91505060408301516144a86040860182614275565b50606083015184820360608601526144c0828261423c565b91505060808301516144d56080860182614275565b5060a08301516144e860a0860182614275565b5060c08301516144fb60c0860182614275565b5060e083015161450e60e0860182614284565b50610100830151614523610100860182614275565b5061012083015184820361012086015261453d82826142f3565b91505061014083015161455461014086018261438a565b5061016083015184820361016086015261456e82826143e6565b91505061018083015184820361018086015261458a82826142f3565b9150506101a08301516145a16101a08601826142bf565b508091505092915050565b60006040820190506145c16000830185614211565b81810360208301526145d3818461445b565b90509392505050565b60006040820190506145f16000830185613ce1565b6145fe6020830184614211565b9392505050565b600061461082614220565b61461a8185613b87565b935061462a818560208601613d15565b61463381613294565b840191505092915050565b60006040820190506146536000830185614211565b81810360208301526146658184614605565b90509392505050565b7f4f6e6c795f6f776e65725f616c6c6f7765640000000000000000000000000000600082015250565b60006146a4601283613b87565b91506146af8261466e565b602082019050919050565b600060208201905081810360008301526146d381614697565b9050919050565b600081905092915050565b50565b60006146f56000836146da565b9150614700826146e5565b600082019050919050565b6000614716826146e8565b9150819050919050565b7f6661696c65645f77697468647261770000000000000000000000000000000000600082015250565b6000614756600f83613b87565b915061476182614720565b602082019050919050565b6000602082019050818103600083015261478581614749565b9050919050565b6000602082840312156147a2576147a1613280565b5b600082015167ffffffffffffffff8111156147c0576147bf613285565b5b6147cc84828501613d8a565b91505092915050565b7f4f6e6c795f61646d696e5f63616e5f706572666f726d00000000000000000000600082015250565b600061480b601683613b87565b9150614816826147d5565b602082019050919050565b6000602082019050818103600083015261483a816147fe565b9050919050565b60006020820190506148566000830184614211565b92915050565b60008151905061486b81613669565b92915050565b60006020828403121561488757614886613280565b5b60006148958482850161485c565b91505092915050565b7f4f6e6c795f6973737565725f63616e5f706572666f726d000000000000000000600082015250565b60006148d4601783613b87565b91506148df8261489e565b602082019050919050565b60006020820190508181036000830152614903816148c7565b9050919050565b7f616c72656164795f63616e63656c656400000000000000000000000000000000600082015250565b6000614940601083613b87565b915061494b8261490a565b602082019050919050565b6000602082019050818103600083015261496f81614933565b9050919050565b6000614989614984846136c2565b613305565b905080838252602082019050602084028301858111156149ac576149ab613457565b5b835b818110156149d557806149c1888261485c565b8452602084019350506020810190506149ae565b5050509392505050565b600082601f8301126149f4576149f361328a565b5b8151614a04848260208601614976565b91505092915050565b600081519050614a1c81613406565b92915050565b6000614a35614a308461342b565b613305565b90508083825260208201905060208402830185811115614a5857614a57613457565b5b835b81811015614a9f57805167ffffffffffffffff811115614a7d57614a7c61328a565b5b808601614a8a8982613d8a565b85526020850194505050602081019050614a5a565b5050509392505050565b600082601f830112614abe57614abd61328a565b5b8151614ace848260208601614a22565b91505092915050565b60006101c08284031215614aee57614aed613d0b565b5b614af96101c0613305565b9050600082015167ffffffffffffffff811115614b1957614b18613d10565b5b614b2584828501613d8a565b600083015250602082015167ffffffffffffffff811115614b4957614b48613d10565b5b614b5584828501613d8a565b6020830152506040614b6984828501613c33565b604083015250606082015167ffffffffffffffff811115614b8d57614b8c613d10565b5b614b9984828501613d8a565b6060830152506080614bad84828501613c33565b60808301525060a0614bc184828501613c33565b60a08301525060c0614bd584828501613c33565b60c08301525060e0614be984828501613b45565b60e083015250610100614bfe84828501613c33565b6101008301525061012082015167ffffffffffffffff811115614c2457614c23613d10565b5b614c30848285016149df565b61012083015250610140614c4684828501614a0d565b6101408301525061016082015167ffffffffffffffff811115614c6c57614c6b613d10565b5b614c7884828501614aa9565b6101608301525061018082015167ffffffffffffffff811115614c9e57614c9d613d10565b5b614caa848285016149df565b610180830152506101a0614cc08482850161485c565b6101a08301525092915050565b600060208284031215614ce357614ce2613280565b5b600082015167ffffffffffffffff811115614d0157614d00613285565b5b614d0d84828501614ad7565b91505092915050565b7f77726f6e675f636f6e746573745f747970650000000000000000000000000000600082015250565b6000614d4c601283613b87565b9150614d5782614d16565b602082019050919050565b60006020820190508181036000830152614d7b81614d3f565b9050919050565b7f656e645f726563656976696e675f726561636865640000000000000000000000600082015250565b6000614db8601583613b87565b9150614dc382614d82565b602082019050919050565b60006020820190508181036000830152614de781614dab565b9050919050565b6000614df9826133d0565b9150614e04836133d0565b9250827fffffffffffffffffffffffffffffffffffffffffffffffffffffffffffffffff03821115614e3957614e3861406a565b5b828201905092915050565b7f746f6f5f6d616e795f6775657374730000000000000000000000000000000000600082015250565b6000614e7a600f83613b87565b9150614e8582614e44565b602082019050919050565b60006020820190508181036000830152614ea981614e6d565b9050919050565b7f4e487b7100000000000000000000000000000000000000000000000000000000600052603260045260246000fd5b6000614eea826133d0565b91507fffffffffffffffffffffffffffffffffffffffffffffffffffffffffffffffff821415614f1d57614f1c61406a565b5b600182019050919050565b6000604082019050614f3d6000830185614211565b614f4a6020830184613ce1565b9392505050565b7f7266705f616c72656164795f6177617264656400000000000000000000000000600082015250565b6000614f87601383613b87565b9150614f9282614f51565b602082019050919050565b60006020820190508181036000830152614fb681614f7a565b9050919050565b614fc681613b22565b82525050565b6000604082019050614fe16000830185614211565b614fee6020830184614fbd565b9392505050565b600060408201905061500a6000830185614211565b6150176020830184614211565b9392505050565b600060208201905081810360008301526150388184614605565b905092915050565b7f69645f616c72656164795f657869737473000000000000000000000000000000600082015250565b6000615076601183613b87565b915061508182615040565b602082019050919050565b600060208201905081810360008301526150a581615069565b9050919050565b7f616464726573735f616c72656164795f61646d696e5f6f665f636f6d70616e79600082015250565b60006150e2602083613b87565b91506150ed826150ac565b602082019050919050565b60006020820190508181036000830152615111816150d5565b9050919050565b600060808201905061512d6000830187613ce1565b818103602083015261513f8186614605565b905081810360408301526151538185614605565b905081810360608301526151678184614605565b905095945050505050565b7f696e7075745f61727261795f6c656e677468735f6e6f5f6d6174636800000000600082015250565b60006151a8601c83613b87565b91506151b382615172565b602082019050919050565b600060208201905081810360008301526151d78161519b565b9050919050565b7f6e6f745f7061727469636970616e740000000000000000000000000000000000600082015250565b6000615214600f83613b87565b915061521f826151de565b602082019050919050565b6000602082019050818103600083015261524381615207565b9050919050565b7f6973737565725f6261645f646f63747970650000000000000000000000000000600082015250565b6000615280601283613b87565b915061528b8261524a565b602082019050919050565b600060208201905081810360008301526152af81615273565b9050919050565b7f7061727469636970616e745f6261645f646f6374797065000000000000000000600082015250565b60006152ec601783613b87565b91506152f7826152b6565b602082019050919050565b6000602082019050818103600083015261531b816152df565b9050919050565b600060c0820190506153376000830189614211565b6153446020830188614211565b81810360408301526153568187614605565b90506153656060830186613ce1565b81810360808301526153778185614605565b905081810360a083015261538b8184614605565b9050979650505050505050565b7f496e73756666696369656e745f7061796d656e745f6665650000000000000000600082015250565b60006153ce601883613b87565b91506153d982615398565b602082019050919050565b600060208201905081810360008301526153fd816153c1565b9050919050565b7f6e6f745f6f70656e5f74656e6465720000000000000000000000000000000000600082015250565b600061543a600f83613b87565b915061544582615404565b602082019050919050565b600060208201905081810360008301526154698161542d565b9050919050565b7f63616e5f6e6f745f72656769737465725f73656c660000000000000000000000600082015250565b60006154a6601583613b87565b91506154b182615470565b602082019050919050565b600060208201905081810360008301526154d581615499565b9050919050565b7f6d61785f7061727469636970616e74735f726561636865640000000000000000600082015250565b6000615512601883613b87565b915061551d826154dc565b602082019050919050565b6000602082019050818103600083015261554181615505565b9050919050565b7f616c72656164795f70617274696369706174696e670000000000000000000000600082015250565b600061557e601583613b87565b915061558982615548565b602082019050919050565b600060208201905081810360008301526155ad81615571565b9050919050565b7f6e6f745f6d61746368696e675f77696e6e657273000000000000000000000000600082015250565b60006155ea601483613b87565b91506155f5826155b4565b602082019050919050565b60006020820190508181036000830152615619816155dd565b9050919050565b7f656e64646174655f6e6f745f726561636865645f796574000000000000000000600082015250565b6000615656601783613b87565b915061566182615620565b602082019050919050565b6000602082019050818103600083015261568581615649565b9050919050565b7f63616e6e6f745f73656c665f6177617264000000000000000000000000000000600082015250565b60006156c2601183613b87565b91506156cd8261568c565b602082019050919050565b600060208201905081810360008301526156f1816156b5565b9050919050565b7f696e76616c69645f77696e6e6572000000000000000000000000000000000000600082015250565b600061572e600e83613b87565b9150615739826156f8565b602082019050919050565b6000602082019050818103600083015261575d81615721565b9050919050565b600082825260208201905092915050565b600061578082614293565b61578a8185615764565b9350615795836142af565b8060005b838110156157c65781516157ad88826142ce565b97506157b8836142e6565b925050600181019050615799565b5085935050505092915050565b60006040820190506157e86000830185614211565b81810360208301526157fa8184615775565b90509392505050565b600081549050919050565b60008190508160005260206000209050919050565b60008160001c9050919050565b600073ffffffffffffffffffffffffffffffffffffffff82169050919050565b600061586361585e83615823565b615830565b9050919050565b60006158768254615850565b9050919050565b6000600182019050919050565b600061589582615803565b61589f8185615764565b93506158aa8361580e565b8060005b838110156158e2576158bf8261586a565b6158c988826142ce565b97506158d48361587d565b9250506001810190506158ae565b5085935050505092915050565b60006040820190506159046000830185614211565b8181036020830152615916818461588a565b90509392505050565b6000819050919050565b61593a61593582613aee565b61591f565b82525050565b60008160601b9050919050565b600061595882615940565b9050919050565b600061596a8261594d565b9050919050565b61598261597d82613657565b61595f565b82525050565b60006159948285615929565b6020820191506159a48284615971565b6014820191508190509392505050565b600081905092915050565b60006159ca82614220565b6159d481856159b4565b93506159e4818560208601613d15565b80840191505092915050565b60006159fc82846159bf565b91508190509291505056fea26469706673582212201c4d5b686dea0a48f3a51f4d84e55efc3e54a7f616c10f0d50e55d8794daa60264736f6c63430008090033",
  "linkReferences": {},
  "deployedLinkReferences": {}
}