{
  "_format": "hh-sol-artifact-1",
  "contractName": "pro_ponLogic",
  "sourceName": "contracts/proponLogic.sol",
  "abi": [
    {
      "inputs": [
        {
          "internalType": "address",
          "name": "_dataContractAddress",
          "type": "address"
        }
      ],
      "stateMutability": "payable",
      "type": "constructor"
    },
    {
      "anonymous": false,
      "inputs": [
        {
          "indexed": true,
          "internalType": "address",
          "name": "sender",
          "type": "address"
        },
        {
          "indexed": false,
          "internalType": "uint16",
          "name": "id",
          "type": "uint16"
        },
        {
          "indexed": false,
          "internalType": "string",
          "name": "name",
          "type": "string"
        }
      ],
      "name": "NewRFPCreated",
      "type": "event"
    },
    {
      "inputs": [
        {
          "internalType": "uint16",
          "name": "_rfpIdx",
          "type": "uint16"
        },
        {
          "internalType": "uint256[]",
          "name": "_docTypes",
          "type": "uint256[]"
        },
        {
          "internalType": "string[]",
          "name": "_names",
          "type": "string[]"
        },
        {
          "internalType": "string[]",
          "name": "_documentHashes",
          "type": "string[]"
        },
        {
          "internalType": "string[]",
          "name": "_idxs",
          "type": "string[]"
        }
      ],
      "name": "addDocuments",
      "outputs": [],
      "stateMutability": "nonpayable",
      "type": "function"
    },
    {
      "inputs": [
        {
          "internalType": "string",
          "name": "_companyId",
          "type": "string"
        },
        {
          "internalType": "uint16",
          "name": "_rfpIndex",
          "type": "uint16"
        }
      ],
      "name": "cancelRFP",
      "outputs": [],
      "stateMutability": "nonpayable",
      "type": "function"
    },
    {
      "inputs": [
        {
          "internalType": "string",
          "name": "_id",
          "type": "string"
        },
        {
          "internalType": "string",
          "name": "_name",
          "type": "string"
        },
        {
          "internalType": "string",
          "name": "_country",
          "type": "string"
        }
      ],
      "name": "createCompany",
      "outputs": [],
      "stateMutability": "payable",
      "type": "function"
    },
    {
      "inputs": [
        {
          "internalType": "string",
          "name": "_name",
          "type": "string"
        },
        {
          "internalType": "string",
          "name": "_description",
          "type": "string"
        },
        {
          "internalType": "string",
          "name": "_rfpwebsite",
          "type": "string"
        },
        {
          "internalType": "uint256",
          "name": "_openDate",
          "type": "uint256"
        },
        {
          "internalType": "uint256",
          "name": "_endReceivingDate",
          "type": "uint256"
        },
        {
          "internalType": "uint256",
          "name": "_endDate",
          "type": "uint256"
        },
        {
          "internalType": "enum proponShared.ContestType",
          "name": "_contestType",
          "type": "uint8"
        },
        {
          "internalType": "string[]",
          "name": "_items",
          "type": "string[]"
        }
      ],
      "name": "createRFP",
      "outputs": [],
      "stateMutability": "payable",
      "type": "function"
    },
    {
      "inputs": [
        {
          "internalType": "uint16",
          "name": "_rfpIndex",
          "type": "uint16"
        },
        {
          "internalType": "string",
          "name": "_companyId",
          "type": "string"
        },
        {
          "internalType": "address[]",
          "name": "winners",
          "type": "address[]"
        }
      ],
      "name": "declareWinners",
      "outputs": [],
      "stateMutability": "nonpayable",
      "type": "function"
    },
    {
      "inputs": [],
      "name": "destroy",
      "outputs": [],
      "stateMutability": "nonpayable",
      "type": "function"
    },
    {
      "inputs": [
        {
          "internalType": "uint16",
          "name": "_rfpId",
          "type": "uint16"
        },
        {
          "internalType": "string",
          "name": "companyId",
          "type": "string"
        },
        {
          "internalType": "address[]",
          "name": "invitedCompanies",
          "type": "address[]"
        }
      ],
      "name": "inviteCompaniestoRFP",
      "outputs": [],
      "stateMutability": "nonpayable",
      "type": "function"
    },
    {
      "inputs": [
        {
          "internalType": "uint16",
          "name": "_rfpId",
          "type": "uint16"
        }
      ],
      "name": "registertoOpenRFP",
      "outputs": [],
      "stateMutability": "payable",
      "type": "function"
    },
    {
      "inputs": [
        {
          "internalType": "address",
          "name": "_newOwner",
          "type": "address"
        }
      ],
      "name": "setOwner",
      "outputs": [],
      "stateMutability": "nonpayable",
      "type": "function"
    },
    {
      "inputs": [],
      "name": "withdraw",
      "outputs": [],
      "stateMutability": "nonpayable",
      "type": "function"
    }
  ],
  "bytecode": "0x6080604052600067ffffffffffffffff8111156200002257620000216200022b565b5b604051908082528060200260200182016040528015620000515781602001602082028036833780820191505090505b5060039080519060200190620000699291906200017d565b50600067ffffffffffffffff8111156200008857620000876200022b565b5b604051908082528060200260200182016040528015620000b75781602001602082028036833780820191505090505b5060049080519060200190620000cf9291906200017d565b5060405162005fee38038062005fee8339818101604052810190620000f59190620002c4565b806000806101000a81548173ffffffffffffffffffffffffffffffffffffffff021916908373ffffffffffffffffffffffffffffffffffffffff16021790555033600160006101000a81548173ffffffffffffffffffffffffffffffffffffffff021916908373ffffffffffffffffffffffffffffffffffffffff16021790555050620002f6565b828054828255906000526020600020908101928215620001f9579160200282015b82811115620001f85782518260006101000a81548173ffffffffffffffffffffffffffffffffffffffff021916908373ffffffffffffffffffffffffffffffffffffffff160217905550916020019190600101906200019e565b5b5090506200020891906200020c565b5090565b5b80821115620002275760008160009055506001016200020d565b5090565b7f4e487b7100000000000000000000000000000000000000000000000000000000600052604160045260246000fd5b600080fd5b600073ffffffffffffffffffffffffffffffffffffffff82169050919050565b60006200028c826200025f565b9050919050565b6200029e816200027f565b8114620002aa57600080fd5b50565b600081519050620002be8162000293565b92915050565b600060208284031215620002dd57620002dc6200025a565b5b6000620002ed84828501620002ad565b91505092915050565b615ce880620003066000396000f3fe6080604052600436106100915760003560e01c80638217915a116100595780638217915a1461013757806383197ef0146101605780639152b5a214610177578063cdaf03eb146101a0578063d7b9ebe4146101c957610091565b80630adc596e1461009657806313af4035146100b25780633ca0bc91146100db5780633ccfd60b146101045780637b60626d1461011b575b600080fd5b6100b060048036038101906100ab91906136ec565b6101e5565b005b3480156100be57600080fd5b506100d960048036038101906100d49190613870565b610aac565b005b3480156100e757600080fd5b5061010260048036038101906100fd91906138d7565b610b80565b005b34801561011057600080fd5b50610119611097565b005b61013560048036038101906101309190613933565b6111dc565b005b34801561014357600080fd5b5061015e60048036038101906101599190613a9d565b611533565b005b34801561016c57600080fd5b50610175611e5f565b005b34801561018357600080fd5b5061019e60048036038101906101999190613a9d565b611f2a565b005b3480156101ac57600080fd5b506101c760048036038101906101c29190613beb565b612714565b005b6101e360048036038101906101de9190613cd6565b612bc6565b005b60006101f1893361322f565b905060008054906101000a900473ffffffffffffffffffffffffffffffffffffffff1673ffffffffffffffffffffffffffffffffffffffff166343a2d048826040518263ffffffff1660e01b815260040161024c9190613d1c565b60206040518083038186803b15801561026457600080fd5b505afa158015610278573d6000803e3d6000fd5b505050506040513d601f19601f8201168201806040525081019061029c9190613d6f565b156102dc576040517f08c379a00000000000000000000000000000000000000000000000000000000081526004016102d390613df9565b60405180910390fd5b600060018111156102f0576102ef613e19565b5b83600181111561030357610302613e19565b5b146103ab5760008054906101000a900473ffffffffffffffffffffffffffffffffffffffff1673ffffffffffffffffffffffffffffffffffffffff1663afeff8d96040518163ffffffff1660e01b815260040160206040518083038186803b15801561036e57600080fd5b505afa158015610382573d6000803e3d6000fd5b505050506040513d601f19601f820116820180604052508101906103a69190613e5d565b61044a565b60008054906101000a900473ffffffffffffffffffffffffffffffffffffffff1673ffffffffffffffffffffffffffffffffffffffff16634e289b886040518163ffffffff1660e01b815260040160206040518083038186803b15801561041157600080fd5b505afa158015610425573d6000803e3d6000fd5b505050506040513d601f19601f820116820180604052508101906104499190613e5d565b5b34101561048c576040517f08c379a000000000000000000000000000000000000000000000000000000000815260040161048390613ed6565b60405180910390fd5b60008060009054906101000a900473ffffffffffffffffffffffffffffffffffffffff1673ffffffffffffffffffffffffffffffffffffffff166362bc56e6336040518263ffffffff1660e01b81526004016104e89190613f05565b60006040518083038186803b15801561050057600080fd5b505afa158015610514573d6000803e3d6000fd5b505050506040513d6000823e3d601f19601f8201168201806040525081019061053d91906141ed565b905060008160000151905060008151141561058d576040517f08c379a000000000000000000000000000000000000000000000000000000000815260040161058490614282565b60405180910390fd5b610e104261059b91906142d1565b8810156105dd576040517f08c379a00000000000000000000000000000000000000000000000000000000081526004016105d490614351565b60405180910390fd5b86881061061f576040517f08c379a0000000000000000000000000000000000000000000000000000000008152600401610616906143bd565b60405180910390fd5b858710610661576040517f08c379a000000000000000000000000000000000000000000000000000000000815260040161065890614429565b60405180910390fd5b60008060009054906101000a900473ffffffffffffffffffffffffffffffffffffffff1673ffffffffffffffffffffffffffffffffffffffff16631393b9e86040518163ffffffff1660e01b815260040160206040518083038186803b1580156106ca57600080fd5b505afa1580156106de573d6000803e3d6000fd5b505050506040513d601f19601f820116820180604052508101906107029190614449565b90506000604051806101c001604052808e81526020018d81526020018361ffff1681526020018c81526020018b81526020018a815260200189815260200160001515815260200160008152602001600067ffffffffffffffff81111561076b5761076a613480565b5b6040519080825280602002602001820160405280156107995781602001602082028036833780820191505090505b5081526020018860018111156107b2576107b1613e19565b5b8152602001878152602001600067ffffffffffffffff8111156107d8576107d7613480565b5b6040519080825280602002602001820160405280156108065781602001602082028036833780820191505090505b5081526020013373ffffffffffffffffffffffffffffffffffffffff16815250905060008054906101000a900473ffffffffffffffffffffffffffffffffffffffff1673ffffffffffffffffffffffffffffffffffffffff1663f9c3c20c866040518263ffffffff1660e01b81526004016108819190613d1c565b600060405180830381600087803b15801561089b57600080fd5b505af11580156108af573d6000803e3d6000fd5b5050505060008054906101000a900473ffffffffffffffffffffffffffffffffffffffff1673ffffffffffffffffffffffffffffffffffffffff1663dc7aba8483836040518363ffffffff1660e01b815260040161090e929190614811565b600060405180830381600087803b15801561092857600080fd5b505af115801561093c573d6000803e3d6000fd5b5050505060008054906101000a900473ffffffffffffffffffffffffffffffffffffffff1673ffffffffffffffffffffffffffffffffffffffff1663b8a4d46e33846040518363ffffffff1660e01b815260040161099b929190614841565b600060405180830381600087803b1580156109b557600080fd5b505af11580156109c9573d6000803e3d6000fd5b5050505060008054906101000a900473ffffffffffffffffffffffffffffffffffffffff1673ffffffffffffffffffffffffffffffffffffffff16631a3ca1d86040518163ffffffff1660e01b8152600401600060405180830381600087803b158015610a3557600080fd5b505af1158015610a49573d6000803e3d6000fd5b505050503373ffffffffffffffffffffffffffffffffffffffff167f7e78d078ccf1d121d0f4feedd78115e79d2cb058b48fb9e37395f5cded9c916f838f604051610a959291906148a3565b60405180910390a250505050505050505050505050565b600160009054906101000a900473ffffffffffffffffffffffffffffffffffffffff1673ffffffffffffffffffffffffffffffffffffffff163373ffffffffffffffffffffffffffffffffffffffff1614610b3c576040517f08c379a0000000000000000000000000000000000000000000000000000000008152600401610b339061491f565b60405180910390fd5b80600160006101000a81548173ffffffffffffffffffffffffffffffffffffffff021916908373ffffffffffffffffffffffffffffffffffffffff16021790555050565b81610c3860008054906101000a900473ffffffffffffffffffffffffffffffffffffffff1673ffffffffffffffffffffffffffffffffffffffff1663d6f343c5336040518263ffffffff1660e01b8152600401610bdd9190613f05565b60006040518083038186803b158015610bf557600080fd5b505afa158015610c09573d6000803e3d6000fd5b505050506040513d6000823e3d601f19601f82011682018060405250810190610c32919061493f565b8261327a565b610c77576040517f08c379a0000000000000000000000000000000000000000000000000000000008152600401610c6e906149d4565b60405180910390fd5b813373ffffffffffffffffffffffffffffffffffffffff1660008054906101000a900473ffffffffffffffffffffffffffffffffffffffff1673ffffffffffffffffffffffffffffffffffffffff16632aec6e5a836040518263ffffffff1660e01b8152600401610ce891906149f4565b60206040518083038186803b158015610d0057600080fd5b505afa158015610d14573d6000803e3d6000fd5b505050506040513d601f19601f82011682018060405250810190610d389190614a24565b73ffffffffffffffffffffffffffffffffffffffff1614610d8e576040517f08c379a0000000000000000000000000000000000000000000000000000000008152600401610d8590614a9d565b60405180910390fd5b8260008054906101000a900473ffffffffffffffffffffffffffffffffffffffff1673ffffffffffffffffffffffffffffffffffffffff1663e6d29d94826040518263ffffffff1660e01b8152600401610de891906149f4565b60206040518083038186803b158015610e0057600080fd5b505afa158015610e14573d6000803e3d6000fd5b505050506040513d601f19601f82011682018060405250810190610e389190613d6f565b15610e78576040517f08c379a0000000000000000000000000000000000000000000000000000000008152600401610e6f90614b09565b60405180910390fd5b60008060009054906101000a900473ffffffffffffffffffffffffffffffffffffffff1673ffffffffffffffffffffffffffffffffffffffff16639e7a1f64866040518263ffffffff1660e01b8152600401610ed491906149f4565b60006040518083038186803b158015610eec57600080fd5b505afa158015610f00573d6000803e3d6000fd5b505050506040513d6000823e3d601f19601f82011682018060405250810190610f299190614e80565b905060008161018001515114610f74576040517f08c379a0000000000000000000000000000000000000000000000000000000008152600401610f6b90614f15565b60405180910390fd5b60008054906101000a900473ffffffffffffffffffffffffffffffffffffffff1673ffffffffffffffffffffffffffffffffffffffff1663e3a1bd1c8660016040518363ffffffff1660e01b8152600401610fd0929190614f44565b600060405180830381600087803b158015610fea57600080fd5b505af1158015610ffe573d6000803e3d6000fd5b5050505060008054906101000a900473ffffffffffffffffffffffffffffffffffffffff1673ffffffffffffffffffffffffffffffffffffffff166376d44f2786426040518363ffffffff1660e01b815260040161105d929190614f7c565b600060405180830381600087803b15801561107757600080fd5b505af115801561108b573d6000803e3d6000fd5b50505050505050505050565b600160009054906101000a900473ffffffffffffffffffffffffffffffffffffffff1673ffffffffffffffffffffffffffffffffffffffff163373ffffffffffffffffffffffffffffffffffffffff1614611127576040517f08c379a000000000000000000000000000000000000000000000000000000000815260040161111e9061491f565b60405180910390fd5b600047905060003373ffffffffffffffffffffffffffffffffffffffff168260405161115290614fd6565b60006040518083038185875af1925050503d806000811461118f576040519150601f19603f3d011682016040523d82523d6000602084013e611194565b606091505b50509050806111d8576040517f08c379a00000000000000000000000000000000000000000000000000000000081526004016111cf90615037565b60405180910390fd5b5050565b60008054906101000a900473ffffffffffffffffffffffffffffffffffffffff1673ffffffffffffffffffffffffffffffffffffffff166390287940846040518263ffffffff1660e01b81526004016112359190615057565b60206040518083038186803b15801561124d57600080fd5b505afa158015611261573d6000803e3d6000fd5b505050506040513d601f19601f820116820180604052508101906112859190613d6f565b156112c5576040517f08c379a00000000000000000000000000000000000000000000000000000000081526004016112bc906150c5565b60405180910390fd5b60008054906101000a900473ffffffffffffffffffffffffffffffffffffffff1673ffffffffffffffffffffffffffffffffffffffff1663215cf05d6040518163ffffffff1660e01b815260040160206040518083038186803b15801561132b57600080fd5b505afa15801561133f573d6000803e3d6000fd5b505050506040513d601f19601f820116820180604052508101906113639190613e5d565b3410156113a5576040517f08c379a000000000000000000000000000000000000000000000000000000000815260040161139c90613ed6565b60405180910390fd5b60008060009054906101000a900473ffffffffffffffffffffffffffffffffffffffff1673ffffffffffffffffffffffffffffffffffffffff1663d6f343c5336040518263ffffffff1660e01b81526004016114019190613f05565b60006040518083038186803b15801561141957600080fd5b505afa15801561142d573d6000803e3d6000fd5b505050506040513d6000823e3d601f19601f82011682018060405250810190611456919061493f565b9050600081511461149c576040517f08c379a000000000000000000000000000000000000000000000000000000000815260040161149390615131565b60405180910390fd5b60008054906101000a900473ffffffffffffffffffffffffffffffffffffffff1673ffffffffffffffffffffffffffffffffffffffff1663e31fc5bf338686866040518563ffffffff1660e01b81526004016114fb9493929190615151565b600060405180830381600087803b15801561151557600080fd5b505af1158015611529573d6000803e3d6000fd5b5050505050505050565b816115eb60008054906101000a900473ffffffffffffffffffffffffffffffffffffffff1673ffffffffffffffffffffffffffffffffffffffff1663d6f343c5336040518263ffffffff1660e01b81526004016115909190613f05565b60006040518083038186803b1580156115a857600080fd5b505afa1580156115bc573d6000803e3d6000fd5b505050506040513d6000823e3d601f19601f820116820180604052508101906115e5919061493f565b8261327a565b61162a576040517f08c379a0000000000000000000000000000000000000000000000000000000008152600401611621906149d4565b60405180910390fd5b833373ffffffffffffffffffffffffffffffffffffffff1660008054906101000a900473ffffffffffffffffffffffffffffffffffffffff1673ffffffffffffffffffffffffffffffffffffffff16632aec6e5a836040518263ffffffff1660e01b815260040161169b91906149f4565b60206040518083038186803b1580156116b357600080fd5b505afa1580156116c7573d6000803e3d6000fd5b505050506040513d601f19601f820116820180604052508101906116eb9190614a24565b73ffffffffffffffffffffffffffffffffffffffff1614611741576040517f08c379a000000000000000000000000000000000000000000000000000000000815260040161173890614a9d565b60405180910390fd5b8460008054906101000a900473ffffffffffffffffffffffffffffffffffffffff1673ffffffffffffffffffffffffffffffffffffffff1663e6d29d94826040518263ffffffff1660e01b815260040161179b91906149f4565b60206040518083038186803b1580156117b357600080fd5b505afa1580156117c7573d6000803e3d6000fd5b505050506040513d601f19601f820116820180604052508101906117eb9190613d6f565b1561182b576040517f08c379a000000000000000000000000000000000000000000000000000000000815260040161182290614b09565b60405180910390fd5b60008060009054906101000a900473ffffffffffffffffffffffffffffffffffffffff1673ffffffffffffffffffffffffffffffffffffffff16639e7a1f64886040518263ffffffff1660e01b815260040161188791906149f4565b60006040518083038186803b15801561189f57600080fd5b505afa1580156118b3573d6000803e3d6000fd5b505050506040513d6000823e3d601f19601f820116820180604052508101906118dc9190614e80565b905060008161018001515114611927576040517f08c379a000000000000000000000000000000000000000000000000000000000815260040161191e90614f15565b60405180910390fd5b8060e001511561196c576040517f08c379a000000000000000000000000000000000000000000000000000000000815260040161196390614b09565b60405180910390fd5b600081610160015151905060008651905060008260ff161480611992575060018260ff16145b801561199f575060018751145b806119bf575060028260ff16101580156119be57508160ff168160ff16145b5b6119fe576040517f08c379a00000000000000000000000000000000000000000000000000000000081526004016119f5906151f7565b60405180910390fd5b8260c00151421015611a45576040517f08c379a0000000000000000000000000000000000000000000000000000000008152600401611a3c90615263565b60405180910390fd5b60005b8160ff168160ff161015611c8b576000888260ff1681518110611a6e57611a6d615283565b5b602002602001015190503373ffffffffffffffffffffffffffffffffffffffff168173ffffffffffffffffffffffffffffffffffffffff161415611ae7576040517f08c379a0000000000000000000000000000000000000000000000000000000008152600401611ade906152fe565b60405180910390fd5b611af6818661012001516132e6565b611b35576040517f08c379a0000000000000000000000000000000000000000000000000000000008152600401611b2c9061536a565b60405180910390fd5b600260008273ffffffffffffffffffffffffffffffffffffffff1673ffffffffffffffffffffffffffffffffffffffff16815260200190815260200160002060009054906101000a900460ff16611c77576001600260008373ffffffffffffffffffffffffffffffffffffffff1673ffffffffffffffffffffffffffffffffffffffff16815260200190815260200160002060006101000a81548160ff021916908315150217905550600073ffffffffffffffffffffffffffffffffffffffff168173ffffffffffffffffffffffffffffffffffffffff1614611c76576004819080600181540180825580915050600190039060005260206000200160009091909190916101000a81548173ffffffffffffffffffffffffffffffffffffffff021916908373ffffffffffffffffffffffffffffffffffffffff1602179055505b5b508080611c8390615397565b915050611a48565b5060008054906101000a900473ffffffffffffffffffffffffffffffffffffffff1673ffffffffffffffffffffffffffffffffffffffff166347475a488a896040518363ffffffff1660e01b8152600401611ce7929190615430565b600060405180830381600087803b158015611d0157600080fd5b505af1158015611d15573d6000803e3d6000fd5b5050505060008054906101000a900473ffffffffffffffffffffffffffffffffffffffff1673ffffffffffffffffffffffffffffffffffffffff166379497fb48a60046040518363ffffffff1660e01b8152600401611d7592919061554c565b600060405180830381600087803b158015611d8f57600080fd5b505af1158015611da3573d6000803e3d6000fd5b5050505060036004908054611db99291906133e2565b5060005b8160ff168160ff161015611e53576000600260008a8460ff1681518110611de757611de6615283565b5b602002602001015173ffffffffffffffffffffffffffffffffffffffff1673ffffffffffffffffffffffffffffffffffffffff16815260200190815260200160002060006101000a81548160ff0219169083151502179055508080611e4b90615397565b915050611dbd565b50505050505050505050565b600160009054906101000a900473ffffffffffffffffffffffffffffffffffffffff1673ffffffffffffffffffffffffffffffffffffffff163373ffffffffffffffffffffffffffffffffffffffff1614611eef576040517f08c379a0000000000000000000000000000000000000000000000000000000008152600401611ee69061491f565b60405180910390fd5b600160009054906101000a900473ffffffffffffffffffffffffffffffffffffffff1673ffffffffffffffffffffffffffffffffffffffff16ff5b81611fe260008054906101000a900473ffffffffffffffffffffffffffffffffffffffff1673ffffffffffffffffffffffffffffffffffffffff1663d6f343c5336040518263ffffffff1660e01b8152600401611f879190613f05565b60006040518083038186803b158015611f9f57600080fd5b505afa158015611fb3573d6000803e3d6000fd5b505050506040513d6000823e3d601f19601f82011682018060405250810190611fdc919061493f565b8261327a565b612021576040517f08c379a0000000000000000000000000000000000000000000000000000000008152600401612018906149d4565b60405180910390fd5b833373ffffffffffffffffffffffffffffffffffffffff1660008054906101000a900473ffffffffffffffffffffffffffffffffffffffff1673ffffffffffffffffffffffffffffffffffffffff16632aec6e5a836040518263ffffffff1660e01b815260040161209291906149f4565b60206040518083038186803b1580156120aa57600080fd5b505afa1580156120be573d6000803e3d6000fd5b505050506040513d601f19601f820116820180604052508101906120e29190614a24565b73ffffffffffffffffffffffffffffffffffffffff1614612138576040517f08c379a000000000000000000000000000000000000000000000000000000000815260040161212f90614a9d565b60405180910390fd5b8460008054906101000a900473ffffffffffffffffffffffffffffffffffffffff1673ffffffffffffffffffffffffffffffffffffffff1663e6d29d94826040518263ffffffff1660e01b815260040161219291906149f4565b60206040518083038186803b1580156121aa57600080fd5b505afa1580156121be573d6000803e3d6000fd5b505050506040513d601f19601f820116820180604052508101906121e29190613d6f565b15612222576040517f08c379a000000000000000000000000000000000000000000000000000000000815260040161221990614b09565b60405180910390fd5b60008060009054906101000a900473ffffffffffffffffffffffffffffffffffffffff1673ffffffffffffffffffffffffffffffffffffffff16639e7a1f64886040518263ffffffff1660e01b815260040161227e91906149f4565b60006040518083038186803b15801561229657600080fd5b505afa1580156122aa573d6000803e3d6000fd5b505050506040513d6000823e3d601f19601f820116820180604052508101906122d39190614e80565b90506001808111156122e8576122e7613e19565b5b8161014001516001811115612300576122ff613e19565b5b14612340576040517f08c379a0000000000000000000000000000000000000000000000000000000008152600401612337906155c8565b60405180910390fd5b428160a0015111612386576040517f08c379a000000000000000000000000000000000000000000000000000000000815260040161237d90615634565b60405180910390fd5b60008054906101000a900473ffffffffffffffffffffffffffffffffffffffff1673ffffffffffffffffffffffffffffffffffffffff16635a6167c96040518163ffffffff1660e01b815260040160206040518083038186803b1580156123ec57600080fd5b505afa158015612400573d6000803e3d6000fd5b505050506040513d601f19601f820116820180604052508101906124249190613e5d565b8551826101200151516124379190615654565b1115612478576040517f08c379a000000000000000000000000000000000000000000000000000000000815260040161246f906156f6565b60405180910390fd5b60008551905060005b8160ff168160ff16101561270957600060019050878260ff16815181106124ab576124aa615283565b5b602002602001015173ffffffffffffffffffffffffffffffffffffffff163373ffffffffffffffffffffffffffffffffffffffff1614156124ec57506126f6565b600084610120015151905060005b8160ff168160ff16101561259757898460ff168151811061251e5761251d615283565b5b602002602001015173ffffffffffffffffffffffffffffffffffffffff168661012001518260ff168151811061255757612556615283565b5b602002602001015173ffffffffffffffffffffffffffffffffffffffff1614156125845760009250612597565b808061258f90615397565b9150506124fa565b5081156126f35760008054906101000a900473ffffffffffffffffffffffffffffffffffffffff1673ffffffffffffffffffffffffffffffffffffffff1663be2ec7868c8b8660ff16815181106125f1576125f0615283565b5b60200260200101516040518363ffffffff1660e01b8152600401612616929190615716565b600060405180830381600087803b15801561263057600080fd5b505af1158015612644573d6000803e3d6000fd5b5050505060008054906101000a900473ffffffffffffffffffffffffffffffffffffffff1673ffffffffffffffffffffffffffffffffffffffff166333572e928c8b8660ff168151811061269b5761269a615283565b5b60200260200101516040518363ffffffff1660e01b81526004016126c0929190615716565b600060405180830381600087803b1580156126da57600080fd5b505af11580156126ee573d6000803e3d6000fd5b505050505b50505b808061270190615397565b915050612481565b505050505050505050565b82518451148015612726575081518351145b8015612733575080518251145b612772576040517f08c379a00000000000000000000000000000000000000000000000000000000081526004016127699061578b565b60405180910390fd5b60008060009054906101000a900473ffffffffffffffffffffffffffffffffffffffff1673ffffffffffffffffffffffffffffffffffffffff16639e7a1f64876040518263ffffffff1660e01b81526004016127ce91906149f4565b60006040518083038186803b1580156127e657600080fd5b505afa1580156127fa573d6000803e3d6000fd5b505050506040513d6000823e3d601f19601f820116820180604052508101906128239190614e80565b90506000816101a0015173ffffffffffffffffffffffffffffffffffffffff163373ffffffffffffffffffffffffffffffffffffffff161490508061292c5760008083610120015151905060005b818110156128e857846101200151818151811061289157612890615283565b5b602002602001015173ffffffffffffffffffffffffffffffffffffffff163373ffffffffffffffffffffffffffffffffffffffff1614156128d557600192506128e8565b80806128e0906157ab565b915050612871565b5081612929576040517f08c379a000000000000000000000000000000000000000000000000000000000815260040161292090615840565b60405180910390fd5b50505b6000808651905060005b8160ff168160ff161015612bba576000898260ff168151811061295c5761295b615283565b5b602002602001015190506000600a81111561297a57612979613e19565b5b60ff168160ff1614806129a557506001600a81111561299c5761299b613e19565b5b60ff168160ff16145b806129c857506002600a8111156129bf576129be613e19565b5b60ff168160ff16145b93508415612a155783612a10576040517f08c379a0000000000000000000000000000000000000000000000000000000008152600401612a07906158ac565b60405180910390fd5b612a9d565b8315612a56576040517f08c379a0000000000000000000000000000000000000000000000000000000008152600401612a4d90615918565b60405180910390fd5b428660a0015111612a9c576040517f08c379a0000000000000000000000000000000000000000000000000000000008152600401612a9390615634565b60405180910390fd5b5b60008054906101000a900473ffffffffffffffffffffffffffffffffffffffff1673ffffffffffffffffffffffffffffffffffffffff1663ee7690908c8c8560ff1681518110612af057612aef615283565b5b60200260200101518c8660ff1681518110612b0e57612b0d615283565b5b6020026020010151338d8860ff1681518110612b2d57612b2c615283565b5b60200260200101518d8960ff1681518110612b4b57612b4a615283565b5b60200260200101516040518763ffffffff1660e01b8152600401612b7496959493929190615938565b600060405180830381600087803b158015612b8e57600080fd5b505af1158015612ba2573d6000803e3d6000fd5b50505050508080612bb290615397565b915050612936565b50505050505050505050565b8060008054906101000a900473ffffffffffffffffffffffffffffffffffffffff1673ffffffffffffffffffffffffffffffffffffffff1663e6d29d94826040518263ffffffff1660e01b8152600401612c2091906149f4565b60206040518083038186803b158015612c3857600080fd5b505afa158015612c4c573d6000803e3d6000fd5b505050506040513d601f19601f82011682018060405250810190612c709190613d6f565b15612cb0576040517f08c379a0000000000000000000000000000000000000000000000000000000008152600401612ca790614b09565b60405180910390fd5b60008060009054906101000a900473ffffffffffffffffffffffffffffffffffffffff1673ffffffffffffffffffffffffffffffffffffffff16639e7a1f64846040518263ffffffff1660e01b8152600401612d0c91906149f4565b60006040518083038186803b158015612d2457600080fd5b505afa158015612d38573d6000803e3d6000fd5b505050506040513d6000823e3d601f19601f82011682018060405250810190612d619190614e80565b905060008054906101000a900473ffffffffffffffffffffffffffffffffffffffff1673ffffffffffffffffffffffffffffffffffffffff1663be38013b6040518163ffffffff1660e01b815260040160206040518083038186803b158015612dc957600080fd5b505afa158015612ddd573d6000803e3d6000fd5b505050506040513d601f19601f82011682018060405250810190612e019190613e5d565b341015612e43576040517f08c379a0000000000000000000000000000000000000000000000000000000008152600401612e3a906159fa565b60405180910390fd5b60006001811115612e5757612e56613e19565b5b8161014001516001811115612e6f57612e6e613e19565b5b14612eaf576040517f08c379a0000000000000000000000000000000000000000000000000000000008152600401612ea690615a66565b60405180910390fd5b428160a0015111612ef5576040517f08c379a0000000000000000000000000000000000000000000000000000000008152600401612eec90615634565b60405180910390fd5b806101a0015173ffffffffffffffffffffffffffffffffffffffff163373ffffffffffffffffffffffffffffffffffffffff161415612f69576040517f08c379a0000000000000000000000000000000000000000000000000000000008152600401612f6090615ad2565b60405180910390fd5b60008054906101000a900473ffffffffffffffffffffffffffffffffffffffff1673ffffffffffffffffffffffffffffffffffffffff1663ecbb7b4a6040518163ffffffff1660e01b815260040160206040518083038186803b158015612fcf57600080fd5b505afa158015612fe3573d6000803e3d6000fd5b505050506040513d601f19601f820116820180604052508101906130079190613e5d565b816101200151511061304e576040517f08c379a000000000000000000000000000000000000000000000000000000000815260040161304590615b3e565b60405180910390fd5b600081610120015151905060005b8160ff168160ff16101561310e573373ffffffffffffffffffffffffffffffffffffffff168361012001518260ff168151811061309c5761309b615283565b5b602002602001015173ffffffffffffffffffffffffffffffffffffffff1614156130fb576040517f08c379a00000000000000000000000000000000000000000000000000000000081526004016130f290615baa565b60405180910390fd5b808061310690615397565b91505061305c565b5060008054906101000a900473ffffffffffffffffffffffffffffffffffffffff1673ffffffffffffffffffffffffffffffffffffffff1663be2ec78685336040518363ffffffff1660e01b815260040161316a929190615716565b600060405180830381600087803b15801561318457600080fd5b505af1158015613198573d6000803e3d6000fd5b5050505060008054906101000a900473ffffffffffffffffffffffffffffffffffffffff1673ffffffffffffffffffffffffffffffffffffffff166333572e9285336040518363ffffffff1660e01b81526004016131f7929190615716565b600060405180830381600087803b15801561321157600080fd5b505af1158015613225573d6000803e3d6000fd5b5050505050505050565b6000808380519060200120905060008184604051602001613251929190615c33565b604051602081830303815290604052905060008180519060200120905080935050505092915050565b6000815183511461328e57600090506132e0565b8160405160200161329f9190615c9b565b60405160208183030381529060405280519060200120836040516020016132c69190615c9b565b604051602081830303815290604052805190602001201490505b92915050565b6000808251141561332857600073ffffffffffffffffffffffffffffffffffffffff168373ffffffffffffffffffffffffffffffffffffffff161490506133dc565b60005b82518110156133d65782818151811061334757613346615283565b5b602002602001015173ffffffffffffffffffffffffffffffffffffffff168473ffffffffffffffffffffffffffffffffffffffff1614806133b45750600073ffffffffffffffffffffffffffffffffffffffff168473ffffffffffffffffffffffffffffffffffffffff16145b156133c35760019150506133dc565b80806133ce906157ab565b91505061332b565b50600090505b92915050565b8280548282559060005260206000209081019282156134235760005260206000209182015b82811115613422578254825591600101919060010190613407565b5b5090506134309190613434565b5090565b5b8082111561344d576000816000905550600101613435565b5090565b6000604051905090565b600080fd5b600080fd5b600080fd5b600080fd5b6000601f19601f8301169050919050565b7f4e487b7100000000000000000000000000000000000000000000000000000000600052604160045260246000fd5b6134b88261346f565b810181811067ffffffffffffffff821117156134d7576134d6613480565b5b80604052505050565b60006134ea613451565b90506134f682826134af565b919050565b600067ffffffffffffffff82111561351657613515613480565b5b61351f8261346f565b9050602081019050919050565b82818337600083830152505050565b600061354e613549846134fb565b6134e0565b90508281526020810184848401111561356a5761356961346a565b5b61357584828561352c565b509392505050565b600082601f83011261359257613591613465565b5b81356135a284826020860161353b565b91505092915050565b6000819050919050565b6135be816135ab565b81146135c957600080fd5b50565b6000813590506135db816135b5565b92915050565b600281106135ee57600080fd5b50565b600081359050613600816135e1565b92915050565b600067ffffffffffffffff82111561362157613620613480565b5b602082029050602081019050919050565b600080fd5b600061364a61364584613606565b6134e0565b9050808382526020820190506020840283018581111561366d5761366c613632565b5b835b818110156136b457803567ffffffffffffffff81111561369257613691613465565b5b80860161369f898261357d565b8552602085019450505060208101905061366f565b5050509392505050565b600082601f8301126136d3576136d2613465565b5b81356136e3848260208601613637565b91505092915050565b600080600080600080600080610100898b03121561370d5761370c61345b565b5b600089013567ffffffffffffffff81111561372b5761372a613460565b5b6137378b828c0161357d565b985050602089013567ffffffffffffffff81111561375857613757613460565b5b6137648b828c0161357d565b975050604089013567ffffffffffffffff81111561378557613784613460565b5b6137918b828c0161357d565b96505060606137a28b828c016135cc565b95505060806137b38b828c016135cc565b94505060a06137c48b828c016135cc565b93505060c06137d58b828c016135f1565b92505060e089013567ffffffffffffffff8111156137f6576137f5613460565b5b6138028b828c016136be565b9150509295985092959890939650565b600073ffffffffffffffffffffffffffffffffffffffff82169050919050565b600061383d82613812565b9050919050565b61384d81613832565b811461385857600080fd5b50565b60008135905061386a81613844565b92915050565b6000602082840312156138865761388561345b565b5b60006138948482850161385b565b91505092915050565b600061ffff82169050919050565b6138b48161389d565b81146138bf57600080fd5b50565b6000813590506138d1816138ab565b92915050565b600080604083850312156138ee576138ed61345b565b5b600083013567ffffffffffffffff81111561390c5761390b613460565b5b6139188582860161357d565b9250506020613929858286016138c2565b9150509250929050565b60008060006060848603121561394c5761394b61345b565b5b600084013567ffffffffffffffff81111561396a57613969613460565b5b6139768682870161357d565b935050602084013567ffffffffffffffff81111561399757613996613460565b5b6139a38682870161357d565b925050604084013567ffffffffffffffff8111156139c4576139c3613460565b5b6139d08682870161357d565b9150509250925092565b600067ffffffffffffffff8211156139f5576139f4613480565b5b602082029050602081019050919050565b6000613a19613a14846139da565b6134e0565b90508083825260208201905060208402830185811115613a3c57613a3b613632565b5b835b81811015613a655780613a51888261385b565b845260208401935050602081019050613a3e565b5050509392505050565b600082601f830112613a8457613a83613465565b5b8135613a94848260208601613a06565b91505092915050565b600080600060608486031215613ab657613ab561345b565b5b6000613ac4868287016138c2565b935050602084013567ffffffffffffffff811115613ae557613ae4613460565b5b613af18682870161357d565b925050604084013567ffffffffffffffff811115613b1257613b11613460565b5b613b1e86828701613a6f565b9150509250925092565b600067ffffffffffffffff821115613b4357613b42613480565b5b602082029050602081019050919050565b6000613b67613b6284613b28565b6134e0565b90508083825260208201905060208402830185811115613b8a57613b89613632565b5b835b81811015613bb35780613b9f88826135cc565b845260208401935050602081019050613b8c565b5050509392505050565b600082601f830112613bd257613bd1613465565b5b8135613be2848260208601613b54565b91505092915050565b600080600080600060a08688031215613c0757613c0661345b565b5b6000613c15888289016138c2565b955050602086013567ffffffffffffffff811115613c3657613c35613460565b5b613c4288828901613bbd565b945050604086013567ffffffffffffffff811115613c6357613c62613460565b5b613c6f888289016136be565b935050606086013567ffffffffffffffff811115613c9057613c8f613460565b5b613c9c888289016136be565b925050608086013567ffffffffffffffff811115613cbd57613cbc613460565b5b613cc9888289016136be565b9150509295509295909350565b600060208284031215613cec57613ceb61345b565b5b6000613cfa848285016138c2565b91505092915050565b6000819050919050565b613d1681613d03565b82525050565b6000602082019050613d316000830184613d0d565b92915050565b60008115159050919050565b613d4c81613d37565b8114613d5757600080fd5b50565b600081519050613d6981613d43565b92915050565b600060208284031215613d8557613d8461345b565b5b6000613d9384828501613d5a565b91505092915050565b600082825260208201905092915050565b7f72667069645f616c72656164795f74616b656e00000000000000000000000000600082015250565b6000613de3601383613d9c565b9150613dee82613dad565b602082019050919050565b60006020820190508181036000830152613e1281613dd6565b9050919050565b7f4e487b7100000000000000000000000000000000000000000000000000000000600052602160045260246000fd5b600081519050613e57816135b5565b92915050565b600060208284031215613e7357613e7261345b565b5b6000613e8184828501613e48565b91505092915050565b7f496e73756666696369656e745f7061796d656e74000000000000000000000000600082015250565b6000613ec0601483613d9c565b9150613ecb82613e8a565b602082019050919050565b60006020820190508181036000830152613eef81613eb3565b9050919050565b613eff81613832565b82525050565b6000602082019050613f1a6000830184613ef6565b92915050565b600080fd5b600080fd5b60005b83811015613f48578082015181840152602081019050613f2d565b83811115613f57576000848401525b50505050565b6000613f70613f6b846134fb565b6134e0565b905082815260208101848484011115613f8c57613f8b61346a565b5b613f97848285613f2a565b509392505050565b600082601f830112613fb457613fb3613465565b5b8151613fc4848260208601613f5d565b91505092915050565b600067ffffffffffffffff821115613fe857613fe7613480565b5b602082029050602081019050919050565b600081519050614008816138ab565b92915050565b600061402161401c84613fcd565b6134e0565b9050808382526020820190506020840283018581111561404457614043613632565b5b835b8181101561406d57806140598882613ff9565b845260208401935050602081019050614046565b5050509392505050565b600082601f83011261408c5761408b613465565b5b815161409c84826020860161400e565b91505092915050565b600060c082840312156140bb576140ba613f20565b5b6140c560c06134e0565b9050600082015167ffffffffffffffff8111156140e5576140e4613f25565b5b6140f184828501613f9f565b600083015250602082015167ffffffffffffffff81111561411557614114613f25565b5b61412184828501613f9f565b602083015250604082015167ffffffffffffffff81111561414557614144613f25565b5b61415184828501613f9f565b604083015250606082015167ffffffffffffffff81111561417557614174613f25565b5b61418184828501614077565b606083015250608082015167ffffffffffffffff8111156141a5576141a4613f25565b5b6141b184828501614077565b60808301525060a082015167ffffffffffffffff8111156141d5576141d4613f25565b5b6141e184828501614077565b60a08301525092915050565b6000602082840312156142035761420261345b565b5b600082015167ffffffffffffffff81111561422157614220613460565b5b61422d848285016140a5565b91505092915050565b7f616464726573735f6e6f745f61646d696e000000000000000000000000000000600082015250565b600061426c601183613d9c565b915061427782614236565b602082019050919050565b6000602082019050818103600083015261429b8161425f565b9050919050565b7f4e487b7100000000000000000000000000000000000000000000000000000000600052601160045260246000fd5b60006142dc826135ab565b91506142e7836135ab565b9250828210156142fa576142f96142a2565b5b828203905092915050565b7f6f70656e646174655f626568696e645f746f6461790000000000000000000000600082015250565b600061433b601583613d9c565b915061434682614305565b602082019050919050565b6000602082019050818103600083015261436a8161432e565b9050919050565b7f696e697469616c5f646174655f77726f6e670000000000000000000000000000600082015250565b60006143a7601283613d9c565b91506143b282614371565b602082019050919050565b600060208201905081810360008301526143d68161439a565b9050919050565b7f726563656976696e675f646174655f77726f6e67000000000000000000000000600082015250565b6000614413601483613d9c565b915061441e826143dd565b602082019050919050565b6000602082019050818103600083015261444281614406565b9050919050565b60006020828403121561445f5761445e61345b565b5b600061446d84828501613ff9565b91505092915050565b61447f8161389d565b82525050565b600081519050919050565b600082825260208201905092915050565b60006144ac82614485565b6144b68185614490565b93506144c6818560208601613f2a565b6144cf8161346f565b840191505092915050565b6144e3816135ab565b82525050565b6144f281613d37565b82525050565b600081519050919050565b600082825260208201905092915050565b6000819050602082019050919050565b61452d81613832565b82525050565b600061453f8383614524565b60208301905092915050565b6000602082019050919050565b6000614563826144f8565b61456d8185614503565b935061457883614514565b8060005b838110156145a95781516145908882614533565b975061459b8361454b565b92505060018101905061457c565b5085935050505092915050565b600281106145c7576145c6613e19565b5b50565b60008190506145d8826145b6565b919050565b60006145e8826145ca565b9050919050565b6145f8816145dd565b82525050565b600081519050919050565b600082825260208201905092915050565b6000819050602082019050919050565b600061463683836144a1565b905092915050565b6000602082019050919050565b6000614656826145fe565b6146608185614609565b9350836020820285016146728561461a565b8060005b858110156146ae578484038952815161468f858261462a565b945061469a8361463e565b925060208a01995050600181019050614676565b50829750879550505050505092915050565b60006101c08301600083015184820360008601526146de82826144a1565b915050602083015184820360208601526146f882826144a1565b915050604083015161470d60408601826144da565b506060830151848203606086015261472582826144a1565b915050608083015161473a60808601826144da565b5060a083015161474d60a08601826144da565b5060c083015161476060c08601826144da565b5060e083015161477360e08601826144e9565b506101008301516147886101008601826144da565b506101208301518482036101208601526147a28282614558565b9150506101408301516147b96101408601826145ef565b506101608301518482036101608601526147d3828261464b565b9150506101808301518482036101808601526147ef8282614558565b9150506101a08301516148066101a0860182614524565b508091505092915050565b60006040820190506148266000830185614476565b818103602083015261483881846146c0565b90509392505050565b60006040820190506148566000830185613ef6565b6148636020830184614476565b9392505050565b600061487582614485565b61487f8185613d9c565b935061488f818560208601613f2a565b6148988161346f565b840191505092915050565b60006040820190506148b86000830185614476565b81810360208301526148ca818461486a565b90509392505050565b7f4f6e6c795f6f776e65725f616c6c6f7765640000000000000000000000000000600082015250565b6000614909601283613d9c565b9150614914826148d3565b602082019050919050565b60006020820190508181036000830152614938816148fc565b9050919050565b6000602082840312156149555761495461345b565b5b600082015167ffffffffffffffff81111561497357614972613460565b5b61497f84828501613f9f565b91505092915050565b7f4f6e6c795f61646d696e5f63616e5f706572666f726d00000000000000000000600082015250565b60006149be601683613d9c565b91506149c982614988565b602082019050919050565b600060208201905081810360008301526149ed816149b1565b9050919050565b6000602082019050614a096000830184614476565b92915050565b600081519050614a1e81613844565b92915050565b600060208284031215614a3a57614a3961345b565b5b6000614a4884828501614a0f565b91505092915050565b7f4f6e6c795f6973737565725f63616e5f706572666f726d000000000000000000600082015250565b6000614a87601783613d9c565b9150614a9282614a51565b602082019050919050565b60006020820190508181036000830152614ab681614a7a565b9050919050565b7f616c72656164795f63616e63656c656400000000000000000000000000000000600082015250565b6000614af3601083613d9c565b9150614afe82614abd565b602082019050919050565b60006020820190508181036000830152614b2281614ae6565b9050919050565b6000614b3c614b37846139da565b6134e0565b90508083825260208201905060208402830185811115614b5f57614b5e613632565b5b835b81811015614b885780614b748882614a0f565b845260208401935050602081019050614b61565b5050509392505050565b600082601f830112614ba757614ba6613465565b5b8151614bb7848260208601614b29565b91505092915050565b600081519050614bcf816135e1565b92915050565b6000614be8614be384613606565b6134e0565b90508083825260208201905060208402830185811115614c0b57614c0a613632565b5b835b81811015614c5257805167ffffffffffffffff811115614c3057614c2f613465565b5b808601614c3d8982613f9f565b85526020850194505050602081019050614c0d565b5050509392505050565b600082601f830112614c7157614c70613465565b5b8151614c81848260208601614bd5565b91505092915050565b60006101c08284031215614ca157614ca0613f20565b5b614cac6101c06134e0565b9050600082015167ffffffffffffffff811115614ccc57614ccb613f25565b5b614cd884828501613f9f565b600083015250602082015167ffffffffffffffff811115614cfc57614cfb613f25565b5b614d0884828501613f9f565b6020830152506040614d1c84828501613e48565b604083015250606082015167ffffffffffffffff811115614d4057614d3f613f25565b5b614d4c84828501613f9f565b6060830152506080614d6084828501613e48565b60808301525060a0614d7484828501613e48565b60a08301525060c0614d8884828501613e48565b60c08301525060e0614d9c84828501613d5a565b60e083015250610100614db184828501613e48565b6101008301525061012082015167ffffffffffffffff811115614dd757614dd6613f25565b5b614de384828501614b92565b61012083015250610140614df984828501614bc0565b6101408301525061016082015167ffffffffffffffff811115614e1f57614e1e613f25565b5b614e2b84828501614c5c565b6101608301525061018082015167ffffffffffffffff811115614e5157614e50613f25565b5b614e5d84828501614b92565b610180830152506101a0614e7384828501614a0f565b6101a08301525092915050565b600060208284031215614e9657614e9561345b565b5b600082015167ffffffffffffffff811115614eb457614eb3613460565b5b614ec084828501614c8a565b91505092915050565b7f7266705f616c72656164795f6177617264656400000000000000000000000000600082015250565b6000614eff601383613d9c565b9150614f0a82614ec9565b602082019050919050565b60006020820190508181036000830152614f2e81614ef2565b9050919050565b614f3e81613d37565b82525050565b6000604082019050614f596000830185614476565b614f666020830184614f35565b9392505050565b614f76816135ab565b82525050565b6000604082019050614f916000830185614476565b614f9e6020830184614f6d565b9392505050565b600081905092915050565b50565b6000614fc0600083614fa5565b9150614fcb82614fb0565b600082019050919050565b6000614fe182614fb3565b9150819050919050565b7f6661696c65645f77697468647261770000000000000000000000000000000000600082015250565b6000615021600f83613d9c565b915061502c82614feb565b602082019050919050565b6000602082019050818103600083015261505081615014565b9050919050565b60006020820190508181036000830152615071818461486a565b905092915050565b7f69645f616c72656164795f657869737473000000000000000000000000000000600082015250565b60006150af601183613d9c565b91506150ba82615079565b602082019050919050565b600060208201905081810360008301526150de816150a2565b9050919050565b7f616464726573735f616c72656164795f61646d696e5f6f665f636f6d70616e79600082015250565b600061511b602083613d9c565b9150615126826150e5565b602082019050919050565b6000602082019050818103600083015261514a8161510e565b9050919050565b60006080820190506151666000830187613ef6565b8181036020830152615178818661486a565b9050818103604083015261518c818561486a565b905081810360608301526151a0818461486a565b905095945050505050565b7f6e6f745f6d61746368696e675f77696e6e657273000000000000000000000000600082015250565b60006151e1601483613d9c565b91506151ec826151ab565b602082019050919050565b60006020820190508181036000830152615210816151d4565b9050919050565b7f656e64646174655f6e6f745f726561636865645f796574000000000000000000600082015250565b600061524d601783613d9c565b915061525882615217565b602082019050919050565b6000602082019050818103600083015261527c81615240565b9050919050565b7f4e487b7100000000000000000000000000000000000000000000000000000000600052603260045260246000fd5b7f63616e6e6f745f73656c665f6177617264000000000000000000000000000000600082015250565b60006152e8601183613d9c565b91506152f3826152b2565b602082019050919050565b60006020820190508181036000830152615317816152db565b9050919050565b7f696e76616c69645f77696e6e6572000000000000000000000000000000000000600082015250565b6000615354600e83613d9c565b915061535f8261531e565b602082019050919050565b6000602082019050818103600083015261538381615347565b9050919050565b600060ff82169050919050565b60006153a28261538a565b915060ff8214156153b6576153b56142a2565b5b600182019050919050565b600082825260208201905092915050565b60006153dd826144f8565b6153e781856153c1565b93506153f283614514565b8060005b8381101561542357815161540a8882614533565b97506154158361454b565b9250506001810190506153f6565b5085935050505092915050565b60006040820190506154456000830185614476565b818103602083015261545781846153d2565b90509392505050565b600081549050919050565b60008190508160005260206000209050919050565b60008160001c9050919050565b600073ffffffffffffffffffffffffffffffffffffffff82169050919050565b60006154c06154bb83615480565b61548d565b9050919050565b60006154d382546154ad565b9050919050565b6000600182019050919050565b60006154f282615460565b6154fc81856153c1565b93506155078361546b565b8060005b8381101561553f5761551c826154c7565b6155268882614533565b9750615531836154da565b92505060018101905061550b565b5085935050505092915050565b60006040820190506155616000830185614476565b818103602083015261557381846154e7565b90509392505050565b7f77726f6e675f636f6e746573745f747970650000000000000000000000000000600082015250565b60006155b2601283613d9c565b91506155bd8261557c565b602082019050919050565b600060208201905081810360008301526155e1816155a5565b9050919050565b7f656e645f726563656976696e675f726561636865640000000000000000000000600082015250565b600061561e601583613d9c565b9150615629826155e8565b602082019050919050565b6000602082019050818103600083015261564d81615611565b9050919050565b600061565f826135ab565b915061566a836135ab565b9250827fffffffffffffffffffffffffffffffffffffffffffffffffffffffffffffffff0382111561569f5761569e6142a2565b5b828201905092915050565b7f746f6f5f6d616e795f6775657374730000000000000000000000000000000000600082015250565b60006156e0600f83613d9c565b91506156eb826156aa565b602082019050919050565b6000602082019050818103600083015261570f816156d3565b9050919050565b600060408201905061572b6000830185614476565b6157386020830184613ef6565b9392505050565b7f696e7075745f61727261795f6c656e677468735f6e6f5f6d6174636800000000600082015250565b6000615775601c83613d9c565b91506157808261573f565b602082019050919050565b600060208201905081810360008301526157a481615768565b9050919050565b60006157b6826135ab565b91507fffffffffffffffffffffffffffffffffffffffffffffffffffffffffffffffff8214156157e9576157e86142a2565b5b600182019050919050565b7f6e6f745f7061727469636970616e740000000000000000000000000000000000600082015250565b600061582a600f83613d9c565b9150615835826157f4565b602082019050919050565b600060208201905081810360008301526158598161581d565b9050919050565b7f6973737565725f6261645f646f63747970650000000000000000000000000000600082015250565b6000615896601283613d9c565b91506158a182615860565b602082019050919050565b600060208201905081810360008301526158c581615889565b9050919050565b7f7061727469636970616e745f6261645f646f6374797065000000000000000000600082015250565b6000615902601783613d9c565b915061590d826158cc565b602082019050919050565b60006020820190508181036000830152615931816158f5565b9050919050565b600060c08201905061594d6000830189614476565b61595a6020830188614f6d565b818103604083015261596c818761486a565b905061597b6060830186613ef6565b818103608083015261598d818561486a565b905081810360a08301526159a1818461486a565b9050979650505050505050565b7f496e73756666696369656e745f7061796d656e745f6665650000000000000000600082015250565b60006159e4601883613d9c565b91506159ef826159ae565b602082019050919050565b60006020820190508181036000830152615a13816159d7565b9050919050565b7f6e6f745f6f70656e5f74656e6465720000000000000000000000000000000000600082015250565b6000615a50600f83613d9c565b9150615a5b82615a1a565b602082019050919050565b60006020820190508181036000830152615a7f81615a43565b9050919050565b7f63616e5f6e6f745f72656769737465725f73656c660000000000000000000000600082015250565b6000615abc601583613d9c565b9150615ac782615a86565b602082019050919050565b60006020820190508181036000830152615aeb81615aaf565b9050919050565b7f6d61785f7061727469636970616e74735f726561636865640000000000000000600082015250565b6000615b28601883613d9c565b9150615b3382615af2565b602082019050919050565b60006020820190508181036000830152615b5781615b1b565b9050919050565b7f616c72656164795f70617274696369706174696e670000000000000000000000600082015250565b6000615b94601583613d9c565b9150615b9f82615b5e565b602082019050919050565b60006020820190508181036000830152615bc381615b87565b9050919050565b6000819050919050565b615be5615be082613d03565b615bca565b82525050565b60008160601b9050919050565b6000615c0382615beb565b9050919050565b6000615c1582615bf8565b9050919050565b615c2d615c2882613832565b615c0a565b82525050565b6000615c3f8285615bd4565b602082019150615c4f8284615c1c565b6014820191508190509392505050565b600081905092915050565b6000615c7582614485565b615c7f8185615c5f565b9350615c8f818560208601613f2a565b80840191505092915050565b6000615ca78284615c6a565b91508190509291505056fea26469706673582212201adf576a5a1358120ae58aefa13b104e9055be1ddc321ac8276bd9996e2730c464736f6c63430008090033",
  "linkReferences": {},
  "deployedLinkReferences": {}
}