{"contracts/proponLogic.sol":{"pro_ponLogic":{"abi":[{"inputs":[{"internalType":"address","name":"_dataContractAddress","type":"address"}],"stateMutability":"nonpayable","type":"constructor"},{"anonymous":false,"inputs":[{"indexed":true,"internalType":"address","name":"sender","type":"address"},{"indexed":false,"internalType":"uint256","name":"id","type":"uint256"},{"indexed":false,"internalType":"string","name":"name","type":"string"}],"name":"NewRFPCreated","type":"event"},{"inputs":[{"internalType":"uint256","name":"_rfpIdx","type":"uint256"},{"internalType":"uint256[]","name":"_docTypes","type":"uint256[]"},{"internalType":"string[]","name":"_names","type":"string[]"},{"internalType":"string[]","name":"_documentHashes","type":"string[]"},{"internalType":"string[]","name":"_idxs","type":"string[]"}],"name":"addDocuments","outputs":[],"stateMutability":"nonpayable","type":"function"},{"inputs":[{"internalType":"string","name":"_companyId","type":"string"},{"internalType":"uint256","name":"_rfpIndex","type":"uint256"}],"name":"cancelRFP","outputs":[],"stateMutability":"nonpayable","type":"function"},{"inputs":[{"internalType":"string","name":"_string","type":"string"},{"internalType":"address","name":"_address","type":"address"}],"name":"concatStringAndAddress","outputs":[{"internalType":"bytes32","name":"","type":"bytes32"}],"stateMutability":"pure","type":"function"},{"inputs":[{"internalType":"string","name":"_id","type":"string"},{"internalType":"string","name":"_name","type":"string"},{"internalType":"string","name":"_country","type":"string"}],"name":"createCompany","outputs":[],"stateMutability":"payable","type":"function"},{"inputs":[{"internalType":"string","name":"_name","type":"string"},{"internalType":"string","name":"_description","type":"string"},{"internalType":"string","name":"_rfpwebsite","type":"string"},{"internalType":"uint256","name":"_openDate","type":"uint256"},{"internalType":"uint256","name":"_endReceivingDate","type":"uint256"},{"internalType":"uint256","name":"_endDate","type":"uint256"},{"internalType":"enum proponShared.ContestType","name":"_contestType","type":"uint8"},{"internalType":"string[]","name":"_items","type":"string[]"}],"name":"createRFP","outputs":[],"stateMutability":"payable","type":"function"},{"inputs":[{"internalType":"uint256","name":"_rfpIndex","type":"uint256"},{"internalType":"string","name":"_companyId","type":"string"},{"internalType":"address[]","name":"winners","type":"address[]"}],"name":"declareWinners","outputs":[],"stateMutability":"nonpayable","type":"function"},{"inputs":[{"internalType":"uint256","name":"_rfpId","type":"uint256"},{"internalType":"string","name":"companyId","type":"string"},{"internalType":"address[]","name":"invitedCompanies","type":"address[]"}],"name":"inviteCompaniestoRFP","outputs":[],"stateMutability":"nonpayable","type":"function"},{"inputs":[{"internalType":"address[]","name":"container","type":"address[]"},{"internalType":"address","name":"tocheck","type":"address"}],"name":"isContainedAddress","outputs":[{"internalType":"bool","name":"","type":"bool"}],"stateMutability":"pure","type":"function"},{"inputs":[],"name":"isOwner","outputs":[{"internalType":"bool","name":"","type":"bool"}],"stateMutability":"view","type":"function"},{"inputs":[{"internalType":"uint256","name":"_rfpId","type":"uint256"}],"name":"registertoOpenRFP","outputs":[],"stateMutability":"payable","type":"function"},{"inputs":[],"name":"withdraw","outputs":[],"stateMutability":"nonpayable","type":"function"}],"evm":{"bytecode":{"linkReferences":{},"object":"6080604052600067ffffffffffffffff81111562000022576200002162000239565b5b604051908082528060200260200182016040528015620000515781602001602082028036833780820191505090505b5060039080519060200190620000699291906200018b565b50600067ffffffffffffffff81111562000088576200008762000239565b5b604051908082528060200260200182016040528015620000b75781602001602082028036833780820191505090505b5060049080519060200190620000cf9291906200018b565b50348015620000dd57600080fd5b5060405162005d4c38038062005d4c8339818101604052810190620001039190620002d2565b806000806101000a81548173ffffffffffffffffffffffffffffffffffffffff021916908373ffffffffffffffffffffffffffffffffffffffff16021790555033600160006101000a81548173ffffffffffffffffffffffffffffffffffffffff021916908373ffffffffffffffffffffffffffffffffffffffff1602179055505062000304565b82805482825590600052602060002090810192821562000207579160200282015b82811115620002065782518260006101000a81548173ffffffffffffffffffffffffffffffffffffffff021916908373ffffffffffffffffffffffffffffffffffffffff16021790555091602001919060010190620001ac565b5b5090506200021691906200021a565b5090565b5b80821115620002355760008160009055506001016200021b565b5090565b7f4e487b7100000000000000000000000000000000000000000000000000000000600052604160045260246000fd5b600080fd5b600073ffffffffffffffffffffffffffffffffffffffff82169050919050565b60006200029a826200026d565b9050919050565b620002ac816200028d565b8114620002b857600080fd5b50565b600081519050620002cc81620002a1565b92915050565b600060208284031215620002eb57620002ea62000268565b5b6000620002fb84828501620002bb565b91505092915050565b615a3880620003146000396000f3fe60806040526004361061009c5760003560e01c80635b6a96dc116100645780635b6a96dc146101635780637b60626d146101a05780638f32d59b146101bc578063d2d4ecac146101e7578063ed72f89f14610210578063f1e60d2b1461022c5761009c565b80630adc596e146100a15780632d714f23146100bd5780633ccfd60b146100fa578063482baf931461011157806357c4cab41461013a575b600080fd5b6100bb60048036038101906100b6919061342f565b610255565b005b3480156100c957600080fd5b506100e460048036038101906100df91906135b3565b610b18565b6040516100f19190613628565b60405180910390f35b34801561010657600080fd5b5061010f610b63565b005b34801561011d57600080fd5b5061013860048036038101906101339190613706565b610c5f565b005b34801561014657600080fd5b50610161600480360381019061015c9190613791565b61134d565b005b34801561016f57600080fd5b5061018a600480360381019061018591906137ed565b611864565b6040516101979190613864565b60405180910390f35b6101ba60048036038101906101b5919061387f565b6118f2565b005b3480156101c857600080fd5b506101d1611c49565b6040516101de9190613864565b60405180910390f35b3480156101f357600080fd5b5061020e600480360381019061020991906139e9565b611ca1565b005b61022a60048036038101906102259190613ad4565b612150565b005b34801561023857600080fd5b50610253600480360381019061024e9190613706565b6126e3565b005b60006102618933610b18565b905060008054906101000a900473ffffffffffffffffffffffffffffffffffffffff1673ffffffffffffffffffffffffffffffffffffffff166343a2d048826040518263ffffffff1660e01b81526004016102bc9190613628565b60206040518083038186803b1580156102d457600080fd5b505afa1580156102e8573d6000803e3d6000fd5b505050506040513d601f19601f8201168201806040525081019061030c9190613b2d565b1561034c576040517f08c379a000000000000000000000000000000000000000000000000000000000815260040161034390613bb7565b60405180910390fd5b600060018111156103605761035f613bd7565b5b83600181111561037357610372613bd7565b5b1461041b5760008054906101000a900473ffffffffffffffffffffffffffffffffffffffff1673ffffffffffffffffffffffffffffffffffffffff1663afeff8d96040518163ffffffff1660e01b815260040160206040518083038186803b1580156103de57600080fd5b505afa1580156103f2573d6000803e3d6000fd5b505050506040513d601f19601f820116820180604052508101906104169190613c1b565b6104ba565b60008054906101000a900473ffffffffffffffffffffffffffffffffffffffff1673ffffffffffffffffffffffffffffffffffffffff16634e289b886040518163ffffffff1660e01b815260040160206040518083038186803b15801561048157600080fd5b505afa158015610495573d6000803e3d6000fd5b505050506040513d601f19601f820116820180604052508101906104b99190613c1b565b5b3410156104fc576040517f08c379a00000000000000000000000000000000000000000000000000000000081526004016104f390613c94565b60405180910390fd5b60008060009054906101000a900473ffffffffffffffffffffffffffffffffffffffff1673ffffffffffffffffffffffffffffffffffffffff166362bc56e6336040518263ffffffff1660e01b81526004016105589190613cc3565b60006040518083038186803b15801561057057600080fd5b505afa158015610584573d6000803e3d6000fd5b505050506040513d6000823e3d601f19601f820116820180604052508101906105ad9190613f88565b90506000816000015190506000815114156105fd576040517f08c379a00000000000000000000000000000000000000000000000000000000081526004016105f49061401d565b60405180910390fd5b610e104261060b919061406c565b88101561064d576040517f08c379a0000000000000000000000000000000000000000000000000000000008152600401610644906140ec565b60405180910390fd5b86881061068f576040517f08c379a000000000000000000000000000000000000000000000000000000000815260040161068690614158565b60405180910390fd5b8587106106d1576040517f08c379a00000000000000000000000000000000000000000000000000000000081526004016106c8906141c4565b60405180910390fd5b60008060009054906101000a900473ffffffffffffffffffffffffffffffffffffffff1673ffffffffffffffffffffffffffffffffffffffff16631393b9e86040518163ffffffff1660e01b815260040160206040518083038186803b15801561073a57600080fd5b505afa15801561074e573d6000803e3d6000fd5b505050506040513d601f19601f820116820180604052508101906107729190613c1b565b90506000604051806101c001604052808e81526020018d81526020018381526020018c81526020018b81526020018a815260200189815260200160001515815260200160008152602001600067ffffffffffffffff8111156107d7576107d66131c3565b5b6040519080825280602002602001820160405280156108055781602001602082028036833780820191505090505b50815260200188600181111561081e5761081d613bd7565b5b8152602001878152602001600067ffffffffffffffff811115610844576108436131c3565b5b6040519080825280602002602001820160405280156108725781602001602082028036833780820191505090505b5081526020013373ffffffffffffffffffffffffffffffffffffffff16815250905060008054906101000a900473ffffffffffffffffffffffffffffffffffffffff1673ffffffffffffffffffffffffffffffffffffffff1663f9c3c20c866040518263ffffffff1660e01b81526004016108ed9190613628565b600060405180830381600087803b15801561090757600080fd5b505af115801561091b573d6000803e3d6000fd5b5050505060008054906101000a900473ffffffffffffffffffffffffffffffffffffffff1673ffffffffffffffffffffffffffffffffffffffff1663c356ded583836040518363ffffffff1660e01b815260040161097a92919061457f565b600060405180830381600087803b15801561099457600080fd5b505af11580156109a8573d6000803e3d6000fd5b5050505060008054906101000a900473ffffffffffffffffffffffffffffffffffffffff1673ffffffffffffffffffffffffffffffffffffffff166322f0b32533846040518363ffffffff1660e01b8152600401610a079291906145af565b600060405180830381600087803b158015610a2157600080fd5b505af1158015610a35573d6000803e3d6000fd5b5050505060008054906101000a900473ffffffffffffffffffffffffffffffffffffffff1673ffffffffffffffffffffffffffffffffffffffff16631a3ca1d86040518163ffffffff1660e01b8152600401600060405180830381600087803b158015610aa157600080fd5b505af1158015610ab5573d6000803e3d6000fd5b505050503373ffffffffffffffffffffffffffffffffffffffff167fae438a3ef380e4b013ba12bcb929a59140482304040a1d8cf54d25c8e85640e9838f604051610b01929190614611565b60405180910390a250505050505050505050505050565b6000808380519060200120905060008184604051602001610b3a9291906146aa565b604051602081830303815290604052905060008180519060200120905080935050505092915050565b610b6b611c49565b610baa576040517f08c379a0000000000000000000000000000000000000000000000000000000008152600401610ba190614722565b60405180910390fd5b600047905060003373ffffffffffffffffffffffffffffffffffffffff1682604051610bd590614773565b60006040518083038185875af1925050503d8060008114610c12576040519150601f19603f3d011682016040523d82523d6000602084013e610c17565b606091505b5050905080610c5b576040517f08c379a0000000000000000000000000000000000000000000000000000000008152600401610c52906147d4565b60405180910390fd5b5050565b81610d1760008054906101000a900473ffffffffffffffffffffffffffffffffffffffff1673ffffffffffffffffffffffffffffffffffffffff1663d6f343c5336040518263ffffffff1660e01b8152600401610cbc9190613cc3565b60006040518083038186803b158015610cd457600080fd5b505afa158015610ce8573d6000803e3d6000fd5b505050506040513d6000823e3d601f19601f82011682018060405250810190610d1191906147f4565b82612ff4565b610d56576040517f08c379a0000000000000000000000000000000000000000000000000000000008152600401610d4d90614889565b60405180910390fd5b833373ffffffffffffffffffffffffffffffffffffffff1660008054906101000a900473ffffffffffffffffffffffffffffffffffffffff1673ffffffffffffffffffffffffffffffffffffffff16633b8a8a16836040518263ffffffff1660e01b8152600401610dc791906148a9565b60206040518083038186803b158015610ddf57600080fd5b505afa158015610df3573d6000803e3d6000fd5b505050506040513d601f19601f82011682018060405250810190610e1791906148d9565b73ffffffffffffffffffffffffffffffffffffffff1614610e6d576040517f08c379a0000000000000000000000000000000000000000000000000000000008152600401610e6490614952565b60405180910390fd5b8460008054906101000a900473ffffffffffffffffffffffffffffffffffffffff1673ffffffffffffffffffffffffffffffffffffffff16638cbd7834826040518263ffffffff1660e01b8152600401610ec791906148a9565b60206040518083038186803b158015610edf57600080fd5b505afa158015610ef3573d6000803e3d6000fd5b505050506040513d601f19601f82011682018060405250810190610f179190613b2d565b15610f57576040517f08c379a0000000000000000000000000000000000000000000000000000000008152600401610f4e906149be565b60405180910390fd5b60008060009054906101000a900473ffffffffffffffffffffffffffffffffffffffff1673ffffffffffffffffffffffffffffffffffffffff16632f72af34886040518263ffffffff1660e01b8152600401610fb391906148a9565b60006040518083038186803b158015610fcb57600080fd5b505afa158015610fdf573d6000803e3d6000fd5b505050506040513d6000823e3d601f19601f820116820180604052508101906110089190614d35565b905060018081111561101d5761101c613bd7565b5b816101400151600181111561103557611034613bd7565b5b14611075576040517f08c379a000000000000000000000000000000000000000000000000000000000815260040161106c90614dca565b60405180910390fd5b60008054906101000a900473ffffffffffffffffffffffffffffffffffffffff1673ffffffffffffffffffffffffffffffffffffffff16635a6167c96040518163ffffffff1660e01b815260040160206040518083038186803b1580156110db57600080fd5b505afa1580156110ef573d6000803e3d6000fd5b505050506040513d601f19601f820116820180604052508101906111139190613c1b565b8551826101200151516111269190614dea565b1115611167576040517f08c379a000000000000000000000000000000000000000000000000000000000815260040161115e90614e8c565b60405180910390fd5b60005b85518160ff16101561134357600060019050868260ff168151811061119257611191614eac565b5b602002602001015173ffffffffffffffffffffffffffffffffffffffff163373ffffffffffffffffffffffffffffffffffffffff1614156111d35750611330565b600083610120015151905060005b818160ff16101561127b57888460ff168151811061120257611201614eac565b5b602002602001015173ffffffffffffffffffffffffffffffffffffffff168561012001518260ff168151811061123b5761123a614eac565b5b602002602001015173ffffffffffffffffffffffffffffffffffffffff161415611268576000925061127b565b808061127390614ee8565b9150506111e1565b50811561132d5760008054906101000a900473ffffffffffffffffffffffffffffffffffffffff1673ffffffffffffffffffffffffffffffffffffffff1663d2f1c77c8b8a8660ff16815181106112d5576112d4614eac565b5b60200260200101516040518363ffffffff1660e01b81526004016112fa929190614f12565b600060405180830381600087803b15801561131457600080fd5b505af1158015611328573d6000803e3d6000fd5b505050505b50505b808061133b90614ee8565b91505061116a565b5050505050505050565b8161140560008054906101000a900473ffffffffffffffffffffffffffffffffffffffff1673ffffffffffffffffffffffffffffffffffffffff1663d6f343c5336040518263ffffffff1660e01b81526004016113aa9190613cc3565b60006040518083038186803b1580156113c257600080fd5b505afa1580156113d6573d6000803e3d6000fd5b505050506040513d6000823e3d601f19601f820116820180604052508101906113ff91906147f4565b82612ff4565b611444576040517f08c379a000000000000000000000000000000000000000000000000000000000815260040161143b90614889565b60405180910390fd5b813373ffffffffffffffffffffffffffffffffffffffff1660008054906101000a900473ffffffffffffffffffffffffffffffffffffffff1673ffffffffffffffffffffffffffffffffffffffff16633b8a8a16836040518263ffffffff1660e01b81526004016114b591906148a9565b60206040518083038186803b1580156114cd57600080fd5b505afa1580156114e1573d6000803e3d6000fd5b505050506040513d601f19601f8201168201806040525081019061150591906148d9565b73ffffffffffffffffffffffffffffffffffffffff161461155b576040517f08c379a000000000000000000000000000000000000000000000000000000000815260040161155290614952565b60405180910390fd5b8260008054906101000a900473ffffffffffffffffffffffffffffffffffffffff1673ffffffffffffffffffffffffffffffffffffffff16638cbd7834826040518263ffffffff1660e01b81526004016115b591906148a9565b60206040518083038186803b1580156115cd57600080fd5b505afa1580156115e1573d6000803e3d6000fd5b505050506040513d601f19601f820116820180604052508101906116059190613b2d565b15611645576040517f08c379a000000000000000000000000000000000000000000000000000000000815260040161163c906149be565b60405180910390fd5b60008060009054906101000a900473ffffffffffffffffffffffffffffffffffffffff1673ffffffffffffffffffffffffffffffffffffffff16632f72af34866040518263ffffffff1660e01b81526004016116a191906148a9565b60006040518083038186803b1580156116b957600080fd5b505afa1580156116cd573d6000803e3d6000fd5b505050506040513d6000823e3d601f19601f820116820180604052508101906116f69190614d35565b905060008161018001515114611741576040517f08c379a000000000000000000000000000000000000000000000000000000000815260040161173890614f87565b60405180910390fd5b60008054906101000a900473ffffffffffffffffffffffffffffffffffffffff1673ffffffffffffffffffffffffffffffffffffffff1663a0b437df8660016040518363ffffffff1660e01b815260040161179d929190614fa7565b600060405180830381600087803b1580156117b757600080fd5b505af11580156117cb573d6000803e3d6000fd5b5050505060008054906101000a900473ffffffffffffffffffffffffffffffffffffffff1673ffffffffffffffffffffffffffffffffffffffff166384f816e586426040518363ffffffff1660e01b815260040161182a929190614fd0565b600060405180830381600087803b15801561184457600080fd5b505af1158015611858573d6000803e3d6000fd5b50505050505050505050565b600080600090505b83518160ff1610156118e6578273ffffffffffffffffffffffffffffffffffffffff16848260ff16815181106118a5576118a4614eac565b5b602002602001015173ffffffffffffffffffffffffffffffffffffffff1614156118d35760019150506118ec565b80806118de90614ee8565b91505061186c565b50600090505b92915050565b60008054906101000a900473ffffffffffffffffffffffffffffffffffffffff1673ffffffffffffffffffffffffffffffffffffffff166390287940846040518263ffffffff1660e01b815260040161194b9190614ff9565b60206040518083038186803b15801561196357600080fd5b505afa158015611977573d6000803e3d6000fd5b505050506040513d601f19601f8201168201806040525081019061199b9190613b2d565b156119db576040517f08c379a00000000000000000000000000000000000000000000000000000000081526004016119d290615067565b60405180910390fd5b60008054906101000a900473ffffffffffffffffffffffffffffffffffffffff1673ffffffffffffffffffffffffffffffffffffffff1663215cf05d6040518163ffffffff1660e01b815260040160206040518083038186803b158015611a4157600080fd5b505afa158015611a55573d6000803e3d6000fd5b505050506040513d601f19601f82011682018060405250810190611a799190613c1b565b341015611abb576040517f08c379a0000000000000000000000000000000000000000000000000000000008152600401611ab290613c94565b60405180910390fd5b60008060009054906101000a900473ffffffffffffffffffffffffffffffffffffffff1673ffffffffffffffffffffffffffffffffffffffff1663d6f343c5336040518263ffffffff1660e01b8152600401611b179190613cc3565b60006040518083038186803b158015611b2f57600080fd5b505afa158015611b43573d6000803e3d6000fd5b505050506040513d6000823e3d601f19601f82011682018060405250810190611b6c91906147f4565b90506000815114611bb2576040517f08c379a0000000000000000000000000000000000000000000000000000000008152600401611ba9906150d3565b60405180910390fd5b60008054906101000a900473ffffffffffffffffffffffffffffffffffffffff1673ffffffffffffffffffffffffffffffffffffffff1663e31fc5bf338686866040518563ffffffff1660e01b8152600401611c1194939291906150f3565b600060405180830381600087803b158015611c2b57600080fd5b505af1158015611c3f573d6000803e3d6000fd5b5050505050505050565b6000600160009054906101000a900473ffffffffffffffffffffffffffffffffffffffff1673ffffffffffffffffffffffffffffffffffffffff163373ffffffffffffffffffffffffffffffffffffffff1614905090565b82518451148015611cb3575081518351145b8015611cc0575080518251145b611cff576040517f08c379a0000000000000000000000000000000000000000000000000000000008152600401611cf690615199565b60405180910390fd5b60008060009054906101000a900473ffffffffffffffffffffffffffffffffffffffff1673ffffffffffffffffffffffffffffffffffffffff16632f72af34876040518263ffffffff1660e01b8152600401611d5b91906148a9565b60006040518083038186803b158015611d7357600080fd5b505afa158015611d87573d6000803e3d6000fd5b505050506040513d6000823e3d601f19601f82011682018060405250810190611db09190614d35565b90506000816101a0015173ffffffffffffffffffffffffffffffffffffffff163373ffffffffffffffffffffffffffffffffffffffff1614905080611ebf5760008083610120015151905060005b818160ff161015611e7b578461012001518160ff1681518110611e2457611e23614eac565b5b602002602001015173ffffffffffffffffffffffffffffffffffffffff163373ffffffffffffffffffffffffffffffffffffffff161415611e685760019250611e7b565b8080611e7390614ee8565b915050611dfe565b5081611ebc576040517f08c379a0000000000000000000000000000000000000000000000000000000008152600401611eb390615205565b60405180910390fd5b50505b6000805b86518160ff161015612145576000888260ff1681518110611ee757611ee6614eac565b5b602002602001015190506000600a811115611f0557611f04613bd7565b5b60ff168160ff161480611f3057506001600a811115611f2757611f26613bd7565b5b60ff168160ff16145b80611f5357506002600a811115611f4a57611f49613bd7565b5b60ff168160ff16145b92508315611fa05782611f9b576040517f08c379a0000000000000000000000000000000000000000000000000000000008152600401611f9290615271565b60405180910390fd5b612028565b8215611fe1576040517f08c379a0000000000000000000000000000000000000000000000000000000008152600401611fd8906152dd565b60405180910390fd5b428560a0015111612027576040517f08c379a000000000000000000000000000000000000000000000000000000000815260040161201e90615349565b60405180910390fd5b5b60008054906101000a900473ffffffffffffffffffffffffffffffffffffffff1673ffffffffffffffffffffffffffffffffffffffff1663d88f15a78b8b8560ff168151811061207b5761207a614eac565b5b60200260200101518b8660ff168151811061209957612098614eac565b5b6020026020010151338c8860ff16815181106120b8576120b7614eac565b5b60200260200101518c8960ff16815181106120d6576120d5614eac565b5b60200260200101516040518763ffffffff1660e01b81526004016120ff96959493929190615369565b600060405180830381600087803b15801561211957600080fd5b505af115801561212d573d6000803e3d6000fd5b5050505050808061213d90614ee8565b915050611ec3565b505050505050505050565b8060008054906101000a900473ffffffffffffffffffffffffffffffffffffffff1673ffffffffffffffffffffffffffffffffffffffff16638cbd7834826040518263ffffffff1660e01b81526004016121aa91906148a9565b60206040518083038186803b1580156121c257600080fd5b505afa1580156121d6573d6000803e3d6000fd5b505050506040513d601f19601f820116820180604052508101906121fa9190613b2d565b1561223a576040517f08c379a0000000000000000000000000000000000000000000000000000000008152600401612231906149be565b60405180910390fd5b60008060009054906101000a900473ffffffffffffffffffffffffffffffffffffffff1673ffffffffffffffffffffffffffffffffffffffff16632f72af34846040518263ffffffff1660e01b815260040161229691906148a9565b60006040518083038186803b1580156122ae57600080fd5b505afa1580156122c2573d6000803e3d6000fd5b505050506040513d6000823e3d601f19601f820116820180604052508101906122eb9190614d35565b905060008054906101000a900473ffffffffffffffffffffffffffffffffffffffff1673ffffffffffffffffffffffffffffffffffffffff1663be38013b6040518163ffffffff1660e01b815260040160206040518083038186803b15801561235357600080fd5b505afa158015612367573d6000803e3d6000fd5b505050506040513d601f19601f8201168201806040525081019061238b9190613c1b565b3410156123cd576040517f08c379a00000000000000000000000000000000000000000000000000000000081526004016123c49061542b565b60405180910390fd5b600060018111156123e1576123e0613bd7565b5b81610140015160018111156123f9576123f8613bd7565b5b14612439576040517f08c379a000000000000000000000000000000000000000000000000000000000815260040161243090615497565b60405180910390fd5b60008054906101000a900473ffffffffffffffffffffffffffffffffffffffff1673ffffffffffffffffffffffffffffffffffffffff1663ecbb7b4a6040518163ffffffff1660e01b815260040160206040518083038186803b15801561249f57600080fd5b505afa1580156124b3573d6000803e3d6000fd5b505050506040513d601f19601f820116820180604052508101906124d79190613c1b565b816101200151511061251e576040517f08c379a000000000000000000000000000000000000000000000000000000000815260040161251590615503565b60405180910390fd5b806101a0015173ffffffffffffffffffffffffffffffffffffffff163373ffffffffffffffffffffffffffffffffffffffff161415612592576040517f08c379a00000000000000000000000000000000000000000000000000000000081526004016125899061556f565b60405180910390fd5b600081610120015151905060005b818160ff16101561264f573373ffffffffffffffffffffffffffffffffffffffff168361012001518260ff16815181106125dd576125dc614eac565b5b602002602001015173ffffffffffffffffffffffffffffffffffffffff16141561263c576040517f08c379a0000000000000000000000000000000000000000000000000000000008152600401612633906155db565b60405180910390fd5b808061264790614ee8565b9150506125a0565b5060008054906101000a900473ffffffffffffffffffffffffffffffffffffffff1673ffffffffffffffffffffffffffffffffffffffff1663d2f1c77c85336040518363ffffffff1660e01b81526004016126ab929190614f12565b600060405180830381600087803b1580156126c557600080fd5b505af11580156126d9573d6000803e3d6000fd5b5050505050505050565b8161279b60008054906101000a900473ffffffffffffffffffffffffffffffffffffffff1673ffffffffffffffffffffffffffffffffffffffff1663d6f343c5336040518263ffffffff1660e01b81526004016127409190613cc3565b60006040518083038186803b15801561275857600080fd5b505afa15801561276c573d6000803e3d6000fd5b505050506040513d6000823e3d601f19601f8201168201806040525081019061279591906147f4565b82612ff4565b6127da576040517f08c379a00000000000000000000000000000000000000000000000000000000081526004016127d190614889565b60405180910390fd5b833373ffffffffffffffffffffffffffffffffffffffff1660008054906101000a900473ffffffffffffffffffffffffffffffffffffffff1673ffffffffffffffffffffffffffffffffffffffff16633b8a8a16836040518263ffffffff1660e01b815260040161284b91906148a9565b60206040518083038186803b15801561286357600080fd5b505afa158015612877573d6000803e3d6000fd5b505050506040513d601f19601f8201168201806040525081019061289b91906148d9565b73ffffffffffffffffffffffffffffffffffffffff16146128f1576040517f08c379a00000000000000000000000000000000000000000000000000000000081526004016128e890614952565b60405180910390fd5b8460008054906101000a900473ffffffffffffffffffffffffffffffffffffffff1673ffffffffffffffffffffffffffffffffffffffff16638cbd7834826040518263ffffffff1660e01b815260040161294b91906148a9565b60206040518083038186803b15801561296357600080fd5b505afa158015612977573d6000803e3d6000fd5b505050506040513d601f19601f8201168201806040525081019061299b9190613b2d565b156129db576040517f08c379a00000000000000000000000000000000000000000000000000000000081526004016129d2906149be565b60405180910390fd5b60008060009054906101000a900473ffffffffffffffffffffffffffffffffffffffff1673ffffffffffffffffffffffffffffffffffffffff16632f72af34886040518263ffffffff1660e01b8152600401612a3791906148a9565b60006040518083038186803b158015612a4f57600080fd5b505afa158015612a63573d6000803e3d6000fd5b505050506040513d6000823e3d601f19601f82011682018060405250810190612a8c9190614d35565b905060008161018001515114612ad7576040517f08c379a0000000000000000000000000000000000000000000000000000000008152600401612ace90614f87565b60405180910390fd5b8060e0015115612b1c576040517f08c379a0000000000000000000000000000000000000000000000000000000008152600401612b13906149be565b60405180910390fd5b60008161016001515190506000865190506000821480612b3c5750600182145b8015612b49575060018751145b80612b60575060028210158015612b5f57508181145b5b612b9f576040517f08c379a0000000000000000000000000000000000000000000000000000000008152600401612b9690615647565b60405180910390fd5b8260c00151421015612be6576040517f08c379a0000000000000000000000000000000000000000000000000000000008152600401612bdd906156b3565b60405180910390fd5b60005b818160ff161015612e29576000888260ff1681518110612c0c57612c0b614eac565b5b602002602001015190503373ffffffffffffffffffffffffffffffffffffffff168173ffffffffffffffffffffffffffffffffffffffff161415612c85576040517f08c379a0000000000000000000000000000000000000000000000000000000008152600401612c7c9061571f565b60405180910390fd5b612c9481866101200151613060565b612cd3576040517f08c379a0000000000000000000000000000000000000000000000000000000008152600401612cca9061578b565b60405180910390fd5b600260008273ffffffffffffffffffffffffffffffffffffffff1673ffffffffffffffffffffffffffffffffffffffff16815260200190815260200160002060009054906101000a900460ff16612e15576001600260008373ffffffffffffffffffffffffffffffffffffffff1673ffffffffffffffffffffffffffffffffffffffff16815260200190815260200160002060006101000a81548160ff021916908315150217905550600073ffffffffffffffffffffffffffffffffffffffff168173ffffffffffffffffffffffffffffffffffffffff1614612e14576004819080600181540180825580915050600190039060005260206000200160009091909190916101000a81548173ffffffffffffffffffffffffffffffffffffffff021916908373ffffffffffffffffffffffffffffffffffffffff1602179055505b5b508080612e2190614ee8565b915050612be9565b5060008054906101000a900473ffffffffffffffffffffffffffffffffffffffff1673ffffffffffffffffffffffffffffffffffffffff1663f8195d6c8a896040518363ffffffff1660e01b8152600401612e8592919061581a565b600060405180830381600087803b158015612e9f57600080fd5b505af1158015612eb3573d6000803e3d6000fd5b5050505060008054906101000a900473ffffffffffffffffffffffffffffffffffffffff1673ffffffffffffffffffffffffffffffffffffffff1663f0174dc48a60046040518363ffffffff1660e01b8152600401612f13929190615936565b600060405180830381600087803b158015612f2d57600080fd5b505af1158015612f41573d6000803e3d6000fd5b5050505060036004908054612f57929190613125565b5060005b81811015612fe8576000600260008a8481518110612f7c57612f7b614eac565b5b602002602001015173ffffffffffffffffffffffffffffffffffffffff1673ffffffffffffffffffffffffffffffffffffffff16815260200190815260200160002060006101000a81548160ff0219169083151502179055508080612fe090615966565b915050612f5b565b50505050505050505050565b60008151835114613008576000905061305a565b8160405160200161301991906159eb565b604051602081830303815290604052805190602001208360405160200161304091906159eb565b604051602081830303815290604052805190602001201490505b92915050565b600080600090505b82518160ff16101561311957828160ff168151811061308a57613089614eac565b5b602002602001015173ffffffffffffffffffffffffffffffffffffffff168473ffffffffffffffffffffffffffffffffffffffff1614806130f75750600073ffffffffffffffffffffffffffffffffffffffff168473ffffffffffffffffffffffffffffffffffffffff16145b1561310657600191505061311f565b808061311190614ee8565b915050613068565b50600090505b92915050565b8280548282559060005260206000209081019282156131665760005260206000209182015b8281111561316557825482559160010191906001019061314a565b5b5090506131739190613177565b5090565b5b80821115613190576000816000905550600101613178565b5090565b6000604051905090565b600080fd5b600080fd5b600080fd5b600080fd5b6000601f19601f8301169050919050565b7f4e487b7100000000000000000000000000000000000000000000000000000000600052604160045260246000fd5b6131fb826131b2565b810181811067ffffffffffffffff8211171561321a576132196131c3565b5b80604052505050565b600061322d613194565b905061323982826131f2565b919050565b600067ffffffffffffffff821115613259576132586131c3565b5b613262826131b2565b9050602081019050919050565b82818337600083830152505050565b600061329161328c8461323e565b613223565b9050828152602081018484840111156132ad576132ac6131ad565b5b6132b884828561326f565b509392505050565b600082601f8301126132d5576132d46131a8565b5b81356132e584826020860161327e565b91505092915050565b6000819050919050565b613301816132ee565b811461330c57600080fd5b50565b60008135905061331e816132f8565b92915050565b6002811061333157600080fd5b50565b60008135905061334381613324565b92915050565b600067ffffffffffffffff821115613364576133636131c3565b5b602082029050602081019050919050565b600080fd5b600061338d61338884613349565b613223565b905080838252602082019050602084028301858111156133b0576133af613375565b5b835b818110156133f757803567ffffffffffffffff8111156133d5576133d46131a8565b5b8086016133e289826132c0565b855260208501945050506020810190506133b2565b5050509392505050565b600082601f830112613416576134156131a8565b5b813561342684826020860161337a565b91505092915050565b600080600080600080600080610100898b0312156134505761344f61319e565b5b600089013567ffffffffffffffff81111561346e5761346d6131a3565b5b61347a8b828c016132c0565b985050602089013567ffffffffffffffff81111561349b5761349a6131a3565b5b6134a78b828c016132c0565b975050604089013567ffffffffffffffff8111156134c8576134c76131a3565b5b6134d48b828c016132c0565b96505060606134e58b828c0161330f565b95505060806134f68b828c0161330f565b94505060a06135078b828c0161330f565b93505060c06135188b828c01613334565b92505060e089013567ffffffffffffffff811115613539576135386131a3565b5b6135458b828c01613401565b9150509295985092959890939650565b600073ffffffffffffffffffffffffffffffffffffffff82169050919050565b600061358082613555565b9050919050565b61359081613575565b811461359b57600080fd5b50565b6000813590506135ad81613587565b92915050565b600080604083850312156135ca576135c961319e565b5b600083013567ffffffffffffffff8111156135e8576135e76131a3565b5b6135f4858286016132c0565b92505060206136058582860161359e565b9150509250929050565b6000819050919050565b6136228161360f565b82525050565b600060208201905061363d6000830184613619565b92915050565b600067ffffffffffffffff82111561365e5761365d6131c3565b5b602082029050602081019050919050565b600061368261367d84613643565b613223565b905080838252602082019050602084028301858111156136a5576136a4613375565b5b835b818110156136ce57806136ba888261359e565b8452602084019350506020810190506136a7565b5050509392505050565b600082601f8301126136ed576136ec6131a8565b5b81356136fd84826020860161366f565b91505092915050565b60008060006060848603121561371f5761371e61319e565b5b600061372d8682870161330f565b935050602084013567ffffffffffffffff81111561374e5761374d6131a3565b5b61375a868287016132c0565b925050604084013567ffffffffffffffff81111561377b5761377a6131a3565b5b613787868287016136d8565b9150509250925092565b600080604083850312156137a8576137a761319e565b5b600083013567ffffffffffffffff8111156137c6576137c56131a3565b5b6137d2858286016132c0565b92505060206137e38582860161330f565b9150509250929050565b600080604083850312156138045761380361319e565b5b600083013567ffffffffffffffff811115613822576138216131a3565b5b61382e858286016136d8565b925050602061383f8582860161359e565b9150509250929050565b60008115159050919050565b61385e81613849565b82525050565b60006020820190506138796000830184613855565b92915050565b6000806000606084860312156138985761389761319e565b5b600084013567ffffffffffffffff8111156138b6576138b56131a3565b5b6138c2868287016132c0565b935050602084013567ffffffffffffffff8111156138e3576138e26131a3565b5b6138ef868287016132c0565b925050604084013567ffffffffffffffff8111156139105761390f6131a3565b5b61391c868287016132c0565b9150509250925092565b600067ffffffffffffffff821115613941576139406131c3565b5b602082029050602081019050919050565b600061396561396084613926565b613223565b9050808382526020820190506020840283018581111561398857613987613375565b5b835b818110156139b1578061399d888261330f565b84526020840193505060208101905061398a565b5050509392505050565b600082601f8301126139d0576139cf6131a8565b5b81356139e0848260208601613952565b91505092915050565b600080600080600060a08688031215613a0557613a0461319e565b5b6000613a138882890161330f565b955050602086013567ffffffffffffffff811115613a3457613a336131a3565b5b613a40888289016139bb565b945050604086013567ffffffffffffffff811115613a6157613a606131a3565b5b613a6d88828901613401565b935050606086013567ffffffffffffffff811115613a8e57613a8d6131a3565b5b613a9a88828901613401565b925050608086013567ffffffffffffffff811115613abb57613aba6131a3565b5b613ac788828901613401565b9150509295509295909350565b600060208284031215613aea57613ae961319e565b5b6000613af88482850161330f565b91505092915050565b613b0a81613849565b8114613b1557600080fd5b50565b600081519050613b2781613b01565b92915050565b600060208284031215613b4357613b4261319e565b5b6000613b5184828501613b18565b91505092915050565b600082825260208201905092915050565b7f72667069645f616c72656164795f74616b656e00000000000000000000000000600082015250565b6000613ba1601383613b5a565b9150613bac82613b6b565b602082019050919050565b60006020820190508181036000830152613bd081613b94565b9050919050565b7f4e487b7100000000000000000000000000000000000000000000000000000000600052602160045260246000fd5b600081519050613c15816132f8565b92915050565b600060208284031215613c3157613c3061319e565b5b6000613c3f84828501613c06565b91505092915050565b7f496e73756666696369656e745f7061796d656e74000000000000000000000000600082015250565b6000613c7e601483613b5a565b9150613c8982613c48565b602082019050919050565b60006020820190508181036000830152613cad81613c71565b9050919050565b613cbd81613575565b82525050565b6000602082019050613cd86000830184613cb4565b92915050565b600080fd5b600080fd5b60005b83811015613d06578082015181840152602081019050613ceb565b83811115613d15576000848401525b50505050565b6000613d2e613d298461323e565b613223565b905082815260208101848484011115613d4a57613d496131ad565b5b613d55848285613ce8565b509392505050565b600082601f830112613d7257613d716131a8565b5b8151613d82848260208601613d1b565b91505092915050565b600061ffff82169050919050565b613da281613d8b565b8114613dad57600080fd5b50565b600081519050613dbf81613d99565b92915050565b6000613dd8613dd384613926565b613223565b90508083825260208201905060208402830185811115613dfb57613dfa613375565b5b835b81811015613e245780613e108882613c06565b845260208401935050602081019050613dfd565b5050509392505050565b600082601f830112613e4357613e426131a8565b5b8151613e53848260208601613dc5565b91505092915050565b600060c08284031215613e7257613e71613cde565b5b613e7c60c0613223565b9050600082015167ffffffffffffffff811115613e9c57613e9b613ce3565b5b613ea884828501613d5d565b600083015250602082015167ffffffffffffffff811115613ecc57613ecb613ce3565b5b613ed884828501613d5d565b602083015250604082015167ffffffffffffffff811115613efc57613efb613ce3565b5b613f0884828501613d5d565b6040830152506060613f1c84828501613db0565b606083015250608082015167ffffffffffffffff811115613f4057613f3f613ce3565b5b613f4c84828501613e2e565b60808301525060a082015167ffffffffffffffff811115613f7057613f6f613ce3565b5b613f7c84828501613e2e565b60a08301525092915050565b600060208284031215613f9e57613f9d61319e565b5b600082015167ffffffffffffffff811115613fbc57613fbb6131a3565b5b613fc884828501613e5c565b91505092915050565b7f616464726573735f6e6f745f61646d696e000000000000000000000000000000600082015250565b6000614007601183613b5a565b915061401282613fd1565b602082019050919050565b6000602082019050818103600083015261403681613ffa565b9050919050565b7f4e487b7100000000000000000000000000000000000000000000000000000000600052601160045260246000fd5b6000614077826132ee565b9150614082836132ee565b9250828210156140955761409461403d565b5b828203905092915050565b7f6f70656e646174655f626568696e645f746f6461790000000000000000000000600082015250565b60006140d6601583613b5a565b91506140e1826140a0565b602082019050919050565b60006020820190508181036000830152614105816140c9565b9050919050565b7f696e697469616c5f646174655f77726f6e670000000000000000000000000000600082015250565b6000614142601283613b5a565b915061414d8261410c565b602082019050919050565b6000602082019050818103600083015261417181614135565b9050919050565b7f726563656976696e675f646174655f77726f6e67000000000000000000000000600082015250565b60006141ae601483613b5a565b91506141b982614178565b602082019050919050565b600060208201905081810360008301526141dd816141a1565b9050919050565b6141ed816132ee565b82525050565b600081519050919050565b600082825260208201905092915050565b600061421a826141f3565b61422481856141fe565b9350614234818560208601613ce8565b61423d816131b2565b840191505092915050565b614251816132ee565b82525050565b61426081613849565b82525050565b600081519050919050565b600082825260208201905092915050565b6000819050602082019050919050565b61429b81613575565b82525050565b60006142ad8383614292565b60208301905092915050565b6000602082019050919050565b60006142d182614266565b6142db8185614271565b93506142e683614282565b8060005b838110156143175781516142fe88826142a1565b9750614309836142b9565b9250506001810190506142ea565b5085935050505092915050565b6002811061433557614334613bd7565b5b50565b600081905061434682614324565b919050565b600061435682614338565b9050919050565b6143668161434b565b82525050565b600081519050919050565b600082825260208201905092915050565b6000819050602082019050919050565b60006143a4838361420f565b905092915050565b6000602082019050919050565b60006143c48261436c565b6143ce8185614377565b9350836020820285016143e085614388565b8060005b8581101561441c57848403895281516143fd8582614398565b9450614408836143ac565b925060208a019950506001810190506143e4565b50829750879550505050505092915050565b60006101c083016000830151848203600086015261444c828261420f565b91505060208301518482036020860152614466828261420f565b915050604083015161447b6040860182614248565b5060608301518482036060860152614493828261420f565b91505060808301516144a86080860182614248565b5060a08301516144bb60a0860182614248565b5060c08301516144ce60c0860182614248565b5060e08301516144e160e0860182614257565b506101008301516144f6610100860182614248565b5061012083015184820361012086015261451082826142c6565b91505061014083015161452761014086018261435d565b5061016083015184820361016086015261454182826143b9565b91505061018083015184820361018086015261455d82826142c6565b9150506101a08301516145746101a0860182614292565b508091505092915050565b600060408201905061459460008301856141e4565b81810360208301526145a6818461442e565b90509392505050565b60006040820190506145c46000830185613cb4565b6145d160208301846141e4565b9392505050565b60006145e3826141f3565b6145ed8185613b5a565b93506145fd818560208601613ce8565b614606816131b2565b840191505092915050565b600060408201905061462660008301856141e4565b818103602083015261463881846145d8565b90509392505050565b6000819050919050565b61465c6146578261360f565b614641565b82525050565b60008160601b9050919050565b600061467a82614662565b9050919050565b600061468c8261466f565b9050919050565b6146a461469f82613575565b614681565b82525050565b60006146b6828561464b565b6020820191506146c68284614693565b6014820191508190509392505050565b7f4f6e6c795f6f776e65725f616c6c6f7765640000000000000000000000000000600082015250565b600061470c601283613b5a565b9150614717826146d6565b602082019050919050565b6000602082019050818103600083015261473b816146ff565b9050919050565b600081905092915050565b50565b600061475d600083614742565b91506147688261474d565b600082019050919050565b600061477e82614750565b9150819050919050565b7f6661696c65645f77697468647261770000000000000000000000000000000000600082015250565b60006147be600f83613b5a565b91506147c982614788565b602082019050919050565b600060208201905081810360008301526147ed816147b1565b9050919050565b60006020828403121561480a5761480961319e565b5b600082015167ffffffffffffffff811115614828576148276131a3565b5b61483484828501613d5d565b91505092915050565b7f4f6e6c795f61646d696e5f63616e5f706572666f726d00000000000000000000600082015250565b6000614873601683613b5a565b915061487e8261483d565b602082019050919050565b600060208201905081810360008301526148a281614866565b9050919050565b60006020820190506148be60008301846141e4565b92915050565b6000815190506148d381613587565b92915050565b6000602082840312156148ef576148ee61319e565b5b60006148fd848285016148c4565b91505092915050565b7f4f6e6c795f6973737565725f63616e5f706572666f726d000000000000000000600082015250565b600061493c601783613b5a565b915061494782614906565b602082019050919050565b6000602082019050818103600083015261496b8161492f565b9050919050565b7f616c72656164795f63616e63656c656400000000000000000000000000000000600082015250565b60006149a8601083613b5a565b91506149b382614972565b602082019050919050565b600060208201905081810360008301526149d78161499b565b9050919050565b60006149f16149ec84613643565b613223565b90508083825260208201905060208402830185811115614a1457614a13613375565b5b835b81811015614a3d5780614a2988826148c4565b845260208401935050602081019050614a16565b5050509392505050565b600082601f830112614a5c57614a5b6131a8565b5b8151614a6c8482602086016149de565b91505092915050565b600081519050614a8481613324565b92915050565b6000614a9d614a9884613349565b613223565b90508083825260208201905060208402830185811115614ac057614abf613375565b5b835b81811015614b0757805167ffffffffffffffff811115614ae557614ae46131a8565b5b808601614af28982613d5d565b85526020850194505050602081019050614ac2565b5050509392505050565b600082601f830112614b2657614b256131a8565b5b8151614b36848260208601614a8a565b91505092915050565b60006101c08284031215614b5657614b55613cde565b5b614b616101c0613223565b9050600082015167ffffffffffffffff811115614b8157614b80613ce3565b5b614b8d84828501613d5d565b600083015250602082015167ffffffffffffffff811115614bb157614bb0613ce3565b5b614bbd84828501613d5d565b6020830152506040614bd184828501613c06565b604083015250606082015167ffffffffffffffff811115614bf557614bf4613ce3565b5b614c0184828501613d5d565b6060830152506080614c1584828501613c06565b60808301525060a0614c2984828501613c06565b60a08301525060c0614c3d84828501613c06565b60c08301525060e0614c5184828501613b18565b60e083015250610100614c6684828501613c06565b6101008301525061012082015167ffffffffffffffff811115614c8c57614c8b613ce3565b5b614c9884828501614a47565b61012083015250610140614cae84828501614a75565b6101408301525061016082015167ffffffffffffffff811115614cd457614cd3613ce3565b5b614ce084828501614b11565b6101608301525061018082015167ffffffffffffffff811115614d0657614d05613ce3565b5b614d1284828501614a47565b610180830152506101a0614d28848285016148c4565b6101a08301525092915050565b600060208284031215614d4b57614d4a61319e565b5b600082015167ffffffffffffffff811115614d6957614d686131a3565b5b614d7584828501614b3f565b91505092915050565b7f77726f6e675f636f6e746573745f747970650000000000000000000000000000600082015250565b6000614db4601283613b5a565b9150614dbf82614d7e565b602082019050919050565b60006020820190508181036000830152614de381614da7565b9050919050565b6000614df5826132ee565b9150614e00836132ee565b9250827fffffffffffffffffffffffffffffffffffffffffffffffffffffffffffffffff03821115614e3557614e3461403d565b5b828201905092915050565b7f746f6f5f6d616e795f6775657374730000000000000000000000000000000000600082015250565b6000614e76600f83613b5a565b9150614e8182614e40565b602082019050919050565b60006020820190508181036000830152614ea581614e69565b9050919050565b7f4e487b7100000000000000000000000000000000000000000000000000000000600052603260045260246000fd5b600060ff82169050919050565b6000614ef382614edb565b915060ff821415614f0757614f0661403d565b5b600182019050919050565b6000604082019050614f2760008301856141e4565b614f346020830184613cb4565b9392505050565b7f7266705f616c72656164795f6177617264656400000000000000000000000000600082015250565b6000614f71601383613b5a565b9150614f7c82614f3b565b602082019050919050565b60006020820190508181036000830152614fa081614f64565b9050919050565b6000604082019050614fbc60008301856141e4565b614fc96020830184613855565b9392505050565b6000604082019050614fe560008301856141e4565b614ff260208301846141e4565b9392505050565b6000602082019050818103600083015261501381846145d8565b905092915050565b7f69645f616c72656164795f657869737473000000000000000000000000000000600082015250565b6000615051601183613b5a565b915061505c8261501b565b602082019050919050565b6000602082019050818103600083015261508081615044565b9050919050565b7f616464726573735f616c72656164795f61646d696e5f6f665f636f6d70616e79600082015250565b60006150bd602083613b5a565b91506150c882615087565b602082019050919050565b600060208201905081810360008301526150ec816150b0565b9050919050565b60006080820190506151086000830187613cb4565b818103602083015261511a81866145d8565b9050818103604083015261512e81856145d8565b9050818103606083015261514281846145d8565b905095945050505050565b7f696e7075745f61727261795f6c656e677468735f6e6f5f6d6174636800000000600082015250565b6000615183601c83613b5a565b915061518e8261514d565b602082019050919050565b600060208201905081810360008301526151b281615176565b9050919050565b7f6e6f745f7061727469636970616e740000000000000000000000000000000000600082015250565b60006151ef600f83613b5a565b91506151fa826151b9565b602082019050919050565b6000602082019050818103600083015261521e816151e2565b9050919050565b7f6973737565725f6261645f646f63747970650000000000000000000000000000600082015250565b600061525b601283613b5a565b915061526682615225565b602082019050919050565b6000602082019050818103600083015261528a8161524e565b9050919050565b7f7061727469636970616e745f6261645f646f6374797065000000000000000000600082015250565b60006152c7601783613b5a565b91506152d282615291565b602082019050919050565b600060208201905081810360008301526152f6816152ba565b9050919050565b7f656e645f726563656976696e675f726561636865640000000000000000000000600082015250565b6000615333601583613b5a565b915061533e826152fd565b602082019050919050565b6000602082019050818103600083015261536281615326565b9050919050565b600060c08201905061537e60008301896141e4565b61538b60208301886141e4565b818103604083015261539d81876145d8565b90506153ac6060830186613cb4565b81810360808301526153be81856145d8565b905081810360a08301526153d281846145d8565b9050979650505050505050565b7f496e73756666696369656e745f7061796d656e745f6665650000000000000000600082015250565b6000615415601883613b5a565b9150615420826153df565b602082019050919050565b6000602082019050818103600083015261544481615408565b9050919050565b7f6e6f745f6f70656e5f74656e6465720000000000000000000000000000000000600082015250565b6000615481600f83613b5a565b915061548c8261544b565b602082019050919050565b600060208201905081810360008301526154b081615474565b9050919050565b7f6d61785f7061727469636970616e74735f726561636865640000000000000000600082015250565b60006154ed601883613b5a565b91506154f8826154b7565b602082019050919050565b6000602082019050818103600083015261551c816154e0565b9050919050565b7f63616e5f6e6f745f72656769737465725f73656c660000000000000000000000600082015250565b6000615559601583613b5a565b915061556482615523565b602082019050919050565b600060208201905081810360008301526155888161554c565b9050919050565b7f616c72656164795f70617274696369706174696e670000000000000000000000600082015250565b60006155c5601583613b5a565b91506155d08261558f565b602082019050919050565b600060208201905081810360008301526155f4816155b8565b9050919050565b7f6e6f745f6d61746368696e675f77696e6e657273000000000000000000000000600082015250565b6000615631601483613b5a565b915061563c826155fb565b602082019050919050565b6000602082019050818103600083015261566081615624565b9050919050565b7f656e64646174655f6e6f745f726561636865645f796574000000000000000000600082015250565b600061569d601783613b5a565b91506156a882615667565b602082019050919050565b600060208201905081810360008301526156cc81615690565b9050919050565b7f63616e6e6f745f73656c665f6177617264000000000000000000000000000000600082015250565b6000615709601183613b5a565b9150615714826156d3565b602082019050919050565b60006020820190508181036000830152615738816156fc565b9050919050565b7f696e76616c69645f77696e6e6572000000000000000000000000000000000000600082015250565b6000615775600e83613b5a565b91506157808261573f565b602082019050919050565b600060208201905081810360008301526157a481615768565b9050919050565b600082825260208201905092915050565b60006157c782614266565b6157d181856157ab565b93506157dc83614282565b8060005b8381101561580d5781516157f488826142a1565b97506157ff836142b9565b9250506001810190506157e0565b5085935050505092915050565b600060408201905061582f60008301856141e4565b818103602083015261584181846157bc565b90509392505050565b600081549050919050565b60008190508160005260206000209050919050565b60008160001c9050919050565b600073ffffffffffffffffffffffffffffffffffffffff82169050919050565b60006158aa6158a58361586a565b615877565b9050919050565b60006158bd8254615897565b9050919050565b6000600182019050919050565b60006158dc8261584a565b6158e681856157ab565b93506158f183615855565b8060005b8381101561592957615906826158b1565b61591088826142a1565b975061591b836158c4565b9250506001810190506158f5565b5085935050505092915050565b600060408201905061594b60008301856141e4565b818103602083015261595d81846158d1565b90509392505050565b6000615971826132ee565b91507fffffffffffffffffffffffffffffffffffffffffffffffffffffffffffffffff8214156159a4576159a361403d565b5b600182019050919050565b600081905092915050565b60006159c5826141f3565b6159cf81856159af565b93506159df818560208601613ce8565b80840191505092915050565b60006159f782846159ba565b91508190509291505056fea264697066735822122043df6717a1b44ffe8029b9f020c60fe69d70e92bdc46d6207060e54d51c19dde64736f6c63430008090033","opcodes":"PUSH1 0x80 PUSH1 0x40 MSTORE PUSH1 0x0 PUSH8 0xFFFFFFFFFFFFFFFF DUP2 GT ISZERO PUSH3 0x22 JUMPI PUSH3 0x21 PUSH3 0x239 JUMP JUMPDEST JUMPDEST PUSH1 0x40 MLOAD SWAP1 DUP1 DUP3 MSTORE DUP1 PUSH1 0x20 MUL PUSH1 0x20 ADD DUP3 ADD PUSH1 0x40 MSTORE DUP1 ISZERO PUSH3 0x51 JUMPI DUP2 PUSH1 0x20 ADD PUSH1 0x20 DUP3 MUL DUP1 CALLDATASIZE DUP4 CALLDATACOPY DUP1 DUP3 ADD SWAP2 POP POP SWAP1 POP JUMPDEST POP PUSH1 0x3 SWAP1 DUP1 MLOAD SWAP1 PUSH1 0x20 ADD SWAP1 PUSH3 0x69 SWAP3 SWAP2 SWAP1 PUSH3 0x18B JUMP JUMPDEST POP PUSH1 0x0 PUSH8 0xFFFFFFFFFFFFFFFF DUP2 GT ISZERO PUSH3 0x88 JUMPI PUSH3 0x87 PUSH3 0x239 JUMP JUMPDEST JUMPDEST PUSH1 0x40 MLOAD SWAP1 DUP1 DUP3 MSTORE DUP1 PUSH1 0x20 MUL PUSH1 0x20 ADD DUP3 ADD PUSH1 0x40 MSTORE DUP1 ISZERO PUSH3 0xB7 JUMPI DUP2 PUSH1 0x20 ADD PUSH1 0x20 DUP3 MUL DUP1 CALLDATASIZE DUP4 CALLDATACOPY DUP1 DUP3 ADD SWAP2 POP POP SWAP1 POP JUMPDEST POP PUSH1 0x4 SWAP1 DUP1 MLOAD SWAP1 PUSH1 0x20 ADD SWAP1 PUSH3 0xCF SWAP3 SWAP2 SWAP1 PUSH3 0x18B JUMP JUMPDEST POP CALLVALUE DUP1 ISZERO PUSH3 0xDD JUMPI PUSH1 0x0 DUP1 REVERT JUMPDEST POP PUSH1 0x40 MLOAD PUSH3 0x5D4C CODESIZE SUB DUP1 PUSH3 0x5D4C DUP4 CODECOPY DUP2 DUP2 ADD PUSH1 0x40 MSTORE DUP2 ADD SWAP1 PUSH3 0x103 SWAP2 SWAP1 PUSH3 0x2D2 JUMP JUMPDEST DUP1 PUSH1 0x0 DUP1 PUSH2 0x100 EXP DUP2 SLOAD DUP2 PUSH20 0xFFFFFFFFFFFFFFFFFFFFFFFFFFFFFFFFFFFFFFFF MUL NOT AND SWAP1 DUP4 PUSH20 0xFFFFFFFFFFFFFFFFFFFFFFFFFFFFFFFFFFFFFFFF AND MUL OR SWAP1 SSTORE POP CALLER PUSH1 0x1 PUSH1 0x0 PUSH2 0x100 EXP DUP2 SLOAD DUP2 PUSH20 0xFFFFFFFFFFFFFFFFFFFFFFFFFFFFFFFFFFFFFFFF MUL NOT AND SWAP1 DUP4 PUSH20 0xFFFFFFFFFFFFFFFFFFFFFFFFFFFFFFFFFFFFFFFF AND MUL OR SWAP1 SSTORE POP POP PUSH3 0x304 JUMP JUMPDEST DUP3 DUP1 SLOAD DUP3 DUP3 SSTORE SWAP1 PUSH1 0x0 MSTORE PUSH1 0x20 PUSH1 0x0 KECCAK256 SWAP1 DUP2 ADD SWAP3 DUP3 ISZERO PUSH3 0x207 JUMPI SWAP2 PUSH1 0x20 MUL DUP3 ADD JUMPDEST DUP3 DUP2 GT ISZERO PUSH3 0x206 JUMPI DUP3 MLOAD DUP3 PUSH1 0x0 PUSH2 0x100 EXP DUP2 SLOAD DUP2 PUSH20 0xFFFFFFFFFFFFFFFFFFFFFFFFFFFFFFFFFFFFFFFF MUL NOT AND SWAP1 DUP4 PUSH20 0xFFFFFFFFFFFFFFFFFFFFFFFFFFFFFFFFFFFFFFFF AND MUL OR SWAP1 SSTORE POP SWAP2 PUSH1 0x20 ADD SWAP2 SWAP1 PUSH1 0x1 ADD SWAP1 PUSH3 0x1AC JUMP JUMPDEST JUMPDEST POP SWAP1 POP PUSH3 0x216 SWAP2 SWAP1 PUSH3 0x21A JUMP JUMPDEST POP SWAP1 JUMP JUMPDEST JUMPDEST DUP1 DUP3 GT ISZERO PUSH3 0x235 JUMPI PUSH1 0x0 DUP2 PUSH1 0x0 SWAP1 SSTORE POP PUSH1 0x1 ADD PUSH3 0x21B JUMP JUMPDEST POP SWAP1 JUMP JUMPDEST PUSH32 0x4E487B7100000000000000000000000000000000000000000000000000000000 PUSH1 0x0 MSTORE PUSH1 0x41 PUSH1 0x4 MSTORE PUSH1 0x24 PUSH1 0x0 REVERT JUMPDEST PUSH1 0x0 DUP1 REVERT JUMPDEST PUSH1 0x0 PUSH20 0xFFFFFFFFFFFFFFFFFFFFFFFFFFFFFFFFFFFFFFFF DUP3 AND SWAP1 POP SWAP2 SWAP1 POP JUMP JUMPDEST PUSH1 0x0 PUSH3 0x29A DUP3 PUSH3 0x26D JUMP JUMPDEST SWAP1 POP SWAP2 SWAP1 POP JUMP JUMPDEST PUSH3 0x2AC DUP2 PUSH3 0x28D JUMP JUMPDEST DUP2 EQ PUSH3 0x2B8 JUMPI PUSH1 0x0 DUP1 REVERT JUMPDEST POP JUMP JUMPDEST PUSH1 0x0 DUP2 MLOAD SWAP1 POP PUSH3 0x2CC DUP2 PUSH3 0x2A1 JUMP JUMPDEST SWAP3 SWAP2 POP POP JUMP JUMPDEST PUSH1 0x0 PUSH1 0x20 DUP3 DUP5 SUB SLT ISZERO PUSH3 0x2EB JUMPI PUSH3 0x2EA PUSH3 0x268 JUMP JUMPDEST JUMPDEST PUSH1 0x0 PUSH3 0x2FB DUP5 DUP3 DUP6 ADD PUSH3 0x2BB JUMP JUMPDEST SWAP2 POP POP SWAP3 SWAP2 POP POP JUMP JUMPDEST PUSH2 0x5A38 DUP1 PUSH3 0x314 PUSH1 0x0 CODECOPY PUSH1 0x0 RETURN INVALID PUSH1 0x80 PUSH1 0x40 MSTORE PUSH1 0x4 CALLDATASIZE LT PUSH2 0x9C JUMPI PUSH1 0x0 CALLDATALOAD PUSH1 0xE0 SHR DUP1 PUSH4 0x5B6A96DC GT PUSH2 0x64 JUMPI DUP1 PUSH4 0x5B6A96DC EQ PUSH2 0x163 JUMPI DUP1 PUSH4 0x7B60626D EQ PUSH2 0x1A0 JUMPI DUP1 PUSH4 0x8F32D59B EQ PUSH2 0x1BC JUMPI DUP1 PUSH4 0xD2D4ECAC EQ PUSH2 0x1E7 JUMPI DUP1 PUSH4 0xED72F89F EQ PUSH2 0x210 JUMPI DUP1 PUSH4 0xF1E60D2B EQ PUSH2 0x22C JUMPI PUSH2 0x9C JUMP JUMPDEST DUP1 PUSH4 0xADC596E EQ PUSH2 0xA1 JUMPI DUP1 PUSH4 0x2D714F23 EQ PUSH2 0xBD JUMPI DUP1 PUSH4 0x3CCFD60B EQ PUSH2 0xFA JUMPI DUP1 PUSH4 0x482BAF93 EQ PUSH2 0x111 JUMPI DUP1 PUSH4 0x57C4CAB4 EQ PUSH2 0x13A JUMPI JUMPDEST PUSH1 0x0 DUP1 REVERT JUMPDEST PUSH2 0xBB PUSH1 0x4 DUP1 CALLDATASIZE SUB DUP2 ADD SWAP1 PUSH2 0xB6 SWAP2 SWAP1 PUSH2 0x342F JUMP JUMPDEST PUSH2 0x255 JUMP JUMPDEST STOP JUMPDEST CALLVALUE DUP1 ISZERO PUSH2 0xC9 JUMPI PUSH1 0x0 DUP1 REVERT JUMPDEST POP PUSH2 0xE4 PUSH1 0x4 DUP1 CALLDATASIZE SUB DUP2 ADD SWAP1 PUSH2 0xDF SWAP2 SWAP1 PUSH2 0x35B3 JUMP JUMPDEST PUSH2 0xB18 JUMP JUMPDEST PUSH1 0x40 MLOAD PUSH2 0xF1 SWAP2 SWAP1 PUSH2 0x3628 JUMP JUMPDEST PUSH1 0x40 MLOAD DUP1 SWAP2 SUB SWAP1 RETURN JUMPDEST CALLVALUE DUP1 ISZERO PUSH2 0x106 JUMPI PUSH1 0x0 DUP1 REVERT JUMPDEST POP PUSH2 0x10F PUSH2 0xB63 JUMP JUMPDEST STOP JUMPDEST CALLVALUE DUP1 ISZERO PUSH2 0x11D JUMPI PUSH1 0x0 DUP1 REVERT JUMPDEST POP PUSH2 0x138 PUSH1 0x4 DUP1 CALLDATASIZE SUB DUP2 ADD SWAP1 PUSH2 0x133 SWAP2 SWAP1 PUSH2 0x3706 JUMP JUMPDEST PUSH2 0xC5F JUMP JUMPDEST STOP JUMPDEST CALLVALUE DUP1 ISZERO PUSH2 0x146 JUMPI PUSH1 0x0 DUP1 REVERT JUMPDEST POP PUSH2 0x161 PUSH1 0x4 DUP1 CALLDATASIZE SUB DUP2 ADD SWAP1 PUSH2 0x15C SWAP2 SWAP1 PUSH2 0x3791 JUMP JUMPDEST PUSH2 0x134D JUMP JUMPDEST STOP JUMPDEST CALLVALUE DUP1 ISZERO PUSH2 0x16F JUMPI PUSH1 0x0 DUP1 REVERT JUMPDEST POP PUSH2 0x18A PUSH1 0x4 DUP1 CALLDATASIZE SUB DUP2 ADD SWAP1 PUSH2 0x185 SWAP2 SWAP1 PUSH2 0x37ED JUMP JUMPDEST PUSH2 0x1864 JUMP JUMPDEST PUSH1 0x40 MLOAD PUSH2 0x197 SWAP2 SWAP1 PUSH2 0x3864 JUMP JUMPDEST PUSH1 0x40 MLOAD DUP1 SWAP2 SUB SWAP1 RETURN JUMPDEST PUSH2 0x1BA PUSH1 0x4 DUP1 CALLDATASIZE SUB DUP2 ADD SWAP1 PUSH2 0x1B5 SWAP2 SWAP1 PUSH2 0x387F JUMP JUMPDEST PUSH2 0x18F2 JUMP JUMPDEST STOP JUMPDEST CALLVALUE DUP1 ISZERO PUSH2 0x1C8 JUMPI PUSH1 0x0 DUP1 REVERT JUMPDEST POP PUSH2 0x1D1 PUSH2 0x1C49 JUMP JUMPDEST PUSH1 0x40 MLOAD PUSH2 0x1DE SWAP2 SWAP1 PUSH2 0x3864 JUMP JUMPDEST PUSH1 0x40 MLOAD DUP1 SWAP2 SUB SWAP1 RETURN JUMPDEST CALLVALUE DUP1 ISZERO PUSH2 0x1F3 JUMPI PUSH1 0x0 DUP1 REVERT JUMPDEST POP PUSH2 0x20E PUSH1 0x4 DUP1 CALLDATASIZE SUB DUP2 ADD SWAP1 PUSH2 0x209 SWAP2 SWAP1 PUSH2 0x39E9 JUMP JUMPDEST PUSH2 0x1CA1 JUMP JUMPDEST STOP JUMPDEST PUSH2 0x22A PUSH1 0x4 DUP1 CALLDATASIZE SUB DUP2 ADD SWAP1 PUSH2 0x225 SWAP2 SWAP1 PUSH2 0x3AD4 JUMP JUMPDEST PUSH2 0x2150 JUMP JUMPDEST STOP JUMPDEST CALLVALUE DUP1 ISZERO PUSH2 0x238 JUMPI PUSH1 0x0 DUP1 REVERT JUMPDEST POP PUSH2 0x253 PUSH1 0x4 DUP1 CALLDATASIZE SUB DUP2 ADD SWAP1 PUSH2 0x24E SWAP2 SWAP1 PUSH2 0x3706 JUMP JUMPDEST PUSH2 0x26E3 JUMP JUMPDEST STOP JUMPDEST PUSH1 0x0 PUSH2 0x261 DUP10 CALLER PUSH2 0xB18 JUMP JUMPDEST SWAP1 POP PUSH1 0x0 DUP1 SLOAD SWAP1 PUSH2 0x100 EXP SWAP1 DIV PUSH20 0xFFFFFFFFFFFFFFFFFFFFFFFFFFFFFFFFFFFFFFFF AND PUSH20 0xFFFFFFFFFFFFFFFFFFFFFFFFFFFFFFFFFFFFFFFF AND PUSH4 0x43A2D048 DUP3 PUSH1 0x40 MLOAD DUP3 PUSH4 0xFFFFFFFF AND PUSH1 0xE0 SHL DUP2 MSTORE PUSH1 0x4 ADD PUSH2 0x2BC SWAP2 SWAP1 PUSH2 0x3628 JUMP JUMPDEST PUSH1 0x20 PUSH1 0x40 MLOAD DUP1 DUP4 SUB DUP2 DUP7 DUP1 EXTCODESIZE ISZERO DUP1 ISZERO PUSH2 0x2D4 JUMPI PUSH1 0x0 DUP1 REVERT JUMPDEST POP GAS STATICCALL ISZERO DUP1 ISZERO PUSH2 0x2E8 JUMPI RETURNDATASIZE PUSH1 0x0 DUP1 RETURNDATACOPY RETURNDATASIZE PUSH1 0x0 REVERT JUMPDEST POP POP POP POP PUSH1 0x40 MLOAD RETURNDATASIZE PUSH1 0x1F NOT PUSH1 0x1F DUP3 ADD AND DUP3 ADD DUP1 PUSH1 0x40 MSTORE POP DUP2 ADD SWAP1 PUSH2 0x30C SWAP2 SWAP1 PUSH2 0x3B2D JUMP JUMPDEST ISZERO PUSH2 0x34C JUMPI PUSH1 0x40 MLOAD PUSH32 0x8C379A000000000000000000000000000000000000000000000000000000000 DUP2 MSTORE PUSH1 0x4 ADD PUSH2 0x343 SWAP1 PUSH2 0x3BB7 JUMP JUMPDEST PUSH1 0x40 MLOAD DUP1 SWAP2 SUB SWAP1 REVERT JUMPDEST PUSH1 0x0 PUSH1 0x1 DUP2 GT ISZERO PUSH2 0x360 JUMPI PUSH2 0x35F PUSH2 0x3BD7 JUMP JUMPDEST JUMPDEST DUP4 PUSH1 0x1 DUP2 GT ISZERO PUSH2 0x373 JUMPI PUSH2 0x372 PUSH2 0x3BD7 JUMP JUMPDEST JUMPDEST EQ PUSH2 0x41B JUMPI PUSH1 0x0 DUP1 SLOAD SWAP1 PUSH2 0x100 EXP SWAP1 DIV PUSH20 0xFFFFFFFFFFFFFFFFFFFFFFFFFFFFFFFFFFFFFFFF AND PUSH20 0xFFFFFFFFFFFFFFFFFFFFFFFFFFFFFFFFFFFFFFFF AND PUSH4 0xAFEFF8D9 PUSH1 0x40 MLOAD DUP2 PUSH4 0xFFFFFFFF AND PUSH1 0xE0 SHL DUP2 MSTORE PUSH1 0x4 ADD PUSH1 0x20 PUSH1 0x40 MLOAD DUP1 DUP4 SUB DUP2 DUP7 DUP1 EXTCODESIZE ISZERO DUP1 ISZERO PUSH2 0x3DE JUMPI PUSH1 0x0 DUP1 REVERT JUMPDEST POP GAS STATICCALL ISZERO DUP1 ISZERO PUSH2 0x3F2 JUMPI RETURNDATASIZE PUSH1 0x0 DUP1 RETURNDATACOPY RETURNDATASIZE PUSH1 0x0 REVERT JUMPDEST POP POP POP POP PUSH1 0x40 MLOAD RETURNDATASIZE PUSH1 0x1F NOT PUSH1 0x1F DUP3 ADD AND DUP3 ADD DUP1 PUSH1 0x40 MSTORE POP DUP2 ADD SWAP1 PUSH2 0x416 SWAP2 SWAP1 PUSH2 0x3C1B JUMP JUMPDEST PUSH2 0x4BA JUMP JUMPDEST PUSH1 0x0 DUP1 SLOAD SWAP1 PUSH2 0x100 EXP SWAP1 DIV PUSH20 0xFFFFFFFFFFFFFFFFFFFFFFFFFFFFFFFFFFFFFFFF AND PUSH20 0xFFFFFFFFFFFFFFFFFFFFFFFFFFFFFFFFFFFFFFFF AND PUSH4 0x4E289B88 PUSH1 0x40 MLOAD DUP2 PUSH4 0xFFFFFFFF AND PUSH1 0xE0 SHL DUP2 MSTORE PUSH1 0x4 ADD PUSH1 0x20 PUSH1 0x40 MLOAD DUP1 DUP4 SUB DUP2 DUP7 DUP1 EXTCODESIZE ISZERO DUP1 ISZERO PUSH2 0x481 JUMPI PUSH1 0x0 DUP1 REVERT JUMPDEST POP GAS STATICCALL ISZERO DUP1 ISZERO PUSH2 0x495 JUMPI RETURNDATASIZE PUSH1 0x0 DUP1 RETURNDATACOPY RETURNDATASIZE PUSH1 0x0 REVERT JUMPDEST POP POP POP POP PUSH1 0x40 MLOAD RETURNDATASIZE PUSH1 0x1F NOT PUSH1 0x1F DUP3 ADD AND DUP3 ADD DUP1 PUSH1 0x40 MSTORE POP DUP2 ADD SWAP1 PUSH2 0x4B9 SWAP2 SWAP1 PUSH2 0x3C1B JUMP JUMPDEST JUMPDEST CALLVALUE LT ISZERO PUSH2 0x4FC JUMPI PUSH1 0x40 MLOAD PUSH32 0x8C379A000000000000000000000000000000000000000000000000000000000 DUP2 MSTORE PUSH1 0x4 ADD PUSH2 0x4F3 SWAP1 PUSH2 0x3C94 JUMP JUMPDEST PUSH1 0x40 MLOAD DUP1 SWAP2 SUB SWAP1 REVERT JUMPDEST PUSH1 0x0 DUP1 PUSH1 0x0 SWAP1 SLOAD SWAP1 PUSH2 0x100 EXP SWAP1 DIV PUSH20 0xFFFFFFFFFFFFFFFFFFFFFFFFFFFFFFFFFFFFFFFF AND PUSH20 0xFFFFFFFFFFFFFFFFFFFFFFFFFFFFFFFFFFFFFFFF AND PUSH4 0x62BC56E6 CALLER PUSH1 0x40 MLOAD DUP3 PUSH4 0xFFFFFFFF AND PUSH1 0xE0 SHL DUP2 MSTORE PUSH1 0x4 ADD PUSH2 0x558 SWAP2 SWAP1 PUSH2 0x3CC3 JUMP JUMPDEST PUSH1 0x0 PUSH1 0x40 MLOAD DUP1 DUP4 SUB DUP2 DUP7 DUP1 EXTCODESIZE ISZERO DUP1 ISZERO PUSH2 0x570 JUMPI PUSH1 0x0 DUP1 REVERT JUMPDEST POP GAS STATICCALL ISZERO DUP1 ISZERO PUSH2 0x584 JUMPI RETURNDATASIZE PUSH1 0x0 DUP1 RETURNDATACOPY RETURNDATASIZE PUSH1 0x0 REVERT JUMPDEST POP POP POP POP PUSH1 0x40 MLOAD RETURNDATASIZE PUSH1 0x0 DUP3 RETURNDATACOPY RETURNDATASIZE PUSH1 0x1F NOT PUSH1 0x1F DUP3 ADD AND DUP3 ADD DUP1 PUSH1 0x40 MSTORE POP DUP2 ADD SWAP1 PUSH2 0x5AD SWAP2 SWAP1 PUSH2 0x3F88 JUMP JUMPDEST SWAP1 POP PUSH1 0x0 DUP2 PUSH1 0x0 ADD MLOAD SWAP1 POP PUSH1 0x0 DUP2 MLOAD EQ ISZERO PUSH2 0x5FD JUMPI PUSH1 0x40 MLOAD PUSH32 0x8C379A000000000000000000000000000000000000000000000000000000000 DUP2 MSTORE PUSH1 0x4 ADD PUSH2 0x5F4 SWAP1 PUSH2 0x401D JUMP JUMPDEST PUSH1 0x40 MLOAD DUP1 SWAP2 SUB SWAP1 REVERT JUMPDEST PUSH2 0xE10 TIMESTAMP PUSH2 0x60B SWAP2 SWAP1 PUSH2 0x406C JUMP JUMPDEST DUP9 LT ISZERO PUSH2 0x64D JUMPI PUSH1 0x40 MLOAD PUSH32 0x8C379A000000000000000000000000000000000000000000000000000000000 DUP2 MSTORE PUSH1 0x4 ADD PUSH2 0x644 SWAP1 PUSH2 0x40EC JUMP JUMPDEST PUSH1 0x40 MLOAD DUP1 SWAP2 SUB SWAP1 REVERT JUMPDEST DUP7 DUP9 LT PUSH2 0x68F JUMPI PUSH1 0x40 MLOAD PUSH32 0x8C379A000000000000000000000000000000000000000000000000000000000 DUP2 MSTORE PUSH1 0x4 ADD PUSH2 0x686 SWAP1 PUSH2 0x4158 JUMP JUMPDEST PUSH1 0x40 MLOAD DUP1 SWAP2 SUB SWAP1 REVERT JUMPDEST DUP6 DUP8 LT PUSH2 0x6D1 JUMPI PUSH1 0x40 MLOAD PUSH32 0x8C379A000000000000000000000000000000000000000000000000000000000 DUP2 MSTORE PUSH1 0x4 ADD PUSH2 0x6C8 SWAP1 PUSH2 0x41C4 JUMP JUMPDEST PUSH1 0x40 MLOAD DUP1 SWAP2 SUB SWAP1 REVERT JUMPDEST PUSH1 0x0 DUP1 PUSH1 0x0 SWAP1 SLOAD SWAP1 PUSH2 0x100 EXP SWAP1 DIV PUSH20 0xFFFFFFFFFFFFFFFFFFFFFFFFFFFFFFFFFFFFFFFF AND PUSH20 0xFFFFFFFFFFFFFFFFFFFFFFFFFFFFFFFFFFFFFFFF AND PUSH4 0x1393B9E8 PUSH1 0x40 MLOAD DUP2 PUSH4 0xFFFFFFFF AND PUSH1 0xE0 SHL DUP2 MSTORE PUSH1 0x4 ADD PUSH1 0x20 PUSH1 0x40 MLOAD DUP1 DUP4 SUB DUP2 DUP7 DUP1 EXTCODESIZE ISZERO DUP1 ISZERO PUSH2 0x73A JUMPI PUSH1 0x0 DUP1 REVERT JUMPDEST POP GAS STATICCALL ISZERO DUP1 ISZERO PUSH2 0x74E JUMPI RETURNDATASIZE PUSH1 0x0 DUP1 RETURNDATACOPY RETURNDATASIZE PUSH1 0x0 REVERT JUMPDEST POP POP POP POP PUSH1 0x40 MLOAD RETURNDATASIZE PUSH1 0x1F NOT PUSH1 0x1F DUP3 ADD AND DUP3 ADD DUP1 PUSH1 0x40 MSTORE POP DUP2 ADD SWAP1 PUSH2 0x772 SWAP2 SWAP1 PUSH2 0x3C1B JUMP JUMPDEST SWAP1 POP PUSH1 0x0 PUSH1 0x40 MLOAD DUP1 PUSH2 0x1C0 ADD PUSH1 0x40 MSTORE DUP1 DUP15 DUP2 MSTORE PUSH1 0x20 ADD DUP14 DUP2 MSTORE PUSH1 0x20 ADD DUP4 DUP2 MSTORE PUSH1 0x20 ADD DUP13 DUP2 MSTORE PUSH1 0x20 ADD DUP12 DUP2 MSTORE PUSH1 0x20 ADD DUP11 DUP2 MSTORE PUSH1 0x20 ADD DUP10 DUP2 MSTORE PUSH1 0x20 ADD PUSH1 0x0 ISZERO ISZERO DUP2 MSTORE PUSH1 0x20 ADD PUSH1 0x0 DUP2 MSTORE PUSH1 0x20 ADD PUSH1 0x0 PUSH8 0xFFFFFFFFFFFFFFFF DUP2 GT ISZERO PUSH2 0x7D7 JUMPI PUSH2 0x7D6 PUSH2 0x31C3 JUMP JUMPDEST JUMPDEST PUSH1 0x40 MLOAD SWAP1 DUP1 DUP3 MSTORE DUP1 PUSH1 0x20 MUL PUSH1 0x20 ADD DUP3 ADD PUSH1 0x40 MSTORE DUP1 ISZERO PUSH2 0x805 JUMPI DUP2 PUSH1 0x20 ADD PUSH1 0x20 DUP3 MUL DUP1 CALLDATASIZE DUP4 CALLDATACOPY DUP1 DUP3 ADD SWAP2 POP POP SWAP1 POP JUMPDEST POP DUP2 MSTORE PUSH1 0x20 ADD DUP9 PUSH1 0x1 DUP2 GT ISZERO PUSH2 0x81E JUMPI PUSH2 0x81D PUSH2 0x3BD7 JUMP JUMPDEST JUMPDEST DUP2 MSTORE PUSH1 0x20 ADD DUP8 DUP2 MSTORE PUSH1 0x20 ADD PUSH1 0x0 PUSH8 0xFFFFFFFFFFFFFFFF DUP2 GT ISZERO PUSH2 0x844 JUMPI PUSH2 0x843 PUSH2 0x31C3 JUMP JUMPDEST JUMPDEST PUSH1 0x40 MLOAD SWAP1 DUP1 DUP3 MSTORE DUP1 PUSH1 0x20 MUL PUSH1 0x20 ADD DUP3 ADD PUSH1 0x40 MSTORE DUP1 ISZERO PUSH2 0x872 JUMPI DUP2 PUSH1 0x20 ADD PUSH1 0x20 DUP3 MUL DUP1 CALLDATASIZE DUP4 CALLDATACOPY DUP1 DUP3 ADD SWAP2 POP POP SWAP1 POP JUMPDEST POP DUP2 MSTORE PUSH1 0x20 ADD CALLER PUSH20 0xFFFFFFFFFFFFFFFFFFFFFFFFFFFFFFFFFFFFFFFF AND DUP2 MSTORE POP SWAP1 POP PUSH1 0x0 DUP1 SLOAD SWAP1 PUSH2 0x100 EXP SWAP1 DIV PUSH20 0xFFFFFFFFFFFFFFFFFFFFFFFFFFFFFFFFFFFFFFFF AND PUSH20 0xFFFFFFFFFFFFFFFFFFFFFFFFFFFFFFFFFFFFFFFF AND PUSH4 0xF9C3C20C DUP7 PUSH1 0x40 MLOAD DUP3 PUSH4 0xFFFFFFFF AND PUSH1 0xE0 SHL DUP2 MSTORE PUSH1 0x4 ADD PUSH2 0x8ED SWAP2 SWAP1 PUSH2 0x3628 JUMP JUMPDEST PUSH1 0x0 PUSH1 0x40 MLOAD DUP1 DUP4 SUB DUP2 PUSH1 0x0 DUP8 DUP1 EXTCODESIZE ISZERO DUP1 ISZERO PUSH2 0x907 JUMPI PUSH1 0x0 DUP1 REVERT JUMPDEST POP GAS CALL ISZERO DUP1 ISZERO PUSH2 0x91B JUMPI RETURNDATASIZE PUSH1 0x0 DUP1 RETURNDATACOPY RETURNDATASIZE PUSH1 0x0 REVERT JUMPDEST POP POP POP POP PUSH1 0x0 DUP1 SLOAD SWAP1 PUSH2 0x100 EXP SWAP1 DIV PUSH20 0xFFFFFFFFFFFFFFFFFFFFFFFFFFFFFFFFFFFFFFFF AND PUSH20 0xFFFFFFFFFFFFFFFFFFFFFFFFFFFFFFFFFFFFFFFF AND PUSH4 0xC356DED5 DUP4 DUP4 PUSH1 0x40 MLOAD DUP4 PUSH4 0xFFFFFFFF AND PUSH1 0xE0 SHL DUP2 MSTORE PUSH1 0x4 ADD PUSH2 0x97A SWAP3 SWAP2 SWAP1 PUSH2 0x457F JUMP JUMPDEST PUSH1 0x0 PUSH1 0x40 MLOAD DUP1 DUP4 SUB DUP2 PUSH1 0x0 DUP8 DUP1 EXTCODESIZE ISZERO DUP1 ISZERO PUSH2 0x994 JUMPI PUSH1 0x0 DUP1 REVERT JUMPDEST POP GAS CALL ISZERO DUP1 ISZERO PUSH2 0x9A8 JUMPI RETURNDATASIZE PUSH1 0x0 DUP1 RETURNDATACOPY RETURNDATASIZE PUSH1 0x0 REVERT JUMPDEST POP POP POP POP PUSH1 0x0 DUP1 SLOAD SWAP1 PUSH2 0x100 EXP SWAP1 DIV PUSH20 0xFFFFFFFFFFFFFFFFFFFFFFFFFFFFFFFFFFFFFFFF AND PUSH20 0xFFFFFFFFFFFFFFFFFFFFFFFFFFFFFFFFFFFFFFFF AND PUSH4 0x22F0B325 CALLER DUP5 PUSH1 0x40 MLOAD DUP4 PUSH4 0xFFFFFFFF AND PUSH1 0xE0 SHL DUP2 MSTORE PUSH1 0x4 ADD PUSH2 0xA07 SWAP3 SWAP2 SWAP1 PUSH2 0x45AF JUMP JUMPDEST PUSH1 0x0 PUSH1 0x40 MLOAD DUP1 DUP4 SUB DUP2 PUSH1 0x0 DUP8 DUP1 EXTCODESIZE ISZERO DUP1 ISZERO PUSH2 0xA21 JUMPI PUSH1 0x0 DUP1 REVERT JUMPDEST POP GAS CALL ISZERO DUP1 ISZERO PUSH2 0xA35 JUMPI RETURNDATASIZE PUSH1 0x0 DUP1 RETURNDATACOPY RETURNDATASIZE PUSH1 0x0 REVERT JUMPDEST POP POP POP POP PUSH1 0x0 DUP1 SLOAD SWAP1 PUSH2 0x100 EXP SWAP1 DIV PUSH20 0xFFFFFFFFFFFFFFFFFFFFFFFFFFFFFFFFFFFFFFFF AND PUSH20 0xFFFFFFFFFFFFFFFFFFFFFFFFFFFFFFFFFFFFFFFF AND PUSH4 0x1A3CA1D8 PUSH1 0x40 MLOAD DUP2 PUSH4 0xFFFFFFFF AND PUSH1 0xE0 SHL DUP2 MSTORE PUSH1 0x4 ADD PUSH1 0x0 PUSH1 0x40 MLOAD DUP1 DUP4 SUB DUP2 PUSH1 0x0 DUP8 DUP1 EXTCODESIZE ISZERO DUP1 ISZERO PUSH2 0xAA1 JUMPI PUSH1 0x0 DUP1 REVERT JUMPDEST POP GAS CALL ISZERO DUP1 ISZERO PUSH2 0xAB5 JUMPI RETURNDATASIZE PUSH1 0x0 DUP1 RETURNDATACOPY RETURNDATASIZE PUSH1 0x0 REVERT JUMPDEST POP POP POP POP CALLER PUSH20 0xFFFFFFFFFFFFFFFFFFFFFFFFFFFFFFFFFFFFFFFF AND PUSH32 0xAE438A3EF380E4B013BA12BCB929A59140482304040A1D8CF54D25C8E85640E9 DUP4 DUP16 PUSH1 0x40 MLOAD PUSH2 0xB01 SWAP3 SWAP2 SWAP1 PUSH2 0x4611 JUMP JUMPDEST PUSH1 0x40 MLOAD DUP1 SWAP2 SUB SWAP1 LOG2 POP POP POP POP POP POP POP POP POP POP POP POP POP JUMP JUMPDEST PUSH1 0x0 DUP1 DUP4 DUP1 MLOAD SWAP1 PUSH1 0x20 ADD KECCAK256 SWAP1 POP PUSH1 0x0 DUP2 DUP5 PUSH1 0x40 MLOAD PUSH1 0x20 ADD PUSH2 0xB3A SWAP3 SWAP2 SWAP1 PUSH2 0x46AA JUMP JUMPDEST PUSH1 0x40 MLOAD PUSH1 0x20 DUP2 DUP4 SUB SUB DUP2 MSTORE SWAP1 PUSH1 0x40 MSTORE SWAP1 POP PUSH1 0x0 DUP2 DUP1 MLOAD SWAP1 PUSH1 0x20 ADD KECCAK256 SWAP1 POP DUP1 SWAP4 POP POP POP POP SWAP3 SWAP2 POP POP JUMP JUMPDEST PUSH2 0xB6B PUSH2 0x1C49 JUMP JUMPDEST PUSH2 0xBAA JUMPI PUSH1 0x40 MLOAD PUSH32 0x8C379A000000000000000000000000000000000000000000000000000000000 DUP2 MSTORE PUSH1 0x4 ADD PUSH2 0xBA1 SWAP1 PUSH2 0x4722 JUMP JUMPDEST PUSH1 0x40 MLOAD DUP1 SWAP2 SUB SWAP1 REVERT JUMPDEST PUSH1 0x0 SELFBALANCE SWAP1 POP PUSH1 0x0 CALLER PUSH20 0xFFFFFFFFFFFFFFFFFFFFFFFFFFFFFFFFFFFFFFFF AND DUP3 PUSH1 0x40 MLOAD PUSH2 0xBD5 SWAP1 PUSH2 0x4773 JUMP JUMPDEST PUSH1 0x0 PUSH1 0x40 MLOAD DUP1 DUP4 SUB DUP2 DUP6 DUP8 GAS CALL SWAP3 POP POP POP RETURNDATASIZE DUP1 PUSH1 0x0 DUP2 EQ PUSH2 0xC12 JUMPI PUSH1 0x40 MLOAD SWAP2 POP PUSH1 0x1F NOT PUSH1 0x3F RETURNDATASIZE ADD AND DUP3 ADD PUSH1 0x40 MSTORE RETURNDATASIZE DUP3 MSTORE RETURNDATASIZE PUSH1 0x0 PUSH1 0x20 DUP5 ADD RETURNDATACOPY PUSH2 0xC17 JUMP JUMPDEST PUSH1 0x60 SWAP2 POP JUMPDEST POP POP SWAP1 POP DUP1 PUSH2 0xC5B JUMPI PUSH1 0x40 MLOAD PUSH32 0x8C379A000000000000000000000000000000000000000000000000000000000 DUP2 MSTORE PUSH1 0x4 ADD PUSH2 0xC52 SWAP1 PUSH2 0x47D4 JUMP JUMPDEST PUSH1 0x40 MLOAD DUP1 SWAP2 SUB SWAP1 REVERT JUMPDEST POP POP JUMP JUMPDEST DUP2 PUSH2 0xD17 PUSH1 0x0 DUP1 SLOAD SWAP1 PUSH2 0x100 EXP SWAP1 DIV PUSH20 0xFFFFFFFFFFFFFFFFFFFFFFFFFFFFFFFFFFFFFFFF AND PUSH20 0xFFFFFFFFFFFFFFFFFFFFFFFFFFFFFFFFFFFFFFFF AND PUSH4 0xD6F343C5 CALLER PUSH1 0x40 MLOAD DUP3 PUSH4 0xFFFFFFFF AND PUSH1 0xE0 SHL DUP2 MSTORE PUSH1 0x4 ADD PUSH2 0xCBC SWAP2 SWAP1 PUSH2 0x3CC3 JUMP JUMPDEST PUSH1 0x0 PUSH1 0x40 MLOAD DUP1 DUP4 SUB DUP2 DUP7 DUP1 EXTCODESIZE ISZERO DUP1 ISZERO PUSH2 0xCD4 JUMPI PUSH1 0x0 DUP1 REVERT JUMPDEST POP GAS STATICCALL ISZERO DUP1 ISZERO PUSH2 0xCE8 JUMPI RETURNDATASIZE PUSH1 0x0 DUP1 RETURNDATACOPY RETURNDATASIZE PUSH1 0x0 REVERT JUMPDEST POP POP POP POP PUSH1 0x40 MLOAD RETURNDATASIZE PUSH1 0x0 DUP3 RETURNDATACOPY RETURNDATASIZE PUSH1 0x1F NOT PUSH1 0x1F DUP3 ADD AND DUP3 ADD DUP1 PUSH1 0x40 MSTORE POP DUP2 ADD SWAP1 PUSH2 0xD11 SWAP2 SWAP1 PUSH2 0x47F4 JUMP JUMPDEST DUP3 PUSH2 0x2FF4 JUMP JUMPDEST PUSH2 0xD56 JUMPI PUSH1 0x40 MLOAD PUSH32 0x8C379A000000000000000000000000000000000000000000000000000000000 DUP2 MSTORE PUSH1 0x4 ADD PUSH2 0xD4D SWAP1 PUSH2 0x4889 JUMP JUMPDEST PUSH1 0x40 MLOAD DUP1 SWAP2 SUB SWAP1 REVERT JUMPDEST DUP4 CALLER PUSH20 0xFFFFFFFFFFFFFFFFFFFFFFFFFFFFFFFFFFFFFFFF AND PUSH1 0x0 DUP1 SLOAD SWAP1 PUSH2 0x100 EXP SWAP1 DIV PUSH20 0xFFFFFFFFFFFFFFFFFFFFFFFFFFFFFFFFFFFFFFFF AND PUSH20 0xFFFFFFFFFFFFFFFFFFFFFFFFFFFFFFFFFFFFFFFF AND PUSH4 0x3B8A8A16 DUP4 PUSH1 0x40 MLOAD DUP3 PUSH4 0xFFFFFFFF AND PUSH1 0xE0 SHL DUP2 MSTORE PUSH1 0x4 ADD PUSH2 0xDC7 SWAP2 SWAP1 PUSH2 0x48A9 JUMP JUMPDEST PUSH1 0x20 PUSH1 0x40 MLOAD DUP1 DUP4 SUB DUP2 DUP7 DUP1 EXTCODESIZE ISZERO DUP1 ISZERO PUSH2 0xDDF JUMPI PUSH1 0x0 DUP1 REVERT JUMPDEST POP GAS STATICCALL ISZERO DUP1 ISZERO PUSH2 0xDF3 JUMPI RETURNDATASIZE PUSH1 0x0 DUP1 RETURNDATACOPY RETURNDATASIZE PUSH1 0x0 REVERT JUMPDEST POP POP POP POP PUSH1 0x40 MLOAD RETURNDATASIZE PUSH1 0x1F NOT PUSH1 0x1F DUP3 ADD AND DUP3 ADD DUP1 PUSH1 0x40 MSTORE POP DUP2 ADD SWAP1 PUSH2 0xE17 SWAP2 SWAP1 PUSH2 0x48D9 JUMP JUMPDEST PUSH20 0xFFFFFFFFFFFFFFFFFFFFFFFFFFFFFFFFFFFFFFFF AND EQ PUSH2 0xE6D JUMPI PUSH1 0x40 MLOAD PUSH32 0x8C379A000000000000000000000000000000000000000000000000000000000 DUP2 MSTORE PUSH1 0x4 ADD PUSH2 0xE64 SWAP1 PUSH2 0x4952 JUMP JUMPDEST PUSH1 0x40 MLOAD DUP1 SWAP2 SUB SWAP1 REVERT JUMPDEST DUP5 PUSH1 0x0 DUP1 SLOAD SWAP1 PUSH2 0x100 EXP SWAP1 DIV PUSH20 0xFFFFFFFFFFFFFFFFFFFFFFFFFFFFFFFFFFFFFFFF AND PUSH20 0xFFFFFFFFFFFFFFFFFFFFFFFFFFFFFFFFFFFFFFFF AND PUSH4 0x8CBD7834 DUP3 PUSH1 0x40 MLOAD DUP3 PUSH4 0xFFFFFFFF AND PUSH1 0xE0 SHL DUP2 MSTORE PUSH1 0x4 ADD PUSH2 0xEC7 SWAP2 SWAP1 PUSH2 0x48A9 JUMP JUMPDEST PUSH1 0x20 PUSH1 0x40 MLOAD DUP1 DUP4 SUB DUP2 DUP7 DUP1 EXTCODESIZE ISZERO DUP1 ISZERO PUSH2 0xEDF JUMPI PUSH1 0x0 DUP1 REVERT JUMPDEST POP GAS STATICCALL ISZERO DUP1 ISZERO PUSH2 0xEF3 JUMPI RETURNDATASIZE PUSH1 0x0 DUP1 RETURNDATACOPY RETURNDATASIZE PUSH1 0x0 REVERT JUMPDEST POP POP POP POP PUSH1 0x40 MLOAD RETURNDATASIZE PUSH1 0x1F NOT PUSH1 0x1F DUP3 ADD AND DUP3 ADD DUP1 PUSH1 0x40 MSTORE POP DUP2 ADD SWAP1 PUSH2 0xF17 SWAP2 SWAP1 PUSH2 0x3B2D JUMP JUMPDEST ISZERO PUSH2 0xF57 JUMPI PUSH1 0x40 MLOAD PUSH32 0x8C379A000000000000000000000000000000000000000000000000000000000 DUP2 MSTORE PUSH1 0x4 ADD PUSH2 0xF4E SWAP1 PUSH2 0x49BE JUMP JUMPDEST PUSH1 0x40 MLOAD DUP1 SWAP2 SUB SWAP1 REVERT JUMPDEST PUSH1 0x0 DUP1 PUSH1 0x0 SWAP1 SLOAD SWAP1 PUSH2 0x100 EXP SWAP1 DIV PUSH20 0xFFFFFFFFFFFFFFFFFFFFFFFFFFFFFFFFFFFFFFFF AND PUSH20 0xFFFFFFFFFFFFFFFFFFFFFFFFFFFFFFFFFFFFFFFF AND PUSH4 0x2F72AF34 DUP9 PUSH1 0x40 MLOAD DUP3 PUSH4 0xFFFFFFFF AND PUSH1 0xE0 SHL DUP2 MSTORE PUSH1 0x4 ADD PUSH2 0xFB3 SWAP2 SWAP1 PUSH2 0x48A9 JUMP JUMPDEST PUSH1 0x0 PUSH1 0x40 MLOAD DUP1 DUP4 SUB DUP2 DUP7 DUP1 EXTCODESIZE ISZERO DUP1 ISZERO PUSH2 0xFCB JUMPI PUSH1 0x0 DUP1 REVERT JUMPDEST POP GAS STATICCALL ISZERO DUP1 ISZERO PUSH2 0xFDF JUMPI RETURNDATASIZE PUSH1 0x0 DUP1 RETURNDATACOPY RETURNDATASIZE PUSH1 0x0 REVERT JUMPDEST POP POP POP POP PUSH1 0x40 MLOAD RETURNDATASIZE PUSH1 0x0 DUP3 RETURNDATACOPY RETURNDATASIZE PUSH1 0x1F NOT PUSH1 0x1F DUP3 ADD AND DUP3 ADD DUP1 PUSH1 0x40 MSTORE POP DUP2 ADD SWAP1 PUSH2 0x1008 SWAP2 SWAP1 PUSH2 0x4D35 JUMP JUMPDEST SWAP1 POP PUSH1 0x1 DUP1 DUP2 GT ISZERO PUSH2 0x101D JUMPI PUSH2 0x101C PUSH2 0x3BD7 JUMP JUMPDEST JUMPDEST DUP2 PUSH2 0x140 ADD MLOAD PUSH1 0x1 DUP2 GT ISZERO PUSH2 0x1035 JUMPI PUSH2 0x1034 PUSH2 0x3BD7 JUMP JUMPDEST JUMPDEST EQ PUSH2 0x1075 JUMPI PUSH1 0x40 MLOAD PUSH32 0x8C379A000000000000000000000000000000000000000000000000000000000 DUP2 MSTORE PUSH1 0x4 ADD PUSH2 0x106C SWAP1 PUSH2 0x4DCA JUMP JUMPDEST PUSH1 0x40 MLOAD DUP1 SWAP2 SUB SWAP1 REVERT JUMPDEST PUSH1 0x0 DUP1 SLOAD SWAP1 PUSH2 0x100 EXP SWAP1 DIV PUSH20 0xFFFFFFFFFFFFFFFFFFFFFFFFFFFFFFFFFFFFFFFF AND PUSH20 0xFFFFFFFFFFFFFFFFFFFFFFFFFFFFFFFFFFFFFFFF AND PUSH4 0x5A6167C9 PUSH1 0x40 MLOAD DUP2 PUSH4 0xFFFFFFFF AND PUSH1 0xE0 SHL DUP2 MSTORE PUSH1 0x4 ADD PUSH1 0x20 PUSH1 0x40 MLOAD DUP1 DUP4 SUB DUP2 DUP7 DUP1 EXTCODESIZE ISZERO DUP1 ISZERO PUSH2 0x10DB JUMPI PUSH1 0x0 DUP1 REVERT JUMPDEST POP GAS STATICCALL ISZERO DUP1 ISZERO PUSH2 0x10EF JUMPI RETURNDATASIZE PUSH1 0x0 DUP1 RETURNDATACOPY RETURNDATASIZE PUSH1 0x0 REVERT JUMPDEST POP POP POP POP PUSH1 0x40 MLOAD RETURNDATASIZE PUSH1 0x1F NOT PUSH1 0x1F DUP3 ADD AND DUP3 ADD DUP1 PUSH1 0x40 MSTORE POP DUP2 ADD SWAP1 PUSH2 0x1113 SWAP2 SWAP1 PUSH2 0x3C1B JUMP JUMPDEST DUP6 MLOAD DUP3 PUSH2 0x120 ADD MLOAD MLOAD PUSH2 0x1126 SWAP2 SWAP1 PUSH2 0x4DEA JUMP JUMPDEST GT ISZERO PUSH2 0x1167 JUMPI PUSH1 0x40 MLOAD PUSH32 0x8C379A000000000000000000000000000000000000000000000000000000000 DUP2 MSTORE PUSH1 0x4 ADD PUSH2 0x115E SWAP1 PUSH2 0x4E8C JUMP JUMPDEST PUSH1 0x40 MLOAD DUP1 SWAP2 SUB SWAP1 REVERT JUMPDEST PUSH1 0x0 JUMPDEST DUP6 MLOAD DUP2 PUSH1 0xFF AND LT ISZERO PUSH2 0x1343 JUMPI PUSH1 0x0 PUSH1 0x1 SWAP1 POP DUP7 DUP3 PUSH1 0xFF AND DUP2 MLOAD DUP2 LT PUSH2 0x1192 JUMPI PUSH2 0x1191 PUSH2 0x4EAC JUMP JUMPDEST JUMPDEST PUSH1 0x20 MUL PUSH1 0x20 ADD ADD MLOAD PUSH20 0xFFFFFFFFFFFFFFFFFFFFFFFFFFFFFFFFFFFFFFFF AND CALLER PUSH20 0xFFFFFFFFFFFFFFFFFFFFFFFFFFFFFFFFFFFFFFFF AND EQ ISZERO PUSH2 0x11D3 JUMPI POP PUSH2 0x1330 JUMP JUMPDEST PUSH1 0x0 DUP4 PUSH2 0x120 ADD MLOAD MLOAD SWAP1 POP PUSH1 0x0 JUMPDEST DUP2 DUP2 PUSH1 0xFF AND LT ISZERO PUSH2 0x127B JUMPI DUP9 DUP5 PUSH1 0xFF AND DUP2 MLOAD DUP2 LT PUSH2 0x1202 JUMPI PUSH2 0x1201 PUSH2 0x4EAC JUMP JUMPDEST JUMPDEST PUSH1 0x20 MUL PUSH1 0x20 ADD ADD MLOAD PUSH20 0xFFFFFFFFFFFFFFFFFFFFFFFFFFFFFFFFFFFFFFFF AND DUP6 PUSH2 0x120 ADD MLOAD DUP3 PUSH1 0xFF AND DUP2 MLOAD DUP2 LT PUSH2 0x123B JUMPI PUSH2 0x123A PUSH2 0x4EAC JUMP JUMPDEST JUMPDEST PUSH1 0x20 MUL PUSH1 0x20 ADD ADD MLOAD PUSH20 0xFFFFFFFFFFFFFFFFFFFFFFFFFFFFFFFFFFFFFFFF AND EQ ISZERO PUSH2 0x1268 JUMPI PUSH1 0x0 SWAP3 POP PUSH2 0x127B JUMP JUMPDEST DUP1 DUP1 PUSH2 0x1273 SWAP1 PUSH2 0x4EE8 JUMP JUMPDEST SWAP2 POP POP PUSH2 0x11E1 JUMP JUMPDEST POP DUP2 ISZERO PUSH2 0x132D JUMPI PUSH1 0x0 DUP1 SLOAD SWAP1 PUSH2 0x100 EXP SWAP1 DIV PUSH20 0xFFFFFFFFFFFFFFFFFFFFFFFFFFFFFFFFFFFFFFFF AND PUSH20 0xFFFFFFFFFFFFFFFFFFFFFFFFFFFFFFFFFFFFFFFF AND PUSH4 0xD2F1C77C DUP12 DUP11 DUP7 PUSH1 0xFF AND DUP2 MLOAD DUP2 LT PUSH2 0x12D5 JUMPI PUSH2 0x12D4 PUSH2 0x4EAC JUMP JUMPDEST JUMPDEST PUSH1 0x20 MUL PUSH1 0x20 ADD ADD MLOAD PUSH1 0x40 MLOAD DUP4 PUSH4 0xFFFFFFFF AND PUSH1 0xE0 SHL DUP2 MSTORE PUSH1 0x4 ADD PUSH2 0x12FA SWAP3 SWAP2 SWAP1 PUSH2 0x4F12 JUMP JUMPDEST PUSH1 0x0 PUSH1 0x40 MLOAD DUP1 DUP4 SUB DUP2 PUSH1 0x0 DUP8 DUP1 EXTCODESIZE ISZERO DUP1 ISZERO PUSH2 0x1314 JUMPI PUSH1 0x0 DUP1 REVERT JUMPDEST POP GAS CALL ISZERO DUP1 ISZERO PUSH2 0x1328 JUMPI RETURNDATASIZE PUSH1 0x0 DUP1 RETURNDATACOPY RETURNDATASIZE PUSH1 0x0 REVERT JUMPDEST POP POP POP POP JUMPDEST POP POP JUMPDEST DUP1 DUP1 PUSH2 0x133B SWAP1 PUSH2 0x4EE8 JUMP JUMPDEST SWAP2 POP POP PUSH2 0x116A JUMP JUMPDEST POP POP POP POP POP POP POP POP JUMP JUMPDEST DUP2 PUSH2 0x1405 PUSH1 0x0 DUP1 SLOAD SWAP1 PUSH2 0x100 EXP SWAP1 DIV PUSH20 0xFFFFFFFFFFFFFFFFFFFFFFFFFFFFFFFFFFFFFFFF AND PUSH20 0xFFFFFFFFFFFFFFFFFFFFFFFFFFFFFFFFFFFFFFFF AND PUSH4 0xD6F343C5 CALLER PUSH1 0x40 MLOAD DUP3 PUSH4 0xFFFFFFFF AND PUSH1 0xE0 SHL DUP2 MSTORE PUSH1 0x4 ADD PUSH2 0x13AA SWAP2 SWAP1 PUSH2 0x3CC3 JUMP JUMPDEST PUSH1 0x0 PUSH1 0x40 MLOAD DUP1 DUP4 SUB DUP2 DUP7 DUP1 EXTCODESIZE ISZERO DUP1 ISZERO PUSH2 0x13C2 JUMPI PUSH1 0x0 DUP1 REVERT JUMPDEST POP GAS STATICCALL ISZERO DUP1 ISZERO PUSH2 0x13D6 JUMPI RETURNDATASIZE PUSH1 0x0 DUP1 RETURNDATACOPY RETURNDATASIZE PUSH1 0x0 REVERT JUMPDEST POP POP POP POP PUSH1 0x40 MLOAD RETURNDATASIZE PUSH1 0x0 DUP3 RETURNDATACOPY RETURNDATASIZE PUSH1 0x1F NOT PUSH1 0x1F DUP3 ADD AND DUP3 ADD DUP1 PUSH1 0x40 MSTORE POP DUP2 ADD SWAP1 PUSH2 0x13FF SWAP2 SWAP1 PUSH2 0x47F4 JUMP JUMPDEST DUP3 PUSH2 0x2FF4 JUMP JUMPDEST PUSH2 0x1444 JUMPI PUSH1 0x40 MLOAD PUSH32 0x8C379A000000000000000000000000000000000000000000000000000000000 DUP2 MSTORE PUSH1 0x4 ADD PUSH2 0x143B SWAP1 PUSH2 0x4889 JUMP JUMPDEST PUSH1 0x40 MLOAD DUP1 SWAP2 SUB SWAP1 REVERT JUMPDEST DUP2 CALLER PUSH20 0xFFFFFFFFFFFFFFFFFFFFFFFFFFFFFFFFFFFFFFFF AND PUSH1 0x0 DUP1 SLOAD SWAP1 PUSH2 0x100 EXP SWAP1 DIV PUSH20 0xFFFFFFFFFFFFFFFFFFFFFFFFFFFFFFFFFFFFFFFF AND PUSH20 0xFFFFFFFFFFFFFFFFFFFFFFFFFFFFFFFFFFFFFFFF AND PUSH4 0x3B8A8A16 DUP4 PUSH1 0x40 MLOAD DUP3 PUSH4 0xFFFFFFFF AND PUSH1 0xE0 SHL DUP2 MSTORE PUSH1 0x4 ADD PUSH2 0x14B5 SWAP2 SWAP1 PUSH2 0x48A9 JUMP JUMPDEST PUSH1 0x20 PUSH1 0x40 MLOAD DUP1 DUP4 SUB DUP2 DUP7 DUP1 EXTCODESIZE ISZERO DUP1 ISZERO PUSH2 0x14CD JUMPI PUSH1 0x0 DUP1 REVERT JUMPDEST POP GAS STATICCALL ISZERO DUP1 ISZERO PUSH2 0x14E1 JUMPI RETURNDATASIZE PUSH1 0x0 DUP1 RETURNDATACOPY RETURNDATASIZE PUSH1 0x0 REVERT JUMPDEST POP POP POP POP PUSH1 0x40 MLOAD RETURNDATASIZE PUSH1 0x1F NOT PUSH1 0x1F DUP3 ADD AND DUP3 ADD DUP1 PUSH1 0x40 MSTORE POP DUP2 ADD SWAP1 PUSH2 0x1505 SWAP2 SWAP1 PUSH2 0x48D9 JUMP JUMPDEST PUSH20 0xFFFFFFFFFFFFFFFFFFFFFFFFFFFFFFFFFFFFFFFF AND EQ PUSH2 0x155B JUMPI PUSH1 0x40 MLOAD PUSH32 0x8C379A000000000000000000000000000000000000000000000000000000000 DUP2 MSTORE PUSH1 0x4 ADD PUSH2 0x1552 SWAP1 PUSH2 0x4952 JUMP JUMPDEST PUSH1 0x40 MLOAD DUP1 SWAP2 SUB SWAP1 REVERT JUMPDEST DUP3 PUSH1 0x0 DUP1 SLOAD SWAP1 PUSH2 0x100 EXP SWAP1 DIV PUSH20 0xFFFFFFFFFFFFFFFFFFFFFFFFFFFFFFFFFFFFFFFF AND PUSH20 0xFFFFFFFFFFFFFFFFFFFFFFFFFFFFFFFFFFFFFFFF AND PUSH4 0x8CBD7834 DUP3 PUSH1 0x40 MLOAD DUP3 PUSH4 0xFFFFFFFF AND PUSH1 0xE0 SHL DUP2 MSTORE PUSH1 0x4 ADD PUSH2 0x15B5 SWAP2 SWAP1 PUSH2 0x48A9 JUMP JUMPDEST PUSH1 0x20 PUSH1 0x40 MLOAD DUP1 DUP4 SUB DUP2 DUP7 DUP1 EXTCODESIZE ISZERO DUP1 ISZERO PUSH2 0x15CD JUMPI PUSH1 0x0 DUP1 REVERT JUMPDEST POP GAS STATICCALL ISZERO DUP1 ISZERO PUSH2 0x15E1 JUMPI RETURNDATASIZE PUSH1 0x0 DUP1 RETURNDATACOPY RETURNDATASIZE PUSH1 0x0 REVERT JUMPDEST POP POP POP POP PUSH1 0x40 MLOAD RETURNDATASIZE PUSH1 0x1F NOT PUSH1 0x1F DUP3 ADD AND DUP3 ADD DUP1 PUSH1 0x40 MSTORE POP DUP2 ADD SWAP1 PUSH2 0x1605 SWAP2 SWAP1 PUSH2 0x3B2D JUMP JUMPDEST ISZERO PUSH2 0x1645 JUMPI PUSH1 0x40 MLOAD PUSH32 0x8C379A000000000000000000000000000000000000000000000000000000000 DUP2 MSTORE PUSH1 0x4 ADD PUSH2 0x163C SWAP1 PUSH2 0x49BE JUMP JUMPDEST PUSH1 0x40 MLOAD DUP1 SWAP2 SUB SWAP1 REVERT JUMPDEST PUSH1 0x0 DUP1 PUSH1 0x0 SWAP1 SLOAD SWAP1 PUSH2 0x100 EXP SWAP1 DIV PUSH20 0xFFFFFFFFFFFFFFFFFFFFFFFFFFFFFFFFFFFFFFFF AND PUSH20 0xFFFFFFFFFFFFFFFFFFFFFFFFFFFFFFFFFFFFFFFF AND PUSH4 0x2F72AF34 DUP7 PUSH1 0x40 MLOAD DUP3 PUSH4 0xFFFFFFFF AND PUSH1 0xE0 SHL DUP2 MSTORE PUSH1 0x4 ADD PUSH2 0x16A1 SWAP2 SWAP1 PUSH2 0x48A9 JUMP JUMPDEST PUSH1 0x0 PUSH1 0x40 MLOAD DUP1 DUP4 SUB DUP2 DUP7 DUP1 EXTCODESIZE ISZERO DUP1 ISZERO PUSH2 0x16B9 JUMPI PUSH1 0x0 DUP1 REVERT JUMPDEST POP GAS STATICCALL ISZERO DUP1 ISZERO PUSH2 0x16CD JUMPI RETURNDATASIZE PUSH1 0x0 DUP1 RETURNDATACOPY RETURNDATASIZE PUSH1 0x0 REVERT JUMPDEST POP POP POP POP PUSH1 0x40 MLOAD RETURNDATASIZE PUSH1 0x0 DUP3 RETURNDATACOPY RETURNDATASIZE PUSH1 0x1F NOT PUSH1 0x1F DUP3 ADD AND DUP3 ADD DUP1 PUSH1 0x40 MSTORE POP DUP2 ADD SWAP1 PUSH2 0x16F6 SWAP2 SWAP1 PUSH2 0x4D35 JUMP JUMPDEST SWAP1 POP PUSH1 0x0 DUP2 PUSH2 0x180 ADD MLOAD MLOAD EQ PUSH2 0x1741 JUMPI PUSH1 0x40 MLOAD PUSH32 0x8C379A000000000000000000000000000000000000000000000000000000000 DUP2 MSTORE PUSH1 0x4 ADD PUSH2 0x1738 SWAP1 PUSH2 0x4F87 JUMP JUMPDEST PUSH1 0x40 MLOAD DUP1 SWAP2 SUB SWAP1 REVERT JUMPDEST PUSH1 0x0 DUP1 SLOAD SWAP1 PUSH2 0x100 EXP SWAP1 DIV PUSH20 0xFFFFFFFFFFFFFFFFFFFFFFFFFFFFFFFFFFFFFFFF AND PUSH20 0xFFFFFFFFFFFFFFFFFFFFFFFFFFFFFFFFFFFFFFFF AND PUSH4 0xA0B437DF DUP7 PUSH1 0x1 PUSH1 0x40 MLOAD DUP4 PUSH4 0xFFFFFFFF AND PUSH1 0xE0 SHL DUP2 MSTORE PUSH1 0x4 ADD PUSH2 0x179D SWAP3 SWAP2 SWAP1 PUSH2 0x4FA7 JUMP JUMPDEST PUSH1 0x0 PUSH1 0x40 MLOAD DUP1 DUP4 SUB DUP2 PUSH1 0x0 DUP8 DUP1 EXTCODESIZE ISZERO DUP1 ISZERO PUSH2 0x17B7 JUMPI PUSH1 0x0 DUP1 REVERT JUMPDEST POP GAS CALL ISZERO DUP1 ISZERO PUSH2 0x17CB JUMPI RETURNDATASIZE PUSH1 0x0 DUP1 RETURNDATACOPY RETURNDATASIZE PUSH1 0x0 REVERT JUMPDEST POP POP POP POP PUSH1 0x0 DUP1 SLOAD SWAP1 PUSH2 0x100 EXP SWAP1 DIV PUSH20 0xFFFFFFFFFFFFFFFFFFFFFFFFFFFFFFFFFFFFFFFF AND PUSH20 0xFFFFFFFFFFFFFFFFFFFFFFFFFFFFFFFFFFFFFFFF AND PUSH4 0x84F816E5 DUP7 TIMESTAMP PUSH1 0x40 MLOAD DUP4 PUSH4 0xFFFFFFFF AND PUSH1 0xE0 SHL DUP2 MSTORE PUSH1 0x4 ADD PUSH2 0x182A SWAP3 SWAP2 SWAP1 PUSH2 0x4FD0 JUMP JUMPDEST PUSH1 0x0 PUSH1 0x40 MLOAD DUP1 DUP4 SUB DUP2 PUSH1 0x0 DUP8 DUP1 EXTCODESIZE ISZERO DUP1 ISZERO PUSH2 0x1844 JUMPI PUSH1 0x0 DUP1 REVERT JUMPDEST POP GAS CALL ISZERO DUP1 ISZERO PUSH2 0x1858 JUMPI RETURNDATASIZE PUSH1 0x0 DUP1 RETURNDATACOPY RETURNDATASIZE PUSH1 0x0 REVERT JUMPDEST POP POP POP POP POP POP POP POP POP POP JUMP JUMPDEST PUSH1 0x0 DUP1 PUSH1 0x0 SWAP1 POP JUMPDEST DUP4 MLOAD DUP2 PUSH1 0xFF AND LT ISZERO PUSH2 0x18E6 JUMPI DUP3 PUSH20 0xFFFFFFFFFFFFFFFFFFFFFFFFFFFFFFFFFFFFFFFF AND DUP5 DUP3 PUSH1 0xFF AND DUP2 MLOAD DUP2 LT PUSH2 0x18A5 JUMPI PUSH2 0x18A4 PUSH2 0x4EAC JUMP JUMPDEST JUMPDEST PUSH1 0x20 MUL PUSH1 0x20 ADD ADD MLOAD PUSH20 0xFFFFFFFFFFFFFFFFFFFFFFFFFFFFFFFFFFFFFFFF AND EQ ISZERO PUSH2 0x18D3 JUMPI PUSH1 0x1 SWAP2 POP POP PUSH2 0x18EC JUMP JUMPDEST DUP1 DUP1 PUSH2 0x18DE SWAP1 PUSH2 0x4EE8 JUMP JUMPDEST SWAP2 POP POP PUSH2 0x186C JUMP JUMPDEST POP PUSH1 0x0 SWAP1 POP JUMPDEST SWAP3 SWAP2 POP POP JUMP JUMPDEST PUSH1 0x0 DUP1 SLOAD SWAP1 PUSH2 0x100 EXP SWAP1 DIV PUSH20 0xFFFFFFFFFFFFFFFFFFFFFFFFFFFFFFFFFFFFFFFF AND PUSH20 0xFFFFFFFFFFFFFFFFFFFFFFFFFFFFFFFFFFFFFFFF AND PUSH4 0x90287940 DUP5 PUSH1 0x40 MLOAD DUP3 PUSH4 0xFFFFFFFF AND PUSH1 0xE0 SHL DUP2 MSTORE PUSH1 0x4 ADD PUSH2 0x194B SWAP2 SWAP1 PUSH2 0x4FF9 JUMP JUMPDEST PUSH1 0x20 PUSH1 0x40 MLOAD DUP1 DUP4 SUB DUP2 DUP7 DUP1 EXTCODESIZE ISZERO DUP1 ISZERO PUSH2 0x1963 JUMPI PUSH1 0x0 DUP1 REVERT JUMPDEST POP GAS STATICCALL ISZERO DUP1 ISZERO PUSH2 0x1977 JUMPI RETURNDATASIZE PUSH1 0x0 DUP1 RETURNDATACOPY RETURNDATASIZE PUSH1 0x0 REVERT JUMPDEST POP POP POP POP PUSH1 0x40 MLOAD RETURNDATASIZE PUSH1 0x1F NOT PUSH1 0x1F DUP3 ADD AND DUP3 ADD DUP1 PUSH1 0x40 MSTORE POP DUP2 ADD SWAP1 PUSH2 0x199B SWAP2 SWAP1 PUSH2 0x3B2D JUMP JUMPDEST ISZERO PUSH2 0x19DB JUMPI PUSH1 0x40 MLOAD PUSH32 0x8C379A000000000000000000000000000000000000000000000000000000000 DUP2 MSTORE PUSH1 0x4 ADD PUSH2 0x19D2 SWAP1 PUSH2 0x5067 JUMP JUMPDEST PUSH1 0x40 MLOAD DUP1 SWAP2 SUB SWAP1 REVERT JUMPDEST PUSH1 0x0 DUP1 SLOAD SWAP1 PUSH2 0x100 EXP SWAP1 DIV PUSH20 0xFFFFFFFFFFFFFFFFFFFFFFFFFFFFFFFFFFFFFFFF AND PUSH20 0xFFFFFFFFFFFFFFFFFFFFFFFFFFFFFFFFFFFFFFFF AND PUSH4 0x215CF05D PUSH1 0x40 MLOAD DUP2 PUSH4 0xFFFFFFFF AND PUSH1 0xE0 SHL DUP2 MSTORE PUSH1 0x4 ADD PUSH1 0x20 PUSH1 0x40 MLOAD DUP1 DUP4 SUB DUP2 DUP7 DUP1 EXTCODESIZE ISZERO DUP1 ISZERO PUSH2 0x1A41 JUMPI PUSH1 0x0 DUP1 REVERT JUMPDEST POP GAS STATICCALL ISZERO DUP1 ISZERO PUSH2 0x1A55 JUMPI RETURNDATASIZE PUSH1 0x0 DUP1 RETURNDATACOPY RETURNDATASIZE PUSH1 0x0 REVERT JUMPDEST POP POP POP POP PUSH1 0x40 MLOAD RETURNDATASIZE PUSH1 0x1F NOT PUSH1 0x1F DUP3 ADD AND DUP3 ADD DUP1 PUSH1 0x40 MSTORE POP DUP2 ADD SWAP1 PUSH2 0x1A79 SWAP2 SWAP1 PUSH2 0x3C1B JUMP JUMPDEST CALLVALUE LT ISZERO PUSH2 0x1ABB JUMPI PUSH1 0x40 MLOAD PUSH32 0x8C379A000000000000000000000000000000000000000000000000000000000 DUP2 MSTORE PUSH1 0x4 ADD PUSH2 0x1AB2 SWAP1 PUSH2 0x3C94 JUMP JUMPDEST PUSH1 0x40 MLOAD DUP1 SWAP2 SUB SWAP1 REVERT JUMPDEST PUSH1 0x0 DUP1 PUSH1 0x0 SWAP1 SLOAD SWAP1 PUSH2 0x100 EXP SWAP1 DIV PUSH20 0xFFFFFFFFFFFFFFFFFFFFFFFFFFFFFFFFFFFFFFFF AND PUSH20 0xFFFFFFFFFFFFFFFFFFFFFFFFFFFFFFFFFFFFFFFF AND PUSH4 0xD6F343C5 CALLER PUSH1 0x40 MLOAD DUP3 PUSH4 0xFFFFFFFF AND PUSH1 0xE0 SHL DUP2 MSTORE PUSH1 0x4 ADD PUSH2 0x1B17 SWAP2 SWAP1 PUSH2 0x3CC3 JUMP JUMPDEST PUSH1 0x0 PUSH1 0x40 MLOAD DUP1 DUP4 SUB DUP2 DUP7 DUP1 EXTCODESIZE ISZERO DUP1 ISZERO PUSH2 0x1B2F JUMPI PUSH1 0x0 DUP1 REVERT JUMPDEST POP GAS STATICCALL ISZERO DUP1 ISZERO PUSH2 0x1B43 JUMPI RETURNDATASIZE PUSH1 0x0 DUP1 RETURNDATACOPY RETURNDATASIZE PUSH1 0x0 REVERT JUMPDEST POP POP POP POP PUSH1 0x40 MLOAD RETURNDATASIZE PUSH1 0x0 DUP3 RETURNDATACOPY RETURNDATASIZE PUSH1 0x1F NOT PUSH1 0x1F DUP3 ADD AND DUP3 ADD DUP1 PUSH1 0x40 MSTORE POP DUP2 ADD SWAP1 PUSH2 0x1B6C SWAP2 SWAP1 PUSH2 0x47F4 JUMP JUMPDEST SWAP1 POP PUSH1 0x0 DUP2 MLOAD EQ PUSH2 0x1BB2 JUMPI PUSH1 0x40 MLOAD PUSH32 0x8C379A000000000000000000000000000000000000000000000000000000000 DUP2 MSTORE PUSH1 0x4 ADD PUSH2 0x1BA9 SWAP1 PUSH2 0x50D3 JUMP JUMPDEST PUSH1 0x40 MLOAD DUP1 SWAP2 SUB SWAP1 REVERT JUMPDEST PUSH1 0x0 DUP1 SLOAD SWAP1 PUSH2 0x100 EXP SWAP1 DIV PUSH20 0xFFFFFFFFFFFFFFFFFFFFFFFFFFFFFFFFFFFFFFFF AND PUSH20 0xFFFFFFFFFFFFFFFFFFFFFFFFFFFFFFFFFFFFFFFF AND PUSH4 0xE31FC5BF CALLER DUP7 DUP7 DUP7 PUSH1 0x40 MLOAD DUP6 PUSH4 0xFFFFFFFF AND PUSH1 0xE0 SHL DUP2 MSTORE PUSH1 0x4 ADD PUSH2 0x1C11 SWAP5 SWAP4 SWAP3 SWAP2 SWAP1 PUSH2 0x50F3 JUMP JUMPDEST PUSH1 0x0 PUSH1 0x40 MLOAD DUP1 DUP4 SUB DUP2 PUSH1 0x0 DUP8 DUP1 EXTCODESIZE ISZERO DUP1 ISZERO PUSH2 0x1C2B JUMPI PUSH1 0x0 DUP1 REVERT JUMPDEST POP GAS CALL ISZERO DUP1 ISZERO PUSH2 0x1C3F JUMPI RETURNDATASIZE PUSH1 0x0 DUP1 RETURNDATACOPY RETURNDATASIZE PUSH1 0x0 REVERT JUMPDEST POP POP POP POP POP POP POP POP JUMP JUMPDEST PUSH1 0x0 PUSH1 0x1 PUSH1 0x0 SWAP1 SLOAD SWAP1 PUSH2 0x100 EXP SWAP1 DIV PUSH20 0xFFFFFFFFFFFFFFFFFFFFFFFFFFFFFFFFFFFFFFFF AND PUSH20 0xFFFFFFFFFFFFFFFFFFFFFFFFFFFFFFFFFFFFFFFF AND CALLER PUSH20 0xFFFFFFFFFFFFFFFFFFFFFFFFFFFFFFFFFFFFFFFF AND EQ SWAP1 POP SWAP1 JUMP JUMPDEST DUP3 MLOAD DUP5 MLOAD EQ DUP1 ISZERO PUSH2 0x1CB3 JUMPI POP DUP2 MLOAD DUP4 MLOAD EQ JUMPDEST DUP1 ISZERO PUSH2 0x1CC0 JUMPI POP DUP1 MLOAD DUP3 MLOAD EQ JUMPDEST PUSH2 0x1CFF JUMPI PUSH1 0x40 MLOAD PUSH32 0x8C379A000000000000000000000000000000000000000000000000000000000 DUP2 MSTORE PUSH1 0x4 ADD PUSH2 0x1CF6 SWAP1 PUSH2 0x5199 JUMP JUMPDEST PUSH1 0x40 MLOAD DUP1 SWAP2 SUB SWAP1 REVERT JUMPDEST PUSH1 0x0 DUP1 PUSH1 0x0 SWAP1 SLOAD SWAP1 PUSH2 0x100 EXP SWAP1 DIV PUSH20 0xFFFFFFFFFFFFFFFFFFFFFFFFFFFFFFFFFFFFFFFF AND PUSH20 0xFFFFFFFFFFFFFFFFFFFFFFFFFFFFFFFFFFFFFFFF AND PUSH4 0x2F72AF34 DUP8 PUSH1 0x40 MLOAD DUP3 PUSH4 0xFFFFFFFF AND PUSH1 0xE0 SHL DUP2 MSTORE PUSH1 0x4 ADD PUSH2 0x1D5B SWAP2 SWAP1 PUSH2 0x48A9 JUMP JUMPDEST PUSH1 0x0 PUSH1 0x40 MLOAD DUP1 DUP4 SUB DUP2 DUP7 DUP1 EXTCODESIZE ISZERO DUP1 ISZERO PUSH2 0x1D73 JUMPI PUSH1 0x0 DUP1 REVERT JUMPDEST POP GAS STATICCALL ISZERO DUP1 ISZERO PUSH2 0x1D87 JUMPI RETURNDATASIZE PUSH1 0x0 DUP1 RETURNDATACOPY RETURNDATASIZE PUSH1 0x0 REVERT JUMPDEST POP POP POP POP PUSH1 0x40 MLOAD RETURNDATASIZE PUSH1 0x0 DUP3 RETURNDATACOPY RETURNDATASIZE PUSH1 0x1F NOT PUSH1 0x1F DUP3 ADD AND DUP3 ADD DUP1 PUSH1 0x40 MSTORE POP DUP2 ADD SWAP1 PUSH2 0x1DB0 SWAP2 SWAP1 PUSH2 0x4D35 JUMP JUMPDEST SWAP1 POP PUSH1 0x0 DUP2 PUSH2 0x1A0 ADD MLOAD PUSH20 0xFFFFFFFFFFFFFFFFFFFFFFFFFFFFFFFFFFFFFFFF AND CALLER PUSH20 0xFFFFFFFFFFFFFFFFFFFFFFFFFFFFFFFFFFFFFFFF AND EQ SWAP1 POP DUP1 PUSH2 0x1EBF JUMPI PUSH1 0x0 DUP1 DUP4 PUSH2 0x120 ADD MLOAD MLOAD SWAP1 POP PUSH1 0x0 JUMPDEST DUP2 DUP2 PUSH1 0xFF AND LT ISZERO PUSH2 0x1E7B JUMPI DUP5 PUSH2 0x120 ADD MLOAD DUP2 PUSH1 0xFF AND DUP2 MLOAD DUP2 LT PUSH2 0x1E24 JUMPI PUSH2 0x1E23 PUSH2 0x4EAC JUMP JUMPDEST JUMPDEST PUSH1 0x20 MUL PUSH1 0x20 ADD ADD MLOAD PUSH20 0xFFFFFFFFFFFFFFFFFFFFFFFFFFFFFFFFFFFFFFFF AND CALLER PUSH20 0xFFFFFFFFFFFFFFFFFFFFFFFFFFFFFFFFFFFFFFFF AND EQ ISZERO PUSH2 0x1E68 JUMPI PUSH1 0x1 SWAP3 POP PUSH2 0x1E7B JUMP JUMPDEST DUP1 DUP1 PUSH2 0x1E73 SWAP1 PUSH2 0x4EE8 JUMP JUMPDEST SWAP2 POP POP PUSH2 0x1DFE JUMP JUMPDEST POP DUP2 PUSH2 0x1EBC JUMPI PUSH1 0x40 MLOAD PUSH32 0x8C379A000000000000000000000000000000000000000000000000000000000 DUP2 MSTORE PUSH1 0x4 ADD PUSH2 0x1EB3 SWAP1 PUSH2 0x5205 JUMP JUMPDEST PUSH1 0x40 MLOAD DUP1 SWAP2 SUB SWAP1 REVERT JUMPDEST POP POP JUMPDEST PUSH1 0x0 DUP1 JUMPDEST DUP7 MLOAD DUP2 PUSH1 0xFF AND LT ISZERO PUSH2 0x2145 JUMPI PUSH1 0x0 DUP9 DUP3 PUSH1 0xFF AND DUP2 MLOAD DUP2 LT PUSH2 0x1EE7 JUMPI PUSH2 0x1EE6 PUSH2 0x4EAC JUMP JUMPDEST JUMPDEST PUSH1 0x20 MUL PUSH1 0x20 ADD ADD MLOAD SWAP1 POP PUSH1 0x0 PUSH1 0xA DUP2 GT ISZERO PUSH2 0x1F05 JUMPI PUSH2 0x1F04 PUSH2 0x3BD7 JUMP JUMPDEST JUMPDEST PUSH1 0xFF AND DUP2 PUSH1 0xFF AND EQ DUP1 PUSH2 0x1F30 JUMPI POP PUSH1 0x1 PUSH1 0xA DUP2 GT ISZERO PUSH2 0x1F27 JUMPI PUSH2 0x1F26 PUSH2 0x3BD7 JUMP JUMPDEST JUMPDEST PUSH1 0xFF AND DUP2 PUSH1 0xFF AND EQ JUMPDEST DUP1 PUSH2 0x1F53 JUMPI POP PUSH1 0x2 PUSH1 0xA DUP2 GT ISZERO PUSH2 0x1F4A JUMPI PUSH2 0x1F49 PUSH2 0x3BD7 JUMP JUMPDEST JUMPDEST PUSH1 0xFF AND DUP2 PUSH1 0xFF AND EQ JUMPDEST SWAP3 POP DUP4 ISZERO PUSH2 0x1FA0 JUMPI DUP3 PUSH2 0x1F9B JUMPI PUSH1 0x40 MLOAD PUSH32 0x8C379A000000000000000000000000000000000000000000000000000000000 DUP2 MSTORE PUSH1 0x4 ADD PUSH2 0x1F92 SWAP1 PUSH2 0x5271 JUMP JUMPDEST PUSH1 0x40 MLOAD DUP1 SWAP2 SUB SWAP1 REVERT JUMPDEST PUSH2 0x2028 JUMP JUMPDEST DUP3 ISZERO PUSH2 0x1FE1 JUMPI PUSH1 0x40 MLOAD PUSH32 0x8C379A000000000000000000000000000000000000000000000000000000000 DUP2 MSTORE PUSH1 0x4 ADD PUSH2 0x1FD8 SWAP1 PUSH2 0x52DD JUMP JUMPDEST PUSH1 0x40 MLOAD DUP1 SWAP2 SUB SWAP1 REVERT JUMPDEST TIMESTAMP DUP6 PUSH1 0xA0 ADD MLOAD GT PUSH2 0x2027 JUMPI PUSH1 0x40 MLOAD PUSH32 0x8C379A000000000000000000000000000000000000000000000000000000000 DUP2 MSTORE PUSH1 0x4 ADD PUSH2 0x201E SWAP1 PUSH2 0x5349 JUMP JUMPDEST PUSH1 0x40 MLOAD DUP1 SWAP2 SUB SWAP1 REVERT JUMPDEST JUMPDEST PUSH1 0x0 DUP1 SLOAD SWAP1 PUSH2 0x100 EXP SWAP1 DIV PUSH20 0xFFFFFFFFFFFFFFFFFFFFFFFFFFFFFFFFFFFFFFFF AND PUSH20 0xFFFFFFFFFFFFFFFFFFFFFFFFFFFFFFFFFFFFFFFF AND PUSH4 0xD88F15A7 DUP12 DUP12 DUP6 PUSH1 0xFF AND DUP2 MLOAD DUP2 LT PUSH2 0x207B JUMPI PUSH2 0x207A PUSH2 0x4EAC JUMP JUMPDEST JUMPDEST PUSH1 0x20 MUL PUSH1 0x20 ADD ADD MLOAD DUP12 DUP7 PUSH1 0xFF AND DUP2 MLOAD DUP2 LT PUSH2 0x2099 JUMPI PUSH2 0x2098 PUSH2 0x4EAC JUMP JUMPDEST JUMPDEST PUSH1 0x20 MUL PUSH1 0x20 ADD ADD MLOAD CALLER DUP13 DUP9 PUSH1 0xFF AND DUP2 MLOAD DUP2 LT PUSH2 0x20B8 JUMPI PUSH2 0x20B7 PUSH2 0x4EAC JUMP JUMPDEST JUMPDEST PUSH1 0x20 MUL PUSH1 0x20 ADD ADD MLOAD DUP13 DUP10 PUSH1 0xFF AND DUP2 MLOAD DUP2 LT PUSH2 0x20D6 JUMPI PUSH2 0x20D5 PUSH2 0x4EAC JUMP JUMPDEST JUMPDEST PUSH1 0x20 MUL PUSH1 0x20 ADD ADD MLOAD PUSH1 0x40 MLOAD DUP8 PUSH4 0xFFFFFFFF AND PUSH1 0xE0 SHL DUP2 MSTORE PUSH1 0x4 ADD PUSH2 0x20FF SWAP7 SWAP6 SWAP5 SWAP4 SWAP3 SWAP2 SWAP1 PUSH2 0x5369 JUMP JUMPDEST PUSH1 0x0 PUSH1 0x40 MLOAD DUP1 DUP4 SUB DUP2 PUSH1 0x0 DUP8 DUP1 EXTCODESIZE ISZERO DUP1 ISZERO PUSH2 0x2119 JUMPI PUSH1 0x0 DUP1 REVERT JUMPDEST POP GAS CALL ISZERO DUP1 ISZERO PUSH2 0x212D JUMPI RETURNDATASIZE PUSH1 0x0 DUP1 RETURNDATACOPY RETURNDATASIZE PUSH1 0x0 REVERT JUMPDEST POP POP POP POP POP DUP1 DUP1 PUSH2 0x213D SWAP1 PUSH2 0x4EE8 JUMP JUMPDEST SWAP2 POP POP PUSH2 0x1EC3 JUMP JUMPDEST POP POP POP POP POP POP POP POP POP JUMP JUMPDEST DUP1 PUSH1 0x0 DUP1 SLOAD SWAP1 PUSH2 0x100 EXP SWAP1 DIV PUSH20 0xFFFFFFFFFFFFFFFFFFFFFFFFFFFFFFFFFFFFFFFF AND PUSH20 0xFFFFFFFFFFFFFFFFFFFFFFFFFFFFFFFFFFFFFFFF AND PUSH4 0x8CBD7834 DUP3 PUSH1 0x40 MLOAD DUP3 PUSH4 0xFFFFFFFF AND PUSH1 0xE0 SHL DUP2 MSTORE PUSH1 0x4 ADD PUSH2 0x21AA SWAP2 SWAP1 PUSH2 0x48A9 JUMP JUMPDEST PUSH1 0x20 PUSH1 0x40 MLOAD DUP1 DUP4 SUB DUP2 DUP7 DUP1 EXTCODESIZE ISZERO DUP1 ISZERO PUSH2 0x21C2 JUMPI PUSH1 0x0 DUP1 REVERT JUMPDEST POP GAS STATICCALL ISZERO DUP1 ISZERO PUSH2 0x21D6 JUMPI RETURNDATASIZE PUSH1 0x0 DUP1 RETURNDATACOPY RETURNDATASIZE PUSH1 0x0 REVERT JUMPDEST POP POP POP POP PUSH1 0x40 MLOAD RETURNDATASIZE PUSH1 0x1F NOT PUSH1 0x1F DUP3 ADD AND DUP3 ADD DUP1 PUSH1 0x40 MSTORE POP DUP2 ADD SWAP1 PUSH2 0x21FA SWAP2 SWAP1 PUSH2 0x3B2D JUMP JUMPDEST ISZERO PUSH2 0x223A JUMPI PUSH1 0x40 MLOAD PUSH32 0x8C379A000000000000000000000000000000000000000000000000000000000 DUP2 MSTORE PUSH1 0x4 ADD PUSH2 0x2231 SWAP1 PUSH2 0x49BE JUMP JUMPDEST PUSH1 0x40 MLOAD DUP1 SWAP2 SUB SWAP1 REVERT JUMPDEST PUSH1 0x0 DUP1 PUSH1 0x0 SWAP1 SLOAD SWAP1 PUSH2 0x100 EXP SWAP1 DIV PUSH20 0xFFFFFFFFFFFFFFFFFFFFFFFFFFFFFFFFFFFFFFFF AND PUSH20 0xFFFFFFFFFFFFFFFFFFFFFFFFFFFFFFFFFFFFFFFF AND PUSH4 0x2F72AF34 DUP5 PUSH1 0x40 MLOAD DUP3 PUSH4 0xFFFFFFFF AND PUSH1 0xE0 SHL DUP2 MSTORE PUSH1 0x4 ADD PUSH2 0x2296 SWAP2 SWAP1 PUSH2 0x48A9 JUMP JUMPDEST PUSH1 0x0 PUSH1 0x40 MLOAD DUP1 DUP4 SUB DUP2 DUP7 DUP1 EXTCODESIZE ISZERO DUP1 ISZERO PUSH2 0x22AE JUMPI PUSH1 0x0 DUP1 REVERT JUMPDEST POP GAS STATICCALL ISZERO DUP1 ISZERO PUSH2 0x22C2 JUMPI RETURNDATASIZE PUSH1 0x0 DUP1 RETURNDATACOPY RETURNDATASIZE PUSH1 0x0 REVERT JUMPDEST POP POP POP POP PUSH1 0x40 MLOAD RETURNDATASIZE PUSH1 0x0 DUP3 RETURNDATACOPY RETURNDATASIZE PUSH1 0x1F NOT PUSH1 0x1F DUP3 ADD AND DUP3 ADD DUP1 PUSH1 0x40 MSTORE POP DUP2 ADD SWAP1 PUSH2 0x22EB SWAP2 SWAP1 PUSH2 0x4D35 JUMP JUMPDEST SWAP1 POP PUSH1 0x0 DUP1 SLOAD SWAP1 PUSH2 0x100 EXP SWAP1 DIV PUSH20 0xFFFFFFFFFFFFFFFFFFFFFFFFFFFFFFFFFFFFFFFF AND PUSH20 0xFFFFFFFFFFFFFFFFFFFFFFFFFFFFFFFFFFFFFFFF AND PUSH4 0xBE38013B PUSH1 0x40 MLOAD DUP2 PUSH4 0xFFFFFFFF AND PUSH1 0xE0 SHL DUP2 MSTORE PUSH1 0x4 ADD PUSH1 0x20 PUSH1 0x40 MLOAD DUP1 DUP4 SUB DUP2 DUP7 DUP1 EXTCODESIZE ISZERO DUP1 ISZERO PUSH2 0x2353 JUMPI PUSH1 0x0 DUP1 REVERT JUMPDEST POP GAS STATICCALL ISZERO DUP1 ISZERO PUSH2 0x2367 JUMPI RETURNDATASIZE PUSH1 0x0 DUP1 RETURNDATACOPY RETURNDATASIZE PUSH1 0x0 REVERT JUMPDEST POP POP POP POP PUSH1 0x40 MLOAD RETURNDATASIZE PUSH1 0x1F NOT PUSH1 0x1F DUP3 ADD AND DUP3 ADD DUP1 PUSH1 0x40 MSTORE POP DUP2 ADD SWAP1 PUSH2 0x238B SWAP2 SWAP1 PUSH2 0x3C1B JUMP JUMPDEST CALLVALUE LT ISZERO PUSH2 0x23CD JUMPI PUSH1 0x40 MLOAD PUSH32 0x8C379A000000000000000000000000000000000000000000000000000000000 DUP2 MSTORE PUSH1 0x4 ADD PUSH2 0x23C4 SWAP1 PUSH2 0x542B JUMP JUMPDEST PUSH1 0x40 MLOAD DUP1 SWAP2 SUB SWAP1 REVERT JUMPDEST PUSH1 0x0 PUSH1 0x1 DUP2 GT ISZERO PUSH2 0x23E1 JUMPI PUSH2 0x23E0 PUSH2 0x3BD7 JUMP JUMPDEST JUMPDEST DUP2 PUSH2 0x140 ADD MLOAD PUSH1 0x1 DUP2 GT ISZERO PUSH2 0x23F9 JUMPI PUSH2 0x23F8 PUSH2 0x3BD7 JUMP JUMPDEST JUMPDEST EQ PUSH2 0x2439 JUMPI PUSH1 0x40 MLOAD PUSH32 0x8C379A000000000000000000000000000000000000000000000000000000000 DUP2 MSTORE PUSH1 0x4 ADD PUSH2 0x2430 SWAP1 PUSH2 0x5497 JUMP JUMPDEST PUSH1 0x40 MLOAD DUP1 SWAP2 SUB SWAP1 REVERT JUMPDEST PUSH1 0x0 DUP1 SLOAD SWAP1 PUSH2 0x100 EXP SWAP1 DIV PUSH20 0xFFFFFFFFFFFFFFFFFFFFFFFFFFFFFFFFFFFFFFFF AND PUSH20 0xFFFFFFFFFFFFFFFFFFFFFFFFFFFFFFFFFFFFFFFF AND PUSH4 0xECBB7B4A PUSH1 0x40 MLOAD DUP2 PUSH4 0xFFFFFFFF AND PUSH1 0xE0 SHL DUP2 MSTORE PUSH1 0x4 ADD PUSH1 0x20 PUSH1 0x40 MLOAD DUP1 DUP4 SUB DUP2 DUP7 DUP1 EXTCODESIZE ISZERO DUP1 ISZERO PUSH2 0x249F JUMPI PUSH1 0x0 DUP1 REVERT JUMPDEST POP GAS STATICCALL ISZERO DUP1 ISZERO PUSH2 0x24B3 JUMPI RETURNDATASIZE PUSH1 0x0 DUP1 RETURNDATACOPY RETURNDATASIZE PUSH1 0x0 REVERT JUMPDEST POP POP POP POP PUSH1 0x40 MLOAD RETURNDATASIZE PUSH1 0x1F NOT PUSH1 0x1F DUP3 ADD AND DUP3 ADD DUP1 PUSH1 0x40 MSTORE POP DUP2 ADD SWAP1 PUSH2 0x24D7 SWAP2 SWAP1 PUSH2 0x3C1B JUMP JUMPDEST DUP2 PUSH2 0x120 ADD MLOAD MLOAD LT PUSH2 0x251E JUMPI PUSH1 0x40 MLOAD PUSH32 0x8C379A000000000000000000000000000000000000000000000000000000000 DUP2 MSTORE PUSH1 0x4 ADD PUSH2 0x2515 SWAP1 PUSH2 0x5503 JUMP JUMPDEST PUSH1 0x40 MLOAD DUP1 SWAP2 SUB SWAP1 REVERT JUMPDEST DUP1 PUSH2 0x1A0 ADD MLOAD PUSH20 0xFFFFFFFFFFFFFFFFFFFFFFFFFFFFFFFFFFFFFFFF AND CALLER PUSH20 0xFFFFFFFFFFFFFFFFFFFFFFFFFFFFFFFFFFFFFFFF AND EQ ISZERO PUSH2 0x2592 JUMPI PUSH1 0x40 MLOAD PUSH32 0x8C379A000000000000000000000000000000000000000000000000000000000 DUP2 MSTORE PUSH1 0x4 ADD PUSH2 0x2589 SWAP1 PUSH2 0x556F JUMP JUMPDEST PUSH1 0x40 MLOAD DUP1 SWAP2 SUB SWAP1 REVERT JUMPDEST PUSH1 0x0 DUP2 PUSH2 0x120 ADD MLOAD MLOAD SWAP1 POP PUSH1 0x0 JUMPDEST DUP2 DUP2 PUSH1 0xFF AND LT ISZERO PUSH2 0x264F JUMPI CALLER PUSH20 0xFFFFFFFFFFFFFFFFFFFFFFFFFFFFFFFFFFFFFFFF AND DUP4 PUSH2 0x120 ADD MLOAD DUP3 PUSH1 0xFF AND DUP2 MLOAD DUP2 LT PUSH2 0x25DD JUMPI PUSH2 0x25DC PUSH2 0x4EAC JUMP JUMPDEST JUMPDEST PUSH1 0x20 MUL PUSH1 0x20 ADD ADD MLOAD PUSH20 0xFFFFFFFFFFFFFFFFFFFFFFFFFFFFFFFFFFFFFFFF AND EQ ISZERO PUSH2 0x263C JUMPI PUSH1 0x40 MLOAD PUSH32 0x8C379A000000000000000000000000000000000000000000000000000000000 DUP2 MSTORE PUSH1 0x4 ADD PUSH2 0x2633 SWAP1 PUSH2 0x55DB JUMP JUMPDEST PUSH1 0x40 MLOAD DUP1 SWAP2 SUB SWAP1 REVERT JUMPDEST DUP1 DUP1 PUSH2 0x2647 SWAP1 PUSH2 0x4EE8 JUMP JUMPDEST SWAP2 POP POP PUSH2 0x25A0 JUMP JUMPDEST POP PUSH1 0x0 DUP1 SLOAD SWAP1 PUSH2 0x100 EXP SWAP1 DIV PUSH20 0xFFFFFFFFFFFFFFFFFFFFFFFFFFFFFFFFFFFFFFFF AND PUSH20 0xFFFFFFFFFFFFFFFFFFFFFFFFFFFFFFFFFFFFFFFF AND PUSH4 0xD2F1C77C DUP6 CALLER PUSH1 0x40 MLOAD DUP4 PUSH4 0xFFFFFFFF AND PUSH1 0xE0 SHL DUP2 MSTORE PUSH1 0x4 ADD PUSH2 0x26AB SWAP3 SWAP2 SWAP1 PUSH2 0x4F12 JUMP JUMPDEST PUSH1 0x0 PUSH1 0x40 MLOAD DUP1 DUP4 SUB DUP2 PUSH1 0x0 DUP8 DUP1 EXTCODESIZE ISZERO DUP1 ISZERO PUSH2 0x26C5 JUMPI PUSH1 0x0 DUP1 REVERT JUMPDEST POP GAS CALL ISZERO DUP1 ISZERO PUSH2 0x26D9 JUMPI RETURNDATASIZE PUSH1 0x0 DUP1 RETURNDATACOPY RETURNDATASIZE PUSH1 0x0 REVERT JUMPDEST POP POP POP POP POP POP POP POP JUMP JUMPDEST DUP2 PUSH2 0x279B PUSH1 0x0 DUP1 SLOAD SWAP1 PUSH2 0x100 EXP SWAP1 DIV PUSH20 0xFFFFFFFFFFFFFFFFFFFFFFFFFFFFFFFFFFFFFFFF AND PUSH20 0xFFFFFFFFFFFFFFFFFFFFFFFFFFFFFFFFFFFFFFFF AND PUSH4 0xD6F343C5 CALLER PUSH1 0x40 MLOAD DUP3 PUSH4 0xFFFFFFFF AND PUSH1 0xE0 SHL DUP2 MSTORE PUSH1 0x4 ADD PUSH2 0x2740 SWAP2 SWAP1 PUSH2 0x3CC3 JUMP JUMPDEST PUSH1 0x0 PUSH1 0x40 MLOAD DUP1 DUP4 SUB DUP2 DUP7 DUP1 EXTCODESIZE ISZERO DUP1 ISZERO PUSH2 0x2758 JUMPI PUSH1 0x0 DUP1 REVERT JUMPDEST POP GAS STATICCALL ISZERO DUP1 ISZERO PUSH2 0x276C JUMPI RETURNDATASIZE PUSH1 0x0 DUP1 RETURNDATACOPY RETURNDATASIZE PUSH1 0x0 REVERT JUMPDEST POP POP POP POP PUSH1 0x40 MLOAD RETURNDATASIZE PUSH1 0x0 DUP3 RETURNDATACOPY RETURNDATASIZE PUSH1 0x1F NOT PUSH1 0x1F DUP3 ADD AND DUP3 ADD DUP1 PUSH1 0x40 MSTORE POP DUP2 ADD SWAP1 PUSH2 0x2795 SWAP2 SWAP1 PUSH2 0x47F4 JUMP JUMPDEST DUP3 PUSH2 0x2FF4 JUMP JUMPDEST PUSH2 0x27DA JUMPI PUSH1 0x40 MLOAD PUSH32 0x8C379A000000000000000000000000000000000000000000000000000000000 DUP2 MSTORE PUSH1 0x4 ADD PUSH2 0x27D1 SWAP1 PUSH2 0x4889 JUMP JUMPDEST PUSH1 0x40 MLOAD DUP1 SWAP2 SUB SWAP1 REVERT JUMPDEST DUP4 CALLER PUSH20 0xFFFFFFFFFFFFFFFFFFFFFFFFFFFFFFFFFFFFFFFF AND PUSH1 0x0 DUP1 SLOAD SWAP1 PUSH2 0x100 EXP SWAP1 DIV PUSH20 0xFFFFFFFFFFFFFFFFFFFFFFFFFFFFFFFFFFFFFFFF AND PUSH20 0xFFFFFFFFFFFFFFFFFFFFFFFFFFFFFFFFFFFFFFFF AND PUSH4 0x3B8A8A16 DUP4 PUSH1 0x40 MLOAD DUP3 PUSH4 0xFFFFFFFF AND PUSH1 0xE0 SHL DUP2 MSTORE PUSH1 0x4 ADD PUSH2 0x284B SWAP2 SWAP1 PUSH2 0x48A9 JUMP JUMPDEST PUSH1 0x20 PUSH1 0x40 MLOAD DUP1 DUP4 SUB DUP2 DUP7 DUP1 EXTCODESIZE ISZERO DUP1 ISZERO PUSH2 0x2863 JUMPI PUSH1 0x0 DUP1 REVERT JUMPDEST POP GAS STATICCALL ISZERO DUP1 ISZERO PUSH2 0x2877 JUMPI RETURNDATASIZE PUSH1 0x0 DUP1 RETURNDATACOPY RETURNDATASIZE PUSH1 0x0 REVERT JUMPDEST POP POP POP POP PUSH1 0x40 MLOAD RETURNDATASIZE PUSH1 0x1F NOT PUSH1 0x1F DUP3 ADD AND DUP3 ADD DUP1 PUSH1 0x40 MSTORE POP DUP2 ADD SWAP1 PUSH2 0x289B SWAP2 SWAP1 PUSH2 0x48D9 JUMP JUMPDEST PUSH20 0xFFFFFFFFFFFFFFFFFFFFFFFFFFFFFFFFFFFFFFFF AND EQ PUSH2 0x28F1 JUMPI PUSH1 0x40 MLOAD PUSH32 0x8C379A000000000000000000000000000000000000000000000000000000000 DUP2 MSTORE PUSH1 0x4 ADD PUSH2 0x28E8 SWAP1 PUSH2 0x4952 JUMP JUMPDEST PUSH1 0x40 MLOAD DUP1 SWAP2 SUB SWAP1 REVERT JUMPDEST DUP5 PUSH1 0x0 DUP1 SLOAD SWAP1 PUSH2 0x100 EXP SWAP1 DIV PUSH20 0xFFFFFFFFFFFFFFFFFFFFFFFFFFFFFFFFFFFFFFFF AND PUSH20 0xFFFFFFFFFFFFFFFFFFFFFFFFFFFFFFFFFFFFFFFF AND PUSH4 0x8CBD7834 DUP3 PUSH1 0x40 MLOAD DUP3 PUSH4 0xFFFFFFFF AND PUSH1 0xE0 SHL DUP2 MSTORE PUSH1 0x4 ADD PUSH2 0x294B SWAP2 SWAP1 PUSH2 0x48A9 JUMP JUMPDEST PUSH1 0x20 PUSH1 0x40 MLOAD DUP1 DUP4 SUB DUP2 DUP7 DUP1 EXTCODESIZE ISZERO DUP1 ISZERO PUSH2 0x2963 JUMPI PUSH1 0x0 DUP1 REVERT JUMPDEST POP GAS STATICCALL ISZERO DUP1 ISZERO PUSH2 0x2977 JUMPI RETURNDATASIZE PUSH1 0x0 DUP1 RETURNDATACOPY RETURNDATASIZE PUSH1 0x0 REVERT JUMPDEST POP POP POP POP PUSH1 0x40 MLOAD RETURNDATASIZE PUSH1 0x1F NOT PUSH1 0x1F DUP3 ADD AND DUP3 ADD DUP1 PUSH1 0x40 MSTORE POP DUP2 ADD SWAP1 PUSH2 0x299B SWAP2 SWAP1 PUSH2 0x3B2D JUMP JUMPDEST ISZERO PUSH2 0x29DB JUMPI PUSH1 0x40 MLOAD PUSH32 0x8C379A000000000000000000000000000000000000000000000000000000000 DUP2 MSTORE PUSH1 0x4 ADD PUSH2 0x29D2 SWAP1 PUSH2 0x49BE JUMP JUMPDEST PUSH1 0x40 MLOAD DUP1 SWAP2 SUB SWAP1 REVERT JUMPDEST PUSH1 0x0 DUP1 PUSH1 0x0 SWAP1 SLOAD SWAP1 PUSH2 0x100 EXP SWAP1 DIV PUSH20 0xFFFFFFFFFFFFFFFFFFFFFFFFFFFFFFFFFFFFFFFF AND PUSH20 0xFFFFFFFFFFFFFFFFFFFFFFFFFFFFFFFFFFFFFFFF AND PUSH4 0x2F72AF34 DUP9 PUSH1 0x40 MLOAD DUP3 PUSH4 0xFFFFFFFF AND PUSH1 0xE0 SHL DUP2 MSTORE PUSH1 0x4 ADD PUSH2 0x2A37 SWAP2 SWAP1 PUSH2 0x48A9 JUMP JUMPDEST PUSH1 0x0 PUSH1 0x40 MLOAD DUP1 DUP4 SUB DUP2 DUP7 DUP1 EXTCODESIZE ISZERO DUP1 ISZERO PUSH2 0x2A4F JUMPI PUSH1 0x0 DUP1 REVERT JUMPDEST POP GAS STATICCALL ISZERO DUP1 ISZERO PUSH2 0x2A63 JUMPI RETURNDATASIZE PUSH1 0x0 DUP1 RETURNDATACOPY RETURNDATASIZE PUSH1 0x0 REVERT JUMPDEST POP POP POP POP PUSH1 0x40 MLOAD RETURNDATASIZE PUSH1 0x0 DUP3 RETURNDATACOPY RETURNDATASIZE PUSH1 0x1F NOT PUSH1 0x1F DUP3 ADD AND DUP3 ADD DUP1 PUSH1 0x40 MSTORE POP DUP2 ADD SWAP1 PUSH2 0x2A8C SWAP2 SWAP1 PUSH2 0x4D35 JUMP JUMPDEST SWAP1 POP PUSH1 0x0 DUP2 PUSH2 0x180 ADD MLOAD MLOAD EQ PUSH2 0x2AD7 JUMPI PUSH1 0x40 MLOAD PUSH32 0x8C379A000000000000000000000000000000000000000000000000000000000 DUP2 MSTORE PUSH1 0x4 ADD PUSH2 0x2ACE SWAP1 PUSH2 0x4F87 JUMP JUMPDEST PUSH1 0x40 MLOAD DUP1 SWAP2 SUB SWAP1 REVERT JUMPDEST DUP1 PUSH1 0xE0 ADD MLOAD ISZERO PUSH2 0x2B1C JUMPI PUSH1 0x40 MLOAD PUSH32 0x8C379A000000000000000000000000000000000000000000000000000000000 DUP2 MSTORE PUSH1 0x4 ADD PUSH2 0x2B13 SWAP1 PUSH2 0x49BE JUMP JUMPDEST PUSH1 0x40 MLOAD DUP1 SWAP2 SUB SWAP1 REVERT JUMPDEST PUSH1 0x0 DUP2 PUSH2 0x160 ADD MLOAD MLOAD SWAP1 POP PUSH1 0x0 DUP7 MLOAD SWAP1 POP PUSH1 0x0 DUP3 EQ DUP1 PUSH2 0x2B3C JUMPI POP PUSH1 0x1 DUP3 EQ JUMPDEST DUP1 ISZERO PUSH2 0x2B49 JUMPI POP PUSH1 0x1 DUP8 MLOAD EQ JUMPDEST DUP1 PUSH2 0x2B60 JUMPI POP PUSH1 0x2 DUP3 LT ISZERO DUP1 ISZERO PUSH2 0x2B5F JUMPI POP DUP2 DUP2 EQ JUMPDEST JUMPDEST PUSH2 0x2B9F JUMPI PUSH1 0x40 MLOAD PUSH32 0x8C379A000000000000000000000000000000000000000000000000000000000 DUP2 MSTORE PUSH1 0x4 ADD PUSH2 0x2B96 SWAP1 PUSH2 0x5647 JUMP JUMPDEST PUSH1 0x40 MLOAD DUP1 SWAP2 SUB SWAP1 REVERT JUMPDEST DUP3 PUSH1 0xC0 ADD MLOAD TIMESTAMP LT ISZERO PUSH2 0x2BE6 JUMPI PUSH1 0x40 MLOAD PUSH32 0x8C379A000000000000000000000000000000000000000000000000000000000 DUP2 MSTORE PUSH1 0x4 ADD PUSH2 0x2BDD SWAP1 PUSH2 0x56B3 JUMP JUMPDEST PUSH1 0x40 MLOAD DUP1 SWAP2 SUB SWAP1 REVERT JUMPDEST PUSH1 0x0 JUMPDEST DUP2 DUP2 PUSH1 0xFF AND LT ISZERO PUSH2 0x2E29 JUMPI PUSH1 0x0 DUP9 DUP3 PUSH1 0xFF AND DUP2 MLOAD DUP2 LT PUSH2 0x2C0C JUMPI PUSH2 0x2C0B PUSH2 0x4EAC JUMP JUMPDEST JUMPDEST PUSH1 0x20 MUL PUSH1 0x20 ADD ADD MLOAD SWAP1 POP CALLER PUSH20 0xFFFFFFFFFFFFFFFFFFFFFFFFFFFFFFFFFFFFFFFF AND DUP2 PUSH20 0xFFFFFFFFFFFFFFFFFFFFFFFFFFFFFFFFFFFFFFFF AND EQ ISZERO PUSH2 0x2C85 JUMPI PUSH1 0x40 MLOAD PUSH32 0x8C379A000000000000000000000000000000000000000000000000000000000 DUP2 MSTORE PUSH1 0x4 ADD PUSH2 0x2C7C SWAP1 PUSH2 0x571F JUMP JUMPDEST PUSH1 0x40 MLOAD DUP1 SWAP2 SUB SWAP1 REVERT JUMPDEST PUSH2 0x2C94 DUP2 DUP7 PUSH2 0x120 ADD MLOAD PUSH2 0x3060 JUMP JUMPDEST PUSH2 0x2CD3 JUMPI PUSH1 0x40 MLOAD PUSH32 0x8C379A000000000000000000000000000000000000000000000000000000000 DUP2 MSTORE PUSH1 0x4 ADD PUSH2 0x2CCA SWAP1 PUSH2 0x578B JUMP JUMPDEST PUSH1 0x40 MLOAD DUP1 SWAP2 SUB SWAP1 REVERT JUMPDEST PUSH1 0x2 PUSH1 0x0 DUP3 PUSH20 0xFFFFFFFFFFFFFFFFFFFFFFFFFFFFFFFFFFFFFFFF AND PUSH20 0xFFFFFFFFFFFFFFFFFFFFFFFFFFFFFFFFFFFFFFFF AND DUP2 MSTORE PUSH1 0x20 ADD SWAP1 DUP2 MSTORE PUSH1 0x20 ADD PUSH1 0x0 KECCAK256 PUSH1 0x0 SWAP1 SLOAD SWAP1 PUSH2 0x100 EXP SWAP1 DIV PUSH1 0xFF AND PUSH2 0x2E15 JUMPI PUSH1 0x1 PUSH1 0x2 PUSH1 0x0 DUP4 PUSH20 0xFFFFFFFFFFFFFFFFFFFFFFFFFFFFFFFFFFFFFFFF AND PUSH20 0xFFFFFFFFFFFFFFFFFFFFFFFFFFFFFFFFFFFFFFFF AND DUP2 MSTORE PUSH1 0x20 ADD SWAP1 DUP2 MSTORE PUSH1 0x20 ADD PUSH1 0x0 KECCAK256 PUSH1 0x0 PUSH2 0x100 EXP DUP2 SLOAD DUP2 PUSH1 0xFF MUL NOT AND SWAP1 DUP4 ISZERO ISZERO MUL OR SWAP1 SSTORE POP PUSH1 0x0 PUSH20 0xFFFFFFFFFFFFFFFFFFFFFFFFFFFFFFFFFFFFFFFF AND DUP2 PUSH20 0xFFFFFFFFFFFFFFFFFFFFFFFFFFFFFFFFFFFFFFFF AND EQ PUSH2 0x2E14 JUMPI PUSH1 0x4 DUP2 SWAP1 DUP1 PUSH1 0x1 DUP2 SLOAD ADD DUP1 DUP3 SSTORE DUP1 SWAP2 POP POP PUSH1 0x1 SWAP1 SUB SWAP1 PUSH1 0x0 MSTORE PUSH1 0x20 PUSH1 0x0 KECCAK256 ADD PUSH1 0x0 SWAP1 SWAP2 SWAP1 SWAP2 SWAP1 SWAP2 PUSH2 0x100 EXP DUP2 SLOAD DUP2 PUSH20 0xFFFFFFFFFFFFFFFFFFFFFFFFFFFFFFFFFFFFFFFF MUL NOT AND SWAP1 DUP4 PUSH20 0xFFFFFFFFFFFFFFFFFFFFFFFFFFFFFFFFFFFFFFFF AND MUL OR SWAP1 SSTORE POP JUMPDEST JUMPDEST POP DUP1 DUP1 PUSH2 0x2E21 SWAP1 PUSH2 0x4EE8 JUMP JUMPDEST SWAP2 POP POP PUSH2 0x2BE9 JUMP JUMPDEST POP PUSH1 0x0 DUP1 SLOAD SWAP1 PUSH2 0x100 EXP SWAP1 DIV PUSH20 0xFFFFFFFFFFFFFFFFFFFFFFFFFFFFFFFFFFFFFFFF AND PUSH20 0xFFFFFFFFFFFFFFFFFFFFFFFFFFFFFFFFFFFFFFFF AND PUSH4 0xF8195D6C DUP11 DUP10 PUSH1 0x40 MLOAD DUP4 PUSH4 0xFFFFFFFF AND PUSH1 0xE0 SHL DUP2 MSTORE PUSH1 0x4 ADD PUSH2 0x2E85 SWAP3 SWAP2 SWAP1 PUSH2 0x581A JUMP JUMPDEST PUSH1 0x0 PUSH1 0x40 MLOAD DUP1 DUP4 SUB DUP2 PUSH1 0x0 DUP8 DUP1 EXTCODESIZE ISZERO DUP1 ISZERO PUSH2 0x2E9F JUMPI PUSH1 0x0 DUP1 REVERT JUMPDEST POP GAS CALL ISZERO DUP1 ISZERO PUSH2 0x2EB3 JUMPI RETURNDATASIZE PUSH1 0x0 DUP1 RETURNDATACOPY RETURNDATASIZE PUSH1 0x0 REVERT JUMPDEST POP POP POP POP PUSH1 0x0 DUP1 SLOAD SWAP1 PUSH2 0x100 EXP SWAP1 DIV PUSH20 0xFFFFFFFFFFFFFFFFFFFFFFFFFFFFFFFFFFFFFFFF AND PUSH20 0xFFFFFFFFFFFFFFFFFFFFFFFFFFFFFFFFFFFFFFFF AND PUSH4 0xF0174DC4 DUP11 PUSH1 0x4 PUSH1 0x40 MLOAD DUP4 PUSH4 0xFFFFFFFF AND PUSH1 0xE0 SHL DUP2 MSTORE PUSH1 0x4 ADD PUSH2 0x2F13 SWAP3 SWAP2 SWAP1 PUSH2 0x5936 JUMP JUMPDEST PUSH1 0x0 PUSH1 0x40 MLOAD DUP1 DUP4 SUB DUP2 PUSH1 0x0 DUP8 DUP1 EXTCODESIZE ISZERO DUP1 ISZERO PUSH2 0x2F2D JUMPI PUSH1 0x0 DUP1 REVERT JUMPDEST POP GAS CALL ISZERO DUP1 ISZERO PUSH2 0x2F41 JUMPI RETURNDATASIZE PUSH1 0x0 DUP1 RETURNDATACOPY RETURNDATASIZE PUSH1 0x0 REVERT JUMPDEST POP POP POP POP PUSH1 0x3 PUSH1 0x4 SWAP1 DUP1 SLOAD PUSH2 0x2F57 SWAP3 SWAP2 SWAP1 PUSH2 0x3125 JUMP JUMPDEST POP PUSH1 0x0 JUMPDEST DUP2 DUP2 LT ISZERO PUSH2 0x2FE8 JUMPI PUSH1 0x0 PUSH1 0x2 PUSH1 0x0 DUP11 DUP5 DUP2 MLOAD DUP2 LT PUSH2 0x2F7C JUMPI PUSH2 0x2F7B PUSH2 0x4EAC JUMP JUMPDEST JUMPDEST PUSH1 0x20 MUL PUSH1 0x20 ADD ADD MLOAD PUSH20 0xFFFFFFFFFFFFFFFFFFFFFFFFFFFFFFFFFFFFFFFF AND PUSH20 0xFFFFFFFFFFFFFFFFFFFFFFFFFFFFFFFFFFFFFFFF AND DUP2 MSTORE PUSH1 0x20 ADD SWAP1 DUP2 MSTORE PUSH1 0x20 ADD PUSH1 0x0 KECCAK256 PUSH1 0x0 PUSH2 0x100 EXP DUP2 SLOAD DUP2 PUSH1 0xFF MUL NOT AND SWAP1 DUP4 ISZERO ISZERO MUL OR SWAP1 SSTORE POP DUP1 DUP1 PUSH2 0x2FE0 SWAP1 PUSH2 0x5966 JUMP JUMPDEST SWAP2 POP POP PUSH2 0x2F5B JUMP JUMPDEST POP POP POP POP POP POP POP POP POP POP JUMP JUMPDEST PUSH1 0x0 DUP2 MLOAD DUP4 MLOAD EQ PUSH2 0x3008 JUMPI PUSH1 0x0 SWAP1 POP PUSH2 0x305A JUMP JUMPDEST DUP2 PUSH1 0x40 MLOAD PUSH1 0x20 ADD PUSH2 0x3019 SWAP2 SWAP1 PUSH2 0x59EB JUMP JUMPDEST PUSH1 0x40 MLOAD PUSH1 0x20 DUP2 DUP4 SUB SUB DUP2 MSTORE SWAP1 PUSH1 0x40 MSTORE DUP1 MLOAD SWAP1 PUSH1 0x20 ADD KECCAK256 DUP4 PUSH1 0x40 MLOAD PUSH1 0x20 ADD PUSH2 0x3040 SWAP2 SWAP1 PUSH2 0x59EB JUMP JUMPDEST PUSH1 0x40 MLOAD PUSH1 0x20 DUP2 DUP4 SUB SUB DUP2 MSTORE SWAP1 PUSH1 0x40 MSTORE DUP1 MLOAD SWAP1 PUSH1 0x20 ADD KECCAK256 EQ SWAP1 POP JUMPDEST SWAP3 SWAP2 POP POP JUMP JUMPDEST PUSH1 0x0 DUP1 PUSH1 0x0 SWAP1 POP JUMPDEST DUP3 MLOAD DUP2 PUSH1 0xFF AND LT ISZERO PUSH2 0x3119 JUMPI DUP3 DUP2 PUSH1 0xFF AND DUP2 MLOAD DUP2 LT PUSH2 0x308A JUMPI PUSH2 0x3089 PUSH2 0x4EAC JUMP JUMPDEST JUMPDEST PUSH1 0x20 MUL PUSH1 0x20 ADD ADD MLOAD PUSH20 0xFFFFFFFFFFFFFFFFFFFFFFFFFFFFFFFFFFFFFFFF AND DUP5 PUSH20 0xFFFFFFFFFFFFFFFFFFFFFFFFFFFFFFFFFFFFFFFF AND EQ DUP1 PUSH2 0x30F7 JUMPI POP PUSH1 0x0 PUSH20 0xFFFFFFFFFFFFFFFFFFFFFFFFFFFFFFFFFFFFFFFF AND DUP5 PUSH20 0xFFFFFFFFFFFFFFFFFFFFFFFFFFFFFFFFFFFFFFFF AND EQ JUMPDEST ISZERO PUSH2 0x3106 JUMPI PUSH1 0x1 SWAP2 POP POP PUSH2 0x311F JUMP JUMPDEST DUP1 DUP1 PUSH2 0x3111 SWAP1 PUSH2 0x4EE8 JUMP JUMPDEST SWAP2 POP POP PUSH2 0x3068 JUMP JUMPDEST POP PUSH1 0x0 SWAP1 POP JUMPDEST SWAP3 SWAP2 POP POP JUMP JUMPDEST DUP3 DUP1 SLOAD DUP3 DUP3 SSTORE SWAP1 PUSH1 0x0 MSTORE PUSH1 0x20 PUSH1 0x0 KECCAK256 SWAP1 DUP2 ADD SWAP3 DUP3 ISZERO PUSH2 0x3166 JUMPI PUSH1 0x0 MSTORE PUSH1 0x20 PUSH1 0x0 KECCAK256 SWAP2 DUP3 ADD JUMPDEST DUP3 DUP2 GT ISZERO PUSH2 0x3165 JUMPI DUP3 SLOAD DUP3 SSTORE SWAP2 PUSH1 0x1 ADD SWAP2 SWAP1 PUSH1 0x1 ADD SWAP1 PUSH2 0x314A JUMP JUMPDEST JUMPDEST POP SWAP1 POP PUSH2 0x3173 SWAP2 SWAP1 PUSH2 0x3177 JUMP JUMPDEST POP SWAP1 JUMP JUMPDEST JUMPDEST DUP1 DUP3 GT ISZERO PUSH2 0x3190 JUMPI PUSH1 0x0 DUP2 PUSH1 0x0 SWAP1 SSTORE POP PUSH1 0x1 ADD PUSH2 0x3178 JUMP JUMPDEST POP SWAP1 JUMP JUMPDEST PUSH1 0x0 PUSH1 0x40 MLOAD SWAP1 POP SWAP1 JUMP JUMPDEST PUSH1 0x0 DUP1 REVERT JUMPDEST PUSH1 0x0 DUP1 REVERT JUMPDEST PUSH1 0x0 DUP1 REVERT JUMPDEST PUSH1 0x0 DUP1 REVERT JUMPDEST PUSH1 0x0 PUSH1 0x1F NOT PUSH1 0x1F DUP4 ADD AND SWAP1 POP SWAP2 SWAP1 POP JUMP JUMPDEST PUSH32 0x4E487B7100000000000000000000000000000000000000000000000000000000 PUSH1 0x0 MSTORE PUSH1 0x41 PUSH1 0x4 MSTORE PUSH1 0x24 PUSH1 0x0 REVERT JUMPDEST PUSH2 0x31FB DUP3 PUSH2 0x31B2 JUMP JUMPDEST DUP2 ADD DUP2 DUP2 LT PUSH8 0xFFFFFFFFFFFFFFFF DUP3 GT OR ISZERO PUSH2 0x321A JUMPI PUSH2 0x3219 PUSH2 0x31C3 JUMP JUMPDEST JUMPDEST DUP1 PUSH1 0x40 MSTORE POP POP POP JUMP JUMPDEST PUSH1 0x0 PUSH2 0x322D PUSH2 0x3194 JUMP JUMPDEST SWAP1 POP PUSH2 0x3239 DUP3 DUP3 PUSH2 0x31F2 JUMP JUMPDEST SWAP2 SWAP1 POP JUMP JUMPDEST PUSH1 0x0 PUSH8 0xFFFFFFFFFFFFFFFF DUP3 GT ISZERO PUSH2 0x3259 JUMPI PUSH2 0x3258 PUSH2 0x31C3 JUMP JUMPDEST JUMPDEST PUSH2 0x3262 DUP3 PUSH2 0x31B2 JUMP JUMPDEST SWAP1 POP PUSH1 0x20 DUP2 ADD SWAP1 POP SWAP2 SWAP1 POP JUMP JUMPDEST DUP3 DUP2 DUP4 CALLDATACOPY PUSH1 0x0 DUP4 DUP4 ADD MSTORE POP POP POP JUMP JUMPDEST PUSH1 0x0 PUSH2 0x3291 PUSH2 0x328C DUP5 PUSH2 0x323E JUMP JUMPDEST PUSH2 0x3223 JUMP JUMPDEST SWAP1 POP DUP3 DUP2 MSTORE PUSH1 0x20 DUP2 ADD DUP5 DUP5 DUP5 ADD GT ISZERO PUSH2 0x32AD JUMPI PUSH2 0x32AC PUSH2 0x31AD JUMP JUMPDEST JUMPDEST PUSH2 0x32B8 DUP5 DUP3 DUP6 PUSH2 0x326F JUMP JUMPDEST POP SWAP4 SWAP3 POP POP POP JUMP JUMPDEST PUSH1 0x0 DUP3 PUSH1 0x1F DUP4 ADD SLT PUSH2 0x32D5 JUMPI PUSH2 0x32D4 PUSH2 0x31A8 JUMP JUMPDEST JUMPDEST DUP2 CALLDATALOAD PUSH2 0x32E5 DUP5 DUP3 PUSH1 0x20 DUP7 ADD PUSH2 0x327E JUMP JUMPDEST SWAP2 POP POP SWAP3 SWAP2 POP POP JUMP JUMPDEST PUSH1 0x0 DUP2 SWAP1 POP SWAP2 SWAP1 POP JUMP JUMPDEST PUSH2 0x3301 DUP2 PUSH2 0x32EE JUMP JUMPDEST DUP2 EQ PUSH2 0x330C JUMPI PUSH1 0x0 DUP1 REVERT JUMPDEST POP JUMP JUMPDEST PUSH1 0x0 DUP2 CALLDATALOAD SWAP1 POP PUSH2 0x331E DUP2 PUSH2 0x32F8 JUMP JUMPDEST SWAP3 SWAP2 POP POP JUMP JUMPDEST PUSH1 0x2 DUP2 LT PUSH2 0x3331 JUMPI PUSH1 0x0 DUP1 REVERT JUMPDEST POP JUMP JUMPDEST PUSH1 0x0 DUP2 CALLDATALOAD SWAP1 POP PUSH2 0x3343 DUP2 PUSH2 0x3324 JUMP JUMPDEST SWAP3 SWAP2 POP POP JUMP JUMPDEST PUSH1 0x0 PUSH8 0xFFFFFFFFFFFFFFFF DUP3 GT ISZERO PUSH2 0x3364 JUMPI PUSH2 0x3363 PUSH2 0x31C3 JUMP JUMPDEST JUMPDEST PUSH1 0x20 DUP3 MUL SWAP1 POP PUSH1 0x20 DUP2 ADD SWAP1 POP SWAP2 SWAP1 POP JUMP JUMPDEST PUSH1 0x0 DUP1 REVERT JUMPDEST PUSH1 0x0 PUSH2 0x338D PUSH2 0x3388 DUP5 PUSH2 0x3349 JUMP JUMPDEST PUSH2 0x3223 JUMP JUMPDEST SWAP1 POP DUP1 DUP4 DUP3 MSTORE PUSH1 0x20 DUP3 ADD SWAP1 POP PUSH1 0x20 DUP5 MUL DUP4 ADD DUP6 DUP2 GT ISZERO PUSH2 0x33B0 JUMPI PUSH2 0x33AF PUSH2 0x3375 JUMP JUMPDEST JUMPDEST DUP4 JUMPDEST DUP2 DUP2 LT ISZERO PUSH2 0x33F7 JUMPI DUP1 CALLDATALOAD PUSH8 0xFFFFFFFFFFFFFFFF DUP2 GT ISZERO PUSH2 0x33D5 JUMPI PUSH2 0x33D4 PUSH2 0x31A8 JUMP JUMPDEST JUMPDEST DUP1 DUP7 ADD PUSH2 0x33E2 DUP10 DUP3 PUSH2 0x32C0 JUMP JUMPDEST DUP6 MSTORE PUSH1 0x20 DUP6 ADD SWAP5 POP POP POP PUSH1 0x20 DUP2 ADD SWAP1 POP PUSH2 0x33B2 JUMP JUMPDEST POP POP POP SWAP4 SWAP3 POP POP POP JUMP JUMPDEST PUSH1 0x0 DUP3 PUSH1 0x1F DUP4 ADD SLT PUSH2 0x3416 JUMPI PUSH2 0x3415 PUSH2 0x31A8 JUMP JUMPDEST JUMPDEST DUP2 CALLDATALOAD PUSH2 0x3426 DUP5 DUP3 PUSH1 0x20 DUP7 ADD PUSH2 0x337A JUMP JUMPDEST SWAP2 POP POP SWAP3 SWAP2 POP POP JUMP JUMPDEST PUSH1 0x0 DUP1 PUSH1 0x0 DUP1 PUSH1 0x0 DUP1 PUSH1 0x0 DUP1 PUSH2 0x100 DUP10 DUP12 SUB SLT ISZERO PUSH2 0x3450 JUMPI PUSH2 0x344F PUSH2 0x319E JUMP JUMPDEST JUMPDEST PUSH1 0x0 DUP10 ADD CALLDATALOAD PUSH8 0xFFFFFFFFFFFFFFFF DUP2 GT ISZERO PUSH2 0x346E JUMPI PUSH2 0x346D PUSH2 0x31A3 JUMP JUMPDEST JUMPDEST PUSH2 0x347A DUP12 DUP3 DUP13 ADD PUSH2 0x32C0 JUMP JUMPDEST SWAP9 POP POP PUSH1 0x20 DUP10 ADD CALLDATALOAD PUSH8 0xFFFFFFFFFFFFFFFF DUP2 GT ISZERO PUSH2 0x349B JUMPI PUSH2 0x349A PUSH2 0x31A3 JUMP JUMPDEST JUMPDEST PUSH2 0x34A7 DUP12 DUP3 DUP13 ADD PUSH2 0x32C0 JUMP JUMPDEST SWAP8 POP POP PUSH1 0x40 DUP10 ADD CALLDATALOAD PUSH8 0xFFFFFFFFFFFFFFFF DUP2 GT ISZERO PUSH2 0x34C8 JUMPI PUSH2 0x34C7 PUSH2 0x31A3 JUMP JUMPDEST JUMPDEST PUSH2 0x34D4 DUP12 DUP3 DUP13 ADD PUSH2 0x32C0 JUMP JUMPDEST SWAP7 POP POP PUSH1 0x60 PUSH2 0x34E5 DUP12 DUP3 DUP13 ADD PUSH2 0x330F JUMP JUMPDEST SWAP6 POP POP PUSH1 0x80 PUSH2 0x34F6 DUP12 DUP3 DUP13 ADD PUSH2 0x330F JUMP JUMPDEST SWAP5 POP POP PUSH1 0xA0 PUSH2 0x3507 DUP12 DUP3 DUP13 ADD PUSH2 0x330F JUMP JUMPDEST SWAP4 POP POP PUSH1 0xC0 PUSH2 0x3518 DUP12 DUP3 DUP13 ADD PUSH2 0x3334 JUMP JUMPDEST SWAP3 POP POP PUSH1 0xE0 DUP10 ADD CALLDATALOAD PUSH8 0xFFFFFFFFFFFFFFFF DUP2 GT ISZERO PUSH2 0x3539 JUMPI PUSH2 0x3538 PUSH2 0x31A3 JUMP JUMPDEST JUMPDEST PUSH2 0x3545 DUP12 DUP3 DUP13 ADD PUSH2 0x3401 JUMP JUMPDEST SWAP2 POP POP SWAP3 SWAP6 SWAP9 POP SWAP3 SWAP6 SWAP9 SWAP1 SWAP4 SWAP7 POP JUMP JUMPDEST PUSH1 0x0 PUSH20 0xFFFFFFFFFFFFFFFFFFFFFFFFFFFFFFFFFFFFFFFF DUP3 AND SWAP1 POP SWAP2 SWAP1 POP JUMP JUMPDEST PUSH1 0x0 PUSH2 0x3580 DUP3 PUSH2 0x3555 JUMP JUMPDEST SWAP1 POP SWAP2 SWAP1 POP JUMP JUMPDEST PUSH2 0x3590 DUP2 PUSH2 0x3575 JUMP JUMPDEST DUP2 EQ PUSH2 0x359B JUMPI PUSH1 0x0 DUP1 REVERT JUMPDEST POP JUMP JUMPDEST PUSH1 0x0 DUP2 CALLDATALOAD SWAP1 POP PUSH2 0x35AD DUP2 PUSH2 0x3587 JUMP JUMPDEST SWAP3 SWAP2 POP POP JUMP JUMPDEST PUSH1 0x0 DUP1 PUSH1 0x40 DUP4 DUP6 SUB SLT ISZERO PUSH2 0x35CA JUMPI PUSH2 0x35C9 PUSH2 0x319E JUMP JUMPDEST JUMPDEST PUSH1 0x0 DUP4 ADD CALLDATALOAD PUSH8 0xFFFFFFFFFFFFFFFF DUP2 GT ISZERO PUSH2 0x35E8 JUMPI PUSH2 0x35E7 PUSH2 0x31A3 JUMP JUMPDEST JUMPDEST PUSH2 0x35F4 DUP6 DUP3 DUP7 ADD PUSH2 0x32C0 JUMP JUMPDEST SWAP3 POP POP PUSH1 0x20 PUSH2 0x3605 DUP6 DUP3 DUP7 ADD PUSH2 0x359E JUMP JUMPDEST SWAP2 POP POP SWAP3 POP SWAP3 SWAP1 POP JUMP JUMPDEST PUSH1 0x0 DUP2 SWAP1 POP SWAP2 SWAP1 POP JUMP JUMPDEST PUSH2 0x3622 DUP2 PUSH2 0x360F JUMP JUMPDEST DUP3 MSTORE POP POP JUMP JUMPDEST PUSH1 0x0 PUSH1 0x20 DUP3 ADD SWAP1 POP PUSH2 0x363D PUSH1 0x0 DUP4 ADD DUP5 PUSH2 0x3619 JUMP JUMPDEST SWAP3 SWAP2 POP POP JUMP JUMPDEST PUSH1 0x0 PUSH8 0xFFFFFFFFFFFFFFFF DUP3 GT ISZERO PUSH2 0x365E JUMPI PUSH2 0x365D PUSH2 0x31C3 JUMP JUMPDEST JUMPDEST PUSH1 0x20 DUP3 MUL SWAP1 POP PUSH1 0x20 DUP2 ADD SWAP1 POP SWAP2 SWAP1 POP JUMP JUMPDEST PUSH1 0x0 PUSH2 0x3682 PUSH2 0x367D DUP5 PUSH2 0x3643 JUMP JUMPDEST PUSH2 0x3223 JUMP JUMPDEST SWAP1 POP DUP1 DUP4 DUP3 MSTORE PUSH1 0x20 DUP3 ADD SWAP1 POP PUSH1 0x20 DUP5 MUL DUP4 ADD DUP6 DUP2 GT ISZERO PUSH2 0x36A5 JUMPI PUSH2 0x36A4 PUSH2 0x3375 JUMP JUMPDEST JUMPDEST DUP4 JUMPDEST DUP2 DUP2 LT ISZERO PUSH2 0x36CE JUMPI DUP1 PUSH2 0x36BA DUP9 DUP3 PUSH2 0x359E JUMP JUMPDEST DUP5 MSTORE PUSH1 0x20 DUP5 ADD SWAP4 POP POP PUSH1 0x20 DUP2 ADD SWAP1 POP PUSH2 0x36A7 JUMP JUMPDEST POP POP POP SWAP4 SWAP3 POP POP POP JUMP JUMPDEST PUSH1 0x0 DUP3 PUSH1 0x1F DUP4 ADD SLT PUSH2 0x36ED JUMPI PUSH2 0x36EC PUSH2 0x31A8 JUMP JUMPDEST JUMPDEST DUP2 CALLDATALOAD PUSH2 0x36FD DUP5 DUP3 PUSH1 0x20 DUP7 ADD PUSH2 0x366F JUMP JUMPDEST SWAP2 POP POP SWAP3 SWAP2 POP POP JUMP JUMPDEST PUSH1 0x0 DUP1 PUSH1 0x0 PUSH1 0x60 DUP5 DUP7 SUB SLT ISZERO PUSH2 0x371F JUMPI PUSH2 0x371E PUSH2 0x319E JUMP JUMPDEST JUMPDEST PUSH1 0x0 PUSH2 0x372D DUP7 DUP3 DUP8 ADD PUSH2 0x330F JUMP JUMPDEST SWAP4 POP POP PUSH1 0x20 DUP5 ADD CALLDATALOAD PUSH8 0xFFFFFFFFFFFFFFFF DUP2 GT ISZERO PUSH2 0x374E JUMPI PUSH2 0x374D PUSH2 0x31A3 JUMP JUMPDEST JUMPDEST PUSH2 0x375A DUP7 DUP3 DUP8 ADD PUSH2 0x32C0 JUMP JUMPDEST SWAP3 POP POP PUSH1 0x40 DUP5 ADD CALLDATALOAD PUSH8 0xFFFFFFFFFFFFFFFF DUP2 GT ISZERO PUSH2 0x377B JUMPI PUSH2 0x377A PUSH2 0x31A3 JUMP JUMPDEST JUMPDEST PUSH2 0x3787 DUP7 DUP3 DUP8 ADD PUSH2 0x36D8 JUMP JUMPDEST SWAP2 POP POP SWAP3 POP SWAP3 POP SWAP3 JUMP JUMPDEST PUSH1 0x0 DUP1 PUSH1 0x40 DUP4 DUP6 SUB SLT ISZERO PUSH2 0x37A8 JUMPI PUSH2 0x37A7 PUSH2 0x319E JUMP JUMPDEST JUMPDEST PUSH1 0x0 DUP4 ADD CALLDATALOAD PUSH8 0xFFFFFFFFFFFFFFFF DUP2 GT ISZERO PUSH2 0x37C6 JUMPI PUSH2 0x37C5 PUSH2 0x31A3 JUMP JUMPDEST JUMPDEST PUSH2 0x37D2 DUP6 DUP3 DUP7 ADD PUSH2 0x32C0 JUMP JUMPDEST SWAP3 POP POP PUSH1 0x20 PUSH2 0x37E3 DUP6 DUP3 DUP7 ADD PUSH2 0x330F JUMP JUMPDEST SWAP2 POP POP SWAP3 POP SWAP3 SWAP1 POP JUMP JUMPDEST PUSH1 0x0 DUP1 PUSH1 0x40 DUP4 DUP6 SUB SLT ISZERO PUSH2 0x3804 JUMPI PUSH2 0x3803 PUSH2 0x319E JUMP JUMPDEST JUMPDEST PUSH1 0x0 DUP4 ADD CALLDATALOAD PUSH8 0xFFFFFFFFFFFFFFFF DUP2 GT ISZERO PUSH2 0x3822 JUMPI PUSH2 0x3821 PUSH2 0x31A3 JUMP JUMPDEST JUMPDEST PUSH2 0x382E DUP6 DUP3 DUP7 ADD PUSH2 0x36D8 JUMP JUMPDEST SWAP3 POP POP PUSH1 0x20 PUSH2 0x383F DUP6 DUP3 DUP7 ADD PUSH2 0x359E JUMP JUMPDEST SWAP2 POP POP SWAP3 POP SWAP3 SWAP1 POP JUMP JUMPDEST PUSH1 0x0 DUP2 ISZERO ISZERO SWAP1 POP SWAP2 SWAP1 POP JUMP JUMPDEST PUSH2 0x385E DUP2 PUSH2 0x3849 JUMP JUMPDEST DUP3 MSTORE POP POP JUMP JUMPDEST PUSH1 0x0 PUSH1 0x20 DUP3 ADD SWAP1 POP PUSH2 0x3879 PUSH1 0x0 DUP4 ADD DUP5 PUSH2 0x3855 JUMP JUMPDEST SWAP3 SWAP2 POP POP JUMP JUMPDEST PUSH1 0x0 DUP1 PUSH1 0x0 PUSH1 0x60 DUP5 DUP7 SUB SLT ISZERO PUSH2 0x3898 JUMPI PUSH2 0x3897 PUSH2 0x319E JUMP JUMPDEST JUMPDEST PUSH1 0x0 DUP5 ADD CALLDATALOAD PUSH8 0xFFFFFFFFFFFFFFFF DUP2 GT ISZERO PUSH2 0x38B6 JUMPI PUSH2 0x38B5 PUSH2 0x31A3 JUMP JUMPDEST JUMPDEST PUSH2 0x38C2 DUP7 DUP3 DUP8 ADD PUSH2 0x32C0 JUMP JUMPDEST SWAP4 POP POP PUSH1 0x20 DUP5 ADD CALLDATALOAD PUSH8 0xFFFFFFFFFFFFFFFF DUP2 GT ISZERO PUSH2 0x38E3 JUMPI PUSH2 0x38E2 PUSH2 0x31A3 JUMP JUMPDEST JUMPDEST PUSH2 0x38EF DUP7 DUP3 DUP8 ADD PUSH2 0x32C0 JUMP JUMPDEST SWAP3 POP POP PUSH1 0x40 DUP5 ADD CALLDATALOAD PUSH8 0xFFFFFFFFFFFFFFFF DUP2 GT ISZERO PUSH2 0x3910 JUMPI PUSH2 0x390F PUSH2 0x31A3 JUMP JUMPDEST JUMPDEST PUSH2 0x391C DUP7 DUP3 DUP8 ADD PUSH2 0x32C0 JUMP JUMPDEST SWAP2 POP POP SWAP3 POP SWAP3 POP SWAP3 JUMP JUMPDEST PUSH1 0x0 PUSH8 0xFFFFFFFFFFFFFFFF DUP3 GT ISZERO PUSH2 0x3941 JUMPI PUSH2 0x3940 PUSH2 0x31C3 JUMP JUMPDEST JUMPDEST PUSH1 0x20 DUP3 MUL SWAP1 POP PUSH1 0x20 DUP2 ADD SWAP1 POP SWAP2 SWAP1 POP JUMP JUMPDEST PUSH1 0x0 PUSH2 0x3965 PUSH2 0x3960 DUP5 PUSH2 0x3926 JUMP JUMPDEST PUSH2 0x3223 JUMP JUMPDEST SWAP1 POP DUP1 DUP4 DUP3 MSTORE PUSH1 0x20 DUP3 ADD SWAP1 POP PUSH1 0x20 DUP5 MUL DUP4 ADD DUP6 DUP2 GT ISZERO PUSH2 0x3988 JUMPI PUSH2 0x3987 PUSH2 0x3375 JUMP JUMPDEST JUMPDEST DUP4 JUMPDEST DUP2 DUP2 LT ISZERO PUSH2 0x39B1 JUMPI DUP1 PUSH2 0x399D DUP9 DUP3 PUSH2 0x330F JUMP JUMPDEST DUP5 MSTORE PUSH1 0x20 DUP5 ADD SWAP4 POP POP PUSH1 0x20 DUP2 ADD SWAP1 POP PUSH2 0x398A JUMP JUMPDEST POP POP POP SWAP4 SWAP3 POP POP POP JUMP JUMPDEST PUSH1 0x0 DUP3 PUSH1 0x1F DUP4 ADD SLT PUSH2 0x39D0 JUMPI PUSH2 0x39CF PUSH2 0x31A8 JUMP JUMPDEST JUMPDEST DUP2 CALLDATALOAD PUSH2 0x39E0 DUP5 DUP3 PUSH1 0x20 DUP7 ADD PUSH2 0x3952 JUMP JUMPDEST SWAP2 POP POP SWAP3 SWAP2 POP POP JUMP JUMPDEST PUSH1 0x0 DUP1 PUSH1 0x0 DUP1 PUSH1 0x0 PUSH1 0xA0 DUP7 DUP9 SUB SLT ISZERO PUSH2 0x3A05 JUMPI PUSH2 0x3A04 PUSH2 0x319E JUMP JUMPDEST JUMPDEST PUSH1 0x0 PUSH2 0x3A13 DUP9 DUP3 DUP10 ADD PUSH2 0x330F JUMP JUMPDEST SWAP6 POP POP PUSH1 0x20 DUP7 ADD CALLDATALOAD PUSH8 0xFFFFFFFFFFFFFFFF DUP2 GT ISZERO PUSH2 0x3A34 JUMPI PUSH2 0x3A33 PUSH2 0x31A3 JUMP JUMPDEST JUMPDEST PUSH2 0x3A40 DUP9 DUP3 DUP10 ADD PUSH2 0x39BB JUMP JUMPDEST SWAP5 POP POP PUSH1 0x40 DUP7 ADD CALLDATALOAD PUSH8 0xFFFFFFFFFFFFFFFF DUP2 GT ISZERO PUSH2 0x3A61 JUMPI PUSH2 0x3A60 PUSH2 0x31A3 JUMP JUMPDEST JUMPDEST PUSH2 0x3A6D DUP9 DUP3 DUP10 ADD PUSH2 0x3401 JUMP JUMPDEST SWAP4 POP POP PUSH1 0x60 DUP7 ADD CALLDATALOAD PUSH8 0xFFFFFFFFFFFFFFFF DUP2 GT ISZERO PUSH2 0x3A8E JUMPI PUSH2 0x3A8D PUSH2 0x31A3 JUMP JUMPDEST JUMPDEST PUSH2 0x3A9A DUP9 DUP3 DUP10 ADD PUSH2 0x3401 JUMP JUMPDEST SWAP3 POP POP PUSH1 0x80 DUP7 ADD CALLDATALOAD PUSH8 0xFFFFFFFFFFFFFFFF DUP2 GT ISZERO PUSH2 0x3ABB JUMPI PUSH2 0x3ABA PUSH2 0x31A3 JUMP JUMPDEST JUMPDEST PUSH2 0x3AC7 DUP9 DUP3 DUP10 ADD PUSH2 0x3401 JUMP JUMPDEST SWAP2 POP POP SWAP3 SWAP6 POP SWAP3 SWAP6 SWAP1 SWAP4 POP JUMP JUMPDEST PUSH1 0x0 PUSH1 0x20 DUP3 DUP5 SUB SLT ISZERO PUSH2 0x3AEA JUMPI PUSH2 0x3AE9 PUSH2 0x319E JUMP JUMPDEST JUMPDEST PUSH1 0x0 PUSH2 0x3AF8 DUP5 DUP3 DUP6 ADD PUSH2 0x330F JUMP JUMPDEST SWAP2 POP POP SWAP3 SWAP2 POP POP JUMP JUMPDEST PUSH2 0x3B0A DUP2 PUSH2 0x3849 JUMP JUMPDEST DUP2 EQ PUSH2 0x3B15 JUMPI PUSH1 0x0 DUP1 REVERT JUMPDEST POP JUMP JUMPDEST PUSH1 0x0 DUP2 MLOAD SWAP1 POP PUSH2 0x3B27 DUP2 PUSH2 0x3B01 JUMP JUMPDEST SWAP3 SWAP2 POP POP JUMP JUMPDEST PUSH1 0x0 PUSH1 0x20 DUP3 DUP5 SUB SLT ISZERO PUSH2 0x3B43 JUMPI PUSH2 0x3B42 PUSH2 0x319E JUMP JUMPDEST JUMPDEST PUSH1 0x0 PUSH2 0x3B51 DUP5 DUP3 DUP6 ADD PUSH2 0x3B18 JUMP JUMPDEST SWAP2 POP POP SWAP3 SWAP2 POP POP JUMP JUMPDEST PUSH1 0x0 DUP3 DUP3 MSTORE PUSH1 0x20 DUP3 ADD SWAP1 POP SWAP3 SWAP2 POP POP JUMP JUMPDEST PUSH32 0x72667069645F616C72656164795F74616B656E00000000000000000000000000 PUSH1 0x0 DUP3 ADD MSTORE POP JUMP JUMPDEST PUSH1 0x0 PUSH2 0x3BA1 PUSH1 0x13 DUP4 PUSH2 0x3B5A JUMP JUMPDEST SWAP2 POP PUSH2 0x3BAC DUP3 PUSH2 0x3B6B JUMP JUMPDEST PUSH1 0x20 DUP3 ADD SWAP1 POP SWAP2 SWAP1 POP JUMP JUMPDEST PUSH1 0x0 PUSH1 0x20 DUP3 ADD SWAP1 POP DUP2 DUP2 SUB PUSH1 0x0 DUP4 ADD MSTORE PUSH2 0x3BD0 DUP2 PUSH2 0x3B94 JUMP JUMPDEST SWAP1 POP SWAP2 SWAP1 POP JUMP JUMPDEST PUSH32 0x4E487B7100000000000000000000000000000000000000000000000000000000 PUSH1 0x0 MSTORE PUSH1 0x21 PUSH1 0x4 MSTORE PUSH1 0x24 PUSH1 0x0 REVERT JUMPDEST PUSH1 0x0 DUP2 MLOAD SWAP1 POP PUSH2 0x3C15 DUP2 PUSH2 0x32F8 JUMP JUMPDEST SWAP3 SWAP2 POP POP JUMP JUMPDEST PUSH1 0x0 PUSH1 0x20 DUP3 DUP5 SUB SLT ISZERO PUSH2 0x3C31 JUMPI PUSH2 0x3C30 PUSH2 0x319E JUMP JUMPDEST JUMPDEST PUSH1 0x0 PUSH2 0x3C3F DUP5 DUP3 DUP6 ADD PUSH2 0x3C06 JUMP JUMPDEST SWAP2 POP POP SWAP3 SWAP2 POP POP JUMP JUMPDEST PUSH32 0x496E73756666696369656E745F7061796D656E74000000000000000000000000 PUSH1 0x0 DUP3 ADD MSTORE POP JUMP JUMPDEST PUSH1 0x0 PUSH2 0x3C7E PUSH1 0x14 DUP4 PUSH2 0x3B5A JUMP JUMPDEST SWAP2 POP PUSH2 0x3C89 DUP3 PUSH2 0x3C48 JUMP JUMPDEST PUSH1 0x20 DUP3 ADD SWAP1 POP SWAP2 SWAP1 POP JUMP JUMPDEST PUSH1 0x0 PUSH1 0x20 DUP3 ADD SWAP1 POP DUP2 DUP2 SUB PUSH1 0x0 DUP4 ADD MSTORE PUSH2 0x3CAD DUP2 PUSH2 0x3C71 JUMP JUMPDEST SWAP1 POP SWAP2 SWAP1 POP JUMP JUMPDEST PUSH2 0x3CBD DUP2 PUSH2 0x3575 JUMP JUMPDEST DUP3 MSTORE POP POP JUMP JUMPDEST PUSH1 0x0 PUSH1 0x20 DUP3 ADD SWAP1 POP PUSH2 0x3CD8 PUSH1 0x0 DUP4 ADD DUP5 PUSH2 0x3CB4 JUMP JUMPDEST SWAP3 SWAP2 POP POP JUMP JUMPDEST PUSH1 0x0 DUP1 REVERT JUMPDEST PUSH1 0x0 DUP1 REVERT JUMPDEST PUSH1 0x0 JUMPDEST DUP4 DUP2 LT ISZERO PUSH2 0x3D06 JUMPI DUP1 DUP3 ADD MLOAD DUP2 DUP5 ADD MSTORE PUSH1 0x20 DUP2 ADD SWAP1 POP PUSH2 0x3CEB JUMP JUMPDEST DUP4 DUP2 GT ISZERO PUSH2 0x3D15 JUMPI PUSH1 0x0 DUP5 DUP5 ADD MSTORE JUMPDEST POP POP POP POP JUMP JUMPDEST PUSH1 0x0 PUSH2 0x3D2E PUSH2 0x3D29 DUP5 PUSH2 0x323E JUMP JUMPDEST PUSH2 0x3223 JUMP JUMPDEST SWAP1 POP DUP3 DUP2 MSTORE PUSH1 0x20 DUP2 ADD DUP5 DUP5 DUP5 ADD GT ISZERO PUSH2 0x3D4A JUMPI PUSH2 0x3D49 PUSH2 0x31AD JUMP JUMPDEST JUMPDEST PUSH2 0x3D55 DUP5 DUP3 DUP6 PUSH2 0x3CE8 JUMP JUMPDEST POP SWAP4 SWAP3 POP POP POP JUMP JUMPDEST PUSH1 0x0 DUP3 PUSH1 0x1F DUP4 ADD SLT PUSH2 0x3D72 JUMPI PUSH2 0x3D71 PUSH2 0x31A8 JUMP JUMPDEST JUMPDEST DUP2 MLOAD PUSH2 0x3D82 DUP5 DUP3 PUSH1 0x20 DUP7 ADD PUSH2 0x3D1B JUMP JUMPDEST SWAP2 POP POP SWAP3 SWAP2 POP POP JUMP JUMPDEST PUSH1 0x0 PUSH2 0xFFFF DUP3 AND SWAP1 POP SWAP2 SWAP1 POP JUMP JUMPDEST PUSH2 0x3DA2 DUP2 PUSH2 0x3D8B JUMP JUMPDEST DUP2 EQ PUSH2 0x3DAD JUMPI PUSH1 0x0 DUP1 REVERT JUMPDEST POP JUMP JUMPDEST PUSH1 0x0 DUP2 MLOAD SWAP1 POP PUSH2 0x3DBF DUP2 PUSH2 0x3D99 JUMP JUMPDEST SWAP3 SWAP2 POP POP JUMP JUMPDEST PUSH1 0x0 PUSH2 0x3DD8 PUSH2 0x3DD3 DUP5 PUSH2 0x3926 JUMP JUMPDEST PUSH2 0x3223 JUMP JUMPDEST SWAP1 POP DUP1 DUP4 DUP3 MSTORE PUSH1 0x20 DUP3 ADD SWAP1 POP PUSH1 0x20 DUP5 MUL DUP4 ADD DUP6 DUP2 GT ISZERO PUSH2 0x3DFB JUMPI PUSH2 0x3DFA PUSH2 0x3375 JUMP JUMPDEST JUMPDEST DUP4 JUMPDEST DUP2 DUP2 LT ISZERO PUSH2 0x3E24 JUMPI DUP1 PUSH2 0x3E10 DUP9 DUP3 PUSH2 0x3C06 JUMP JUMPDEST DUP5 MSTORE PUSH1 0x20 DUP5 ADD SWAP4 POP POP PUSH1 0x20 DUP2 ADD SWAP1 POP PUSH2 0x3DFD JUMP JUMPDEST POP POP POP SWAP4 SWAP3 POP POP POP JUMP JUMPDEST PUSH1 0x0 DUP3 PUSH1 0x1F DUP4 ADD SLT PUSH2 0x3E43 JUMPI PUSH2 0x3E42 PUSH2 0x31A8 JUMP JUMPDEST JUMPDEST DUP2 MLOAD PUSH2 0x3E53 DUP5 DUP3 PUSH1 0x20 DUP7 ADD PUSH2 0x3DC5 JUMP JUMPDEST SWAP2 POP POP SWAP3 SWAP2 POP POP JUMP JUMPDEST PUSH1 0x0 PUSH1 0xC0 DUP3 DUP5 SUB SLT ISZERO PUSH2 0x3E72 JUMPI PUSH2 0x3E71 PUSH2 0x3CDE JUMP JUMPDEST JUMPDEST PUSH2 0x3E7C PUSH1 0xC0 PUSH2 0x3223 JUMP JUMPDEST SWAP1 POP PUSH1 0x0 DUP3 ADD MLOAD PUSH8 0xFFFFFFFFFFFFFFFF DUP2 GT ISZERO PUSH2 0x3E9C JUMPI PUSH2 0x3E9B PUSH2 0x3CE3 JUMP JUMPDEST JUMPDEST PUSH2 0x3EA8 DUP5 DUP3 DUP6 ADD PUSH2 0x3D5D JUMP JUMPDEST PUSH1 0x0 DUP4 ADD MSTORE POP PUSH1 0x20 DUP3 ADD MLOAD PUSH8 0xFFFFFFFFFFFFFFFF DUP2 GT ISZERO PUSH2 0x3ECC JUMPI PUSH2 0x3ECB PUSH2 0x3CE3 JUMP JUMPDEST JUMPDEST PUSH2 0x3ED8 DUP5 DUP3 DUP6 ADD PUSH2 0x3D5D JUMP JUMPDEST PUSH1 0x20 DUP4 ADD MSTORE POP PUSH1 0x40 DUP3 ADD MLOAD PUSH8 0xFFFFFFFFFFFFFFFF DUP2 GT ISZERO PUSH2 0x3EFC JUMPI PUSH2 0x3EFB PUSH2 0x3CE3 JUMP JUMPDEST JUMPDEST PUSH2 0x3F08 DUP5 DUP3 DUP6 ADD PUSH2 0x3D5D JUMP JUMPDEST PUSH1 0x40 DUP4 ADD MSTORE POP PUSH1 0x60 PUSH2 0x3F1C DUP5 DUP3 DUP6 ADD PUSH2 0x3DB0 JUMP JUMPDEST PUSH1 0x60 DUP4 ADD MSTORE POP PUSH1 0x80 DUP3 ADD MLOAD PUSH8 0xFFFFFFFFFFFFFFFF DUP2 GT ISZERO PUSH2 0x3F40 JUMPI PUSH2 0x3F3F PUSH2 0x3CE3 JUMP JUMPDEST JUMPDEST PUSH2 0x3F4C DUP5 DUP3 DUP6 ADD PUSH2 0x3E2E JUMP JUMPDEST PUSH1 0x80 DUP4 ADD MSTORE POP PUSH1 0xA0 DUP3 ADD MLOAD PUSH8 0xFFFFFFFFFFFFFFFF DUP2 GT ISZERO PUSH2 0x3F70 JUMPI PUSH2 0x3F6F PUSH2 0x3CE3 JUMP JUMPDEST JUMPDEST PUSH2 0x3F7C DUP5 DUP3 DUP6 ADD PUSH2 0x3E2E JUMP JUMPDEST PUSH1 0xA0 DUP4 ADD MSTORE POP SWAP3 SWAP2 POP POP JUMP JUMPDEST PUSH1 0x0 PUSH1 0x20 DUP3 DUP5 SUB SLT ISZERO PUSH2 0x3F9E JUMPI PUSH2 0x3F9D PUSH2 0x319E JUMP JUMPDEST JUMPDEST PUSH1 0x0 DUP3 ADD MLOAD PUSH8 0xFFFFFFFFFFFFFFFF DUP2 GT ISZERO PUSH2 0x3FBC JUMPI PUSH2 0x3FBB PUSH2 0x31A3 JUMP JUMPDEST JUMPDEST PUSH2 0x3FC8 DUP5 DUP3 DUP6 ADD PUSH2 0x3E5C JUMP JUMPDEST SWAP2 POP POP SWAP3 SWAP2 POP POP JUMP JUMPDEST PUSH32 0x616464726573735F6E6F745F61646D696E000000000000000000000000000000 PUSH1 0x0 DUP3 ADD MSTORE POP JUMP JUMPDEST PUSH1 0x0 PUSH2 0x4007 PUSH1 0x11 DUP4 PUSH2 0x3B5A JUMP JUMPDEST SWAP2 POP PUSH2 0x4012 DUP3 PUSH2 0x3FD1 JUMP JUMPDEST PUSH1 0x20 DUP3 ADD SWAP1 POP SWAP2 SWAP1 POP JUMP JUMPDEST PUSH1 0x0 PUSH1 0x20 DUP3 ADD SWAP1 POP DUP2 DUP2 SUB PUSH1 0x0 DUP4 ADD MSTORE PUSH2 0x4036 DUP2 PUSH2 0x3FFA JUMP JUMPDEST SWAP1 POP SWAP2 SWAP1 POP JUMP JUMPDEST PUSH32 0x4E487B7100000000000000000000000000000000000000000000000000000000 PUSH1 0x0 MSTORE PUSH1 0x11 PUSH1 0x4 MSTORE PUSH1 0x24 PUSH1 0x0 REVERT JUMPDEST PUSH1 0x0 PUSH2 0x4077 DUP3 PUSH2 0x32EE JUMP JUMPDEST SWAP2 POP PUSH2 0x4082 DUP4 PUSH2 0x32EE JUMP JUMPDEST SWAP3 POP DUP3 DUP3 LT ISZERO PUSH2 0x4095 JUMPI PUSH2 0x4094 PUSH2 0x403D JUMP JUMPDEST JUMPDEST DUP3 DUP3 SUB SWAP1 POP SWAP3 SWAP2 POP POP JUMP JUMPDEST PUSH32 0x6F70656E646174655F626568696E645F746F6461790000000000000000000000 PUSH1 0x0 DUP3 ADD MSTORE POP JUMP JUMPDEST PUSH1 0x0 PUSH2 0x40D6 PUSH1 0x15 DUP4 PUSH2 0x3B5A JUMP JUMPDEST SWAP2 POP PUSH2 0x40E1 DUP3 PUSH2 0x40A0 JUMP JUMPDEST PUSH1 0x20 DUP3 ADD SWAP1 POP SWAP2 SWAP1 POP JUMP JUMPDEST PUSH1 0x0 PUSH1 0x20 DUP3 ADD SWAP1 POP DUP2 DUP2 SUB PUSH1 0x0 DUP4 ADD MSTORE PUSH2 0x4105 DUP2 PUSH2 0x40C9 JUMP JUMPDEST SWAP1 POP SWAP2 SWAP1 POP JUMP JUMPDEST PUSH32 0x696E697469616C5F646174655F77726F6E670000000000000000000000000000 PUSH1 0x0 DUP3 ADD MSTORE POP JUMP JUMPDEST PUSH1 0x0 PUSH2 0x4142 PUSH1 0x12 DUP4 PUSH2 0x3B5A JUMP JUMPDEST SWAP2 POP PUSH2 0x414D DUP3 PUSH2 0x410C JUMP JUMPDEST PUSH1 0x20 DUP3 ADD SWAP1 POP SWAP2 SWAP1 POP JUMP JUMPDEST PUSH1 0x0 PUSH1 0x20 DUP3 ADD SWAP1 POP DUP2 DUP2 SUB PUSH1 0x0 DUP4 ADD MSTORE PUSH2 0x4171 DUP2 PUSH2 0x4135 JUMP JUMPDEST SWAP1 POP SWAP2 SWAP1 POP JUMP JUMPDEST PUSH32 0x726563656976696E675F646174655F77726F6E67000000000000000000000000 PUSH1 0x0 DUP3 ADD MSTORE POP JUMP JUMPDEST PUSH1 0x0 PUSH2 0x41AE PUSH1 0x14 DUP4 PUSH2 0x3B5A JUMP JUMPDEST SWAP2 POP PUSH2 0x41B9 DUP3 PUSH2 0x4178 JUMP JUMPDEST PUSH1 0x20 DUP3 ADD SWAP1 POP SWAP2 SWAP1 POP JUMP JUMPDEST PUSH1 0x0 PUSH1 0x20 DUP3 ADD SWAP1 POP DUP2 DUP2 SUB PUSH1 0x0 DUP4 ADD MSTORE PUSH2 0x41DD DUP2 PUSH2 0x41A1 JUMP JUMPDEST SWAP1 POP SWAP2 SWAP1 POP JUMP JUMPDEST PUSH2 0x41ED DUP2 PUSH2 0x32EE JUMP JUMPDEST DUP3 MSTORE POP POP JUMP JUMPDEST PUSH1 0x0 DUP2 MLOAD SWAP1 POP SWAP2 SWAP1 POP JUMP JUMPDEST PUSH1 0x0 DUP3 DUP3 MSTORE PUSH1 0x20 DUP3 ADD SWAP1 POP SWAP3 SWAP2 POP POP JUMP JUMPDEST PUSH1 0x0 PUSH2 0x421A DUP3 PUSH2 0x41F3 JUMP JUMPDEST PUSH2 0x4224 DUP2 DUP6 PUSH2 0x41FE JUMP JUMPDEST SWAP4 POP PUSH2 0x4234 DUP2 DUP6 PUSH1 0x20 DUP7 ADD PUSH2 0x3CE8 JUMP JUMPDEST PUSH2 0x423D DUP2 PUSH2 0x31B2 JUMP JUMPDEST DUP5 ADD SWAP2 POP POP SWAP3 SWAP2 POP POP JUMP JUMPDEST PUSH2 0x4251 DUP2 PUSH2 0x32EE JUMP JUMPDEST DUP3 MSTORE POP POP JUMP JUMPDEST PUSH2 0x4260 DUP2 PUSH2 0x3849 JUMP JUMPDEST DUP3 MSTORE POP POP JUMP JUMPDEST PUSH1 0x0 DUP2 MLOAD SWAP1 POP SWAP2 SWAP1 POP JUMP JUMPDEST PUSH1 0x0 DUP3 DUP3 MSTORE PUSH1 0x20 DUP3 ADD SWAP1 POP SWAP3 SWAP2 POP POP JUMP JUMPDEST PUSH1 0x0 DUP2 SWAP1 POP PUSH1 0x20 DUP3 ADD SWAP1 POP SWAP2 SWAP1 POP JUMP JUMPDEST PUSH2 0x429B DUP2 PUSH2 0x3575 JUMP JUMPDEST DUP3 MSTORE POP POP JUMP JUMPDEST PUSH1 0x0 PUSH2 0x42AD DUP4 DUP4 PUSH2 0x4292 JUMP JUMPDEST PUSH1 0x20 DUP4 ADD SWAP1 POP SWAP3 SWAP2 POP POP JUMP JUMPDEST PUSH1 0x0 PUSH1 0x20 DUP3 ADD SWAP1 POP SWAP2 SWAP1 POP JUMP JUMPDEST PUSH1 0x0 PUSH2 0x42D1 DUP3 PUSH2 0x4266 JUMP JUMPDEST PUSH2 0x42DB DUP2 DUP6 PUSH2 0x4271 JUMP JUMPDEST SWAP4 POP PUSH2 0x42E6 DUP4 PUSH2 0x4282 JUMP JUMPDEST DUP1 PUSH1 0x0 JUMPDEST DUP4 DUP2 LT ISZERO PUSH2 0x4317 JUMPI DUP2 MLOAD PUSH2 0x42FE DUP9 DUP3 PUSH2 0x42A1 JUMP JUMPDEST SWAP8 POP PUSH2 0x4309 DUP4 PUSH2 0x42B9 JUMP JUMPDEST SWAP3 POP POP PUSH1 0x1 DUP2 ADD SWAP1 POP PUSH2 0x42EA JUMP JUMPDEST POP DUP6 SWAP4 POP POP POP POP SWAP3 SWAP2 POP POP JUMP JUMPDEST PUSH1 0x2 DUP2 LT PUSH2 0x4335 JUMPI PUSH2 0x4334 PUSH2 0x3BD7 JUMP JUMPDEST JUMPDEST POP JUMP JUMPDEST PUSH1 0x0 DUP2 SWAP1 POP PUSH2 0x4346 DUP3 PUSH2 0x4324 JUMP JUMPDEST SWAP2 SWAP1 POP JUMP JUMPDEST PUSH1 0x0 PUSH2 0x4356 DUP3 PUSH2 0x4338 JUMP JUMPDEST SWAP1 POP SWAP2 SWAP1 POP JUMP JUMPDEST PUSH2 0x4366 DUP2 PUSH2 0x434B JUMP JUMPDEST DUP3 MSTORE POP POP JUMP JUMPDEST PUSH1 0x0 DUP2 MLOAD SWAP1 POP SWAP2 SWAP1 POP JUMP JUMPDEST PUSH1 0x0 DUP3 DUP3 MSTORE PUSH1 0x20 DUP3 ADD SWAP1 POP SWAP3 SWAP2 POP POP JUMP JUMPDEST PUSH1 0x0 DUP2 SWAP1 POP PUSH1 0x20 DUP3 ADD SWAP1 POP SWAP2 SWAP1 POP JUMP JUMPDEST PUSH1 0x0 PUSH2 0x43A4 DUP4 DUP4 PUSH2 0x420F JUMP JUMPDEST SWAP1 POP SWAP3 SWAP2 POP POP JUMP JUMPDEST PUSH1 0x0 PUSH1 0x20 DUP3 ADD SWAP1 POP SWAP2 SWAP1 POP JUMP JUMPDEST PUSH1 0x0 PUSH2 0x43C4 DUP3 PUSH2 0x436C JUMP JUMPDEST PUSH2 0x43CE DUP2 DUP6 PUSH2 0x4377 JUMP JUMPDEST SWAP4 POP DUP4 PUSH1 0x20 DUP3 MUL DUP6 ADD PUSH2 0x43E0 DUP6 PUSH2 0x4388 JUMP JUMPDEST DUP1 PUSH1 0x0 JUMPDEST DUP6 DUP2 LT ISZERO PUSH2 0x441C JUMPI DUP5 DUP5 SUB DUP10 MSTORE DUP2 MLOAD PUSH2 0x43FD DUP6 DUP3 PUSH2 0x4398 JUMP JUMPDEST SWAP5 POP PUSH2 0x4408 DUP4 PUSH2 0x43AC JUMP JUMPDEST SWAP3 POP PUSH1 0x20 DUP11 ADD SWAP10 POP POP PUSH1 0x1 DUP2 ADD SWAP1 POP PUSH2 0x43E4 JUMP JUMPDEST POP DUP3 SWAP8 POP DUP8 SWAP6 POP POP POP POP POP POP SWAP3 SWAP2 POP POP JUMP JUMPDEST PUSH1 0x0 PUSH2 0x1C0 DUP4 ADD PUSH1 0x0 DUP4 ADD MLOAD DUP5 DUP3 SUB PUSH1 0x0 DUP7 ADD MSTORE PUSH2 0x444C DUP3 DUP3 PUSH2 0x420F JUMP JUMPDEST SWAP2 POP POP PUSH1 0x20 DUP4 ADD MLOAD DUP5 DUP3 SUB PUSH1 0x20 DUP7 ADD MSTORE PUSH2 0x4466 DUP3 DUP3 PUSH2 0x420F JUMP JUMPDEST SWAP2 POP POP PUSH1 0x40 DUP4 ADD MLOAD PUSH2 0x447B PUSH1 0x40 DUP7 ADD DUP3 PUSH2 0x4248 JUMP JUMPDEST POP PUSH1 0x60 DUP4 ADD MLOAD DUP5 DUP3 SUB PUSH1 0x60 DUP7 ADD MSTORE PUSH2 0x4493 DUP3 DUP3 PUSH2 0x420F JUMP JUMPDEST SWAP2 POP POP PUSH1 0x80 DUP4 ADD MLOAD PUSH2 0x44A8 PUSH1 0x80 DUP7 ADD DUP3 PUSH2 0x4248 JUMP JUMPDEST POP PUSH1 0xA0 DUP4 ADD MLOAD PUSH2 0x44BB PUSH1 0xA0 DUP7 ADD DUP3 PUSH2 0x4248 JUMP JUMPDEST POP PUSH1 0xC0 DUP4 ADD MLOAD PUSH2 0x44CE PUSH1 0xC0 DUP7 ADD DUP3 PUSH2 0x4248 JUMP JUMPDEST POP PUSH1 0xE0 DUP4 ADD MLOAD PUSH2 0x44E1 PUSH1 0xE0 DUP7 ADD DUP3 PUSH2 0x4257 JUMP JUMPDEST POP PUSH2 0x100 DUP4 ADD MLOAD PUSH2 0x44F6 PUSH2 0x100 DUP7 ADD DUP3 PUSH2 0x4248 JUMP JUMPDEST POP PUSH2 0x120 DUP4 ADD MLOAD DUP5 DUP3 SUB PUSH2 0x120 DUP7 ADD MSTORE PUSH2 0x4510 DUP3 DUP3 PUSH2 0x42C6 JUMP JUMPDEST SWAP2 POP POP PUSH2 0x140 DUP4 ADD MLOAD PUSH2 0x4527 PUSH2 0x140 DUP7 ADD DUP3 PUSH2 0x435D JUMP JUMPDEST POP PUSH2 0x160 DUP4 ADD MLOAD DUP5 DUP3 SUB PUSH2 0x160 DUP7 ADD MSTORE PUSH2 0x4541 DUP3 DUP3 PUSH2 0x43B9 JUMP JUMPDEST SWAP2 POP POP PUSH2 0x180 DUP4 ADD MLOAD DUP5 DUP3 SUB PUSH2 0x180 DUP7 ADD MSTORE PUSH2 0x455D DUP3 DUP3 PUSH2 0x42C6 JUMP JUMPDEST SWAP2 POP POP PUSH2 0x1A0 DUP4 ADD MLOAD PUSH2 0x4574 PUSH2 0x1A0 DUP7 ADD DUP3 PUSH2 0x4292 JUMP JUMPDEST POP DUP1 SWAP2 POP POP SWAP3 SWAP2 POP POP JUMP JUMPDEST PUSH1 0x0 PUSH1 0x40 DUP3 ADD SWAP1 POP PUSH2 0x4594 PUSH1 0x0 DUP4 ADD DUP6 PUSH2 0x41E4 JUMP JUMPDEST DUP2 DUP2 SUB PUSH1 0x20 DUP4 ADD MSTORE PUSH2 0x45A6 DUP2 DUP5 PUSH2 0x442E JUMP JUMPDEST SWAP1 POP SWAP4 SWAP3 POP POP POP JUMP JUMPDEST PUSH1 0x0 PUSH1 0x40 DUP3 ADD SWAP1 POP PUSH2 0x45C4 PUSH1 0x0 DUP4 ADD DUP6 PUSH2 0x3CB4 JUMP JUMPDEST PUSH2 0x45D1 PUSH1 0x20 DUP4 ADD DUP5 PUSH2 0x41E4 JUMP JUMPDEST SWAP4 SWAP3 POP POP POP JUMP JUMPDEST PUSH1 0x0 PUSH2 0x45E3 DUP3 PUSH2 0x41F3 JUMP JUMPDEST PUSH2 0x45ED DUP2 DUP6 PUSH2 0x3B5A JUMP JUMPDEST SWAP4 POP PUSH2 0x45FD DUP2 DUP6 PUSH1 0x20 DUP7 ADD PUSH2 0x3CE8 JUMP JUMPDEST PUSH2 0x4606 DUP2 PUSH2 0x31B2 JUMP JUMPDEST DUP5 ADD SWAP2 POP POP SWAP3 SWAP2 POP POP JUMP JUMPDEST PUSH1 0x0 PUSH1 0x40 DUP3 ADD SWAP1 POP PUSH2 0x4626 PUSH1 0x0 DUP4 ADD DUP6 PUSH2 0x41E4 JUMP JUMPDEST DUP2 DUP2 SUB PUSH1 0x20 DUP4 ADD MSTORE PUSH2 0x4638 DUP2 DUP5 PUSH2 0x45D8 JUMP JUMPDEST SWAP1 POP SWAP4 SWAP3 POP POP POP JUMP JUMPDEST PUSH1 0x0 DUP2 SWAP1 POP SWAP2 SWAP1 POP JUMP JUMPDEST PUSH2 0x465C PUSH2 0x4657 DUP3 PUSH2 0x360F JUMP JUMPDEST PUSH2 0x4641 JUMP JUMPDEST DUP3 MSTORE POP POP JUMP JUMPDEST PUSH1 0x0 DUP2 PUSH1 0x60 SHL SWAP1 POP SWAP2 SWAP1 POP JUMP JUMPDEST PUSH1 0x0 PUSH2 0x467A DUP3 PUSH2 0x4662 JUMP JUMPDEST SWAP1 POP SWAP2 SWAP1 POP JUMP JUMPDEST PUSH1 0x0 PUSH2 0x468C DUP3 PUSH2 0x466F JUMP JUMPDEST SWAP1 POP SWAP2 SWAP1 POP JUMP JUMPDEST PUSH2 0x46A4 PUSH2 0x469F DUP3 PUSH2 0x3575 JUMP JUMPDEST PUSH2 0x4681 JUMP JUMPDEST DUP3 MSTORE POP POP JUMP JUMPDEST PUSH1 0x0 PUSH2 0x46B6 DUP3 DUP6 PUSH2 0x464B JUMP JUMPDEST PUSH1 0x20 DUP3 ADD SWAP2 POP PUSH2 0x46C6 DUP3 DUP5 PUSH2 0x4693 JUMP JUMPDEST PUSH1 0x14 DUP3 ADD SWAP2 POP DUP2 SWAP1 POP SWAP4 SWAP3 POP POP POP JUMP JUMPDEST PUSH32 0x4F6E6C795F6F776E65725F616C6C6F7765640000000000000000000000000000 PUSH1 0x0 DUP3 ADD MSTORE POP JUMP JUMPDEST PUSH1 0x0 PUSH2 0x470C PUSH1 0x12 DUP4 PUSH2 0x3B5A JUMP JUMPDEST SWAP2 POP PUSH2 0x4717 DUP3 PUSH2 0x46D6 JUMP JUMPDEST PUSH1 0x20 DUP3 ADD SWAP1 POP SWAP2 SWAP1 POP JUMP JUMPDEST PUSH1 0x0 PUSH1 0x20 DUP3 ADD SWAP1 POP DUP2 DUP2 SUB PUSH1 0x0 DUP4 ADD MSTORE PUSH2 0x473B DUP2 PUSH2 0x46FF JUMP JUMPDEST SWAP1 POP SWAP2 SWAP1 POP JUMP JUMPDEST PUSH1 0x0 DUP2 SWAP1 POP SWAP3 SWAP2 POP POP JUMP JUMPDEST POP JUMP JUMPDEST PUSH1 0x0 PUSH2 0x475D PUSH1 0x0 DUP4 PUSH2 0x4742 JUMP JUMPDEST SWAP2 POP PUSH2 0x4768 DUP3 PUSH2 0x474D JUMP JUMPDEST PUSH1 0x0 DUP3 ADD SWAP1 POP SWAP2 SWAP1 POP JUMP JUMPDEST PUSH1 0x0 PUSH2 0x477E DUP3 PUSH2 0x4750 JUMP JUMPDEST SWAP2 POP DUP2 SWAP1 POP SWAP2 SWAP1 POP JUMP JUMPDEST PUSH32 0x6661696C65645F77697468647261770000000000000000000000000000000000 PUSH1 0x0 DUP3 ADD MSTORE POP JUMP JUMPDEST PUSH1 0x0 PUSH2 0x47BE PUSH1 0xF DUP4 PUSH2 0x3B5A JUMP JUMPDEST SWAP2 POP PUSH2 0x47C9 DUP3 PUSH2 0x4788 JUMP JUMPDEST PUSH1 0x20 DUP3 ADD SWAP1 POP SWAP2 SWAP1 POP JUMP JUMPDEST PUSH1 0x0 PUSH1 0x20 DUP3 ADD SWAP1 POP DUP2 DUP2 SUB PUSH1 0x0 DUP4 ADD MSTORE PUSH2 0x47ED DUP2 PUSH2 0x47B1 JUMP JUMPDEST SWAP1 POP SWAP2 SWAP1 POP JUMP JUMPDEST PUSH1 0x0 PUSH1 0x20 DUP3 DUP5 SUB SLT ISZERO PUSH2 0x480A JUMPI PUSH2 0x4809 PUSH2 0x319E JUMP JUMPDEST JUMPDEST PUSH1 0x0 DUP3 ADD MLOAD PUSH8 0xFFFFFFFFFFFFFFFF DUP2 GT ISZERO PUSH2 0x4828 JUMPI PUSH2 0x4827 PUSH2 0x31A3 JUMP JUMPDEST JUMPDEST PUSH2 0x4834 DUP5 DUP3 DUP6 ADD PUSH2 0x3D5D JUMP JUMPDEST SWAP2 POP POP SWAP3 SWAP2 POP POP JUMP JUMPDEST PUSH32 0x4F6E6C795F61646D696E5F63616E5F706572666F726D00000000000000000000 PUSH1 0x0 DUP3 ADD MSTORE POP JUMP JUMPDEST PUSH1 0x0 PUSH2 0x4873 PUSH1 0x16 DUP4 PUSH2 0x3B5A JUMP JUMPDEST SWAP2 POP PUSH2 0x487E DUP3 PUSH2 0x483D JUMP JUMPDEST PUSH1 0x20 DUP3 ADD SWAP1 POP SWAP2 SWAP1 POP JUMP JUMPDEST PUSH1 0x0 PUSH1 0x20 DUP3 ADD SWAP1 POP DUP2 DUP2 SUB PUSH1 0x0 DUP4 ADD MSTORE PUSH2 0x48A2 DUP2 PUSH2 0x4866 JUMP JUMPDEST SWAP1 POP SWAP2 SWAP1 POP JUMP JUMPDEST PUSH1 0x0 PUSH1 0x20 DUP3 ADD SWAP1 POP PUSH2 0x48BE PUSH1 0x0 DUP4 ADD DUP5 PUSH2 0x41E4 JUMP JUMPDEST SWAP3 SWAP2 POP POP JUMP JUMPDEST PUSH1 0x0 DUP2 MLOAD SWAP1 POP PUSH2 0x48D3 DUP2 PUSH2 0x3587 JUMP JUMPDEST SWAP3 SWAP2 POP POP JUMP JUMPDEST PUSH1 0x0 PUSH1 0x20 DUP3 DUP5 SUB SLT ISZERO PUSH2 0x48EF JUMPI PUSH2 0x48EE PUSH2 0x319E JUMP JUMPDEST JUMPDEST PUSH1 0x0 PUSH2 0x48FD DUP5 DUP3 DUP6 ADD PUSH2 0x48C4 JUMP JUMPDEST SWAP2 POP POP SWAP3 SWAP2 POP POP JUMP JUMPDEST PUSH32 0x4F6E6C795F6973737565725F63616E5F706572666F726D000000000000000000 PUSH1 0x0 DUP3 ADD MSTORE POP JUMP JUMPDEST PUSH1 0x0 PUSH2 0x493C PUSH1 0x17 DUP4 PUSH2 0x3B5A JUMP JUMPDEST SWAP2 POP PUSH2 0x4947 DUP3 PUSH2 0x4906 JUMP JUMPDEST PUSH1 0x20 DUP3 ADD SWAP1 POP SWAP2 SWAP1 POP JUMP JUMPDEST PUSH1 0x0 PUSH1 0x20 DUP3 ADD SWAP1 POP DUP2 DUP2 SUB PUSH1 0x0 DUP4 ADD MSTORE PUSH2 0x496B DUP2 PUSH2 0x492F JUMP JUMPDEST SWAP1 POP SWAP2 SWAP1 POP JUMP JUMPDEST PUSH32 0x616C72656164795F63616E63656C656400000000000000000000000000000000 PUSH1 0x0 DUP3 ADD MSTORE POP JUMP JUMPDEST PUSH1 0x0 PUSH2 0x49A8 PUSH1 0x10 DUP4 PUSH2 0x3B5A JUMP JUMPDEST SWAP2 POP PUSH2 0x49B3 DUP3 PUSH2 0x4972 JUMP JUMPDEST PUSH1 0x20 DUP3 ADD SWAP1 POP SWAP2 SWAP1 POP JUMP JUMPDEST PUSH1 0x0 PUSH1 0x20 DUP3 ADD SWAP1 POP DUP2 DUP2 SUB PUSH1 0x0 DUP4 ADD MSTORE PUSH2 0x49D7 DUP2 PUSH2 0x499B JUMP JUMPDEST SWAP1 POP SWAP2 SWAP1 POP JUMP JUMPDEST PUSH1 0x0 PUSH2 0x49F1 PUSH2 0x49EC DUP5 PUSH2 0x3643 JUMP JUMPDEST PUSH2 0x3223 JUMP JUMPDEST SWAP1 POP DUP1 DUP4 DUP3 MSTORE PUSH1 0x20 DUP3 ADD SWAP1 POP PUSH1 0x20 DUP5 MUL DUP4 ADD DUP6 DUP2 GT ISZERO PUSH2 0x4A14 JUMPI PUSH2 0x4A13 PUSH2 0x3375 JUMP JUMPDEST JUMPDEST DUP4 JUMPDEST DUP2 DUP2 LT ISZERO PUSH2 0x4A3D JUMPI DUP1 PUSH2 0x4A29 DUP9 DUP3 PUSH2 0x48C4 JUMP JUMPDEST DUP5 MSTORE PUSH1 0x20 DUP5 ADD SWAP4 POP POP PUSH1 0x20 DUP2 ADD SWAP1 POP PUSH2 0x4A16 JUMP JUMPDEST POP POP POP SWAP4 SWAP3 POP POP POP JUMP JUMPDEST PUSH1 0x0 DUP3 PUSH1 0x1F DUP4 ADD SLT PUSH2 0x4A5C JUMPI PUSH2 0x4A5B PUSH2 0x31A8 JUMP JUMPDEST JUMPDEST DUP2 MLOAD PUSH2 0x4A6C DUP5 DUP3 PUSH1 0x20 DUP7 ADD PUSH2 0x49DE JUMP JUMPDEST SWAP2 POP POP SWAP3 SWAP2 POP POP JUMP JUMPDEST PUSH1 0x0 DUP2 MLOAD SWAP1 POP PUSH2 0x4A84 DUP2 PUSH2 0x3324 JUMP JUMPDEST SWAP3 SWAP2 POP POP JUMP JUMPDEST PUSH1 0x0 PUSH2 0x4A9D PUSH2 0x4A98 DUP5 PUSH2 0x3349 JUMP JUMPDEST PUSH2 0x3223 JUMP JUMPDEST SWAP1 POP DUP1 DUP4 DUP3 MSTORE PUSH1 0x20 DUP3 ADD SWAP1 POP PUSH1 0x20 DUP5 MUL DUP4 ADD DUP6 DUP2 GT ISZERO PUSH2 0x4AC0 JUMPI PUSH2 0x4ABF PUSH2 0x3375 JUMP JUMPDEST JUMPDEST DUP4 JUMPDEST DUP2 DUP2 LT ISZERO PUSH2 0x4B07 JUMPI DUP1 MLOAD PUSH8 0xFFFFFFFFFFFFFFFF DUP2 GT ISZERO PUSH2 0x4AE5 JUMPI PUSH2 0x4AE4 PUSH2 0x31A8 JUMP JUMPDEST JUMPDEST DUP1 DUP7 ADD PUSH2 0x4AF2 DUP10 DUP3 PUSH2 0x3D5D JUMP JUMPDEST DUP6 MSTORE PUSH1 0x20 DUP6 ADD SWAP5 POP POP POP PUSH1 0x20 DUP2 ADD SWAP1 POP PUSH2 0x4AC2 JUMP JUMPDEST POP POP POP SWAP4 SWAP3 POP POP POP JUMP JUMPDEST PUSH1 0x0 DUP3 PUSH1 0x1F DUP4 ADD SLT PUSH2 0x4B26 JUMPI PUSH2 0x4B25 PUSH2 0x31A8 JUMP JUMPDEST JUMPDEST DUP2 MLOAD PUSH2 0x4B36 DUP5 DUP3 PUSH1 0x20 DUP7 ADD PUSH2 0x4A8A JUMP JUMPDEST SWAP2 POP POP SWAP3 SWAP2 POP POP JUMP JUMPDEST PUSH1 0x0 PUSH2 0x1C0 DUP3 DUP5 SUB SLT ISZERO PUSH2 0x4B56 JUMPI PUSH2 0x4B55 PUSH2 0x3CDE JUMP JUMPDEST JUMPDEST PUSH2 0x4B61 PUSH2 0x1C0 PUSH2 0x3223 JUMP JUMPDEST SWAP1 POP PUSH1 0x0 DUP3 ADD MLOAD PUSH8 0xFFFFFFFFFFFFFFFF DUP2 GT ISZERO PUSH2 0x4B81 JUMPI PUSH2 0x4B80 PUSH2 0x3CE3 JUMP JUMPDEST JUMPDEST PUSH2 0x4B8D DUP5 DUP3 DUP6 ADD PUSH2 0x3D5D JUMP JUMPDEST PUSH1 0x0 DUP4 ADD MSTORE POP PUSH1 0x20 DUP3 ADD MLOAD PUSH8 0xFFFFFFFFFFFFFFFF DUP2 GT ISZERO PUSH2 0x4BB1 JUMPI PUSH2 0x4BB0 PUSH2 0x3CE3 JUMP JUMPDEST JUMPDEST PUSH2 0x4BBD DUP5 DUP3 DUP6 ADD PUSH2 0x3D5D JUMP JUMPDEST PUSH1 0x20 DUP4 ADD MSTORE POP PUSH1 0x40 PUSH2 0x4BD1 DUP5 DUP3 DUP6 ADD PUSH2 0x3C06 JUMP JUMPDEST PUSH1 0x40 DUP4 ADD MSTORE POP PUSH1 0x60 DUP3 ADD MLOAD PUSH8 0xFFFFFFFFFFFFFFFF DUP2 GT ISZERO PUSH2 0x4BF5 JUMPI PUSH2 0x4BF4 PUSH2 0x3CE3 JUMP JUMPDEST JUMPDEST PUSH2 0x4C01 DUP5 DUP3 DUP6 ADD PUSH2 0x3D5D JUMP JUMPDEST PUSH1 0x60 DUP4 ADD MSTORE POP PUSH1 0x80 PUSH2 0x4C15 DUP5 DUP3 DUP6 ADD PUSH2 0x3C06 JUMP JUMPDEST PUSH1 0x80 DUP4 ADD MSTORE POP PUSH1 0xA0 PUSH2 0x4C29 DUP5 DUP3 DUP6 ADD PUSH2 0x3C06 JUMP JUMPDEST PUSH1 0xA0 DUP4 ADD MSTORE POP PUSH1 0xC0 PUSH2 0x4C3D DUP5 DUP3 DUP6 ADD PUSH2 0x3C06 JUMP JUMPDEST PUSH1 0xC0 DUP4 ADD MSTORE POP PUSH1 0xE0 PUSH2 0x4C51 DUP5 DUP3 DUP6 ADD PUSH2 0x3B18 JUMP JUMPDEST PUSH1 0xE0 DUP4 ADD MSTORE POP PUSH2 0x100 PUSH2 0x4C66 DUP5 DUP3 DUP6 ADD PUSH2 0x3C06 JUMP JUMPDEST PUSH2 0x100 DUP4 ADD MSTORE POP PUSH2 0x120 DUP3 ADD MLOAD PUSH8 0xFFFFFFFFFFFFFFFF DUP2 GT ISZERO PUSH2 0x4C8C JUMPI PUSH2 0x4C8B PUSH2 0x3CE3 JUMP JUMPDEST JUMPDEST PUSH2 0x4C98 DUP5 DUP3 DUP6 ADD PUSH2 0x4A47 JUMP JUMPDEST PUSH2 0x120 DUP4 ADD MSTORE POP PUSH2 0x140 PUSH2 0x4CAE DUP5 DUP3 DUP6 ADD PUSH2 0x4A75 JUMP JUMPDEST PUSH2 0x140 DUP4 ADD MSTORE POP PUSH2 0x160 DUP3 ADD MLOAD PUSH8 0xFFFFFFFFFFFFFFFF DUP2 GT ISZERO PUSH2 0x4CD4 JUMPI PUSH2 0x4CD3 PUSH2 0x3CE3 JUMP JUMPDEST JUMPDEST PUSH2 0x4CE0 DUP5 DUP3 DUP6 ADD PUSH2 0x4B11 JUMP JUMPDEST PUSH2 0x160 DUP4 ADD MSTORE POP PUSH2 0x180 DUP3 ADD MLOAD PUSH8 0xFFFFFFFFFFFFFFFF DUP2 GT ISZERO PUSH2 0x4D06 JUMPI PUSH2 0x4D05 PUSH2 0x3CE3 JUMP JUMPDEST JUMPDEST PUSH2 0x4D12 DUP5 DUP3 DUP6 ADD PUSH2 0x4A47 JUMP JUMPDEST PUSH2 0x180 DUP4 ADD MSTORE POP PUSH2 0x1A0 PUSH2 0x4D28 DUP5 DUP3 DUP6 ADD PUSH2 0x48C4 JUMP JUMPDEST PUSH2 0x1A0 DUP4 ADD MSTORE POP SWAP3 SWAP2 POP POP JUMP JUMPDEST PUSH1 0x0 PUSH1 0x20 DUP3 DUP5 SUB SLT ISZERO PUSH2 0x4D4B JUMPI PUSH2 0x4D4A PUSH2 0x319E JUMP JUMPDEST JUMPDEST PUSH1 0x0 DUP3 ADD MLOAD PUSH8 0xFFFFFFFFFFFFFFFF DUP2 GT ISZERO PUSH2 0x4D69 JUMPI PUSH2 0x4D68 PUSH2 0x31A3 JUMP JUMPDEST JUMPDEST PUSH2 0x4D75 DUP5 DUP3 DUP6 ADD PUSH2 0x4B3F JUMP JUMPDEST SWAP2 POP POP SWAP3 SWAP2 POP POP JUMP JUMPDEST PUSH32 0x77726F6E675F636F6E746573745F747970650000000000000000000000000000 PUSH1 0x0 DUP3 ADD MSTORE POP JUMP JUMPDEST PUSH1 0x0 PUSH2 0x4DB4 PUSH1 0x12 DUP4 PUSH2 0x3B5A JUMP JUMPDEST SWAP2 POP PUSH2 0x4DBF DUP3 PUSH2 0x4D7E JUMP JUMPDEST PUSH1 0x20 DUP3 ADD SWAP1 POP SWAP2 SWAP1 POP JUMP JUMPDEST PUSH1 0x0 PUSH1 0x20 DUP3 ADD SWAP1 POP DUP2 DUP2 SUB PUSH1 0x0 DUP4 ADD MSTORE PUSH2 0x4DE3 DUP2 PUSH2 0x4DA7 JUMP JUMPDEST SWAP1 POP SWAP2 SWAP1 POP JUMP JUMPDEST PUSH1 0x0 PUSH2 0x4DF5 DUP3 PUSH2 0x32EE JUMP JUMPDEST SWAP2 POP PUSH2 0x4E00 DUP4 PUSH2 0x32EE JUMP JUMPDEST SWAP3 POP DUP3 PUSH32 0xFFFFFFFFFFFFFFFFFFFFFFFFFFFFFFFFFFFFFFFFFFFFFFFFFFFFFFFFFFFFFFFF SUB DUP3 GT ISZERO PUSH2 0x4E35 JUMPI PUSH2 0x4E34 PUSH2 0x403D JUMP JUMPDEST JUMPDEST DUP3 DUP3 ADD SWAP1 POP SWAP3 SWAP2 POP POP JUMP JUMPDEST PUSH32 0x746F6F5F6D616E795F6775657374730000000000000000000000000000000000 PUSH1 0x0 DUP3 ADD MSTORE POP JUMP JUMPDEST PUSH1 0x0 PUSH2 0x4E76 PUSH1 0xF DUP4 PUSH2 0x3B5A JUMP JUMPDEST SWAP2 POP PUSH2 0x4E81 DUP3 PUSH2 0x4E40 JUMP JUMPDEST PUSH1 0x20 DUP3 ADD SWAP1 POP SWAP2 SWAP1 POP JUMP JUMPDEST PUSH1 0x0 PUSH1 0x20 DUP3 ADD SWAP1 POP DUP2 DUP2 SUB PUSH1 0x0 DUP4 ADD MSTORE PUSH2 0x4EA5 DUP2 PUSH2 0x4E69 JUMP JUMPDEST SWAP1 POP SWAP2 SWAP1 POP JUMP JUMPDEST PUSH32 0x4E487B7100000000000000000000000000000000000000000000000000000000 PUSH1 0x0 MSTORE PUSH1 0x32 PUSH1 0x4 MSTORE PUSH1 0x24 PUSH1 0x0 REVERT JUMPDEST PUSH1 0x0 PUSH1 0xFF DUP3 AND SWAP1 POP SWAP2 SWAP1 POP JUMP JUMPDEST PUSH1 0x0 PUSH2 0x4EF3 DUP3 PUSH2 0x4EDB JUMP JUMPDEST SWAP2 POP PUSH1 0xFF DUP3 EQ ISZERO PUSH2 0x4F07 JUMPI PUSH2 0x4F06 PUSH2 0x403D JUMP JUMPDEST JUMPDEST PUSH1 0x1 DUP3 ADD SWAP1 POP SWAP2 SWAP1 POP JUMP JUMPDEST PUSH1 0x0 PUSH1 0x40 DUP3 ADD SWAP1 POP PUSH2 0x4F27 PUSH1 0x0 DUP4 ADD DUP6 PUSH2 0x41E4 JUMP JUMPDEST PUSH2 0x4F34 PUSH1 0x20 DUP4 ADD DUP5 PUSH2 0x3CB4 JUMP JUMPDEST SWAP4 SWAP3 POP POP POP JUMP JUMPDEST PUSH32 0x7266705F616C72656164795F6177617264656400000000000000000000000000 PUSH1 0x0 DUP3 ADD MSTORE POP JUMP JUMPDEST PUSH1 0x0 PUSH2 0x4F71 PUSH1 0x13 DUP4 PUSH2 0x3B5A JUMP JUMPDEST SWAP2 POP PUSH2 0x4F7C DUP3 PUSH2 0x4F3B JUMP JUMPDEST PUSH1 0x20 DUP3 ADD SWAP1 POP SWAP2 SWAP1 POP JUMP JUMPDEST PUSH1 0x0 PUSH1 0x20 DUP3 ADD SWAP1 POP DUP2 DUP2 SUB PUSH1 0x0 DUP4 ADD MSTORE PUSH2 0x4FA0 DUP2 PUSH2 0x4F64 JUMP JUMPDEST SWAP1 POP SWAP2 SWAP1 POP JUMP JUMPDEST PUSH1 0x0 PUSH1 0x40 DUP3 ADD SWAP1 POP PUSH2 0x4FBC PUSH1 0x0 DUP4 ADD DUP6 PUSH2 0x41E4 JUMP JUMPDEST PUSH2 0x4FC9 PUSH1 0x20 DUP4 ADD DUP5 PUSH2 0x3855 JUMP JUMPDEST SWAP4 SWAP3 POP POP POP JUMP JUMPDEST PUSH1 0x0 PUSH1 0x40 DUP3 ADD SWAP1 POP PUSH2 0x4FE5 PUSH1 0x0 DUP4 ADD DUP6 PUSH2 0x41E4 JUMP JUMPDEST PUSH2 0x4FF2 PUSH1 0x20 DUP4 ADD DUP5 PUSH2 0x41E4 JUMP JUMPDEST SWAP4 SWAP3 POP POP POP JUMP JUMPDEST PUSH1 0x0 PUSH1 0x20 DUP3 ADD SWAP1 POP DUP2 DUP2 SUB PUSH1 0x0 DUP4 ADD MSTORE PUSH2 0x5013 DUP2 DUP5 PUSH2 0x45D8 JUMP JUMPDEST SWAP1 POP SWAP3 SWAP2 POP POP JUMP JUMPDEST PUSH32 0x69645F616C72656164795F657869737473000000000000000000000000000000 PUSH1 0x0 DUP3 ADD MSTORE POP JUMP JUMPDEST PUSH1 0x0 PUSH2 0x5051 PUSH1 0x11 DUP4 PUSH2 0x3B5A JUMP JUMPDEST SWAP2 POP PUSH2 0x505C DUP3 PUSH2 0x501B JUMP JUMPDEST PUSH1 0x20 DUP3 ADD SWAP1 POP SWAP2 SWAP1 POP JUMP JUMPDEST PUSH1 0x0 PUSH1 0x20 DUP3 ADD SWAP1 POP DUP2 DUP2 SUB PUSH1 0x0 DUP4 ADD MSTORE PUSH2 0x5080 DUP2 PUSH2 0x5044 JUMP JUMPDEST SWAP1 POP SWAP2 SWAP1 POP JUMP JUMPDEST PUSH32 0x616464726573735F616C72656164795F61646D696E5F6F665F636F6D70616E79 PUSH1 0x0 DUP3 ADD MSTORE POP JUMP JUMPDEST PUSH1 0x0 PUSH2 0x50BD PUSH1 0x20 DUP4 PUSH2 0x3B5A JUMP JUMPDEST SWAP2 POP PUSH2 0x50C8 DUP3 PUSH2 0x5087 JUMP JUMPDEST PUSH1 0x20 DUP3 ADD SWAP1 POP SWAP2 SWAP1 POP JUMP JUMPDEST PUSH1 0x0 PUSH1 0x20 DUP3 ADD SWAP1 POP DUP2 DUP2 SUB PUSH1 0x0 DUP4 ADD MSTORE PUSH2 0x50EC DUP2 PUSH2 0x50B0 JUMP JUMPDEST SWAP1 POP SWAP2 SWAP1 POP JUMP JUMPDEST PUSH1 0x0 PUSH1 0x80 DUP3 ADD SWAP1 POP PUSH2 0x5108 PUSH1 0x0 DUP4 ADD DUP8 PUSH2 0x3CB4 JUMP JUMPDEST DUP2 DUP2 SUB PUSH1 0x20 DUP4 ADD MSTORE PUSH2 0x511A DUP2 DUP7 PUSH2 0x45D8 JUMP JUMPDEST SWAP1 POP DUP2 DUP2 SUB PUSH1 0x40 DUP4 ADD MSTORE PUSH2 0x512E DUP2 DUP6 PUSH2 0x45D8 JUMP JUMPDEST SWAP1 POP DUP2 DUP2 SUB PUSH1 0x60 DUP4 ADD MSTORE PUSH2 0x5142 DUP2 DUP5 PUSH2 0x45D8 JUMP JUMPDEST SWAP1 POP SWAP6 SWAP5 POP POP POP POP POP JUMP JUMPDEST PUSH32 0x696E7075745F61727261795F6C656E677468735F6E6F5F6D6174636800000000 PUSH1 0x0 DUP3 ADD MSTORE POP JUMP JUMPDEST PUSH1 0x0 PUSH2 0x5183 PUSH1 0x1C DUP4 PUSH2 0x3B5A JUMP JUMPDEST SWAP2 POP PUSH2 0x518E DUP3 PUSH2 0x514D JUMP JUMPDEST PUSH1 0x20 DUP3 ADD SWAP1 POP SWAP2 SWAP1 POP JUMP JUMPDEST PUSH1 0x0 PUSH1 0x20 DUP3 ADD SWAP1 POP DUP2 DUP2 SUB PUSH1 0x0 DUP4 ADD MSTORE PUSH2 0x51B2 DUP2 PUSH2 0x5176 JUMP JUMPDEST SWAP1 POP SWAP2 SWAP1 POP JUMP JUMPDEST PUSH32 0x6E6F745F7061727469636970616E740000000000000000000000000000000000 PUSH1 0x0 DUP3 ADD MSTORE POP JUMP JUMPDEST PUSH1 0x0 PUSH2 0x51EF PUSH1 0xF DUP4 PUSH2 0x3B5A JUMP JUMPDEST SWAP2 POP PUSH2 0x51FA DUP3 PUSH2 0x51B9 JUMP JUMPDEST PUSH1 0x20 DUP3 ADD SWAP1 POP SWAP2 SWAP1 POP JUMP JUMPDEST PUSH1 0x0 PUSH1 0x20 DUP3 ADD SWAP1 POP DUP2 DUP2 SUB PUSH1 0x0 DUP4 ADD MSTORE PUSH2 0x521E DUP2 PUSH2 0x51E2 JUMP JUMPDEST SWAP1 POP SWAP2 SWAP1 POP JUMP JUMPDEST PUSH32 0x6973737565725F6261645F646F63747970650000000000000000000000000000 PUSH1 0x0 DUP3 ADD MSTORE POP JUMP JUMPDEST PUSH1 0x0 PUSH2 0x525B PUSH1 0x12 DUP4 PUSH2 0x3B5A JUMP JUMPDEST SWAP2 POP PUSH2 0x5266 DUP3 PUSH2 0x5225 JUMP JUMPDEST PUSH1 0x20 DUP3 ADD SWAP1 POP SWAP2 SWAP1 POP JUMP JUMPDEST PUSH1 0x0 PUSH1 0x20 DUP3 ADD SWAP1 POP DUP2 DUP2 SUB PUSH1 0x0 DUP4 ADD MSTORE PUSH2 0x528A DUP2 PUSH2 0x524E JUMP JUMPDEST SWAP1 POP SWAP2 SWAP1 POP JUMP JUMPDEST PUSH32 0x7061727469636970616E745F6261645F646F6374797065000000000000000000 PUSH1 0x0 DUP3 ADD MSTORE POP JUMP JUMPDEST PUSH1 0x0 PUSH2 0x52C7 PUSH1 0x17 DUP4 PUSH2 0x3B5A JUMP JUMPDEST SWAP2 POP PUSH2 0x52D2 DUP3 PUSH2 0x5291 JUMP JUMPDEST PUSH1 0x20 DUP3 ADD SWAP1 POP SWAP2 SWAP1 POP JUMP JUMPDEST PUSH1 0x0 PUSH1 0x20 DUP3 ADD SWAP1 POP DUP2 DUP2 SUB PUSH1 0x0 DUP4 ADD MSTORE PUSH2 0x52F6 DUP2 PUSH2 0x52BA JUMP JUMPDEST SWAP1 POP SWAP2 SWAP1 POP JUMP JUMPDEST PUSH32 0x656E645F726563656976696E675F726561636865640000000000000000000000 PUSH1 0x0 DUP3 ADD MSTORE POP JUMP JUMPDEST PUSH1 0x0 PUSH2 0x5333 PUSH1 0x15 DUP4 PUSH2 0x3B5A JUMP JUMPDEST SWAP2 POP PUSH2 0x533E DUP3 PUSH2 0x52FD JUMP JUMPDEST PUSH1 0x20 DUP3 ADD SWAP1 POP SWAP2 SWAP1 POP JUMP JUMPDEST PUSH1 0x0 PUSH1 0x20 DUP3 ADD SWAP1 POP DUP2 DUP2 SUB PUSH1 0x0 DUP4 ADD MSTORE PUSH2 0x5362 DUP2 PUSH2 0x5326 JUMP JUMPDEST SWAP1 POP SWAP2 SWAP1 POP JUMP JUMPDEST PUSH1 0x0 PUSH1 0xC0 DUP3 ADD SWAP1 POP PUSH2 0x537E PUSH1 0x0 DUP4 ADD DUP10 PUSH2 0x41E4 JUMP JUMPDEST PUSH2 0x538B PUSH1 0x20 DUP4 ADD DUP9 PUSH2 0x41E4 JUMP JUMPDEST DUP2 DUP2 SUB PUSH1 0x40 DUP4 ADD MSTORE PUSH2 0x539D DUP2 DUP8 PUSH2 0x45D8 JUMP JUMPDEST SWAP1 POP PUSH2 0x53AC PUSH1 0x60 DUP4 ADD DUP7 PUSH2 0x3CB4 JUMP JUMPDEST DUP2 DUP2 SUB PUSH1 0x80 DUP4 ADD MSTORE PUSH2 0x53BE DUP2 DUP6 PUSH2 0x45D8 JUMP JUMPDEST SWAP1 POP DUP2 DUP2 SUB PUSH1 0xA0 DUP4 ADD MSTORE PUSH2 0x53D2 DUP2 DUP5 PUSH2 0x45D8 JUMP JUMPDEST SWAP1 POP SWAP8 SWAP7 POP POP POP POP POP POP POP JUMP JUMPDEST PUSH32 0x496E73756666696369656E745F7061796D656E745F6665650000000000000000 PUSH1 0x0 DUP3 ADD MSTORE POP JUMP JUMPDEST PUSH1 0x0 PUSH2 0x5415 PUSH1 0x18 DUP4 PUSH2 0x3B5A JUMP JUMPDEST SWAP2 POP PUSH2 0x5420 DUP3 PUSH2 0x53DF JUMP JUMPDEST PUSH1 0x20 DUP3 ADD SWAP1 POP SWAP2 SWAP1 POP JUMP JUMPDEST PUSH1 0x0 PUSH1 0x20 DUP3 ADD SWAP1 POP DUP2 DUP2 SUB PUSH1 0x0 DUP4 ADD MSTORE PUSH2 0x5444 DUP2 PUSH2 0x5408 JUMP JUMPDEST SWAP1 POP SWAP2 SWAP1 POP JUMP JUMPDEST PUSH32 0x6E6F745F6F70656E5F74656E6465720000000000000000000000000000000000 PUSH1 0x0 DUP3 ADD MSTORE POP JUMP JUMPDEST PUSH1 0x0 PUSH2 0x5481 PUSH1 0xF DUP4 PUSH2 0x3B5A JUMP JUMPDEST SWAP2 POP PUSH2 0x548C DUP3 PUSH2 0x544B JUMP JUMPDEST PUSH1 0x20 DUP3 ADD SWAP1 POP SWAP2 SWAP1 POP JUMP JUMPDEST PUSH1 0x0 PUSH1 0x20 DUP3 ADD SWAP1 POP DUP2 DUP2 SUB PUSH1 0x0 DUP4 ADD MSTORE PUSH2 0x54B0 DUP2 PUSH2 0x5474 JUMP JUMPDEST SWAP1 POP SWAP2 SWAP1 POP JUMP JUMPDEST PUSH32 0x6D61785F7061727469636970616E74735F726561636865640000000000000000 PUSH1 0x0 DUP3 ADD MSTORE POP JUMP JUMPDEST PUSH1 0x0 PUSH2 0x54ED PUSH1 0x18 DUP4 PUSH2 0x3B5A JUMP JUMPDEST SWAP2 POP PUSH2 0x54F8 DUP3 PUSH2 0x54B7 JUMP JUMPDEST PUSH1 0x20 DUP3 ADD SWAP1 POP SWAP2 SWAP1 POP JUMP JUMPDEST PUSH1 0x0 PUSH1 0x20 DUP3 ADD SWAP1 POP DUP2 DUP2 SUB PUSH1 0x0 DUP4 ADD MSTORE PUSH2 0x551C DUP2 PUSH2 0x54E0 JUMP JUMPDEST SWAP1 POP SWAP2 SWAP1 POP JUMP JUMPDEST PUSH32 0x63616E5F6E6F745F72656769737465725F73656C660000000000000000000000 PUSH1 0x0 DUP3 ADD MSTORE POP JUMP JUMPDEST PUSH1 0x0 PUSH2 0x5559 PUSH1 0x15 DUP4 PUSH2 0x3B5A JUMP JUMPDEST SWAP2 POP PUSH2 0x5564 DUP3 PUSH2 0x5523 JUMP JUMPDEST PUSH1 0x20 DUP3 ADD SWAP1 POP SWAP2 SWAP1 POP JUMP JUMPDEST PUSH1 0x0 PUSH1 0x20 DUP3 ADD SWAP1 POP DUP2 DUP2 SUB PUSH1 0x0 DUP4 ADD MSTORE PUSH2 0x5588 DUP2 PUSH2 0x554C JUMP JUMPDEST SWAP1 POP SWAP2 SWAP1 POP JUMP JUMPDEST PUSH32 0x616C72656164795F70617274696369706174696E670000000000000000000000 PUSH1 0x0 DUP3 ADD MSTORE POP JUMP JUMPDEST PUSH1 0x0 PUSH2 0x55C5 PUSH1 0x15 DUP4 PUSH2 0x3B5A JUMP JUMPDEST SWAP2 POP PUSH2 0x55D0 DUP3 PUSH2 0x558F JUMP JUMPDEST PUSH1 0x20 DUP3 ADD SWAP1 POP SWAP2 SWAP1 POP JUMP JUMPDEST PUSH1 0x0 PUSH1 0x20 DUP3 ADD SWAP1 POP DUP2 DUP2 SUB PUSH1 0x0 DUP4 ADD MSTORE PUSH2 0x55F4 DUP2 PUSH2 0x55B8 JUMP JUMPDEST SWAP1 POP SWAP2 SWAP1 POP JUMP JUMPDEST PUSH32 0x6E6F745F6D61746368696E675F77696E6E657273000000000000000000000000 PUSH1 0x0 DUP3 ADD MSTORE POP JUMP JUMPDEST PUSH1 0x0 PUSH2 0x5631 PUSH1 0x14 DUP4 PUSH2 0x3B5A JUMP JUMPDEST SWAP2 POP PUSH2 0x563C DUP3 PUSH2 0x55FB JUMP JUMPDEST PUSH1 0x20 DUP3 ADD SWAP1 POP SWAP2 SWAP1 POP JUMP JUMPDEST PUSH1 0x0 PUSH1 0x20 DUP3 ADD SWAP1 POP DUP2 DUP2 SUB PUSH1 0x0 DUP4 ADD MSTORE PUSH2 0x5660 DUP2 PUSH2 0x5624 JUMP JUMPDEST SWAP1 POP SWAP2 SWAP1 POP JUMP JUMPDEST PUSH32 0x656E64646174655F6E6F745F726561636865645F796574000000000000000000 PUSH1 0x0 DUP3 ADD MSTORE POP JUMP JUMPDEST PUSH1 0x0 PUSH2 0x569D PUSH1 0x17 DUP4 PUSH2 0x3B5A JUMP JUMPDEST SWAP2 POP PUSH2 0x56A8 DUP3 PUSH2 0x5667 JUMP JUMPDEST PUSH1 0x20 DUP3 ADD SWAP1 POP SWAP2 SWAP1 POP JUMP JUMPDEST PUSH1 0x0 PUSH1 0x20 DUP3 ADD SWAP1 POP DUP2 DUP2 SUB PUSH1 0x0 DUP4 ADD MSTORE PUSH2 0x56CC DUP2 PUSH2 0x5690 JUMP JUMPDEST SWAP1 POP SWAP2 SWAP1 POP JUMP JUMPDEST PUSH32 0x63616E6E6F745F73656C665F6177617264000000000000000000000000000000 PUSH1 0x0 DUP3 ADD MSTORE POP JUMP JUMPDEST PUSH1 0x0 PUSH2 0x5709 PUSH1 0x11 DUP4 PUSH2 0x3B5A JUMP JUMPDEST SWAP2 POP PUSH2 0x5714 DUP3 PUSH2 0x56D3 JUMP JUMPDEST PUSH1 0x20 DUP3 ADD SWAP1 POP SWAP2 SWAP1 POP JUMP JUMPDEST PUSH1 0x0 PUSH1 0x20 DUP3 ADD SWAP1 POP DUP2 DUP2 SUB PUSH1 0x0 DUP4 ADD MSTORE PUSH2 0x5738 DUP2 PUSH2 0x56FC JUMP JUMPDEST SWAP1 POP SWAP2 SWAP1 POP JUMP JUMPDEST PUSH32 0x696E76616C69645F77696E6E6572000000000000000000000000000000000000 PUSH1 0x0 DUP3 ADD MSTORE POP JUMP JUMPDEST PUSH1 0x0 PUSH2 0x5775 PUSH1 0xE DUP4 PUSH2 0x3B5A JUMP JUMPDEST SWAP2 POP PUSH2 0x5780 DUP3 PUSH2 0x573F JUMP JUMPDEST PUSH1 0x20 DUP3 ADD SWAP1 POP SWAP2 SWAP1 POP JUMP JUMPDEST PUSH1 0x0 PUSH1 0x20 DUP3 ADD SWAP1 POP DUP2 DUP2 SUB PUSH1 0x0 DUP4 ADD MSTORE PUSH2 0x57A4 DUP2 PUSH2 0x5768 JUMP JUMPDEST SWAP1 POP SWAP2 SWAP1 POP JUMP JUMPDEST PUSH1 0x0 DUP3 DUP3 MSTORE PUSH1 0x20 DUP3 ADD SWAP1 POP SWAP3 SWAP2 POP POP JUMP JUMPDEST PUSH1 0x0 PUSH2 0x57C7 DUP3 PUSH2 0x4266 JUMP JUMPDEST PUSH2 0x57D1 DUP2 DUP6 PUSH2 0x57AB JUMP JUMPDEST SWAP4 POP PUSH2 0x57DC DUP4 PUSH2 0x4282 JUMP JUMPDEST DUP1 PUSH1 0x0 JUMPDEST DUP4 DUP2 LT ISZERO PUSH2 0x580D JUMPI DUP2 MLOAD PUSH2 0x57F4 DUP9 DUP3 PUSH2 0x42A1 JUMP JUMPDEST SWAP8 POP PUSH2 0x57FF DUP4 PUSH2 0x42B9 JUMP JUMPDEST SWAP3 POP POP PUSH1 0x1 DUP2 ADD SWAP1 POP PUSH2 0x57E0 JUMP JUMPDEST POP DUP6 SWAP4 POP POP POP POP SWAP3 SWAP2 POP POP JUMP JUMPDEST PUSH1 0x0 PUSH1 0x40 DUP3 ADD SWAP1 POP PUSH2 0x582F PUSH1 0x0 DUP4 ADD DUP6 PUSH2 0x41E4 JUMP JUMPDEST DUP2 DUP2 SUB PUSH1 0x20 DUP4 ADD MSTORE PUSH2 0x5841 DUP2 DUP5 PUSH2 0x57BC JUMP JUMPDEST SWAP1 POP SWAP4 SWAP3 POP POP POP JUMP JUMPDEST PUSH1 0x0 DUP2 SLOAD SWAP1 POP SWAP2 SWAP1 POP JUMP JUMPDEST PUSH1 0x0 DUP2 SWAP1 POP DUP2 PUSH1 0x0 MSTORE PUSH1 0x20 PUSH1 0x0 KECCAK256 SWAP1 POP SWAP2 SWAP1 POP JUMP JUMPDEST PUSH1 0x0 DUP2 PUSH1 0x0 SHR SWAP1 POP SWAP2 SWAP1 POP JUMP JUMPDEST PUSH1 0x0 PUSH20 0xFFFFFFFFFFFFFFFFFFFFFFFFFFFFFFFFFFFFFFFF DUP3 AND SWAP1 POP SWAP2 SWAP1 POP JUMP JUMPDEST PUSH1 0x0 PUSH2 0x58AA PUSH2 0x58A5 DUP4 PUSH2 0x586A JUMP JUMPDEST PUSH2 0x5877 JUMP JUMPDEST SWAP1 POP SWAP2 SWAP1 POP JUMP JUMPDEST PUSH1 0x0 PUSH2 0x58BD DUP3 SLOAD PUSH2 0x5897 JUMP JUMPDEST SWAP1 POP SWAP2 SWAP1 POP JUMP JUMPDEST PUSH1 0x0 PUSH1 0x1 DUP3 ADD SWAP1 POP SWAP2 SWAP1 POP JUMP JUMPDEST PUSH1 0x0 PUSH2 0x58DC DUP3 PUSH2 0x584A JUMP JUMPDEST PUSH2 0x58E6 DUP2 DUP6 PUSH2 0x57AB JUMP JUMPDEST SWAP4 POP PUSH2 0x58F1 DUP4 PUSH2 0x5855 JUMP JUMPDEST DUP1 PUSH1 0x0 JUMPDEST DUP4 DUP2 LT ISZERO PUSH2 0x5929 JUMPI PUSH2 0x5906 DUP3 PUSH2 0x58B1 JUMP JUMPDEST PUSH2 0x5910 DUP9 DUP3 PUSH2 0x42A1 JUMP JUMPDEST SWAP8 POP PUSH2 0x591B DUP4 PUSH2 0x58C4 JUMP JUMPDEST SWAP3 POP POP PUSH1 0x1 DUP2 ADD SWAP1 POP PUSH2 0x58F5 JUMP JUMPDEST POP DUP6 SWAP4 POP POP POP POP SWAP3 SWAP2 POP POP JUMP JUMPDEST PUSH1 0x0 PUSH1 0x40 DUP3 ADD SWAP1 POP PUSH2 0x594B PUSH1 0x0 DUP4 ADD DUP6 PUSH2 0x41E4 JUMP JUMPDEST DUP2 DUP2 SUB PUSH1 0x20 DUP4 ADD MSTORE PUSH2 0x595D DUP2 DUP5 PUSH2 0x58D1 JUMP JUMPDEST SWAP1 POP SWAP4 SWAP3 POP POP POP JUMP JUMPDEST PUSH1 0x0 PUSH2 0x5971 DUP3 PUSH2 0x32EE JUMP JUMPDEST SWAP2 POP PUSH32 0xFFFFFFFFFFFFFFFFFFFFFFFFFFFFFFFFFFFFFFFFFFFFFFFFFFFFFFFFFFFFFFFF DUP3 EQ ISZERO PUSH2 0x59A4 JUMPI PUSH2 0x59A3 PUSH2 0x403D JUMP JUMPDEST JUMPDEST PUSH1 0x1 DUP3 ADD SWAP1 POP SWAP2 SWAP1 POP JUMP JUMPDEST PUSH1 0x0 DUP2 SWAP1 POP SWAP3 SWAP2 POP POP JUMP JUMPDEST PUSH1 0x0 PUSH2 0x59C5 DUP3 PUSH2 0x41F3 JUMP JUMPDEST PUSH2 0x59CF DUP2 DUP6 PUSH2 0x59AF JUMP JUMPDEST SWAP4 POP PUSH2 0x59DF DUP2 DUP6 PUSH1 0x20 DUP7 ADD PUSH2 0x3CE8 JUMP JUMPDEST DUP1 DUP5 ADD SWAP2 POP POP SWAP3 SWAP2 POP POP JUMP JUMPDEST PUSH1 0x0 PUSH2 0x59F7 DUP3 DUP5 PUSH2 0x59BA JUMP JUMPDEST SWAP2 POP DUP2 SWAP1 POP SWAP3 SWAP2 POP POP JUMP INVALID LOG2 PUSH5 0x6970667358 0x22 SLT KECCAK256 NUMBER 0xDF PUSH8 0x17A1B44FFE8029B9 CREATE KECCAK256 0xC6 0xF 0xE6 SWAP14 PUSH17 0xE92BDC46D6207060E54D51C19DDE64736F PUSH13 0x63430008090033000000000000 "},"methodIdentifiers":{"addDocuments(uint256,uint256[],string[],string[],string[])":"d2d4ecac","cancelRFP(string,uint256)":"57c4cab4","concatStringAndAddress(string,address)":"2d714f23","createCompany(string,string,string)":"7b60626d","createRFP(string,string,string,uint256,uint256,uint256,uint8,string[])":"0adc596e","declareWinners(uint256,string,address[])":"f1e60d2b","inviteCompaniestoRFP(uint256,string,address[])":"482baf93","isContainedAddress(address[],address)":"5b6a96dc","isOwner()":"8f32d59b","registertoOpenRFP(uint256)":"ed72f89f","withdraw()":"3ccfd60b"}}}}}