{
  "_format": "hh-sol-artifact-1",
  "contractName": "pro_ponData",
  "sourceName": "contracts/proponData.sol",
  "abi": [
    {
      "inputs": [],
      "stateMutability": "nonpayable",
      "type": "constructor"
    },
    {
      "inputs": [],
      "name": "CREATE_COMPANY_PRICE",
      "outputs": [
        {
          "internalType": "uint256",
          "name": "",
          "type": "uint256"
        }
      ],
      "stateMutability": "view",
      "type": "function"
    },
    {
      "inputs": [],
      "name": "CREATE_INVITATION_RFP_PRICE",
      "outputs": [
        {
          "internalType": "uint256",
          "name": "",
          "type": "uint256"
        }
      ],
      "stateMutability": "view",
      "type": "function"
    },
    {
      "inputs": [],
      "name": "CREATE_OPEN_RFP_PRICE",
      "outputs": [
        {
          "internalType": "uint256",
          "name": "",
          "type": "uint256"
        }
      ],
      "stateMutability": "view",
      "type": "function"
    },
    {
      "inputs": [],
      "name": "MAX_GUEST_INVITATION_TENDER",
      "outputs": [
        {
          "internalType": "uint256",
          "name": "",
          "type": "uint256"
        }
      ],
      "stateMutability": "view",
      "type": "function"
    },
    {
      "inputs": [],
      "name": "MAX_GUEST_OPEN_TENDER",
      "outputs": [
        {
          "internalType": "uint256",
          "name": "",
          "type": "uint256"
        }
      ],
      "stateMutability": "view",
      "type": "function"
    },
    {
      "inputs": [],
      "name": "REGISTER_OPEN_RFP_PRICE",
      "outputs": [
        {
          "internalType": "uint256",
          "name": "",
          "type": "uint256"
        }
      ],
      "stateMutability": "view",
      "type": "function"
    },
    {
      "inputs": [
        {
          "internalType": "uint256",
          "name": "",
          "type": "uint256"
        }
      ],
      "name": "RFPs",
      "outputs": [
        {
          "internalType": "string",
          "name": "name",
          "type": "string"
        },
        {
          "internalType": "string",
          "name": "description",
          "type": "string"
        },
        {
          "internalType": "uint256",
          "name": "rfpIndex",
          "type": "uint256"
        },
        {
          "internalType": "string",
          "name": "rfpwebsite",
          "type": "string"
        },
        {
          "internalType": "uint256",
          "name": "openDate",
          "type": "uint256"
        },
        {
          "internalType": "uint256",
          "name": "endReceivingDate",
          "type": "uint256"
        },
        {
          "internalType": "uint256",
          "name": "endDate",
          "type": "uint256"
        },
        {
          "internalType": "bool",
          "name": "canceled",
          "type": "bool"
        },
        {
          "internalType": "uint256",
          "name": "cancelDate",
          "type": "uint256"
        },
        {
          "internalType": "enum proponShared.ContestType",
          "name": "contestType",
          "type": "uint8"
        },
        {
          "internalType": "address",
          "name": "issuer",
          "type": "address"
        }
      ],
      "stateMutability": "view",
      "type": "function"
    },
    {
      "inputs": [
        {
          "internalType": "uint256",
          "name": "_rfpIndex",
          "type": "uint256"
        },
        {
          "internalType": "address[]",
          "name": "winners",
          "type": "address[]"
        }
      ],
      "name": "acrueWinsToCompany",
      "outputs": [],
      "stateMutability": "nonpayable",
      "type": "function"
    },
    {
      "inputs": [
        {
          "internalType": "address",
          "name": "companyAddress",
          "type": "address"
        },
        {
          "internalType": "uint256",
          "name": "rfpIdx",
          "type": "uint256"
        }
      ],
      "name": "addCompanyRFP",
      "outputs": [],
      "stateMutability": "nonpayable",
      "type": "function"
    },
    {
      "inputs": [
        {
          "internalType": "uint256",
          "name": "_rfpIdx",
          "type": "uint256"
        },
        {
          "internalType": "uint256",
          "name": "_docType",
          "type": "uint256"
        },
        {
          "internalType": "string",
          "name": "_name",
          "type": "string"
        },
        {
          "internalType": "address",
          "name": "_owner",
          "type": "address"
        },
        {
          "internalType": "string",
          "name": "_documentHash",
          "type": "string"
        },
        {
          "internalType": "string",
          "name": "_idx",
          "type": "string"
        }
      ],
      "name": "addDocument",
      "outputs": [],
      "stateMutability": "nonpayable",
      "type": "function"
    },
    {
      "inputs": [
        {
          "internalType": "uint256",
          "name": "rfpId",
          "type": "uint256"
        },
        {
          "internalType": "address",
          "name": "participant",
          "type": "address"
        }
      ],
      "name": "addParticipantToRFP",
      "outputs": [],
      "stateMutability": "nonpayable",
      "type": "function"
    },
    {
      "inputs": [
        {
          "internalType": "uint256",
          "name": "_rfpIndex",
          "type": "uint256"
        },
        {
          "internalType": "address[]",
          "name": "winners",
          "type": "address[]"
        }
      ],
      "name": "addWinnersToRFP",
      "outputs": [],
      "stateMutability": "nonpayable",
      "type": "function"
    },
    {
      "inputs": [],
      "name": "destroy",
      "outputs": [],
      "stateMutability": "nonpayable",
      "type": "function"
    },
    {
      "inputs": [
        {
          "internalType": "uint256",
          "name": "_rfpIndex",
          "type": "uint256"
        }
      ],
      "name": "getCancelDate",
      "outputs": [
        {
          "internalType": "uint256",
          "name": "",
          "type": "uint256"
        }
      ],
      "stateMutability": "view",
      "type": "function"
    },
    {
      "inputs": [
        {
          "internalType": "address",
          "name": "adminaddress",
          "type": "address"
        }
      ],
      "name": "getCompany",
      "outputs": [
        {
          "components": [
            {
              "internalType": "string",
              "name": "id",
              "type": "string"
            },
            {
              "internalType": "string",
              "name": "name",
              "type": "string"
            },
            {
              "internalType": "string",
              "name": "country",
              "type": "string"
            },
            {
              "internalType": "uint16",
              "name": "RFPSent",
              "type": "uint16"
            },
            {
              "internalType": "uint256[]",
              "name": "RFPsWins",
              "type": "uint256[]"
            },
            {
              "internalType": "uint256[]",
              "name": "company_RFPs",
              "type": "uint256[]"
            }
          ],
          "internalType": "struct proponShared.Company",
          "name": "",
          "type": "tuple"
        }
      ],
      "stateMutability": "view",
      "type": "function"
    },
    {
      "inputs": [
        {
          "internalType": "address",
          "name": "companyAddress",
          "type": "address"
        }
      ],
      "name": "getCompanyId",
      "outputs": [
        {
          "internalType": "string",
          "name": "",
          "type": "string"
        }
      ],
      "stateMutability": "view",
      "type": "function"
    },
    {
      "inputs": [
        {
          "internalType": "address",
          "name": "account",
          "type": "address"
        }
      ],
      "name": "getCompanyRFPs",
      "outputs": [
        {
          "internalType": "uint256[]",
          "name": "",
          "type": "uint256[]"
        }
      ],
      "stateMutability": "view",
      "type": "function"
    },
    {
      "inputs": [],
      "name": "getCompanyWins",
      "outputs": [
        {
          "internalType": "uint256[]",
          "name": "",
          "type": "uint256[]"
        }
      ],
      "stateMutability": "view",
      "type": "function"
    },
    {
      "inputs": [],
      "name": "getCreateCompanyPrice",
      "outputs": [
        {
          "internalType": "uint256",
          "name": "",
          "type": "uint256"
        }
      ],
      "stateMutability": "view",
      "type": "function"
    },
    {
      "inputs": [
        {
          "internalType": "uint256",
          "name": "_rfpIdx",
          "type": "uint256"
        }
      ],
      "name": "getDocumentsfromRFP",
      "outputs": [
        {
          "components": [
            {
              "internalType": "uint256",
              "name": "docType",
              "type": "uint256"
            },
            {
              "internalType": "string",
              "name": "name",
              "type": "string"
            },
            {
              "internalType": "address",
              "name": "owner",
              "type": "address"
            },
            {
              "internalType": "string",
              "name": "documentHash",
              "type": "string"
            },
            {
              "internalType": "string",
              "name": "idx",
              "type": "string"
            }
          ],
          "internalType": "struct proponShared.Document[]",
          "name": "",
          "type": "tuple[]"
        }
      ],
      "stateMutability": "view",
      "type": "function"
    },
    {
      "inputs": [],
      "name": "getManager",
      "outputs": [
        {
          "internalType": "address",
          "name": "",
          "type": "address"
        }
      ],
      "stateMutability": "view",
      "type": "function"
    },
    {
      "inputs": [],
      "name": "getOwner",
      "outputs": [
        {
          "internalType": "address",
          "name": "",
          "type": "address"
        }
      ],
      "stateMutability": "view",
      "type": "function"
    },
    {
      "inputs": [
        {
          "internalType": "uint256",
          "name": "rfpIdx",
          "type": "uint256"
        }
      ],
      "name": "getRFPIssuer",
      "outputs": [
        {
          "internalType": "address",
          "name": "",
          "type": "address"
        }
      ],
      "stateMutability": "view",
      "type": "function"
    },
    {
      "inputs": [
        {
          "internalType": "uint256",
          "name": "_rfpId",
          "type": "uint256"
        }
      ],
      "name": "getRFPbyIndex",
      "outputs": [
        {
          "components": [
            {
              "internalType": "string",
              "name": "name",
              "type": "string"
            },
            {
              "internalType": "string",
              "name": "description",
              "type": "string"
            },
            {
              "internalType": "uint256",
              "name": "rfpIndex",
              "type": "uint256"
            },
            {
              "internalType": "string",
              "name": "rfpwebsite",
              "type": "string"
            },
            {
              "internalType": "uint256",
              "name": "openDate",
              "type": "uint256"
            },
            {
              "internalType": "uint256",
              "name": "endReceivingDate",
              "type": "uint256"
            },
            {
              "internalType": "uint256",
              "name": "endDate",
              "type": "uint256"
            },
            {
              "internalType": "bool",
              "name": "canceled",
              "type": "bool"
            },
            {
              "internalType": "uint256",
              "name": "cancelDate",
              "type": "uint256"
            },
            {
              "internalType": "address[]",
              "name": "participants",
              "type": "address[]"
            },
            {
              "internalType": "enum proponShared.ContestType",
              "name": "contestType",
              "type": "uint8"
            },
            {
              "internalType": "string[]",
              "name": "items",
              "type": "string[]"
            },
            {
              "internalType": "address[]",
              "name": "winners",
              "type": "address[]"
            },
            {
              "internalType": "address",
              "name": "issuer",
              "type": "address"
            }
          ],
          "internalType": "struct proponShared.RFP",
          "name": "",
          "type": "tuple"
        }
      ],
      "stateMutability": "view",
      "type": "function"
    },
    {
      "inputs": [
        {
          "internalType": "bytes32",
          "name": "pair",
          "type": "bytes32"
        }
      ],
      "name": "getRfpIds",
      "outputs": [
        {
          "internalType": "bool",
          "name": "",
          "type": "bool"
        }
      ],
      "stateMutability": "view",
      "type": "function"
    },
    {
      "inputs": [
        {
          "internalType": "uint256",
          "name": "_rfpIndex",
          "type": "uint256"
        }
      ],
      "name": "getWinners",
      "outputs": [
        {
          "internalType": "address[]",
          "name": "",
          "type": "address[]"
        }
      ],
      "stateMutability": "view",
      "type": "function"
    },
    {
      "inputs": [],
      "name": "getcurrentRFPIdx",
      "outputs": [
        {
          "internalType": "uint256",
          "name": "",
          "type": "uint256"
        }
      ],
      "stateMutability": "view",
      "type": "function"
    },
    {
      "inputs": [],
      "name": "incrementRFPIdx",
      "outputs": [],
      "stateMutability": "nonpayable",
      "type": "function"
    },
    {
      "inputs": [
        {
          "internalType": "string",
          "name": "_id",
          "type": "string"
        }
      ],
      "name": "isCompanyIdTaken",
      "outputs": [
        {
          "internalType": "bool",
          "name": "",
          "type": "bool"
        }
      ],
      "stateMutability": "view",
      "type": "function"
    },
    {
      "inputs": [
        {
          "internalType": "uint256",
          "name": "rfpIdx",
          "type": "uint256"
        }
      ],
      "name": "isRFPCanceled",
      "outputs": [
        {
          "internalType": "bool",
          "name": "",
          "type": "bool"
        }
      ],
      "stateMutability": "view",
      "type": "function"
    },
    {
      "inputs": [
        {
          "internalType": "address",
          "name": "companyAddress",
          "type": "address"
        },
        {
          "internalType": "string",
          "name": "_id",
          "type": "string"
        },
        {
          "internalType": "string",
          "name": "_name",
          "type": "string"
        },
        {
          "internalType": "string",
          "name": "_country",
          "type": "string"
        }
      ],
      "name": "setCompany",
      "outputs": [],
      "stateMutability": "nonpayable",
      "type": "function"
    },
    {
      "inputs": [
        {
          "internalType": "uint256",
          "name": "_value",
          "type": "uint256"
        }
      ],
      "name": "setCreateCompanyPrice",
      "outputs": [],
      "stateMutability": "nonpayable",
      "type": "function"
    },
    {
      "inputs": [
        {
          "internalType": "uint256",
          "name": "_value",
          "type": "uint256"
        }
      ],
      "name": "setCreateInvitationRfpPrice",
      "outputs": [],
      "stateMutability": "nonpayable",
      "type": "function"
    },
    {
      "inputs": [
        {
          "internalType": "uint256",
          "name": "_value",
          "type": "uint256"
        }
      ],
      "name": "setCreateOpenRfpPrice",
      "outputs": [],
      "stateMutability": "nonpayable",
      "type": "function"
    },
    {
      "inputs": [
        {
          "internalType": "address",
          "name": "_newManager",
          "type": "address"
        }
      ],
      "name": "setManager",
      "outputs": [],
      "stateMutability": "nonpayable",
      "type": "function"
    },
    {
      "inputs": [
        {
          "internalType": "uint256",
          "name": "_value",
          "type": "uint256"
        }
      ],
      "name": "setMaxGuestInvitationTender",
      "outputs": [],
      "stateMutability": "nonpayable",
      "type": "function"
    },
    {
      "inputs": [
        {
          "internalType": "uint256",
          "name": "_value",
          "type": "uint256"
        }
      ],
      "name": "setMaxGuestOpenTender",
      "outputs": [],
      "stateMutability": "nonpayable",
      "type": "function"
    },
    {
      "inputs": [
        {
          "internalType": "address",
          "name": "_newOwner",
          "type": "address"
        }
      ],
      "name": "setOwner",
      "outputs": [],
      "stateMutability": "nonpayable",
      "type": "function"
    },
    {
      "inputs": [
        {
          "internalType": "uint256",
          "name": "rfpIdx",
          "type": "uint256"
        },
        {
          "components": [
            {
              "internalType": "string",
              "name": "name",
              "type": "string"
            },
            {
              "internalType": "string",
              "name": "description",
              "type": "string"
            },
            {
              "internalType": "uint256",
              "name": "rfpIndex",
              "type": "uint256"
            },
            {
              "internalType": "string",
              "name": "rfpwebsite",
              "type": "string"
            },
            {
              "internalType": "uint256",
              "name": "openDate",
              "type": "uint256"
            },
            {
              "internalType": "uint256",
              "name": "endReceivingDate",
              "type": "uint256"
            },
            {
              "internalType": "uint256",
              "name": "endDate",
              "type": "uint256"
            },
            {
              "internalType": "bool",
              "name": "canceled",
              "type": "bool"
            },
            {
              "internalType": "uint256",
              "name": "cancelDate",
              "type": "uint256"
            },
            {
              "internalType": "address[]",
              "name": "participants",
              "type": "address[]"
            },
            {
              "internalType": "enum proponShared.ContestType",
              "name": "contestType",
              "type": "uint8"
            },
            {
              "internalType": "string[]",
              "name": "items",
              "type": "string[]"
            },
            {
              "internalType": "address[]",
              "name": "winners",
              "type": "address[]"
            },
            {
              "internalType": "address",
              "name": "issuer",
              "type": "address"
            }
          ],
          "internalType": "struct proponShared.RFP",
          "name": "rfp",
          "type": "tuple"
        }
      ],
      "name": "setRFP",
      "outputs": [],
      "stateMutability": "nonpayable",
      "type": "function"
    },
    {
      "inputs": [
        {
          "internalType": "uint256",
          "name": "_rfpIndex",
          "type": "uint256"
        },
        {
          "internalType": "uint256",
          "name": "_cancelDate",
          "type": "uint256"
        }
      ],
      "name": "setRFPCancelDate",
      "outputs": [],
      "stateMutability": "nonpayable",
      "type": "function"
    },
    {
      "inputs": [
        {
          "internalType": "uint256",
          "name": "_rfpIndex",
          "type": "uint256"
        },
        {
          "internalType": "bool",
          "name": "_canceled",
          "type": "bool"
        }
      ],
      "name": "setRFPCanceled",
      "outputs": [],
      "stateMutability": "nonpayable",
      "type": "function"
    },
    {
      "inputs": [
        {
          "internalType": "uint256",
          "name": "_value",
          "type": "uint256"
        }
      ],
      "name": "setRegisterOpenRfpPrice",
      "outputs": [],
      "stateMutability": "nonpayable",
      "type": "function"
    },
    {
      "inputs": [
        {
          "internalType": "bytes32",
          "name": "pair",
          "type": "bytes32"
        }
      ],
      "name": "setRfpId",
      "outputs": [],
      "stateMutability": "nonpayable",
      "type": "function"
    }
  ],
  "bytecode": "0x6080604052655af3107a4000600255655af3107a400060035565b5e620f48000600455655af3107a4000600555600a600655600a600755600060085534801561004757600080fd5b50336000806101000a81548173ffffffffffffffffffffffffffffffffffffffff021916908373ffffffffffffffffffffffffffffffffffffffff16021790555033600160006101000a81548173ffffffffffffffffffffffffffffffffffffffff021916908373ffffffffffffffffffffffffffffffffffffffff1602179055506143cd806100d86000396000f3fe608060405234801561001057600080fd5b50600436106102695760003560e01c80639028794011610151578063d6f343c5116100c3578063ea1b4b1d11610087578063ea1b4b1d14610762578063ecbb7b4a1461077e578063f0174dc41461079c578063f8195d6c146107b8578063f9c3c20c146107d4578063fb720761146107f057610269565b8063d6f343c5146106c0578063d7a8529e146106f0578063d88f15a71461070c578063da2e186014610728578063e31fc5bf1461074657610269565b8063c356ded511610115578063c356ded5146105e4578063c649289514610600578063cebfc5db14610630578063d0ebdbe71461066a578063d2f1c77c14610686578063d5009584146106a257610269565b8063902879401461052c578063a0b437df1461055c578063afeff8d914610578578063b277da5c14610596578063be38013b146105c657610269565b80634e289b88116101ea5780636b1426a4116101ae5780636b1426a41461046c57806383197ef01461049c57806384f816e5146104a6578063893d20e8146104c25780638cbd7834146104e05780638e2999e41461051057610269565b80634e289b88146103b45780635a6167c9146103d25780635d9c47f5146103f057806362bc56e61461040c57806367aabb1a1461043c57610269565b806332f4b16a1161023157806332f4b16a146102ec5780633b8a8a161461031c57806343a2d0481461034c578063466c51fc1461037c5780634ccba2471461039857610269565b80631393b9e81461026e57806313af40351461028c5780631a3ca1d8146102a8578063215cf05d146102b257806322f0b325146102d0575b600080fd5b61027661080e565b6040516102839190612c56565b60405180910390f35b6102a660048036038101906102a19190612ce3565b610818565b005b6102b06108e9565b005b6102ba610993565b6040516102c79190612c56565b60405180910390f35b6102ea60048036038101906102e59190612d3c565b610999565b005b61030660048036038101906103019190612d7c565b610a94565b60405161031391906131b4565b60405180910390f35b61033660048036038101906103319190612d7c565b610f4b565b60405161034391906131e5565b60405180910390f35b61036660048036038101906103619190613236565b610f8b565b6040516103739190613272565b60405180910390f35b61039660048036038101906103919190612d7c565b610fb5565b005b6103b260048036038101906103ad9190612d7c565b61104f565b005b6103bc6110e9565b6040516103c99190612c56565b60405180910390f35b6103da6110ef565b6040516103e79190612c56565b60405180910390f35b61040a60048036038101906104059190612d7c565b6110f5565b005b61042660048036038101906104219190612ce3565b61118f565b60405161043391906133fe565b60405180910390f35b61045660048036038101906104519190612ce3565b61146e565b604051610463919061348f565b60405180910390f35b61048660048036038101906104819190612d7c565b611508565b6040516104939190613520565b60405180910390f35b6104a46115ac565b005b6104c060048036038101906104bb9190613542565b611675565b005b6104ca611694565b6040516104d791906131e5565b60405180910390f35b6104fa60048036038101906104f59190612d7c565b6116bd565b6040516105079190613272565b60405180910390f35b61052a60048036038101906105259190612d7c565b6116ea565b005b610546600480360381019061054191906135e7565b611784565b6040516105539190613272565b60405180910390f35b61057660048036038101906105719190613660565b6117bc565b005b6105806117ee565b60405161058d9190612c56565b60405180910390f35b6105b060048036038101906105ab9190612d7c565b6117f4565b6040516105bd9190612c56565b60405180910390f35b6105ce611814565b6040516105db9190612c56565b60405180910390f35b6105fe60048036038101906105f99190613b99565b61181a565b005b61061a60048036038101906106159190612d7c565b611a40565b6040516106279190613d3b565b60405180910390f35b61064a60048036038101906106459190612d7c565b611cc8565b6040516106619b9a99989796959493929190613db6565b60405180910390f35b610684600480360381019061067f9190612ce3565b611ef4565b005b6106a0600480360381019061069b9190613e76565b611fc8565b005b6106aa6120d1565b6040516106b791906131e5565b60405180910390f35b6106da60048036038101906106d59190612ce3565b6120fb565b6040516106e79190613eb6565b60405180910390f35b61070a60048036038101906107059190612d7c565b6121cf565b005b61072660048036038101906107219190613ed8565b612269565b005b610730612428565b60405161073d9190612c56565b60405180910390f35b610760600480360381019061075b9190613fb9565b612432565b005b61077c60048036038101906107779190612d7c565b61258c565b005b610786612626565b6040516107939190612c56565b60405180910390f35b6107b660048036038101906107b19190614074565b61262c565b005b6107d260048036038101906107cd9190614074565b612767565b005b6107ee60048036038101906107e99190613236565b612824565b005b6107f86128e1565b604051610805919061348f565b60405180910390f35b6000600854905090565b60008054906101000a900473ffffffffffffffffffffffffffffffffffffffff1673ffffffffffffffffffffffffffffffffffffffff163373ffffffffffffffffffffffffffffffffffffffff16146108a6576040517f08c379a000000000000000000000000000000000000000000000000000000000815260040161089d9061411c565b60405180910390fd5b806000806101000a81548173ffffffffffffffffffffffffffffffffffffffff021916908373ffffffffffffffffffffffffffffffffffffffff16021790555050565b60008054906101000a900473ffffffffffffffffffffffffffffffffffffffff1673ffffffffffffffffffffffffffffffffffffffff163373ffffffffffffffffffffffffffffffffffffffff1614610977576040517f08c379a000000000000000000000000000000000000000000000000000000000815260040161096e9061411c565b60405180910390fd5b60016008600082825461098a919061416b565b92505081905550565b60025481565b60008054906101000a900473ffffffffffffffffffffffffffffffffffffffff1673ffffffffffffffffffffffffffffffffffffffff163373ffffffffffffffffffffffffffffffffffffffff1614610a27576040517f08c379a0000000000000000000000000000000000000000000000000000000008152600401610a1e9061411c565b60405180910390fd5b600960008373ffffffffffffffffffffffffffffffffffffffff1673ffffffffffffffffffffffffffffffffffffffff1681526020019081526020016000206005018190806001815401808255809150506001900390600052602060002001600090919091909150555050565b610a9c612979565b600b6000838152602001908152602001600020604051806101c0016040529081600082018054610acb906141f0565b80601f0160208091040260200160405190810160405280929190818152602001828054610af7906141f0565b8015610b445780601f10610b1957610100808354040283529160200191610b44565b820191906000526020600020905b815481529060010190602001808311610b2757829003601f168201915b50505050508152602001600182018054610b5d906141f0565b80601f0160208091040260200160405190810160405280929190818152602001828054610b89906141f0565b8015610bd65780601f10610bab57610100808354040283529160200191610bd6565b820191906000526020600020905b815481529060010190602001808311610bb957829003601f168201915b5050505050815260200160028201548152602001600382018054610bf9906141f0565b80601f0160208091040260200160405190810160405280929190818152602001828054610c25906141f0565b8015610c725780601f10610c4757610100808354040283529160200191610c72565b820191906000526020600020905b815481529060010190602001808311610c5557829003601f168201915b505050505081526020016004820154815260200160058201548152602001600682015481526020016007820160009054906101000a900460ff161515151581526020016008820154815260200160098201805480602002602001604051908101604052809291908181526020018280548015610d4357602002820191906000526020600020905b8160009054906101000a900473ffffffffffffffffffffffffffffffffffffffff1673ffffffffffffffffffffffffffffffffffffffff1681526020019060010190808311610cf9575b50505050508152602001600a820160009054906101000a900460ff166001811115610d7157610d70612f2a565b5b6001811115610d8357610d82612f2a565b5b8152602001600b8201805480602002602001604051908101604052809291908181526020016000905b82821015610e58578382906000526020600020018054610dcb906141f0565b80601f0160208091040260200160405190810160405280929190818152602001828054610df7906141f0565b8015610e445780601f10610e1957610100808354040283529160200191610e44565b820191906000526020600020905b815481529060010190602001808311610e2757829003601f168201915b505050505081526020019060010190610dac565b505050508152602001600c8201805480602002602001604051908101604052809291908181526020018280548015610ee557602002820191906000526020600020905b8160009054906101000a900473ffffffffffffffffffffffffffffffffffffffff1673ffffffffffffffffffffffffffffffffffffffff1681526020019060010190808311610e9b575b50505050508152602001600d820160009054906101000a900473ffffffffffffffffffffffffffffffffffffffff1673ffffffffffffffffffffffffffffffffffffffff1673ffffffffffffffffffffffffffffffffffffffff16815250509050919050565b6000600b6000838152602001908152602001600020600d0160009054906101000a900473ffffffffffffffffffffffffffffffffffffffff169050919050565b6000600d600083815260200190815260200160002060009054906101000a900460ff169050919050565b600160009054906101000a900473ffffffffffffffffffffffffffffffffffffffff1673ffffffffffffffffffffffffffffffffffffffff163373ffffffffffffffffffffffffffffffffffffffff1614611045576040517f08c379a000000000000000000000000000000000000000000000000000000000815260040161103c9061426e565b60405180910390fd5b8060028190555050565b600160009054906101000a900473ffffffffffffffffffffffffffffffffffffffff1673ffffffffffffffffffffffffffffffffffffffff163373ffffffffffffffffffffffffffffffffffffffff16146110df576040517f08c379a00000000000000000000000000000000000000000000000000000000081526004016110d69061426e565b60405180910390fd5b8060068190555050565b60035481565b60075481565b600160009054906101000a900473ffffffffffffffffffffffffffffffffffffffff1673ffffffffffffffffffffffffffffffffffffffff163373ffffffffffffffffffffffffffffffffffffffff1614611185576040517f08c379a000000000000000000000000000000000000000000000000000000000815260040161117c9061426e565b60405180910390fd5b8060038190555050565b611197612a12565b600960008373ffffffffffffffffffffffffffffffffffffffff1673ffffffffffffffffffffffffffffffffffffffff1681526020019081526020016000206040518060c00160405290816000820180546111f1906141f0565b80601f016020809104026020016040519081016040528092919081815260200182805461121d906141f0565b801561126a5780601f1061123f5761010080835404028352916020019161126a565b820191906000526020600020905b81548152906001019060200180831161124d57829003601f168201915b50505050508152602001600182018054611283906141f0565b80601f01602080910402602001604051908101604052809291908181526020018280546112af906141f0565b80156112fc5780601f106112d1576101008083540402835291602001916112fc565b820191906000526020600020905b8154815290600101906020018083116112df57829003601f168201915b50505050508152602001600282018054611315906141f0565b80601f0160208091040260200160405190810160405280929190818152602001828054611341906141f0565b801561138e5780601f106113635761010080835404028352916020019161138e565b820191906000526020600020905b81548152906001019060200180831161137157829003601f168201915b505050505081526020016003820160009054906101000a900461ffff1661ffff1661ffff1681526020016004820180548060200260200160405190810160405280929190818152602001828054801561140657602002820191906000526020600020905b8154815260200190600101908083116113f2575b505050505081526020016005820180548060200260200160405190810160405280929190818152602001828054801561145e57602002820191906000526020600020905b81548152602001906001019080831161144a575b5050505050815250509050919050565b6060600960008373ffffffffffffffffffffffffffffffffffffffff1673ffffffffffffffffffffffffffffffffffffffff1681526020019081526020016000206005018054806020026020016040519081016040528092919081815260200182805480156114fc57602002820191906000526020600020905b8154815260200190600101908083116114e8575b50505050509050919050565b6060600b6000838152602001908152602001600020600c018054806020026020016040519081016040528092919081815260200182805480156115a057602002820191906000526020600020905b8160009054906101000a900473ffffffffffffffffffffffffffffffffffffffff1673ffffffffffffffffffffffffffffffffffffffff1681526020019060010190808311611556575b50505050509050919050565b600160009054906101000a900473ffffffffffffffffffffffffffffffffffffffff1673ffffffffffffffffffffffffffffffffffffffff163373ffffffffffffffffffffffffffffffffffffffff161461163c576040517f08c379a00000000000000000000000000000000000000000000000000000000081526004016116339061426e565b60405180910390fd5b60008054906101000a900473ffffffffffffffffffffffffffffffffffffffff1673ffffffffffffffffffffffffffffffffffffffff16ff5b80600b6000848152602001908152602001600020600801819055505050565b60008060009054906101000a900473ffffffffffffffffffffffffffffffffffffffff16905090565b6000600b600083815260200190815260200160002060070160009054906101000a900460ff169050919050565b600160009054906101000a900473ffffffffffffffffffffffffffffffffffffffff1673ffffffffffffffffffffffffffffffffffffffff163373ffffffffffffffffffffffffffffffffffffffff161461177a576040517f08c379a00000000000000000000000000000000000000000000000000000000081526004016117719061426e565b60405180910390fd5b8060078190555050565b6000600a83836040516117989291906142be565b908152602001604051809103902060009054906101000a900460ff16905092915050565b80600b600084815260200190815260200160002060070160006101000a81548160ff0219169083151502179055505050565b60045481565b6000600b6000838152602001908152602001600020600801549050919050565b60055481565b60008054906101000a900473ffffffffffffffffffffffffffffffffffffffff1673ffffffffffffffffffffffffffffffffffffffff163373ffffffffffffffffffffffffffffffffffffffff16146118a8576040517f08c379a000000000000000000000000000000000000000000000000000000000815260040161189f9061411c565b60405180910390fd5b80600b600084815260200190815260200160002060008201518160000190805190602001906118d8929190612a4c565b5060208201518160010190805190602001906118f5929190612a4c565b5060408201518160020155606082015181600301908051906020019061191c929190612a4c565b506080820151816004015560a0820151816005015560c0820151816006015560e08201518160070160006101000a81548160ff0219169083151502179055506101008201518160080155610120820151816009019080519060200190611983929190612ad2565b5061014082015181600a0160006101000a81548160ff021916908360018111156119b0576119af612f2a565b5b021790555061016082015181600b0190805190602001906119d2929190612b5c565b5061018082015181600c0190805190602001906119f0929190612ad2565b506101a082015181600d0160006101000a81548173ffffffffffffffffffffffffffffffffffffffff021916908373ffffffffffffffffffffffffffffffffffffffff1602179055509050505050565b6060600c6000838152602001908152602001600020805480602002602001604051908101604052809291908181526020016000905b82821015611cbd57838290600052602060002090600502016040518060a001604052908160008201548152602001600182018054611ab2906141f0565b80601f0160208091040260200160405190810160405280929190818152602001828054611ade906141f0565b8015611b2b5780601f10611b0057610100808354040283529160200191611b2b565b820191906000526020600020905b815481529060010190602001808311611b0e57829003601f168201915b505050505081526020016002820160009054906101000a900473ffffffffffffffffffffffffffffffffffffffff1673ffffffffffffffffffffffffffffffffffffffff1673ffffffffffffffffffffffffffffffffffffffff168152602001600382018054611b9a906141f0565b80601f0160208091040260200160405190810160405280929190818152602001828054611bc6906141f0565b8015611c135780601f10611be857610100808354040283529160200191611c13565b820191906000526020600020905b815481529060010190602001808311611bf657829003601f168201915b50505050508152602001600482018054611c2c906141f0565b80601f0160208091040260200160405190810160405280929190818152602001828054611c58906141f0565b8015611ca55780601f10611c7a57610100808354040283529160200191611ca5565b820191906000526020600020905b815481529060010190602001808311611c8857829003601f168201915b50505050508152505081526020019060010190611a75565b505050509050919050565b600b602052806000526040600020600091509050806000018054611ceb906141f0565b80601f0160208091040260200160405190810160405280929190818152602001828054611d17906141f0565b8015611d645780601f10611d3957610100808354040283529160200191611d64565b820191906000526020600020905b815481529060010190602001808311611d4757829003601f168201915b505050505090806001018054611d79906141f0565b80601f0160208091040260200160405190810160405280929190818152602001828054611da5906141f0565b8015611df25780601f10611dc757610100808354040283529160200191611df2565b820191906000526020600020905b815481529060010190602001808311611dd557829003601f168201915b505050505090806002015490806003018054611e0d906141f0565b80601f0160208091040260200160405190810160405280929190818152602001828054611e39906141f0565b8015611e865780601f10611e5b57610100808354040283529160200191611e86565b820191906000526020600020905b815481529060010190602001808311611e6957829003601f168201915b5050505050908060040154908060050154908060060154908060070160009054906101000a900460ff169080600801549080600a0160009054906101000a900460ff169080600d0160009054906101000a900473ffffffffffffffffffffffffffffffffffffffff1690508b565b600160009054906101000a900473ffffffffffffffffffffffffffffffffffffffff1673ffffffffffffffffffffffffffffffffffffffff163373ffffffffffffffffffffffffffffffffffffffff1614611f84576040517f08c379a0000000000000000000000000000000000000000000000000000000008152600401611f7b9061426e565b60405180910390fd5b80600160006101000a81548173ffffffffffffffffffffffffffffffffffffffff021916908373ffffffffffffffffffffffffffffffffffffffff16021790555050565b60008054906101000a900473ffffffffffffffffffffffffffffffffffffffff1673ffffffffffffffffffffffffffffffffffffffff163373ffffffffffffffffffffffffffffffffffffffff1614612056576040517f08c379a000000000000000000000000000000000000000000000000000000000815260040161204d9061411c565b60405180910390fd5b600b6000838152602001908152602001600020600901819080600181540180825580915050600190039060005260206000200160009091909190916101000a81548173ffffffffffffffffffffffffffffffffffffffff021916908373ffffffffffffffffffffffffffffffffffffffff1602179055505050565b6000600160009054906101000a900473ffffffffffffffffffffffffffffffffffffffff16905090565b6060600960008373ffffffffffffffffffffffffffffffffffffffff1673ffffffffffffffffffffffffffffffffffffffff168152602001908152602001600020600001805461214a906141f0565b80601f0160208091040260200160405190810160405280929190818152602001828054612176906141f0565b80156121c35780601f10612198576101008083540402835291602001916121c3565b820191906000526020600020905b8154815290600101906020018083116121a657829003601f168201915b50505050509050919050565b600160009054906101000a900473ffffffffffffffffffffffffffffffffffffffff1673ffffffffffffffffffffffffffffffffffffffff163373ffffffffffffffffffffffffffffffffffffffff161461225f576040517f08c379a00000000000000000000000000000000000000000000000000000000081526004016122569061426e565b60405180910390fd5b8060058190555050565b60008054906101000a900473ffffffffffffffffffffffffffffffffffffffff1673ffffffffffffffffffffffffffffffffffffffff163373ffffffffffffffffffffffffffffffffffffffff16146122f7576040517f08c379a00000000000000000000000000000000000000000000000000000000081526004016122ee9061411c565b60405180910390fd5b60006040518060a001604052808781526020018681526020018573ffffffffffffffffffffffffffffffffffffffff168152602001848152602001838152509050600c600088815260200190815260200160002081908060018154018082558091505060019003906000526020600020906005020160009091909190915060008201518160000155602082015181600101908051906020019061239b929190612a4c565b5060408201518160020160006101000a81548173ffffffffffffffffffffffffffffffffffffffff021916908373ffffffffffffffffffffffffffffffffffffffff16021790555060608201518160030190805190602001906123ff929190612a4c565b50608082015181600401908051906020019061241c929190612a4c565b50505050505050505050565b6000600254905090565b60008054906101000a900473ffffffffffffffffffffffffffffffffffffffff1673ffffffffffffffffffffffffffffffffffffffff163373ffffffffffffffffffffffffffffffffffffffff16146124c0576040517f08c379a00000000000000000000000000000000000000000000000000000000081526004016124b79061411c565b60405180910390fd5b6000600960008673ffffffffffffffffffffffffffffffffffffffff1673ffffffffffffffffffffffffffffffffffffffff16815260200190815260200160002090508381600001908051906020019061251b929190612a4c565b5082816001019080519060200190612534929190612a4c565b508181600201908051906020019061254d929190612a4c565b506001600a856040516125609190614308565b908152602001604051809103902060006101000a81548160ff0219169083151502179055505050505050565b600160009054906101000a900473ffffffffffffffffffffffffffffffffffffffff1673ffffffffffffffffffffffffffffffffffffffff163373ffffffffffffffffffffffffffffffffffffffff161461261c576040517f08c379a00000000000000000000000000000000000000000000000000000000081526004016126139061426e565b60405180910390fd5b8060048190555050565b60065481565b60008054906101000a900473ffffffffffffffffffffffffffffffffffffffff1673ffffffffffffffffffffffffffffffffffffffff163373ffffffffffffffffffffffffffffffffffffffff16146126ba576040517f08c379a00000000000000000000000000000000000000000000000000000000081526004016126b19061411c565b60405180910390fd5b60008151905060005b8181101561276157600960008483815181106126e2576126e161431f565b5b602002602001015173ffffffffffffffffffffffffffffffffffffffff1673ffffffffffffffffffffffffffffffffffffffff16815260200190815260200160002060040184908060018154018082558091505060019003906000526020600020016000909190919091505580806127599061434e565b9150506126c3565b50505050565b60008054906101000a900473ffffffffffffffffffffffffffffffffffffffff1673ffffffffffffffffffffffffffffffffffffffff163373ffffffffffffffffffffffffffffffffffffffff16146127f5576040517f08c379a00000000000000000000000000000000000000000000000000000000081526004016127ec9061411c565b60405180910390fd5b80600b6000848152602001908152602001600020600c01908051906020019061281f929190612ad2565b505050565b60008054906101000a900473ffffffffffffffffffffffffffffffffffffffff1673ffffffffffffffffffffffffffffffffffffffff163373ffffffffffffffffffffffffffffffffffffffff16146128b2576040517f08c379a00000000000000000000000000000000000000000000000000000000081526004016128a99061411c565b60405180910390fd5b6001600d600083815260200190815260200160002060006101000a81548160ff02191690831515021790555050565b6060600960003373ffffffffffffffffffffffffffffffffffffffff1673ffffffffffffffffffffffffffffffffffffffff16815260200190815260200160002060040180548060200260200160405190810160405280929190818152602001828054801561296f57602002820191906000526020600020905b81548152602001906001019080831161295b575b5050505050905090565b604051806101c00160405280606081526020016060815260200160008152602001606081526020016000815260200160008152602001600081526020016000151581526020016000815260200160608152602001600060018111156129e1576129e0612f2a565b5b81526020016060815260200160608152602001600073ffffffffffffffffffffffffffffffffffffffff1681525090565b6040518060c00160405280606081526020016060815260200160608152602001600061ffff16815260200160608152602001606081525090565b828054612a58906141f0565b90600052602060002090601f016020900481019282612a7a5760008555612ac1565b82601f10612a9357805160ff1916838001178555612ac1565b82800160010185558215612ac1579182015b82811115612ac0578251825591602001919060010190612aa5565b5b509050612ace9190612bbc565b5090565b828054828255906000526020600020908101928215612b4b579160200282015b82811115612b4a5782518260006101000a81548173ffffffffffffffffffffffffffffffffffffffff021916908373ffffffffffffffffffffffffffffffffffffffff16021790555091602001919060010190612af2565b5b509050612b589190612bbc565b5090565b828054828255906000526020600020908101928215612bab579160200282015b82811115612baa578251829080519060200190612b9a929190612a4c565b5091602001919060010190612b7c565b5b509050612bb89190612bd9565b5090565b5b80821115612bd5576000816000905550600101612bbd565b5090565b5b80821115612bf95760008181612bf09190612bfd565b50600101612bda565b5090565b508054612c09906141f0565b6000825580601f10612c1b5750612c3a565b601f016020900490600052602060002090810190612c399190612bbc565b5b50565b6000819050919050565b612c5081612c3d565b82525050565b6000602082019050612c6b6000830184612c47565b92915050565b6000604051905090565b600080fd5b600080fd5b600073ffffffffffffffffffffffffffffffffffffffff82169050919050565b6000612cb082612c85565b9050919050565b612cc081612ca5565b8114612ccb57600080fd5b50565b600081359050612cdd81612cb7565b92915050565b600060208284031215612cf957612cf8612c7b565b5b6000612d0784828501612cce565b91505092915050565b612d1981612c3d565b8114612d2457600080fd5b50565b600081359050612d3681612d10565b92915050565b60008060408385031215612d5357612d52612c7b565b5b6000612d6185828601612cce565b9250506020612d7285828601612d27565b9150509250929050565b600060208284031215612d9257612d91612c7b565b5b6000612da084828501612d27565b91505092915050565b600081519050919050565b600082825260208201905092915050565b60005b83811015612de3578082015181840152602081019050612dc8565b83811115612df2576000848401525b50505050565b6000601f19601f8301169050919050565b6000612e1482612da9565b612e1e8185612db4565b9350612e2e818560208601612dc5565b612e3781612df8565b840191505092915050565b612e4b81612c3d565b82525050565b60008115159050919050565b612e6681612e51565b82525050565b600081519050919050565b600082825260208201905092915050565b6000819050602082019050919050565b612ea181612ca5565b82525050565b6000612eb38383612e98565b60208301905092915050565b6000602082019050919050565b6000612ed782612e6c565b612ee18185612e77565b9350612eec83612e88565b8060005b83811015612f1d578151612f048882612ea7565b9750612f0f83612ebf565b925050600181019050612ef0565b5085935050505092915050565b7f4e487b7100000000000000000000000000000000000000000000000000000000600052602160045260246000fd5b60028110612f6a57612f69612f2a565b5b50565b6000819050612f7b82612f59565b919050565b6000612f8b82612f6d565b9050919050565b612f9b81612f80565b82525050565b600081519050919050565b600082825260208201905092915050565b6000819050602082019050919050565b6000612fd98383612e09565b905092915050565b6000602082019050919050565b6000612ff982612fa1565b6130038185612fac565b93508360208202850161301585612fbd565b8060005b8581101561305157848403895281516130328582612fcd565b945061303d83612fe1565b925060208a01995050600181019050613019565b50829750879550505050505092915050565b60006101c08301600083015184820360008601526130818282612e09565b9150506020830151848203602086015261309b8282612e09565b91505060408301516130b06040860182612e42565b50606083015184820360608601526130c88282612e09565b91505060808301516130dd6080860182612e42565b5060a08301516130f060a0860182612e42565b5060c083015161310360c0860182612e42565b5060e083015161311660e0860182612e5d565b5061010083015161312b610100860182612e42565b506101208301518482036101208601526131458282612ecc565b91505061014083015161315c610140860182612f92565b506101608301518482036101608601526131768282612fee565b9150506101808301518482036101808601526131928282612ecc565b9150506101a08301516131a96101a0860182612e98565b508091505092915050565b600060208201905081810360008301526131ce8184613063565b905092915050565b6131df81612ca5565b82525050565b60006020820190506131fa60008301846131d6565b92915050565b6000819050919050565b61321381613200565b811461321e57600080fd5b50565b6000813590506132308161320a565b92915050565b60006020828403121561324c5761324b612c7b565b5b600061325a84828501613221565b91505092915050565b61326c81612e51565b82525050565b60006020820190506132876000830184613263565b92915050565b600061ffff82169050919050565b6132a48161328d565b82525050565b600081519050919050565b600082825260208201905092915050565b6000819050602082019050919050565b60006132e28383612e42565b60208301905092915050565b6000602082019050919050565b6000613306826132aa565b61331081856132b5565b935061331b836132c6565b8060005b8381101561334c57815161333388826132d6565b975061333e836132ee565b92505060018101905061331f565b5085935050505092915050565b600060c08301600083015184820360008601526133768282612e09565b915050602083015184820360208601526133908282612e09565b915050604083015184820360408601526133aa8282612e09565b91505060608301516133bf606086018261329b565b50608083015184820360808601526133d782826132fb565b91505060a083015184820360a08601526133f182826132fb565b9150508091505092915050565b600060208201905081810360008301526134188184613359565b905092915050565b600082825260208201905092915050565b600061343c826132aa565b6134468185613420565b9350613451836132c6565b8060005b8381101561348257815161346988826132d6565b9750613474836132ee565b925050600181019050613455565b5085935050505092915050565b600060208201905081810360008301526134a98184613431565b905092915050565b600082825260208201905092915050565b60006134cd82612e6c565b6134d781856134b1565b93506134e283612e88565b8060005b838110156135135781516134fa8882612ea7565b975061350583612ebf565b9250506001810190506134e6565b5085935050505092915050565b6000602082019050818103600083015261353a81846134c2565b905092915050565b6000806040838503121561355957613558612c7b565b5b600061356785828601612d27565b925050602061357885828601612d27565b9150509250929050565b600080fd5b600080fd5b600080fd5b60008083601f8401126135a7576135a6613582565b5b8235905067ffffffffffffffff8111156135c4576135c3613587565b5b6020830191508360018202830111156135e0576135df61358c565b5b9250929050565b600080602083850312156135fe576135fd612c7b565b5b600083013567ffffffffffffffff81111561361c5761361b612c80565b5b61362885828601613591565b92509250509250929050565b61363d81612e51565b811461364857600080fd5b50565b60008135905061365a81613634565b92915050565b6000806040838503121561367757613676612c7b565b5b600061368585828601612d27565b92505060206136968582860161364b565b9150509250929050565b600080fd5b7f4e487b7100000000000000000000000000000000000000000000000000000000600052604160045260246000fd5b6136dd82612df8565b810181811067ffffffffffffffff821117156136fc576136fb6136a5565b5b80604052505050565b600061370f612c71565b905061371b82826136d4565b919050565b600080fd5b600080fd5b600067ffffffffffffffff821115613745576137446136a5565b5b61374e82612df8565b9050602081019050919050565b82818337600083830152505050565b600061377d6137788461372a565b613705565b90508281526020810184848401111561379957613798613725565b5b6137a484828561375b565b509392505050565b600082601f8301126137c1576137c0613582565b5b81356137d184826020860161376a565b91505092915050565b600067ffffffffffffffff8211156137f5576137f46136a5565b5b602082029050602081019050919050565b6000613819613814846137da565b613705565b9050808382526020820190506020840283018581111561383c5761383b61358c565b5b835b8181101561386557806138518882612cce565b84526020840193505060208101905061383e565b5050509392505050565b600082601f83011261388457613883613582565b5b8135613894848260208601613806565b91505092915050565b600281106138aa57600080fd5b50565b6000813590506138bc8161389d565b92915050565b600067ffffffffffffffff8211156138dd576138dc6136a5565b5b602082029050602081019050919050565b60006139016138fc846138c2565b613705565b905080838252602082019050602084028301858111156139245761392361358c565b5b835b8181101561396b57803567ffffffffffffffff81111561394957613948613582565b5b80860161395689826137ac565b85526020850194505050602081019050613926565b5050509392505050565b600082601f83011261398a57613989613582565b5b813561399a8482602086016138ee565b91505092915050565b60006101c082840312156139ba576139b96136a0565b5b6139c56101c0613705565b9050600082013567ffffffffffffffff8111156139e5576139e4613720565b5b6139f1848285016137ac565b600083015250602082013567ffffffffffffffff811115613a1557613a14613720565b5b613a21848285016137ac565b6020830152506040613a3584828501612d27565b604083015250606082013567ffffffffffffffff811115613a5957613a58613720565b5b613a65848285016137ac565b6060830152506080613a7984828501612d27565b60808301525060a0613a8d84828501612d27565b60a08301525060c0613aa184828501612d27565b60c08301525060e0613ab58482850161364b565b60e083015250610100613aca84828501612d27565b6101008301525061012082013567ffffffffffffffff811115613af057613aef613720565b5b613afc8482850161386f565b61012083015250610140613b12848285016138ad565b6101408301525061016082013567ffffffffffffffff811115613b3857613b37613720565b5b613b4484828501613975565b6101608301525061018082013567ffffffffffffffff811115613b6a57613b69613720565b5b613b768482850161386f565b610180830152506101a0613b8c84828501612cce565b6101a08301525092915050565b60008060408385031215613bb057613baf612c7b565b5b6000613bbe85828601612d27565b925050602083013567ffffffffffffffff811115613bdf57613bde612c80565b5b613beb858286016139a3565b9150509250929050565b600081519050919050565b600082825260208201905092915050565b6000819050602082019050919050565b600060a083016000830151613c396000860182612e42565b5060208301518482036020860152613c518282612e09565b9150506040830151613c666040860182612e98565b5060608301518482036060860152613c7e8282612e09565b91505060808301518482036080860152613c988282612e09565b9150508091505092915050565b6000613cb18383613c21565b905092915050565b6000602082019050919050565b6000613cd182613bf5565b613cdb8185613c00565b935083602082028501613ced85613c11565b8060005b85811015613d295784840389528151613d0a8582613ca5565b9450613d1583613cb9565b925060208a01995050600181019050613cf1565b50829750879550505050505092915050565b60006020820190508181036000830152613d558184613cc6565b905092915050565b600082825260208201905092915050565b6000613d7982612da9565b613d838185613d5d565b9350613d93818560208601612dc5565b613d9c81612df8565b840191505092915050565b613db081612f80565b82525050565b6000610160820190508181036000830152613dd1818e613d6e565b90508181036020830152613de5818d613d6e565b9050613df4604083018c612c47565b8181036060830152613e06818b613d6e565b9050613e15608083018a612c47565b613e2260a0830189612c47565b613e2f60c0830188612c47565b613e3c60e0830187613263565b613e4a610100830186612c47565b613e58610120830185613da7565b613e666101408301846131d6565b9c9b505050505050505050505050565b60008060408385031215613e8d57613e8c612c7b565b5b6000613e9b85828601612d27565b9250506020613eac85828601612cce565b9150509250929050565b60006020820190508181036000830152613ed08184613d6e565b905092915050565b60008060008060008060c08789031215613ef557613ef4612c7b565b5b6000613f0389828a01612d27565b9650506020613f1489828a01612d27565b955050604087013567ffffffffffffffff811115613f3557613f34612c80565b5b613f4189828a016137ac565b9450506060613f5289828a01612cce565b935050608087013567ffffffffffffffff811115613f7357613f72612c80565b5b613f7f89828a016137ac565b92505060a087013567ffffffffffffffff811115613fa057613f9f612c80565b5b613fac89828a016137ac565b9150509295509295509295565b60008060008060808587031215613fd357613fd2612c7b565b5b6000613fe187828801612cce565b945050602085013567ffffffffffffffff81111561400257614001612c80565b5b61400e878288016137ac565b935050604085013567ffffffffffffffff81111561402f5761402e612c80565b5b61403b878288016137ac565b925050606085013567ffffffffffffffff81111561405c5761405b612c80565b5b614068878288016137ac565b91505092959194509250565b6000806040838503121561408b5761408a612c7b565b5b600061409985828601612d27565b925050602083013567ffffffffffffffff8111156140ba576140b9612c80565b5b6140c68582860161386f565b9150509250929050565b7f6f6e6c795f6f776e65725f616c6c6f7765640000000000000000000000000000600082015250565b6000614106601283613d5d565b9150614111826140d0565b602082019050919050565b60006020820190508181036000830152614135816140f9565b9050919050565b7f4e487b7100000000000000000000000000000000000000000000000000000000600052601160045260246000fd5b600061417682612c3d565b915061418183612c3d565b9250827fffffffffffffffffffffffffffffffffffffffffffffffffffffffffffffffff038211156141b6576141b561413c565b5b828201905092915050565b7f4e487b7100000000000000000000000000000000000000000000000000000000600052602260045260246000fd5b6000600282049050600182168061420857607f821691505b6020821081141561421c5761421b6141c1565b5b50919050565b7f6f6e6c795f6d616e616765725f616c6c6f776564000000000000000000000000600082015250565b6000614258601483613d5d565b915061426382614222565b602082019050919050565b600060208201905081810360008301526142878161424b565b9050919050565b600081905092915050565b60006142a5838561428e565b93506142b283858461375b565b82840190509392505050565b60006142cb828486614299565b91508190509392505050565b60006142e282612da9565b6142ec818561428e565b93506142fc818560208601612dc5565b80840191505092915050565b600061431482846142d7565b915081905092915050565b7f4e487b7100000000000000000000000000000000000000000000000000000000600052603260045260246000fd5b600061435982612c3d565b91507fffffffffffffffffffffffffffffffffffffffffffffffffffffffffffffffff82141561438c5761438b61413c565b5b60018201905091905056fea2646970667358221220a62ca9ce7fe07eb9cabdeaae03744acc0494036b63e72d81c6548479e969df0064736f6c63430008090033",
  "linkReferences": {},
  "deployedLinkReferences": {}
}