{
  "_format": "hh-sol-artifact-1",
  "contractName": "pro_ponData",
  "sourceName": "contracts/proponData.sol",
  "abi": [
    {
      "inputs": [],
      "stateMutability": "nonpayable",
      "type": "constructor"
    },
    {
      "inputs": [],
      "name": "CREATE_COMPANY_PRICE",
      "outputs": [
        {
          "internalType": "uint256",
          "name": "",
          "type": "uint256"
        }
      ],
      "stateMutability": "view",
      "type": "function"
    },
    {
      "inputs": [],
      "name": "CREATE_INVITATION_RFP_PRICE",
      "outputs": [
        {
          "internalType": "uint256",
          "name": "",
          "type": "uint256"
        }
      ],
      "stateMutability": "view",
      "type": "function"
    },
    {
      "inputs": [],
      "name": "CREATE_OPEN_RFP_PRICE",
      "outputs": [
        {
          "internalType": "uint256",
          "name": "",
          "type": "uint256"
        }
      ],
      "stateMutability": "view",
      "type": "function"
    },
    {
      "inputs": [],
      "name": "MAX_GUEST_INVITATION_TENDER",
      "outputs": [
        {
          "internalType": "uint256",
          "name": "",
          "type": "uint256"
        }
      ],
      "stateMutability": "view",
      "type": "function"
    },
    {
      "inputs": [],
      "name": "MAX_GUEST_OPEN_TENDER",
      "outputs": [
        {
          "internalType": "uint256",
          "name": "",
          "type": "uint256"
        }
      ],
      "stateMutability": "view",
      "type": "function"
    },
    {
      "inputs": [],
      "name": "REGISTER_OPEN_RFP_PRICE",
      "outputs": [
        {
          "internalType": "uint256",
          "name": "",
          "type": "uint256"
        }
      ],
      "stateMutability": "view",
      "type": "function"
    },
    {
      "inputs": [
        {
          "internalType": "uint16",
          "name": "",
          "type": "uint16"
        }
      ],
      "name": "RFPs",
      "outputs": [
        {
          "internalType": "string",
          "name": "name",
          "type": "string"
        },
        {
          "internalType": "string",
          "name": "description",
          "type": "string"
        },
        {
          "internalType": "uint256",
          "name": "rfpIndex",
          "type": "uint256"
        },
        {
          "internalType": "string",
          "name": "rfpwebsite",
          "type": "string"
        },
        {
          "internalType": "uint256",
          "name": "openDate",
          "type": "uint256"
        },
        {
          "internalType": "uint256",
          "name": "endReceivingDate",
          "type": "uint256"
        },
        {
          "internalType": "uint256",
          "name": "endDate",
          "type": "uint256"
        },
        {
          "internalType": "bool",
          "name": "canceled",
          "type": "bool"
        },
        {
          "internalType": "uint256",
          "name": "cancelDate",
          "type": "uint256"
        },
        {
          "internalType": "enum proponShared.ContestType",
          "name": "contestType",
          "type": "uint8"
        },
        {
          "internalType": "address",
          "name": "issuer",
          "type": "address"
        }
      ],
      "stateMutability": "view",
      "type": "function"
    },
    {
      "inputs": [
        {
          "internalType": "uint16",
          "name": "_rfpIndex",
          "type": "uint16"
        },
        {
          "internalType": "address[]",
          "name": "winners",
          "type": "address[]"
        }
      ],
      "name": "acrueWinsToCompany",
      "outputs": [],
      "stateMutability": "nonpayable",
      "type": "function"
    },
    {
      "inputs": [
        {
          "internalType": "uint16",
          "name": "_rfpIndex",
          "type": "uint16"
        },
        {
          "internalType": "address",
          "name": "company",
          "type": "address"
        }
      ],
      "name": "addCompanyParticipationinRFP",
      "outputs": [],
      "stateMutability": "nonpayable",
      "type": "function"
    },
    {
      "inputs": [
        {
          "internalType": "address",
          "name": "companyAddress",
          "type": "address"
        },
        {
          "internalType": "uint16",
          "name": "rfpIdx",
          "type": "uint16"
        }
      ],
      "name": "addCompanyRFP",
      "outputs": [],
      "stateMutability": "nonpayable",
      "type": "function"
    },
    {
      "inputs": [
        {
          "internalType": "uint16",
          "name": "_rfpIdx",
          "type": "uint16"
        },
        {
          "internalType": "uint256",
          "name": "_docType",
          "type": "uint256"
        },
        {
          "internalType": "string",
          "name": "_name",
          "type": "string"
        },
        {
          "internalType": "address",
          "name": "_owner",
          "type": "address"
        },
        {
          "internalType": "string",
          "name": "_documentHash",
          "type": "string"
        },
        {
          "internalType": "string",
          "name": "_idx",
          "type": "string"
        }
      ],
      "name": "addDocument",
      "outputs": [],
      "stateMutability": "nonpayable",
      "type": "function"
    },
    {
      "inputs": [
        {
          "internalType": "uint16",
          "name": "rfpId",
          "type": "uint16"
        },
        {
          "internalType": "address",
          "name": "participant",
          "type": "address"
        }
      ],
      "name": "addParticipantToRFP",
      "outputs": [],
      "stateMutability": "nonpayable",
      "type": "function"
    },
    {
      "inputs": [
        {
          "internalType": "uint16",
          "name": "_rfpIndex",
          "type": "uint16"
        },
        {
          "internalType": "address[]",
          "name": "winners",
          "type": "address[]"
        }
      ],
      "name": "addWinnersToRFP",
      "outputs": [],
      "stateMutability": "nonpayable",
      "type": "function"
    },
    {
      "inputs": [],
      "name": "destroy",
      "outputs": [],
      "stateMutability": "nonpayable",
      "type": "function"
    },
    {
      "inputs": [
        {
          "internalType": "uint16",
          "name": "_rfpIndex",
          "type": "uint16"
        }
      ],
      "name": "getCancelDate",
      "outputs": [
        {
          "internalType": "uint256",
          "name": "",
          "type": "uint256"
        }
      ],
      "stateMutability": "view",
      "type": "function"
    },
    {
      "inputs": [
        {
          "internalType": "address",
          "name": "adminaddress",
          "type": "address"
        }
      ],
      "name": "getCompany",
      "outputs": [
        {
          "components": [
            {
              "internalType": "string",
              "name": "id",
              "type": "string"
            },
            {
              "internalType": "string",
              "name": "name",
              "type": "string"
            },
            {
              "internalType": "string",
              "name": "country",
              "type": "string"
            },
            {
              "internalType": "uint16[]",
              "name": "RFPParticipations",
              "type": "uint16[]"
            },
            {
              "internalType": "uint16[]",
              "name": "RFPsWins",
              "type": "uint16[]"
            },
            {
              "internalType": "uint16[]",
              "name": "company_RFPs",
              "type": "uint16[]"
            }
          ],
          "internalType": "struct proponShared.Company",
          "name": "",
          "type": "tuple"
        }
      ],
      "stateMutability": "view",
      "type": "function"
    },
    {
      "inputs": [
        {
          "internalType": "address",
          "name": "companyAddress",
          "type": "address"
        }
      ],
      "name": "getCompanyId",
      "outputs": [
        {
          "internalType": "string",
          "name": "",
          "type": "string"
        }
      ],
      "stateMutability": "view",
      "type": "function"
    },
    {
      "inputs": [
        {
          "internalType": "address",
          "name": "account",
          "type": "address"
        }
      ],
      "name": "getCompanyRFPs",
      "outputs": [
        {
          "internalType": "uint16[]",
          "name": "",
          "type": "uint16[]"
        }
      ],
      "stateMutability": "view",
      "type": "function"
    },
    {
      "inputs": [],
      "name": "getCompanyWins",
      "outputs": [
        {
          "internalType": "uint16[]",
          "name": "",
          "type": "uint16[]"
        }
      ],
      "stateMutability": "view",
      "type": "function"
    },
    {
      "inputs": [],
      "name": "getCreateCompanyPrice",
      "outputs": [
        {
          "internalType": "uint256",
          "name": "",
          "type": "uint256"
        }
      ],
      "stateMutability": "view",
      "type": "function"
    },
    {
      "inputs": [
        {
          "internalType": "uint16",
          "name": "_rfpIdx",
          "type": "uint16"
        }
      ],
      "name": "getDocumentsfromRFP",
      "outputs": [
        {
          "components": [
            {
              "internalType": "uint256",
              "name": "docType",
              "type": "uint256"
            },
            {
              "internalType": "string",
              "name": "name",
              "type": "string"
            },
            {
              "internalType": "address",
              "name": "owner",
              "type": "address"
            },
            {
              "internalType": "string",
              "name": "documentHash",
              "type": "string"
            },
            {
              "internalType": "string",
              "name": "idx",
              "type": "string"
            }
          ],
          "internalType": "struct proponShared.Document[]",
          "name": "",
          "type": "tuple[]"
        }
      ],
      "stateMutability": "view",
      "type": "function"
    },
    {
      "inputs": [],
      "name": "getManager",
      "outputs": [
        {
          "internalType": "address",
          "name": "",
          "type": "address"
        }
      ],
      "stateMutability": "view",
      "type": "function"
    },
    {
      "inputs": [],
      "name": "getOwner",
      "outputs": [
        {
          "internalType": "address",
          "name": "",
          "type": "address"
        }
      ],
      "stateMutability": "view",
      "type": "function"
    },
    {
      "inputs": [
        {
          "internalType": "uint16",
          "name": "rfpIdx",
          "type": "uint16"
        }
      ],
      "name": "getRFPIssuer",
      "outputs": [
        {
          "internalType": "address",
          "name": "",
          "type": "address"
        }
      ],
      "stateMutability": "view",
      "type": "function"
    },
    {
      "inputs": [
        {
          "internalType": "uint16",
          "name": "_rfpId",
          "type": "uint16"
        }
      ],
      "name": "getRFPbyIndex",
      "outputs": [
        {
          "components": [
            {
              "internalType": "string",
              "name": "name",
              "type": "string"
            },
            {
              "internalType": "string",
              "name": "description",
              "type": "string"
            },
            {
              "internalType": "uint256",
              "name": "rfpIndex",
              "type": "uint256"
            },
            {
              "internalType": "string",
              "name": "rfpwebsite",
              "type": "string"
            },
            {
              "internalType": "uint256",
              "name": "openDate",
              "type": "uint256"
            },
            {
              "internalType": "uint256",
              "name": "endReceivingDate",
              "type": "uint256"
            },
            {
              "internalType": "uint256",
              "name": "endDate",
              "type": "uint256"
            },
            {
              "internalType": "bool",
              "name": "canceled",
              "type": "bool"
            },
            {
              "internalType": "uint256",
              "name": "cancelDate",
              "type": "uint256"
            },
            {
              "internalType": "address[]",
              "name": "participants",
              "type": "address[]"
            },
            {
              "internalType": "enum proponShared.ContestType",
              "name": "contestType",
              "type": "uint8"
            },
            {
              "internalType": "string[]",
              "name": "items",
              "type": "string[]"
            },
            {
              "internalType": "address[]",
              "name": "winners",
              "type": "address[]"
            },
            {
              "internalType": "address",
              "name": "issuer",
              "type": "address"
            }
          ],
          "internalType": "struct proponShared.RFP",
          "name": "",
          "type": "tuple"
        }
      ],
      "stateMutability": "view",
      "type": "function"
    },
    {
      "inputs": [
        {
          "internalType": "bytes32",
          "name": "pair",
          "type": "bytes32"
        }
      ],
      "name": "getRfpIds",
      "outputs": [
        {
          "internalType": "bool",
          "name": "",
          "type": "bool"
        }
      ],
      "stateMutability": "view",
      "type": "function"
    },
    {
      "inputs": [
        {
          "internalType": "uint16",
          "name": "_rfpIndex",
          "type": "uint16"
        }
      ],
      "name": "getWinners",
      "outputs": [
        {
          "internalType": "address[]",
          "name": "",
          "type": "address[]"
        }
      ],
      "stateMutability": "view",
      "type": "function"
    },
    {
      "inputs": [],
      "name": "getcurrentRFPIdx",
      "outputs": [
        {
          "internalType": "uint16",
          "name": "",
          "type": "uint16"
        }
      ],
      "stateMutability": "view",
      "type": "function"
    },
    {
      "inputs": [],
      "name": "incrementRFPIdx",
      "outputs": [],
      "stateMutability": "nonpayable",
      "type": "function"
    },
    {
      "inputs": [
        {
          "internalType": "string",
          "name": "_id",
          "type": "string"
        }
      ],
      "name": "isCompanyIdTaken",
      "outputs": [
        {
          "internalType": "bool",
          "name": "",
          "type": "bool"
        }
      ],
      "stateMutability": "view",
      "type": "function"
    },
    {
      "inputs": [
        {
          "internalType": "uint16",
          "name": "rfpIdx",
          "type": "uint16"
        }
      ],
      "name": "isRFPCanceled",
      "outputs": [
        {
          "internalType": "bool",
          "name": "",
          "type": "bool"
        }
      ],
      "stateMutability": "view",
      "type": "function"
    },
    {
      "inputs": [
        {
          "internalType": "address",
          "name": "companyAddress",
          "type": "address"
        },
        {
          "internalType": "string",
          "name": "_id",
          "type": "string"
        },
        {
          "internalType": "string",
          "name": "_name",
          "type": "string"
        },
        {
          "internalType": "string",
          "name": "_country",
          "type": "string"
        }
      ],
      "name": "setCompany",
      "outputs": [],
      "stateMutability": "nonpayable",
      "type": "function"
    },
    {
      "inputs": [
        {
          "internalType": "uint256",
          "name": "_value",
          "type": "uint256"
        }
      ],
      "name": "setCreateCompanyPrice",
      "outputs": [],
      "stateMutability": "nonpayable",
      "type": "function"
    },
    {
      "inputs": [
        {
          "internalType": "uint256",
          "name": "_value",
          "type": "uint256"
        }
      ],
      "name": "setCreateInvitationRfpPrice",
      "outputs": [],
      "stateMutability": "nonpayable",
      "type": "function"
    },
    {
      "inputs": [
        {
          "internalType": "uint256",
          "name": "_value",
          "type": "uint256"
        }
      ],
      "name": "setCreateOpenRfpPrice",
      "outputs": [],
      "stateMutability": "nonpayable",
      "type": "function"
    },
    {
      "inputs": [
        {
          "internalType": "address",
          "name": "_newManager",
          "type": "address"
        }
      ],
      "name": "setManager",
      "outputs": [],
      "stateMutability": "nonpayable",
      "type": "function"
    },
    {
      "inputs": [
        {
          "internalType": "uint256",
          "name": "_value",
          "type": "uint256"
        }
      ],
      "name": "setMaxGuestInvitationTender",
      "outputs": [],
      "stateMutability": "nonpayable",
      "type": "function"
    },
    {
      "inputs": [
        {
          "internalType": "uint256",
          "name": "_value",
          "type": "uint256"
        }
      ],
      "name": "setMaxGuestOpenTender",
      "outputs": [],
      "stateMutability": "nonpayable",
      "type": "function"
    },
    {
      "inputs": [
        {
          "internalType": "address",
          "name": "_newOwner",
          "type": "address"
        }
      ],
      "name": "setOwner",
      "outputs": [],
      "stateMutability": "nonpayable",
      "type": "function"
    },
    {
      "inputs": [
        {
          "internalType": "uint16",
          "name": "rfpIdx",
          "type": "uint16"
        },
        {
          "components": [
            {
              "internalType": "string",
              "name": "name",
              "type": "string"
            },
            {
              "internalType": "string",
              "name": "description",
              "type": "string"
            },
            {
              "internalType": "uint256",
              "name": "rfpIndex",
              "type": "uint256"
            },
            {
              "internalType": "string",
              "name": "rfpwebsite",
              "type": "string"
            },
            {
              "internalType": "uint256",
              "name": "openDate",
              "type": "uint256"
            },
            {
              "internalType": "uint256",
              "name": "endReceivingDate",
              "type": "uint256"
            },
            {
              "internalType": "uint256",
              "name": "endDate",
              "type": "uint256"
            },
            {
              "internalType": "bool",
              "name": "canceled",
              "type": "bool"
            },
            {
              "internalType": "uint256",
              "name": "cancelDate",
              "type": "uint256"
            },
            {
              "internalType": "address[]",
              "name": "participants",
              "type": "address[]"
            },
            {
              "internalType": "enum proponShared.ContestType",
              "name": "contestType",
              "type": "uint8"
            },
            {
              "internalType": "string[]",
              "name": "items",
              "type": "string[]"
            },
            {
              "internalType": "address[]",
              "name": "winners",
              "type": "address[]"
            },
            {
              "internalType": "address",
              "name": "issuer",
              "type": "address"
            }
          ],
          "internalType": "struct proponShared.RFP",
          "name": "rfp",
          "type": "tuple"
        }
      ],
      "name": "setRFP",
      "outputs": [],
      "stateMutability": "nonpayable",
      "type": "function"
    },
    {
      "inputs": [
        {
          "internalType": "uint16",
          "name": "_rfpIndex",
          "type": "uint16"
        },
        {
          "internalType": "uint256",
          "name": "_cancelDate",
          "type": "uint256"
        }
      ],
      "name": "setRFPCancelDate",
      "outputs": [],
      "stateMutability": "nonpayable",
      "type": "function"
    },
    {
      "inputs": [
        {
          "internalType": "uint16",
          "name": "_rfpIndex",
          "type": "uint16"
        },
        {
          "internalType": "bool",
          "name": "_canceled",
          "type": "bool"
        }
      ],
      "name": "setRFPCanceled",
      "outputs": [],
      "stateMutability": "nonpayable",
      "type": "function"
    },
    {
      "inputs": [
        {
          "internalType": "uint256",
          "name": "_value",
          "type": "uint256"
        }
      ],
      "name": "setRegisterOpenRfpPrice",
      "outputs": [],
      "stateMutability": "nonpayable",
      "type": "function"
    },
    {
      "inputs": [
        {
          "internalType": "bytes32",
          "name": "pair",
          "type": "bytes32"
        }
      ],
      "name": "setRfpId",
      "outputs": [],
      "stateMutability": "nonpayable",
      "type": "function"
    }
  ],
  "bytecode": "0x6080604052655af3107a4000600255655af3107a400060035565b5e620f48000600455655af3107a4000600555600a600655600a6007556000600860006101000a81548161ffff021916908361ffff16021790555034801561006057600080fd5b50336000806101000a81548173ffffffffffffffffffffffffffffffffffffffff021916908373ffffffffffffffffffffffffffffffffffffffff16021790555033600160006101000a81548173ffffffffffffffffffffffffffffffffffffffff021916908373ffffffffffffffffffffffffffffffffffffffff160217905550614748806100f16000396000f3fe608060405234801561001057600080fd5b50600436106102745760003560e01c80639e7a1f6411610151578063d7a8529e116100c3578063e6d29d9411610087578063e6d29d9414610775578063ea1b4b1d146107a5578063ecbb7b4a146107c1578063ee769090146107df578063f9c3c20c146107fb578063fb7207611461081757610274565b8063d7a8529e146106e7578063da2e186014610703578063dc7aba8414610721578063e31fc5bf1461073d578063e3a1bd1c1461075957610274565b8063be2ec78611610115578063be2ec78614610613578063be38013b1461062f578063c062d64a1461064d578063d0ebdbe71461067d578063d500958414610699578063d6f343c5146106b757610274565b80639e7a1f641461053f578063a021027c1461056f578063a540c5e71461059f578063afeff8d9146105d9578063b8a4d46e146105f757610274565b80635a6167c9116101ea57806379497fb4116101ae57806379497fb41461047f57806383197ef01461049b578063893d20e8146104a55780638e2999e4146104c357806390287940146104df57806394abc4431461050f57610274565b80635a6167c9146103c95780635d9c47f5146103e757806362bc56e61461040357806367aabb1a1461043357806376d44f271461046357610274565b806333572e921161023c57806333572e921461030b57806343a2d04814610327578063466c51fc1461035757806347475a48146103735780634ccba2471461038f5780634e289b88146103ab57610274565b80631393b9e81461027957806313af4035146102975780631a3ca1d8146102b3578063215cf05d146102bd5780632aec6e5a146102db575b600080fd5b610281610835565b60405161028e9190612f69565b60405180910390f35b6102b160048036038101906102ac9190612ff6565b61084d565b005b6102bb61091e565b005b6102c56109e8565b6040516102d2919061303c565b60405180910390f35b6102f560048036038101906102f09190613083565b6109ee565b60405161030291906130bf565b60405180910390f35b610325600480360381019061032091906130da565b610a36565b005b610341600480360381019061033c9190613150565b610b52565b60405161034e9190613198565b60405180910390f35b610371600480360381019061036c91906131df565b610b7c565b005b61038d60048036038101906103889190613365565b610c16565b005b6103a960048036038101906103a491906131df565b610cdb565b005b6103b3610d75565b6040516103c0919061303c565b60405180910390f35b6103d1610d7b565b6040516103de919061303c565b60405180910390f35b61040160048036038101906103fc91906131df565b610d81565b005b61041d60048036038101906104189190612ff6565b610e1b565b60405161042a91906135b3565b60405180910390f35b61044d60048036038101906104489190612ff6565b6111aa565b60405161045a9190613644565b60405180910390f35b61047d60048036038101906104789190613666565b61126c565b005b61049960048036038101906104949190613365565b611293565b005b6104a36113ef565b005b6104ad6114b8565b6040516104ba91906130bf565b60405180910390f35b6104dd60048036038101906104d891906131df565b6114e1565b005b6104f960048036038101906104f49190613701565b61157b565b6040516105069190613198565b60405180910390f35b61052960048036038101906105249190613083565b6115b3565b604051610536919061380c565b60405180910390f35b61055960048036038101906105549190613083565b61165f565b6040516105669190613b45565b60405180910390f35b61058960048036038101906105849190613083565b611b1e565b6040516105969190613cad565b60405180910390f35b6105b960048036038101906105b49190613083565b611dae565b6040516105d09b9a99989796959493929190613d28565b60405180910390f35b6105e1611fda565b6040516105ee919061303c565b60405180910390f35b610611600480360381019061060c9190613de8565b611fe0565b005b61062d600480360381019061062891906130da565b6120fc565b005b61063761220d565b604051610644919061303c565b60405180910390f35b61066760048036038101906106629190613083565b612213565b604051610674919061303c565b60405180910390f35b61069760048036038101906106929190612ff6565b61223b565b005b6106a161230f565b6040516106ae91906130bf565b60405180910390f35b6106d160048036038101906106cc9190612ff6565b612339565b6040516106de9190613e28565b60405180910390f35b61070160048036038101906106fc91906131df565b61240d565b005b61070b6124a7565b604051610718919061303c565b60405180910390f35b61073b60048036038101906107369190614231565b6124b1565b005b6107576004803603810190610752919061428d565b6126df565b005b610773600480360381019061076e9190614348565b612839565b005b61078f600480360381019061078a9190613083565b612873565b60405161079c9190613198565b60405180910390f35b6107bf60048036038101906107ba91906131df565b6128a8565b005b6107c9612942565b6040516107d6919061303c565b60405180910390f35b6107f960048036038101906107f49190614388565b612948565b005b61081560048036038101906108109190613150565b612b0f565b005b61081f612bcc565b60405161082c9190613644565b60405180910390f35b6000600860009054906101000a900461ffff16905090565b60008054906101000a900473ffffffffffffffffffffffffffffffffffffffff1673ffffffffffffffffffffffffffffffffffffffff163373ffffffffffffffffffffffffffffffffffffffff16146108db576040517f08c379a00000000000000000000000000000000000000000000000000000000081526004016108d2906144b5565b60405180910390fd5b806000806101000a81548173ffffffffffffffffffffffffffffffffffffffff021916908373ffffffffffffffffffffffffffffffffffffffff16021790555050565b60008054906101000a900473ffffffffffffffffffffffffffffffffffffffff1673ffffffffffffffffffffffffffffffffffffffff163373ffffffffffffffffffffffffffffffffffffffff16146109ac576040517f08c379a00000000000000000000000000000000000000000000000000000000081526004016109a3906144b5565b60405180910390fd5b6001600860008282829054906101000a900461ffff166109cc9190614504565b92506101000a81548161ffff021916908361ffff160217905550565b60025481565b6000600b60008361ffff1661ffff168152602001908152602001600020600d0160009054906101000a900473ffffffffffffffffffffffffffffffffffffffff169050919050565b60008054906101000a900473ffffffffffffffffffffffffffffffffffffffff1673ffffffffffffffffffffffffffffffffffffffff163373ffffffffffffffffffffffffffffffffffffffff1614610ac4576040517f08c379a0000000000000000000000000000000000000000000000000000000008152600401610abb906144b5565b60405180910390fd5b600960008273ffffffffffffffffffffffffffffffffffffffff1673ffffffffffffffffffffffffffffffffffffffff1681526020019081526020016000206003018290806001815401808255809150506001900390600052602060002090601091828204019190066002029091909190916101000a81548161ffff021916908361ffff1602179055505050565b6000600d600083815260200190815260200160002060009054906101000a900460ff169050919050565b600160009054906101000a900473ffffffffffffffffffffffffffffffffffffffff1673ffffffffffffffffffffffffffffffffffffffff163373ffffffffffffffffffffffffffffffffffffffff1614610c0c576040517f08c379a0000000000000000000000000000000000000000000000000000000008152600401610c0390614588565b60405180910390fd5b8060028190555050565b60008054906101000a900473ffffffffffffffffffffffffffffffffffffffff1673ffffffffffffffffffffffffffffffffffffffff163373ffffffffffffffffffffffffffffffffffffffff1614610ca4576040517f08c379a0000000000000000000000000000000000000000000000000000000008152600401610c9b906144b5565b60405180910390fd5b80600b60008461ffff1661ffff168152602001908152602001600020600c019080519060200190610cd6929190612c8c565b505050565b600160009054906101000a900473ffffffffffffffffffffffffffffffffffffffff1673ffffffffffffffffffffffffffffffffffffffff163373ffffffffffffffffffffffffffffffffffffffff1614610d6b576040517f08c379a0000000000000000000000000000000000000000000000000000000008152600401610d6290614588565b60405180910390fd5b8060068190555050565b60035481565b60075481565b600160009054906101000a900473ffffffffffffffffffffffffffffffffffffffff1673ffffffffffffffffffffffffffffffffffffffff163373ffffffffffffffffffffffffffffffffffffffff1614610e11576040517f08c379a0000000000000000000000000000000000000000000000000000000008152600401610e0890614588565b60405180910390fd5b8060038190555050565b610e23612d16565b600960008373ffffffffffffffffffffffffffffffffffffffff1673ffffffffffffffffffffffffffffffffffffffff1681526020019081526020016000206040518060c0016040529081600082018054610e7d906145d7565b80601f0160208091040260200160405190810160405280929190818152602001828054610ea9906145d7565b8015610ef65780601f10610ecb57610100808354040283529160200191610ef6565b820191906000526020600020905b815481529060010190602001808311610ed957829003601f168201915b50505050508152602001600182018054610f0f906145d7565b80601f0160208091040260200160405190810160405280929190818152602001828054610f3b906145d7565b8015610f885780601f10610f5d57610100808354040283529160200191610f88565b820191906000526020600020905b815481529060010190602001808311610f6b57829003601f168201915b50505050508152602001600282018054610fa1906145d7565b80601f0160208091040260200160405190810160405280929190818152602001828054610fcd906145d7565b801561101a5780601f10610fef5761010080835404028352916020019161101a565b820191906000526020600020905b815481529060010190602001808311610ffd57829003601f168201915b505050505081526020016003820180548060200260200160405190810160405280929190818152602001828054801561109a57602002820191906000526020600020906000905b82829054906101000a900461ffff1661ffff16815260200190600201906020826001010492830192600103820291508084116110615790505b505050505081526020016004820180548060200260200160405190810160405280929190818152602001828054801561111a57602002820191906000526020600020906000905b82829054906101000a900461ffff1661ffff16815260200190600201906020826001010492830192600103820291508084116110e15790505b505050505081526020016005820180548060200260200160405190810160405280929190818152602001828054801561119a57602002820191906000526020600020906000905b82829054906101000a900461ffff1661ffff16815260200190600201906020826001010492830192600103820291508084116111615790505b5050505050815250509050919050565b6060600960008373ffffffffffffffffffffffffffffffffffffffff1673ffffffffffffffffffffffffffffffffffffffff16815260200190815260200160002060050180548060200260200160405190810160405280929190818152602001828054801561126057602002820191906000526020600020906000905b82829054906101000a900461ffff1661ffff16815260200190600201906020826001010492830192600103820291508084116112275790505b50505050509050919050565b80600b60008461ffff1661ffff168152602001908152602001600020600801819055505050565b60008054906101000a900473ffffffffffffffffffffffffffffffffffffffff1673ffffffffffffffffffffffffffffffffffffffff163373ffffffffffffffffffffffffffffffffffffffff1614611321576040517f08c379a0000000000000000000000000000000000000000000000000000000008152600401611318906144b5565b60405180910390fd5b60008151905060005b818110156113e9576009600084838151811061134957611348614609565b5b602002602001015173ffffffffffffffffffffffffffffffffffffffff1673ffffffffffffffffffffffffffffffffffffffff1681526020019081526020016000206004018490806001815401808255809150506001900390600052602060002090601091828204019190066002029091909190916101000a81548161ffff021916908361ffff16021790555080806113e190614638565b91505061132a565b50505050565b600160009054906101000a900473ffffffffffffffffffffffffffffffffffffffff1673ffffffffffffffffffffffffffffffffffffffff163373ffffffffffffffffffffffffffffffffffffffff161461147f576040517f08c379a000000000000000000000000000000000000000000000000000000000815260040161147690614588565b60405180910390fd5b60008054906101000a900473ffffffffffffffffffffffffffffffffffffffff1673ffffffffffffffffffffffffffffffffffffffff16ff5b60008060009054906101000a900473ffffffffffffffffffffffffffffffffffffffff16905090565b600160009054906101000a900473ffffffffffffffffffffffffffffffffffffffff1673ffffffffffffffffffffffffffffffffffffffff163373ffffffffffffffffffffffffffffffffffffffff1614611571576040517f08c379a000000000000000000000000000000000000000000000000000000000815260040161156890614588565b60405180910390fd5b8060078190555050565b6000600a838360405161158f9291906146b1565b908152602001604051809103902060009054906101000a900460ff16905092915050565b6060600b60008361ffff1661ffff168152602001908152602001600020600c0180548060200260200160405190810160405280929190818152602001828054801561165357602002820191906000526020600020905b8160009054906101000a900473ffffffffffffffffffffffffffffffffffffffff1673ffffffffffffffffffffffffffffffffffffffff1681526020019060010190808311611609575b50505050509050919050565b611667612d4c565b600b60008361ffff1661ffff168152602001908152602001600020604051806101c001604052908160008201805461169e906145d7565b80601f01602080910402602001604051908101604052809291908181526020018280546116ca906145d7565b80156117175780601f106116ec57610100808354040283529160200191611717565b820191906000526020600020905b8154815290600101906020018083116116fa57829003601f168201915b50505050508152602001600182018054611730906145d7565b80601f016020809104026020016040519081016040528092919081815260200182805461175c906145d7565b80156117a95780601f1061177e576101008083540402835291602001916117a9565b820191906000526020600020905b81548152906001019060200180831161178c57829003601f168201915b50505050508152602001600282015481526020016003820180546117cc906145d7565b80601f01602080910402602001604051908101604052809291908181526020018280546117f8906145d7565b80156118455780601f1061181a57610100808354040283529160200191611845565b820191906000526020600020905b81548152906001019060200180831161182857829003601f168201915b505050505081526020016004820154815260200160058201548152602001600682015481526020016007820160009054906101000a900460ff16151515158152602001600882015481526020016009820180548060200260200160405190810160405280929190818152602001828054801561191657602002820191906000526020600020905b8160009054906101000a900473ffffffffffffffffffffffffffffffffffffffff1673ffffffffffffffffffffffffffffffffffffffff16815260200190600101908083116118cc575b50505050508152602001600a820160009054906101000a900460ff166001811115611944576119436138bb565b5b6001811115611956576119556138bb565b5b8152602001600b8201805480602002602001604051908101604052809291908181526020016000905b82821015611a2b57838290600052602060002001805461199e906145d7565b80601f01602080910402602001604051908101604052809291908181526020018280546119ca906145d7565b8015611a175780601f106119ec57610100808354040283529160200191611a17565b820191906000526020600020905b8154815290600101906020018083116119fa57829003601f168201915b50505050508152602001906001019061197f565b505050508152602001600c8201805480602002602001604051908101604052809291908181526020018280548015611ab857602002820191906000526020600020905b8160009054906101000a900473ffffffffffffffffffffffffffffffffffffffff1673ffffffffffffffffffffffffffffffffffffffff1681526020019060010190808311611a6e575b50505050508152602001600d820160009054906101000a900473ffffffffffffffffffffffffffffffffffffffff1673ffffffffffffffffffffffffffffffffffffffff1673ffffffffffffffffffffffffffffffffffffffff16815250509050919050565b6060600c60008361ffff1661ffff168152602001908152602001600020805480602002602001604051908101604052809291908181526020016000905b82821015611da357838290600052602060002090600502016040518060a001604052908160008201548152602001600182018054611b98906145d7565b80601f0160208091040260200160405190810160405280929190818152602001828054611bc4906145d7565b8015611c115780601f10611be657610100808354040283529160200191611c11565b820191906000526020600020905b815481529060010190602001808311611bf457829003601f168201915b505050505081526020016002820160009054906101000a900473ffffffffffffffffffffffffffffffffffffffff1673ffffffffffffffffffffffffffffffffffffffff1673ffffffffffffffffffffffffffffffffffffffff168152602001600382018054611c80906145d7565b80601f0160208091040260200160405190810160405280929190818152602001828054611cac906145d7565b8015611cf95780601f10611cce57610100808354040283529160200191611cf9565b820191906000526020600020905b815481529060010190602001808311611cdc57829003601f168201915b50505050508152602001600482018054611d12906145d7565b80601f0160208091040260200160405190810160405280929190818152602001828054611d3e906145d7565b8015611d8b5780601f10611d6057610100808354040283529160200191611d8b565b820191906000526020600020905b815481529060010190602001808311611d6e57829003601f168201915b50505050508152505081526020019060010190611b5b565b505050509050919050565b600b602052806000526040600020600091509050806000018054611dd1906145d7565b80601f0160208091040260200160405190810160405280929190818152602001828054611dfd906145d7565b8015611e4a5780601f10611e1f57610100808354040283529160200191611e4a565b820191906000526020600020905b815481529060010190602001808311611e2d57829003601f168201915b505050505090806001018054611e5f906145d7565b80601f0160208091040260200160405190810160405280929190818152602001828054611e8b906145d7565b8015611ed85780601f10611ead57610100808354040283529160200191611ed8565b820191906000526020600020905b815481529060010190602001808311611ebb57829003601f168201915b505050505090806002015490806003018054611ef3906145d7565b80601f0160208091040260200160405190810160405280929190818152602001828054611f1f906145d7565b8015611f6c5780601f10611f4157610100808354040283529160200191611f6c565b820191906000526020600020905b815481529060010190602001808311611f4f57829003601f168201915b5050505050908060040154908060050154908060060154908060070160009054906101000a900460ff169080600801549080600a0160009054906101000a900460ff169080600d0160009054906101000a900473ffffffffffffffffffffffffffffffffffffffff1690508b565b60045481565b60008054906101000a900473ffffffffffffffffffffffffffffffffffffffff1673ffffffffffffffffffffffffffffffffffffffff163373ffffffffffffffffffffffffffffffffffffffff161461206e576040517f08c379a0000000000000000000000000000000000000000000000000000000008152600401612065906144b5565b60405180910390fd5b600960008373ffffffffffffffffffffffffffffffffffffffff1673ffffffffffffffffffffffffffffffffffffffff1681526020019081526020016000206005018190806001815401808255809150506001900390600052602060002090601091828204019190066002029091909190916101000a81548161ffff021916908361ffff1602179055505050565b60008054906101000a900473ffffffffffffffffffffffffffffffffffffffff1673ffffffffffffffffffffffffffffffffffffffff163373ffffffffffffffffffffffffffffffffffffffff161461218a576040517f08c379a0000000000000000000000000000000000000000000000000000000008152600401612181906144b5565b60405180910390fd5b600b60008361ffff1661ffff168152602001908152602001600020600901819080600181540180825580915050600190039060005260206000200160009091909190916101000a81548173ffffffffffffffffffffffffffffffffffffffff021916908373ffffffffffffffffffffffffffffffffffffffff1602179055505050565b60055481565b6000600b60008361ffff1661ffff168152602001908152602001600020600801549050919050565b600160009054906101000a900473ffffffffffffffffffffffffffffffffffffffff1673ffffffffffffffffffffffffffffffffffffffff163373ffffffffffffffffffffffffffffffffffffffff16146122cb576040517f08c379a00000000000000000000000000000000000000000000000000000000081526004016122c290614588565b60405180910390fd5b80600160006101000a81548173ffffffffffffffffffffffffffffffffffffffff021916908373ffffffffffffffffffffffffffffffffffffffff16021790555050565b6000600160009054906101000a900473ffffffffffffffffffffffffffffffffffffffff16905090565b6060600960008373ffffffffffffffffffffffffffffffffffffffff1673ffffffffffffffffffffffffffffffffffffffff1681526020019081526020016000206000018054612388906145d7565b80601f01602080910402602001604051908101604052809291908181526020018280546123b4906145d7565b80156124015780601f106123d657610100808354040283529160200191612401565b820191906000526020600020905b8154815290600101906020018083116123e457829003601f168201915b50505050509050919050565b600160009054906101000a900473ffffffffffffffffffffffffffffffffffffffff1673ffffffffffffffffffffffffffffffffffffffff163373ffffffffffffffffffffffffffffffffffffffff161461249d576040517f08c379a000000000000000000000000000000000000000000000000000000000815260040161249490614588565b60405180910390fd5b8060058190555050565b6000600254905090565b60008054906101000a900473ffffffffffffffffffffffffffffffffffffffff1673ffffffffffffffffffffffffffffffffffffffff163373ffffffffffffffffffffffffffffffffffffffff161461253f576040517f08c379a0000000000000000000000000000000000000000000000000000000008152600401612536906144b5565b60405180910390fd5b80600b60008461ffff1661ffff1681526020019081526020016000206000820151816000019080519060200190612577929190612de5565b506020820151816001019080519060200190612594929190612de5565b506040820151816002015560608201518160030190805190602001906125bb929190612de5565b506080820151816004015560a0820151816005015560c0820151816006015560e08201518160070160006101000a81548160ff0219169083151502179055506101008201518160080155610120820151816009019080519060200190612622929190612c8c565b5061014082015181600a0160006101000a81548160ff0219169083600181111561264f5761264e6138bb565b5b021790555061016082015181600b019080519060200190612671929190612e6b565b5061018082015181600c01908051906020019061268f929190612c8c565b506101a082015181600d0160006101000a81548173ffffffffffffffffffffffffffffffffffffffff021916908373ffffffffffffffffffffffffffffffffffffffff1602179055509050505050565b60008054906101000a900473ffffffffffffffffffffffffffffffffffffffff1673ffffffffffffffffffffffffffffffffffffffff163373ffffffffffffffffffffffffffffffffffffffff161461276d576040517f08c379a0000000000000000000000000000000000000000000000000000000008152600401612764906144b5565b60405180910390fd5b6000600960008673ffffffffffffffffffffffffffffffffffffffff1673ffffffffffffffffffffffffffffffffffffffff1681526020019081526020016000209050838160000190805190602001906127c8929190612de5565b50828160010190805190602001906127e1929190612de5565b50818160020190805190602001906127fa929190612de5565b506001600a8560405161280d91906146fb565b908152602001604051809103902060006101000a81548160ff0219169083151502179055505050505050565b80600b60008461ffff1661ffff16815260200190815260200160002060070160006101000a81548160ff0219169083151502179055505050565b6000600b60008361ffff1661ffff16815260200190815260200160002060070160009054906101000a900460ff169050919050565b600160009054906101000a900473ffffffffffffffffffffffffffffffffffffffff1673ffffffffffffffffffffffffffffffffffffffff163373ffffffffffffffffffffffffffffffffffffffff1614612938576040517f08c379a000000000000000000000000000000000000000000000000000000000815260040161292f90614588565b60405180910390fd5b8060048190555050565b60065481565b60008054906101000a900473ffffffffffffffffffffffffffffffffffffffff1673ffffffffffffffffffffffffffffffffffffffff163373ffffffffffffffffffffffffffffffffffffffff16146129d6576040517f08c379a00000000000000000000000000000000000000000000000000000000081526004016129cd906144b5565b60405180910390fd5b60006040518060a001604052808781526020018681526020018573ffffffffffffffffffffffffffffffffffffffff168152602001848152602001838152509050600c60008861ffff1661ffff168152602001908152602001600020819080600181540180825580915050600190039060005260206000209060050201600090919091909150600082015181600001556020820151816001019080519060200190612a82929190612de5565b5060408201518160020160006101000a81548173ffffffffffffffffffffffffffffffffffffffff021916908373ffffffffffffffffffffffffffffffffffffffff1602179055506060820151816003019080519060200190612ae6929190612de5565b506080820151816004019080519060200190612b03929190612de5565b50505050505050505050565b60008054906101000a900473ffffffffffffffffffffffffffffffffffffffff1673ffffffffffffffffffffffffffffffffffffffff163373ffffffffffffffffffffffffffffffffffffffff1614612b9d576040517f08c379a0000000000000000000000000000000000000000000000000000000008152600401612b94906144b5565b60405180910390fd5b6001600d600083815260200190815260200160002060006101000a81548160ff02191690831515021790555050565b6060600960003373ffffffffffffffffffffffffffffffffffffffff1673ffffffffffffffffffffffffffffffffffffffff168152602001908152602001600020600401805480602002602001604051908101604052809291908181526020018280548015612c8257602002820191906000526020600020906000905b82829054906101000a900461ffff1661ffff1681526020019060020190602082600101049283019260010382029150808411612c495790505b5050505050905090565b828054828255906000526020600020908101928215612d05579160200282015b82811115612d045782518260006101000a81548173ffffffffffffffffffffffffffffffffffffffff021916908373ffffffffffffffffffffffffffffffffffffffff16021790555091602001919060010190612cac565b5b509050612d129190612ecb565b5090565b6040518060c001604052806060815260200160608152602001606081526020016060815260200160608152602001606081525090565b604051806101c0016040528060608152602001606081526020016000815260200160608152602001600081526020016000815260200160008152602001600015158152602001600081526020016060815260200160006001811115612db457612db36138bb565b5b81526020016060815260200160608152602001600073ffffffffffffffffffffffffffffffffffffffff1681525090565b828054612df1906145d7565b90600052602060002090601f016020900481019282612e135760008555612e5a565b82601f10612e2c57805160ff1916838001178555612e5a565b82800160010185558215612e5a579182015b82811115612e59578251825591602001919060010190612e3e565b5b509050612e679190612ecb565b5090565b828054828255906000526020600020908101928215612eba579160200282015b82811115612eb9578251829080519060200190612ea9929190612de5565b5091602001919060010190612e8b565b5b509050612ec79190612ee8565b5090565b5b80821115612ee4576000816000905550600101612ecc565b5090565b5b80821115612f085760008181612eff9190612f0c565b50600101612ee9565b5090565b508054612f18906145d7565b6000825580601f10612f2a5750612f49565b601f016020900490600052602060002090810190612f489190612ecb565b5b50565b600061ffff82169050919050565b612f6381612f4c565b82525050565b6000602082019050612f7e6000830184612f5a565b92915050565b6000604051905090565b600080fd5b600080fd5b600073ffffffffffffffffffffffffffffffffffffffff82169050919050565b6000612fc382612f98565b9050919050565b612fd381612fb8565b8114612fde57600080fd5b50565b600081359050612ff081612fca565b92915050565b60006020828403121561300c5761300b612f8e565b5b600061301a84828501612fe1565b91505092915050565b6000819050919050565b61303681613023565b82525050565b6000602082019050613051600083018461302d565b92915050565b61306081612f4c565b811461306b57600080fd5b50565b60008135905061307d81613057565b92915050565b60006020828403121561309957613098612f8e565b5b60006130a78482850161306e565b91505092915050565b6130b981612fb8565b82525050565b60006020820190506130d460008301846130b0565b92915050565b600080604083850312156130f1576130f0612f8e565b5b60006130ff8582860161306e565b925050602061311085828601612fe1565b9150509250929050565b6000819050919050565b61312d8161311a565b811461313857600080fd5b50565b60008135905061314a81613124565b92915050565b60006020828403121561316657613165612f8e565b5b60006131748482850161313b565b91505092915050565b60008115159050919050565b6131928161317d565b82525050565b60006020820190506131ad6000830184613189565b92915050565b6131bc81613023565b81146131c757600080fd5b50565b6000813590506131d9816131b3565b92915050565b6000602082840312156131f5576131f4612f8e565b5b6000613203848285016131ca565b91505092915050565b600080fd5b6000601f19601f8301169050919050565b7f4e487b7100000000000000000000000000000000000000000000000000000000600052604160045260246000fd5b61325a82613211565b810181811067ffffffffffffffff8211171561327957613278613222565b5b80604052505050565b600061328c612f84565b90506132988282613251565b919050565b600067ffffffffffffffff8211156132b8576132b7613222565b5b602082029050602081019050919050565b600080fd5b60006132e16132dc8461329d565b613282565b90508083825260208201905060208402830185811115613304576133036132c9565b5b835b8181101561332d57806133198882612fe1565b845260208401935050602081019050613306565b5050509392505050565b600082601f83011261334c5761334b61320c565b5b813561335c8482602086016132ce565b91505092915050565b6000806040838503121561337c5761337b612f8e565b5b600061338a8582860161306e565b925050602083013567ffffffffffffffff8111156133ab576133aa612f93565b5b6133b785828601613337565b9150509250929050565b600081519050919050565b600082825260208201905092915050565b60005b838110156133fb5780820151818401526020810190506133e0565b8381111561340a576000848401525b50505050565b600061341b826133c1565b61342581856133cc565b93506134358185602086016133dd565b61343e81613211565b840191505092915050565b600081519050919050565b600082825260208201905092915050565b6000819050602082019050919050565b61347e81612f4c565b82525050565b60006134908383613475565b60208301905092915050565b6000602082019050919050565b60006134b482613449565b6134be8185613454565b93506134c983613465565b8060005b838110156134fa5781516134e18882613484565b97506134ec8361349c565b9250506001810190506134cd565b5085935050505092915050565b600060c08301600083015184820360008601526135248282613410565b9150506020830151848203602086015261353e8282613410565b915050604083015184820360408601526135588282613410565b9150506060830151848203606086015261357282826134a9565b9150506080830151848203608086015261358c82826134a9565b91505060a083015184820360a08601526135a682826134a9565b9150508091505092915050565b600060208201905081810360008301526135cd8184613507565b905092915050565b600082825260208201905092915050565b60006135f182613449565b6135fb81856135d5565b935061360683613465565b8060005b8381101561363757815161361e8882613484565b97506136298361349c565b92505060018101905061360a565b5085935050505092915050565b6000602082019050818103600083015261365e81846135e6565b905092915050565b6000806040838503121561367d5761367c612f8e565b5b600061368b8582860161306e565b925050602061369c858286016131ca565b9150509250929050565b600080fd5b60008083601f8401126136c1576136c061320c565b5b8235905067ffffffffffffffff8111156136de576136dd6136a6565b5b6020830191508360018202830111156136fa576136f96132c9565b5b9250929050565b6000806020838503121561371857613717612f8e565b5b600083013567ffffffffffffffff81111561373657613735612f93565b5b613742858286016136ab565b92509250509250929050565b600081519050919050565b600082825260208201905092915050565b6000819050602082019050919050565b61378381612fb8565b82525050565b6000613795838361377a565b60208301905092915050565b6000602082019050919050565b60006137b98261374e565b6137c38185613759565b93506137ce8361376a565b8060005b838110156137ff5781516137e68882613789565b97506137f1836137a1565b9250506001810190506137d2565b5085935050505092915050565b6000602082019050818103600083015261382681846137ae565b905092915050565b61383781613023565b82525050565b6138468161317d565b82525050565b600082825260208201905092915050565b60006138688261374e565b613872818561384c565b935061387d8361376a565b8060005b838110156138ae5781516138958882613789565b97506138a0836137a1565b925050600181019050613881565b5085935050505092915050565b7f4e487b7100000000000000000000000000000000000000000000000000000000600052602160045260246000fd5b600281106138fb576138fa6138bb565b5b50565b600081905061390c826138ea565b919050565b600061391c826138fe565b9050919050565b61392c81613911565b82525050565b600081519050919050565b600082825260208201905092915050565b6000819050602082019050919050565b600061396a8383613410565b905092915050565b6000602082019050919050565b600061398a82613932565b613994818561393d565b9350836020820285016139a68561394e565b8060005b858110156139e257848403895281516139c3858261395e565b94506139ce83613972565b925060208a019950506001810190506139aa565b50829750879550505050505092915050565b60006101c0830160008301518482036000860152613a128282613410565b91505060208301518482036020860152613a2c8282613410565b9150506040830151613a41604086018261382e565b5060608301518482036060860152613a598282613410565b9150506080830151613a6e608086018261382e565b5060a0830151613a8160a086018261382e565b5060c0830151613a9460c086018261382e565b5060e0830151613aa760e086018261383d565b50610100830151613abc61010086018261382e565b50610120830151848203610120860152613ad6828261385d565b915050610140830151613aed610140860182613923565b50610160830151848203610160860152613b07828261397f565b915050610180830151848203610180860152613b23828261385d565b9150506101a0830151613b3a6101a086018261377a565b508091505092915050565b60006020820190508181036000830152613b5f81846139f4565b905092915050565b600081519050919050565b600082825260208201905092915050565b6000819050602082019050919050565b600060a083016000830151613bab600086018261382e565b5060208301518482036020860152613bc38282613410565b9150506040830151613bd8604086018261377a565b5060608301518482036060860152613bf08282613410565b91505060808301518482036080860152613c0a8282613410565b9150508091505092915050565b6000613c238383613b93565b905092915050565b6000602082019050919050565b6000613c4382613b67565b613c4d8185613b72565b935083602082028501613c5f85613b83565b8060005b85811015613c9b5784840389528151613c7c8582613c17565b9450613c8783613c2b565b925060208a01995050600181019050613c63565b50829750879550505050505092915050565b60006020820190508181036000830152613cc78184613c38565b905092915050565b600082825260208201905092915050565b6000613ceb826133c1565b613cf58185613ccf565b9350613d058185602086016133dd565b613d0e81613211565b840191505092915050565b613d2281613911565b82525050565b6000610160820190508181036000830152613d43818e613ce0565b90508181036020830152613d57818d613ce0565b9050613d66604083018c61302d565b8181036060830152613d78818b613ce0565b9050613d87608083018a61302d565b613d9460a083018961302d565b613da160c083018861302d565b613dae60e0830187613189565b613dbc61010083018661302d565b613dca610120830185613d19565b613dd86101408301846130b0565b9c9b505050505050505050505050565b60008060408385031215613dff57613dfe612f8e565b5b6000613e0d85828601612fe1565b9250506020613e1e8582860161306e565b9150509250929050565b60006020820190508181036000830152613e428184613ce0565b905092915050565b600080fd5b600080fd5b600080fd5b600067ffffffffffffffff821115613e7457613e73613222565b5b613e7d82613211565b9050602081019050919050565b82818337600083830152505050565b6000613eac613ea784613e59565b613282565b905082815260208101848484011115613ec857613ec7613e54565b5b613ed3848285613e8a565b509392505050565b600082601f830112613ef057613eef61320c565b5b8135613f00848260208601613e99565b91505092915050565b613f128161317d565b8114613f1d57600080fd5b50565b600081359050613f2f81613f09565b92915050565b60028110613f4257600080fd5b50565b600081359050613f5481613f35565b92915050565b600067ffffffffffffffff821115613f7557613f74613222565b5b602082029050602081019050919050565b6000613f99613f9484613f5a565b613282565b90508083825260208201905060208402830185811115613fbc57613fbb6132c9565b5b835b8181101561400357803567ffffffffffffffff811115613fe157613fe061320c565b5b808601613fee8982613edb565b85526020850194505050602081019050613fbe565b5050509392505050565b600082601f8301126140225761402161320c565b5b8135614032848260208601613f86565b91505092915050565b60006101c0828403121561405257614051613e4a565b5b61405d6101c0613282565b9050600082013567ffffffffffffffff81111561407d5761407c613e4f565b5b61408984828501613edb565b600083015250602082013567ffffffffffffffff8111156140ad576140ac613e4f565b5b6140b984828501613edb565b60208301525060406140cd848285016131ca565b604083015250606082013567ffffffffffffffff8111156140f1576140f0613e4f565b5b6140fd84828501613edb565b6060830152506080614111848285016131ca565b60808301525060a0614125848285016131ca565b60a08301525060c0614139848285016131ca565b60c08301525060e061414d84828501613f20565b60e083015250610100614162848285016131ca565b6101008301525061012082013567ffffffffffffffff81111561418857614187613e4f565b5b61419484828501613337565b610120830152506101406141aa84828501613f45565b6101408301525061016082013567ffffffffffffffff8111156141d0576141cf613e4f565b5b6141dc8482850161400d565b6101608301525061018082013567ffffffffffffffff81111561420257614201613e4f565b5b61420e84828501613337565b610180830152506101a061422484828501612fe1565b6101a08301525092915050565b6000806040838503121561424857614247612f8e565b5b60006142568582860161306e565b925050602083013567ffffffffffffffff81111561427757614276612f93565b5b6142838582860161403b565b9150509250929050565b600080600080608085870312156142a7576142a6612f8e565b5b60006142b587828801612fe1565b945050602085013567ffffffffffffffff8111156142d6576142d5612f93565b5b6142e287828801613edb565b935050604085013567ffffffffffffffff81111561430357614302612f93565b5b61430f87828801613edb565b925050606085013567ffffffffffffffff8111156143305761432f612f93565b5b61433c87828801613edb565b91505092959194509250565b6000806040838503121561435f5761435e612f8e565b5b600061436d8582860161306e565b925050602061437e85828601613f20565b9150509250929050565b60008060008060008060c087890312156143a5576143a4612f8e565b5b60006143b389828a0161306e565b96505060206143c489828a016131ca565b955050604087013567ffffffffffffffff8111156143e5576143e4612f93565b5b6143f189828a01613edb565b945050606061440289828a01612fe1565b935050608087013567ffffffffffffffff81111561442357614422612f93565b5b61442f89828a01613edb565b92505060a087013567ffffffffffffffff8111156144505761444f612f93565b5b61445c89828a01613edb565b9150509295509295509295565b7f6f6e6c795f6f776e65725f616c6c6f7765640000000000000000000000000000600082015250565b600061449f601283613ccf565b91506144aa82614469565b602082019050919050565b600060208201905081810360008301526144ce81614492565b9050919050565b7f4e487b7100000000000000000000000000000000000000000000000000000000600052601160045260246000fd5b600061450f82612f4c565b915061451a83612f4c565b92508261ffff03821115614531576145306144d5565b5b828201905092915050565b7f6f6e6c795f6d616e616765725f616c6c6f776564000000000000000000000000600082015250565b6000614572601483613ccf565b915061457d8261453c565b602082019050919050565b600060208201905081810360008301526145a181614565565b9050919050565b7f4e487b7100000000000000000000000000000000000000000000000000000000600052602260045260246000fd5b600060028204905060018216806145ef57607f821691505b60208210811415614603576146026145a8565b5b50919050565b7f4e487b7100000000000000000000000000000000000000000000000000000000600052603260045260246000fd5b600061464382613023565b91507fffffffffffffffffffffffffffffffffffffffffffffffffffffffffffffffff821415614676576146756144d5565b5b600182019050919050565b600081905092915050565b60006146988385614681565b93506146a5838584613e8a565b82840190509392505050565b60006146be82848661468c565b91508190509392505050565b60006146d5826133c1565b6146df8185614681565b93506146ef8185602086016133dd565b80840191505092915050565b600061470782846146ca565b91508190509291505056fea2646970667358221220976a85b1eeccc3787c10cbaa2021042a448073c6e5c19ba08f85ec750ad79a2164736f6c63430008090033",
  "linkReferences": {},
  "deployedLinkReferences": {}
}