{
  "_format": "hh-sol-artifact-1",
  "contractName": "pro_ponData",
  "sourceName": "contracts/proponData.sol",
  "abi": [
    {
      "inputs": [],
      "stateMutability": "nonpayable",
      "type": "constructor"
    },
    {
      "inputs": [],
      "name": "CREATE_COMPANY_PRICE",
      "outputs": [
        {
          "internalType": "uint256",
          "name": "",
          "type": "uint256"
        }
      ],
      "stateMutability": "view",
      "type": "function"
    },
    {
      "inputs": [],
      "name": "CREATE_INVITATION_RFP_PRICE",
      "outputs": [
        {
          "internalType": "uint256",
          "name": "",
          "type": "uint256"
        }
      ],
      "stateMutability": "view",
      "type": "function"
    },
    {
      "inputs": [],
      "name": "CREATE_OPEN_RFP_PRICE",
      "outputs": [
        {
          "internalType": "uint256",
          "name": "",
          "type": "uint256"
        }
      ],
      "stateMutability": "view",
      "type": "function"
    },
    {
      "inputs": [],
      "name": "MAX_GUEST_INVITATION_TENDER",
      "outputs": [
        {
          "internalType": "uint256",
          "name": "",
          "type": "uint256"
        }
      ],
      "stateMutability": "view",
      "type": "function"
    },
    {
      "inputs": [],
      "name": "MAX_GUEST_OPEN_TENDER",
      "outputs": [
        {
          "internalType": "uint256",
          "name": "",
          "type": "uint256"
        }
      ],
      "stateMutability": "view",
      "type": "function"
    },
    {
      "inputs": [],
      "name": "REGISTER_OPEN_RFP_PRICE",
      "outputs": [
        {
          "internalType": "uint256",
          "name": "",
          "type": "uint256"
        }
      ],
      "stateMutability": "view",
      "type": "function"
    },
    {
      "inputs": [
        {
          "internalType": "uint16",
          "name": "",
          "type": "uint16"
        }
      ],
      "name": "RFPs",
      "outputs": [
        {
          "internalType": "string",
          "name": "name",
          "type": "string"
        },
        {
          "internalType": "string",
          "name": "description",
          "type": "string"
        },
        {
          "internalType": "uint16",
          "name": "rfpIndex",
          "type": "uint16"
        },
        {
          "internalType": "string",
          "name": "rfpwebsite",
          "type": "string"
        },
        {
          "internalType": "uint256",
          "name": "openDate",
          "type": "uint256"
        },
        {
          "internalType": "uint256",
          "name": "endReceivingDate",
          "type": "uint256"
        },
        {
          "internalType": "uint256",
          "name": "endDate",
          "type": "uint256"
        },
        {
          "internalType": "bool",
          "name": "canceled",
          "type": "bool"
        },
        {
          "internalType": "uint256",
          "name": "cancelDate",
          "type": "uint256"
        },
        {
          "internalType": "enum proponShared.ContestType",
          "name": "contestType",
          "type": "uint8"
        },
        {
          "internalType": "address",
          "name": "issuer",
          "type": "address"
        }
      ],
      "stateMutability": "view",
      "type": "function"
    },
    {
      "inputs": [
        {
          "internalType": "uint16",
          "name": "_rfpIndex",
          "type": "uint16"
        },
        {
          "internalType": "address[]",
          "name": "winners",
          "type": "address[]"
        }
      ],
      "name": "acrueWinsToCompany",
      "outputs": [],
      "stateMutability": "nonpayable",
      "type": "function"
    },
    {
      "inputs": [
        {
          "internalType": "uint16",
          "name": "_rfpIndex",
          "type": "uint16"
        },
        {
          "internalType": "address",
          "name": "company",
          "type": "address"
        }
      ],
      "name": "addCompanyParticipationinRFP",
      "outputs": [],
      "stateMutability": "nonpayable",
      "type": "function"
    },
    {
      "inputs": [
        {
          "internalType": "address",
          "name": "companyAddress",
          "type": "address"
        },
        {
          "internalType": "uint16",
          "name": "rfpIdx",
          "type": "uint16"
        }
      ],
      "name": "addCompanyRFP",
      "outputs": [],
      "stateMutability": "nonpayable",
      "type": "function"
    },
    {
      "inputs": [
        {
          "internalType": "uint16",
          "name": "_rfpIdx",
          "type": "uint16"
        },
        {
          "internalType": "uint256",
          "name": "_docType",
          "type": "uint256"
        },
        {
          "internalType": "string",
          "name": "_name",
          "type": "string"
        },
        {
          "internalType": "address",
          "name": "_owner",
          "type": "address"
        },
        {
          "internalType": "string",
          "name": "_documentHash",
          "type": "string"
        },
        {
          "internalType": "string",
          "name": "_idx",
          "type": "string"
        }
      ],
      "name": "addDocument",
      "outputs": [],
      "stateMutability": "nonpayable",
      "type": "function"
    },
    {
      "inputs": [
        {
          "internalType": "uint16",
          "name": "rfpId",
          "type": "uint16"
        },
        {
          "internalType": "address",
          "name": "participant",
          "type": "address"
        }
      ],
      "name": "addParticipantToRFP",
      "outputs": [],
      "stateMutability": "nonpayable",
      "type": "function"
    },
    {
      "inputs": [
        {
          "internalType": "uint16",
          "name": "_rfpIndex",
          "type": "uint16"
        },
        {
          "internalType": "address[]",
          "name": "winners",
          "type": "address[]"
        }
      ],
      "name": "addWinnersToRFP",
      "outputs": [],
      "stateMutability": "nonpayable",
      "type": "function"
    },
    {
      "inputs": [],
      "name": "destroy",
      "outputs": [],
      "stateMutability": "nonpayable",
      "type": "function"
    },
    {
      "inputs": [
        {
          "internalType": "uint16",
          "name": "_rfpIndex",
          "type": "uint16"
        }
      ],
      "name": "getCancelDate",
      "outputs": [
        {
          "internalType": "uint256",
          "name": "",
          "type": "uint256"
        }
      ],
      "stateMutability": "view",
      "type": "function"
    },
    {
      "inputs": [
        {
          "internalType": "address",
          "name": "adminaddress",
          "type": "address"
        }
      ],
      "name": "getCompany",
      "outputs": [
        {
          "components": [
            {
              "internalType": "string",
              "name": "id",
              "type": "string"
            },
            {
              "internalType": "string",
              "name": "name",
              "type": "string"
            },
            {
              "internalType": "string",
              "name": "country",
              "type": "string"
            },
            {
              "internalType": "uint16[]",
              "name": "RFPParticipations",
              "type": "uint16[]"
            },
            {
              "internalType": "uint16[]",
              "name": "RFPsWins",
              "type": "uint16[]"
            },
            {
              "internalType": "uint16[]",
              "name": "company_RFPs",
              "type": "uint16[]"
            }
          ],
          "internalType": "struct proponShared.Company",
          "name": "",
          "type": "tuple"
        }
      ],
      "stateMutability": "view",
      "type": "function"
    },
    {
      "inputs": [
        {
          "internalType": "address",
          "name": "companyAddress",
          "type": "address"
        }
      ],
      "name": "getCompanyId",
      "outputs": [
        {
          "internalType": "string",
          "name": "",
          "type": "string"
        }
      ],
      "stateMutability": "view",
      "type": "function"
    },
    {
      "inputs": [
        {
          "internalType": "address",
          "name": "account",
          "type": "address"
        }
      ],
      "name": "getCompanyRFPs",
      "outputs": [
        {
          "internalType": "uint16[]",
          "name": "",
          "type": "uint16[]"
        }
      ],
      "stateMutability": "view",
      "type": "function"
    },
    {
      "inputs": [],
      "name": "getCompanyWins",
      "outputs": [
        {
          "internalType": "uint16[]",
          "name": "",
          "type": "uint16[]"
        }
      ],
      "stateMutability": "view",
      "type": "function"
    },
    {
      "inputs": [
        {
          "internalType": "uint16",
          "name": "_rfpIdx",
          "type": "uint16"
        }
      ],
      "name": "getDocumentsfromRFP",
      "outputs": [
        {
          "components": [
            {
              "internalType": "uint256",
              "name": "docType",
              "type": "uint256"
            },
            {
              "internalType": "string",
              "name": "name",
              "type": "string"
            },
            {
              "internalType": "address",
              "name": "owner",
              "type": "address"
            },
            {
              "internalType": "string",
              "name": "documentHash",
              "type": "string"
            },
            {
              "internalType": "string",
              "name": "idx",
              "type": "string"
            }
          ],
          "internalType": "struct proponShared.Document[]",
          "name": "",
          "type": "tuple[]"
        }
      ],
      "stateMutability": "view",
      "type": "function"
    },
    {
      "inputs": [],
      "name": "getManager",
      "outputs": [
        {
          "internalType": "address",
          "name": "",
          "type": "address"
        }
      ],
      "stateMutability": "view",
      "type": "function"
    },
    {
      "inputs": [],
      "name": "getOwner",
      "outputs": [
        {
          "internalType": "address",
          "name": "",
          "type": "address"
        }
      ],
      "stateMutability": "view",
      "type": "function"
    },
    {
      "inputs": [
        {
          "internalType": "uint16",
          "name": "rfpIdx",
          "type": "uint16"
        }
      ],
      "name": "getRFPIssuer",
      "outputs": [
        {
          "internalType": "address",
          "name": "",
          "type": "address"
        }
      ],
      "stateMutability": "view",
      "type": "function"
    },
    {
      "inputs": [
        {
          "internalType": "uint16",
          "name": "_rfpId",
          "type": "uint16"
        }
      ],
      "name": "getRFPbyIndex",
      "outputs": [
        {
          "components": [
            {
              "internalType": "string",
              "name": "name",
              "type": "string"
            },
            {
              "internalType": "string",
              "name": "description",
              "type": "string"
            },
            {
              "internalType": "uint16",
              "name": "rfpIndex",
              "type": "uint16"
            },
            {
              "internalType": "string",
              "name": "rfpwebsite",
              "type": "string"
            },
            {
              "internalType": "uint256",
              "name": "openDate",
              "type": "uint256"
            },
            {
              "internalType": "uint256",
              "name": "endReceivingDate",
              "type": "uint256"
            },
            {
              "internalType": "uint256",
              "name": "endDate",
              "type": "uint256"
            },
            {
              "internalType": "bool",
              "name": "canceled",
              "type": "bool"
            },
            {
              "internalType": "uint256",
              "name": "cancelDate",
              "type": "uint256"
            },
            {
              "internalType": "address[]",
              "name": "participants",
              "type": "address[]"
            },
            {
              "internalType": "enum proponShared.ContestType",
              "name": "contestType",
              "type": "uint8"
            },
            {
              "internalType": "string[]",
              "name": "items",
              "type": "string[]"
            },
            {
              "internalType": "address[]",
              "name": "winners",
              "type": "address[]"
            },
            {
              "internalType": "address",
              "name": "issuer",
              "type": "address"
            }
          ],
          "internalType": "struct proponShared.RFP",
          "name": "",
          "type": "tuple"
        }
      ],
      "stateMutability": "view",
      "type": "function"
    },
    {
      "inputs": [
        {
          "internalType": "bytes32",
          "name": "pair",
          "type": "bytes32"
        }
      ],
      "name": "getRfpIds",
      "outputs": [
        {
          "internalType": "bool",
          "name": "",
          "type": "bool"
        }
      ],
      "stateMutability": "view",
      "type": "function"
    },
    {
      "inputs": [
        {
          "internalType": "uint16",
          "name": "_rfpIndex",
          "type": "uint16"
        }
      ],
      "name": "getWinners",
      "outputs": [
        {
          "internalType": "address[]",
          "name": "",
          "type": "address[]"
        }
      ],
      "stateMutability": "view",
      "type": "function"
    },
    {
      "inputs": [],
      "name": "getcurrentRFPIdx",
      "outputs": [
        {
          "internalType": "uint16",
          "name": "",
          "type": "uint16"
        }
      ],
      "stateMutability": "view",
      "type": "function"
    },
    {
      "inputs": [],
      "name": "incrementRFPIdx",
      "outputs": [],
      "stateMutability": "nonpayable",
      "type": "function"
    },
    {
      "inputs": [
        {
          "internalType": "string",
          "name": "_id",
          "type": "string"
        }
      ],
      "name": "isCompanyIdTaken",
      "outputs": [
        {
          "internalType": "bool",
          "name": "",
          "type": "bool"
        }
      ],
      "stateMutability": "view",
      "type": "function"
    },
    {
      "inputs": [
        {
          "internalType": "uint16",
          "name": "rfpIdx",
          "type": "uint16"
        }
      ],
      "name": "isRFPCanceled",
      "outputs": [
        {
          "internalType": "bool",
          "name": "",
          "type": "bool"
        }
      ],
      "stateMutability": "view",
      "type": "function"
    },
    {
      "inputs": [
        {
          "internalType": "address",
          "name": "companyAddress",
          "type": "address"
        },
        {
          "internalType": "string",
          "name": "_id",
          "type": "string"
        },
        {
          "internalType": "string",
          "name": "_name",
          "type": "string"
        },
        {
          "internalType": "string",
          "name": "_country",
          "type": "string"
        }
      ],
      "name": "setCompany",
      "outputs": [],
      "stateMutability": "nonpayable",
      "type": "function"
    },
    {
      "inputs": [
        {
          "internalType": "uint256",
          "name": "_value",
          "type": "uint256"
        }
      ],
      "name": "setCreateCompanyPrice",
      "outputs": [],
      "stateMutability": "nonpayable",
      "type": "function"
    },
    {
      "inputs": [
        {
          "internalType": "uint256",
          "name": "_value",
          "type": "uint256"
        }
      ],
      "name": "setCreateInvitationRfpPrice",
      "outputs": [],
      "stateMutability": "nonpayable",
      "type": "function"
    },
    {
      "inputs": [
        {
          "internalType": "uint256",
          "name": "_value",
          "type": "uint256"
        }
      ],
      "name": "setCreateOpenRfpPrice",
      "outputs": [],
      "stateMutability": "nonpayable",
      "type": "function"
    },
    {
      "inputs": [
        {
          "internalType": "address",
          "name": "_newManager",
          "type": "address"
        }
      ],
      "name": "setManager",
      "outputs": [],
      "stateMutability": "nonpayable",
      "type": "function"
    },
    {
      "inputs": [
        {
          "internalType": "uint256",
          "name": "_value",
          "type": "uint256"
        }
      ],
      "name": "setMaxGuestInvitationTender",
      "outputs": [],
      "stateMutability": "nonpayable",
      "type": "function"
    },
    {
      "inputs": [
        {
          "internalType": "uint256",
          "name": "_value",
          "type": "uint256"
        }
      ],
      "name": "setMaxGuestOpenTender",
      "outputs": [],
      "stateMutability": "nonpayable",
      "type": "function"
    },
    {
      "inputs": [
        {
          "internalType": "address",
          "name": "_newOwner",
          "type": "address"
        }
      ],
      "name": "setOwner",
      "outputs": [],
      "stateMutability": "nonpayable",
      "type": "function"
    },
    {
      "inputs": [
        {
          "internalType": "uint16",
          "name": "rfpIdx",
          "type": "uint16"
        },
        {
          "components": [
            {
              "internalType": "string",
              "name": "name",
              "type": "string"
            },
            {
              "internalType": "string",
              "name": "description",
              "type": "string"
            },
            {
              "internalType": "uint16",
              "name": "rfpIndex",
              "type": "uint16"
            },
            {
              "internalType": "string",
              "name": "rfpwebsite",
              "type": "string"
            },
            {
              "internalType": "uint256",
              "name": "openDate",
              "type": "uint256"
            },
            {
              "internalType": "uint256",
              "name": "endReceivingDate",
              "type": "uint256"
            },
            {
              "internalType": "uint256",
              "name": "endDate",
              "type": "uint256"
            },
            {
              "internalType": "bool",
              "name": "canceled",
              "type": "bool"
            },
            {
              "internalType": "uint256",
              "name": "cancelDate",
              "type": "uint256"
            },
            {
              "internalType": "address[]",
              "name": "participants",
              "type": "address[]"
            },
            {
              "internalType": "enum proponShared.ContestType",
              "name": "contestType",
              "type": "uint8"
            },
            {
              "internalType": "string[]",
              "name": "items",
              "type": "string[]"
            },
            {
              "internalType": "address[]",
              "name": "winners",
              "type": "address[]"
            },
            {
              "internalType": "address",
              "name": "issuer",
              "type": "address"
            }
          ],
          "internalType": "struct proponShared.RFP",
          "name": "rfp",
          "type": "tuple"
        }
      ],
      "name": "setRFP",
      "outputs": [],
      "stateMutability": "nonpayable",
      "type": "function"
    },
    {
      "inputs": [
        {
          "internalType": "uint16",
          "name": "_rfpIndex",
          "type": "uint16"
        },
        {
          "internalType": "uint256",
          "name": "_cancelDate",
          "type": "uint256"
        }
      ],
      "name": "setRFPCancelDate",
      "outputs": [],
      "stateMutability": "nonpayable",
      "type": "function"
    },
    {
      "inputs": [
        {
          "internalType": "uint16",
          "name": "_rfpIndex",
          "type": "uint16"
        },
        {
          "internalType": "bool",
          "name": "_canceled",
          "type": "bool"
        }
      ],
      "name": "setRFPCanceled",
      "outputs": [],
      "stateMutability": "nonpayable",
      "type": "function"
    },
    {
      "inputs": [
        {
          "internalType": "uint256",
          "name": "_value",
          "type": "uint256"
        }
      ],
      "name": "setRegisterOpenRfpPrice",
      "outputs": [],
      "stateMutability": "nonpayable",
      "type": "function"
    },
    {
      "inputs": [
        {
          "internalType": "bytes32",
          "name": "pair",
          "type": "bytes32"
        }
      ],
      "name": "setRfpId",
      "outputs": [],
      "stateMutability": "nonpayable",
      "type": "function"
    }
  ],
  "bytecode": "0x6080604052655af3107a4000600255655af3107a400060035565b5e620f48000600455655af3107a4000600555600a600655600a6007556000600860006101000a81548161ffff021916908361ffff16021790555034801561006057600080fd5b50336000806101000a81548173ffffffffffffffffffffffffffffffffffffffff021916908373ffffffffffffffffffffffffffffffffffffffff16021790555033600160006101000a81548173ffffffffffffffffffffffffffffffffffffffff021916908373ffffffffffffffffffffffffffffffffffffffff160217905550614755806100f16000396000f3fe608060405234801561001057600080fd5b50600436106102685760003560e01c80639028794011610151578063d5009584116100c3578063e6d29d9411610087578063e6d29d941461074b578063ea1b4b1d1461077b578063ecbb7b4a14610797578063ee769090146107b5578063f9c3c20c146107d1578063fb720761146107ed57610268565b8063d5009584146106a9578063d6f343c5146106c7578063d7a8529e146106f7578063e31fc5bf14610713578063e3a1bd1c1461072f57610268565b8063afeff8d911610115578063afeff8d9146105e9578063b8a4d46e14610607578063be2ec78614610623578063be38013b1461063f578063c062d64a1461065d578063d0ebdbe71461068d57610268565b806390287940146104ef57806394abc4431461051f5780639e7a1f641461054f578063a021027c1461057f578063a540c5e7146105af57610268565b80634ccba247116101ea57806367aabb1a116101ae57806367aabb1a1461044357806376d44f271461047357806379497fb41461048f57806383197ef0146104ab578063893d20e8146104b55780638e2999e4146104d357610268565b80634ccba2471461039f5780634e289b88146103bb5780635a6167c9146103d95780635d9c47f5146103f757806362bc56e61461041357610268565b80632aec6e5a116102315780632aec6e5a146102eb57806333572e921461031b57806343a2d04814610337578063466c51fc1461036757806347475a481461038357610268565b80626189211461026d5780631393b9e81461028957806313af4035146102a75780631a3ca1d8146102c3578063215cf05d146102cd575b600080fd5b61028760048036038101906102829190613587565b61080b565b005b610291610a52565b60405161029e91906135f2565b60405180910390f35b6102c160048036038101906102bc919061360d565b610a6a565b005b6102cb610b3b565b005b6102d5610c05565b6040516102e29190613649565b60405180910390f35b61030560048036038101906103009190613664565b610c0b565b60405161031291906136a0565b60405180910390f35b610335600480360381019061033091906136bb565b610c53565b005b610351600480360381019061034c9190613731565b610d6f565b60405161035e919061376d565b60405180910390f35b610381600480360381019061037c9190613788565b610d99565b005b61039d600480360381019061039891906137b5565b610e33565b005b6103b960048036038101906103b49190613788565b610ef8565b005b6103c3610f92565b6040516103d09190613649565b60405180910390f35b6103e1610f98565b6040516103ee9190613649565b60405180910390f35b610411600480360381019061040c9190613788565b610f9e565b005b61042d6004803603810190610428919061360d565b611038565b60405161043a9190613a03565b60405180910390f35b61045d6004803603810190610458919061360d565b6113c7565b60405161046a9190613a94565b60405180910390f35b61048d60048036038101906104889190613ab6565b611489565b005b6104a960048036038101906104a491906137b5565b6114b0565b005b6104b361160c565b005b6104bd6116d5565b6040516104ca91906136a0565b60405180910390f35b6104ed60048036038101906104e89190613788565b6116fe565b005b61050960048036038101906105049190613b51565b611798565b604051610516919061376d565b60405180910390f35b61053960048036038101906105349190613664565b6117d0565b6040516105469190613c5c565b60405180910390f35b61056960048036038101906105649190613664565b61187c565b6040516105769190613f95565b60405180910390f35b61059960048036038101906105949190613664565b611d51565b6040516105a691906140fd565b60405180910390f35b6105c960048036038101906105c49190613664565b611fe1565b6040516105e09b9a99989796959493929190614178565b60405180910390f35b6105f161221b565b6040516105fe9190613649565b60405180910390f35b610621600480360381019061061c9190614238565b612221565b005b61063d600480360381019061063891906136bb565b61233d565b005b61064761244e565b6040516106549190613649565b60405180910390f35b61067760048036038101906106729190613664565b612454565b6040516106849190613649565b60405180910390f35b6106a760048036038101906106a2919061360d565b61247c565b005b6106b1612550565b6040516106be91906136a0565b60405180910390f35b6106e160048036038101906106dc919061360d565b61257a565b6040516106ee9190614278565b60405180910390f35b610711600480360381019061070c9190613788565b61264e565b005b61072d6004803603810190610728919061429a565b6126e8565b005b61074960048036038101906107449190614355565b612842565b005b61076560048036038101906107609190613664565b61287c565b604051610772919061376d565b60405180910390f35b61079560048036038101906107909190613788565b6128b1565b005b61079f61294b565b6040516107ac9190613649565b60405180910390f35b6107cf60048036038101906107ca9190614395565b612951565b005b6107eb60048036038101906107e69190613731565b612b18565b005b6107f5612bd5565b6040516108029190613a94565b60405180910390f35b60008054906101000a900473ffffffffffffffffffffffffffffffffffffffff1673ffffffffffffffffffffffffffffffffffffffff163373ffffffffffffffffffffffffffffffffffffffff1614610899576040517f08c379a0000000000000000000000000000000000000000000000000000000008152600401610890906144c2565b60405180910390fd5b80600b60008461ffff1661ffff16815260200190815260200160002060008201518160000190805190602001906108d1929190612c95565b5060208201518160010190805190602001906108ee929190612c95565b5060408201518160020160006101000a81548161ffff021916908361ffff160217905550606082015181600301908051906020019061092e929190612c95565b506080820151816004015560a0820151816005015560c0820151816006015560e08201518160070160006101000a81548160ff0219169083151502179055506101008201518160080155610120820151816009019080519060200190610995929190612d1b565b5061014082015181600a0160006101000a81548160ff021916908360018111156109c2576109c1613d0b565b5b021790555061016082015181600b0190805190602001906109e4929190612da5565b5061018082015181600c019080519060200190610a02929190612d1b565b506101a082015181600d0160006101000a81548173ffffffffffffffffffffffffffffffffffffffff021916908373ffffffffffffffffffffffffffffffffffffffff1602179055509050505050565b6000600860009054906101000a900461ffff16905090565b60008054906101000a900473ffffffffffffffffffffffffffffffffffffffff1673ffffffffffffffffffffffffffffffffffffffff163373ffffffffffffffffffffffffffffffffffffffff1614610af8576040517f08c379a0000000000000000000000000000000000000000000000000000000008152600401610aef906144c2565b60405180910390fd5b806000806101000a81548173ffffffffffffffffffffffffffffffffffffffff021916908373ffffffffffffffffffffffffffffffffffffffff16021790555050565b60008054906101000a900473ffffffffffffffffffffffffffffffffffffffff1673ffffffffffffffffffffffffffffffffffffffff163373ffffffffffffffffffffffffffffffffffffffff1614610bc9576040517f08c379a0000000000000000000000000000000000000000000000000000000008152600401610bc0906144c2565b60405180910390fd5b6001600860008282829054906101000a900461ffff16610be99190614511565b92506101000a81548161ffff021916908361ffff160217905550565b60025481565b6000600b60008361ffff1661ffff168152602001908152602001600020600d0160009054906101000a900473ffffffffffffffffffffffffffffffffffffffff169050919050565b60008054906101000a900473ffffffffffffffffffffffffffffffffffffffff1673ffffffffffffffffffffffffffffffffffffffff163373ffffffffffffffffffffffffffffffffffffffff1614610ce1576040517f08c379a0000000000000000000000000000000000000000000000000000000008152600401610cd8906144c2565b60405180910390fd5b600960008273ffffffffffffffffffffffffffffffffffffffff1673ffffffffffffffffffffffffffffffffffffffff1681526020019081526020016000206003018290806001815401808255809150506001900390600052602060002090601091828204019190066002029091909190916101000a81548161ffff021916908361ffff1602179055505050565b6000600d600083815260200190815260200160002060009054906101000a900460ff169050919050565b600160009054906101000a900473ffffffffffffffffffffffffffffffffffffffff1673ffffffffffffffffffffffffffffffffffffffff163373ffffffffffffffffffffffffffffffffffffffff1614610e29576040517f08c379a0000000000000000000000000000000000000000000000000000000008152600401610e2090614595565b60405180910390fd5b8060028190555050565b60008054906101000a900473ffffffffffffffffffffffffffffffffffffffff1673ffffffffffffffffffffffffffffffffffffffff163373ffffffffffffffffffffffffffffffffffffffff1614610ec1576040517f08c379a0000000000000000000000000000000000000000000000000000000008152600401610eb8906144c2565b60405180910390fd5b80600b60008461ffff1661ffff168152602001908152602001600020600c019080519060200190610ef3929190612d1b565b505050565b600160009054906101000a900473ffffffffffffffffffffffffffffffffffffffff1673ffffffffffffffffffffffffffffffffffffffff163373ffffffffffffffffffffffffffffffffffffffff1614610f88576040517f08c379a0000000000000000000000000000000000000000000000000000000008152600401610f7f90614595565b60405180910390fd5b8060068190555050565b60035481565b60075481565b600160009054906101000a900473ffffffffffffffffffffffffffffffffffffffff1673ffffffffffffffffffffffffffffffffffffffff163373ffffffffffffffffffffffffffffffffffffffff161461102e576040517f08c379a000000000000000000000000000000000000000000000000000000000815260040161102590614595565b60405180910390fd5b8060038190555050565b611040612e05565b600960008373ffffffffffffffffffffffffffffffffffffffff1673ffffffffffffffffffffffffffffffffffffffff1681526020019081526020016000206040518060c001604052908160008201805461109a906145e4565b80601f01602080910402602001604051908101604052809291908181526020018280546110c6906145e4565b80156111135780601f106110e857610100808354040283529160200191611113565b820191906000526020600020905b8154815290600101906020018083116110f657829003601f168201915b5050505050815260200160018201805461112c906145e4565b80601f0160208091040260200160405190810160405280929190818152602001828054611158906145e4565b80156111a55780601f1061117a576101008083540402835291602001916111a5565b820191906000526020600020905b81548152906001019060200180831161118857829003601f168201915b505050505081526020016002820180546111be906145e4565b80601f01602080910402602001604051908101604052809291908181526020018280546111ea906145e4565b80156112375780601f1061120c57610100808354040283529160200191611237565b820191906000526020600020905b81548152906001019060200180831161121a57829003601f168201915b50505050508152602001600382018054806020026020016040519081016040528092919081815260200182805480156112b757602002820191906000526020600020906000905b82829054906101000a900461ffff1661ffff168152602001906002019060208260010104928301926001038202915080841161127e5790505b505050505081526020016004820180548060200260200160405190810160405280929190818152602001828054801561133757602002820191906000526020600020906000905b82829054906101000a900461ffff1661ffff16815260200190600201906020826001010492830192600103820291508084116112fe5790505b50505050508152602001600582018054806020026020016040519081016040528092919081815260200182805480156113b757602002820191906000526020600020906000905b82829054906101000a900461ffff1661ffff168152602001906002019060208260010104928301926001038202915080841161137e5790505b5050505050815250509050919050565b6060600960008373ffffffffffffffffffffffffffffffffffffffff1673ffffffffffffffffffffffffffffffffffffffff16815260200190815260200160002060050180548060200260200160405190810160405280929190818152602001828054801561147d57602002820191906000526020600020906000905b82829054906101000a900461ffff1661ffff16815260200190600201906020826001010492830192600103820291508084116114445790505b50505050509050919050565b80600b60008461ffff1661ffff168152602001908152602001600020600801819055505050565b60008054906101000a900473ffffffffffffffffffffffffffffffffffffffff1673ffffffffffffffffffffffffffffffffffffffff163373ffffffffffffffffffffffffffffffffffffffff161461153e576040517f08c379a0000000000000000000000000000000000000000000000000000000008152600401611535906144c2565b60405180910390fd5b60008151905060005b81811015611606576009600084838151811061156657611565614616565b5b602002602001015173ffffffffffffffffffffffffffffffffffffffff1673ffffffffffffffffffffffffffffffffffffffff1681526020019081526020016000206004018490806001815401808255809150506001900390600052602060002090601091828204019190066002029091909190916101000a81548161ffff021916908361ffff16021790555080806115fe90614645565b915050611547565b50505050565b600160009054906101000a900473ffffffffffffffffffffffffffffffffffffffff1673ffffffffffffffffffffffffffffffffffffffff163373ffffffffffffffffffffffffffffffffffffffff161461169c576040517f08c379a000000000000000000000000000000000000000000000000000000000815260040161169390614595565b60405180910390fd5b60008054906101000a900473ffffffffffffffffffffffffffffffffffffffff1673ffffffffffffffffffffffffffffffffffffffff16ff5b60008060009054906101000a900473ffffffffffffffffffffffffffffffffffffffff16905090565b600160009054906101000a900473ffffffffffffffffffffffffffffffffffffffff1673ffffffffffffffffffffffffffffffffffffffff163373ffffffffffffffffffffffffffffffffffffffff161461178e576040517f08c379a000000000000000000000000000000000000000000000000000000000815260040161178590614595565b60405180910390fd5b8060078190555050565b6000600a83836040516117ac9291906146be565b908152602001604051809103902060009054906101000a900460ff16905092915050565b6060600b60008361ffff1661ffff168152602001908152602001600020600c0180548060200260200160405190810160405280929190818152602001828054801561187057602002820191906000526020600020905b8160009054906101000a900473ffffffffffffffffffffffffffffffffffffffff1673ffffffffffffffffffffffffffffffffffffffff1681526020019060010190808311611826575b50505050509050919050565b611884612e3b565b600b60008361ffff1661ffff168152602001908152602001600020604051806101c00160405290816000820180546118bb906145e4565b80601f01602080910402602001604051908101604052809291908181526020018280546118e7906145e4565b80156119345780601f1061190957610100808354040283529160200191611934565b820191906000526020600020905b81548152906001019060200180831161191757829003601f168201915b5050505050815260200160018201805461194d906145e4565b80601f0160208091040260200160405190810160405280929190818152602001828054611979906145e4565b80156119c65780601f1061199b576101008083540402835291602001916119c6565b820191906000526020600020905b8154815290600101906020018083116119a957829003601f168201915b505050505081526020016002820160009054906101000a900461ffff1661ffff1661ffff1681526020016003820180546119ff906145e4565b80601f0160208091040260200160405190810160405280929190818152602001828054611a2b906145e4565b8015611a785780601f10611a4d57610100808354040283529160200191611a78565b820191906000526020600020905b815481529060010190602001808311611a5b57829003601f168201915b505050505081526020016004820154815260200160058201548152602001600682015481526020016007820160009054906101000a900460ff161515151581526020016008820154815260200160098201805480602002602001604051908101604052809291908181526020018280548015611b4957602002820191906000526020600020905b8160009054906101000a900473ffffffffffffffffffffffffffffffffffffffff1673ffffffffffffffffffffffffffffffffffffffff1681526020019060010190808311611aff575b50505050508152602001600a820160009054906101000a900460ff166001811115611b7757611b76613d0b565b5b6001811115611b8957611b88613d0b565b5b8152602001600b8201805480602002602001604051908101604052809291908181526020016000905b82821015611c5e578382906000526020600020018054611bd1906145e4565b80601f0160208091040260200160405190810160405280929190818152602001828054611bfd906145e4565b8015611c4a5780601f10611c1f57610100808354040283529160200191611c4a565b820191906000526020600020905b815481529060010190602001808311611c2d57829003601f168201915b505050505081526020019060010190611bb2565b505050508152602001600c8201805480602002602001604051908101604052809291908181526020018280548015611ceb57602002820191906000526020600020905b8160009054906101000a900473ffffffffffffffffffffffffffffffffffffffff1673ffffffffffffffffffffffffffffffffffffffff1681526020019060010190808311611ca1575b50505050508152602001600d820160009054906101000a900473ffffffffffffffffffffffffffffffffffffffff1673ffffffffffffffffffffffffffffffffffffffff1673ffffffffffffffffffffffffffffffffffffffff16815250509050919050565b6060600c60008361ffff1661ffff168152602001908152602001600020805480602002602001604051908101604052809291908181526020016000905b82821015611fd657838290600052602060002090600502016040518060a001604052908160008201548152602001600182018054611dcb906145e4565b80601f0160208091040260200160405190810160405280929190818152602001828054611df7906145e4565b8015611e445780601f10611e1957610100808354040283529160200191611e44565b820191906000526020600020905b815481529060010190602001808311611e2757829003601f168201915b505050505081526020016002820160009054906101000a900473ffffffffffffffffffffffffffffffffffffffff1673ffffffffffffffffffffffffffffffffffffffff1673ffffffffffffffffffffffffffffffffffffffff168152602001600382018054611eb3906145e4565b80601f0160208091040260200160405190810160405280929190818152602001828054611edf906145e4565b8015611f2c5780601f10611f0157610100808354040283529160200191611f2c565b820191906000526020600020905b815481529060010190602001808311611f0f57829003601f168201915b50505050508152602001600482018054611f45906145e4565b80601f0160208091040260200160405190810160405280929190818152602001828054611f71906145e4565b8015611fbe5780601f10611f9357610100808354040283529160200191611fbe565b820191906000526020600020905b815481529060010190602001808311611fa157829003601f168201915b50505050508152505081526020019060010190611d8e565b505050509050919050565b600b602052806000526040600020600091509050806000018054612004906145e4565b80601f0160208091040260200160405190810160405280929190818152602001828054612030906145e4565b801561207d5780601f106120525761010080835404028352916020019161207d565b820191906000526020600020905b81548152906001019060200180831161206057829003601f168201915b505050505090806001018054612092906145e4565b80601f01602080910402602001604051908101604052809291908181526020018280546120be906145e4565b801561210b5780601f106120e05761010080835404028352916020019161210b565b820191906000526020600020905b8154815290600101906020018083116120ee57829003601f168201915b5050505050908060020160009054906101000a900461ffff1690806003018054612134906145e4565b80601f0160208091040260200160405190810160405280929190818152602001828054612160906145e4565b80156121ad5780601f10612182576101008083540402835291602001916121ad565b820191906000526020600020905b81548152906001019060200180831161219057829003601f168201915b5050505050908060040154908060050154908060060154908060070160009054906101000a900460ff169080600801549080600a0160009054906101000a900460ff169080600d0160009054906101000a900473ffffffffffffffffffffffffffffffffffffffff1690508b565b60045481565b60008054906101000a900473ffffffffffffffffffffffffffffffffffffffff1673ffffffffffffffffffffffffffffffffffffffff163373ffffffffffffffffffffffffffffffffffffffff16146122af576040517f08c379a00000000000000000000000000000000000000000000000000000000081526004016122a6906144c2565b60405180910390fd5b600960008373ffffffffffffffffffffffffffffffffffffffff1673ffffffffffffffffffffffffffffffffffffffff1681526020019081526020016000206005018190806001815401808255809150506001900390600052602060002090601091828204019190066002029091909190916101000a81548161ffff021916908361ffff1602179055505050565b60008054906101000a900473ffffffffffffffffffffffffffffffffffffffff1673ffffffffffffffffffffffffffffffffffffffff163373ffffffffffffffffffffffffffffffffffffffff16146123cb576040517f08c379a00000000000000000000000000000000000000000000000000000000081526004016123c2906144c2565b60405180910390fd5b600b60008361ffff1661ffff168152602001908152602001600020600901819080600181540180825580915050600190039060005260206000200160009091909190916101000a81548173ffffffffffffffffffffffffffffffffffffffff021916908373ffffffffffffffffffffffffffffffffffffffff1602179055505050565b60055481565b6000600b60008361ffff1661ffff168152602001908152602001600020600801549050919050565b600160009054906101000a900473ffffffffffffffffffffffffffffffffffffffff1673ffffffffffffffffffffffffffffffffffffffff163373ffffffffffffffffffffffffffffffffffffffff161461250c576040517f08c379a000000000000000000000000000000000000000000000000000000000815260040161250390614595565b60405180910390fd5b80600160006101000a81548173ffffffffffffffffffffffffffffffffffffffff021916908373ffffffffffffffffffffffffffffffffffffffff16021790555050565b6000600160009054906101000a900473ffffffffffffffffffffffffffffffffffffffff16905090565b6060600960008373ffffffffffffffffffffffffffffffffffffffff1673ffffffffffffffffffffffffffffffffffffffff16815260200190815260200160002060000180546125c9906145e4565b80601f01602080910402602001604051908101604052809291908181526020018280546125f5906145e4565b80156126425780601f1061261757610100808354040283529160200191612642565b820191906000526020600020905b81548152906001019060200180831161262557829003601f168201915b50505050509050919050565b600160009054906101000a900473ffffffffffffffffffffffffffffffffffffffff1673ffffffffffffffffffffffffffffffffffffffff163373ffffffffffffffffffffffffffffffffffffffff16146126de576040517f08c379a00000000000000000000000000000000000000000000000000000000081526004016126d590614595565b60405180910390fd5b8060058190555050565b60008054906101000a900473ffffffffffffffffffffffffffffffffffffffff1673ffffffffffffffffffffffffffffffffffffffff163373ffffffffffffffffffffffffffffffffffffffff1614612776576040517f08c379a000000000000000000000000000000000000000000000000000000000815260040161276d906144c2565b60405180910390fd5b6000600960008673ffffffffffffffffffffffffffffffffffffffff1673ffffffffffffffffffffffffffffffffffffffff1681526020019081526020016000209050838160000190805190602001906127d1929190612c95565b50828160010190805190602001906127ea929190612c95565b5081816002019080519060200190612803929190612c95565b506001600a856040516128169190614708565b908152602001604051809103902060006101000a81548160ff0219169083151502179055505050505050565b80600b60008461ffff1661ffff16815260200190815260200160002060070160006101000a81548160ff0219169083151502179055505050565b6000600b60008361ffff1661ffff16815260200190815260200160002060070160009054906101000a900460ff169050919050565b600160009054906101000a900473ffffffffffffffffffffffffffffffffffffffff1673ffffffffffffffffffffffffffffffffffffffff163373ffffffffffffffffffffffffffffffffffffffff1614612941576040517f08c379a000000000000000000000000000000000000000000000000000000000815260040161293890614595565b60405180910390fd5b8060048190555050565b60065481565b60008054906101000a900473ffffffffffffffffffffffffffffffffffffffff1673ffffffffffffffffffffffffffffffffffffffff163373ffffffffffffffffffffffffffffffffffffffff16146129df576040517f08c379a00000000000000000000000000000000000000000000000000000000081526004016129d6906144c2565b60405180910390fd5b60006040518060a001604052808781526020018681526020018573ffffffffffffffffffffffffffffffffffffffff168152602001848152602001838152509050600c60008861ffff1661ffff168152602001908152602001600020819080600181540180825580915050600190039060005260206000209060050201600090919091909150600082015181600001556020820151816001019080519060200190612a8b929190612c95565b5060408201518160020160006101000a81548173ffffffffffffffffffffffffffffffffffffffff021916908373ffffffffffffffffffffffffffffffffffffffff1602179055506060820151816003019080519060200190612aef929190612c95565b506080820151816004019080519060200190612b0c929190612c95565b50505050505050505050565b60008054906101000a900473ffffffffffffffffffffffffffffffffffffffff1673ffffffffffffffffffffffffffffffffffffffff163373ffffffffffffffffffffffffffffffffffffffff1614612ba6576040517f08c379a0000000000000000000000000000000000000000000000000000000008152600401612b9d906144c2565b60405180910390fd5b6001600d600083815260200190815260200160002060006101000a81548160ff02191690831515021790555050565b6060600960003373ffffffffffffffffffffffffffffffffffffffff1673ffffffffffffffffffffffffffffffffffffffff168152602001908152602001600020600401805480602002602001604051908101604052809291908181526020018280548015612c8b57602002820191906000526020600020906000905b82829054906101000a900461ffff1661ffff1681526020019060020190602082600101049283019260010382029150808411612c525790505b5050505050905090565b828054612ca1906145e4565b90600052602060002090601f016020900481019282612cc35760008555612d0a565b82601f10612cdc57805160ff1916838001178555612d0a565b82800160010185558215612d0a579182015b82811115612d09578251825591602001919060010190612cee565b5b509050612d179190612ed8565b5090565b828054828255906000526020600020908101928215612d94579160200282015b82811115612d935782518260006101000a81548173ffffffffffffffffffffffffffffffffffffffff021916908373ffffffffffffffffffffffffffffffffffffffff16021790555091602001919060010190612d3b565b5b509050612da19190612ed8565b5090565b828054828255906000526020600020908101928215612df4579160200282015b82811115612df3578251829080519060200190612de3929190612c95565b5091602001919060010190612dc5565b5b509050612e019190612ef5565b5090565b6040518060c001604052806060815260200160608152602001606081526020016060815260200160608152602001606081525090565b604051806101c001604052806060815260200160608152602001600061ffff16815260200160608152602001600081526020016000815260200160008152602001600015158152602001600081526020016060815260200160006001811115612ea757612ea6613d0b565b5b81526020016060815260200160608152602001600073ffffffffffffffffffffffffffffffffffffffff1681525090565b5b80821115612ef1576000816000905550600101612ed9565b5090565b5b80821115612f155760008181612f0c9190612f19565b50600101612ef6565b5090565b508054612f25906145e4565b6000825580601f10612f375750612f56565b601f016020900490600052602060002090810190612f559190612ed8565b5b50565b6000604051905090565b600080fd5b600080fd5b600061ffff82169050919050565b612f8481612f6d565b8114612f8f57600080fd5b50565b600081359050612fa181612f7b565b92915050565b600080fd5b6000601f19601f8301169050919050565b7f4e487b7100000000000000000000000000000000000000000000000000000000600052604160045260246000fd5b612ff582612fac565b810181811067ffffffffffffffff8211171561301457613013612fbd565b5b80604052505050565b6000613027612f59565b90506130338282612fec565b919050565b600080fd5b600080fd5b600080fd5b600067ffffffffffffffff82111561306257613061612fbd565b5b61306b82612fac565b9050602081019050919050565b82818337600083830152505050565b600061309a61309584613047565b61301d565b9050828152602081018484840111156130b6576130b5613042565b5b6130c1848285613078565b509392505050565b600082601f8301126130de576130dd61303d565b5b81356130ee848260208601613087565b91505092915050565b6000819050919050565b61310a816130f7565b811461311557600080fd5b50565b60008135905061312781613101565b92915050565b60008115159050919050565b6131428161312d565b811461314d57600080fd5b50565b60008135905061315f81613139565b92915050565b600067ffffffffffffffff8211156131805761317f612fbd565b5b602082029050602081019050919050565b600080fd5b600073ffffffffffffffffffffffffffffffffffffffff82169050919050565b60006131c182613196565b9050919050565b6131d1816131b6565b81146131dc57600080fd5b50565b6000813590506131ee816131c8565b92915050565b600061320761320284613165565b61301d565b9050808382526020820190506020840283018581111561322a57613229613191565b5b835b81811015613253578061323f88826131df565b84526020840193505060208101905061322c565b5050509392505050565b600082601f8301126132725761327161303d565b5b81356132828482602086016131f4565b91505092915050565b6002811061329857600080fd5b50565b6000813590506132aa8161328b565b92915050565b600067ffffffffffffffff8211156132cb576132ca612fbd565b5b602082029050602081019050919050565b60006132ef6132ea846132b0565b61301d565b9050808382526020820190506020840283018581111561331257613311613191565b5b835b8181101561335957803567ffffffffffffffff8111156133375761333661303d565b5b80860161334489826130c9565b85526020850194505050602081019050613314565b5050509392505050565b600082601f8301126133785761337761303d565b5b81356133888482602086016132dc565b91505092915050565b60006101c082840312156133a8576133a7612fa7565b5b6133b36101c061301d565b9050600082013567ffffffffffffffff8111156133d3576133d2613038565b5b6133df848285016130c9565b600083015250602082013567ffffffffffffffff81111561340357613402613038565b5b61340f848285016130c9565b602083015250604061342384828501612f92565b604083015250606082013567ffffffffffffffff81111561344757613446613038565b5b613453848285016130c9565b606083015250608061346784828501613118565b60808301525060a061347b84828501613118565b60a08301525060c061348f84828501613118565b60c08301525060e06134a384828501613150565b60e0830152506101006134b884828501613118565b6101008301525061012082013567ffffffffffffffff8111156134de576134dd613038565b5b6134ea8482850161325d565b610120830152506101406135008482850161329b565b6101408301525061016082013567ffffffffffffffff81111561352657613525613038565b5b61353284828501613363565b6101608301525061018082013567ffffffffffffffff81111561355857613557613038565b5b6135648482850161325d565b610180830152506101a061357a848285016131df565b6101a08301525092915050565b6000806040838503121561359e5761359d612f63565b5b60006135ac85828601612f92565b925050602083013567ffffffffffffffff8111156135cd576135cc612f68565b5b6135d985828601613391565b9150509250929050565b6135ec81612f6d565b82525050565b600060208201905061360760008301846135e3565b92915050565b60006020828403121561362357613622612f63565b5b6000613631848285016131df565b91505092915050565b613643816130f7565b82525050565b600060208201905061365e600083018461363a565b92915050565b60006020828403121561367a57613679612f63565b5b600061368884828501612f92565b91505092915050565b61369a816131b6565b82525050565b60006020820190506136b56000830184613691565b92915050565b600080604083850312156136d2576136d1612f63565b5b60006136e085828601612f92565b92505060206136f1858286016131df565b9150509250929050565b6000819050919050565b61370e816136fb565b811461371957600080fd5b50565b60008135905061372b81613705565b92915050565b60006020828403121561374757613746612f63565b5b60006137558482850161371c565b91505092915050565b6137678161312d565b82525050565b6000602082019050613782600083018461375e565b92915050565b60006020828403121561379e5761379d612f63565b5b60006137ac84828501613118565b91505092915050565b600080604083850312156137cc576137cb612f63565b5b60006137da85828601612f92565b925050602083013567ffffffffffffffff8111156137fb576137fa612f68565b5b6138078582860161325d565b9150509250929050565b600081519050919050565b600082825260208201905092915050565b60005b8381101561384b578082015181840152602081019050613830565b8381111561385a576000848401525b50505050565b600061386b82613811565b613875818561381c565b935061388581856020860161382d565b61388e81612fac565b840191505092915050565b600081519050919050565b600082825260208201905092915050565b6000819050602082019050919050565b6138ce81612f6d565b82525050565b60006138e083836138c5565b60208301905092915050565b6000602082019050919050565b600061390482613899565b61390e81856138a4565b9350613919836138b5565b8060005b8381101561394a57815161393188826138d4565b975061393c836138ec565b92505060018101905061391d565b5085935050505092915050565b600060c08301600083015184820360008601526139748282613860565b9150506020830151848203602086015261398e8282613860565b915050604083015184820360408601526139a88282613860565b915050606083015184820360608601526139c282826138f9565b915050608083015184820360808601526139dc82826138f9565b91505060a083015184820360a08601526139f682826138f9565b9150508091505092915050565b60006020820190508181036000830152613a1d8184613957565b905092915050565b600082825260208201905092915050565b6000613a4182613899565b613a4b8185613a25565b9350613a56836138b5565b8060005b83811015613a87578151613a6e88826138d4565b9750613a79836138ec565b925050600181019050613a5a565b5085935050505092915050565b60006020820190508181036000830152613aae8184613a36565b905092915050565b60008060408385031215613acd57613acc612f63565b5b6000613adb85828601612f92565b9250506020613aec85828601613118565b9150509250929050565b600080fd5b60008083601f840112613b1157613b1061303d565b5b8235905067ffffffffffffffff811115613b2e57613b2d613af6565b5b602083019150836001820283011115613b4a57613b49613191565b5b9250929050565b60008060208385031215613b6857613b67612f63565b5b600083013567ffffffffffffffff811115613b8657613b85612f68565b5b613b9285828601613afb565b92509250509250929050565b600081519050919050565b600082825260208201905092915050565b6000819050602082019050919050565b613bd3816131b6565b82525050565b6000613be58383613bca565b60208301905092915050565b6000602082019050919050565b6000613c0982613b9e565b613c138185613ba9565b9350613c1e83613bba565b8060005b83811015613c4f578151613c368882613bd9565b9750613c4183613bf1565b925050600181019050613c22565b5085935050505092915050565b60006020820190508181036000830152613c768184613bfe565b905092915050565b613c87816130f7565b82525050565b613c968161312d565b82525050565b600082825260208201905092915050565b6000613cb882613b9e565b613cc28185613c9c565b9350613ccd83613bba565b8060005b83811015613cfe578151613ce58882613bd9565b9750613cf083613bf1565b925050600181019050613cd1565b5085935050505092915050565b7f4e487b7100000000000000000000000000000000000000000000000000000000600052602160045260246000fd5b60028110613d4b57613d4a613d0b565b5b50565b6000819050613d5c82613d3a565b919050565b6000613d6c82613d4e565b9050919050565b613d7c81613d61565b82525050565b600081519050919050565b600082825260208201905092915050565b6000819050602082019050919050565b6000613dba8383613860565b905092915050565b6000602082019050919050565b6000613dda82613d82565b613de48185613d8d565b935083602082028501613df685613d9e565b8060005b85811015613e325784840389528151613e138582613dae565b9450613e1e83613dc2565b925060208a01995050600181019050613dfa565b50829750879550505050505092915050565b60006101c0830160008301518482036000860152613e628282613860565b91505060208301518482036020860152613e7c8282613860565b9150506040830151613e9160408601826138c5565b5060608301518482036060860152613ea98282613860565b9150506080830151613ebe6080860182613c7e565b5060a0830151613ed160a0860182613c7e565b5060c0830151613ee460c0860182613c7e565b5060e0830151613ef760e0860182613c8d565b50610100830151613f0c610100860182613c7e565b50610120830151848203610120860152613f268282613cad565b915050610140830151613f3d610140860182613d73565b50610160830151848203610160860152613f578282613dcf565b915050610180830151848203610180860152613f738282613cad565b9150506101a0830151613f8a6101a0860182613bca565b508091505092915050565b60006020820190508181036000830152613faf8184613e44565b905092915050565b600081519050919050565b600082825260208201905092915050565b6000819050602082019050919050565b600060a083016000830151613ffb6000860182613c7e565b50602083015184820360208601526140138282613860565b91505060408301516140286040860182613bca565b50606083015184820360608601526140408282613860565b9150506080830151848203608086015261405a8282613860565b9150508091505092915050565b60006140738383613fe3565b905092915050565b6000602082019050919050565b600061409382613fb7565b61409d8185613fc2565b9350836020820285016140af85613fd3565b8060005b858110156140eb57848403895281516140cc8582614067565b94506140d78361407b565b925060208a019950506001810190506140b3565b50829750879550505050505092915050565b600060208201905081810360008301526141178184614088565b905092915050565b600082825260208201905092915050565b600061413b82613811565b614145818561411f565b935061415581856020860161382d565b61415e81612fac565b840191505092915050565b61417281613d61565b82525050565b6000610160820190508181036000830152614193818e614130565b905081810360208301526141a7818d614130565b90506141b6604083018c6135e3565b81810360608301526141c8818b614130565b90506141d7608083018a61363a565b6141e460a083018961363a565b6141f160c083018861363a565b6141fe60e083018761375e565b61420c61010083018661363a565b61421a610120830185614169565b614228610140830184613691565b9c9b505050505050505050505050565b6000806040838503121561424f5761424e612f63565b5b600061425d858286016131df565b925050602061426e85828601612f92565b9150509250929050565b600060208201905081810360008301526142928184614130565b905092915050565b600080600080608085870312156142b4576142b3612f63565b5b60006142c2878288016131df565b945050602085013567ffffffffffffffff8111156142e3576142e2612f68565b5b6142ef878288016130c9565b935050604085013567ffffffffffffffff8111156143105761430f612f68565b5b61431c878288016130c9565b925050606085013567ffffffffffffffff81111561433d5761433c612f68565b5b614349878288016130c9565b91505092959194509250565b6000806040838503121561436c5761436b612f63565b5b600061437a85828601612f92565b925050602061438b85828601613150565b9150509250929050565b60008060008060008060c087890312156143b2576143b1612f63565b5b60006143c089828a01612f92565b96505060206143d189828a01613118565b955050604087013567ffffffffffffffff8111156143f2576143f1612f68565b5b6143fe89828a016130c9565b945050606061440f89828a016131df565b935050608087013567ffffffffffffffff8111156144305761442f612f68565b5b61443c89828a016130c9565b92505060a087013567ffffffffffffffff81111561445d5761445c612f68565b5b61446989828a016130c9565b9150509295509295509295565b7f6f6e6c795f6f776e65725f616c6c6f7765640000000000000000000000000000600082015250565b60006144ac60128361411f565b91506144b782614476565b602082019050919050565b600060208201905081810360008301526144db8161449f565b9050919050565b7f4e487b7100000000000000000000000000000000000000000000000000000000600052601160045260246000fd5b600061451c82612f6d565b915061452783612f6d565b92508261ffff0382111561453e5761453d6144e2565b5b828201905092915050565b7f6f6e6c795f6d616e616765725f616c6c6f776564000000000000000000000000600082015250565b600061457f60148361411f565b915061458a82614549565b602082019050919050565b600060208201905081810360008301526145ae81614572565b9050919050565b7f4e487b7100000000000000000000000000000000000000000000000000000000600052602260045260246000fd5b600060028204905060018216806145fc57607f821691505b602082108114156146105761460f6145b5565b5b50919050565b7f4e487b7100000000000000000000000000000000000000000000000000000000600052603260045260246000fd5b6000614650826130f7565b91507fffffffffffffffffffffffffffffffffffffffffffffffffffffffffffffffff821415614683576146826144e2565b5b600182019050919050565b600081905092915050565b60006146a5838561468e565b93506146b2838584613078565b82840190509392505050565b60006146cb828486614699565b91508190509392505050565b60006146e282613811565b6146ec818561468e565b93506146fc81856020860161382d565b80840191505092915050565b600061471482846146d7565b91508190509291505056fea2646970667358221220f3d301379bad9c26a56e524eb7d2053f0567b99ba011bf74d5e380bb2440ab0064736f6c63430008090033",
  "linkReferences": {},
  "deployedLinkReferences": {}
}