{
  "_format": "hh-sol-artifact-1",
  "contractName": "pro_ponData",
  "sourceName": "contracts/proponData.sol",
  "abi": [
    {
      "inputs": [],
      "stateMutability": "nonpayable",
      "type": "constructor"
    },
    {
      "inputs": [],
      "name": "CREATE_COMPANY_PRICE",
      "outputs": [
        {
          "internalType": "uint256",
          "name": "",
          "type": "uint256"
        }
      ],
      "stateMutability": "view",
      "type": "function"
    },
    {
      "inputs": [],
      "name": "CREATE_INVITATION_RFP_PRICE",
      "outputs": [
        {
          "internalType": "uint256",
          "name": "",
          "type": "uint256"
        }
      ],
      "stateMutability": "view",
      "type": "function"
    },
    {
      "inputs": [],
      "name": "CREATE_OPEN_RFP_PRICE",
      "outputs": [
        {
          "internalType": "uint256",
          "name": "",
          "type": "uint256"
        }
      ],
      "stateMutability": "view",
      "type": "function"
    },
    {
      "inputs": [],
      "name": "MAX_GUEST_INVITATION_TENDER",
      "outputs": [
        {
          "internalType": "uint256",
          "name": "",
          "type": "uint256"
        }
      ],
      "stateMutability": "view",
      "type": "function"
    },
    {
      "inputs": [],
      "name": "MAX_GUEST_OPEN_TENDER",
      "outputs": [
        {
          "internalType": "uint256",
          "name": "",
          "type": "uint256"
        }
      ],
      "stateMutability": "view",
      "type": "function"
    },
    {
      "inputs": [],
      "name": "REGISTER_OPEN_RFP_PRICE",
      "outputs": [
        {
          "internalType": "uint256",
          "name": "",
          "type": "uint256"
        }
      ],
      "stateMutability": "view",
      "type": "function"
    },
    {
      "inputs": [
        {
          "internalType": "uint16",
          "name": "",
          "type": "uint16"
        }
      ],
      "name": "RFPs",
      "outputs": [
        {
          "internalType": "string",
          "name": "name",
          "type": "string"
        },
        {
          "internalType": "string",
          "name": "description",
          "type": "string"
        },
        {
          "internalType": "uint16",
          "name": "rfpIndex",
          "type": "uint16"
        },
        {
          "internalType": "string",
          "name": "rfpwebsite",
          "type": "string"
        },
        {
          "internalType": "uint256",
          "name": "openDate",
          "type": "uint256"
        },
        {
          "internalType": "uint256",
          "name": "endReceivingDate",
          "type": "uint256"
        },
        {
          "internalType": "uint256",
          "name": "endDate",
          "type": "uint256"
        },
        {
          "internalType": "bool",
          "name": "canceled",
          "type": "bool"
        },
        {
          "internalType": "uint256",
          "name": "cancelDate",
          "type": "uint256"
        },
        {
          "internalType": "enum proponShared.ContestType",
          "name": "contestType",
          "type": "uint8"
        },
        {
          "internalType": "address",
          "name": "issuer",
          "type": "address"
        }
      ],
      "stateMutability": "view",
      "type": "function"
    },
    {
      "inputs": [
        {
          "internalType": "uint16",
          "name": "_rfpIndex",
          "type": "uint16"
        },
        {
          "internalType": "address[]",
          "name": "winners",
          "type": "address[]"
        }
      ],
      "name": "acrueWinsToCompany",
      "outputs": [],
      "stateMutability": "nonpayable",
      "type": "function"
    },
    {
      "inputs": [
        {
          "internalType": "uint16",
          "name": "_rfpIndex",
          "type": "uint16"
        },
        {
          "internalType": "address",
          "name": "company",
          "type": "address"
        }
      ],
      "name": "addCompanyParticipationinRFP",
      "outputs": [],
      "stateMutability": "nonpayable",
      "type": "function"
    },
    {
      "inputs": [
        {
          "internalType": "address",
          "name": "companyAddress",
          "type": "address"
        },
        {
          "internalType": "uint16",
          "name": "rfpIdx",
          "type": "uint16"
        }
      ],
      "name": "addCompanyRFP",
      "outputs": [],
      "stateMutability": "nonpayable",
      "type": "function"
    },
    {
      "inputs": [
        {
          "internalType": "uint16",
          "name": "_rfpIdx",
          "type": "uint16"
        },
        {
          "internalType": "uint256",
          "name": "_docType",
          "type": "uint256"
        },
        {
          "internalType": "string",
          "name": "_name",
          "type": "string"
        },
        {
          "internalType": "address",
          "name": "_owner",
          "type": "address"
        },
        {
          "internalType": "string",
          "name": "_documentHash",
          "type": "string"
        },
        {
          "internalType": "string",
          "name": "_idx",
          "type": "string"
        }
      ],
      "name": "addDocument",
      "outputs": [],
      "stateMutability": "nonpayable",
      "type": "function"
    },
    {
      "inputs": [
        {
          "internalType": "uint16",
          "name": "rfpId",
          "type": "uint16"
        },
        {
          "internalType": "address",
          "name": "participant",
          "type": "address"
        }
      ],
      "name": "addParticipantToRFP",
      "outputs": [],
      "stateMutability": "nonpayable",
      "type": "function"
    },
    {
      "inputs": [
        {
          "internalType": "uint16",
          "name": "_rfpIndex",
          "type": "uint16"
        },
        {
          "internalType": "address[]",
          "name": "winners",
          "type": "address[]"
        }
      ],
      "name": "addWinnersToRFP",
      "outputs": [],
      "stateMutability": "nonpayable",
      "type": "function"
    },
    {
      "inputs": [],
      "name": "destroy",
      "outputs": [],
      "stateMutability": "nonpayable",
      "type": "function"
    },
    {
      "inputs": [
        {
          "internalType": "uint16",
          "name": "_rfpIndex",
          "type": "uint16"
        }
      ],
      "name": "getCancelDate",
      "outputs": [
        {
          "internalType": "uint256",
          "name": "",
          "type": "uint256"
        }
      ],
      "stateMutability": "view",
      "type": "function"
    },
    {
      "inputs": [
        {
          "internalType": "address",
          "name": "adminaddress",
          "type": "address"
        }
      ],
      "name": "getCompany",
      "outputs": [
        {
          "components": [
            {
              "internalType": "string",
              "name": "id",
              "type": "string"
            },
            {
              "internalType": "string",
              "name": "name",
              "type": "string"
            },
            {
              "internalType": "string",
              "name": "country",
              "type": "string"
            },
            {
              "internalType": "uint16[]",
              "name": "RFPParticipations",
              "type": "uint16[]"
            },
            {
              "internalType": "uint16[]",
              "name": "RFPsWins",
              "type": "uint16[]"
            },
            {
              "internalType": "uint16[]",
              "name": "company_RFPs",
              "type": "uint16[]"
            }
          ],
          "internalType": "struct proponShared.Company",
          "name": "",
          "type": "tuple"
        }
      ],
      "stateMutability": "view",
      "type": "function"
    },
    {
      "inputs": [
        {
          "internalType": "address",
          "name": "companyAddress",
          "type": "address"
        }
      ],
      "name": "getCompanyId",
      "outputs": [
        {
          "internalType": "string",
          "name": "",
          "type": "string"
        }
      ],
      "stateMutability": "view",
      "type": "function"
    },
    {
      "inputs": [
        {
          "internalType": "address",
          "name": "account",
          "type": "address"
        }
      ],
      "name": "getCompanyRFPs",
      "outputs": [
        {
          "internalType": "uint16[]",
          "name": "",
          "type": "uint16[]"
        }
      ],
      "stateMutability": "view",
      "type": "function"
    },
    {
      "inputs": [],
      "name": "getCompanyWins",
      "outputs": [
        {
          "internalType": "uint16[]",
          "name": "",
          "type": "uint16[]"
        }
      ],
      "stateMutability": "view",
      "type": "function"
    },
    {
      "inputs": [
        {
          "internalType": "uint16",
          "name": "_rfpIdx",
          "type": "uint16"
        }
      ],
      "name": "getDocumentsfromRFP",
      "outputs": [
        {
          "components": [
            {
              "internalType": "uint256",
              "name": "docType",
              "type": "uint256"
            },
            {
              "internalType": "string",
              "name": "name",
              "type": "string"
            },
            {
              "internalType": "address",
              "name": "owner",
              "type": "address"
            },
            {
              "internalType": "string",
              "name": "documentHash",
              "type": "string"
            },
            {
              "internalType": "string",
              "name": "idx",
              "type": "string"
            }
          ],
          "internalType": "struct proponShared.Document[]",
          "name": "",
          "type": "tuple[]"
        }
      ],
      "stateMutability": "view",
      "type": "function"
    },
    {
      "inputs": [],
      "name": "getManager",
      "outputs": [
        {
          "internalType": "address",
          "name": "",
          "type": "address"
        }
      ],
      "stateMutability": "view",
      "type": "function"
    },
    {
      "inputs": [],
      "name": "getOwner",
      "outputs": [
        {
          "internalType": "address",
          "name": "",
          "type": "address"
        }
      ],
      "stateMutability": "view",
      "type": "function"
    },
    {
      "inputs": [
        {
          "internalType": "uint16",
          "name": "rfpIdx",
          "type": "uint16"
        }
      ],
      "name": "getRFPIssuer",
      "outputs": [
        {
          "internalType": "address",
          "name": "",
          "type": "address"
        }
      ],
      "stateMutability": "view",
      "type": "function"
    },
    {
      "inputs": [
        {
          "internalType": "uint16",
          "name": "_rfpId",
          "type": "uint16"
        }
      ],
      "name": "getRFPbyIndex",
      "outputs": [
        {
          "components": [
            {
              "internalType": "string",
              "name": "name",
              "type": "string"
            },
            {
              "internalType": "string",
              "name": "description",
              "type": "string"
            },
            {
              "internalType": "uint16",
              "name": "rfpIndex",
              "type": "uint16"
            },
            {
              "internalType": "string",
              "name": "rfpwebsite",
              "type": "string"
            },
            {
              "internalType": "uint256",
              "name": "openDate",
              "type": "uint256"
            },
            {
              "internalType": "uint256",
              "name": "endReceivingDate",
              "type": "uint256"
            },
            {
              "internalType": "uint256",
              "name": "endDate",
              "type": "uint256"
            },
            {
              "internalType": "bool",
              "name": "canceled",
              "type": "bool"
            },
            {
              "internalType": "uint256",
              "name": "cancelDate",
              "type": "uint256"
            },
            {
              "internalType": "address[]",
              "name": "participants",
              "type": "address[]"
            },
            {
              "internalType": "enum proponShared.ContestType",
              "name": "contestType",
              "type": "uint8"
            },
            {
              "internalType": "string[]",
              "name": "items",
              "type": "string[]"
            },
            {
              "internalType": "address[]",
              "name": "winners",
              "type": "address[]"
            },
            {
              "internalType": "address",
              "name": "issuer",
              "type": "address"
            }
          ],
          "internalType": "struct proponShared.RFP",
          "name": "",
          "type": "tuple"
        }
      ],
      "stateMutability": "view",
      "type": "function"
    },
    {
      "inputs": [
        {
          "internalType": "bytes32",
          "name": "pair",
          "type": "bytes32"
        }
      ],
      "name": "getRfpIds",
      "outputs": [
        {
          "internalType": "bool",
          "name": "",
          "type": "bool"
        }
      ],
      "stateMutability": "view",
      "type": "function"
    },
    {
      "inputs": [
        {
          "internalType": "uint16",
          "name": "_rfpIndex",
          "type": "uint16"
        }
      ],
      "name": "getWinners",
      "outputs": [
        {
          "internalType": "address[]",
          "name": "",
          "type": "address[]"
        }
      ],
      "stateMutability": "view",
      "type": "function"
    },
    {
      "inputs": [],
      "name": "getcurrentRFPIdx",
      "outputs": [
        {
          "internalType": "uint16",
          "name": "",
          "type": "uint16"
        }
      ],
      "stateMutability": "view",
      "type": "function"
    },
    {
      "inputs": [],
      "name": "incrementRFPIdx",
      "outputs": [],
      "stateMutability": "nonpayable",
      "type": "function"
    },
    {
      "inputs": [
        {
          "internalType": "string",
          "name": "_id",
          "type": "string"
        }
      ],
      "name": "isCompanyIdTaken",
      "outputs": [
        {
          "internalType": "bool",
          "name": "",
          "type": "bool"
        }
      ],
      "stateMutability": "view",
      "type": "function"
    },
    {
      "inputs": [
        {
          "internalType": "uint16",
          "name": "rfpIdx",
          "type": "uint16"
        }
      ],
      "name": "isRFPCanceled",
      "outputs": [
        {
          "internalType": "bool",
          "name": "",
          "type": "bool"
        }
      ],
      "stateMutability": "view",
      "type": "function"
    },
    {
      "inputs": [
        {
          "internalType": "address",
          "name": "companyAddress",
          "type": "address"
        },
        {
          "internalType": "string",
          "name": "_id",
          "type": "string"
        },
        {
          "internalType": "string",
          "name": "_name",
          "type": "string"
        },
        {
          "internalType": "string",
          "name": "_country",
          "type": "string"
        }
      ],
      "name": "setCompany",
      "outputs": [],
      "stateMutability": "nonpayable",
      "type": "function"
    },
    {
      "inputs": [
        {
          "internalType": "uint256",
          "name": "_value",
          "type": "uint256"
        }
      ],
      "name": "setCreateCompanyPrice",
      "outputs": [],
      "stateMutability": "nonpayable",
      "type": "function"
    },
    {
      "inputs": [
        {
          "internalType": "uint256",
          "name": "_value",
          "type": "uint256"
        }
      ],
      "name": "setCreateInvitationRfpPrice",
      "outputs": [],
      "stateMutability": "nonpayable",
      "type": "function"
    },
    {
      "inputs": [
        {
          "internalType": "uint256",
          "name": "_value",
          "type": "uint256"
        }
      ],
      "name": "setCreateOpenRfpPrice",
      "outputs": [],
      "stateMutability": "nonpayable",
      "type": "function"
    },
    {
      "inputs": [
        {
          "internalType": "address",
          "name": "_newManager",
          "type": "address"
        }
      ],
      "name": "setManager",
      "outputs": [],
      "stateMutability": "nonpayable",
      "type": "function"
    },
    {
      "inputs": [
        {
          "internalType": "uint256",
          "name": "_value",
          "type": "uint256"
        }
      ],
      "name": "setMaxGuestInvitationTender",
      "outputs": [],
      "stateMutability": "nonpayable",
      "type": "function"
    },
    {
      "inputs": [
        {
          "internalType": "uint256",
          "name": "_value",
          "type": "uint256"
        }
      ],
      "name": "setMaxGuestOpenTender",
      "outputs": [],
      "stateMutability": "nonpayable",
      "type": "function"
    },
    {
      "inputs": [
        {
          "internalType": "address",
          "name": "_newOwner",
          "type": "address"
        }
      ],
      "name": "setOwner",
      "outputs": [],
      "stateMutability": "nonpayable",
      "type": "function"
    },
    {
      "inputs": [
        {
          "internalType": "uint16",
          "name": "rfpIdx",
          "type": "uint16"
        },
        {
          "components": [
            {
              "internalType": "string",
              "name": "name",
              "type": "string"
            },
            {
              "internalType": "string",
              "name": "description",
              "type": "string"
            },
            {
              "internalType": "uint16",
              "name": "rfpIndex",
              "type": "uint16"
            },
            {
              "internalType": "string",
              "name": "rfpwebsite",
              "type": "string"
            },
            {
              "internalType": "uint256",
              "name": "openDate",
              "type": "uint256"
            },
            {
              "internalType": "uint256",
              "name": "endReceivingDate",
              "type": "uint256"
            },
            {
              "internalType": "uint256",
              "name": "endDate",
              "type": "uint256"
            },
            {
              "internalType": "bool",
              "name": "canceled",
              "type": "bool"
            },
            {
              "internalType": "uint256",
              "name": "cancelDate",
              "type": "uint256"
            },
            {
              "internalType": "address[]",
              "name": "participants",
              "type": "address[]"
            },
            {
              "internalType": "enum proponShared.ContestType",
              "name": "contestType",
              "type": "uint8"
            },
            {
              "internalType": "string[]",
              "name": "items",
              "type": "string[]"
            },
            {
              "internalType": "address[]",
              "name": "winners",
              "type": "address[]"
            },
            {
              "internalType": "address",
              "name": "issuer",
              "type": "address"
            }
          ],
          "internalType": "struct proponShared.RFP",
          "name": "rfp",
          "type": "tuple"
        }
      ],
      "name": "setRFP",
      "outputs": [],
      "stateMutability": "nonpayable",
      "type": "function"
    },
    {
      "inputs": [
        {
          "internalType": "uint16",
          "name": "_rfpIndex",
          "type": "uint16"
        },
        {
          "internalType": "uint256",
          "name": "_cancelDate",
          "type": "uint256"
        }
      ],
      "name": "setRFPCancelDate",
      "outputs": [],
      "stateMutability": "nonpayable",
      "type": "function"
    },
    {
      "inputs": [
        {
          "internalType": "uint16",
          "name": "_rfpIndex",
          "type": "uint16"
        },
        {
          "internalType": "bool",
          "name": "_canceled",
          "type": "bool"
        }
      ],
      "name": "setRFPCanceled",
      "outputs": [],
      "stateMutability": "nonpayable",
      "type": "function"
    },
    {
      "inputs": [
        {
          "internalType": "uint256",
          "name": "_value",
          "type": "uint256"
        }
      ],
      "name": "setRegisterOpenRfpPrice",
      "outputs": [],
      "stateMutability": "nonpayable",
      "type": "function"
    },
    {
      "inputs": [
        {
          "internalType": "bytes32",
          "name": "pair",
          "type": "bytes32"
        }
      ],
      "name": "setRfpId",
      "outputs": [],
      "stateMutability": "nonpayable",
      "type": "function"
    }
  ],
  "bytecode": "0x6080604052655af3107a4000600255655af3107a400060035565b5e620f48000600455655af3107a4000600555600a600655600a6007556000600860006101000a81548161ffff021916908361ffff16021790555034801561006057600080fd5b50336000806101000a81548173ffffffffffffffffffffffffffffffffffffffff021916908373ffffffffffffffffffffffffffffffffffffffff16021790555033600160006101000a81548173ffffffffffffffffffffffffffffffffffffffff021916908373ffffffffffffffffffffffffffffffffffffffff160217905550614757806100f16000396000f3fe608060405234801561001057600080fd5b50600436106102685760003560e01c80639028794011610151578063d5009584116100c3578063e6d29d9411610087578063e6d29d941461074b578063ea1b4b1d1461077b578063ecbb7b4a14610797578063ee769090146107b5578063f9c3c20c146107d1578063fb720761146107ed57610268565b8063d5009584146106a9578063d6f343c5146106c7578063d7a8529e146106f7578063e31fc5bf14610713578063e3a1bd1c1461072f57610268565b8063afeff8d911610115578063afeff8d9146105e9578063b8a4d46e14610607578063be2ec78614610623578063be38013b1461063f578063c062d64a1461065d578063d0ebdbe71461068d57610268565b806390287940146104ef57806394abc4431461051f5780639e7a1f641461054f578063a021027c1461057f578063a540c5e7146105af57610268565b80634ccba247116101ea57806367aabb1a116101ae57806367aabb1a1461044357806376d44f271461047357806379497fb41461048f57806383197ef0146104ab578063893d20e8146104b55780638e2999e4146104d357610268565b80634ccba2471461039f5780634e289b88146103bb5780635a6167c9146103d95780635d9c47f5146103f757806362bc56e61461041357610268565b80632aec6e5a116102315780632aec6e5a146102eb57806333572e921461031b57806343a2d04814610337578063466c51fc1461036757806347475a481461038357610268565b80626189211461026d5780631393b9e81461028957806313af4035146102a75780631a3ca1d8146102c3578063215cf05d146102cd575b600080fd5b61028760048036038101906102829190613589565b61080b565b005b610291610a52565b60405161029e91906135f4565b60405180910390f35b6102c160048036038101906102bc919061360f565b610a6a565b005b6102cb610b3d565b005b6102d5610c07565b6040516102e2919061364b565b60405180910390f35b61030560048036038101906103009190613666565b610c0d565b60405161031291906136a2565b60405180910390f35b610335600480360381019061033091906136bd565b610c55565b005b610351600480360381019061034c9190613733565b610d71565b60405161035e919061376f565b60405180910390f35b610381600480360381019061037c919061378a565b610d9b565b005b61039d600480360381019061039891906137b7565b610e35565b005b6103b960048036038101906103b4919061378a565b610efa565b005b6103c3610f94565b6040516103d0919061364b565b60405180910390f35b6103e1610f9a565b6040516103ee919061364b565b60405180910390f35b610411600480360381019061040c919061378a565b610fa0565b005b61042d6004803603810190610428919061360f565b61103a565b60405161043a9190613a05565b60405180910390f35b61045d6004803603810190610458919061360f565b6113c9565b60405161046a9190613a96565b60405180910390f35b61048d60048036038101906104889190613ab8565b61148b565b005b6104a960048036038101906104a491906137b7565b6114b2565b005b6104b361160e565b005b6104bd6116d7565b6040516104ca91906136a2565b60405180910390f35b6104ed60048036038101906104e8919061378a565b611700565b005b61050960048036038101906105049190613b53565b61179a565b604051610516919061376f565b60405180910390f35b61053960048036038101906105349190613666565b6117d2565b6040516105469190613c5e565b60405180910390f35b61056960048036038101906105649190613666565b61187e565b6040516105769190613f97565b60405180910390f35b61059960048036038101906105949190613666565b611d53565b6040516105a691906140ff565b60405180910390f35b6105c960048036038101906105c49190613666565b611fe3565b6040516105e09b9a9998979695949392919061417a565b60405180910390f35b6105f161221d565b6040516105fe919061364b565b60405180910390f35b610621600480360381019061061c919061423a565b612223565b005b61063d600480360381019061063891906136bd565b61233f565b005b610647612450565b604051610654919061364b565b60405180910390f35b61067760048036038101906106729190613666565b612456565b604051610684919061364b565b60405180910390f35b6106a760048036038101906106a2919061360f565b61247e565b005b6106b1612552565b6040516106be91906136a2565b60405180910390f35b6106e160048036038101906106dc919061360f565b61257c565b6040516106ee919061427a565b60405180910390f35b610711600480360381019061070c919061378a565b612650565b005b61072d6004803603810190610728919061429c565b6126ea565b005b61074960048036038101906107449190614357565b612844565b005b61076560048036038101906107609190613666565b61287e565b604051610772919061376f565b60405180910390f35b6107956004803603810190610790919061378a565b6128b3565b005b61079f61294d565b6040516107ac919061364b565b60405180910390f35b6107cf60048036038101906107ca9190614397565b612953565b005b6107eb60048036038101906107e69190613733565b612b1a565b005b6107f5612bd7565b6040516108029190613a96565b60405180910390f35b60008054906101000a900473ffffffffffffffffffffffffffffffffffffffff1673ffffffffffffffffffffffffffffffffffffffff163373ffffffffffffffffffffffffffffffffffffffff1614610899576040517f08c379a0000000000000000000000000000000000000000000000000000000008152600401610890906144c4565b60405180910390fd5b80600b60008461ffff1661ffff16815260200190815260200160002060008201518160000190805190602001906108d1929190612c97565b5060208201518160010190805190602001906108ee929190612c97565b5060408201518160020160006101000a81548161ffff021916908361ffff160217905550606082015181600301908051906020019061092e929190612c97565b506080820151816004015560a0820151816005015560c0820151816006015560e08201518160070160006101000a81548160ff0219169083151502179055506101008201518160080155610120820151816009019080519060200190610995929190612d1d565b5061014082015181600a0160006101000a81548160ff021916908360018111156109c2576109c1613d0d565b5b021790555061016082015181600b0190805190602001906109e4929190612da7565b5061018082015181600c019080519060200190610a02929190612d1d565b506101a082015181600d0160006101000a81548173ffffffffffffffffffffffffffffffffffffffff021916908373ffffffffffffffffffffffffffffffffffffffff1602179055509050505050565b6000600860009054906101000a900461ffff16905090565b600160009054906101000a900473ffffffffffffffffffffffffffffffffffffffff1673ffffffffffffffffffffffffffffffffffffffff163373ffffffffffffffffffffffffffffffffffffffff1614610afa576040517f08c379a0000000000000000000000000000000000000000000000000000000008152600401610af190614530565b60405180910390fd5b806000806101000a81548173ffffffffffffffffffffffffffffffffffffffff021916908373ffffffffffffffffffffffffffffffffffffffff16021790555050565b60008054906101000a900473ffffffffffffffffffffffffffffffffffffffff1673ffffffffffffffffffffffffffffffffffffffff163373ffffffffffffffffffffffffffffffffffffffff1614610bcb576040517f08c379a0000000000000000000000000000000000000000000000000000000008152600401610bc2906144c4565b60405180910390fd5b6001600860008282829054906101000a900461ffff16610beb919061457f565b92506101000a81548161ffff021916908361ffff160217905550565b60025481565b6000600b60008361ffff1661ffff168152602001908152602001600020600d0160009054906101000a900473ffffffffffffffffffffffffffffffffffffffff169050919050565b60008054906101000a900473ffffffffffffffffffffffffffffffffffffffff1673ffffffffffffffffffffffffffffffffffffffff163373ffffffffffffffffffffffffffffffffffffffff1614610ce3576040517f08c379a0000000000000000000000000000000000000000000000000000000008152600401610cda906144c4565b60405180910390fd5b600960008273ffffffffffffffffffffffffffffffffffffffff1673ffffffffffffffffffffffffffffffffffffffff1681526020019081526020016000206003018290806001815401808255809150506001900390600052602060002090601091828204019190066002029091909190916101000a81548161ffff021916908361ffff1602179055505050565b6000600d600083815260200190815260200160002060009054906101000a900460ff169050919050565b600160009054906101000a900473ffffffffffffffffffffffffffffffffffffffff1673ffffffffffffffffffffffffffffffffffffffff163373ffffffffffffffffffffffffffffffffffffffff1614610e2b576040517f08c379a0000000000000000000000000000000000000000000000000000000008152600401610e2290614530565b60405180910390fd5b8060028190555050565b60008054906101000a900473ffffffffffffffffffffffffffffffffffffffff1673ffffffffffffffffffffffffffffffffffffffff163373ffffffffffffffffffffffffffffffffffffffff1614610ec3576040517f08c379a0000000000000000000000000000000000000000000000000000000008152600401610eba906144c4565b60405180910390fd5b80600b60008461ffff1661ffff168152602001908152602001600020600c019080519060200190610ef5929190612d1d565b505050565b600160009054906101000a900473ffffffffffffffffffffffffffffffffffffffff1673ffffffffffffffffffffffffffffffffffffffff163373ffffffffffffffffffffffffffffffffffffffff1614610f8a576040517f08c379a0000000000000000000000000000000000000000000000000000000008152600401610f8190614530565b60405180910390fd5b8060068190555050565b60035481565b60075481565b600160009054906101000a900473ffffffffffffffffffffffffffffffffffffffff1673ffffffffffffffffffffffffffffffffffffffff163373ffffffffffffffffffffffffffffffffffffffff1614611030576040517f08c379a000000000000000000000000000000000000000000000000000000000815260040161102790614530565b60405180910390fd5b8060038190555050565b611042612e07565b600960008373ffffffffffffffffffffffffffffffffffffffff1673ffffffffffffffffffffffffffffffffffffffff1681526020019081526020016000206040518060c001604052908160008201805461109c906145e6565b80601f01602080910402602001604051908101604052809291908181526020018280546110c8906145e6565b80156111155780601f106110ea57610100808354040283529160200191611115565b820191906000526020600020905b8154815290600101906020018083116110f857829003601f168201915b5050505050815260200160018201805461112e906145e6565b80601f016020809104026020016040519081016040528092919081815260200182805461115a906145e6565b80156111a75780601f1061117c576101008083540402835291602001916111a7565b820191906000526020600020905b81548152906001019060200180831161118a57829003601f168201915b505050505081526020016002820180546111c0906145e6565b80601f01602080910402602001604051908101604052809291908181526020018280546111ec906145e6565b80156112395780601f1061120e57610100808354040283529160200191611239565b820191906000526020600020905b81548152906001019060200180831161121c57829003601f168201915b50505050508152602001600382018054806020026020016040519081016040528092919081815260200182805480156112b957602002820191906000526020600020906000905b82829054906101000a900461ffff1661ffff16815260200190600201906020826001010492830192600103820291508084116112805790505b505050505081526020016004820180548060200260200160405190810160405280929190818152602001828054801561133957602002820191906000526020600020906000905b82829054906101000a900461ffff1661ffff16815260200190600201906020826001010492830192600103820291508084116113005790505b50505050508152602001600582018054806020026020016040519081016040528092919081815260200182805480156113b957602002820191906000526020600020906000905b82829054906101000a900461ffff1661ffff16815260200190600201906020826001010492830192600103820291508084116113805790505b5050505050815250509050919050565b6060600960008373ffffffffffffffffffffffffffffffffffffffff1673ffffffffffffffffffffffffffffffffffffffff16815260200190815260200160002060050180548060200260200160405190810160405280929190818152602001828054801561147f57602002820191906000526020600020906000905b82829054906101000a900461ffff1661ffff16815260200190600201906020826001010492830192600103820291508084116114465790505b50505050509050919050565b80600b60008461ffff1661ffff168152602001908152602001600020600801819055505050565b60008054906101000a900473ffffffffffffffffffffffffffffffffffffffff1673ffffffffffffffffffffffffffffffffffffffff163373ffffffffffffffffffffffffffffffffffffffff1614611540576040517f08c379a0000000000000000000000000000000000000000000000000000000008152600401611537906144c4565b60405180910390fd5b60008151905060005b81811015611608576009600084838151811061156857611567614618565b5b602002602001015173ffffffffffffffffffffffffffffffffffffffff1673ffffffffffffffffffffffffffffffffffffffff1681526020019081526020016000206004018490806001815401808255809150506001900390600052602060002090601091828204019190066002029091909190916101000a81548161ffff021916908361ffff160217905550808061160090614647565b915050611549565b50505050565b600160009054906101000a900473ffffffffffffffffffffffffffffffffffffffff1673ffffffffffffffffffffffffffffffffffffffff163373ffffffffffffffffffffffffffffffffffffffff161461169e576040517f08c379a000000000000000000000000000000000000000000000000000000000815260040161169590614530565b60405180910390fd5b60008054906101000a900473ffffffffffffffffffffffffffffffffffffffff1673ffffffffffffffffffffffffffffffffffffffff16ff5b60008060009054906101000a900473ffffffffffffffffffffffffffffffffffffffff16905090565b600160009054906101000a900473ffffffffffffffffffffffffffffffffffffffff1673ffffffffffffffffffffffffffffffffffffffff163373ffffffffffffffffffffffffffffffffffffffff1614611790576040517f08c379a000000000000000000000000000000000000000000000000000000000815260040161178790614530565b60405180910390fd5b8060078190555050565b6000600a83836040516117ae9291906146c0565b908152602001604051809103902060009054906101000a900460ff16905092915050565b6060600b60008361ffff1661ffff168152602001908152602001600020600c0180548060200260200160405190810160405280929190818152602001828054801561187257602002820191906000526020600020905b8160009054906101000a900473ffffffffffffffffffffffffffffffffffffffff1673ffffffffffffffffffffffffffffffffffffffff1681526020019060010190808311611828575b50505050509050919050565b611886612e3d565b600b60008361ffff1661ffff168152602001908152602001600020604051806101c00160405290816000820180546118bd906145e6565b80601f01602080910402602001604051908101604052809291908181526020018280546118e9906145e6565b80156119365780601f1061190b57610100808354040283529160200191611936565b820191906000526020600020905b81548152906001019060200180831161191957829003601f168201915b5050505050815260200160018201805461194f906145e6565b80601f016020809104026020016040519081016040528092919081815260200182805461197b906145e6565b80156119c85780601f1061199d576101008083540402835291602001916119c8565b820191906000526020600020905b8154815290600101906020018083116119ab57829003601f168201915b505050505081526020016002820160009054906101000a900461ffff1661ffff1661ffff168152602001600382018054611a01906145e6565b80601f0160208091040260200160405190810160405280929190818152602001828054611a2d906145e6565b8015611a7a5780601f10611a4f57610100808354040283529160200191611a7a565b820191906000526020600020905b815481529060010190602001808311611a5d57829003601f168201915b505050505081526020016004820154815260200160058201548152602001600682015481526020016007820160009054906101000a900460ff161515151581526020016008820154815260200160098201805480602002602001604051908101604052809291908181526020018280548015611b4b57602002820191906000526020600020905b8160009054906101000a900473ffffffffffffffffffffffffffffffffffffffff1673ffffffffffffffffffffffffffffffffffffffff1681526020019060010190808311611b01575b50505050508152602001600a820160009054906101000a900460ff166001811115611b7957611b78613d0d565b5b6001811115611b8b57611b8a613d0d565b5b8152602001600b8201805480602002602001604051908101604052809291908181526020016000905b82821015611c60578382906000526020600020018054611bd3906145e6565b80601f0160208091040260200160405190810160405280929190818152602001828054611bff906145e6565b8015611c4c5780601f10611c2157610100808354040283529160200191611c4c565b820191906000526020600020905b815481529060010190602001808311611c2f57829003601f168201915b505050505081526020019060010190611bb4565b505050508152602001600c8201805480602002602001604051908101604052809291908181526020018280548015611ced57602002820191906000526020600020905b8160009054906101000a900473ffffffffffffffffffffffffffffffffffffffff1673ffffffffffffffffffffffffffffffffffffffff1681526020019060010190808311611ca3575b50505050508152602001600d820160009054906101000a900473ffffffffffffffffffffffffffffffffffffffff1673ffffffffffffffffffffffffffffffffffffffff1673ffffffffffffffffffffffffffffffffffffffff16815250509050919050565b6060600c60008361ffff1661ffff168152602001908152602001600020805480602002602001604051908101604052809291908181526020016000905b82821015611fd857838290600052602060002090600502016040518060a001604052908160008201548152602001600182018054611dcd906145e6565b80601f0160208091040260200160405190810160405280929190818152602001828054611df9906145e6565b8015611e465780601f10611e1b57610100808354040283529160200191611e46565b820191906000526020600020905b815481529060010190602001808311611e2957829003601f168201915b505050505081526020016002820160009054906101000a900473ffffffffffffffffffffffffffffffffffffffff1673ffffffffffffffffffffffffffffffffffffffff1673ffffffffffffffffffffffffffffffffffffffff168152602001600382018054611eb5906145e6565b80601f0160208091040260200160405190810160405280929190818152602001828054611ee1906145e6565b8015611f2e5780601f10611f0357610100808354040283529160200191611f2e565b820191906000526020600020905b815481529060010190602001808311611f1157829003601f168201915b50505050508152602001600482018054611f47906145e6565b80601f0160208091040260200160405190810160405280929190818152602001828054611f73906145e6565b8015611fc05780601f10611f9557610100808354040283529160200191611fc0565b820191906000526020600020905b815481529060010190602001808311611fa357829003601f168201915b50505050508152505081526020019060010190611d90565b505050509050919050565b600b602052806000526040600020600091509050806000018054612006906145e6565b80601f0160208091040260200160405190810160405280929190818152602001828054612032906145e6565b801561207f5780601f106120545761010080835404028352916020019161207f565b820191906000526020600020905b81548152906001019060200180831161206257829003601f168201915b505050505090806001018054612094906145e6565b80601f01602080910402602001604051908101604052809291908181526020018280546120c0906145e6565b801561210d5780601f106120e25761010080835404028352916020019161210d565b820191906000526020600020905b8154815290600101906020018083116120f057829003601f168201915b5050505050908060020160009054906101000a900461ffff1690806003018054612136906145e6565b80601f0160208091040260200160405190810160405280929190818152602001828054612162906145e6565b80156121af5780601f10612184576101008083540402835291602001916121af565b820191906000526020600020905b81548152906001019060200180831161219257829003601f168201915b5050505050908060040154908060050154908060060154908060070160009054906101000a900460ff169080600801549080600a0160009054906101000a900460ff169080600d0160009054906101000a900473ffffffffffffffffffffffffffffffffffffffff1690508b565b60045481565b60008054906101000a900473ffffffffffffffffffffffffffffffffffffffff1673ffffffffffffffffffffffffffffffffffffffff163373ffffffffffffffffffffffffffffffffffffffff16146122b1576040517f08c379a00000000000000000000000000000000000000000000000000000000081526004016122a8906144c4565b60405180910390fd5b600960008373ffffffffffffffffffffffffffffffffffffffff1673ffffffffffffffffffffffffffffffffffffffff1681526020019081526020016000206005018190806001815401808255809150506001900390600052602060002090601091828204019190066002029091909190916101000a81548161ffff021916908361ffff1602179055505050565b60008054906101000a900473ffffffffffffffffffffffffffffffffffffffff1673ffffffffffffffffffffffffffffffffffffffff163373ffffffffffffffffffffffffffffffffffffffff16146123cd576040517f08c379a00000000000000000000000000000000000000000000000000000000081526004016123c4906144c4565b60405180910390fd5b600b60008361ffff1661ffff168152602001908152602001600020600901819080600181540180825580915050600190039060005260206000200160009091909190916101000a81548173ffffffffffffffffffffffffffffffffffffffff021916908373ffffffffffffffffffffffffffffffffffffffff1602179055505050565b60055481565b6000600b60008361ffff1661ffff168152602001908152602001600020600801549050919050565b600160009054906101000a900473ffffffffffffffffffffffffffffffffffffffff1673ffffffffffffffffffffffffffffffffffffffff163373ffffffffffffffffffffffffffffffffffffffff161461250e576040517f08c379a000000000000000000000000000000000000000000000000000000000815260040161250590614530565b60405180910390fd5b80600160006101000a81548173ffffffffffffffffffffffffffffffffffffffff021916908373ffffffffffffffffffffffffffffffffffffffff16021790555050565b6000600160009054906101000a900473ffffffffffffffffffffffffffffffffffffffff16905090565b6060600960008373ffffffffffffffffffffffffffffffffffffffff1673ffffffffffffffffffffffffffffffffffffffff16815260200190815260200160002060000180546125cb906145e6565b80601f01602080910402602001604051908101604052809291908181526020018280546125f7906145e6565b80156126445780601f1061261957610100808354040283529160200191612644565b820191906000526020600020905b81548152906001019060200180831161262757829003601f168201915b50505050509050919050565b600160009054906101000a900473ffffffffffffffffffffffffffffffffffffffff1673ffffffffffffffffffffffffffffffffffffffff163373ffffffffffffffffffffffffffffffffffffffff16146126e0576040517f08c379a00000000000000000000000000000000000000000000000000000000081526004016126d790614530565b60405180910390fd5b8060058190555050565b60008054906101000a900473ffffffffffffffffffffffffffffffffffffffff1673ffffffffffffffffffffffffffffffffffffffff163373ffffffffffffffffffffffffffffffffffffffff1614612778576040517f08c379a000000000000000000000000000000000000000000000000000000000815260040161276f906144c4565b60405180910390fd5b6000600960008673ffffffffffffffffffffffffffffffffffffffff1673ffffffffffffffffffffffffffffffffffffffff1681526020019081526020016000209050838160000190805190602001906127d3929190612c97565b50828160010190805190602001906127ec929190612c97565b5081816002019080519060200190612805929190612c97565b506001600a85604051612818919061470a565b908152602001604051809103902060006101000a81548160ff0219169083151502179055505050505050565b80600b60008461ffff1661ffff16815260200190815260200160002060070160006101000a81548160ff0219169083151502179055505050565b6000600b60008361ffff1661ffff16815260200190815260200160002060070160009054906101000a900460ff169050919050565b600160009054906101000a900473ffffffffffffffffffffffffffffffffffffffff1673ffffffffffffffffffffffffffffffffffffffff163373ffffffffffffffffffffffffffffffffffffffff1614612943576040517f08c379a000000000000000000000000000000000000000000000000000000000815260040161293a90614530565b60405180910390fd5b8060048190555050565b60065481565b60008054906101000a900473ffffffffffffffffffffffffffffffffffffffff1673ffffffffffffffffffffffffffffffffffffffff163373ffffffffffffffffffffffffffffffffffffffff16146129e1576040517f08c379a00000000000000000000000000000000000000000000000000000000081526004016129d8906144c4565b60405180910390fd5b60006040518060a001604052808781526020018681526020018573ffffffffffffffffffffffffffffffffffffffff168152602001848152602001838152509050600c60008861ffff1661ffff168152602001908152602001600020819080600181540180825580915050600190039060005260206000209060050201600090919091909150600082015181600001556020820151816001019080519060200190612a8d929190612c97565b5060408201518160020160006101000a81548173ffffffffffffffffffffffffffffffffffffffff021916908373ffffffffffffffffffffffffffffffffffffffff1602179055506060820151816003019080519060200190612af1929190612c97565b506080820151816004019080519060200190612b0e929190612c97565b50505050505050505050565b60008054906101000a900473ffffffffffffffffffffffffffffffffffffffff1673ffffffffffffffffffffffffffffffffffffffff163373ffffffffffffffffffffffffffffffffffffffff1614612ba8576040517f08c379a0000000000000000000000000000000000000000000000000000000008152600401612b9f906144c4565b60405180910390fd5b6001600d600083815260200190815260200160002060006101000a81548160ff02191690831515021790555050565b6060600960003373ffffffffffffffffffffffffffffffffffffffff1673ffffffffffffffffffffffffffffffffffffffff168152602001908152602001600020600401805480602002602001604051908101604052809291908181526020018280548015612c8d57602002820191906000526020600020906000905b82829054906101000a900461ffff1661ffff1681526020019060020190602082600101049283019260010382029150808411612c545790505b5050505050905090565b828054612ca3906145e6565b90600052602060002090601f016020900481019282612cc55760008555612d0c565b82601f10612cde57805160ff1916838001178555612d0c565b82800160010185558215612d0c579182015b82811115612d0b578251825591602001919060010190612cf0565b5b509050612d199190612eda565b5090565b828054828255906000526020600020908101928215612d96579160200282015b82811115612d955782518260006101000a81548173ffffffffffffffffffffffffffffffffffffffff021916908373ffffffffffffffffffffffffffffffffffffffff16021790555091602001919060010190612d3d565b5b509050612da39190612eda565b5090565b828054828255906000526020600020908101928215612df6579160200282015b82811115612df5578251829080519060200190612de5929190612c97565b5091602001919060010190612dc7565b5b509050612e039190612ef7565b5090565b6040518060c001604052806060815260200160608152602001606081526020016060815260200160608152602001606081525090565b604051806101c001604052806060815260200160608152602001600061ffff16815260200160608152602001600081526020016000815260200160008152602001600015158152602001600081526020016060815260200160006001811115612ea957612ea8613d0d565b5b81526020016060815260200160608152602001600073ffffffffffffffffffffffffffffffffffffffff1681525090565b5b80821115612ef3576000816000905550600101612edb565b5090565b5b80821115612f175760008181612f0e9190612f1b565b50600101612ef8565b5090565b508054612f27906145e6565b6000825580601f10612f395750612f58565b601f016020900490600052602060002090810190612f579190612eda565b5b50565b6000604051905090565b600080fd5b600080fd5b600061ffff82169050919050565b612f8681612f6f565b8114612f9157600080fd5b50565b600081359050612fa381612f7d565b92915050565b600080fd5b6000601f19601f8301169050919050565b7f4e487b7100000000000000000000000000000000000000000000000000000000600052604160045260246000fd5b612ff782612fae565b810181811067ffffffffffffffff8211171561301657613015612fbf565b5b80604052505050565b6000613029612f5b565b90506130358282612fee565b919050565b600080fd5b600080fd5b600080fd5b600067ffffffffffffffff82111561306457613063612fbf565b5b61306d82612fae565b9050602081019050919050565b82818337600083830152505050565b600061309c61309784613049565b61301f565b9050828152602081018484840111156130b8576130b7613044565b5b6130c384828561307a565b509392505050565b600082601f8301126130e0576130df61303f565b5b81356130f0848260208601613089565b91505092915050565b6000819050919050565b61310c816130f9565b811461311757600080fd5b50565b60008135905061312981613103565b92915050565b60008115159050919050565b6131448161312f565b811461314f57600080fd5b50565b6000813590506131618161313b565b92915050565b600067ffffffffffffffff82111561318257613181612fbf565b5b602082029050602081019050919050565b600080fd5b600073ffffffffffffffffffffffffffffffffffffffff82169050919050565b60006131c382613198565b9050919050565b6131d3816131b8565b81146131de57600080fd5b50565b6000813590506131f0816131ca565b92915050565b600061320961320484613167565b61301f565b9050808382526020820190506020840283018581111561322c5761322b613193565b5b835b81811015613255578061324188826131e1565b84526020840193505060208101905061322e565b5050509392505050565b600082601f8301126132745761327361303f565b5b81356132848482602086016131f6565b91505092915050565b6002811061329a57600080fd5b50565b6000813590506132ac8161328d565b92915050565b600067ffffffffffffffff8211156132cd576132cc612fbf565b5b602082029050602081019050919050565b60006132f16132ec846132b2565b61301f565b9050808382526020820190506020840283018581111561331457613313613193565b5b835b8181101561335b57803567ffffffffffffffff8111156133395761333861303f565b5b80860161334689826130cb565b85526020850194505050602081019050613316565b5050509392505050565b600082601f83011261337a5761337961303f565b5b813561338a8482602086016132de565b91505092915050565b60006101c082840312156133aa576133a9612fa9565b5b6133b56101c061301f565b9050600082013567ffffffffffffffff8111156133d5576133d461303a565b5b6133e1848285016130cb565b600083015250602082013567ffffffffffffffff8111156134055761340461303a565b5b613411848285016130cb565b602083015250604061342584828501612f94565b604083015250606082013567ffffffffffffffff8111156134495761344861303a565b5b613455848285016130cb565b60608301525060806134698482850161311a565b60808301525060a061347d8482850161311a565b60a08301525060c06134918482850161311a565b60c08301525060e06134a584828501613152565b60e0830152506101006134ba8482850161311a565b6101008301525061012082013567ffffffffffffffff8111156134e0576134df61303a565b5b6134ec8482850161325f565b610120830152506101406135028482850161329d565b6101408301525061016082013567ffffffffffffffff8111156135285761352761303a565b5b61353484828501613365565b6101608301525061018082013567ffffffffffffffff81111561355a5761355961303a565b5b6135668482850161325f565b610180830152506101a061357c848285016131e1565b6101a08301525092915050565b600080604083850312156135a05761359f612f65565b5b60006135ae85828601612f94565b925050602083013567ffffffffffffffff8111156135cf576135ce612f6a565b5b6135db85828601613393565b9150509250929050565b6135ee81612f6f565b82525050565b600060208201905061360960008301846135e5565b92915050565b60006020828403121561362557613624612f65565b5b6000613633848285016131e1565b91505092915050565b613645816130f9565b82525050565b6000602082019050613660600083018461363c565b92915050565b60006020828403121561367c5761367b612f65565b5b600061368a84828501612f94565b91505092915050565b61369c816131b8565b82525050565b60006020820190506136b76000830184613693565b92915050565b600080604083850312156136d4576136d3612f65565b5b60006136e285828601612f94565b92505060206136f3858286016131e1565b9150509250929050565b6000819050919050565b613710816136fd565b811461371b57600080fd5b50565b60008135905061372d81613707565b92915050565b60006020828403121561374957613748612f65565b5b60006137578482850161371e565b91505092915050565b6137698161312f565b82525050565b60006020820190506137846000830184613760565b92915050565b6000602082840312156137a05761379f612f65565b5b60006137ae8482850161311a565b91505092915050565b600080604083850312156137ce576137cd612f65565b5b60006137dc85828601612f94565b925050602083013567ffffffffffffffff8111156137fd576137fc612f6a565b5b6138098582860161325f565b9150509250929050565b600081519050919050565b600082825260208201905092915050565b60005b8381101561384d578082015181840152602081019050613832565b8381111561385c576000848401525b50505050565b600061386d82613813565b613877818561381e565b935061388781856020860161382f565b61389081612fae565b840191505092915050565b600081519050919050565b600082825260208201905092915050565b6000819050602082019050919050565b6138d081612f6f565b82525050565b60006138e283836138c7565b60208301905092915050565b6000602082019050919050565b60006139068261389b565b61391081856138a6565b935061391b836138b7565b8060005b8381101561394c57815161393388826138d6565b975061393e836138ee565b92505060018101905061391f565b5085935050505092915050565b600060c08301600083015184820360008601526139768282613862565b915050602083015184820360208601526139908282613862565b915050604083015184820360408601526139aa8282613862565b915050606083015184820360608601526139c482826138fb565b915050608083015184820360808601526139de82826138fb565b91505060a083015184820360a08601526139f882826138fb565b9150508091505092915050565b60006020820190508181036000830152613a1f8184613959565b905092915050565b600082825260208201905092915050565b6000613a438261389b565b613a4d8185613a27565b9350613a58836138b7565b8060005b83811015613a89578151613a7088826138d6565b9750613a7b836138ee565b925050600181019050613a5c565b5085935050505092915050565b60006020820190508181036000830152613ab08184613a38565b905092915050565b60008060408385031215613acf57613ace612f65565b5b6000613add85828601612f94565b9250506020613aee8582860161311a565b9150509250929050565b600080fd5b60008083601f840112613b1357613b1261303f565b5b8235905067ffffffffffffffff811115613b3057613b2f613af8565b5b602083019150836001820283011115613b4c57613b4b613193565b5b9250929050565b60008060208385031215613b6a57613b69612f65565b5b600083013567ffffffffffffffff811115613b8857613b87612f6a565b5b613b9485828601613afd565b92509250509250929050565b600081519050919050565b600082825260208201905092915050565b6000819050602082019050919050565b613bd5816131b8565b82525050565b6000613be78383613bcc565b60208301905092915050565b6000602082019050919050565b6000613c0b82613ba0565b613c158185613bab565b9350613c2083613bbc565b8060005b83811015613c51578151613c388882613bdb565b9750613c4383613bf3565b925050600181019050613c24565b5085935050505092915050565b60006020820190508181036000830152613c788184613c00565b905092915050565b613c89816130f9565b82525050565b613c988161312f565b82525050565b600082825260208201905092915050565b6000613cba82613ba0565b613cc48185613c9e565b9350613ccf83613bbc565b8060005b83811015613d00578151613ce78882613bdb565b9750613cf283613bf3565b925050600181019050613cd3565b5085935050505092915050565b7f4e487b7100000000000000000000000000000000000000000000000000000000600052602160045260246000fd5b60028110613d4d57613d4c613d0d565b5b50565b6000819050613d5e82613d3c565b919050565b6000613d6e82613d50565b9050919050565b613d7e81613d63565b82525050565b600081519050919050565b600082825260208201905092915050565b6000819050602082019050919050565b6000613dbc8383613862565b905092915050565b6000602082019050919050565b6000613ddc82613d84565b613de68185613d8f565b935083602082028501613df885613da0565b8060005b85811015613e345784840389528151613e158582613db0565b9450613e2083613dc4565b925060208a01995050600181019050613dfc565b50829750879550505050505092915050565b60006101c0830160008301518482036000860152613e648282613862565b91505060208301518482036020860152613e7e8282613862565b9150506040830151613e9360408601826138c7565b5060608301518482036060860152613eab8282613862565b9150506080830151613ec06080860182613c80565b5060a0830151613ed360a0860182613c80565b5060c0830151613ee660c0860182613c80565b5060e0830151613ef960e0860182613c8f565b50610100830151613f0e610100860182613c80565b50610120830151848203610120860152613f288282613caf565b915050610140830151613f3f610140860182613d75565b50610160830151848203610160860152613f598282613dd1565b915050610180830151848203610180860152613f758282613caf565b9150506101a0830151613f8c6101a0860182613bcc565b508091505092915050565b60006020820190508181036000830152613fb18184613e46565b905092915050565b600081519050919050565b600082825260208201905092915050565b6000819050602082019050919050565b600060a083016000830151613ffd6000860182613c80565b50602083015184820360208601526140158282613862565b915050604083015161402a6040860182613bcc565b50606083015184820360608601526140428282613862565b9150506080830151848203608086015261405c8282613862565b9150508091505092915050565b60006140758383613fe5565b905092915050565b6000602082019050919050565b600061409582613fb9565b61409f8185613fc4565b9350836020820285016140b185613fd5565b8060005b858110156140ed57848403895281516140ce8582614069565b94506140d98361407d565b925060208a019950506001810190506140b5565b50829750879550505050505092915050565b60006020820190508181036000830152614119818461408a565b905092915050565b600082825260208201905092915050565b600061413d82613813565b6141478185614121565b935061415781856020860161382f565b61416081612fae565b840191505092915050565b61417481613d63565b82525050565b6000610160820190508181036000830152614195818e614132565b905081810360208301526141a9818d614132565b90506141b8604083018c6135e5565b81810360608301526141ca818b614132565b90506141d9608083018a61363c565b6141e660a083018961363c565b6141f360c083018861363c565b61420060e0830187613760565b61420e61010083018661363c565b61421c61012083018561416b565b61422a610140830184613693565b9c9b505050505050505050505050565b6000806040838503121561425157614250612f65565b5b600061425f858286016131e1565b925050602061427085828601612f94565b9150509250929050565b600060208201905081810360008301526142948184614132565b905092915050565b600080600080608085870312156142b6576142b5612f65565b5b60006142c4878288016131e1565b945050602085013567ffffffffffffffff8111156142e5576142e4612f6a565b5b6142f1878288016130cb565b935050604085013567ffffffffffffffff81111561431257614311612f6a565b5b61431e878288016130cb565b925050606085013567ffffffffffffffff81111561433f5761433e612f6a565b5b61434b878288016130cb565b91505092959194509250565b6000806040838503121561436e5761436d612f65565b5b600061437c85828601612f94565b925050602061438d85828601613152565b9150509250929050565b60008060008060008060c087890312156143b4576143b3612f65565b5b60006143c289828a01612f94565b96505060206143d389828a0161311a565b955050604087013567ffffffffffffffff8111156143f4576143f3612f6a565b5b61440089828a016130cb565b945050606061441189828a016131e1565b935050608087013567ffffffffffffffff81111561443257614431612f6a565b5b61443e89828a016130cb565b92505060a087013567ffffffffffffffff81111561445f5761445e612f6a565b5b61446b89828a016130cb565b9150509295509295509295565b7f6f6e6c795f6f776e65725f616c6c6f7765640000000000000000000000000000600082015250565b60006144ae601283614121565b91506144b982614478565b602082019050919050565b600060208201905081810360008301526144dd816144a1565b9050919050565b7f6f6e6c795f6d616e616765725f616c6c6f776564000000000000000000000000600082015250565b600061451a601483614121565b9150614525826144e4565b602082019050919050565b600060208201905081810360008301526145498161450d565b9050919050565b7f4e487b7100000000000000000000000000000000000000000000000000000000600052601160045260246000fd5b600061458a82612f6f565b915061459583612f6f565b92508261ffff038211156145ac576145ab614550565b5b828201905092915050565b7f4e487b7100000000000000000000000000000000000000000000000000000000600052602260045260246000fd5b600060028204905060018216806145fe57607f821691505b60208210811415614612576146116145b7565b5b50919050565b7f4e487b7100000000000000000000000000000000000000000000000000000000600052603260045260246000fd5b6000614652826130f9565b91507fffffffffffffffffffffffffffffffffffffffffffffffffffffffffffffffff82141561468557614684614550565b5b600182019050919050565b600081905092915050565b60006146a78385614690565b93506146b483858461307a565b82840190509392505050565b60006146cd82848661469b565b91508190509392505050565b60006146e482613813565b6146ee8185614690565b93506146fe81856020860161382f565b80840191505092915050565b600061471682846146d9565b91508190509291505056fea264697066735822122077aa22f9ba2c0659daa8ff6c9abfd079d386b65560e6f02aadf139422967ab2664736f6c63430008090033",
  "linkReferences": {},
  "deployedLinkReferences": {}
}