{
  "_format": "hh-sol-artifact-1",
  "contractName": "pro_ponData",
  "sourceName": "contracts/proponData.sol",
  "abi": [
    {
      "inputs": [],
      "stateMutability": "nonpayable",
      "type": "constructor"
    },
    {
      "inputs": [],
      "name": "CREATE_COMPANY_PRICE",
      "outputs": [
        {
          "internalType": "uint256",
          "name": "",
          "type": "uint256"
        }
      ],
      "stateMutability": "view",
      "type": "function"
    },
    {
      "inputs": [],
      "name": "CREATE_INVITATION_RFP_PRICE",
      "outputs": [
        {
          "internalType": "uint256",
          "name": "",
          "type": "uint256"
        }
      ],
      "stateMutability": "view",
      "type": "function"
    },
    {
      "inputs": [],
      "name": "CREATE_OPEN_RFP_PRICE",
      "outputs": [
        {
          "internalType": "uint256",
          "name": "",
          "type": "uint256"
        }
      ],
      "stateMutability": "view",
      "type": "function"
    },
    {
      "inputs": [],
      "name": "MAX_GUEST_INVITATION_TENDER",
      "outputs": [
        {
          "internalType": "uint256",
          "name": "",
          "type": "uint256"
        }
      ],
      "stateMutability": "view",
      "type": "function"
    },
    {
      "inputs": [],
      "name": "MAX_GUEST_OPEN_TENDER",
      "outputs": [
        {
          "internalType": "uint256",
          "name": "",
          "type": "uint256"
        }
      ],
      "stateMutability": "view",
      "type": "function"
    },
    {
      "inputs": [],
      "name": "REGISTER_OPEN_RFP_PRICE",
      "outputs": [
        {
          "internalType": "uint256",
          "name": "",
          "type": "uint256"
        }
      ],
      "stateMutability": "view",
      "type": "function"
    },
    {
      "inputs": [
        {
          "internalType": "uint16",
          "name": "",
          "type": "uint16"
        }
      ],
      "name": "RFPs",
      "outputs": [
        {
          "internalType": "string",
          "name": "name",
          "type": "string"
        },
        {
          "internalType": "string",
          "name": "description",
          "type": "string"
        },
        {
          "internalType": "uint16",
          "name": "rfpIndex",
          "type": "uint16"
        },
        {
          "internalType": "string",
          "name": "rfpwebsite",
          "type": "string"
        },
        {
          "internalType": "uint256",
          "name": "openDate",
          "type": "uint256"
        },
        {
          "internalType": "uint256",
          "name": "endReceivingDate",
          "type": "uint256"
        },
        {
          "internalType": "uint256",
          "name": "endDate",
          "type": "uint256"
        },
        {
          "internalType": "bool",
          "name": "canceled",
          "type": "bool"
        },
        {
          "internalType": "uint256",
          "name": "cancelDate",
          "type": "uint256"
        },
        {
          "internalType": "enum proponShared.ContestType",
          "name": "contestType",
          "type": "uint8"
        },
        {
          "internalType": "address",
          "name": "issuer",
          "type": "address"
        }
      ],
      "stateMutability": "view",
      "type": "function"
    },
    {
      "inputs": [
        {
          "internalType": "uint16",
          "name": "_rfpIndex",
          "type": "uint16"
        },
        {
          "internalType": "address[]",
          "name": "winners",
          "type": "address[]"
        }
      ],
      "name": "acrueWinsToCompany",
      "outputs": [],
      "stateMutability": "nonpayable",
      "type": "function"
    },
    {
      "inputs": [
        {
          "internalType": "uint16",
          "name": "_rfpIndex",
          "type": "uint16"
        },
        {
          "internalType": "address",
          "name": "company",
          "type": "address"
        }
      ],
      "name": "addCompanyParticipationinRFP",
      "outputs": [],
      "stateMutability": "nonpayable",
      "type": "function"
    },
    {
      "inputs": [
        {
          "internalType": "address",
          "name": "companyAddress",
          "type": "address"
        },
        {
          "internalType": "uint16",
          "name": "rfpIdx",
          "type": "uint16"
        }
      ],
      "name": "addCompanyRFP",
      "outputs": [],
      "stateMutability": "nonpayable",
      "type": "function"
    },
    {
      "inputs": [
        {
          "internalType": "uint16",
          "name": "_rfpIdx",
          "type": "uint16"
        },
        {
          "internalType": "uint256",
          "name": "_docType",
          "type": "uint256"
        },
        {
          "internalType": "string",
          "name": "_name",
          "type": "string"
        },
        {
          "internalType": "address",
          "name": "_owner",
          "type": "address"
        },
        {
          "internalType": "string",
          "name": "_documentHash",
          "type": "string"
        },
        {
          "internalType": "string",
          "name": "_idx",
          "type": "string"
        }
      ],
      "name": "addDocument",
      "outputs": [],
      "stateMutability": "nonpayable",
      "type": "function"
    },
    {
      "inputs": [
        {
          "internalType": "uint16",
          "name": "rfpId",
          "type": "uint16"
        },
        {
          "internalType": "address",
          "name": "participant",
          "type": "address"
        }
      ],
      "name": "addParticipantToRFP",
      "outputs": [],
      "stateMutability": "nonpayable",
      "type": "function"
    },
    {
      "inputs": [
        {
          "internalType": "uint16",
          "name": "_rfpIndex",
          "type": "uint16"
        },
        {
          "internalType": "address[]",
          "name": "winners",
          "type": "address[]"
        }
      ],
      "name": "addWinnersToRFP",
      "outputs": [],
      "stateMutability": "nonpayable",
      "type": "function"
    },
    {
      "inputs": [],
      "name": "destroy",
      "outputs": [],
      "stateMutability": "nonpayable",
      "type": "function"
    },
    {
      "inputs": [
        {
          "internalType": "uint16",
          "name": "_rfpIndex",
          "type": "uint16"
        }
      ],
      "name": "getCancelDate",
      "outputs": [
        {
          "internalType": "uint256",
          "name": "",
          "type": "uint256"
        }
      ],
      "stateMutability": "view",
      "type": "function"
    },
    {
      "inputs": [
        {
          "internalType": "address",
          "name": "adminaddress",
          "type": "address"
        }
      ],
      "name": "getCompany",
      "outputs": [
        {
          "components": [
            {
              "internalType": "string",
              "name": "id",
              "type": "string"
            },
            {
              "internalType": "string",
              "name": "name",
              "type": "string"
            },
            {
              "internalType": "string",
              "name": "country",
              "type": "string"
            },
            {
              "internalType": "uint16[]",
              "name": "RFPParticipations",
              "type": "uint16[]"
            },
            {
              "internalType": "uint16[]",
              "name": "RFPsWins",
              "type": "uint16[]"
            },
            {
              "internalType": "uint16[]",
              "name": "company_RFPs",
              "type": "uint16[]"
            }
          ],
          "internalType": "struct proponShared.Company",
          "name": "",
          "type": "tuple"
        }
      ],
      "stateMutability": "view",
      "type": "function"
    },
    {
      "inputs": [
        {
          "internalType": "address",
          "name": "companyAddress",
          "type": "address"
        }
      ],
      "name": "getCompanyId",
      "outputs": [
        {
          "internalType": "string",
          "name": "",
          "type": "string"
        }
      ],
      "stateMutability": "view",
      "type": "function"
    },
    {
      "inputs": [
        {
          "internalType": "address",
          "name": "account",
          "type": "address"
        }
      ],
      "name": "getCompanyRFPs",
      "outputs": [
        {
          "internalType": "uint16[]",
          "name": "",
          "type": "uint16[]"
        }
      ],
      "stateMutability": "view",
      "type": "function"
    },
    {
      "inputs": [],
      "name": "getCompanyWins",
      "outputs": [
        {
          "internalType": "uint16[]",
          "name": "",
          "type": "uint16[]"
        }
      ],
      "stateMutability": "view",
      "type": "function"
    },
    {
      "inputs": [],
      "name": "getCreateCompanyPrice",
      "outputs": [
        {
          "internalType": "uint256",
          "name": "",
          "type": "uint256"
        }
      ],
      "stateMutability": "view",
      "type": "function"
    },
    {
      "inputs": [
        {
          "internalType": "uint16",
          "name": "_rfpIdx",
          "type": "uint16"
        }
      ],
      "name": "getDocumentsfromRFP",
      "outputs": [
        {
          "components": [
            {
              "internalType": "uint256",
              "name": "docType",
              "type": "uint256"
            },
            {
              "internalType": "string",
              "name": "name",
              "type": "string"
            },
            {
              "internalType": "address",
              "name": "owner",
              "type": "address"
            },
            {
              "internalType": "string",
              "name": "documentHash",
              "type": "string"
            },
            {
              "internalType": "string",
              "name": "idx",
              "type": "string"
            }
          ],
          "internalType": "struct proponShared.Document[]",
          "name": "",
          "type": "tuple[]"
        }
      ],
      "stateMutability": "view",
      "type": "function"
    },
    {
      "inputs": [],
      "name": "getManager",
      "outputs": [
        {
          "internalType": "address",
          "name": "",
          "type": "address"
        }
      ],
      "stateMutability": "view",
      "type": "function"
    },
    {
      "inputs": [],
      "name": "getOwner",
      "outputs": [
        {
          "internalType": "address",
          "name": "",
          "type": "address"
        }
      ],
      "stateMutability": "view",
      "type": "function"
    },
    {
      "inputs": [
        {
          "internalType": "uint16",
          "name": "rfpIdx",
          "type": "uint16"
        }
      ],
      "name": "getRFPIssuer",
      "outputs": [
        {
          "internalType": "address",
          "name": "",
          "type": "address"
        }
      ],
      "stateMutability": "view",
      "type": "function"
    },
    {
      "inputs": [
        {
          "internalType": "uint16",
          "name": "_rfpId",
          "type": "uint16"
        }
      ],
      "name": "getRFPbyIndex",
      "outputs": [
        {
          "components": [
            {
              "internalType": "string",
              "name": "name",
              "type": "string"
            },
            {
              "internalType": "string",
              "name": "description",
              "type": "string"
            },
            {
              "internalType": "uint16",
              "name": "rfpIndex",
              "type": "uint16"
            },
            {
              "internalType": "string",
              "name": "rfpwebsite",
              "type": "string"
            },
            {
              "internalType": "uint256",
              "name": "openDate",
              "type": "uint256"
            },
            {
              "internalType": "uint256",
              "name": "endReceivingDate",
              "type": "uint256"
            },
            {
              "internalType": "uint256",
              "name": "endDate",
              "type": "uint256"
            },
            {
              "internalType": "bool",
              "name": "canceled",
              "type": "bool"
            },
            {
              "internalType": "uint256",
              "name": "cancelDate",
              "type": "uint256"
            },
            {
              "internalType": "address[]",
              "name": "participants",
              "type": "address[]"
            },
            {
              "internalType": "enum proponShared.ContestType",
              "name": "contestType",
              "type": "uint8"
            },
            {
              "internalType": "string[]",
              "name": "items",
              "type": "string[]"
            },
            {
              "internalType": "address[]",
              "name": "winners",
              "type": "address[]"
            },
            {
              "internalType": "address",
              "name": "issuer",
              "type": "address"
            }
          ],
          "internalType": "struct proponShared.RFP",
          "name": "",
          "type": "tuple"
        }
      ],
      "stateMutability": "view",
      "type": "function"
    },
    {
      "inputs": [
        {
          "internalType": "bytes32",
          "name": "pair",
          "type": "bytes32"
        }
      ],
      "name": "getRfpIds",
      "outputs": [
        {
          "internalType": "bool",
          "name": "",
          "type": "bool"
        }
      ],
      "stateMutability": "view",
      "type": "function"
    },
    {
      "inputs": [
        {
          "internalType": "uint16",
          "name": "_rfpIndex",
          "type": "uint16"
        }
      ],
      "name": "getWinners",
      "outputs": [
        {
          "internalType": "address[]",
          "name": "",
          "type": "address[]"
        }
      ],
      "stateMutability": "view",
      "type": "function"
    },
    {
      "inputs": [],
      "name": "getcurrentRFPIdx",
      "outputs": [
        {
          "internalType": "uint16",
          "name": "",
          "type": "uint16"
        }
      ],
      "stateMutability": "view",
      "type": "function"
    },
    {
      "inputs": [],
      "name": "incrementRFPIdx",
      "outputs": [],
      "stateMutability": "nonpayable",
      "type": "function"
    },
    {
      "inputs": [
        {
          "internalType": "string",
          "name": "_id",
          "type": "string"
        }
      ],
      "name": "isCompanyIdTaken",
      "outputs": [
        {
          "internalType": "bool",
          "name": "",
          "type": "bool"
        }
      ],
      "stateMutability": "view",
      "type": "function"
    },
    {
      "inputs": [
        {
          "internalType": "uint16",
          "name": "rfpIdx",
          "type": "uint16"
        }
      ],
      "name": "isRFPCanceled",
      "outputs": [
        {
          "internalType": "bool",
          "name": "",
          "type": "bool"
        }
      ],
      "stateMutability": "view",
      "type": "function"
    },
    {
      "inputs": [
        {
          "internalType": "address",
          "name": "companyAddress",
          "type": "address"
        },
        {
          "internalType": "string",
          "name": "_id",
          "type": "string"
        },
        {
          "internalType": "string",
          "name": "_name",
          "type": "string"
        },
        {
          "internalType": "string",
          "name": "_country",
          "type": "string"
        }
      ],
      "name": "setCompany",
      "outputs": [],
      "stateMutability": "nonpayable",
      "type": "function"
    },
    {
      "inputs": [
        {
          "internalType": "uint256",
          "name": "_value",
          "type": "uint256"
        }
      ],
      "name": "setCreateCompanyPrice",
      "outputs": [],
      "stateMutability": "nonpayable",
      "type": "function"
    },
    {
      "inputs": [
        {
          "internalType": "uint256",
          "name": "_value",
          "type": "uint256"
        }
      ],
      "name": "setCreateInvitationRfpPrice",
      "outputs": [],
      "stateMutability": "nonpayable",
      "type": "function"
    },
    {
      "inputs": [
        {
          "internalType": "uint256",
          "name": "_value",
          "type": "uint256"
        }
      ],
      "name": "setCreateOpenRfpPrice",
      "outputs": [],
      "stateMutability": "nonpayable",
      "type": "function"
    },
    {
      "inputs": [
        {
          "internalType": "address",
          "name": "_newManager",
          "type": "address"
        }
      ],
      "name": "setManager",
      "outputs": [],
      "stateMutability": "nonpayable",
      "type": "function"
    },
    {
      "inputs": [
        {
          "internalType": "uint256",
          "name": "_value",
          "type": "uint256"
        }
      ],
      "name": "setMaxGuestInvitationTender",
      "outputs": [],
      "stateMutability": "nonpayable",
      "type": "function"
    },
    {
      "inputs": [
        {
          "internalType": "uint256",
          "name": "_value",
          "type": "uint256"
        }
      ],
      "name": "setMaxGuestOpenTender",
      "outputs": [],
      "stateMutability": "nonpayable",
      "type": "function"
    },
    {
      "inputs": [
        {
          "internalType": "address",
          "name": "_newOwner",
          "type": "address"
        }
      ],
      "name": "setOwner",
      "outputs": [],
      "stateMutability": "nonpayable",
      "type": "function"
    },
    {
      "inputs": [
        {
          "internalType": "uint16",
          "name": "rfpIdx",
          "type": "uint16"
        },
        {
          "components": [
            {
              "internalType": "string",
              "name": "name",
              "type": "string"
            },
            {
              "internalType": "string",
              "name": "description",
              "type": "string"
            },
            {
              "internalType": "uint16",
              "name": "rfpIndex",
              "type": "uint16"
            },
            {
              "internalType": "string",
              "name": "rfpwebsite",
              "type": "string"
            },
            {
              "internalType": "uint256",
              "name": "openDate",
              "type": "uint256"
            },
            {
              "internalType": "uint256",
              "name": "endReceivingDate",
              "type": "uint256"
            },
            {
              "internalType": "uint256",
              "name": "endDate",
              "type": "uint256"
            },
            {
              "internalType": "bool",
              "name": "canceled",
              "type": "bool"
            },
            {
              "internalType": "uint256",
              "name": "cancelDate",
              "type": "uint256"
            },
            {
              "internalType": "address[]",
              "name": "participants",
              "type": "address[]"
            },
            {
              "internalType": "enum proponShared.ContestType",
              "name": "contestType",
              "type": "uint8"
            },
            {
              "internalType": "string[]",
              "name": "items",
              "type": "string[]"
            },
            {
              "internalType": "address[]",
              "name": "winners",
              "type": "address[]"
            },
            {
              "internalType": "address",
              "name": "issuer",
              "type": "address"
            }
          ],
          "internalType": "struct proponShared.RFP",
          "name": "rfp",
          "type": "tuple"
        }
      ],
      "name": "setRFP",
      "outputs": [],
      "stateMutability": "nonpayable",
      "type": "function"
    },
    {
      "inputs": [
        {
          "internalType": "uint16",
          "name": "_rfpIndex",
          "type": "uint16"
        },
        {
          "internalType": "uint256",
          "name": "_cancelDate",
          "type": "uint256"
        }
      ],
      "name": "setRFPCancelDate",
      "outputs": [],
      "stateMutability": "nonpayable",
      "type": "function"
    },
    {
      "inputs": [
        {
          "internalType": "uint16",
          "name": "_rfpIndex",
          "type": "uint16"
        },
        {
          "internalType": "bool",
          "name": "_canceled",
          "type": "bool"
        }
      ],
      "name": "setRFPCanceled",
      "outputs": [],
      "stateMutability": "nonpayable",
      "type": "function"
    },
    {
      "inputs": [
        {
          "internalType": "uint256",
          "name": "_value",
          "type": "uint256"
        }
      ],
      "name": "setRegisterOpenRfpPrice",
      "outputs": [],
      "stateMutability": "nonpayable",
      "type": "function"
    },
    {
      "inputs": [
        {
          "internalType": "bytes32",
          "name": "pair",
          "type": "bytes32"
        }
      ],
      "name": "setRfpId",
      "outputs": [],
      "stateMutability": "nonpayable",
      "type": "function"
    }
  ],
  "bytecode": "0x6080604052655af3107a4000600255655af3107a400060035565b5e620f48000600455655af3107a4000600555600a600655600a6007556000600860006101000a81548161ffff021916908361ffff16021790555034801561006057600080fd5b50336000806101000a81548173ffffffffffffffffffffffffffffffffffffffff021916908373ffffffffffffffffffffffffffffffffffffffff16021790555033600160006101000a81548173ffffffffffffffffffffffffffffffffffffffff021916908373ffffffffffffffffffffffffffffffffffffffff160217905550614788806100f16000396000f3fe608060405234801561001057600080fd5b50600436106102735760003560e01c806394abc44311610151578063d6f343c5116100c3578063e6d29d9411610087578063e6d29d9414610774578063ea1b4b1d146107a4578063ecbb7b4a146107c0578063ee769090146107de578063f9c3c20c146107fa578063fb7207611461081657610273565b8063d6f343c5146106d2578063d7a8529e14610702578063da2e18601461071e578063e31fc5bf1461073c578063e3a1bd1c1461075857610273565b8063b8a4d46e11610115578063b8a4d46e14610612578063be2ec7861461062e578063be38013b1461064a578063c062d64a14610668578063d0ebdbe714610698578063d5009584146106b457610273565b806394abc4431461052a5780639e7a1f641461055a578063a021027c1461058a578063a540c5e7146105ba578063afeff8d9146105f457610273565b80634e289b88116101ea57806376d44f27116101ae57806376d44f271461047e57806379497fb41461049a57806383197ef0146104b6578063893d20e8146104c05780638e2999e4146104de57806390287940146104fa57610273565b80634e289b88146103c65780635a6167c9146103e45780635d9c47f51461040257806362bc56e61461041e57806367aabb1a1461044e57610273565b80632aec6e5a1161023c5780632aec6e5a146102f657806333572e921461032657806343a2d04814610342578063466c51fc1461037257806347475a481461038e5780634ccba247146103aa57610273565b8062618921146102785780631393b9e81461029457806313af4035146102b25780631a3ca1d8146102ce578063215cf05d146102d8575b600080fd5b610292600480360381019061028d91906135ba565b610834565b005b61029c610a7b565b6040516102a99190613625565b60405180910390f35b6102cc60048036038101906102c79190613640565b610a93565b005b6102d6610b64565b005b6102e0610c2e565b6040516102ed919061367c565b60405180910390f35b610310600480360381019061030b9190613697565b610c34565b60405161031d91906136d3565b60405180910390f35b610340600480360381019061033b91906136ee565b610c7c565b005b61035c60048036038101906103579190613764565b610d98565b60405161036991906137a0565b60405180910390f35b61038c600480360381019061038791906137bb565b610dc2565b005b6103a860048036038101906103a391906137e8565b610e5c565b005b6103c460048036038101906103bf91906137bb565b610f21565b005b6103ce610fbb565b6040516103db919061367c565b60405180910390f35b6103ec610fc1565b6040516103f9919061367c565b60405180910390f35b61041c600480360381019061041791906137bb565b610fc7565b005b61043860048036038101906104339190613640565b611061565b6040516104459190613a36565b60405180910390f35b61046860048036038101906104639190613640565b6113f0565b6040516104759190613ac7565b60405180910390f35b61049860048036038101906104939190613ae9565b6114b2565b005b6104b460048036038101906104af91906137e8565b6114d9565b005b6104be611635565b005b6104c86116fe565b6040516104d591906136d3565b60405180910390f35b6104f860048036038101906104f391906137bb565b611727565b005b610514600480360381019061050f9190613b84565b6117c1565b60405161052191906137a0565b60405180910390f35b610544600480360381019061053f9190613697565b6117f9565b6040516105519190613c8f565b60405180910390f35b610574600480360381019061056f9190613697565b6118a5565b6040516105819190613fc8565b60405180910390f35b6105a4600480360381019061059f9190613697565b611d7a565b6040516105b19190614130565b60405180910390f35b6105d460048036038101906105cf9190613697565b61200a565b6040516105eb9b9a999897969594939291906141ab565b60405180910390f35b6105fc612244565b604051610609919061367c565b60405180910390f35b61062c6004803603810190610627919061426b565b61224a565b005b610648600480360381019061064391906136ee565b612366565b005b610652612477565b60405161065f919061367c565b60405180910390f35b610682600480360381019061067d9190613697565b61247d565b60405161068f919061367c565b60405180910390f35b6106b260048036038101906106ad9190613640565b6124a5565b005b6106bc612579565b6040516106c991906136d3565b60405180910390f35b6106ec60048036038101906106e79190613640565b6125a3565b6040516106f991906142ab565b60405180910390f35b61071c600480360381019061071791906137bb565b612677565b005b610726612711565b604051610733919061367c565b60405180910390f35b610756600480360381019061075191906142cd565b61271b565b005b610772600480360381019061076d9190614388565b612875565b005b61078e60048036038101906107899190613697565b6128af565b60405161079b91906137a0565b60405180910390f35b6107be60048036038101906107b991906137bb565b6128e4565b005b6107c861297e565b6040516107d5919061367c565b60405180910390f35b6107f860048036038101906107f391906143c8565b612984565b005b610814600480360381019061080f9190613764565b612b4b565b005b61081e612c08565b60405161082b9190613ac7565b60405180910390f35b60008054906101000a900473ffffffffffffffffffffffffffffffffffffffff1673ffffffffffffffffffffffffffffffffffffffff163373ffffffffffffffffffffffffffffffffffffffff16146108c2576040517f08c379a00000000000000000000000000000000000000000000000000000000081526004016108b9906144f5565b60405180910390fd5b80600b60008461ffff1661ffff16815260200190815260200160002060008201518160000190805190602001906108fa929190612cc8565b506020820151816001019080519060200190610917929190612cc8565b5060408201518160020160006101000a81548161ffff021916908361ffff1602179055506060820151816003019080519060200190610957929190612cc8565b506080820151816004015560a0820151816005015560c0820151816006015560e08201518160070160006101000a81548160ff02191690831515021790555061010082015181600801556101208201518160090190805190602001906109be929190612d4e565b5061014082015181600a0160006101000a81548160ff021916908360018111156109eb576109ea613d3e565b5b021790555061016082015181600b019080519060200190610a0d929190612dd8565b5061018082015181600c019080519060200190610a2b929190612d4e565b506101a082015181600d0160006101000a81548173ffffffffffffffffffffffffffffffffffffffff021916908373ffffffffffffffffffffffffffffffffffffffff1602179055509050505050565b6000600860009054906101000a900461ffff16905090565b60008054906101000a900473ffffffffffffffffffffffffffffffffffffffff1673ffffffffffffffffffffffffffffffffffffffff163373ffffffffffffffffffffffffffffffffffffffff1614610b21576040517f08c379a0000000000000000000000000000000000000000000000000000000008152600401610b18906144f5565b60405180910390fd5b806000806101000a81548173ffffffffffffffffffffffffffffffffffffffff021916908373ffffffffffffffffffffffffffffffffffffffff16021790555050565b60008054906101000a900473ffffffffffffffffffffffffffffffffffffffff1673ffffffffffffffffffffffffffffffffffffffff163373ffffffffffffffffffffffffffffffffffffffff1614610bf2576040517f08c379a0000000000000000000000000000000000000000000000000000000008152600401610be9906144f5565b60405180910390fd5b6001600860008282829054906101000a900461ffff16610c129190614544565b92506101000a81548161ffff021916908361ffff160217905550565b60025481565b6000600b60008361ffff1661ffff168152602001908152602001600020600d0160009054906101000a900473ffffffffffffffffffffffffffffffffffffffff169050919050565b60008054906101000a900473ffffffffffffffffffffffffffffffffffffffff1673ffffffffffffffffffffffffffffffffffffffff163373ffffffffffffffffffffffffffffffffffffffff1614610d0a576040517f08c379a0000000000000000000000000000000000000000000000000000000008152600401610d01906144f5565b60405180910390fd5b600960008273ffffffffffffffffffffffffffffffffffffffff1673ffffffffffffffffffffffffffffffffffffffff1681526020019081526020016000206003018290806001815401808255809150506001900390600052602060002090601091828204019190066002029091909190916101000a81548161ffff021916908361ffff1602179055505050565b6000600d600083815260200190815260200160002060009054906101000a900460ff169050919050565b600160009054906101000a900473ffffffffffffffffffffffffffffffffffffffff1673ffffffffffffffffffffffffffffffffffffffff163373ffffffffffffffffffffffffffffffffffffffff1614610e52576040517f08c379a0000000000000000000000000000000000000000000000000000000008152600401610e49906145c8565b60405180910390fd5b8060028190555050565b60008054906101000a900473ffffffffffffffffffffffffffffffffffffffff1673ffffffffffffffffffffffffffffffffffffffff163373ffffffffffffffffffffffffffffffffffffffff1614610eea576040517f08c379a0000000000000000000000000000000000000000000000000000000008152600401610ee1906144f5565b60405180910390fd5b80600b60008461ffff1661ffff168152602001908152602001600020600c019080519060200190610f1c929190612d4e565b505050565b600160009054906101000a900473ffffffffffffffffffffffffffffffffffffffff1673ffffffffffffffffffffffffffffffffffffffff163373ffffffffffffffffffffffffffffffffffffffff1614610fb1576040517f08c379a0000000000000000000000000000000000000000000000000000000008152600401610fa8906145c8565b60405180910390fd5b8060068190555050565b60035481565b60075481565b600160009054906101000a900473ffffffffffffffffffffffffffffffffffffffff1673ffffffffffffffffffffffffffffffffffffffff163373ffffffffffffffffffffffffffffffffffffffff1614611057576040517f08c379a000000000000000000000000000000000000000000000000000000000815260040161104e906145c8565b60405180910390fd5b8060038190555050565b611069612e38565b600960008373ffffffffffffffffffffffffffffffffffffffff1673ffffffffffffffffffffffffffffffffffffffff1681526020019081526020016000206040518060c00160405290816000820180546110c390614617565b80601f01602080910402602001604051908101604052809291908181526020018280546110ef90614617565b801561113c5780601f106111115761010080835404028352916020019161113c565b820191906000526020600020905b81548152906001019060200180831161111f57829003601f168201915b5050505050815260200160018201805461115590614617565b80601f016020809104026020016040519081016040528092919081815260200182805461118190614617565b80156111ce5780601f106111a3576101008083540402835291602001916111ce565b820191906000526020600020905b8154815290600101906020018083116111b157829003601f168201915b505050505081526020016002820180546111e790614617565b80601f016020809104026020016040519081016040528092919081815260200182805461121390614617565b80156112605780601f1061123557610100808354040283529160200191611260565b820191906000526020600020905b81548152906001019060200180831161124357829003601f168201915b50505050508152602001600382018054806020026020016040519081016040528092919081815260200182805480156112e057602002820191906000526020600020906000905b82829054906101000a900461ffff1661ffff16815260200190600201906020826001010492830192600103820291508084116112a75790505b505050505081526020016004820180548060200260200160405190810160405280929190818152602001828054801561136057602002820191906000526020600020906000905b82829054906101000a900461ffff1661ffff16815260200190600201906020826001010492830192600103820291508084116113275790505b50505050508152602001600582018054806020026020016040519081016040528092919081815260200182805480156113e057602002820191906000526020600020906000905b82829054906101000a900461ffff1661ffff16815260200190600201906020826001010492830192600103820291508084116113a75790505b5050505050815250509050919050565b6060600960008373ffffffffffffffffffffffffffffffffffffffff1673ffffffffffffffffffffffffffffffffffffffff1681526020019081526020016000206005018054806020026020016040519081016040528092919081815260200182805480156114a657602002820191906000526020600020906000905b82829054906101000a900461ffff1661ffff168152602001906002019060208260010104928301926001038202915080841161146d5790505b50505050509050919050565b80600b60008461ffff1661ffff168152602001908152602001600020600801819055505050565b60008054906101000a900473ffffffffffffffffffffffffffffffffffffffff1673ffffffffffffffffffffffffffffffffffffffff163373ffffffffffffffffffffffffffffffffffffffff1614611567576040517f08c379a000000000000000000000000000000000000000000000000000000000815260040161155e906144f5565b60405180910390fd5b60008151905060005b8181101561162f576009600084838151811061158f5761158e614649565b5b602002602001015173ffffffffffffffffffffffffffffffffffffffff1673ffffffffffffffffffffffffffffffffffffffff1681526020019081526020016000206004018490806001815401808255809150506001900390600052602060002090601091828204019190066002029091909190916101000a81548161ffff021916908361ffff160217905550808061162790614678565b915050611570565b50505050565b600160009054906101000a900473ffffffffffffffffffffffffffffffffffffffff1673ffffffffffffffffffffffffffffffffffffffff163373ffffffffffffffffffffffffffffffffffffffff16146116c5576040517f08c379a00000000000000000000000000000000000000000000000000000000081526004016116bc906145c8565b60405180910390fd5b60008054906101000a900473ffffffffffffffffffffffffffffffffffffffff1673ffffffffffffffffffffffffffffffffffffffff16ff5b60008060009054906101000a900473ffffffffffffffffffffffffffffffffffffffff16905090565b600160009054906101000a900473ffffffffffffffffffffffffffffffffffffffff1673ffffffffffffffffffffffffffffffffffffffff163373ffffffffffffffffffffffffffffffffffffffff16146117b7576040517f08c379a00000000000000000000000000000000000000000000000000000000081526004016117ae906145c8565b60405180910390fd5b8060078190555050565b6000600a83836040516117d59291906146f1565b908152602001604051809103902060009054906101000a900460ff16905092915050565b6060600b60008361ffff1661ffff168152602001908152602001600020600c0180548060200260200160405190810160405280929190818152602001828054801561189957602002820191906000526020600020905b8160009054906101000a900473ffffffffffffffffffffffffffffffffffffffff1673ffffffffffffffffffffffffffffffffffffffff168152602001906001019080831161184f575b50505050509050919050565b6118ad612e6e565b600b60008361ffff1661ffff168152602001908152602001600020604051806101c00160405290816000820180546118e490614617565b80601f016020809104026020016040519081016040528092919081815260200182805461191090614617565b801561195d5780601f106119325761010080835404028352916020019161195d565b820191906000526020600020905b81548152906001019060200180831161194057829003601f168201915b5050505050815260200160018201805461197690614617565b80601f01602080910402602001604051908101604052809291908181526020018280546119a290614617565b80156119ef5780601f106119c4576101008083540402835291602001916119ef565b820191906000526020600020905b8154815290600101906020018083116119d257829003601f168201915b505050505081526020016002820160009054906101000a900461ffff1661ffff1661ffff168152602001600382018054611a2890614617565b80601f0160208091040260200160405190810160405280929190818152602001828054611a5490614617565b8015611aa15780601f10611a7657610100808354040283529160200191611aa1565b820191906000526020600020905b815481529060010190602001808311611a8457829003601f168201915b505050505081526020016004820154815260200160058201548152602001600682015481526020016007820160009054906101000a900460ff161515151581526020016008820154815260200160098201805480602002602001604051908101604052809291908181526020018280548015611b7257602002820191906000526020600020905b8160009054906101000a900473ffffffffffffffffffffffffffffffffffffffff1673ffffffffffffffffffffffffffffffffffffffff1681526020019060010190808311611b28575b50505050508152602001600a820160009054906101000a900460ff166001811115611ba057611b9f613d3e565b5b6001811115611bb257611bb1613d3e565b5b8152602001600b8201805480602002602001604051908101604052809291908181526020016000905b82821015611c87578382906000526020600020018054611bfa90614617565b80601f0160208091040260200160405190810160405280929190818152602001828054611c2690614617565b8015611c735780601f10611c4857610100808354040283529160200191611c73565b820191906000526020600020905b815481529060010190602001808311611c5657829003601f168201915b505050505081526020019060010190611bdb565b505050508152602001600c8201805480602002602001604051908101604052809291908181526020018280548015611d1457602002820191906000526020600020905b8160009054906101000a900473ffffffffffffffffffffffffffffffffffffffff1673ffffffffffffffffffffffffffffffffffffffff1681526020019060010190808311611cca575b50505050508152602001600d820160009054906101000a900473ffffffffffffffffffffffffffffffffffffffff1673ffffffffffffffffffffffffffffffffffffffff1673ffffffffffffffffffffffffffffffffffffffff16815250509050919050565b6060600c60008361ffff1661ffff168152602001908152602001600020805480602002602001604051908101604052809291908181526020016000905b82821015611fff57838290600052602060002090600502016040518060a001604052908160008201548152602001600182018054611df490614617565b80601f0160208091040260200160405190810160405280929190818152602001828054611e2090614617565b8015611e6d5780601f10611e4257610100808354040283529160200191611e6d565b820191906000526020600020905b815481529060010190602001808311611e5057829003601f168201915b505050505081526020016002820160009054906101000a900473ffffffffffffffffffffffffffffffffffffffff1673ffffffffffffffffffffffffffffffffffffffff1673ffffffffffffffffffffffffffffffffffffffff168152602001600382018054611edc90614617565b80601f0160208091040260200160405190810160405280929190818152602001828054611f0890614617565b8015611f555780601f10611f2a57610100808354040283529160200191611f55565b820191906000526020600020905b815481529060010190602001808311611f3857829003601f168201915b50505050508152602001600482018054611f6e90614617565b80601f0160208091040260200160405190810160405280929190818152602001828054611f9a90614617565b8015611fe75780601f10611fbc57610100808354040283529160200191611fe7565b820191906000526020600020905b815481529060010190602001808311611fca57829003601f168201915b50505050508152505081526020019060010190611db7565b505050509050919050565b600b60205280600052604060002060009150905080600001805461202d90614617565b80601f016020809104026020016040519081016040528092919081815260200182805461205990614617565b80156120a65780601f1061207b576101008083540402835291602001916120a6565b820191906000526020600020905b81548152906001019060200180831161208957829003601f168201915b5050505050908060010180546120bb90614617565b80601f01602080910402602001604051908101604052809291908181526020018280546120e790614617565b80156121345780601f1061210957610100808354040283529160200191612134565b820191906000526020600020905b81548152906001019060200180831161211757829003601f168201915b5050505050908060020160009054906101000a900461ffff169080600301805461215d90614617565b80601f016020809104026020016040519081016040528092919081815260200182805461218990614617565b80156121d65780601f106121ab576101008083540402835291602001916121d6565b820191906000526020600020905b8154815290600101906020018083116121b957829003601f168201915b5050505050908060040154908060050154908060060154908060070160009054906101000a900460ff169080600801549080600a0160009054906101000a900460ff169080600d0160009054906101000a900473ffffffffffffffffffffffffffffffffffffffff1690508b565b60045481565b60008054906101000a900473ffffffffffffffffffffffffffffffffffffffff1673ffffffffffffffffffffffffffffffffffffffff163373ffffffffffffffffffffffffffffffffffffffff16146122d8576040517f08c379a00000000000000000000000000000000000000000000000000000000081526004016122cf906144f5565b60405180910390fd5b600960008373ffffffffffffffffffffffffffffffffffffffff1673ffffffffffffffffffffffffffffffffffffffff1681526020019081526020016000206005018190806001815401808255809150506001900390600052602060002090601091828204019190066002029091909190916101000a81548161ffff021916908361ffff1602179055505050565b60008054906101000a900473ffffffffffffffffffffffffffffffffffffffff1673ffffffffffffffffffffffffffffffffffffffff163373ffffffffffffffffffffffffffffffffffffffff16146123f4576040517f08c379a00000000000000000000000000000000000000000000000000000000081526004016123eb906144f5565b60405180910390fd5b600b60008361ffff1661ffff168152602001908152602001600020600901819080600181540180825580915050600190039060005260206000200160009091909190916101000a81548173ffffffffffffffffffffffffffffffffffffffff021916908373ffffffffffffffffffffffffffffffffffffffff1602179055505050565b60055481565b6000600b60008361ffff1661ffff168152602001908152602001600020600801549050919050565b600160009054906101000a900473ffffffffffffffffffffffffffffffffffffffff1673ffffffffffffffffffffffffffffffffffffffff163373ffffffffffffffffffffffffffffffffffffffff1614612535576040517f08c379a000000000000000000000000000000000000000000000000000000000815260040161252c906145c8565b60405180910390fd5b80600160006101000a81548173ffffffffffffffffffffffffffffffffffffffff021916908373ffffffffffffffffffffffffffffffffffffffff16021790555050565b6000600160009054906101000a900473ffffffffffffffffffffffffffffffffffffffff16905090565b6060600960008373ffffffffffffffffffffffffffffffffffffffff1673ffffffffffffffffffffffffffffffffffffffff16815260200190815260200160002060000180546125f290614617565b80601f016020809104026020016040519081016040528092919081815260200182805461261e90614617565b801561266b5780601f106126405761010080835404028352916020019161266b565b820191906000526020600020905b81548152906001019060200180831161264e57829003601f168201915b50505050509050919050565b600160009054906101000a900473ffffffffffffffffffffffffffffffffffffffff1673ffffffffffffffffffffffffffffffffffffffff163373ffffffffffffffffffffffffffffffffffffffff1614612707576040517f08c379a00000000000000000000000000000000000000000000000000000000081526004016126fe906145c8565b60405180910390fd5b8060058190555050565b6000600254905090565b60008054906101000a900473ffffffffffffffffffffffffffffffffffffffff1673ffffffffffffffffffffffffffffffffffffffff163373ffffffffffffffffffffffffffffffffffffffff16146127a9576040517f08c379a00000000000000000000000000000000000000000000000000000000081526004016127a0906144f5565b60405180910390fd5b6000600960008673ffffffffffffffffffffffffffffffffffffffff1673ffffffffffffffffffffffffffffffffffffffff168152602001908152602001600020905083816000019080519060200190612804929190612cc8565b508281600101908051906020019061281d929190612cc8565b5081816002019080519060200190612836929190612cc8565b506001600a85604051612849919061473b565b908152602001604051809103902060006101000a81548160ff0219169083151502179055505050505050565b80600b60008461ffff1661ffff16815260200190815260200160002060070160006101000a81548160ff0219169083151502179055505050565b6000600b60008361ffff1661ffff16815260200190815260200160002060070160009054906101000a900460ff169050919050565b600160009054906101000a900473ffffffffffffffffffffffffffffffffffffffff1673ffffffffffffffffffffffffffffffffffffffff163373ffffffffffffffffffffffffffffffffffffffff1614612974576040517f08c379a000000000000000000000000000000000000000000000000000000000815260040161296b906145c8565b60405180910390fd5b8060048190555050565b60065481565b60008054906101000a900473ffffffffffffffffffffffffffffffffffffffff1673ffffffffffffffffffffffffffffffffffffffff163373ffffffffffffffffffffffffffffffffffffffff1614612a12576040517f08c379a0000000000000000000000000000000000000000000000000000000008152600401612a09906144f5565b60405180910390fd5b60006040518060a001604052808781526020018681526020018573ffffffffffffffffffffffffffffffffffffffff168152602001848152602001838152509050600c60008861ffff1661ffff168152602001908152602001600020819080600181540180825580915050600190039060005260206000209060050201600090919091909150600082015181600001556020820151816001019080519060200190612abe929190612cc8565b5060408201518160020160006101000a81548173ffffffffffffffffffffffffffffffffffffffff021916908373ffffffffffffffffffffffffffffffffffffffff1602179055506060820151816003019080519060200190612b22929190612cc8565b506080820151816004019080519060200190612b3f929190612cc8565b50505050505050505050565b60008054906101000a900473ffffffffffffffffffffffffffffffffffffffff1673ffffffffffffffffffffffffffffffffffffffff163373ffffffffffffffffffffffffffffffffffffffff1614612bd9576040517f08c379a0000000000000000000000000000000000000000000000000000000008152600401612bd0906144f5565b60405180910390fd5b6001600d600083815260200190815260200160002060006101000a81548160ff02191690831515021790555050565b6060600960003373ffffffffffffffffffffffffffffffffffffffff1673ffffffffffffffffffffffffffffffffffffffff168152602001908152602001600020600401805480602002602001604051908101604052809291908181526020018280548015612cbe57602002820191906000526020600020906000905b82829054906101000a900461ffff1661ffff1681526020019060020190602082600101049283019260010382029150808411612c855790505b5050505050905090565b828054612cd490614617565b90600052602060002090601f016020900481019282612cf65760008555612d3d565b82601f10612d0f57805160ff1916838001178555612d3d565b82800160010185558215612d3d579182015b82811115612d3c578251825591602001919060010190612d21565b5b509050612d4a9190612f0b565b5090565b828054828255906000526020600020908101928215612dc7579160200282015b82811115612dc65782518260006101000a81548173ffffffffffffffffffffffffffffffffffffffff021916908373ffffffffffffffffffffffffffffffffffffffff16021790555091602001919060010190612d6e565b5b509050612dd49190612f0b565b5090565b828054828255906000526020600020908101928215612e27579160200282015b82811115612e26578251829080519060200190612e16929190612cc8565b5091602001919060010190612df8565b5b509050612e349190612f28565b5090565b6040518060c001604052806060815260200160608152602001606081526020016060815260200160608152602001606081525090565b604051806101c001604052806060815260200160608152602001600061ffff16815260200160608152602001600081526020016000815260200160008152602001600015158152602001600081526020016060815260200160006001811115612eda57612ed9613d3e565b5b81526020016060815260200160608152602001600073ffffffffffffffffffffffffffffffffffffffff1681525090565b5b80821115612f24576000816000905550600101612f0c565b5090565b5b80821115612f485760008181612f3f9190612f4c565b50600101612f29565b5090565b508054612f5890614617565b6000825580601f10612f6a5750612f89565b601f016020900490600052602060002090810190612f889190612f0b565b5b50565b6000604051905090565b600080fd5b600080fd5b600061ffff82169050919050565b612fb781612fa0565b8114612fc257600080fd5b50565b600081359050612fd481612fae565b92915050565b600080fd5b6000601f19601f8301169050919050565b7f4e487b7100000000000000000000000000000000000000000000000000000000600052604160045260246000fd5b61302882612fdf565b810181811067ffffffffffffffff8211171561304757613046612ff0565b5b80604052505050565b600061305a612f8c565b9050613066828261301f565b919050565b600080fd5b600080fd5b600080fd5b600067ffffffffffffffff82111561309557613094612ff0565b5b61309e82612fdf565b9050602081019050919050565b82818337600083830152505050565b60006130cd6130c88461307a565b613050565b9050828152602081018484840111156130e9576130e8613075565b5b6130f48482856130ab565b509392505050565b600082601f83011261311157613110613070565b5b81356131218482602086016130ba565b91505092915050565b6000819050919050565b61313d8161312a565b811461314857600080fd5b50565b60008135905061315a81613134565b92915050565b60008115159050919050565b61317581613160565b811461318057600080fd5b50565b6000813590506131928161316c565b92915050565b600067ffffffffffffffff8211156131b3576131b2612ff0565b5b602082029050602081019050919050565b600080fd5b600073ffffffffffffffffffffffffffffffffffffffff82169050919050565b60006131f4826131c9565b9050919050565b613204816131e9565b811461320f57600080fd5b50565b600081359050613221816131fb565b92915050565b600061323a61323584613198565b613050565b9050808382526020820190506020840283018581111561325d5761325c6131c4565b5b835b8181101561328657806132728882613212565b84526020840193505060208101905061325f565b5050509392505050565b600082601f8301126132a5576132a4613070565b5b81356132b5848260208601613227565b91505092915050565b600281106132cb57600080fd5b50565b6000813590506132dd816132be565b92915050565b600067ffffffffffffffff8211156132fe576132fd612ff0565b5b602082029050602081019050919050565b600061332261331d846132e3565b613050565b90508083825260208201905060208402830185811115613345576133446131c4565b5b835b8181101561338c57803567ffffffffffffffff81111561336a57613369613070565b5b80860161337789826130fc565b85526020850194505050602081019050613347565b5050509392505050565b600082601f8301126133ab576133aa613070565b5b81356133bb84826020860161330f565b91505092915050565b60006101c082840312156133db576133da612fda565b5b6133e66101c0613050565b9050600082013567ffffffffffffffff8111156134065761340561306b565b5b613412848285016130fc565b600083015250602082013567ffffffffffffffff8111156134365761343561306b565b5b613442848285016130fc565b602083015250604061345684828501612fc5565b604083015250606082013567ffffffffffffffff81111561347a5761347961306b565b5b613486848285016130fc565b606083015250608061349a8482850161314b565b60808301525060a06134ae8482850161314b565b60a08301525060c06134c28482850161314b565b60c08301525060e06134d684828501613183565b60e0830152506101006134eb8482850161314b565b6101008301525061012082013567ffffffffffffffff8111156135115761351061306b565b5b61351d84828501613290565b61012083015250610140613533848285016132ce565b6101408301525061016082013567ffffffffffffffff8111156135595761355861306b565b5b61356584828501613396565b6101608301525061018082013567ffffffffffffffff81111561358b5761358a61306b565b5b61359784828501613290565b610180830152506101a06135ad84828501613212565b6101a08301525092915050565b600080604083850312156135d1576135d0612f96565b5b60006135df85828601612fc5565b925050602083013567ffffffffffffffff811115613600576135ff612f9b565b5b61360c858286016133c4565b9150509250929050565b61361f81612fa0565b82525050565b600060208201905061363a6000830184613616565b92915050565b60006020828403121561365657613655612f96565b5b600061366484828501613212565b91505092915050565b6136768161312a565b82525050565b6000602082019050613691600083018461366d565b92915050565b6000602082840312156136ad576136ac612f96565b5b60006136bb84828501612fc5565b91505092915050565b6136cd816131e9565b82525050565b60006020820190506136e860008301846136c4565b92915050565b6000806040838503121561370557613704612f96565b5b600061371385828601612fc5565b925050602061372485828601613212565b9150509250929050565b6000819050919050565b6137418161372e565b811461374c57600080fd5b50565b60008135905061375e81613738565b92915050565b60006020828403121561377a57613779612f96565b5b60006137888482850161374f565b91505092915050565b61379a81613160565b82525050565b60006020820190506137b56000830184613791565b92915050565b6000602082840312156137d1576137d0612f96565b5b60006137df8482850161314b565b91505092915050565b600080604083850312156137ff576137fe612f96565b5b600061380d85828601612fc5565b925050602083013567ffffffffffffffff81111561382e5761382d612f9b565b5b61383a85828601613290565b9150509250929050565b600081519050919050565b600082825260208201905092915050565b60005b8381101561387e578082015181840152602081019050613863565b8381111561388d576000848401525b50505050565b600061389e82613844565b6138a8818561384f565b93506138b8818560208601613860565b6138c181612fdf565b840191505092915050565b600081519050919050565b600082825260208201905092915050565b6000819050602082019050919050565b61390181612fa0565b82525050565b600061391383836138f8565b60208301905092915050565b6000602082019050919050565b6000613937826138cc565b61394181856138d7565b935061394c836138e8565b8060005b8381101561397d5781516139648882613907565b975061396f8361391f565b925050600181019050613950565b5085935050505092915050565b600060c08301600083015184820360008601526139a78282613893565b915050602083015184820360208601526139c18282613893565b915050604083015184820360408601526139db8282613893565b915050606083015184820360608601526139f5828261392c565b91505060808301518482036080860152613a0f828261392c565b91505060a083015184820360a0860152613a29828261392c565b9150508091505092915050565b60006020820190508181036000830152613a50818461398a565b905092915050565b600082825260208201905092915050565b6000613a74826138cc565b613a7e8185613a58565b9350613a89836138e8565b8060005b83811015613aba578151613aa18882613907565b9750613aac8361391f565b925050600181019050613a8d565b5085935050505092915050565b60006020820190508181036000830152613ae18184613a69565b905092915050565b60008060408385031215613b0057613aff612f96565b5b6000613b0e85828601612fc5565b9250506020613b1f8582860161314b565b9150509250929050565b600080fd5b60008083601f840112613b4457613b43613070565b5b8235905067ffffffffffffffff811115613b6157613b60613b29565b5b602083019150836001820283011115613b7d57613b7c6131c4565b5b9250929050565b60008060208385031215613b9b57613b9a612f96565b5b600083013567ffffffffffffffff811115613bb957613bb8612f9b565b5b613bc585828601613b2e565b92509250509250929050565b600081519050919050565b600082825260208201905092915050565b6000819050602082019050919050565b613c06816131e9565b82525050565b6000613c188383613bfd565b60208301905092915050565b6000602082019050919050565b6000613c3c82613bd1565b613c468185613bdc565b9350613c5183613bed565b8060005b83811015613c82578151613c698882613c0c565b9750613c7483613c24565b925050600181019050613c55565b5085935050505092915050565b60006020820190508181036000830152613ca98184613c31565b905092915050565b613cba8161312a565b82525050565b613cc981613160565b82525050565b600082825260208201905092915050565b6000613ceb82613bd1565b613cf58185613ccf565b9350613d0083613bed565b8060005b83811015613d31578151613d188882613c0c565b9750613d2383613c24565b925050600181019050613d04565b5085935050505092915050565b7f4e487b7100000000000000000000000000000000000000000000000000000000600052602160045260246000fd5b60028110613d7e57613d7d613d3e565b5b50565b6000819050613d8f82613d6d565b919050565b6000613d9f82613d81565b9050919050565b613daf81613d94565b82525050565b600081519050919050565b600082825260208201905092915050565b6000819050602082019050919050565b6000613ded8383613893565b905092915050565b6000602082019050919050565b6000613e0d82613db5565b613e178185613dc0565b935083602082028501613e2985613dd1565b8060005b85811015613e655784840389528151613e468582613de1565b9450613e5183613df5565b925060208a01995050600181019050613e2d565b50829750879550505050505092915050565b60006101c0830160008301518482036000860152613e958282613893565b91505060208301518482036020860152613eaf8282613893565b9150506040830151613ec460408601826138f8565b5060608301518482036060860152613edc8282613893565b9150506080830151613ef16080860182613cb1565b5060a0830151613f0460a0860182613cb1565b5060c0830151613f1760c0860182613cb1565b5060e0830151613f2a60e0860182613cc0565b50610100830151613f3f610100860182613cb1565b50610120830151848203610120860152613f598282613ce0565b915050610140830151613f70610140860182613da6565b50610160830151848203610160860152613f8a8282613e02565b915050610180830151848203610180860152613fa68282613ce0565b9150506101a0830151613fbd6101a0860182613bfd565b508091505092915050565b60006020820190508181036000830152613fe28184613e77565b905092915050565b600081519050919050565b600082825260208201905092915050565b6000819050602082019050919050565b600060a08301600083015161402e6000860182613cb1565b50602083015184820360208601526140468282613893565b915050604083015161405b6040860182613bfd565b50606083015184820360608601526140738282613893565b9150506080830151848203608086015261408d8282613893565b9150508091505092915050565b60006140a68383614016565b905092915050565b6000602082019050919050565b60006140c682613fea565b6140d08185613ff5565b9350836020820285016140e285614006565b8060005b8581101561411e57848403895281516140ff858261409a565b945061410a836140ae565b925060208a019950506001810190506140e6565b50829750879550505050505092915050565b6000602082019050818103600083015261414a81846140bb565b905092915050565b600082825260208201905092915050565b600061416e82613844565b6141788185614152565b9350614188818560208601613860565b61419181612fdf565b840191505092915050565b6141a581613d94565b82525050565b60006101608201905081810360008301526141c6818e614163565b905081810360208301526141da818d614163565b90506141e9604083018c613616565b81810360608301526141fb818b614163565b905061420a608083018a61366d565b61421760a083018961366d565b61422460c083018861366d565b61423160e0830187613791565b61423f61010083018661366d565b61424d61012083018561419c565b61425b6101408301846136c4565b9c9b505050505050505050505050565b6000806040838503121561428257614281612f96565b5b600061429085828601613212565b92505060206142a185828601612fc5565b9150509250929050565b600060208201905081810360008301526142c58184614163565b905092915050565b600080600080608085870312156142e7576142e6612f96565b5b60006142f587828801613212565b945050602085013567ffffffffffffffff81111561431657614315612f9b565b5b614322878288016130fc565b935050604085013567ffffffffffffffff81111561434357614342612f9b565b5b61434f878288016130fc565b925050606085013567ffffffffffffffff8111156143705761436f612f9b565b5b61437c878288016130fc565b91505092959194509250565b6000806040838503121561439f5761439e612f96565b5b60006143ad85828601612fc5565b92505060206143be85828601613183565b9150509250929050565b60008060008060008060c087890312156143e5576143e4612f96565b5b60006143f389828a01612fc5565b965050602061440489828a0161314b565b955050604087013567ffffffffffffffff81111561442557614424612f9b565b5b61443189828a016130fc565b945050606061444289828a01613212565b935050608087013567ffffffffffffffff81111561446357614462612f9b565b5b61446f89828a016130fc565b92505060a087013567ffffffffffffffff8111156144905761448f612f9b565b5b61449c89828a016130fc565b9150509295509295509295565b7f6f6e6c795f6f776e65725f616c6c6f7765640000000000000000000000000000600082015250565b60006144df601283614152565b91506144ea826144a9565b602082019050919050565b6000602082019050818103600083015261450e816144d2565b9050919050565b7f4e487b7100000000000000000000000000000000000000000000000000000000600052601160045260246000fd5b600061454f82612fa0565b915061455a83612fa0565b92508261ffff0382111561457157614570614515565b5b828201905092915050565b7f6f6e6c795f6d616e616765725f616c6c6f776564000000000000000000000000600082015250565b60006145b2601483614152565b91506145bd8261457c565b602082019050919050565b600060208201905081810360008301526145e1816145a5565b9050919050565b7f4e487b7100000000000000000000000000000000000000000000000000000000600052602260045260246000fd5b6000600282049050600182168061462f57607f821691505b60208210811415614643576146426145e8565b5b50919050565b7f4e487b7100000000000000000000000000000000000000000000000000000000600052603260045260246000fd5b60006146838261312a565b91507fffffffffffffffffffffffffffffffffffffffffffffffffffffffffffffffff8214156146b6576146b5614515565b5b600182019050919050565b600081905092915050565b60006146d883856146c1565b93506146e58385846130ab565b82840190509392505050565b60006146fe8284866146cc565b91508190509392505050565b600061471582613844565b61471f81856146c1565b935061472f818560208601613860565b80840191505092915050565b6000614747828461470a565b91508190509291505056fea2646970667358221220e4bd320c68a354ad11edef4228e6635c74b44293696d9b8261708d6616b5df6764736f6c63430008090033",
  "linkReferences": {},
  "deployedLinkReferences": {}
}