{
  "_format": "hh-sol-artifact-1",
  "contractName": "pro_ponData",
  "sourceName": "contracts/proponData.sol",
  "abi": [
    {
      "inputs": [],
      "stateMutability": "nonpayable",
      "type": "constructor"
    },
    {
      "inputs": [],
      "name": "CREATE_COMPANY_PRICE",
      "outputs": [
        {
          "internalType": "uint256",
          "name": "",
          "type": "uint256"
        }
      ],
      "stateMutability": "view",
      "type": "function"
    },
    {
      "inputs": [],
      "name": "CREATE_INVITATION_RFP_PRICE",
      "outputs": [
        {
          "internalType": "uint256",
          "name": "",
          "type": "uint256"
        }
      ],
      "stateMutability": "view",
      "type": "function"
    },
    {
      "inputs": [],
      "name": "CREATE_OPEN_RFP_PRICE",
      "outputs": [
        {
          "internalType": "uint256",
          "name": "",
          "type": "uint256"
        }
      ],
      "stateMutability": "view",
      "type": "function"
    },
    {
      "inputs": [],
      "name": "MAX_GUEST_INVITATION_TENDER",
      "outputs": [
        {
          "internalType": "uint256",
          "name": "",
          "type": "uint256"
        }
      ],
      "stateMutability": "view",
      "type": "function"
    },
    {
      "inputs": [],
      "name": "MAX_GUEST_OPEN_TENDER",
      "outputs": [
        {
          "internalType": "uint256",
          "name": "",
          "type": "uint256"
        }
      ],
      "stateMutability": "view",
      "type": "function"
    },
    {
      "inputs": [],
      "name": "REGISTER_OPEN_RFP_PRICE",
      "outputs": [
        {
          "internalType": "uint256",
          "name": "",
          "type": "uint256"
        }
      ],
      "stateMutability": "view",
      "type": "function"
    },
    {
      "inputs": [
        {
          "internalType": "uint256",
          "name": "",
          "type": "uint256"
        }
      ],
      "name": "RFPs",
      "outputs": [
        {
          "internalType": "string",
          "name": "name",
          "type": "string"
        },
        {
          "internalType": "string",
          "name": "description",
          "type": "string"
        },
        {
          "internalType": "uint256",
          "name": "rfpIndex",
          "type": "uint256"
        },
        {
          "internalType": "string",
          "name": "rfpwebsite",
          "type": "string"
        },
        {
          "internalType": "uint256",
          "name": "openDate",
          "type": "uint256"
        },
        {
          "internalType": "uint256",
          "name": "endReceivingDate",
          "type": "uint256"
        },
        {
          "internalType": "uint256",
          "name": "endDate",
          "type": "uint256"
        },
        {
          "internalType": "bool",
          "name": "canceled",
          "type": "bool"
        },
        {
          "internalType": "uint256",
          "name": "cancelDate",
          "type": "uint256"
        },
        {
          "internalType": "enum proponShared.ContestType",
          "name": "contestType",
          "type": "uint8"
        },
        {
          "internalType": "address",
          "name": "issuer",
          "type": "address"
        }
      ],
      "stateMutability": "view",
      "type": "function"
    },
    {
      "inputs": [
        {
          "internalType": "uint256",
          "name": "_rfpIndex",
          "type": "uint256"
        },
        {
          "internalType": "address[]",
          "name": "winners",
          "type": "address[]"
        }
      ],
      "name": "acrueWinsToCompany",
      "outputs": [],
      "stateMutability": "nonpayable",
      "type": "function"
    },
    {
      "inputs": [
        {
          "internalType": "address",
          "name": "companyAddress",
          "type": "address"
        },
        {
          "internalType": "uint256",
          "name": "rfpIdx",
          "type": "uint256"
        }
      ],
      "name": "addCompanyRFP",
      "outputs": [],
      "stateMutability": "nonpayable",
      "type": "function"
    },
    {
      "inputs": [
        {
          "internalType": "uint256",
          "name": "_rfpIdx",
          "type": "uint256"
        },
        {
          "internalType": "uint256",
          "name": "_docType",
          "type": "uint256"
        },
        {
          "internalType": "string",
          "name": "_name",
          "type": "string"
        },
        {
          "internalType": "address",
          "name": "_owner",
          "type": "address"
        },
        {
          "internalType": "string",
          "name": "_documentHash",
          "type": "string"
        },
        {
          "internalType": "string",
          "name": "_idx",
          "type": "string"
        }
      ],
      "name": "addDocument",
      "outputs": [],
      "stateMutability": "nonpayable",
      "type": "function"
    },
    {
      "inputs": [
        {
          "internalType": "uint256",
          "name": "rfpId",
          "type": "uint256"
        },
        {
          "internalType": "address",
          "name": "participant",
          "type": "address"
        }
      ],
      "name": "addParticipantToRFP",
      "outputs": [],
      "stateMutability": "nonpayable",
      "type": "function"
    },
    {
      "inputs": [
        {
          "internalType": "uint256",
          "name": "_rfpIndex",
          "type": "uint256"
        },
        {
          "internalType": "address[]",
          "name": "winners",
          "type": "address[]"
        }
      ],
      "name": "addWinnersToRFP",
      "outputs": [],
      "stateMutability": "nonpayable",
      "type": "function"
    },
    {
      "inputs": [],
      "name": "destroy",
      "outputs": [],
      "stateMutability": "nonpayable",
      "type": "function"
    },
    {
      "inputs": [
        {
          "internalType": "uint256",
          "name": "_rfpIndex",
          "type": "uint256"
        }
      ],
      "name": "getCancelDate",
      "outputs": [
        {
          "internalType": "uint256",
          "name": "",
          "type": "uint256"
        }
      ],
      "stateMutability": "view",
      "type": "function"
    },
    {
      "inputs": [
        {
          "internalType": "address",
          "name": "adminaddress",
          "type": "address"
        }
      ],
      "name": "getCompany",
      "outputs": [
        {
          "components": [
            {
              "internalType": "string",
              "name": "id",
              "type": "string"
            },
            {
              "internalType": "string",
              "name": "name",
              "type": "string"
            },
            {
              "internalType": "string",
              "name": "country",
              "type": "string"
            },
            {
              "internalType": "uint16",
              "name": "RFPSent",
              "type": "uint16"
            },
            {
              "internalType": "uint256[]",
              "name": "RFPsWins",
              "type": "uint256[]"
            },
            {
              "internalType": "uint256[]",
              "name": "company_RFPs",
              "type": "uint256[]"
            }
          ],
          "internalType": "struct proponShared.Company",
          "name": "",
          "type": "tuple"
        }
      ],
      "stateMutability": "view",
      "type": "function"
    },
    {
      "inputs": [
        {
          "internalType": "address",
          "name": "companyAddress",
          "type": "address"
        }
      ],
      "name": "getCompanyId",
      "outputs": [
        {
          "internalType": "string",
          "name": "",
          "type": "string"
        }
      ],
      "stateMutability": "view",
      "type": "function"
    },
    {
      "inputs": [
        {
          "internalType": "address",
          "name": "account",
          "type": "address"
        }
      ],
      "name": "getCompanyRFPs",
      "outputs": [
        {
          "internalType": "uint256[]",
          "name": "",
          "type": "uint256[]"
        }
      ],
      "stateMutability": "view",
      "type": "function"
    },
    {
      "inputs": [],
      "name": "getCompanyWins",
      "outputs": [
        {
          "internalType": "uint256[]",
          "name": "",
          "type": "uint256[]"
        }
      ],
      "stateMutability": "view",
      "type": "function"
    },
    {
      "inputs": [],
      "name": "getCreateCompanyPrice",
      "outputs": [
        {
          "internalType": "uint256",
          "name": "",
          "type": "uint256"
        }
      ],
      "stateMutability": "view",
      "type": "function"
    },
    {
      "inputs": [
        {
          "internalType": "uint256",
          "name": "_rfpIdx",
          "type": "uint256"
        }
      ],
      "name": "getDocumentsfromRFP",
      "outputs": [
        {
          "components": [
            {
              "internalType": "uint256",
              "name": "docType",
              "type": "uint256"
            },
            {
              "internalType": "string",
              "name": "name",
              "type": "string"
            },
            {
              "internalType": "address",
              "name": "owner",
              "type": "address"
            },
            {
              "internalType": "string",
              "name": "documentHash",
              "type": "string"
            },
            {
              "internalType": "string",
              "name": "idx",
              "type": "string"
            }
          ],
          "internalType": "struct proponShared.Document[]",
          "name": "",
          "type": "tuple[]"
        }
      ],
      "stateMutability": "view",
      "type": "function"
    },
    {
      "inputs": [],
      "name": "getManager",
      "outputs": [
        {
          "internalType": "address",
          "name": "",
          "type": "address"
        }
      ],
      "stateMutability": "view",
      "type": "function"
    },
    {
      "inputs": [],
      "name": "getOwner",
      "outputs": [
        {
          "internalType": "address",
          "name": "",
          "type": "address"
        }
      ],
      "stateMutability": "view",
      "type": "function"
    },
    {
      "inputs": [
        {
          "internalType": "uint256",
          "name": "rfpId",
          "type": "uint256"
        }
      ],
      "name": "getRFP",
      "outputs": [
        {
          "components": [
            {
              "internalType": "string",
              "name": "name",
              "type": "string"
            },
            {
              "internalType": "string",
              "name": "description",
              "type": "string"
            },
            {
              "internalType": "uint256",
              "name": "rfpIndex",
              "type": "uint256"
            },
            {
              "internalType": "string",
              "name": "rfpwebsite",
              "type": "string"
            },
            {
              "internalType": "uint256",
              "name": "openDate",
              "type": "uint256"
            },
            {
              "internalType": "uint256",
              "name": "endReceivingDate",
              "type": "uint256"
            },
            {
              "internalType": "uint256",
              "name": "endDate",
              "type": "uint256"
            },
            {
              "internalType": "bool",
              "name": "canceled",
              "type": "bool"
            },
            {
              "internalType": "uint256",
              "name": "cancelDate",
              "type": "uint256"
            },
            {
              "internalType": "address[]",
              "name": "participants",
              "type": "address[]"
            },
            {
              "internalType": "enum proponShared.ContestType",
              "name": "contestType",
              "type": "uint8"
            },
            {
              "internalType": "string[]",
              "name": "items",
              "type": "string[]"
            },
            {
              "internalType": "address[]",
              "name": "winners",
              "type": "address[]"
            },
            {
              "internalType": "address",
              "name": "issuer",
              "type": "address"
            }
          ],
          "internalType": "struct proponShared.RFP",
          "name": "",
          "type": "tuple"
        }
      ],
      "stateMutability": "view",
      "type": "function"
    },
    {
      "inputs": [
        {
          "internalType": "uint256",
          "name": "rfpIdx",
          "type": "uint256"
        }
      ],
      "name": "getRFPIssuer",
      "outputs": [
        {
          "internalType": "address",
          "name": "",
          "type": "address"
        }
      ],
      "stateMutability": "view",
      "type": "function"
    },
    {
      "inputs": [
        {
          "internalType": "uint256",
          "name": "_rfpId",
          "type": "uint256"
        }
      ],
      "name": "getRFPbyIndex",
      "outputs": [
        {
          "components": [
            {
              "internalType": "string",
              "name": "name",
              "type": "string"
            },
            {
              "internalType": "string",
              "name": "description",
              "type": "string"
            },
            {
              "internalType": "uint256",
              "name": "rfpIndex",
              "type": "uint256"
            },
            {
              "internalType": "string",
              "name": "rfpwebsite",
              "type": "string"
            },
            {
              "internalType": "uint256",
              "name": "openDate",
              "type": "uint256"
            },
            {
              "internalType": "uint256",
              "name": "endReceivingDate",
              "type": "uint256"
            },
            {
              "internalType": "uint256",
              "name": "endDate",
              "type": "uint256"
            },
            {
              "internalType": "bool",
              "name": "canceled",
              "type": "bool"
            },
            {
              "internalType": "uint256",
              "name": "cancelDate",
              "type": "uint256"
            },
            {
              "internalType": "address[]",
              "name": "participants",
              "type": "address[]"
            },
            {
              "internalType": "enum proponShared.ContestType",
              "name": "contestType",
              "type": "uint8"
            },
            {
              "internalType": "string[]",
              "name": "items",
              "type": "string[]"
            },
            {
              "internalType": "address[]",
              "name": "winners",
              "type": "address[]"
            },
            {
              "internalType": "address",
              "name": "issuer",
              "type": "address"
            }
          ],
          "internalType": "struct proponShared.RFP",
          "name": "",
          "type": "tuple"
        }
      ],
      "stateMutability": "view",
      "type": "function"
    },
    {
      "inputs": [
        {
          "internalType": "bytes32",
          "name": "pair",
          "type": "bytes32"
        }
      ],
      "name": "getRfpIds",
      "outputs": [
        {
          "internalType": "bool",
          "name": "",
          "type": "bool"
        }
      ],
      "stateMutability": "view",
      "type": "function"
    },
    {
      "inputs": [
        {
          "internalType": "uint256",
          "name": "_rfpIndex",
          "type": "uint256"
        }
      ],
      "name": "getWinners",
      "outputs": [
        {
          "internalType": "address[]",
          "name": "",
          "type": "address[]"
        }
      ],
      "stateMutability": "view",
      "type": "function"
    },
    {
      "inputs": [],
      "name": "getcurrentRFPIdx",
      "outputs": [
        {
          "internalType": "uint256",
          "name": "",
          "type": "uint256"
        }
      ],
      "stateMutability": "view",
      "type": "function"
    },
    {
      "inputs": [],
      "name": "incrementRFPIdx",
      "outputs": [],
      "stateMutability": "nonpayable",
      "type": "function"
    },
    {
      "inputs": [
        {
          "internalType": "string",
          "name": "_id",
          "type": "string"
        }
      ],
      "name": "isCompanyIdTaken",
      "outputs": [
        {
          "internalType": "bool",
          "name": "",
          "type": "bool"
        }
      ],
      "stateMutability": "view",
      "type": "function"
    },
    {
      "inputs": [
        {
          "internalType": "uint256",
          "name": "rfpIdx",
          "type": "uint256"
        }
      ],
      "name": "isRFPCanceled",
      "outputs": [
        {
          "internalType": "bool",
          "name": "",
          "type": "bool"
        }
      ],
      "stateMutability": "view",
      "type": "function"
    },
    {
      "inputs": [
        {
          "internalType": "address",
          "name": "companyAddress",
          "type": "address"
        },
        {
          "internalType": "string",
          "name": "_id",
          "type": "string"
        },
        {
          "internalType": "string",
          "name": "_name",
          "type": "string"
        },
        {
          "internalType": "string",
          "name": "_country",
          "type": "string"
        }
      ],
      "name": "setCompany",
      "outputs": [],
      "stateMutability": "nonpayable",
      "type": "function"
    },
    {
      "inputs": [
        {
          "internalType": "uint256",
          "name": "_value",
          "type": "uint256"
        }
      ],
      "name": "setCreateCompanyPrice",
      "outputs": [],
      "stateMutability": "nonpayable",
      "type": "function"
    },
    {
      "inputs": [
        {
          "internalType": "uint256",
          "name": "_value",
          "type": "uint256"
        }
      ],
      "name": "setCreateInvitationRfpPrice",
      "outputs": [],
      "stateMutability": "nonpayable",
      "type": "function"
    },
    {
      "inputs": [
        {
          "internalType": "uint256",
          "name": "_value",
          "type": "uint256"
        }
      ],
      "name": "setCreateOpenRfpPrice",
      "outputs": [],
      "stateMutability": "nonpayable",
      "type": "function"
    },
    {
      "inputs": [
        {
          "internalType": "address",
          "name": "_newManager",
          "type": "address"
        }
      ],
      "name": "setManager",
      "outputs": [],
      "stateMutability": "nonpayable",
      "type": "function"
    },
    {
      "inputs": [
        {
          "internalType": "uint256",
          "name": "_value",
          "type": "uint256"
        }
      ],
      "name": "setMaxGuestInvitationTender",
      "outputs": [],
      "stateMutability": "nonpayable",
      "type": "function"
    },
    {
      "inputs": [
        {
          "internalType": "uint256",
          "name": "_value",
          "type": "uint256"
        }
      ],
      "name": "setMaxGuestOpenTender",
      "outputs": [],
      "stateMutability": "nonpayable",
      "type": "function"
    },
    {
      "inputs": [
        {
          "internalType": "address",
          "name": "_newOwner",
          "type": "address"
        }
      ],
      "name": "setOwner",
      "outputs": [],
      "stateMutability": "nonpayable",
      "type": "function"
    },
    {
      "inputs": [
        {
          "internalType": "uint256",
          "name": "rfpIdx",
          "type": "uint256"
        },
        {
          "components": [
            {
              "internalType": "string",
              "name": "name",
              "type": "string"
            },
            {
              "internalType": "string",
              "name": "description",
              "type": "string"
            },
            {
              "internalType": "uint256",
              "name": "rfpIndex",
              "type": "uint256"
            },
            {
              "internalType": "string",
              "name": "rfpwebsite",
              "type": "string"
            },
            {
              "internalType": "uint256",
              "name": "openDate",
              "type": "uint256"
            },
            {
              "internalType": "uint256",
              "name": "endReceivingDate",
              "type": "uint256"
            },
            {
              "internalType": "uint256",
              "name": "endDate",
              "type": "uint256"
            },
            {
              "internalType": "bool",
              "name": "canceled",
              "type": "bool"
            },
            {
              "internalType": "uint256",
              "name": "cancelDate",
              "type": "uint256"
            },
            {
              "internalType": "address[]",
              "name": "participants",
              "type": "address[]"
            },
            {
              "internalType": "enum proponShared.ContestType",
              "name": "contestType",
              "type": "uint8"
            },
            {
              "internalType": "string[]",
              "name": "items",
              "type": "string[]"
            },
            {
              "internalType": "address[]",
              "name": "winners",
              "type": "address[]"
            },
            {
              "internalType": "address",
              "name": "issuer",
              "type": "address"
            }
          ],
          "internalType": "struct proponShared.RFP",
          "name": "rfp",
          "type": "tuple"
        }
      ],
      "name": "setRFP",
      "outputs": [],
      "stateMutability": "nonpayable",
      "type": "function"
    },
    {
      "inputs": [
        {
          "internalType": "uint256",
          "name": "_rfpIndex",
          "type": "uint256"
        },
        {
          "internalType": "uint256",
          "name": "_cancelDate",
          "type": "uint256"
        }
      ],
      "name": "setRFPCancelDate",
      "outputs": [],
      "stateMutability": "nonpayable",
      "type": "function"
    },
    {
      "inputs": [
        {
          "internalType": "uint256",
          "name": "_rfpIndex",
          "type": "uint256"
        },
        {
          "internalType": "bool",
          "name": "_canceled",
          "type": "bool"
        }
      ],
      "name": "setRFPCanceled",
      "outputs": [],
      "stateMutability": "nonpayable",
      "type": "function"
    },
    {
      "inputs": [
        {
          "internalType": "uint256",
          "name": "_value",
          "type": "uint256"
        }
      ],
      "name": "setRegisterOpenRfpPrice",
      "outputs": [],
      "stateMutability": "nonpayable",
      "type": "function"
    },
    {
      "inputs": [
        {
          "internalType": "bytes32",
          "name": "pair",
          "type": "bytes32"
        }
      ],
      "name": "setRfpId",
      "outputs": [],
      "stateMutability": "nonpayable",
      "type": "function"
    }
  ],
  "bytecode": "0x6080604052655af3107a4000600255655af3107a400060035565b5e620f48000600455655af3107a4000600555600a600655600a600755600060085534801561004757600080fd5b50336000806101000a81548173ffffffffffffffffffffffffffffffffffffffff021916908373ffffffffffffffffffffffffffffffffffffffff16021790555033600160006101000a81548173ffffffffffffffffffffffffffffffffffffffff021916908373ffffffffffffffffffffffffffffffffffffffff1602179055506148bf806100d86000396000f3fe608060405234801561001057600080fd5b50600436106102745760003560e01c80639028794011610151578063d6f343c5116100c3578063ea1b4b1d11610087578063ea1b4b1d1461079d578063ecbb7b4a146107b9578063f0174dc4146107d7578063f8195d6c146107f3578063f9c3c20c1461080f578063fb7207611461082b57610274565b8063d6f343c5146106fb578063d7a8529e1461072b578063d88f15a714610747578063da2e186014610763578063e31fc5bf1461078157610274565b8063c356ded511610115578063c356ded51461061f578063c64928951461063b578063cebfc5db1461066b578063d0ebdbe7146106a5578063d2f1c77c146106c1578063d5009584146106dd57610274565b80639028794014610567578063a0b437df14610597578063afeff8d9146105b3578063b277da5c146105d1578063be38013b1461060157610274565b80634e289b88116101ea5780636b1426a4116101ae5780636b1426a4146104a757806383197ef0146104d757806384f816e5146104e1578063893d20e8146104fd5780638cbd78341461051b5780638e2999e41461054b57610274565b80634e289b88146103ef5780635a6167c91461040d5780635d9c47f51461042b57806362bc56e61461044757806367aabb1a1461047757610274565b80632f72af341161023c5780632f72af34146102f757806332f4b16a146103275780633b8a8a161461035757806343a2d04814610387578063466c51fc146103b75780634ccba247146103d357610274565b80631393b9e81461027957806313af4035146102975780631a3ca1d8146102b3578063215cf05d146102bd57806322f0b325146102db575b600080fd5b610281610849565b60405161028e9190613148565b60405180910390f35b6102b160048036038101906102ac91906131d5565b610853565b005b6102bb610924565b005b6102c56109ce565b6040516102d29190613148565b60405180910390f35b6102f560048036038101906102f0919061322e565b6109d4565b005b610311600480360381019061030c919061326e565b610acf565b60405161031e91906136a6565b60405180910390f35b610341600480360381019061033c919061326e565b610f86565b60405161034e91906136a6565b60405180910390f35b610371600480360381019061036c919061326e565b61143d565b60405161037e91906136d7565b60405180910390f35b6103a1600480360381019061039c9190613728565b61147d565b6040516103ae9190613764565b60405180910390f35b6103d160048036038101906103cc919061326e565b6114a7565b005b6103ed60048036038101906103e8919061326e565b611541565b005b6103f76115db565b6040516104049190613148565b60405180910390f35b6104156115e1565b6040516104229190613148565b60405180910390f35b6104456004803603810190610440919061326e565b6115e7565b005b610461600480360381019061045c91906131d5565b611681565b60405161046e91906138f0565b60405180910390f35b610491600480360381019061048c91906131d5565b611960565b60405161049e9190613981565b60405180910390f35b6104c160048036038101906104bc919061326e565b6119fa565b6040516104ce9190613a12565b60405180910390f35b6104df611a9e565b005b6104fb60048036038101906104f69190613a34565b611b67565b005b610505611b86565b60405161051291906136d7565b60405180910390f35b6105356004803603810190610530919061326e565b611baf565b6040516105429190613764565b60405180910390f35b6105656004803603810190610560919061326e565b611bdc565b005b610581600480360381019061057c9190613ad9565b611c76565b60405161058e9190613764565b60405180910390f35b6105b160048036038101906105ac9190613b52565b611cae565b005b6105bb611ce0565b6040516105c89190613148565b60405180910390f35b6105eb60048036038101906105e6919061326e565b611ce6565b6040516105f89190613148565b60405180910390f35b610609611d06565b6040516106169190613148565b60405180910390f35b6106396004803603810190610634919061408b565b611d0c565b005b6106556004803603810190610650919061326e565b611f32565b604051610662919061422d565b60405180910390f35b6106856004803603810190610680919061326e565b6121ba565b60405161069c9b9a999897969594939291906142a8565b60405180910390f35b6106bf60048036038101906106ba91906131d5565b6123e6565b005b6106db60048036038101906106d69190614368565b6124ba565b005b6106e56125c3565b6040516106f291906136d7565b60405180910390f35b610715600480360381019061071091906131d5565b6125ed565b60405161072291906143a8565b60405180910390f35b6107456004803603810190610740919061326e565b6126c1565b005b610761600480360381019061075c91906143ca565b61275b565b005b61076b61291a565b6040516107789190613148565b60405180910390f35b61079b600480360381019061079691906144ab565b612924565b005b6107b760048036038101906107b2919061326e565b612a7e565b005b6107c1612b18565b6040516107ce9190613148565b60405180910390f35b6107f160048036038101906107ec9190614566565b612b1e565b005b61080d60048036038101906108089190614566565b612c59565b005b61082960048036038101906108249190613728565b612d16565b005b610833612dd3565b6040516108409190613981565b60405180910390f35b6000600854905090565b60008054906101000a900473ffffffffffffffffffffffffffffffffffffffff1673ffffffffffffffffffffffffffffffffffffffff163373ffffffffffffffffffffffffffffffffffffffff16146108e1576040517f08c379a00000000000000000000000000000000000000000000000000000000081526004016108d89061460e565b60405180910390fd5b806000806101000a81548173ffffffffffffffffffffffffffffffffffffffff021916908373ffffffffffffffffffffffffffffffffffffffff16021790555050565b60008054906101000a900473ffffffffffffffffffffffffffffffffffffffff1673ffffffffffffffffffffffffffffffffffffffff163373ffffffffffffffffffffffffffffffffffffffff16146109b2576040517f08c379a00000000000000000000000000000000000000000000000000000000081526004016109a99061460e565b60405180910390fd5b6001600860008282546109c5919061465d565b92505081905550565b60025481565b60008054906101000a900473ffffffffffffffffffffffffffffffffffffffff1673ffffffffffffffffffffffffffffffffffffffff163373ffffffffffffffffffffffffffffffffffffffff1614610a62576040517f08c379a0000000000000000000000000000000000000000000000000000000008152600401610a599061460e565b60405180910390fd5b600960008373ffffffffffffffffffffffffffffffffffffffff1673ffffffffffffffffffffffffffffffffffffffff1681526020019081526020016000206005018190806001815401808255809150506001900390600052602060002001600090919091909150555050565b610ad7612e6b565b600b6000838152602001908152602001600020604051806101c0016040529081600082018054610b06906146e2565b80601f0160208091040260200160405190810160405280929190818152602001828054610b32906146e2565b8015610b7f5780601f10610b5457610100808354040283529160200191610b7f565b820191906000526020600020905b815481529060010190602001808311610b6257829003601f168201915b50505050508152602001600182018054610b98906146e2565b80601f0160208091040260200160405190810160405280929190818152602001828054610bc4906146e2565b8015610c115780601f10610be657610100808354040283529160200191610c11565b820191906000526020600020905b815481529060010190602001808311610bf457829003601f168201915b5050505050815260200160028201548152602001600382018054610c34906146e2565b80601f0160208091040260200160405190810160405280929190818152602001828054610c60906146e2565b8015610cad5780601f10610c8257610100808354040283529160200191610cad565b820191906000526020600020905b815481529060010190602001808311610c9057829003601f168201915b505050505081526020016004820154815260200160058201548152602001600682015481526020016007820160009054906101000a900460ff161515151581526020016008820154815260200160098201805480602002602001604051908101604052809291908181526020018280548015610d7e57602002820191906000526020600020905b8160009054906101000a900473ffffffffffffffffffffffffffffffffffffffff1673ffffffffffffffffffffffffffffffffffffffff1681526020019060010190808311610d34575b50505050508152602001600a820160009054906101000a900460ff166001811115610dac57610dab61341c565b5b6001811115610dbe57610dbd61341c565b5b8152602001600b8201805480602002602001604051908101604052809291908181526020016000905b82821015610e93578382906000526020600020018054610e06906146e2565b80601f0160208091040260200160405190810160405280929190818152602001828054610e32906146e2565b8015610e7f5780601f10610e5457610100808354040283529160200191610e7f565b820191906000526020600020905b815481529060010190602001808311610e6257829003601f168201915b505050505081526020019060010190610de7565b505050508152602001600c8201805480602002602001604051908101604052809291908181526020018280548015610f2057602002820191906000526020600020905b8160009054906101000a900473ffffffffffffffffffffffffffffffffffffffff1673ffffffffffffffffffffffffffffffffffffffff1681526020019060010190808311610ed6575b50505050508152602001600d820160009054906101000a900473ffffffffffffffffffffffffffffffffffffffff1673ffffffffffffffffffffffffffffffffffffffff1673ffffffffffffffffffffffffffffffffffffffff16815250509050919050565b610f8e612e6b565b600b6000838152602001908152602001600020604051806101c0016040529081600082018054610fbd906146e2565b80601f0160208091040260200160405190810160405280929190818152602001828054610fe9906146e2565b80156110365780601f1061100b57610100808354040283529160200191611036565b820191906000526020600020905b81548152906001019060200180831161101957829003601f168201915b5050505050815260200160018201805461104f906146e2565b80601f016020809104026020016040519081016040528092919081815260200182805461107b906146e2565b80156110c85780601f1061109d576101008083540402835291602001916110c8565b820191906000526020600020905b8154815290600101906020018083116110ab57829003601f168201915b50505050508152602001600282015481526020016003820180546110eb906146e2565b80601f0160208091040260200160405190810160405280929190818152602001828054611117906146e2565b80156111645780601f1061113957610100808354040283529160200191611164565b820191906000526020600020905b81548152906001019060200180831161114757829003601f168201915b505050505081526020016004820154815260200160058201548152602001600682015481526020016007820160009054906101000a900460ff16151515158152602001600882015481526020016009820180548060200260200160405190810160405280929190818152602001828054801561123557602002820191906000526020600020905b8160009054906101000a900473ffffffffffffffffffffffffffffffffffffffff1673ffffffffffffffffffffffffffffffffffffffff16815260200190600101908083116111eb575b50505050508152602001600a820160009054906101000a900460ff1660018111156112635761126261341c565b5b60018111156112755761127461341c565b5b8152602001600b8201805480602002602001604051908101604052809291908181526020016000905b8282101561134a5783829060005260206000200180546112bd906146e2565b80601f01602080910402602001604051908101604052809291908181526020018280546112e9906146e2565b80156113365780601f1061130b57610100808354040283529160200191611336565b820191906000526020600020905b81548152906001019060200180831161131957829003601f168201915b50505050508152602001906001019061129e565b505050508152602001600c82018054806020026020016040519081016040528092919081815260200182805480156113d757602002820191906000526020600020905b8160009054906101000a900473ffffffffffffffffffffffffffffffffffffffff1673ffffffffffffffffffffffffffffffffffffffff168152602001906001019080831161138d575b50505050508152602001600d820160009054906101000a900473ffffffffffffffffffffffffffffffffffffffff1673ffffffffffffffffffffffffffffffffffffffff1673ffffffffffffffffffffffffffffffffffffffff16815250509050919050565b6000600b6000838152602001908152602001600020600d0160009054906101000a900473ffffffffffffffffffffffffffffffffffffffff169050919050565b6000600d600083815260200190815260200160002060009054906101000a900460ff169050919050565b600160009054906101000a900473ffffffffffffffffffffffffffffffffffffffff1673ffffffffffffffffffffffffffffffffffffffff163373ffffffffffffffffffffffffffffffffffffffff1614611537576040517f08c379a000000000000000000000000000000000000000000000000000000000815260040161152e90614760565b60405180910390fd5b8060028190555050565b600160009054906101000a900473ffffffffffffffffffffffffffffffffffffffff1673ffffffffffffffffffffffffffffffffffffffff163373ffffffffffffffffffffffffffffffffffffffff16146115d1576040517f08c379a00000000000000000000000000000000000000000000000000000000081526004016115c890614760565b60405180910390fd5b8060068190555050565b60035481565b60075481565b600160009054906101000a900473ffffffffffffffffffffffffffffffffffffffff1673ffffffffffffffffffffffffffffffffffffffff163373ffffffffffffffffffffffffffffffffffffffff1614611677576040517f08c379a000000000000000000000000000000000000000000000000000000000815260040161166e90614760565b60405180910390fd5b8060038190555050565b611689612f04565b600960008373ffffffffffffffffffffffffffffffffffffffff1673ffffffffffffffffffffffffffffffffffffffff1681526020019081526020016000206040518060c00160405290816000820180546116e3906146e2565b80601f016020809104026020016040519081016040528092919081815260200182805461170f906146e2565b801561175c5780601f106117315761010080835404028352916020019161175c565b820191906000526020600020905b81548152906001019060200180831161173f57829003601f168201915b50505050508152602001600182018054611775906146e2565b80601f01602080910402602001604051908101604052809291908181526020018280546117a1906146e2565b80156117ee5780601f106117c3576101008083540402835291602001916117ee565b820191906000526020600020905b8154815290600101906020018083116117d157829003601f168201915b50505050508152602001600282018054611807906146e2565b80601f0160208091040260200160405190810160405280929190818152602001828054611833906146e2565b80156118805780601f1061185557610100808354040283529160200191611880565b820191906000526020600020905b81548152906001019060200180831161186357829003601f168201915b505050505081526020016003820160009054906101000a900461ffff1661ffff1661ffff168152602001600482018054806020026020016040519081016040528092919081815260200182805480156118f857602002820191906000526020600020905b8154815260200190600101908083116118e4575b505050505081526020016005820180548060200260200160405190810160405280929190818152602001828054801561195057602002820191906000526020600020905b81548152602001906001019080831161193c575b5050505050815250509050919050565b6060600960008373ffffffffffffffffffffffffffffffffffffffff1673ffffffffffffffffffffffffffffffffffffffff1681526020019081526020016000206005018054806020026020016040519081016040528092919081815260200182805480156119ee57602002820191906000526020600020905b8154815260200190600101908083116119da575b50505050509050919050565b6060600b6000838152602001908152602001600020600c01805480602002602001604051908101604052809291908181526020018280548015611a9257602002820191906000526020600020905b8160009054906101000a900473ffffffffffffffffffffffffffffffffffffffff1673ffffffffffffffffffffffffffffffffffffffff1681526020019060010190808311611a48575b50505050509050919050565b600160009054906101000a900473ffffffffffffffffffffffffffffffffffffffff1673ffffffffffffffffffffffffffffffffffffffff163373ffffffffffffffffffffffffffffffffffffffff1614611b2e576040517f08c379a0000000000000000000000000000000000000000000000000000000008152600401611b2590614760565b60405180910390fd5b60008054906101000a900473ffffffffffffffffffffffffffffffffffffffff1673ffffffffffffffffffffffffffffffffffffffff16ff5b80600b6000848152602001908152602001600020600801819055505050565b60008060009054906101000a900473ffffffffffffffffffffffffffffffffffffffff16905090565b6000600b600083815260200190815260200160002060070160009054906101000a900460ff169050919050565b600160009054906101000a900473ffffffffffffffffffffffffffffffffffffffff1673ffffffffffffffffffffffffffffffffffffffff163373ffffffffffffffffffffffffffffffffffffffff1614611c6c576040517f08c379a0000000000000000000000000000000000000000000000000000000008152600401611c6390614760565b60405180910390fd5b8060078190555050565b6000600a8383604051611c8a9291906147b0565b908152602001604051809103902060009054906101000a900460ff16905092915050565b80600b600084815260200190815260200160002060070160006101000a81548160ff0219169083151502179055505050565b60045481565b6000600b6000838152602001908152602001600020600801549050919050565b60055481565b60008054906101000a900473ffffffffffffffffffffffffffffffffffffffff1673ffffffffffffffffffffffffffffffffffffffff163373ffffffffffffffffffffffffffffffffffffffff1614611d9a576040517f08c379a0000000000000000000000000000000000000000000000000000000008152600401611d919061460e565b60405180910390fd5b80600b60008481526020019081526020016000206000820151816000019080519060200190611dca929190612f3e565b506020820151816001019080519060200190611de7929190612f3e565b50604082015181600201556060820151816003019080519060200190611e0e929190612f3e565b506080820151816004015560a0820151816005015560c0820151816006015560e08201518160070160006101000a81548160ff0219169083151502179055506101008201518160080155610120820151816009019080519060200190611e75929190612fc4565b5061014082015181600a0160006101000a81548160ff02191690836001811115611ea257611ea161341c565b5b021790555061016082015181600b019080519060200190611ec492919061304e565b5061018082015181600c019080519060200190611ee2929190612fc4565b506101a082015181600d0160006101000a81548173ffffffffffffffffffffffffffffffffffffffff021916908373ffffffffffffffffffffffffffffffffffffffff1602179055509050505050565b6060600c6000838152602001908152602001600020805480602002602001604051908101604052809291908181526020016000905b828210156121af57838290600052602060002090600502016040518060a001604052908160008201548152602001600182018054611fa4906146e2565b80601f0160208091040260200160405190810160405280929190818152602001828054611fd0906146e2565b801561201d5780601f10611ff25761010080835404028352916020019161201d565b820191906000526020600020905b81548152906001019060200180831161200057829003601f168201915b505050505081526020016002820160009054906101000a900473ffffffffffffffffffffffffffffffffffffffff1673ffffffffffffffffffffffffffffffffffffffff1673ffffffffffffffffffffffffffffffffffffffff16815260200160038201805461208c906146e2565b80601f01602080910402602001604051908101604052809291908181526020018280546120b8906146e2565b80156121055780601f106120da57610100808354040283529160200191612105565b820191906000526020600020905b8154815290600101906020018083116120e857829003601f168201915b5050505050815260200160048201805461211e906146e2565b80601f016020809104026020016040519081016040528092919081815260200182805461214a906146e2565b80156121975780601f1061216c57610100808354040283529160200191612197565b820191906000526020600020905b81548152906001019060200180831161217a57829003601f168201915b50505050508152505081526020019060010190611f67565b505050509050919050565b600b6020528060005260406000206000915090508060000180546121dd906146e2565b80601f0160208091040260200160405190810160405280929190818152602001828054612209906146e2565b80156122565780601f1061222b57610100808354040283529160200191612256565b820191906000526020600020905b81548152906001019060200180831161223957829003601f168201915b50505050509080600101805461226b906146e2565b80601f0160208091040260200160405190810160405280929190818152602001828054612297906146e2565b80156122e45780601f106122b9576101008083540402835291602001916122e4565b820191906000526020600020905b8154815290600101906020018083116122c757829003601f168201915b5050505050908060020154908060030180546122ff906146e2565b80601f016020809104026020016040519081016040528092919081815260200182805461232b906146e2565b80156123785780601f1061234d57610100808354040283529160200191612378565b820191906000526020600020905b81548152906001019060200180831161235b57829003601f168201915b5050505050908060040154908060050154908060060154908060070160009054906101000a900460ff169080600801549080600a0160009054906101000a900460ff169080600d0160009054906101000a900473ffffffffffffffffffffffffffffffffffffffff1690508b565b600160009054906101000a900473ffffffffffffffffffffffffffffffffffffffff1673ffffffffffffffffffffffffffffffffffffffff163373ffffffffffffffffffffffffffffffffffffffff1614612476576040517f08c379a000000000000000000000000000000000000000000000000000000000815260040161246d90614760565b60405180910390fd5b80600160006101000a81548173ffffffffffffffffffffffffffffffffffffffff021916908373ffffffffffffffffffffffffffffffffffffffff16021790555050565b60008054906101000a900473ffffffffffffffffffffffffffffffffffffffff1673ffffffffffffffffffffffffffffffffffffffff163373ffffffffffffffffffffffffffffffffffffffff1614612548576040517f08c379a000000000000000000000000000000000000000000000000000000000815260040161253f9061460e565b60405180910390fd5b600b6000838152602001908152602001600020600901819080600181540180825580915050600190039060005260206000200160009091909190916101000a81548173ffffffffffffffffffffffffffffffffffffffff021916908373ffffffffffffffffffffffffffffffffffffffff1602179055505050565b6000600160009054906101000a900473ffffffffffffffffffffffffffffffffffffffff16905090565b6060600960008373ffffffffffffffffffffffffffffffffffffffff1673ffffffffffffffffffffffffffffffffffffffff168152602001908152602001600020600001805461263c906146e2565b80601f0160208091040260200160405190810160405280929190818152602001828054612668906146e2565b80156126b55780601f1061268a576101008083540402835291602001916126b5565b820191906000526020600020905b81548152906001019060200180831161269857829003601f168201915b50505050509050919050565b600160009054906101000a900473ffffffffffffffffffffffffffffffffffffffff1673ffffffffffffffffffffffffffffffffffffffff163373ffffffffffffffffffffffffffffffffffffffff1614612751576040517f08c379a000000000000000000000000000000000000000000000000000000000815260040161274890614760565b60405180910390fd5b8060058190555050565b60008054906101000a900473ffffffffffffffffffffffffffffffffffffffff1673ffffffffffffffffffffffffffffffffffffffff163373ffffffffffffffffffffffffffffffffffffffff16146127e9576040517f08c379a00000000000000000000000000000000000000000000000000000000081526004016127e09061460e565b60405180910390fd5b60006040518060a001604052808781526020018681526020018573ffffffffffffffffffffffffffffffffffffffff168152602001848152602001838152509050600c600088815260200190815260200160002081908060018154018082558091505060019003906000526020600020906005020160009091909190915060008201518160000155602082015181600101908051906020019061288d929190612f3e565b5060408201518160020160006101000a81548173ffffffffffffffffffffffffffffffffffffffff021916908373ffffffffffffffffffffffffffffffffffffffff16021790555060608201518160030190805190602001906128f1929190612f3e565b50608082015181600401908051906020019061290e929190612f3e565b50505050505050505050565b6000600254905090565b60008054906101000a900473ffffffffffffffffffffffffffffffffffffffff1673ffffffffffffffffffffffffffffffffffffffff163373ffffffffffffffffffffffffffffffffffffffff16146129b2576040517f08c379a00000000000000000000000000000000000000000000000000000000081526004016129a99061460e565b60405180910390fd5b6000600960008673ffffffffffffffffffffffffffffffffffffffff1673ffffffffffffffffffffffffffffffffffffffff168152602001908152602001600020905083816000019080519060200190612a0d929190612f3e565b5082816001019080519060200190612a26929190612f3e565b5081816002019080519060200190612a3f929190612f3e565b506001600a85604051612a5291906147fa565b908152602001604051809103902060006101000a81548160ff0219169083151502179055505050505050565b600160009054906101000a900473ffffffffffffffffffffffffffffffffffffffff1673ffffffffffffffffffffffffffffffffffffffff163373ffffffffffffffffffffffffffffffffffffffff1614612b0e576040517f08c379a0000000000000000000000000000000000000000000000000000000008152600401612b0590614760565b60405180910390fd5b8060048190555050565b60065481565b60008054906101000a900473ffffffffffffffffffffffffffffffffffffffff1673ffffffffffffffffffffffffffffffffffffffff163373ffffffffffffffffffffffffffffffffffffffff1614612bac576040517f08c379a0000000000000000000000000000000000000000000000000000000008152600401612ba39061460e565b60405180910390fd5b60008151905060005b81811015612c535760096000848381518110612bd457612bd3614811565b5b602002602001015173ffffffffffffffffffffffffffffffffffffffff1673ffffffffffffffffffffffffffffffffffffffff1681526020019081526020016000206004018490806001815401808255809150506001900390600052602060002001600090919091909150558080612c4b90614840565b915050612bb5565b50505050565b60008054906101000a900473ffffffffffffffffffffffffffffffffffffffff1673ffffffffffffffffffffffffffffffffffffffff163373ffffffffffffffffffffffffffffffffffffffff1614612ce7576040517f08c379a0000000000000000000000000000000000000000000000000000000008152600401612cde9061460e565b60405180910390fd5b80600b6000848152602001908152602001600020600c019080519060200190612d11929190612fc4565b505050565b60008054906101000a900473ffffffffffffffffffffffffffffffffffffffff1673ffffffffffffffffffffffffffffffffffffffff163373ffffffffffffffffffffffffffffffffffffffff1614612da4576040517f08c379a0000000000000000000000000000000000000000000000000000000008152600401612d9b9061460e565b60405180910390fd5b6001600d600083815260200190815260200160002060006101000a81548160ff02191690831515021790555050565b6060600960003373ffffffffffffffffffffffffffffffffffffffff1673ffffffffffffffffffffffffffffffffffffffff168152602001908152602001600020600401805480602002602001604051908101604052809291908181526020018280548015612e6157602002820191906000526020600020905b815481526020019060010190808311612e4d575b5050505050905090565b604051806101c0016040528060608152602001606081526020016000815260200160608152602001600081526020016000815260200160008152602001600015158152602001600081526020016060815260200160006001811115612ed357612ed261341c565b5b81526020016060815260200160608152602001600073ffffffffffffffffffffffffffffffffffffffff1681525090565b6040518060c00160405280606081526020016060815260200160608152602001600061ffff16815260200160608152602001606081525090565b828054612f4a906146e2565b90600052602060002090601f016020900481019282612f6c5760008555612fb3565b82601f10612f8557805160ff1916838001178555612fb3565b82800160010185558215612fb3579182015b82811115612fb2578251825591602001919060010190612f97565b5b509050612fc091906130ae565b5090565b82805482825590600052602060002090810192821561303d579160200282015b8281111561303c5782518260006101000a81548173ffffffffffffffffffffffffffffffffffffffff021916908373ffffffffffffffffffffffffffffffffffffffff16021790555091602001919060010190612fe4565b5b50905061304a91906130ae565b5090565b82805482825590600052602060002090810192821561309d579160200282015b8281111561309c57825182908051906020019061308c929190612f3e565b509160200191906001019061306e565b5b5090506130aa91906130cb565b5090565b5b808211156130c75760008160009055506001016130af565b5090565b5b808211156130eb57600081816130e291906130ef565b506001016130cc565b5090565b5080546130fb906146e2565b6000825580601f1061310d575061312c565b601f01602090049060005260206000209081019061312b91906130ae565b5b50565b6000819050919050565b6131428161312f565b82525050565b600060208201905061315d6000830184613139565b92915050565b6000604051905090565b600080fd5b600080fd5b600073ffffffffffffffffffffffffffffffffffffffff82169050919050565b60006131a282613177565b9050919050565b6131b281613197565b81146131bd57600080fd5b50565b6000813590506131cf816131a9565b92915050565b6000602082840312156131eb576131ea61316d565b5b60006131f9848285016131c0565b91505092915050565b61320b8161312f565b811461321657600080fd5b50565b60008135905061322881613202565b92915050565b600080604083850312156132455761324461316d565b5b6000613253858286016131c0565b925050602061326485828601613219565b9150509250929050565b6000602082840312156132845761328361316d565b5b600061329284828501613219565b91505092915050565b600081519050919050565b600082825260208201905092915050565b60005b838110156132d55780820151818401526020810190506132ba565b838111156132e4576000848401525b50505050565b6000601f19601f8301169050919050565b60006133068261329b565b61331081856132a6565b93506133208185602086016132b7565b613329816132ea565b840191505092915050565b61333d8161312f565b82525050565b60008115159050919050565b61335881613343565b82525050565b600081519050919050565b600082825260208201905092915050565b6000819050602082019050919050565b61339381613197565b82525050565b60006133a5838361338a565b60208301905092915050565b6000602082019050919050565b60006133c98261335e565b6133d38185613369565b93506133de8361337a565b8060005b8381101561340f5781516133f68882613399565b9750613401836133b1565b9250506001810190506133e2565b5085935050505092915050565b7f4e487b7100000000000000000000000000000000000000000000000000000000600052602160045260246000fd5b6002811061345c5761345b61341c565b5b50565b600081905061346d8261344b565b919050565b600061347d8261345f565b9050919050565b61348d81613472565b82525050565b600081519050919050565b600082825260208201905092915050565b6000819050602082019050919050565b60006134cb83836132fb565b905092915050565b6000602082019050919050565b60006134eb82613493565b6134f5818561349e565b935083602082028501613507856134af565b8060005b85811015613543578484038952815161352485826134bf565b945061352f836134d3565b925060208a0199505060018101905061350b565b50829750879550505050505092915050565b60006101c083016000830151848203600086015261357382826132fb565b9150506020830151848203602086015261358d82826132fb565b91505060408301516135a26040860182613334565b50606083015184820360608601526135ba82826132fb565b91505060808301516135cf6080860182613334565b5060a08301516135e260a0860182613334565b5060c08301516135f560c0860182613334565b5060e083015161360860e086018261334f565b5061010083015161361d610100860182613334565b5061012083015184820361012086015261363782826133be565b91505061014083015161364e610140860182613484565b5061016083015184820361016086015261366882826134e0565b91505061018083015184820361018086015261368482826133be565b9150506101a083015161369b6101a086018261338a565b508091505092915050565b600060208201905081810360008301526136c08184613555565b905092915050565b6136d181613197565b82525050565b60006020820190506136ec60008301846136c8565b92915050565b6000819050919050565b613705816136f2565b811461371057600080fd5b50565b600081359050613722816136fc565b92915050565b60006020828403121561373e5761373d61316d565b5b600061374c84828501613713565b91505092915050565b61375e81613343565b82525050565b60006020820190506137796000830184613755565b92915050565b600061ffff82169050919050565b6137968161377f565b82525050565b600081519050919050565b600082825260208201905092915050565b6000819050602082019050919050565b60006137d48383613334565b60208301905092915050565b6000602082019050919050565b60006137f88261379c565b61380281856137a7565b935061380d836137b8565b8060005b8381101561383e57815161382588826137c8565b9750613830836137e0565b925050600181019050613811565b5085935050505092915050565b600060c083016000830151848203600086015261386882826132fb565b9150506020830151848203602086015261388282826132fb565b9150506040830151848203604086015261389c82826132fb565b91505060608301516138b1606086018261378d565b50608083015184820360808601526138c982826137ed565b91505060a083015184820360a08601526138e382826137ed565b9150508091505092915050565b6000602082019050818103600083015261390a818461384b565b905092915050565b600082825260208201905092915050565b600061392e8261379c565b6139388185613912565b9350613943836137b8565b8060005b8381101561397457815161395b88826137c8565b9750613966836137e0565b925050600181019050613947565b5085935050505092915050565b6000602082019050818103600083015261399b8184613923565b905092915050565b600082825260208201905092915050565b60006139bf8261335e565b6139c981856139a3565b93506139d48361337a565b8060005b83811015613a055781516139ec8882613399565b97506139f7836133b1565b9250506001810190506139d8565b5085935050505092915050565b60006020820190508181036000830152613a2c81846139b4565b905092915050565b60008060408385031215613a4b57613a4a61316d565b5b6000613a5985828601613219565b9250506020613a6a85828601613219565b9150509250929050565b600080fd5b600080fd5b600080fd5b60008083601f840112613a9957613a98613a74565b5b8235905067ffffffffffffffff811115613ab657613ab5613a79565b5b602083019150836001820283011115613ad257613ad1613a7e565b5b9250929050565b60008060208385031215613af057613aef61316d565b5b600083013567ffffffffffffffff811115613b0e57613b0d613172565b5b613b1a85828601613a83565b92509250509250929050565b613b2f81613343565b8114613b3a57600080fd5b50565b600081359050613b4c81613b26565b92915050565b60008060408385031215613b6957613b6861316d565b5b6000613b7785828601613219565b9250506020613b8885828601613b3d565b9150509250929050565b600080fd5b7f4e487b7100000000000000000000000000000000000000000000000000000000600052604160045260246000fd5b613bcf826132ea565b810181811067ffffffffffffffff82111715613bee57613bed613b97565b5b80604052505050565b6000613c01613163565b9050613c0d8282613bc6565b919050565b600080fd5b600080fd5b600067ffffffffffffffff821115613c3757613c36613b97565b5b613c40826132ea565b9050602081019050919050565b82818337600083830152505050565b6000613c6f613c6a84613c1c565b613bf7565b905082815260208101848484011115613c8b57613c8a613c17565b5b613c96848285613c4d565b509392505050565b600082601f830112613cb357613cb2613a74565b5b8135613cc3848260208601613c5c565b91505092915050565b600067ffffffffffffffff821115613ce757613ce6613b97565b5b602082029050602081019050919050565b6000613d0b613d0684613ccc565b613bf7565b90508083825260208201905060208402830185811115613d2e57613d2d613a7e565b5b835b81811015613d575780613d4388826131c0565b845260208401935050602081019050613d30565b5050509392505050565b600082601f830112613d7657613d75613a74565b5b8135613d86848260208601613cf8565b91505092915050565b60028110613d9c57600080fd5b50565b600081359050613dae81613d8f565b92915050565b600067ffffffffffffffff821115613dcf57613dce613b97565b5b602082029050602081019050919050565b6000613df3613dee84613db4565b613bf7565b90508083825260208201905060208402830185811115613e1657613e15613a7e565b5b835b81811015613e5d57803567ffffffffffffffff811115613e3b57613e3a613a74565b5b808601613e488982613c9e565b85526020850194505050602081019050613e18565b5050509392505050565b600082601f830112613e7c57613e7b613a74565b5b8135613e8c848260208601613de0565b91505092915050565b60006101c08284031215613eac57613eab613b92565b5b613eb76101c0613bf7565b9050600082013567ffffffffffffffff811115613ed757613ed6613c12565b5b613ee384828501613c9e565b600083015250602082013567ffffffffffffffff811115613f0757613f06613c12565b5b613f1384828501613c9e565b6020830152506040613f2784828501613219565b604083015250606082013567ffffffffffffffff811115613f4b57613f4a613c12565b5b613f5784828501613c9e565b6060830152506080613f6b84828501613219565b60808301525060a0613f7f84828501613219565b60a08301525060c0613f9384828501613219565b60c08301525060e0613fa784828501613b3d565b60e083015250610100613fbc84828501613219565b6101008301525061012082013567ffffffffffffffff811115613fe257613fe1613c12565b5b613fee84828501613d61565b6101208301525061014061400484828501613d9f565b6101408301525061016082013567ffffffffffffffff81111561402a57614029613c12565b5b61403684828501613e67565b6101608301525061018082013567ffffffffffffffff81111561405c5761405b613c12565b5b61406884828501613d61565b610180830152506101a061407e848285016131c0565b6101a08301525092915050565b600080604083850312156140a2576140a161316d565b5b60006140b085828601613219565b925050602083013567ffffffffffffffff8111156140d1576140d0613172565b5b6140dd85828601613e95565b9150509250929050565b600081519050919050565b600082825260208201905092915050565b6000819050602082019050919050565b600060a08301600083015161412b6000860182613334565b506020830151848203602086015261414382826132fb565b9150506040830151614158604086018261338a565b506060830151848203606086015261417082826132fb565b9150506080830151848203608086015261418a82826132fb565b9150508091505092915050565b60006141a38383614113565b905092915050565b6000602082019050919050565b60006141c3826140e7565b6141cd81856140f2565b9350836020820285016141df85614103565b8060005b8581101561421b57848403895281516141fc8582614197565b9450614207836141ab565b925060208a019950506001810190506141e3565b50829750879550505050505092915050565b6000602082019050818103600083015261424781846141b8565b905092915050565b600082825260208201905092915050565b600061426b8261329b565b614275818561424f565b93506142858185602086016132b7565b61428e816132ea565b840191505092915050565b6142a281613472565b82525050565b60006101608201905081810360008301526142c3818e614260565b905081810360208301526142d7818d614260565b90506142e6604083018c613139565b81810360608301526142f8818b614260565b9050614307608083018a613139565b61431460a0830189613139565b61432160c0830188613139565b61432e60e0830187613755565b61433c610100830186613139565b61434a610120830185614299565b6143586101408301846136c8565b9c9b505050505050505050505050565b6000806040838503121561437f5761437e61316d565b5b600061438d85828601613219565b925050602061439e858286016131c0565b9150509250929050565b600060208201905081810360008301526143c28184614260565b905092915050565b60008060008060008060c087890312156143e7576143e661316d565b5b60006143f589828a01613219565b965050602061440689828a01613219565b955050604087013567ffffffffffffffff81111561442757614426613172565b5b61443389828a01613c9e565b945050606061444489828a016131c0565b935050608087013567ffffffffffffffff81111561446557614464613172565b5b61447189828a01613c9e565b92505060a087013567ffffffffffffffff81111561449257614491613172565b5b61449e89828a01613c9e565b9150509295509295509295565b600080600080608085870312156144c5576144c461316d565b5b60006144d3878288016131c0565b945050602085013567ffffffffffffffff8111156144f4576144f3613172565b5b61450087828801613c9e565b935050604085013567ffffffffffffffff81111561452157614520613172565b5b61452d87828801613c9e565b925050606085013567ffffffffffffffff81111561454e5761454d613172565b5b61455a87828801613c9e565b91505092959194509250565b6000806040838503121561457d5761457c61316d565b5b600061458b85828601613219565b925050602083013567ffffffffffffffff8111156145ac576145ab613172565b5b6145b885828601613d61565b9150509250929050565b7f6f6e6c795f6f776e65725f616c6c6f7765640000000000000000000000000000600082015250565b60006145f860128361424f565b9150614603826145c2565b602082019050919050565b60006020820190508181036000830152614627816145eb565b9050919050565b7f4e487b7100000000000000000000000000000000000000000000000000000000600052601160045260246000fd5b60006146688261312f565b91506146738361312f565b9250827fffffffffffffffffffffffffffffffffffffffffffffffffffffffffffffffff038211156146a8576146a761462e565b5b828201905092915050565b7f4e487b7100000000000000000000000000000000000000000000000000000000600052602260045260246000fd5b600060028204905060018216806146fa57607f821691505b6020821081141561470e5761470d6146b3565b5b50919050565b7f6f6e6c795f6d616e616765725f616c6c6f776564000000000000000000000000600082015250565b600061474a60148361424f565b915061475582614714565b602082019050919050565b600060208201905081810360008301526147798161473d565b9050919050565b600081905092915050565b60006147978385614780565b93506147a4838584613c4d565b82840190509392505050565b60006147bd82848661478b565b91508190509392505050565b60006147d48261329b565b6147de8185614780565b93506147ee8185602086016132b7565b80840191505092915050565b600061480682846147c9565b915081905092915050565b7f4e487b7100000000000000000000000000000000000000000000000000000000600052603260045260246000fd5b600061484b8261312f565b91507fffffffffffffffffffffffffffffffffffffffffffffffffffffffffffffffff82141561487e5761487d61462e565b5b60018201905091905056fea26469706673582212202d0425f3f211eb6576b1f523dfb84d7f0ba0a3ad284fc461848f39c0f1dc8dce64736f6c63430008090033",
  "linkReferences": {},
  "deployedLinkReferences": {}
}