{
  "_format": "hh-sol-artifact-1",
  "contractName": "pro_pon",
  "sourceName": "contracts/pro-pon.sol",
  "abi": [
    {
      "inputs": [],
      "stateMutability": "payable",
      "type": "constructor"
    },
    {
      "anonymous": false,
      "inputs": [
        {
          "indexed": true,
          "internalType": "address",
          "name": "sender",
          "type": "address"
        },
        {
          "indexed": false,
          "internalType": "uint256",
          "name": "id",
          "type": "uint256"
        },
        {
          "indexed": false,
          "internalType": "string",
          "name": "name",
          "type": "string"
        }
      ],
      "name": "NewRFPCreated",
      "type": "event"
    },
    {
      "inputs": [],
      "name": "CREATE_COMPANY_PRICE",
      "outputs": [
        {
          "internalType": "uint256",
          "name": "",
          "type": "uint256"
        }
      ],
      "stateMutability": "view",
      "type": "function"
    },
    {
      "inputs": [],
      "name": "CREATE_INVITATION_RFP_PRICE",
      "outputs": [
        {
          "internalType": "uint256",
          "name": "",
          "type": "uint256"
        }
      ],
      "stateMutability": "view",
      "type": "function"
    },
    {
      "inputs": [],
      "name": "CREATE_OPEN_RFP_PRICE",
      "outputs": [
        {
          "internalType": "uint256",
          "name": "",
          "type": "uint256"
        }
      ],
      "stateMutability": "view",
      "type": "function"
    },
    {
      "inputs": [],
      "name": "MAX_GUEST_INVITATION_TENDER",
      "outputs": [
        {
          "internalType": "uint256",
          "name": "",
          "type": "uint256"
        }
      ],
      "stateMutability": "view",
      "type": "function"
    },
    {
      "inputs": [],
      "name": "MAX_GUEST_OPEN_TENDER",
      "outputs": [
        {
          "internalType": "uint256",
          "name": "",
          "type": "uint256"
        }
      ],
      "stateMutability": "view",
      "type": "function"
    },
    {
      "inputs": [],
      "name": "REGISTER_OPEN_RFP_PRICE",
      "outputs": [
        {
          "internalType": "uint256",
          "name": "",
          "type": "uint256"
        }
      ],
      "stateMutability": "view",
      "type": "function"
    },
    {
      "inputs": [
        {
          "internalType": "uint256",
          "name": "_rfpIdx",
          "type": "uint256"
        },
        {
          "internalType": "uint256[]",
          "name": "_docTypes",
          "type": "uint256[]"
        },
        {
          "internalType": "string[]",
          "name": "_names",
          "type": "string[]"
        },
        {
          "internalType": "string[]",
          "name": "_documentHashes",
          "type": "string[]"
        },
        {
          "internalType": "string[]",
          "name": "_idxs",
          "type": "string[]"
        }
      ],
      "name": "addDocuments",
      "outputs": [],
      "stateMutability": "nonpayable",
      "type": "function"
    },
    {
      "inputs": [
        {
          "internalType": "string",
          "name": "_companyId",
          "type": "string"
        },
        {
          "internalType": "uint256",
          "name": "_rfpIndex",
          "type": "uint256"
        }
      ],
      "name": "cancelRFP",
      "outputs": [],
      "stateMutability": "nonpayable",
      "type": "function"
    },
    {
      "inputs": [
        {
          "internalType": "string",
          "name": "_string",
          "type": "string"
        },
        {
          "internalType": "address",
          "name": "_address",
          "type": "address"
        }
      ],
      "name": "concatStringAndAddress",
      "outputs": [
        {
          "internalType": "bytes32",
          "name": "",
          "type": "bytes32"
        }
      ],
      "stateMutability": "pure",
      "type": "function"
    },
    {
      "inputs": [
        {
          "internalType": "string",
          "name": "_id",
          "type": "string"
        },
        {
          "internalType": "string",
          "name": "_name",
          "type": "string"
        },
        {
          "internalType": "string",
          "name": "_country",
          "type": "string"
        }
      ],
      "name": "createCompany",
      "outputs": [],
      "stateMutability": "payable",
      "type": "function"
    },
    {
      "inputs": [
        {
          "internalType": "string",
          "name": "_name",
          "type": "string"
        },
        {
          "internalType": "string",
          "name": "_description",
          "type": "string"
        },
        {
          "internalType": "string",
          "name": "_rfpwebsite",
          "type": "string"
        },
        {
          "internalType": "uint256",
          "name": "_openDate",
          "type": "uint256"
        },
        {
          "internalType": "uint256",
          "name": "_endReceivingDate",
          "type": "uint256"
        },
        {
          "internalType": "uint256",
          "name": "_endDate",
          "type": "uint256"
        },
        {
          "internalType": "enum pro_pon.ContestType",
          "name": "_contestType",
          "type": "uint8"
        },
        {
          "internalType": "string[]",
          "name": "_items",
          "type": "string[]"
        }
      ],
      "name": "createRFP",
      "outputs": [],
      "stateMutability": "payable",
      "type": "function"
    },
    {
      "inputs": [
        {
          "internalType": "uint256",
          "name": "_rfpIndex",
          "type": "uint256"
        },
        {
          "internalType": "string",
          "name": "_companyId",
          "type": "string"
        },
        {
          "internalType": "address[]",
          "name": "winners",
          "type": "address[]"
        }
      ],
      "name": "declareWinners",
      "outputs": [],
      "stateMutability": "nonpayable",
      "type": "function"
    },
    {
      "inputs": [],
      "name": "destroy",
      "outputs": [],
      "stateMutability": "nonpayable",
      "type": "function"
    },
    {
      "inputs": [
        {
          "internalType": "uint256",
          "name": "_rfpIndex",
          "type": "uint256"
        }
      ],
      "name": "getCancelDate",
      "outputs": [
        {
          "internalType": "uint256",
          "name": "",
          "type": "uint256"
        }
      ],
      "stateMutability": "view",
      "type": "function"
    },
    {
      "inputs": [
        {
          "internalType": "address",
          "name": "adminaddress",
          "type": "address"
        }
      ],
      "name": "getCompany",
      "outputs": [
        {
          "components": [
            {
              "internalType": "string",
              "name": "id",
              "type": "string"
            },
            {
              "internalType": "string",
              "name": "name",
              "type": "string"
            },
            {
              "internalType": "string",
              "name": "country",
              "type": "string"
            },
            {
              "internalType": "uint16",
              "name": "RFPSent",
              "type": "uint16"
            },
            {
              "internalType": "uint256[]",
              "name": "RFPsWins",
              "type": "uint256[]"
            },
            {
              "internalType": "uint256[]",
              "name": "company_RFPs",
              "type": "uint256[]"
            }
          ],
          "internalType": "struct pro_pon.Company",
          "name": "",
          "type": "tuple"
        }
      ],
      "stateMutability": "view",
      "type": "function"
    },
    {
      "inputs": [
        {
          "internalType": "address",
          "name": "adminaddress",
          "type": "address"
        }
      ],
      "name": "getCompanyId",
      "outputs": [
        {
          "internalType": "string",
          "name": "companyId",
          "type": "string"
        }
      ],
      "stateMutability": "view",
      "type": "function"
    },
    {
      "inputs": [
        {
          "internalType": "address",
          "name": "account",
          "type": "address"
        }
      ],
      "name": "getCompanyRFPs",
      "outputs": [
        {
          "internalType": "uint256[]",
          "name": "",
          "type": "uint256[]"
        }
      ],
      "stateMutability": "view",
      "type": "function"
    },
    {
      "inputs": [],
      "name": "getCompanyWins",
      "outputs": [
        {
          "internalType": "uint256[]",
          "name": "",
          "type": "uint256[]"
        }
      ],
      "stateMutability": "view",
      "type": "function"
    },
    {
      "inputs": [
        {
          "internalType": "uint256",
          "name": "_rfpIdx",
          "type": "uint256"
        }
      ],
      "name": "getDocumentsfromRFP",
      "outputs": [
        {
          "components": [
            {
              "internalType": "uint256",
              "name": "docType",
              "type": "uint256"
            },
            {
              "internalType": "string",
              "name": "name",
              "type": "string"
            },
            {
              "internalType": "address",
              "name": "owner",
              "type": "address"
            },
            {
              "internalType": "string",
              "name": "documentHash",
              "type": "string"
            },
            {
              "internalType": "string",
              "name": "idx",
              "type": "string"
            }
          ],
          "internalType": "struct pro_pon.Document[]",
          "name": "",
          "type": "tuple[]"
        }
      ],
      "stateMutability": "view",
      "type": "function"
    },
    {
      "inputs": [
        {
          "internalType": "uint256",
          "name": "_rfpId",
          "type": "uint256"
        }
      ],
      "name": "getRFPbyIndex",
      "outputs": [
        {
          "components": [
            {
              "internalType": "string",
              "name": "name",
              "type": "string"
            },
            {
              "internalType": "string",
              "name": "description",
              "type": "string"
            },
            {
              "internalType": "uint256",
              "name": "rfpIndex",
              "type": "uint256"
            },
            {
              "internalType": "string",
              "name": "rfpwebsite",
              "type": "string"
            },
            {
              "internalType": "uint256",
              "name": "openDate",
              "type": "uint256"
            },
            {
              "internalType": "uint256",
              "name": "endReceivingDate",
              "type": "uint256"
            },
            {
              "internalType": "uint256",
              "name": "endDate",
              "type": "uint256"
            },
            {
              "internalType": "bool",
              "name": "canceled",
              "type": "bool"
            },
            {
              "internalType": "uint256",
              "name": "cancelDate",
              "type": "uint256"
            },
            {
              "internalType": "address[]",
              "name": "participants",
              "type": "address[]"
            },
            {
              "internalType": "enum pro_pon.ContestType",
              "name": "contestType",
              "type": "uint8"
            },
            {
              "internalType": "string[]",
              "name": "items",
              "type": "string[]"
            },
            {
              "internalType": "address[]",
              "name": "winners",
              "type": "address[]"
            },
            {
              "internalType": "address",
              "name": "issuer",
              "type": "address"
            }
          ],
          "internalType": "struct pro_pon.RFP",
          "name": "",
          "type": "tuple"
        }
      ],
      "stateMutability": "view",
      "type": "function"
    },
    {
      "inputs": [
        {
          "internalType": "uint256",
          "name": "_rfpIndex",
          "type": "uint256"
        }
      ],
      "name": "getWinners",
      "outputs": [
        {
          "internalType": "address[]",
          "name": "",
          "type": "address[]"
        }
      ],
      "stateMutability": "view",
      "type": "function"
    },
    {
      "inputs": [
        {
          "internalType": "uint256",
          "name": "_rfpId",
          "type": "uint256"
        },
        {
          "internalType": "string",
          "name": "companyId",
          "type": "string"
        },
        {
          "internalType": "address[]",
          "name": "invitedCompanies",
          "type": "address[]"
        }
      ],
      "name": "inviteCompaniestoRFP",
      "outputs": [],
      "stateMutability": "nonpayable",
      "type": "function"
    },
    {
      "inputs": [
        {
          "internalType": "address[]",
          "name": "container",
          "type": "address[]"
        },
        {
          "internalType": "address",
          "name": "tocheck",
          "type": "address"
        }
      ],
      "name": "isContainedAddress",
      "outputs": [
        {
          "internalType": "bool",
          "name": "",
          "type": "bool"
        }
      ],
      "stateMutability": "pure",
      "type": "function"
    },
    {
      "inputs": [],
      "name": "isOwner",
      "outputs": [
        {
          "internalType": "bool",
          "name": "",
          "type": "bool"
        }
      ],
      "stateMutability": "view",
      "type": "function"
    },
    {
      "inputs": [],
      "name": "owner",
      "outputs": [
        {
          "internalType": "address payable",
          "name": "",
          "type": "address"
        }
      ],
      "stateMutability": "view",
      "type": "function"
    },
    {
      "inputs": [
        {
          "internalType": "uint256",
          "name": "_rfpId",
          "type": "uint256"
        }
      ],
      "name": "registertoOpenRFP",
      "outputs": [],
      "stateMutability": "payable",
      "type": "function"
    },
    {
      "inputs": [
        {
          "internalType": "uint256",
          "name": "newprice",
          "type": "uint256"
        }
      ],
      "name": "setCreateCompanyPrice",
      "outputs": [],
      "stateMutability": "nonpayable",
      "type": "function"
    },
    {
      "inputs": [
        {
          "internalType": "uint256",
          "name": "price",
          "type": "uint256"
        }
      ],
      "name": "setCreateInvitationRfpPrice",
      "outputs": [],
      "stateMutability": "nonpayable",
      "type": "function"
    },
    {
      "inputs": [
        {
          "internalType": "uint256",
          "name": "price",
          "type": "uint256"
        }
      ],
      "name": "setCreateOpenRfpPrice",
      "outputs": [],
      "stateMutability": "nonpayable",
      "type": "function"
    },
    {
      "inputs": [
        {
          "internalType": "uint256",
          "name": "MaxGuest",
          "type": "uint256"
        }
      ],
      "name": "setMaxGuestInvitationTender",
      "outputs": [],
      "stateMutability": "nonpayable",
      "type": "function"
    },
    {
      "inputs": [
        {
          "internalType": "uint256",
          "name": "MaxGuest",
          "type": "uint256"
        }
      ],
      "name": "setMaxGuestOpenTender",
      "outputs": [],
      "stateMutability": "nonpayable",
      "type": "function"
    },
    {
      "inputs": [
        {
          "internalType": "uint256",
          "name": "price",
          "type": "uint256"
        }
      ],
      "name": "setRegisterOpenRfpPrice",
      "outputs": [],
      "stateMutability": "nonpayable",
      "type": "function"
    },
    {
      "inputs": [],
      "name": "withdraw",
      "outputs": [],
      "stateMutability": "nonpayable",
      "type": "function"
    }
  ],
  "bytecode": "0x6080604052655af3107a4000600055655af3107a400060015565b5e620f48000600255655af3107a4000600355600a600455600a600555600060065533600b60006101000a81548173ffffffffffffffffffffffffffffffffffffffff021916908373ffffffffffffffffffffffffffffffffffffffff160217905550615fbf8061008b6000396000f3fe6080604052600436106101ee5760003560e01c80637b60626d1161010d578063c6492895116100a0578063ea1b4b1d1161006f578063ea1b4b1d146106f3578063ecbb7b4a1461071c578063ed72f89f14610747578063f1e60d2b14610763578063fb7207611461078c576101ee565b8063c649289514610627578063d2d4ecac14610664578063d6f343c51461068d578063d7a8529e146106ca576101ee565b80638f32d59b116100dc5780638f32d59b14610569578063afeff8d914610594578063b277da5c146105bf578063be38013b146105fc576101ee565b80637b60626d146104e257806383197ef0146104fe5780638da5cb5b146105155780638e2999e414610540576101ee565b80634e289b88116101855780635d9c47f5116101545780635d9c47f51461040257806362bc56e61461042b57806367aabb1a146104685780636b1426a4146104a5576101ee565b80634e289b881461034657806357c4cab4146103715780635a6167c91461039a5780635b6a96dc146103c5576101ee565b80633ccfd60b116101c15780633ccfd60b146102b4578063466c51fc146102cb578063482baf93146102f45780634ccba2471461031d576101ee565b80630adc596e146101f3578063215cf05d1461020f5780632d714f231461023a57806332f4b16a14610277575b600080fd5b61020d60048036038101906102089190614071565b6107b7565b005b34801561021b57600080fd5b50610224610d91565b60405161023191906141a6565b60405180910390f35b34801561024657600080fd5b50610261600480360381019061025c919061421f565b610d97565b60405161026e9190614294565b60405180910390f35b34801561028357600080fd5b5061029e600480360381019061029991906142af565b610de2565b6040516102ab91906146d6565b60405180910390f35b3480156102c057600080fd5b506102c9611299565b005b3480156102d757600080fd5b506102f260048036038101906102ed91906142af565b611395565b005b34801561030057600080fd5b5061031b600480360381019061031691906147bb565b6113e6565b005b34801561032957600080fd5b50610344600480360381019061033f91906142af565b611906565b005b34801561035257600080fd5b5061035b611957565b60405161036891906141a6565b60405180910390f35b34801561037d57600080fd5b5061039860048036038101906103939190614846565b61195d565b005b3480156103a657600080fd5b506103af611c28565b6040516103bc91906141a6565b60405180910390f35b3480156103d157600080fd5b506103ec60048036038101906103e791906148a2565b611c2e565b6040516103f9919061490d565b60405180910390f35b34801561040e57600080fd5b50610429600480360381019061042491906142af565b611cbc565b005b34801561043757600080fd5b50610452600480360381019061044d9190614928565b611d0d565b60405161045f9190614ac6565b60405180910390f35b34801561047457600080fd5b5061048f600480360381019061048a9190614928565b611fec565b60405161049c9190614b57565b60405180910390f35b3480156104b157600080fd5b506104cc60048036038101906104c791906142af565b612086565b6040516104d99190614be8565b60405180910390f35b6104fc60048036038101906104f79190614c0a565b61212a565b005b34801561050a57600080fd5b50610513612430565b005b34801561052157600080fd5b5061052a6124b2565b6040516105379190614cd2565b60405180910390f35b34801561054c57600080fd5b50610567600480360381019061056291906142af565b6124d8565b005b34801561057557600080fd5b5061057e612529565b60405161058b919061490d565b60405180910390f35b3480156105a057600080fd5b506105a9612581565b6040516105b691906141a6565b60405180910390f35b3480156105cb57600080fd5b506105e660048036038101906105e191906142af565b612587565b6040516105f391906141a6565b60405180910390f35b34801561060857600080fd5b506106116125a7565b60405161061e91906141a6565b60405180910390f35b34801561063357600080fd5b5061064e600480360381019061064991906142af565b6125ad565b60405161065b9190614e33565b60405180910390f35b34801561067057600080fd5b5061068b60048036038101906106869190614f18565b612835565b005b34801561069957600080fd5b506106b460048036038101906106af9190614928565b612ce3565b6040516106c1919061504d565b60405180910390f35b3480156106d657600080fd5b506106f160048036038101906106ec91906142af565b612db7565b005b3480156106ff57600080fd5b5061071a600480360381019061071591906142af565b612e08565b005b34801561072857600080fd5b50610731612e59565b60405161073e91906141a6565b60405180910390f35b610761600480360381019061075c91906142af565b612e5f565b005b34801561076f57600080fd5b5061078a600480360381019061078591906147bb565b61320f565b005b34801561079857600080fd5b506107a1613949565b6040516107ae9190614b57565b60405180910390f35b60006107c38933610d97565b9050600c600082815260200190815260200160002060009054906101000a900460ff1615610826576040517f08c379a000000000000000000000000000000000000000000000000000000000815260040161081d906150bb565b60405180910390fd5b6000600181111561083a5761083961444c565b5b83600181111561084d5761084c61444c565b5b1461085a5760025461085e565b6001545b3410156108a0576040517f08c379a000000000000000000000000000000000000000000000000000000000815260040161089790615127565b60405180910390fd5b60006108ab33611d0d565b90506000816000015190506000815114156108fb576040517f08c379a00000000000000000000000000000000000000000000000000000000081526004016108f290615193565b60405180910390fd5b610e104261090991906151e2565b88101561094b576040517f08c379a000000000000000000000000000000000000000000000000000000000815260040161094290615262565b60405180910390fd5b86881061098d576040517f08c379a0000000000000000000000000000000000000000000000000000000008152600401610984906152ce565b60405180910390fd5b8587106109cf576040517f08c379a00000000000000000000000000000000000000000000000000000000081526004016109c69061533a565b60405180910390fd5b600060065490506000604051806101c001604052808e81526020018d81526020018381526020018c81526020018b81526020018a815260200189815260200160001515815260200160008152602001600067ffffffffffffffff811115610a3957610a38613e05565b5b604051908082528060200260200182016040528015610a675781602001602082028036833780820191505090505b508152602001886001811115610a8057610a7f61444c565b5b8152602001878152602001600067ffffffffffffffff811115610aa657610aa5613e05565b5b604051908082528060200260200182016040528015610ad45781602001602082028036833780820191505090505b5081526020013373ffffffffffffffffffffffffffffffffffffffff1681525090506001600c600087815260200190815260200160002060006101000a81548160ff02191690831515021790555080600960008481526020019081526020016000206000820151816000019080519060200190610b52929190613b12565b506020820151816001019080519060200190610b6f929190613b12565b50604082015181600201556060820151816003019080519060200190610b96929190613b12565b506080820151816004015560a0820151816005015560c0820151816006015560e08201518160070160006101000a81548160ff0219169083151502179055506101008201518160080155610120820151816009019080519060200190610bfd929190613b98565b5061014082015181600a0160006101000a81548160ff02191690836001811115610c2a57610c2961444c565b5b021790555061016082015181600b019080519060200190610c4c929190613c22565b5061018082015181600c019080519060200190610c6a929190613b98565b506101a082015181600d0160006101000a81548173ffffffffffffffffffffffffffffffffffffffff021916908373ffffffffffffffffffffffffffffffffffffffff160217905550905050600760003373ffffffffffffffffffffffffffffffffffffffff1673ffffffffffffffffffffffffffffffffffffffff1681526020019081526020016000206005018290806001815401808255809150506001900390600052602060002001600090919091909150553373ffffffffffffffffffffffffffffffffffffffff167fae438a3ef380e4b013ba12bcb929a59140482304040a1d8cf54d25c8e85640e9838f604051610d6792919061535a565b60405180910390a2600182610d7c919061538a565b60068190555050505050505050505050505050565b60005481565b6000808380519060200120905060008184604051602001610db9929190615449565b604051602081830303815290604052905060008180519060200120905080935050505092915050565b610dea613c82565b60096000838152602001908152602001600020604051806101c0016040529081600082018054610e19906154a4565b80601f0160208091040260200160405190810160405280929190818152602001828054610e45906154a4565b8015610e925780601f10610e6757610100808354040283529160200191610e92565b820191906000526020600020905b815481529060010190602001808311610e7557829003601f168201915b50505050508152602001600182018054610eab906154a4565b80601f0160208091040260200160405190810160405280929190818152602001828054610ed7906154a4565b8015610f245780601f10610ef957610100808354040283529160200191610f24565b820191906000526020600020905b815481529060010190602001808311610f0757829003601f168201915b5050505050815260200160028201548152602001600382018054610f47906154a4565b80601f0160208091040260200160405190810160405280929190818152602001828054610f73906154a4565b8015610fc05780601f10610f9557610100808354040283529160200191610fc0565b820191906000526020600020905b815481529060010190602001808311610fa357829003601f168201915b505050505081526020016004820154815260200160058201548152602001600682015481526020016007820160009054906101000a900460ff16151515158152602001600882015481526020016009820180548060200260200160405190810160405280929190818152602001828054801561109157602002820191906000526020600020905b8160009054906101000a900473ffffffffffffffffffffffffffffffffffffffff1673ffffffffffffffffffffffffffffffffffffffff1681526020019060010190808311611047575b50505050508152602001600a820160009054906101000a900460ff1660018111156110bf576110be61444c565b5b60018111156110d1576110d061444c565b5b8152602001600b8201805480602002602001604051908101604052809291908181526020016000905b828210156111a6578382906000526020600020018054611119906154a4565b80601f0160208091040260200160405190810160405280929190818152602001828054611145906154a4565b80156111925780601f1061116757610100808354040283529160200191611192565b820191906000526020600020905b81548152906001019060200180831161117557829003601f168201915b5050505050815260200190600101906110fa565b505050508152602001600c820180548060200260200160405190810160405280929190818152602001828054801561123357602002820191906000526020600020905b8160009054906101000a900473ffffffffffffffffffffffffffffffffffffffff1673ffffffffffffffffffffffffffffffffffffffff16815260200190600101908083116111e9575b50505050508152602001600d820160009054906101000a900473ffffffffffffffffffffffffffffffffffffffff1673ffffffffffffffffffffffffffffffffffffffff1673ffffffffffffffffffffffffffffffffffffffff16815250509050919050565b6112a1612529565b6112e0576040517f08c379a00000000000000000000000000000000000000000000000000000000081526004016112d790615522565b60405180910390fd5b600047905060003373ffffffffffffffffffffffffffffffffffffffff168260405161130b90615573565b60006040518083038185875af1925050503d8060008114611348576040519150601f19603f3d011682016040523d82523d6000602084013e61134d565b606091505b5050905080611391576040517f08c379a0000000000000000000000000000000000000000000000000000000008152600401611388906155d4565b60405180910390fd5b5050565b61139d612529565b6113dc576040517f08c379a00000000000000000000000000000000000000000000000000000000081526004016113d390615522565b60405180910390fd5b8060008190555050565b816114bb600760003373ffffffffffffffffffffffffffffffffffffffff1673ffffffffffffffffffffffffffffffffffffffff1681526020019081526020016000206000018054611437906154a4565b80601f0160208091040260200160405190810160405280929190818152602001828054611463906154a4565b80156114b05780601f10611485576101008083540402835291602001916114b0565b820191906000526020600020905b81548152906001019060200180831161149357829003601f168201915b5050505050826139e1565b6114fa576040517f08c379a00000000000000000000000000000000000000000000000000000000081526004016114f190615640565b60405180910390fd5b833373ffffffffffffffffffffffffffffffffffffffff1660096000838152602001908152602001600020600d0160009054906101000a900473ffffffffffffffffffffffffffffffffffffffff1673ffffffffffffffffffffffffffffffffffffffff161461159f576040517f08c379a0000000000000000000000000000000000000000000000000000000008152600401611596906156ac565b60405180910390fd5b846009600082815260200190815260200160002060070160009054906101000a900460ff1615611604576040517f08c379a00000000000000000000000000000000000000000000000000000000081526004016115fb90615718565b60405180910390fd5b6001808111156116175761161661444c565b5b60096000888152602001908152602001600020600a0160009054906101000a900460ff16600181111561164d5761164c61444c565b5b1461168d576040517f08c379a000000000000000000000000000000000000000000000000000000000815260040161168490615784565b60405180910390fd5b600554845160096000898152602001908152602001600020600901805490506116b6919061538a565b11156116f7576040517f08c379a00000000000000000000000000000000000000000000000000000000081526004016116ee906157f0565b60405180910390fd5b60005b84518160ff1610156118fd57600060019050858260ff168151811061172257611721615810565b5b602002602001015173ffffffffffffffffffffffffffffffffffffffff163373ffffffffffffffffffffffffffffffffffffffff16141561176357506118ea565b60005b600960008a8152602001908152602001600020600901805490508160ff16101561184c57868360ff16815181106117a05761179f615810565b5b602002602001015173ffffffffffffffffffffffffffffffffffffffff16600960008b81526020019081526020016000206009018260ff16815481106117e9576117e8615810565b5b9060005260206000200160009054906101000a900473ffffffffffffffffffffffffffffffffffffffff1673ffffffffffffffffffffffffffffffffffffffff161415611839576000915061184c565b80806118449061584c565b915050611766565b5080156118e85760096000898152602001908152602001600020600901868360ff168151811061187f5761187e615810565b5b60200260200101519080600181540180825580915050600190039060005260206000200160009091909190916101000a81548173ffffffffffffffffffffffffffffffffffffffff021916908373ffffffffffffffffffffffffffffffffffffffff1602179055505b505b80806118f59061584c565b9150506116fa565b50505050505050565b61190e612529565b61194d576040517f08c379a000000000000000000000000000000000000000000000000000000000815260040161194490615522565b60405180910390fd5b8060048190555050565b60015481565b81611a32600760003373ffffffffffffffffffffffffffffffffffffffff1673ffffffffffffffffffffffffffffffffffffffff16815260200190815260200160002060000180546119ae906154a4565b80601f01602080910402602001604051908101604052809291908181526020018280546119da906154a4565b8015611a275780601f106119fc57610100808354040283529160200191611a27565b820191906000526020600020905b815481529060010190602001808311611a0a57829003601f168201915b5050505050826139e1565b611a71576040517f08c379a0000000000000000000000000000000000000000000000000000000008152600401611a6890615640565b60405180910390fd5b813373ffffffffffffffffffffffffffffffffffffffff1660096000838152602001908152602001600020600d0160009054906101000a900473ffffffffffffffffffffffffffffffffffffffff1673ffffffffffffffffffffffffffffffffffffffff1614611b16576040517f08c379a0000000000000000000000000000000000000000000000000000000008152600401611b0d906156ac565b60405180910390fd5b826009600082815260200190815260200160002060070160009054906101000a900460ff1615611b7b576040517f08c379a0000000000000000000000000000000000000000000000000000000008152600401611b7290615718565b60405180910390fd5b600060096000868152602001908152602001600020600c018054905014611bd7576040517f08c379a0000000000000000000000000000000000000000000000000000000008152600401611bce906158c2565b60405180910390fd5b60016009600086815260200190815260200160002060070160006101000a81548160ff0219169083151502179055504260096000868152602001908152602001600020600801819055505050505050565b60055481565b600080600090505b83518160ff161015611cb0578273ffffffffffffffffffffffffffffffffffffffff16848260ff1681518110611c6f57611c6e615810565b5b602002602001015173ffffffffffffffffffffffffffffffffffffffff161415611c9d576001915050611cb6565b8080611ca89061584c565b915050611c36565b50600090505b92915050565b611cc4612529565b611d03576040517f08c379a0000000000000000000000000000000000000000000000000000000008152600401611cfa90615522565b60405180910390fd5b8060018190555050565b611d15613d1b565b600760008373ffffffffffffffffffffffffffffffffffffffff1673ffffffffffffffffffffffffffffffffffffffff1681526020019081526020016000206040518060c0016040529081600082018054611d6f906154a4565b80601f0160208091040260200160405190810160405280929190818152602001828054611d9b906154a4565b8015611de85780601f10611dbd57610100808354040283529160200191611de8565b820191906000526020600020905b815481529060010190602001808311611dcb57829003601f168201915b50505050508152602001600182018054611e01906154a4565b80601f0160208091040260200160405190810160405280929190818152602001828054611e2d906154a4565b8015611e7a5780601f10611e4f57610100808354040283529160200191611e7a565b820191906000526020600020905b815481529060010190602001808311611e5d57829003601f168201915b50505050508152602001600282018054611e93906154a4565b80601f0160208091040260200160405190810160405280929190818152602001828054611ebf906154a4565b8015611f0c5780601f10611ee157610100808354040283529160200191611f0c565b820191906000526020600020905b815481529060010190602001808311611eef57829003601f168201915b505050505081526020016003820160009054906101000a900461ffff1661ffff1661ffff16815260200160048201805480602002602001604051908101604052809291908181526020018280548015611f8457602002820191906000526020600020905b815481526020019060010190808311611f70575b5050505050815260200160058201805480602002602001604051908101604052809291908181526020018280548015611fdc57602002820191906000526020600020905b815481526020019060010190808311611fc8575b5050505050815250509050919050565b6060600760008373ffffffffffffffffffffffffffffffffffffffff1673ffffffffffffffffffffffffffffffffffffffff16815260200190815260200160002060050180548060200260200160405190810160405280929190818152602001828054801561207a57602002820191906000526020600020905b815481526020019060010190808311612066575b50505050509050919050565b606060096000838152602001908152602001600020600c0180548060200260200160405190810160405280929190818152602001828054801561211e57602002820191906000526020600020905b8160009054906101000a900473ffffffffffffffffffffffffffffffffffffffff1673ffffffffffffffffffffffffffffffffffffffff16815260200190600101908083116120d4575b50505050509050919050565b60088360405161213a919061591e565b908152602001604051809103902060009054906101000a900460ff1615612196576040517f08c379a000000000000000000000000000000000000000000000000000000000815260040161218d90615981565b60405180910390fd5b6000543410156121db576040517f08c379a00000000000000000000000000000000000000000000000000000000081526004016121d290615127565b60405180910390fd5b6000600760003373ffffffffffffffffffffffffffffffffffffffff1673ffffffffffffffffffffffffffffffffffffffff168152602001908152602001600020600001805461222a906154a4565b80601f0160208091040260200160405190810160405280929190818152602001828054612256906154a4565b80156122a35780601f10612278576101008083540402835291602001916122a3565b820191906000526020600020905b81548152906001019060200180831161228657829003601f168201915b5050505050905060008151146122ee576040517f08c379a00000000000000000000000000000000000000000000000000000000081526004016122e5906159ed565b60405180910390fd5b6001600885604051612300919061591e565b908152602001604051809103902060006101000a81548160ff02191690831515021790555083600760003373ffffffffffffffffffffffffffffffffffffffff1673ffffffffffffffffffffffffffffffffffffffff168152602001908152602001600020600001908051906020019061237b929190613b12565b5082600760003373ffffffffffffffffffffffffffffffffffffffff1673ffffffffffffffffffffffffffffffffffffffff16815260200190815260200160002060010190805190602001906123d2929190613b12565b5081600760003373ffffffffffffffffffffffffffffffffffffffff1673ffffffffffffffffffffffffffffffffffffffff1681526020019081526020016000206002019080519060200190612429929190613b12565b5050505050565b612438612529565b612477576040517f08c379a000000000000000000000000000000000000000000000000000000000815260040161246e90615522565b60405180910390fd5b600b60009054906101000a900473ffffffffffffffffffffffffffffffffffffffff1673ffffffffffffffffffffffffffffffffffffffff16ff5b600b60009054906101000a900473ffffffffffffffffffffffffffffffffffffffff1681565b6124e0612529565b61251f576040517f08c379a000000000000000000000000000000000000000000000000000000000815260040161251690615522565b60405180910390fd5b8060058190555050565b6000600b60009054906101000a900473ffffffffffffffffffffffffffffffffffffffff1673ffffffffffffffffffffffffffffffffffffffff163373ffffffffffffffffffffffffffffffffffffffff1614905090565b60025481565b600060096000838152602001908152602001600020600801549050919050565b60035481565b6060600a6000838152602001908152602001600020805480602002602001604051908101604052809291908181526020016000905b8282101561282a57838290600052602060002090600502016040518060a00160405290816000820154815260200160018201805461261f906154a4565b80601f016020809104026020016040519081016040528092919081815260200182805461264b906154a4565b80156126985780601f1061266d57610100808354040283529160200191612698565b820191906000526020600020905b81548152906001019060200180831161267b57829003601f168201915b505050505081526020016002820160009054906101000a900473ffffffffffffffffffffffffffffffffffffffff1673ffffffffffffffffffffffffffffffffffffffff1673ffffffffffffffffffffffffffffffffffffffff168152602001600382018054612707906154a4565b80601f0160208091040260200160405190810160405280929190818152602001828054612733906154a4565b80156127805780601f1061275557610100808354040283529160200191612780565b820191906000526020600020905b81548152906001019060200180831161276357829003601f168201915b50505050508152602001600482018054612799906154a4565b80601f01602080910402602001604051908101604052809291908181526020018280546127c5906154a4565b80156128125780601f106127e757610100808354040283529160200191612812565b820191906000526020600020905b8154815290600101906020018083116127f557829003601f168201915b505050505081525050815260200190600101906125e2565b505050509050919050565b600060096000878152602001908152602001600020600d0160009054906101000a900473ffffffffffffffffffffffffffffffffffffffff1673ffffffffffffffffffffffffffffffffffffffff163373ffffffffffffffffffffffffffffffffffffffff16149050806129b3576000805b60096000898152602001908152602001600020600901805490508160ff16101561297057600960008981526020019081526020016000206009018160ff16815481106128f6576128f5615810565b5b9060005260206000200160009054906101000a900473ffffffffffffffffffffffffffffffffffffffff1673ffffffffffffffffffffffffffffffffffffffff163373ffffffffffffffffffffffffffffffffffffffff16141561295d5760019150612970565b80806129689061584c565b9150506128a7565b50806129b1576040517f08c379a00000000000000000000000000000000000000000000000000000000081526004016129a890615a59565b60405180910390fd5b505b6000805b85518160ff161015612cd9576000878260ff16815181106129db576129da615810565b5b602002602001015190506000600a8111156129f9576129f861444c565b5b60ff168160ff161480612a2457506001600a811115612a1b57612a1a61444c565b5b60ff168160ff16145b80612a4757506002600a811115612a3e57612a3d61444c565b5b60ff168160ff16145b92508315612a945782612a8f576040517f08c379a0000000000000000000000000000000000000000000000000000000008152600401612a8690615ac5565b60405180910390fd5b612b2e565b8215612ad5576040517f08c379a0000000000000000000000000000000000000000000000000000000008152600401612acc90615b31565b60405180910390fd5b42600960008b81526020019081526020016000206005015411612b2d576040517f08c379a0000000000000000000000000000000000000000000000000000000008152600401612b2490615b9d565b60405180910390fd5b5b600a60008a81526020019081526020016000206040518060a001604052808a8560ff1681518110612b6257612b61615810565b5b60200260200101518152602001898560ff1681518110612b8557612b84615810565b5b602002602001015181526020013373ffffffffffffffffffffffffffffffffffffffff168152602001888560ff1681518110612bc457612bc3615810565b5b60200260200101518152602001878560ff1681518110612be757612be6615810565b5b60200260200101518152509080600181540180825580915050600190039060005260206000209060050201600090919091909150600082015181600001556020820151816001019080519060200190612c41929190613b12565b5060408201518160020160006101000a81548173ffffffffffffffffffffffffffffffffffffffff021916908373ffffffffffffffffffffffffffffffffffffffff1602179055506060820151816003019080519060200190612ca5929190613b12565b506080820151816004019080519060200190612cc2929190613b12565b505050508080612cd19061584c565b9150506129b7565b5050505050505050565b6060600760008373ffffffffffffffffffffffffffffffffffffffff1673ffffffffffffffffffffffffffffffffffffffff1681526020019081526020016000206000018054612d32906154a4565b80601f0160208091040260200160405190810160405280929190818152602001828054612d5e906154a4565b8015612dab5780601f10612d8057610100808354040283529160200191612dab565b820191906000526020600020905b815481529060010190602001808311612d8e57829003601f168201915b50505050509050919050565b612dbf612529565b612dfe576040517f08c379a0000000000000000000000000000000000000000000000000000000008152600401612df590615522565b60405180910390fd5b8060038190555050565b612e10612529565b612e4f576040517f08c379a0000000000000000000000000000000000000000000000000000000008152600401612e4690615522565b60405180910390fd5b8060028190555050565b60045481565b806009600082815260200190815260200160002060070160009054906101000a900460ff1615612ec4576040517f08c379a0000000000000000000000000000000000000000000000000000000008152600401612ebb90615718565b60405180910390fd5b600354341015612f09576040517f08c379a0000000000000000000000000000000000000000000000000000000008152600401612f0090615c09565b60405180910390fd5b60006001811115612f1d57612f1c61444c565b5b60096000848152602001908152602001600020600a0160009054906101000a900460ff166001811115612f5357612f5261444c565b5b14612f93576040517f08c379a0000000000000000000000000000000000000000000000000000000008152600401612f8a90615c75565b60405180910390fd5b600454600960008481526020019081526020016000206009018054905010612ff0576040517f08c379a0000000000000000000000000000000000000000000000000000000008152600401612fe790615ce1565b60405180910390fd5b60096000838152602001908152602001600020600d0160009054906101000a900473ffffffffffffffffffffffffffffffffffffffff1673ffffffffffffffffffffffffffffffffffffffff163373ffffffffffffffffffffffffffffffffffffffff161415613095576040517f08c379a000000000000000000000000000000000000000000000000000000000815260040161308c90615d4d565b60405180910390fd5b60005b60096000848152602001908152602001600020600901805490508160ff161015613193573373ffffffffffffffffffffffffffffffffffffffff16600960008581526020019081526020016000206009018260ff16815481106130fe576130fd615810565b5b9060005260206000200160009054906101000a900473ffffffffffffffffffffffffffffffffffffffff1673ffffffffffffffffffffffffffffffffffffffff161415613180576040517f08c379a000000000000000000000000000000000000000000000000000000000815260040161317790615db9565b60405180910390fd5b808061318b9061584c565b915050613098565b5060096000838152602001908152602001600020600901339080600181540180825580915050600190039060005260206000200160009091909190916101000a81548173ffffffffffffffffffffffffffffffffffffffff021916908373ffffffffffffffffffffffffffffffffffffffff1602179055505050565b816132e4600760003373ffffffffffffffffffffffffffffffffffffffff1673ffffffffffffffffffffffffffffffffffffffff1681526020019081526020016000206000018054613260906154a4565b80601f016020809104026020016040519081016040528092919081815260200182805461328c906154a4565b80156132d95780601f106132ae576101008083540402835291602001916132d9565b820191906000526020600020905b8154815290600101906020018083116132bc57829003601f168201915b5050505050826139e1565b613323576040517f08c379a000000000000000000000000000000000000000000000000000000000815260040161331a90615640565b60405180910390fd5b833373ffffffffffffffffffffffffffffffffffffffff1660096000838152602001908152602001600020600d0160009054906101000a900473ffffffffffffffffffffffffffffffffffffffff1673ffffffffffffffffffffffffffffffffffffffff16146133c8576040517f08c379a00000000000000000000000000000000000000000000000000000000081526004016133bf906156ac565b60405180910390fd5b846009600082815260200190815260200160002060070160009054906101000a900460ff161561342d576040517f08c379a000000000000000000000000000000000000000000000000000000000815260040161342490615718565b60405180910390fd5b600060096000888152602001908152602001600020600c018054905014613489576040517f08c379a0000000000000000000000000000000000000000000000000000000008152600401613480906158c2565b60405180910390fd5b600060096000888152602001908152602001600020600b0180549050905060008114806134b65750600181145b80156134c3575060018551145b806134db5750600281101580156134da5750808551145b5b61351a576040517f08c379a000000000000000000000000000000000000000000000000000000000815260040161351190615e25565b60405180910390fd5b6009600088815260200190815260200160002060060154421015613573576040517f08c379a000000000000000000000000000000000000000000000000000000000815260040161356a90615e91565b60405180910390fd5b60005b85518160ff16101561393f573373ffffffffffffffffffffffffffffffffffffffff16868260ff16815181106135af576135ae615810565b5b602002602001015173ffffffffffffffffffffffffffffffffffffffff16141561360e576040517f08c379a000000000000000000000000000000000000000000000000000000000815260040161360590615efd565b60405180910390fd5b6136cf868260ff168151811061362757613626615810565b5b6020026020010151600960008b81526020019081526020016000206009018054806020026020016040519081016040528092919081815260200182805480156136c557602002820191906000526020600020905b8160009054906101000a900473ffffffffffffffffffffffffffffffffffffffff1673ffffffffffffffffffffffffffffffffffffffff168152602001906001019080831161367b575b5050505050613a4d565b61370e576040517f08c379a000000000000000000000000000000000000000000000000000000000815260040161370590615f69565b60405180910390fd5b60096000898152602001908152602001600020600c01868260ff168151811061373a57613739615810565b5b60200260200101519080600181540180825580915050600190039060005260206000200160009091909190916101000a81548173ffffffffffffffffffffffffffffffffffffffff021916908373ffffffffffffffffffffffffffffffffffffffff160217905550600060076000888460ff16815181106137be576137bd615810565b5b602002602001015173ffffffffffffffffffffffffffffffffffffffff1673ffffffffffffffffffffffffffffffffffffffff168152602001908152602001600020600401805490509050600081148061389f57508860076000898560ff168151811061382e5761382d615810565b5b602002602001015173ffffffffffffffffffffffffffffffffffffffff1673ffffffffffffffffffffffffffffffffffffffff16815260200190815260200160002060040160018361388091906151e2565b8154811061389157613890615810565b5b906000526020600020015414155b1561392b5760076000888460ff16815181106138be576138bd615810565b5b602002602001015173ffffffffffffffffffffffffffffffffffffffff1673ffffffffffffffffffffffffffffffffffffffff1681526020019081526020016000206004018990806001815401808255809150506001900390600052602060002001600090919091909150555b5080806139379061584c565b915050613576565b5050505050505050565b6060600760003373ffffffffffffffffffffffffffffffffffffffff1673ffffffffffffffffffffffffffffffffffffffff1681526020019081526020016000206004018054806020026020016040519081016040528092919081815260200182805480156139d757602002820191906000526020600020905b8154815260200190600101908083116139c3575b5050505050905090565b600081518351146139f55760009050613a47565b81604051602001613a06919061591e565b6040516020818303038152906040528051906020012083604051602001613a2d919061591e565b604051602081830303815290604052805190602001201490505b92915050565b600080600090505b82518160ff161015613b0657828160ff1681518110613a7757613a76615810565b5b602002602001015173ffffffffffffffffffffffffffffffffffffffff168473ffffffffffffffffffffffffffffffffffffffff161480613ae45750600073ffffffffffffffffffffffffffffffffffffffff168473ffffffffffffffffffffffffffffffffffffffff16145b15613af3576001915050613b0c565b8080613afe9061584c565b915050613a55565b50600090505b92915050565b828054613b1e906154a4565b90600052602060002090601f016020900481019282613b405760008555613b87565b82601f10613b5957805160ff1916838001178555613b87565b82800160010185558215613b87579182015b82811115613b86578251825591602001919060010190613b6b565b5b509050613b949190613d55565b5090565b828054828255906000526020600020908101928215613c11579160200282015b82811115613c105782518260006101000a81548173ffffffffffffffffffffffffffffffffffffffff021916908373ffffffffffffffffffffffffffffffffffffffff16021790555091602001919060010190613bb8565b5b509050613c1e9190613d55565b5090565b828054828255906000526020600020908101928215613c71579160200282015b82811115613c70578251829080519060200190613c60929190613b12565b5091602001919060010190613c42565b5b509050613c7e9190613d72565b5090565b604051806101c0016040528060608152602001606081526020016000815260200160608152602001600081526020016000815260200160008152602001600015158152602001600081526020016060815260200160006001811115613cea57613ce961444c565b5b81526020016060815260200160608152602001600073ffffffffffffffffffffffffffffffffffffffff1681525090565b6040518060c00160405280606081526020016060815260200160608152602001600061ffff16815260200160608152602001606081525090565b5b80821115613d6e576000816000905550600101613d56565b5090565b5b80821115613d925760008181613d899190613d96565b50600101613d73565b5090565b508054613da2906154a4565b6000825580601f10613db45750613dd3565b601f016020900490600052602060002090810190613dd29190613d55565b5b50565b6000604051905090565b600080fd5b600080fd5b600080fd5b600080fd5b6000601f19601f8301169050919050565b7f4e487b7100000000000000000000000000000000000000000000000000000000600052604160045260246000fd5b613e3d82613df4565b810181811067ffffffffffffffff82111715613e5c57613e5b613e05565b5b80604052505050565b6000613e6f613dd6565b9050613e7b8282613e34565b919050565b600067ffffffffffffffff821115613e9b57613e9a613e05565b5b613ea482613df4565b9050602081019050919050565b82818337600083830152505050565b6000613ed3613ece84613e80565b613e65565b905082815260208101848484011115613eef57613eee613def565b5b613efa848285613eb1565b509392505050565b600082601f830112613f1757613f16613dea565b5b8135613f27848260208601613ec0565b91505092915050565b6000819050919050565b613f4381613f30565b8114613f4e57600080fd5b50565b600081359050613f6081613f3a565b92915050565b60028110613f7357600080fd5b50565b600081359050613f8581613f66565b92915050565b600067ffffffffffffffff821115613fa657613fa5613e05565b5b602082029050602081019050919050565b600080fd5b6000613fcf613fca84613f8b565b613e65565b90508083825260208201905060208402830185811115613ff257613ff1613fb7565b5b835b8181101561403957803567ffffffffffffffff81111561401757614016613dea565b5b8086016140248982613f02565b85526020850194505050602081019050613ff4565b5050509392505050565b600082601f83011261405857614057613dea565b5b8135614068848260208601613fbc565b91505092915050565b600080600080600080600080610100898b03121561409257614091613de0565b5b600089013567ffffffffffffffff8111156140b0576140af613de5565b5b6140bc8b828c01613f02565b985050602089013567ffffffffffffffff8111156140dd576140dc613de5565b5b6140e98b828c01613f02565b975050604089013567ffffffffffffffff81111561410a57614109613de5565b5b6141168b828c01613f02565b96505060606141278b828c01613f51565b95505060806141388b828c01613f51565b94505060a06141498b828c01613f51565b93505060c061415a8b828c01613f76565b92505060e089013567ffffffffffffffff81111561417b5761417a613de5565b5b6141878b828c01614043565b9150509295985092959890939650565b6141a081613f30565b82525050565b60006020820190506141bb6000830184614197565b92915050565b600073ffffffffffffffffffffffffffffffffffffffff82169050919050565b60006141ec826141c1565b9050919050565b6141fc816141e1565b811461420757600080fd5b50565b600081359050614219816141f3565b92915050565b6000806040838503121561423657614235613de0565b5b600083013567ffffffffffffffff81111561425457614253613de5565b5b61426085828601613f02565b92505060206142718582860161420a565b9150509250929050565b6000819050919050565b61428e8161427b565b82525050565b60006020820190506142a96000830184614285565b92915050565b6000602082840312156142c5576142c4613de0565b5b60006142d384828501613f51565b91505092915050565b600081519050919050565b600082825260208201905092915050565b60005b838110156143165780820151818401526020810190506142fb565b83811115614325576000848401525b50505050565b6000614336826142dc565b61434081856142e7565b93506143508185602086016142f8565b61435981613df4565b840191505092915050565b61436d81613f30565b82525050565b60008115159050919050565b61438881614373565b82525050565b600081519050919050565b600082825260208201905092915050565b6000819050602082019050919050565b6143c3816141e1565b82525050565b60006143d583836143ba565b60208301905092915050565b6000602082019050919050565b60006143f98261438e565b6144038185614399565b935061440e836143aa565b8060005b8381101561443f57815161442688826143c9565b9750614431836143e1565b925050600181019050614412565b5085935050505092915050565b7f4e487b7100000000000000000000000000000000000000000000000000000000600052602160045260246000fd5b6002811061448c5761448b61444c565b5b50565b600081905061449d8261447b565b919050565b60006144ad8261448f565b9050919050565b6144bd816144a2565b82525050565b600081519050919050565b600082825260208201905092915050565b6000819050602082019050919050565b60006144fb838361432b565b905092915050565b6000602082019050919050565b600061451b826144c3565b61452581856144ce565b935083602082028501614537856144df565b8060005b85811015614573578484038952815161455485826144ef565b945061455f83614503565b925060208a0199505060018101905061453b565b50829750879550505050505092915050565b60006101c08301600083015184820360008601526145a3828261432b565b915050602083015184820360208601526145bd828261432b565b91505060408301516145d26040860182614364565b50606083015184820360608601526145ea828261432b565b91505060808301516145ff6080860182614364565b5060a083015161461260a0860182614364565b5060c083015161462560c0860182614364565b5060e083015161463860e086018261437f565b5061010083015161464d610100860182614364565b5061012083015184820361012086015261466782826143ee565b91505061014083015161467e6101408601826144b4565b506101608301518482036101608601526146988282614510565b9150506101808301518482036101808601526146b482826143ee565b9150506101a08301516146cb6101a08601826143ba565b508091505092915050565b600060208201905081810360008301526146f08184614585565b905092915050565b600067ffffffffffffffff82111561471357614712613e05565b5b602082029050602081019050919050565b6000614737614732846146f8565b613e65565b9050808382526020820190506020840283018581111561475a57614759613fb7565b5b835b81811015614783578061476f888261420a565b84526020840193505060208101905061475c565b5050509392505050565b600082601f8301126147a2576147a1613dea565b5b81356147b2848260208601614724565b91505092915050565b6000806000606084860312156147d4576147d3613de0565b5b60006147e286828701613f51565b935050602084013567ffffffffffffffff81111561480357614802613de5565b5b61480f86828701613f02565b925050604084013567ffffffffffffffff8111156148305761482f613de5565b5b61483c8682870161478d565b9150509250925092565b6000806040838503121561485d5761485c613de0565b5b600083013567ffffffffffffffff81111561487b5761487a613de5565b5b61488785828601613f02565b925050602061489885828601613f51565b9150509250929050565b600080604083850312156148b9576148b8613de0565b5b600083013567ffffffffffffffff8111156148d7576148d6613de5565b5b6148e38582860161478d565b92505060206148f48582860161420a565b9150509250929050565b61490781614373565b82525050565b600060208201905061492260008301846148fe565b92915050565b60006020828403121561493e5761493d613de0565b5b600061494c8482850161420a565b91505092915050565b600061ffff82169050919050565b61496c81614955565b82525050565b600081519050919050565b600082825260208201905092915050565b6000819050602082019050919050565b60006149aa8383614364565b60208301905092915050565b6000602082019050919050565b60006149ce82614972565b6149d8818561497d565b93506149e38361498e565b8060005b83811015614a145781516149fb888261499e565b9750614a06836149b6565b9250506001810190506149e7565b5085935050505092915050565b600060c0830160008301518482036000860152614a3e828261432b565b91505060208301518482036020860152614a58828261432b565b91505060408301518482036040860152614a72828261432b565b9150506060830151614a876060860182614963565b5060808301518482036080860152614a9f82826149c3565b91505060a083015184820360a0860152614ab982826149c3565b9150508091505092915050565b60006020820190508181036000830152614ae08184614a21565b905092915050565b600082825260208201905092915050565b6000614b0482614972565b614b0e8185614ae8565b9350614b198361498e565b8060005b83811015614b4a578151614b31888261499e565b9750614b3c836149b6565b925050600181019050614b1d565b5085935050505092915050565b60006020820190508181036000830152614b718184614af9565b905092915050565b600082825260208201905092915050565b6000614b958261438e565b614b9f8185614b79565b9350614baa836143aa565b8060005b83811015614bdb578151614bc288826143c9565b9750614bcd836143e1565b925050600181019050614bae565b5085935050505092915050565b60006020820190508181036000830152614c028184614b8a565b905092915050565b600080600060608486031215614c2357614c22613de0565b5b600084013567ffffffffffffffff811115614c4157614c40613de5565b5b614c4d86828701613f02565b935050602084013567ffffffffffffffff811115614c6e57614c6d613de5565b5b614c7a86828701613f02565b925050604084013567ffffffffffffffff811115614c9b57614c9a613de5565b5b614ca786828701613f02565b9150509250925092565b6000614cbc826141c1565b9050919050565b614ccc81614cb1565b82525050565b6000602082019050614ce76000830184614cc3565b92915050565b600081519050919050565b600082825260208201905092915050565b6000819050602082019050919050565b600060a083016000830151614d316000860182614364565b5060208301518482036020860152614d49828261432b565b9150506040830151614d5e60408601826143ba565b5060608301518482036060860152614d76828261432b565b91505060808301518482036080860152614d90828261432b565b9150508091505092915050565b6000614da98383614d19565b905092915050565b6000602082019050919050565b6000614dc982614ced565b614dd38185614cf8565b935083602082028501614de585614d09565b8060005b85811015614e215784840389528151614e028582614d9d565b9450614e0d83614db1565b925060208a01995050600181019050614de9565b50829750879550505050505092915050565b60006020820190508181036000830152614e4d8184614dbe565b905092915050565b600067ffffffffffffffff821115614e7057614e6f613e05565b5b602082029050602081019050919050565b6000614e94614e8f84614e55565b613e65565b90508083825260208201905060208402830185811115614eb757614eb6613fb7565b5b835b81811015614ee05780614ecc8882613f51565b845260208401935050602081019050614eb9565b5050509392505050565b600082601f830112614eff57614efe613dea565b5b8135614f0f848260208601614e81565b91505092915050565b600080600080600060a08688031215614f3457614f33613de0565b5b6000614f4288828901613f51565b955050602086013567ffffffffffffffff811115614f6357614f62613de5565b5b614f6f88828901614eea565b945050604086013567ffffffffffffffff811115614f9057614f8f613de5565b5b614f9c88828901614043565b935050606086013567ffffffffffffffff811115614fbd57614fbc613de5565b5b614fc988828901614043565b925050608086013567ffffffffffffffff811115614fea57614fe9613de5565b5b614ff688828901614043565b9150509295509295909350565b600082825260208201905092915050565b600061501f826142dc565b6150298185615003565b93506150398185602086016142f8565b61504281613df4565b840191505092915050565b600060208201905081810360008301526150678184615014565b905092915050565b7f72667069645f616c72656164795f74616b656e00000000000000000000000000600082015250565b60006150a5601383615003565b91506150b08261506f565b602082019050919050565b600060208201905081810360008301526150d481615098565b9050919050565b7f496e73756666696369656e745f7061796d656e74000000000000000000000000600082015250565b6000615111601483615003565b915061511c826150db565b602082019050919050565b6000602082019050818103600083015261514081615104565b9050919050565b7f616464726573735f6e6f745f61646d696e000000000000000000000000000000600082015250565b600061517d601183615003565b915061518882615147565b602082019050919050565b600060208201905081810360008301526151ac81615170565b9050919050565b7f4e487b7100000000000000000000000000000000000000000000000000000000600052601160045260246000fd5b60006151ed82613f30565b91506151f883613f30565b92508282101561520b5761520a6151b3565b5b828203905092915050565b7f6f70656e646174655f626568696e645f746f6461790000000000000000000000600082015250565b600061524c601583615003565b915061525782615216565b602082019050919050565b6000602082019050818103600083015261527b8161523f565b9050919050565b7f696e697469616c5f646174655f77726f6e670000000000000000000000000000600082015250565b60006152b8601283615003565b91506152c382615282565b602082019050919050565b600060208201905081810360008301526152e7816152ab565b9050919050565b7f726563656976696e675f646174655f77726f6e67000000000000000000000000600082015250565b6000615324601483615003565b915061532f826152ee565b602082019050919050565b6000602082019050818103600083015261535381615317565b9050919050565b600060408201905061536f6000830185614197565b81810360208301526153818184615014565b90509392505050565b600061539582613f30565b91506153a083613f30565b9250827fffffffffffffffffffffffffffffffffffffffffffffffffffffffffffffffff038211156153d5576153d46151b3565b5b828201905092915050565b6000819050919050565b6153fb6153f68261427b565b6153e0565b82525050565b60008160601b9050919050565b600061541982615401565b9050919050565b600061542b8261540e565b9050919050565b61544361543e826141e1565b615420565b82525050565b600061545582856153ea565b6020820191506154658284615432565b6014820191508190509392505050565b7f4e487b7100000000000000000000000000000000000000000000000000000000600052602260045260246000fd5b600060028204905060018216806154bc57607f821691505b602082108114156154d0576154cf615475565b5b50919050565b7f4f6e6c795f6f776e65725f616c6c6f7765640000000000000000000000000000600082015250565b600061550c601283615003565b9150615517826154d6565b602082019050919050565b6000602082019050818103600083015261553b816154ff565b9050919050565b600081905092915050565b50565b600061555d600083615542565b91506155688261554d565b600082019050919050565b600061557e82615550565b9150819050919050565b7f6661696c65645f77697468647261770000000000000000000000000000000000600082015250565b60006155be600f83615003565b91506155c982615588565b602082019050919050565b600060208201905081810360008301526155ed816155b1565b9050919050565b7f4f6e6c795f61646d696e5f63616e5f706572666f726d00000000000000000000600082015250565b600061562a601683615003565b9150615635826155f4565b602082019050919050565b600060208201905081810360008301526156598161561d565b9050919050565b7f4f6e6c795f6973737565725f63616e5f706572666f726d000000000000000000600082015250565b6000615696601783615003565b91506156a182615660565b602082019050919050565b600060208201905081810360008301526156c581615689565b9050919050565b7f616c72656164795f63616e63656c656400000000000000000000000000000000600082015250565b6000615702601083615003565b915061570d826156cc565b602082019050919050565b60006020820190508181036000830152615731816156f5565b9050919050565b7f77726f6e675f636f6e746573745f747970650000000000000000000000000000600082015250565b600061576e601283615003565b915061577982615738565b602082019050919050565b6000602082019050818103600083015261579d81615761565b9050919050565b7f746f6f5f6d616e795f6775657374730000000000000000000000000000000000600082015250565b60006157da600f83615003565b91506157e5826157a4565b602082019050919050565b60006020820190508181036000830152615809816157cd565b9050919050565b7f4e487b7100000000000000000000000000000000000000000000000000000000600052603260045260246000fd5b600060ff82169050919050565b60006158578261583f565b915060ff82141561586b5761586a6151b3565b5b600182019050919050565b7f7266705f616c72656164795f6177617264656400000000000000000000000000600082015250565b60006158ac601383615003565b91506158b782615876565b602082019050919050565b600060208201905081810360008301526158db8161589f565b9050919050565b600081905092915050565b60006158f8826142dc565b61590281856158e2565b93506159128185602086016142f8565b80840191505092915050565b600061592a82846158ed565b915081905092915050565b7f69645f616c72656164795f657869737473000000000000000000000000000000600082015250565b600061596b601183615003565b915061597682615935565b602082019050919050565b6000602082019050818103600083015261599a8161595e565b9050919050565b7f616464726573735f616c72656164795f61646d696e5f6f665f636f6d70616e79600082015250565b60006159d7602083615003565b91506159e2826159a1565b602082019050919050565b60006020820190508181036000830152615a06816159ca565b9050919050565b7f6e6f745f7061727469636970616e740000000000000000000000000000000000600082015250565b6000615a43600f83615003565b9150615a4e82615a0d565b602082019050919050565b60006020820190508181036000830152615a7281615a36565b9050919050565b7f6973737565725f6261645f646f63747970650000000000000000000000000000600082015250565b6000615aaf601283615003565b9150615aba82615a79565b602082019050919050565b60006020820190508181036000830152615ade81615aa2565b9050919050565b7f7061727469636970616e745f6261645f646f6374797065000000000000000000600082015250565b6000615b1b601783615003565b9150615b2682615ae5565b602082019050919050565b60006020820190508181036000830152615b4a81615b0e565b9050919050565b7f656e645f726563656976696e675f726561636865640000000000000000000000600082015250565b6000615b87601583615003565b9150615b9282615b51565b602082019050919050565b60006020820190508181036000830152615bb681615b7a565b9050919050565b7f496e73756666696369656e745f7061796d656e745f6665650000000000000000600082015250565b6000615bf3601883615003565b9150615bfe82615bbd565b602082019050919050565b60006020820190508181036000830152615c2281615be6565b9050919050565b7f6e6f745f6f70656e5f74656e6465720000000000000000000000000000000000600082015250565b6000615c5f600f83615003565b9150615c6a82615c29565b602082019050919050565b60006020820190508181036000830152615c8e81615c52565b9050919050565b7f6d61785f7061727469636970616e74735f726561636865640000000000000000600082015250565b6000615ccb601883615003565b9150615cd682615c95565b602082019050919050565b60006020820190508181036000830152615cfa81615cbe565b9050919050565b7f63616e5f6e6f745f72656769737465725f73656c660000000000000000000000600082015250565b6000615d37601583615003565b9150615d4282615d01565b602082019050919050565b60006020820190508181036000830152615d6681615d2a565b9050919050565b7f616c72656164795f70617274696369706174696e670000000000000000000000600082015250565b6000615da3601583615003565b9150615dae82615d6d565b602082019050919050565b60006020820190508181036000830152615dd281615d96565b9050919050565b7f6e6f745f6d61746368696e675f77696e6e657273000000000000000000000000600082015250565b6000615e0f601483615003565b9150615e1a82615dd9565b602082019050919050565b60006020820190508181036000830152615e3e81615e02565b9050919050565b7f656e64646174655f6e6f745f726561636865645f796574000000000000000000600082015250565b6000615e7b601783615003565b9150615e8682615e45565b602082019050919050565b60006020820190508181036000830152615eaa81615e6e565b9050919050565b7f63616e6e6f745f73656c665f6177617264000000000000000000000000000000600082015250565b6000615ee7601183615003565b9150615ef282615eb1565b602082019050919050565b60006020820190508181036000830152615f1681615eda565b9050919050565b7f696e76616c69645f77696e6e6572000000000000000000000000000000000000600082015250565b6000615f53600e83615003565b9150615f5e82615f1d565b602082019050919050565b60006020820190508181036000830152615f8281615f46565b905091905056fea26469706673582212202ac89fced5ed47e87dc058b4fdb5a56f24fd702cb5ae77b4aaa93e924f86f3c164736f6c63430008090033",
  "linkReferences": {},
  "deployedLinkReferences": {}
}