{
  "_format": "hh-sol-artifact-1",
  "contractName": "clockTest",
  "sourceName": "contracts/clockTest.sol",
  "abi": [
    {
      "inputs": [],
      "name": "getBlockchainClock",
      "outputs": [
        {
          "internalType": "uint256",
          "name": "",
          "type": "uint256"
        }
      ],
      "stateMutability": "view",
      "type": "function"
    }
  ],
  "bytecode": "0x608060405234801561001057600080fd5b5060b58061001f6000396000f3fe6080604052348015600f57600080fd5b506004361060285760003560e01c80636fc479ae14602d575b600080fd5b60336047565b604051603e91906066565b60405180910390f35b600042905090565b6000819050919050565b606081604f565b82525050565b6000602082019050607960008301846059565b9291505056fea2646970667358221220a2105bf066d329e909783b40f4614232ae808c110ed609aa096d752b7b11280464736f6c63430008090033",
  "linkReferences": {},
  "deployedLinkReferences": {}
}